{
  "address": "0xCb9Ce2fa1EBef370CC060aD65294075EDdC7f8Ea",
  "abi": [
    {
      "inputs": [
        {
          "internalType": "address[]",
          "name": "_reviewers",
          "type": "address[]"
        }
      ],
      "stateMutability": "nonpayable",
      "type": "constructor"
    },
    {
      "anonymous": false,
      "inputs": [
        {
          "indexed": true,
          "internalType": "address",
          "name": "previousOwner",
          "type": "address"
        },
        {
          "indexed": true,
          "internalType": "address",
          "name": "newOwner",
          "type": "address"
        }
      ],
      "name": "OwnershipTransferred",
      "type": "event"
    },
    {
      "anonymous": false,
      "inputs": [
        {
          "indexed": true,
          "internalType": "string",
          "name": "_projectId",
          "type": "string"
        }
      ],
      "name": "RandomNumberFulfilled",
      "type": "event"
    },
    {
      "inputs": [
        {
          "internalType": "address",
          "name": "_newWhiteList",
          "type": "address"
        }
      ],
      "name": "addContractToWhiteList",
      "outputs": [],
      "stateMutability": "nonpayable",
      "type": "function"
    },
    {
      "inputs": [
        {
          "internalType": "string",
          "name": "",
          "type": "string"
        }
      ],
      "name": "blockNumberResults",
      "outputs": [
        {
          "internalType": "uint256",
          "name": "",
          "type": "uint256"
        }
      ],
      "stateMutability": "view",
      "type": "function"
    },
    {
      "inputs": [
        {
          "internalType": "string",
          "name": "_objectId",
          "type": "string"
        }
      ],
      "name": "getObjectRarities",
      "outputs": [
        {
          "internalType": "uint8[]",
          "name": "",
          "type": "uint8[]"
        }
      ],
      "stateMutability": "view",
      "type": "function"
    },
    {
      "inputs": [
        {
          "internalType": "string",
          "name": "_objectId",
          "type": "string"
        },
        {
          "internalType": "uint256",
          "name": "_numContributors",
          "type": "uint256"
        }
      ],
      "name": "getRandomNumber",
      "outputs": [
        {
          "internalType": "bytes32",
          "name": "requestId",
          "type": "bytes32"
        }
      ],
      "stateMutability": "nonpayable",
      "type": "function"
    },
    {
      "inputs": [
        {
          "internalType": "bytes32",
          "name": "",
          "type": "bytes32"
        }
      ],
      "name": "numContributors",
      "outputs": [
        {
          "internalType": "uint256",
          "name": "",
          "type": "uint256"
        }
      ],
      "stateMutability": "view",
      "type": "function"
    },
    {
      "inputs": [
        {
          "internalType": "bytes32",
          "name": "",
          "type": "bytes32"
        }
      ],
      "name": "objectRequests",
      "outputs": [
        {
          "internalType": "string",
          "name": "",
          "type": "string"
        }
      ],
      "stateMutability": "view",
      "type": "function"
    },
    {
      "inputs": [],
      "name": "owner",
      "outputs": [
        {
          "internalType": "address",
          "name": "",
          "type": "address"
        }
      ],
      "stateMutability": "view",
      "type": "function"
    },
    {
      "inputs": [
        {
          "internalType": "bytes32",
          "name": "requestId",
          "type": "bytes32"
        },
        {
          "internalType": "uint256",
          "name": "randomness",
          "type": "uint256"
        }
      ],
      "name": "rawFulfillRandomness",
      "outputs": [],
      "stateMutability": "nonpayable",
      "type": "function"
    },
    {
      "inputs": [],
      "name": "renounceOwnership",
      "outputs": [],
      "stateMutability": "nonpayable",
      "type": "function"
    },
    {
      "inputs": [
        {
          "internalType": "string",
          "name": "",
          "type": "string"
        }
      ],
      "name": "requestResults",
      "outputs": [
        {
          "internalType": "uint256",
          "name": "",
          "type": "uint256"
        }
      ],
      "stateMutability": "view",
      "type": "function"
    },
    {
      "inputs": [
        {
          "internalType": "address",
          "name": "newOwner",
          "type": "address"
        }
      ],
      "name": "transferOwnership",
      "outputs": [],
      "stateMutability": "nonpayable",
      "type": "function"
    }
  ],
  "transactionHash": "0xacdedc8f0f5ef5317b2405a16748674dad875376072edff27eecf4ebff0dc17d",
  "args": [
    [
      "0xD39C3Cdb811f6544067ECFeDEf40855578cA0C52",
      "0xA072f8Bd3847E21C8EdaAf38D7425631a2A63631",
      "0x2c0B08C414A8EE088596832cf64eFcA283D46703",
      "0x16eBE01dCae1338f8d1802C63712C5279e768d29",
      "0x3E31155a1c17c9F85e74828447aec412090a4622",
      "0x4678854dB7421fF1B3C5ACAe6c5C11e73f4F5702",
      "0xDAFf97a69408Cdb4AeFE331eA029a55e189ef60b",
      "0xD39C3Cdb811f6544067ECFeDEf40855578cA0C52"
    ]
  ],
  "numDeployments": 1,
  "solcInputHash": "923984fbf4b7d4483750eb481a6a63e9",
  "bytecode": "0x60c06040523480156200001157600080fd5b50604051620013c3380380620013c383398101604081905262000034916200022e565b7fdd3782915140c8f3b190b5d67eac6dc5760c46e900000000000000000000000060a0527fa36085f69e2889c224210f603d836748e7dc00880000000000000000000000006080526200008733620001bf565b7f6c3699283bda56ad74f6b855546325b68d482e983852a7a82979cc4807b641f460025567016345785d8a000060035560005b8151811015620001b75760006001600160a01b0316828281518110620000e457620000e462000331565b60200260200101516001600160a01b0316141580156200014157506009600083838151811062000118576200011862000331565b6020908102919091018101516001600160a01b031682528101919091526040016000205460ff16155b15620001a25760016009600084848151811062000162576200016262000331565b60200260200101516001600160a01b03166001600160a01b0316815260200190815260200160002060006101000a81548160ff0219169083151502179055505b80620001ae8162000307565b915050620000ba565b50506200035d565b600180546001600160a01b038381166001600160a01b0319831681179093556040519116919082907f8be0079c531659141344cd1fd0a4f28419497f9722a3daafe3b4186f6b6457e090600090a35050565b80516001600160a01b03811681146200022957600080fd5b919050565b600060208083850312156200024257600080fd5b82516001600160401b03808211156200025a57600080fd5b818501915085601f8301126200026f57600080fd5b81518181111562000284576200028462000347565b8060051b604051601f19603f83011681018181108582111715620002ac57620002ac62000347565b604052828152858101935084860182860187018a1015620002cc57600080fd5b600095505b83861015620002fa57620002e58162000211565b855260019590950194938601938601620002d1565b5098975050505050505050565b60006000198214156200032a57634e487b7160e01b600052601160045260246000fd5b5060010190565b634e487b7160e01b600052603260045260246000fd5b634e487b7160e01b600052604160045260246000fd5b60805160601c60a05160601c61102c62000397600039600081816102f801526109e80152600081816103db01526109b9015261102c6000f3fe608060405234801561001057600080fd5b50600436106100a95760003560e01c806395dff4321161007157806395dff432146101395780639ddfbe361461014c578063bf0d623a1461015f578063c646b3c61461018a578063d2f533a7146101aa578063f2fde38b146101d557600080fd5b80633a0cf4a1146100ae5780633f94c471146100e1578063715018a6146101015780638da5cb5b1461010b57806394985ddd14610126575b600080fd5b6100ce6100bc366004610d54565b60056020526000908152604090205481565b6040519081526020015b60405180910390f35b6100f46100ef366004610d54565b6101e8565b6040516100d89190610ee1565b610109610282565b005b6001546040516001600160a01b0390911681526020016100d8565b610109610134366004610d6d565b6102ed565b6100ce610147366004610dc4565b610373565b61010961015a366004610d02565b610509565b6100ce61016d366004610d8f565b805160208183018101805160078252928201919093012091525481565b61019d610198366004610d8f565b6105d9565b6040516100d89190610e9a565b6100ce6101b8366004610d8f565b805160208183018101805160088252928201919093012091525481565b6101096101e3366004610d02565b610667565b6004602052600090815260409020805461020190610f3c565b80601f016020809104026020016040519081016040528092919081815260200182805461022d90610f3c565b801561027a5780601f1061024f5761010080835404028352916020019161027a565b820191906000526020600020905b81548152906001019060200180831161025d57829003601f168201915b505050505081565b6001546001600160a01b031633146102e15760405162461bcd60e51b815260206004820181905260248201527f4f776e61626c653a2063616c6c6572206973206e6f7420746865206f776e657260448201526064015b60405180910390fd5b6102eb6000610732565b565b336001600160a01b037f000000000000000000000000000000000000000000000000000000000000000016146103655760405162461bcd60e51b815260206004820152601f60248201527f4f6e6c7920565246436f6f7264696e61746f722063616e2066756c66696c6c0060448201526064016102d8565b61036f8282610784565b5050565b3360009081526009602052604081205460ff166103c35760405162461bcd60e51b815260206004820152600e60248201526d1b9bdd08185d5d1a1bdc9a5e995960921b60448201526064016102d8565b6003546040516370a0823160e01b81523060048201527f00000000000000000000000000000000000000000000000000000000000000006001600160a01b0316906370a082319060240160206040518083038186803b15801561042557600080fd5b505afa158015610439573d6000803e3d6000fd5b505050506040513d601f19601f8201168201806040525081019061045d9190610e09565b10156104bf5760405162461bcd60e51b815260206004820152602b60248201527f4e6f7420656e6f756768204c494e4b202d2066696c6c20636f6e74726163742060448201526a1dda5d1a0819985d58d95d60aa1b60648201526084016102d8565b6104cd6002546003546109b5565b600081815260046020908152604090912085519293506104f1929091860190610b3f565b50600081815260056020526040902082905592915050565b3360009081526009602052604090205460ff166105595760405162461bcd60e51b815260206004820152600e60248201526d1b9bdd08185d5d1a1bdc9a5e995960921b60448201526064016102d8565b6001600160a01b03811660009081526009602052604090205460ff16156105b55760405162461bcd60e51b815260206004820152601060248201526f185b1c9958591e48185c1c1c9bdd995960821b60448201526064016102d8565b6001600160a01b03166000908152600960205260409020805460ff19166001179055565b60606006826040516105eb9190610e4e565b908152604080519182900360209081018320805480830285018301909352828452919083018282801561065b57602002820191906000526020600020906000905b825461010083900a900460ff1681526020600192830181810494850194909303909202910180841161062c5790505b50505050509050919050565b6001546001600160a01b031633146106c15760405162461bcd60e51b815260206004820181905260248201527f4f776e61626c653a2063616c6c6572206973206e6f7420746865206f776e657260448201526064016102d8565b6001600160a01b0381166107265760405162461bcd60e51b815260206004820152602660248201527f4f776e61626c653a206e6577206f776e657220697320746865207a65726f206160448201526564647265737360d01b60648201526084016102d8565b61072f81610732565b50565b600180546001600160a01b038381166001600160a01b0319831681179093556040519116919082907f8be0079c531659141344cd1fd0a4f28419497f9722a3daafe3b4186f6b6457e090600090a35050565b6000828152600460205260408120805461079d90610f3c565b80601f01602080910402602001604051908101604052809291908181526020018280546107c990610f3c565b80156108165780601f106107eb57610100808354040283529160200191610816565b820191906000526020600020905b8154815290600101906020018083116107f957829003601f168201915b505050505090508160088260405161082e9190610e4e565b908152602001604051809103902081905550436007826040516108519190610e4e565b908152602001604051809103902081905550600080600560008681526020019081526020016000205467ffffffffffffffff81111561089257610892610fe0565b6040519080825280602002602001820160405280156108bb578160200160208202803683370190505b5090505b805182101561093d57604080516020808201879052818301859052825180830384018152606090920190925280519101206108fc90606490610f92565b610907906001610ef4565b81838151811061091957610919610fca565b60ff909216602092830291909101909101528161093581610f77565b9250506108bf565b8060068460405161094e9190610e4e565b9081526020016040518091039020908051906020019061096f929190610bc3565b508260405161097e9190610e4e565b604051908190038120907f89348ca1470df70645d2bf342f9aa562a7b5ad1ad91637a50fafc2c8b847299490600090a25050505050565b60007f00000000000000000000000000000000000000000000000000000000000000006001600160a01b0316634000aea07f000000000000000000000000000000000000000000000000000000000000000084866000604051602001610a25929190918252602082015260400190565b6040516020818303038152906040526040518463ffffffff1660e01b8152600401610a5293929190610e6a565b602060405180830381600087803b158015610a6c57600080fd5b505af1158015610a80573d6000803e3d6000fd5b505050506040513d601f19601f82011682018060405250810190610aa49190610d32565b5060008381526020818152604080832054815180840188905280830185905230606082015260808082018390528351808303909101815260a090910190925281519183019190912086845292909152610afe906001610ef4565b60008581526020818152604091829020929092558051808301879052808201849052815180820383018152606090910190915280519101205b949350505050565b828054610b4b90610f3c565b90600052602060002090601f016020900481019282610b6d5760008555610bb3565b82601f10610b8657805160ff1916838001178555610bb3565b82800160010185558215610bb3579182015b82811115610bb3578251825591602001919060010190610b98565b50610bbf929150610c60565b5090565b82805482825590600052602060002090601f01602090048101928215610bb35791602002820160005b83821115610c2a57835183826101000a81548160ff021916908360ff1602179055509260200192600101602081600001049283019260010302610bec565b8015610c575782816101000a81549060ff0219169055600101602081600001049283019260010302610c2a565b5050610bbf9291505b5b80821115610bbf5760008155600101610c61565b600082601f830112610c8657600080fd5b813567ffffffffffffffff80821115610ca157610ca1610fe0565b604051601f8301601f19908116603f01168101908282118183101715610cc957610cc9610fe0565b81604052838152866020858801011115610ce257600080fd5b836020870160208301376000602085830101528094505050505092915050565b600060208284031215610d1457600080fd5b81356001600160a01b0381168114610d2b57600080fd5b9392505050565b600060208284031215610d4457600080fd5b81518015158114610d2b57600080fd5b600060208284031215610d6657600080fd5b5035919050565b60008060408385031215610d8057600080fd5b50508035926020909101359150565b600060208284031215610da157600080fd5b813567ffffffffffffffff811115610db857600080fd5b610b3784828501610c75565b60008060408385031215610dd757600080fd5b823567ffffffffffffffff811115610dee57600080fd5b610dfa85828601610c75565b95602094909401359450505050565b600060208284031215610e1b57600080fd5b5051919050565b60008151808452610e3a816020860160208601610f0c565b601f01601f19169290920160200192915050565b60008251610e60818460208701610f0c565b9190910192915050565b60018060a01b0384168152826020820152606060408201526000610e916060830184610e22565b95945050505050565b6020808252825182820181905260009190848201906040850190845b81811015610ed557835160ff1683529284019291840191600101610eb6565b50909695505050505050565b602081526000610d2b6020830184610e22565b60008219821115610f0757610f07610fb4565b500190565b60005b83811015610f27578181015183820152602001610f0f565b83811115610f36576000848401525b50505050565b600181811c90821680610f5057607f821691505b60208210811415610f7157634e487b7160e01b600052602260045260246000fd5b50919050565b6000600019821415610f8b57610f8b610fb4565b5060010190565b600082610faf57634e487b7160e01b600052601260045260246000fd5b500690565b634e487b7160e01b600052601160045260246000fd5b634e487b7160e01b600052603260045260246000fd5b634e487b7160e01b600052604160045260246000fdfea2646970667358221220e0119717183545ed47d012da70d706c74f0ced11e72e2e2767acf65eb1533be464736f6c63430008070033",
  "devdoc": {
    "kind": "dev",
    "methods": {
      "owner()": {
        "details": "Returns the address of the current owner."
      },
      "renounceOwnership()": {
        "details": "Leaves the contract without owner. It will not be possible to call `onlyOwner` functions anymore. Can only be called by the current owner. NOTE: Renouncing ownership will leave the contract without an owner, thereby removing any functionality that is only available to the owner."
      },
      "transferOwnership(address)": {
        "details": "Transfers ownership of the contract to a new account (`newOwner`). Can only be called by the current owner."
      }
    },
    "version": 1
  },
  "userdoc": {
    "kind": "user",
    "methods": {
      "constructor": {
        "notice": "Constructor inherits VRFConsumerBase  Network: Kovan Chainlink VRF Coordinator address: 0xdD3782915140c8f3b190B5D67eAc6dc5760C46E9 LINK token address:                0xa36085F69e2889c224210F603D836748e7dC0088 Key Hash: 0x6c3699283bda56ad74f6b855546325b68d482e983852a7a82979cc4807b641f4"
      },
      "getRandomNumber(string,uint256)": {
        "notice": "Requests randomness "
      }
    },
    "version": 1
  },
  "storageLayout": {
    "storage": [
      {
        "astId": 79,
        "contract": "contracts/RandomNumberConsumer.sol:RandomNumberConsumer",
        "label": "nonces",
        "offset": 0,
        "slot": "0",
        "type": "t_mapping(t_bytes32,t_uint256)"
      },
      {
        "astId": 273,
        "contract": "contracts/RandomNumberConsumer.sol:RandomNumberConsumer",
        "label": "_owner",
        "offset": 0,
        "slot": "1",
        "type": "t_address"
      },
      {
        "astId": 8350,
        "contract": "contracts/RandomNumberConsumer.sol:RandomNumberConsumer",
        "label": "keyHash",
        "offset": 0,
        "slot": "2",
        "type": "t_bytes32"
      },
      {
        "astId": 8352,
        "contract": "contracts/RandomNumberConsumer.sol:RandomNumberConsumer",
        "label": "fee",
        "offset": 0,
        "slot": "3",
        "type": "t_uint256"
      },
      {
        "astId": 8356,
        "contract": "contracts/RandomNumberConsumer.sol:RandomNumberConsumer",
        "label": "objectRequests",
        "offset": 0,
        "slot": "4",
        "type": "t_mapping(t_bytes32,t_string_storage)"
      },
      {
        "astId": 8360,
        "contract": "contracts/RandomNumberConsumer.sol:RandomNumberConsumer",
        "label": "numContributors",
        "offset": 0,
        "slot": "5",
        "type": "t_mapping(t_bytes32,t_uint256)"
      },
      {
        "astId": 8365,
        "contract": "contracts/RandomNumberConsumer.sol:RandomNumberConsumer",
        "label": "objectRarities",
        "offset": 0,
        "slot": "6",
        "type": "t_mapping(t_string_memory_ptr,t_array(t_uint8)dyn_storage)"
      },
      {
        "astId": 8369,
        "contract": "contracts/RandomNumberConsumer.sol:RandomNumberConsumer",
        "label": "blockNumberResults",
        "offset": 0,
        "slot": "7",
        "type": "t_mapping(t_string_memory_ptr,t_uint256)"
      },
      {
        "astId": 8373,
        "contract": "contracts/RandomNumberConsumer.sol:RandomNumberConsumer",
        "label": "requestResults",
        "offset": 0,
        "slot": "8",
        "type": "t_mapping(t_string_memory_ptr,t_uint256)"
      },
      {
        "astId": 8377,
        "contract": "contracts/RandomNumberConsumer.sol:RandomNumberConsumer",
        "label": "whiteList",
        "offset": 0,
        "slot": "9",
        "type": "t_mapping(t_address,t_bool)"
      }
    ],
    "types": {
      "t_address": {
        "encoding": "inplace",
        "label": "address",
        "numberOfBytes": "20"
      },
      "t_array(t_uint8)dyn_storage": {
        "base": "t_uint8",
        "encoding": "dynamic_array",
        "label": "uint8[]",
        "numberOfBytes": "32"
      },
      "t_bool": {
        "encoding": "inplace",
        "label": "bool",
        "numberOfBytes": "1"
      },
      "t_bytes32": {
        "encoding": "inplace",
        "label": "bytes32",
        "numberOfBytes": "32"
      },
      "t_mapping(t_address,t_bool)": {
        "encoding": "mapping",
        "key": "t_address",
        "label": "mapping(address => bool)",
        "numberOfBytes": "32",
        "value": "t_bool"
      },
      "t_mapping(t_bytes32,t_string_storage)": {
        "encoding": "mapping",
        "key": "t_bytes32",
        "label": "mapping(bytes32 => string)",
        "numberOfBytes": "32",
        "value": "t_string_storage"
      },
      "t_mapping(t_bytes32,t_uint256)": {
        "encoding": "mapping",
        "key": "t_bytes32",
        "label": "mapping(bytes32 => uint256)",
        "numberOfBytes": "32",
        "value": "t_uint256"
      },
      "t_mapping(t_string_memory_ptr,t_array(t_uint8)dyn_storage)": {
        "encoding": "mapping",
        "key": "t_string_memory_ptr",
        "label": "mapping(string => uint8[])",
        "numberOfBytes": "32",
        "value": "t_array(t_uint8)dyn_storage"
      },
      "t_mapping(t_string_memory_ptr,t_uint256)": {
        "encoding": "mapping",
        "key": "t_string_memory_ptr",
        "label": "mapping(string => uint256)",
        "numberOfBytes": "32",
        "value": "t_uint256"
      },
      "t_string_memory_ptr": {
        "encoding": "bytes",
        "label": "string",
        "numberOfBytes": "32"
      },
      "t_string_storage": {
        "encoding": "bytes",
        "label": "string",
        "numberOfBytes": "32"
      },
      "t_uint256": {
        "encoding": "inplace",
        "label": "uint256",
        "numberOfBytes": "32"
      },
      "t_uint8": {
        "encoding": "inplace",
        "label": "uint8",
        "numberOfBytes": "1"
      }
    }
  }
}