{
  "address": "0x1678f8F2c53Be66D01d9F8DE67fc3f3BF03292d0",
  "abi": [
    {
      "inputs": [
        {
          "internalType": "address",
          "name": "_vrfAddress",
          "type": "address"
        },
        {
          "internalType": "address",
          "name": "_projectNFTAddress",
          "type": "address"
        },
        {
          "internalType": "address",
          "name": "_pathwayNFTAddress",
          "type": "address"
        },
        {
          "internalType": "address",
          "name": "_verifyAddress",
          "type": "address"
        }
      ],
      "stateMutability": "nonpayable",
      "type": "constructor"
    },
    {
      "anonymous": false,
      "inputs": [
        {
          "indexed": true,
          "internalType": "address",
          "name": "owner",
          "type": "address"
        },
        {
          "indexed": true,
          "internalType": "address",
          "name": "approved",
          "type": "address"
        },
        {
          "indexed": true,
          "internalType": "uint256",
          "name": "tokenId",
          "type": "uint256"
        }
      ],
      "name": "Approval",
      "type": "event"
    },
    {
      "anonymous": false,
      "inputs": [
        {
          "indexed": true,
          "internalType": "address",
          "name": "owner",
          "type": "address"
        },
        {
          "indexed": true,
          "internalType": "address",
          "name": "operator",
          "type": "address"
        },
        {
          "indexed": false,
          "internalType": "bool",
          "name": "approved",
          "type": "bool"
        }
      ],
      "name": "ApprovalForAll",
      "type": "event"
    },
    {
      "anonymous": false,
      "inputs": [
        {
          "indexed": true,
          "internalType": "string",
          "name": "_badgeId",
          "type": "string"
        }
      ],
      "name": "BadgeApproved",
      "type": "event"
    },
    {
      "anonymous": false,
      "inputs": [
        {
          "indexed": true,
          "internalType": "address",
          "name": "_to",
          "type": "address"
        },
        {
          "indexed": true,
          "internalType": "string",
          "name": "_tokenURI",
          "type": "string"
        },
        {
          "indexed": true,
          "internalType": "string",
          "name": "_badgeId",
          "type": "string"
        }
      ],
      "name": "NFTBadgeMinted",
      "type": "event"
    },
    {
      "anonymous": false,
      "inputs": [
        {
          "indexed": true,
          "internalType": "address",
          "name": "previousOwner",
          "type": "address"
        },
        {
          "indexed": true,
          "internalType": "address",
          "name": "newOwner",
          "type": "address"
        }
      ],
      "name": "OwnershipTransferred",
      "type": "event"
    },
    {
      "anonymous": false,
      "inputs": [
        {
          "indexed": false,
          "internalType": "address",
          "name": "_caller",
          "type": "address"
        },
        {
          "indexed": false,
          "internalType": "uint256",
          "name": "_value",
          "type": "uint256"
        }
      ],
      "name": "ReceiveCalled",
      "type": "event"
    },
    {
      "anonymous": false,
      "inputs": [
        {
          "indexed": true,
          "internalType": "address",
          "name": "from",
          "type": "address"
        },
        {
          "indexed": true,
          "internalType": "address",
          "name": "to",
          "type": "address"
        },
        {
          "indexed": true,
          "internalType": "uint256",
          "name": "tokenId",
          "type": "uint256"
        }
      ],
      "name": "Transfer",
      "type": "event"
    },
    {
      "inputs": [
        {
          "internalType": "string",
          "name": "_badgeId",
          "type": "string"
        },
        {
          "internalType": "address",
          "name": "_ERC20Address",
          "type": "address"
        },
        {
          "internalType": "bool",
          "name": "useNative",
          "type": "bool"
        },
        {
          "internalType": "uint256",
          "name": "amount",
          "type": "uint256"
        }
      ],
      "name": "addBadgeCreationReward",
      "outputs": [],
      "stateMutability": "payable",
      "type": "function"
    },
    {
      "inputs": [
        {
          "internalType": "string",
          "name": "",
          "type": "string"
        }
      ],
      "name": "adventurerAddress",
      "outputs": [
        {
          "internalType": "address",
          "name": "",
          "type": "address"
        }
      ],
      "stateMutability": "view",
      "type": "function"
    },
    {
      "inputs": [
        {
          "internalType": "address",
          "name": "to",
          "type": "address"
        },
        {
          "internalType": "uint256",
          "name": "tokenId",
          "type": "uint256"
        }
      ],
      "name": "approve",
      "outputs": [],
      "stateMutability": "nonpayable",
      "type": "function"
    },
    {
      "inputs": [
        {
          "internalType": "string",
          "name": "",
          "type": "string"
        }
      ],
      "name": "badgeMinted",
      "outputs": [
        {
          "internalType": "bool",
          "name": "",
          "type": "bool"
        }
      ],
      "stateMutability": "view",
      "type": "function"
    },
    {
      "inputs": [
        {
          "internalType": "address",
          "name": "owner",
          "type": "address"
        }
      ],
      "name": "balanceOf",
      "outputs": [
        {
          "internalType": "uint256",
          "name": "",
          "type": "uint256"
        }
      ],
      "stateMutability": "view",
      "type": "function"
    },
    {
      "inputs": [
        {
          "internalType": "string",
          "name": "_badgeId",
          "type": "string"
        },
        {
          "internalType": "bool",
          "name": "native",
          "type": "bool"
        },
        {
          "internalType": "address",
          "name": "_ERC20Address",
          "type": "address"
        },
        {
          "internalType": "bytes32",
          "name": "r",
          "type": "bytes32"
        },
        {
          "internalType": "bytes32",
          "name": "s",
          "type": "bytes32"
        },
        {
          "internalType": "uint8",
          "name": "v",
          "type": "uint8"
        },
        {
          "internalType": "bool",
          "name": "claimReward",
          "type": "bool"
        },
        {
          "internalType": "string",
          "name": "_tokenURI",
          "type": "string"
        },
        {
          "internalType": "uint256",
          "name": "version",
          "type": "uint256"
        }
      ],
      "name": "claimBadgeRewards",
      "outputs": [],
      "stateMutability": "nonpayable",
      "type": "function"
    },
    {
      "inputs": [
        {
          "internalType": "string",
          "name": "_badgeId",
          "type": "string"
        },
        {
          "internalType": "bool",
          "name": "native",
          "type": "bool"
        },
        {
          "internalType": "address",
          "name": "_ERC20Address",
          "type": "address"
        }
      ],
      "name": "claimRejectionRefund",
      "outputs": [],
      "stateMutability": "nonpayable",
      "type": "function"
    },
    {
      "inputs": [
        {
          "internalType": "string",
          "name": "_badgeId",
          "type": "string"
        },
        {
          "internalType": "string",
          "name": "_pathwayId",
          "type": "string"
        },
        {
          "internalType": "uint256",
          "name": "numUsersRewarded",
          "type": "uint256"
        },
        {
          "internalType": "bool",
          "name": "callRewards",
          "type": "bool"
        },
        {
          "internalType": "address",
          "name": "_ERC20Address",
          "type": "address"
        },
        {
          "internalType": "bool",
          "name": "useNative",
          "type": "bool"
        },
        {
          "internalType": "uint256",
          "name": "amount",
          "type": "uint256"
        }
      ],
      "name": "createBadge",
      "outputs": [],
      "stateMutability": "payable",
      "type": "function"
    },
    {
      "inputs": [
        {
          "internalType": "string",
          "name": "_tokenURI",
          "type": "string"
        },
        {
          "internalType": "string",
          "name": "_badgeId",
          "type": "string"
        },
        {
          "internalType": "string",
          "name": "_pathwayId",
          "type": "string"
        },
        {
          "internalType": "bytes32[2]",
          "name": "r",
          "type": "bytes32[2]"
        },
        {
          "internalType": "bytes32[2]",
          "name": "s",
          "type": "bytes32[2]"
        },
        {
          "internalType": "uint8[2]",
          "name": "v",
          "type": "uint8[2]"
        },
        {
          "internalType": "uint256",
          "name": "votesNeeded",
          "type": "uint256"
        }
      ],
      "name": "createToken",
      "outputs": [
        {
          "internalType": "uint256[]",
          "name": "",
          "type": "uint256[]"
        }
      ],
      "stateMutability": "nonpayable",
      "type": "function"
    },
    {
      "inputs": [
        {
          "internalType": "string",
          "name": "",
          "type": "string"
        },
        {
          "internalType": "address",
          "name": "",
          "type": "address"
        }
      ],
      "name": "currentNumUsersRewardPerBadgeERC20",
      "outputs": [
        {
          "internalType": "uint256",
          "name": "",
          "type": "uint256"
        }
      ],
      "stateMutability": "view",
      "type": "function"
    },
    {
      "inputs": [
        {
          "internalType": "string",
          "name": "",
          "type": "string"
        }
      ],
      "name": "currentNumUsersRewardPerBadgeNative",
      "outputs": [
        {
          "internalType": "uint256",
          "name": "",
          "type": "uint256"
        }
      ],
      "stateMutability": "view",
      "type": "function"
    },
    {
      "inputs": [],
      "name": "fee",
      "outputs": [
        {
          "internalType": "uint256",
          "name": "",
          "type": "uint256"
        }
      ],
      "stateMutability": "view",
      "type": "function"
    },
    {
      "inputs": [
        {
          "internalType": "string",
          "name": "_badgeId",
          "type": "string"
        },
        {
          "internalType": "uint256",
          "name": "version",
          "type": "uint256"
        }
      ],
      "name": "getAllAddrsByBadgeIDVersion",
      "outputs": [
        {
          "internalType": "address[]",
          "name": "",
          "type": "address[]"
        }
      ],
      "stateMutability": "view",
      "type": "function"
    },
    {
      "inputs": [
        {
          "internalType": "string",
          "name": "_badgeId",
          "type": "string"
        },
        {
          "internalType": "uint256",
          "name": "version",
          "type": "uint256"
        }
      ],
      "name": "getAllTokenIdsByBadgeIDVersion",
      "outputs": [
        {
          "internalType": "uint256[]",
          "name": "",
          "type": "uint256[]"
        }
      ],
      "stateMutability": "view",
      "type": "function"
    },
    {
      "inputs": [],
      "name": "getAppDiamond",
      "outputs": [
        {
          "internalType": "address",
          "name": "",
          "type": "address"
        }
      ],
      "stateMutability": "view",
      "type": "function"
    },
    {
      "inputs": [
        {
          "internalType": "uint256",
          "name": "tokenId",
          "type": "uint256"
        }
      ],
      "name": "getApproved",
      "outputs": [
        {
          "internalType": "address",
          "name": "",
          "type": "address"
        }
      ],
      "stateMutability": "view",
      "type": "function"
    },
    {
      "inputs": [
        {
          "internalType": "string",
          "name": "_badgeId",
          "type": "string"
        }
      ],
      "name": "getContributors",
      "outputs": [
        {
          "internalType": "address[]",
          "name": "",
          "type": "address[]"
        }
      ],
      "stateMutability": "view",
      "type": "function"
    },
    {
      "inputs": [
        {
          "internalType": "address",
          "name": "adventurer",
          "type": "address"
        }
      ],
      "name": "getVersionsAndBadgeIDsByAdventurer",
      "outputs": [
        {
          "internalType": "uint256[]",
          "name": "versions",
          "type": "uint256[]"
        },
        {
          "internalType": "string",
          "name": "concatBadgeIds",
          "type": "string"
        }
      ],
      "stateMutability": "view",
      "type": "function"
    },
    {
      "inputs": [
        {
          "internalType": "address",
          "name": "owner",
          "type": "address"
        },
        {
          "internalType": "address",
          "name": "operator",
          "type": "address"
        }
      ],
      "name": "isApprovedForAll",
      "outputs": [
        {
          "internalType": "bool",
          "name": "",
          "type": "bool"
        }
      ],
      "stateMutability": "view",
      "type": "function"
    },
    {
      "inputs": [],
      "name": "name",
      "outputs": [
        {
          "internalType": "string",
          "name": "",
          "type": "string"
        }
      ],
      "stateMutability": "view",
      "type": "function"
    },
    {
      "inputs": [
        {
          "internalType": "string",
          "name": "",
          "type": "string"
        }
      ],
      "name": "nativeRefundClaimed",
      "outputs": [
        {
          "internalType": "bool",
          "name": "",
          "type": "bool"
        }
      ],
      "stateMutability": "view",
      "type": "function"
    },
    {
      "inputs": [
        {
          "internalType": "string",
          "name": "",
          "type": "string"
        }
      ],
      "name": "nativeRewards",
      "outputs": [
        {
          "internalType": "uint256",
          "name": "",
          "type": "uint256"
        }
      ],
      "stateMutability": "view",
      "type": "function"
    },
    {
      "inputs": [
        {
          "internalType": "string",
          "name": "",
          "type": "string"
        },
        {
          "internalType": "address",
          "name": "",
          "type": "address"
        }
      ],
      "name": "nonces",
      "outputs": [
        {
          "internalType": "uint256",
          "name": "",
          "type": "uint256"
        }
      ],
      "stateMutability": "view",
      "type": "function"
    },
    {
      "inputs": [
        {
          "internalType": "string",
          "name": "",
          "type": "string"
        }
      ],
      "name": "numUsersRewardPerBadge",
      "outputs": [
        {
          "internalType": "uint256",
          "name": "",
          "type": "uint256"
        }
      ],
      "stateMutability": "view",
      "type": "function"
    },
    {
      "inputs": [],
      "name": "owner",
      "outputs": [
        {
          "internalType": "address",
          "name": "",
          "type": "address"
        }
      ],
      "stateMutability": "view",
      "type": "function"
    },
    {
      "inputs": [
        {
          "internalType": "uint256",
          "name": "tokenId",
          "type": "uint256"
        }
      ],
      "name": "ownerOf",
      "outputs": [
        {
          "internalType": "address",
          "name": "",
          "type": "address"
        }
      ],
      "stateMutability": "view",
      "type": "function"
    },
    {
      "inputs": [
        {
          "internalType": "string",
          "name": "",
          "type": "string"
        }
      ],
      "name": "pathwayIdforBadge",
      "outputs": [
        {
          "internalType": "string",
          "name": "",
          "type": "string"
        }
      ],
      "stateMutability": "view",
      "type": "function"
    },
    {
      "inputs": [],
      "name": "renounceOwnership",
      "outputs": [],
      "stateMutability": "nonpayable",
      "type": "function"
    },
    {
      "inputs": [
        {
          "internalType": "string",
          "name": "",
          "type": "string"
        },
        {
          "internalType": "address",
          "name": "",
          "type": "address"
        }
      ],
      "name": "reviewerVotes",
      "outputs": [
        {
          "internalType": "bool",
          "name": "",
          "type": "bool"
        }
      ],
      "stateMutability": "view",
      "type": "function"
    },
    {
      "inputs": [
        {
          "internalType": "address",
          "name": "from",
          "type": "address"
        },
        {
          "internalType": "address",
          "name": "to",
          "type": "address"
        },
        {
          "internalType": "uint256",
          "name": "tokenId",
          "type": "uint256"
        }
      ],
      "name": "safeTransferFrom",
      "outputs": [],
      "stateMutability": "nonpayable",
      "type": "function"
    },
    {
      "inputs": [
        {
          "internalType": "address",
          "name": "from",
          "type": "address"
        },
        {
          "internalType": "address",
          "name": "to",
          "type": "address"
        },
        {
          "internalType": "uint256",
          "name": "tokenId",
          "type": "uint256"
        },
        {
          "internalType": "bytes",
          "name": "_data",
          "type": "bytes"
        }
      ],
      "name": "safeTransferFrom",
      "outputs": [],
      "stateMutability": "nonpayable",
      "type": "function"
    },
    {
      "inputs": [
        {
          "internalType": "address",
          "name": "newFactory",
          "type": "address"
        }
      ],
      "name": "setAdventureFactory",
      "outputs": [],
      "stateMutability": "nonpayable",
      "type": "function"
    },
    {
      "inputs": [
        {
          "internalType": "address",
          "name": "newAppDiamond",
          "type": "address"
        }
      ],
      "name": "setAppDiamond",
      "outputs": [],
      "stateMutability": "nonpayable",
      "type": "function"
    },
    {
      "inputs": [
        {
          "internalType": "address",
          "name": "operator",
          "type": "address"
        },
        {
          "internalType": "bool",
          "name": "approved",
          "type": "bool"
        }
      ],
      "name": "setApprovalForAll",
      "outputs": [],
      "stateMutability": "nonpayable",
      "type": "function"
    },
    {
      "inputs": [
        {
          "internalType": "string",
          "name": "_badgeId",
          "type": "string"
        },
        {
          "internalType": "uint256",
          "name": "newNumber",
          "type": "uint256"
        },
        {
          "internalType": "bytes32",
          "name": "r",
          "type": "bytes32"
        },
        {
          "internalType": "bytes32",
          "name": "s",
          "type": "bytes32"
        },
        {
          "internalType": "uint8",
          "name": "v",
          "type": "uint8"
        }
      ],
      "name": "setNumberOfUsersRewarded",
      "outputs": [],
      "stateMutability": "nonpayable",
      "type": "function"
    },
    {
      "inputs": [
        {
          "internalType": "string",
          "name": "",
          "type": "string"
        }
      ],
      "name": "status",
      "outputs": [
        {
          "internalType": "enum BadgeNFT.BadgeStatus",
          "name": "",
          "type": "uint8"
        }
      ],
      "stateMutability": "view",
      "type": "function"
    },
    {
      "inputs": [
        {
          "internalType": "uint256",
          "name": "",
          "type": "uint256"
        }
      ],
      "name": "statusStrings",
      "outputs": [
        {
          "internalType": "string",
          "name": "",
          "type": "string"
        }
      ],
      "stateMutability": "view",
      "type": "function"
    },
    {
      "inputs": [
        {
          "internalType": "bytes4",
          "name": "interfaceId",
          "type": "bytes4"
        }
      ],
      "name": "supportsInterface",
      "outputs": [
        {
          "internalType": "bool",
          "name": "",
          "type": "bool"
        }
      ],
      "stateMutability": "view",
      "type": "function"
    },
    {
      "inputs": [],
      "name": "symbol",
      "outputs": [
        {
          "internalType": "string",
          "name": "",
          "type": "string"
        }
      ],
      "stateMutability": "view",
      "type": "function"
    },
    {
      "inputs": [
        {
          "internalType": "uint256",
          "name": "index",
          "type": "uint256"
        }
      ],
      "name": "tokenByIndex",
      "outputs": [
        {
          "internalType": "uint256",
          "name": "",
          "type": "uint256"
        }
      ],
      "stateMutability": "view",
      "type": "function"
    },
    {
      "inputs": [
        {
          "internalType": "address",
          "name": "owner",
          "type": "address"
        },
        {
          "internalType": "uint256",
          "name": "index",
          "type": "uint256"
        }
      ],
      "name": "tokenOfOwnerByIndex",
      "outputs": [
        {
          "internalType": "uint256",
          "name": "",
          "type": "uint256"
        }
      ],
      "stateMutability": "view",
      "type": "function"
    },
    {
      "inputs": [
        {
          "internalType": "uint256",
          "name": "tokenId",
          "type": "uint256"
        }
      ],
      "name": "tokenURI",
      "outputs": [
        {
          "internalType": "string",
          "name": "",
          "type": "string"
        }
      ],
      "stateMutability": "view",
      "type": "function"
    },
    {
      "inputs": [],
      "name": "totalSupply",
      "outputs": [
        {
          "internalType": "uint256",
          "name": "",
          "type": "uint256"
        }
      ],
      "stateMutability": "view",
      "type": "function"
    },
    {
      "inputs": [
        {
          "internalType": "address",
          "name": "from",
          "type": "address"
        },
        {
          "internalType": "address",
          "name": "to",
          "type": "address"
        },
        {
          "internalType": "uint256",
          "name": "tokenId",
          "type": "uint256"
        }
      ],
      "name": "transferFrom",
      "outputs": [],
      "stateMutability": "nonpayable",
      "type": "function"
    },
    {
      "inputs": [
        {
          "internalType": "address",
          "name": "newOwner",
          "type": "address"
        }
      ],
      "name": "transferOwnership",
      "outputs": [],
      "stateMutability": "nonpayable",
      "type": "function"
    },
    {
      "inputs": [
        {
          "internalType": "string",
          "name": "",
          "type": "string"
        },
        {
          "internalType": "address",
          "name": "",
          "type": "address"
        }
      ],
      "name": "userRewardedForBadgeNative",
      "outputs": [
        {
          "internalType": "bool",
          "name": "",
          "type": "bool"
        }
      ],
      "stateMutability": "view",
      "type": "function"
    },
    {
      "inputs": [
        {
          "internalType": "address[]",
          "name": "_contributors",
          "type": "address[]"
        },
        {
          "internalType": "string",
          "name": "_badgeId",
          "type": "string"
        },
        {
          "internalType": "string",
          "name": "_pathwayId",
          "type": "string"
        },
        {
          "internalType": "bytes32[2]",
          "name": "r",
          "type": "bytes32[2]"
        },
        {
          "internalType": "bytes32[2]",
          "name": "s",
          "type": "bytes32[2]"
        },
        {
          "internalType": "uint8[2]",
          "name": "v",
          "type": "uint8[2]"
        },
        {
          "internalType": "uint256",
          "name": "votesNeeded",
          "type": "uint256"
        }
      ],
      "name": "voteForApproval",
      "outputs": [],
      "stateMutability": "nonpayable",
      "type": "function"
    },
    {
      "inputs": [
        {
          "internalType": "string",
          "name": "_badgeId",
          "type": "string"
        },
        {
          "internalType": "string",
          "name": "_pathwayId",
          "type": "string"
        },
        {
          "internalType": "bytes32[2]",
          "name": "r",
          "type": "bytes32[2]"
        },
        {
          "internalType": "bytes32[2]",
          "name": "s",
          "type": "bytes32[2]"
        },
        {
          "internalType": "uint8[2]",
          "name": "v",
          "type": "uint8[2]"
        },
        {
          "internalType": "uint256",
          "name": "votesNeeded",
          "type": "uint256"
        }
      ],
      "name": "voteForRejection",
      "outputs": [],
      "stateMutability": "nonpayable",
      "type": "function"
    },
    {
      "inputs": [
        {
          "internalType": "string",
          "name": "",
          "type": "string"
        }
      ],
      "name": "votes",
      "outputs": [
        {
          "internalType": "uint256",
          "name": "",
          "type": "uint256"
        }
      ],
      "stateMutability": "view",
      "type": "function"
    },
    {
      "inputs": [
        {
          "internalType": "string",
          "name": "",
          "type": "string"
        }
      ],
      "name": "votesReject",
      "outputs": [
        {
          "internalType": "uint256",
          "name": "",
          "type": "uint256"
        }
      ],
      "stateMutability": "view",
      "type": "function"
    },
    {
      "inputs": [
        {
          "internalType": "address",
          "name": "_owner",
          "type": "address"
        }
      ],
      "name": "walletOfOwner",
      "outputs": [
        {
          "internalType": "uint256[]",
          "name": "",
          "type": "uint256[]"
        }
      ],
      "stateMutability": "view",
      "type": "function"
    },
    {
      "stateMutability": "payable",
      "type": "receive"
    }
  ],
  "transactionHash": "0x104d8907aedf5a829780f5f2576bd63fc34c46d71d4e494f1baeafccea0d831d",
  "args": [
    "0x5CC387AeCba2Ac9c90fdBD8F51032D4e4DAf944c",
    "0xc6f5693C9741A4889870CbE361428Eb0Ba0c05e3",
    "0x1A0Dc4C2973B40B15e873a0EAf9eD5762C9e8Ca4",
    "0x001291926f58a4CaFDad77Ca3363AA210400EEfE"
  ],
  "numDeployments": 6,
  "solcInputHash": "18bf3ca238bfed8d5b87482a431cda3f",
  "bytecode": "0x60806040526105dc602a553480156200001757600080fd5b50604051620062b0380380620062b08339810160408190526200003a9162000398565b604080518082018252600d81526c64436f6d70617373426164676560981b6020808301918252835180850190945260068452652221a7a6a82160d11b9084015281519192916200008d91600091620002d5565b508051620000a3906001906020840190620002d5565b505050620000c0620000ba6200027f60201b60201c565b62000283565b600d80546001600160a01b038087166001600160a01b031992831617909255600e8054848416908316179055600f8054868416908316179055601080549285169290911691909117905560408051808201909152600b81526a1393d391561254d511539560aa1b60208083019182526000805260139052905162000166917f8fa6efc3be94b5b348b21fea823fe8d100408cee9b7f90524494500445d8ff6c91620002d5565b5060408051808201909152600781526650454e44494e4760c81b60208083019182526001600052601390529051620001c0917f4155c2f711f2cdd34f8262ab8fb9b7020a700fe7b6948222152f7670d1fdf34d91620002d5565b5060408051808201909152600681526511115392515160d21b6020808301918252600260005260139052905162000219917f0b9d2c0c271bb30544eb78c59bdaebdae2728e5f65814c07768a0abe90ed192391620002d5565b506040805180820190915260088152671054141493d5915160c21b6020808301918252600360005260139052905162000274917f0d2a6872ef858a7f8ead18dc4f3f2e8d35c853d47e2816cbb9cdd49202554e0c91620002d5565b505050505062000432565b3390565b600b80546001600160a01b038381166001600160a01b0319831681179093556040519116919082907f8be0079c531659141344cd1fd0a4f28419497f9722a3daafe3b4186f6b6457e090600090a35050565b828054620002e390620003f5565b90600052602060002090601f01602090048101928262000307576000855562000352565b82601f106200032257805160ff191683800117855562000352565b8280016001018555821562000352579182015b828111156200035257825182559160200191906001019062000335565b506200036092915062000364565b5090565b5b8082111562000360576000815560010162000365565b80516001600160a01b03811681146200039357600080fd5b919050565b60008060008060808587031215620003af57600080fd5b620003ba856200037b565b9350620003ca602086016200037b565b9250620003da604086016200037b565b9150620003ea606086016200037b565b905092959194509250565b600181811c908216806200040a57607f821691505b602082108114156200042c57634e487b7160e01b600052602260045260246000fd5b50919050565b615e6e80620004426000396000f3fe6080604052600436106102e85760003560e01c806370a0823111610190578063b2986b4c116100dc578063ddca3f4311610095578063ebcb309a1161006f578063ebcb309a14610ab2578063f2fde38b14610ad2578063f4f5d02914610af2578063f66af3ed14610b3d57600080fd5b8063ddca3f4314610a0b578063e8ca64f414610a21578063e985e9c514610a6957600080fd5b8063b2986b4c146108fd578063b88d4fde14610910578063b99ef1fa14610930578063c87b56dd14610968578063ce15ef8114610988578063cef9fab7146109c357600080fd5b8063956f49bf116101495780639e1a90d5116101235780639e1a90d5146108455780639e1b567c14610872578063a22cb465146108bd578063aaa545d0146108dd57600080fd5b8063956f49bf146107b857806395d89b41146107f95780639a1994011461080e57600080fd5b806370a08231146106c5578063715018a6146106e557806373a5d17c146106fa57806376032f0e146107425780638360bcb11461077a5780638da5cb5b1461079a57600080fd5b806323b872dd1161024f5780634f6ccce71161020857806362fe4f86116101e257806362fe4f861461063a5780636352211e1461064d5780636810b4cf1461066d57806368929b5c1461068d57600080fd5b80634f6ccce7146105c4578063500b5bd6146105e45780635743d4f31461060257600080fd5b806323b872dd146104e95780632f745c591461050957806341038d191461052957806342842e0e14610564578063438b63001461058457806347185957146105a457600080fd5b80630d0654d9116102a15780630d0654d91461041d5780630e3c22cb1461044a57806310f7a7461461046a57806318160ddd1461048a5780631f6f3b74146104a95780631fd8b97e146104c957600080fd5b806301ffc9a71461032c57806304dcd3001461036157806306462b6f1461038e57806306fdde03146103b0578063081812fc146103c5578063095ea7b3146103fd57600080fd5b3661032757604080513381523460208201527f64c983f10188c30a885d77970aa5aae9a86e80ef9b459ad33cc620eb5999e070910160405180910390a1005b600080fd5b34801561033857600080fd5b5061034c61034736600461512e565b610b6b565b60405190151581526020015b60405180910390f35b34801561036d57600080fd5b5061038161037c366004615684565b610b7c565b60405161035891906159e6565b34801561039a57600080fd5b506103ae6103a9366004614e43565b610c16565b005b3480156103bc57600080fd5b50610381610c6b565b3480156103d157600080fd5b506103e56103e0366004615684565b610cfd565b6040516001600160a01b039091168152602001610358565b34801561040957600080fd5b506103ae610418366004614fa4565b610d85565b34801561042957600080fd5b5061043d610438366004615492565b610e9b565b6040516103589190615986565b34801561045657600080fd5b506103ae610465366004614e43565b6115d5565b34801561047657600080fd5b506103ae610485366004615324565b611621565b34801561049657600080fd5b506009545b604051908152602001610358565b3480156104b557600080fd5b5061043d6104c43660046155d6565b611a6f565b3480156104d557600080fd5b506103ae6104e436600461561a565b611aeb565b3480156104f557600080fd5b506103ae610504366004614eb6565b611b9b565b34801561051557600080fd5b5061049b610524366004614fa4565b611bcc565b34801561053557600080fd5b5061034c610544366004615168565b8051602081830181018051601d8252928201919093012091525460ff1681565b34801561057057600080fd5b506103ae61057f366004614eb6565b611c62565b34801561059057600080fd5b5061043d61059f366004614e43565b611c7d565b3480156105b057600080fd5b506103ae6105bf3660046152c1565b611d1e565b3480156105d057600080fd5b5061049b6105df366004615684565b612263565b3480156105f057600080fd5b506011546001600160a01b03166103e5565b34801561060e57600080fd5b5061049b61061d366004615168565b8051602081830181018051601f8252928201919093012091525481565b6103ae610648366004615258565b6122f6565b34801561065957600080fd5b506103e5610668366004615684565b612a1e565b34801561067957600080fd5b506103ae6106883660046153f0565b612a95565b34801561069957600080fd5b5061049b6106a8366004615168565b805160208183018101805160198252928201919093012091525481565b3480156106d157600080fd5b5061049b6106e0366004614e43565b612eb3565b3480156106f157600080fd5b506103ae612f3a565b34801561070657600080fd5b5061049b610715366004615212565b81516020818401810180516021825292820194820194909420919093529091526000908152604090205481565b34801561074e57600080fd5b5061049b61075d366004615168565b8051602081830181018051601b8252928201919093012091525481565b34801561078657600080fd5b50610381610795366004615168565b612f70565b3480156107a657600080fd5b50600b546001600160a01b03166103e5565b3480156107c457600080fd5b506103e56107d3366004615168565b80516020818301810180516023825292820191909301209152546001600160a01b031681565b34801561080557600080fd5b50610381612f94565b34801561081a57600080fd5b5061049b610829366004615168565b8051602081830181018051828252928201919093012091525481565b34801561085157600080fd5b506108656108603660046155d6565b612fa3565b6040516103589190615939565b34801561087e57600080fd5b5061034c61088d366004615212565b8151602081840181018051601a825292820194820194909420919093529091526000908152604090205460ff1681565b3480156108c957600080fd5b506103ae6108d8366004614f76565b613028565b3480156108e957600080fd5b506108656108f8366004615168565b613037565b6103ae61090b366004615526565b6130b1565b34801561091c57600080fd5b506103ae61092b366004614ef7565b613197565b34801561093c57600080fd5b5061049b61094b366004615168565b805160208183018101805160188252928201919093012091525481565b34801561097457600080fd5b50610381610983366004615684565b6131cf565b34801561099457600080fd5b5061034c6109a3366004615168565b805160208183018101805160148252928201919093012091525460ff1681565b3480156109cf57600080fd5b5061049b6109de366004615212565b81516020818401810180516022825292820194820194909420919093529091526000908152604090205481565b348015610a1757600080fd5b5061049b602a5481565b348015610a2d57600080fd5b50610a5c610a3c366004615168565b805160208183018101805160178252928201919093012091525460ff1681565b60405161035891906159be565b348015610a7557600080fd5b5061034c610a84366004614e7d565b6001600160a01b03918216600090815260056020908152604080832093909416825291909152205460ff1690565b348015610abe57600080fd5b506103ae610acd366004614fd0565b6131da565b348015610ade57600080fd5b506103ae610aed366004614e43565b61376e565b348015610afe57600080fd5b5061034c610b0d366004615212565b81516020818401810180516029825292820194820194909420919093529091526000908152604090205460ff1681565b348015610b4957600080fd5b50610b5d610b58366004614e43565b613809565b604051610358929190615999565b6000610b7682613ad5565b92915050565b60136020526000908152604090208054610b9590615d11565b80601f0160208091040260200160405190810160405280929190818152602001828054610bc190615d11565b8015610c0e5780601f10610be357610100808354040283529160200191610c0e565b820191906000526020600020905b815481529060010190602001808311610bf157829003601f168201915b505050505081565b600b546001600160a01b03163314610c495760405162461bcd60e51b8152600401610c4090615b47565b60405180910390fd5b601280546001600160a01b0319166001600160a01b0392909216919091179055565b606060008054610c7a90615d11565b80601f0160208091040260200160405190810160405280929190818152602001828054610ca690615d11565b8015610cf35780601f10610cc857610100808354040283529160200191610cf3565b820191906000526020600020905b815481529060010190602001808311610cd657829003601f168201915b5050505050905090565b6000610d0882613afa565b610d695760405162461bcd60e51b815260206004820152602c60248201527f4552433732313a20617070726f76656420717565727920666f72206e6f6e657860448201526b34b9ba32b73a103a37b5b2b760a11b6064820152608401610c40565b506000908152600460205260409020546001600160a01b031690565b6000610d9082612a1e565b9050806001600160a01b0316836001600160a01b03161415610dfe5760405162461bcd60e51b815260206004820152602160248201527f4552433732313a20617070726f76616c20746f2063757272656e74206f776e656044820152603960f91b6064820152608401610c40565b336001600160a01b0382161480610e1a5750610e1a8133610a84565b610e8c5760405162461bcd60e51b815260206004820152603860248201527f4552433732313a20617070726f76652063616c6c6572206973206e6f74206f7760448201527f6e6572206e6f7220617070726f76656420666f7220616c6c00000000000000006064820152608401610c40565b610e968383613b17565b505050565b6060601487604051610ead919061575f565b9081526040519081900360200190205460ff1615610efe5760405162461bcd60e51b815260206004820152600e60248201526d185b1c9958591e481b5a5b9d195960921b6044820152606401610c40565b600e54855185518551604051630903288360e11b81526000946001600160a01b031693631206510693610f3d9333938f938f9390929091600401615895565b602060405180830381600087803b158015610f5757600080fd5b505af1158015610f6b573d6000803e3d6000fd5b505050506040513d601f19601f82011682018060405250810190610f8f9190615111565b905080610fec5760405162461bcd60e51b815260206004820152602560248201527f73656e646572206973206e6f7420617070726f7665642070617468776179206d60448201526434b73a32b960d91b6064820152608401610c40565b6001601789604051610ffe919061575f565b9081526040519081900360200190205460ff16600381111561102257611022615da7565b141561117f57601888604051611038919061575f565b9081526020016040518091039020548311156110895760405162461bcd60e51b815260206004820152601060248201526f6e6f7420656e6f75676820766f74657360801b6044820152606401610c40565b600e546020878101518782015191870151604051632336629f60e11b81526001600160a01b039094169363466cc53e936110cd9333938f938b9391906004016158ed565b602060405180830381600087803b1580156110e757600080fd5b505af11580156110fb573d6000803e3d6000fd5b505050506040513d601f19601f8201168201806040525081019061111f9190615111565b90508061113e5760405162461bcd60e51b8152600401610c4090615bcd565b6003601789604051611150919061575f565b908152604051908190036020019020805460ff1916600183600381111561117957611179615da7565b02179055505b6003601789604051611191919061575f565b9081526040519081900360200190205460ff1660038111156111b5576111b5615da7565b146112165760405162461bcd60e51b815260206004820152602b60248201527f63616e206f6e6c79206d696e7420666f722062616467657320696e206170707260448201526a6f7665642073746174757360a81b6064820152608401610c40565b6010546040516060916001600160a01b0316907f8b11cf8a4537c8abe6ddef215a5ad5cfd6c0d5f42e1e6c507a1e8f4d7e79ad5c90601690611259908d9061575f565b90815260405190819003602001812061127491602401615a2c565b60408051601f198184030181529181526020820180516001600160e01b03166001600160e01b03199094169390931790925290516112b2919061575f565b6000604051808303816000865af19150503d80600081146112ef576040519150601f19603f3d011682016040523d82523d6000602084013e6112f4565b606091505b5090925090508161130457600080fd5b60008180602001905181019061131a919061519c565b6011546040519192506001600160a01b0316907f65a35964691f73fd1604104300b719081f6abd939cb2fc62b713db949a3b24099061135d9084906024016159e6565b60408051601f198184030181529181526020820180516001600160e01b03166001600160e01b031990941693909317909252905161139b919061575f565b6000604051808303816000865af19150503d80600081146113d8576040519150601f19603f3d011682016040523d82523d6000602084013e6113dd565b606091505b509093509150826113ed57600080fd5b600060158b6040516113ff919061575f565b908152604051908190036020019020546001600160401b0381111561142657611426615de9565b60405190808252806020026020018201604052801561144f578160200160208202803683370190505b5090506000805b60158d604051611466919061575f565b908152604051908190036020019020548110156115915761148b600c80546001019055565b600c5491506114dd60158e6040516114a3919061575f565b908152602001604051809103902082815481106114c2576114c2615dd3565b6000918252602090912001546001600160a01b031683613b85565b6114e7828f613cc4565b8b6040516114f5919061575f565b60405180910390208e60405161150b919061575f565b604051809103902060158f604051611523919061575f565b9081526020016040518091039020838154811061154257611542615dd3565b60009182526020822001546040516001600160a01b03909116917fb1df09f7ba6c7da56f4dc0278f9fe78f4577bd6299ea8c339c7f5c3c02b6490791a48061158981615d4c565b915050611456565b50600160148d6040516115a4919061575f565b908152604051908190036020019020805491151560ff19909216919091179055509350505050979650505050505050565b600b546001600160a01b031633146115ff5760405162461bcd60e51b8152600401610c4090615b47565b601180546001600160a01b0319166001600160a01b0392909216919091179055565b600083156118385788156117215760298a60405161163f919061575f565b908152602001604051809103902060006116563390565b6001600160a01b0316815260208101919091526040016000205460ff161561167d57600080fd5b601f8a60405161168d919061575f565b90815260200160405180910390205460208b6040516116ac919061575f565b908152602001604051809103902054106116c557600080fd5b601f8a6040516116d5919061575f565b908152602001604051809103902054601b8b6040516116f4919061575f565b90815260200160405180910390205461170d9190615c9b565b90506000811161171c57600080fd5b611838565b60288a604051611731919061575f565b90815260408051602092819003830190206001600160a01b038b16600090815290835281812033825290925290205460ff161561176d57600080fd5b601f8a60405161177d919061575f565b90815260200160405180910390205460218b60405161179c919061575f565b90815260408051602092819003830190206001600160a01b038c1660009081529252902054106117cb57600080fd5b601f8a6040516117db919061575f565b908152602001604051809103902054601c8b6040516117fa919061575f565b90815260408051602092819003830190206001600160a01b038c16600090815292529020546118299190615c9b565b90506000811161183857600080fd5b611846338b848a8a8a613d4f565b508315611a5757881561193257604051600090339083908381818185875af1925050503d8060008114611895576040519150601f19603f3d011682016040523d82523d6000602084013e61189a565b606091505b50509050806118a857600080fd5b600160298c6040516118ba919061575f565b908152602001604051809103902060006118d13390565b6001600160a01b031681526020808201929092526040908101600020805460ff191693151593909317909255905161190a908d9061575f565b908152604051908190036020019020805490600061192783615d4c565b919050555050611a57565b6001600160a01b03881663a9059cbb336040516001600160e01b031960e084901b1681526001600160a01b03909116600482015260248101849052604401602060405180830381600087803b15801561198a57600080fd5b505af115801561199e573d6000803e3d6000fd5b505050506040513d601f19601f820116820180604052508101906119c29190615111565b50600160288b6040516119d5919061575f565b90815260408051602092819003830181206001600160a01b038d1660009081529084528281203382529093529120805460ff191692151592909217909155602190611a21908c9061575f565b90815260408051602092819003830190206001600160a01b038b16600090815292528120805491611a5183615d4c565b91905055505b611a63338b8585613faf565b50505050505050505050565b6060602683604051611a81919061575f565b90815260408051918290036020908101832060008681529082528290208054808302850183019093528284529190830182828015611ade57602002820191906000526020600020905b815481526020019060010190808311611aca575b5050505050905092915050565b6001601f86604051611afd919061575f565b908152602001604051809103902054611b169190615cce565b8411611b645760405162461bcd60e51b815260206004820152601960248201527f42616467654e4654203a20696e76616c6964206e756d626572000000000000006044820152606401610c40565b611b72338686868686613d4f565b5083601f86604051611b84919061575f565b908152604051908190036020019020555050505050565b611ba53382614150565b611bc15760405162461bcd60e51b8152600401610c4090615b7c565b610e9683838361423a565b6000611bd783612eb3565b8210611c395760405162461bcd60e51b815260206004820152602b60248201527f455243373231456e756d657261626c653a206f776e657220696e646578206f7560448201526a74206f6620626f756e647360a81b6064820152608401610c40565b506001600160a01b03919091166000908152600760209081526040808320938352929052205490565b610e9683838360405180602001604052806000815250613197565b60606000611c8a83612eb3565b90506000816001600160401b03811115611ca657611ca6615de9565b604051908082528060200260200182016040528015611ccf578160200160208202803683370190505b50905060005b82811015611d1657611ce78582611bcc565b828281518110611cf957611cf9615dd3565b602090810291909101015280611d0e81615d4c565b915050611cd5565b509392505050565b6002601784604051611d30919061575f565b9081526040519081900360200190205460ff166003811115611d5457611d54615da7565b14611d9a5760405162461bcd60e51b8152602060048201526016602482015275696e636f72726563742062616467652073746174757360501b6044820152606401610c40565b60105460405160009182916001600160a01b03909116907f8b11cf8a4537c8abe6ddef215a5ad5cfd6c0d5f42e1e6c507a1e8f4d7e79ad5c90601690611de190899061575f565b908152604051908190036020018120611dfc91602401615a2c565b60408051601f198184030181529181526020820180516001600160e01b03166001600160e01b0319909416939093179092529051611e3a919061575f565b6000604051808303816000865af19150503d8060008114611e77576040519150601f19603f3d011682016040523d82523d6000602084013e611e7c565b606091505b509150915081611e8b57600080fd5b600081806020019051810190611ea1919061519c565b600f546040519192506001600160a01b0316907f0d58dd088cbe688b8c61e8f36a658aa45125fbcff8c7e7af836d3925770f01bc90611ee49084906024016159e6565b60408051601f198184030181529181526020820180516001600160e01b03166001600160e01b0319909416939093179092529051611f22919061575f565b6000604051808303816000865af19150503d8060008114611f5f576040519150601f19603f3d011682016040523d82523d6000602084013e611f64565b606091505b50909350915082611f7457600080fd5b600082806020019051810190611f8a9190614e60565b90506001600160a01b038116611f9f57600080fd5b85156120c557601d87604051611fb5919061575f565b9081526040519081900360200190205460ff16156120155760405162461bcd60e51b815260206004820152601d60248201527f6e61746976652072657761726420616c726561647920636c61696d65640000006044820152606401610c40565b806001600160a01b0316601b8860405161202f919061575f565b9081526040519081900360200181205490600081818185875af1925050503d8060008114612079576040519150601f19603f3d011682016040523d82523d6000602084013e61207e565b606091505b5050809450508361208e57600080fd5b6001601d886040516120a0919061575f565b908152604051908190036020019020805491151560ff1990921691909117905561225a565b601e876040516120d5919061575f565b90815260408051602092819003830190206001600160a01b0388166000908152925290205460ff161561214a5760405162461bcd60e51b815260206004820152601c60248201527f65726332302072657761726420616c726561647920636c61696d6564000000006044820152606401610c40565b846001600160a01b031663a9059cbb82601c8a60405161216a919061575f565b9081526040805191829003602090810183206001600160a01b038c166000908152915220546001600160e01b031960e085901b1682526121c192916004016001600160a01b03929092168252602082015260400190565b602060405180830381600087803b1580156121db57600080fd5b505af11580156121ef573d6000803e3d6000fd5b505050506040513d601f19601f820116820180604052508101906122139190615111565b506001601e88604051612226919061575f565b90815260408051602092819003830190206001600160a01b038916600090815292529020805460ff19169115159190911790555b50505050505050565b600061226e60095490565b82106122d15760405162461bcd60e51b815260206004820152602c60248201527f455243373231456e756d657261626c653a20676c6f62616c20696e646578206f60448201526b7574206f6620626f756e647360a01b6064820152608401610c40565b600982815481106122e4576122e4615dd3565b90600052602060002001549050919050565b6001601785604051612308919061575f565b9081526040519081900360200190205460ff16600381111561232c5761232c615da7565b148061236b57506003601785604051612345919061575f565b9081526040519081900360200190205460ff16600381111561236957612369615da7565b145b6123b75760405162461bcd60e51b815260206004820152601a60248201527f6261646765206e6f742070656e64696e672f617070726f7665640000000000006044820152606401610c40565b6000601f856040516123c9919061575f565b908152602001604051809103902054116124175760405162461bcd60e51b815260206004820152600f60248201526e6e6f2075736572207265776172647360881b6044820152606401610c40565b600f5460408051600481526024810182526020810180516001600160e01b0316631c3b702f60e11b179052905160009283926001600160a01b039091169161245f919061575f565b6000604051808303816000865af19150503d806000811461249c576040519150601f19603f3d011682016040523d82523d6000602084013e6124a1565b606091505b5091509150816124b057600080fd5b6000818060200190518101906124c69190614e60565b90506000612710602a54866124db9190615caf565b6124e59190615c9b565b90508515612647576124f78186615c83565b3410156125385760405162461bcd60e51b815260206004820152600f60248201526e1b9bdd08195b9bdd59da081cd95b9d608a1b6044820152606401610c40565b6040516001600160a01b038316908290600081818185875af1925050503d8060008114612581576040519150601f19603f3d011682016040523d82523d6000602084013e612586565b606091505b5050809450508361259657600080fd5b84601b896040516125a7919061575f565b908152602001604051809103902060008282546125c49190615c83565b909155506125d490508186615c83565b3411156126425733816125e78734615cce565b6125f19190615cce565b604051600081818185875af1925050503d806000811461262d576040519150601f19603f3d011682016040523d82523d6000602084013e612632565b606091505b5050809450508361264257600080fd5b612a14565b6001600160a01b03871661265a57600080fd5b6010546040516001600160a01b03909116907f8b11cf8a4537c8abe6ddef215a5ad5cfd6c0d5f42e1e6c507a1e8f4d7e79ad5c9060169061269c908c9061575f565b9081526040519081900360200181206126b791602401615a2c565b60408051601f198184030181529181526020820180516001600160e01b03166001600160e01b03199094169390931790925290516126f5919061575f565b6000604051808303816000865af19150503d8060008114612732576040519150601f19603f3d011682016040523d82523d6000602084013e612737565b606091505b5090945092508361274757600080fd5b60008380602001905181019061275d919061519c565b6011546040519192506001600160a01b0316907f11f69039648f0dd87bd7c96fa7501d8c9b90ae27f5d68bb2f9adfc6ae113637a906127a490849046908d906024016159f9565b60408051601f198184030181529181526020820180516001600160e01b03166001600160e01b03199094169390931790925290516127e2919061575f565b6000604051808303816000865af19150503d806000811461281f576040519150601f19603f3d011682016040523d82523d6000602084013e612824565b606091505b5090955093508461283457600080fd5b838060200190518101906128489190615111565b94508461288c5760405162461bcd60e51b8152602060048201526012602482015271115490cc8c081b9bdd08185c1c1c9bdd995960721b6044820152606401610c40565b6001600160a01b0388166323b872dd336040516001600160e01b031960e084901b1681526001600160a01b039182166004820152908616602482015260448101859052606401602060405180830381600087803b1580156128ec57600080fd5b505af1158015612900573d6000803e3d6000fd5b505050506040513d601f19601f820116820180604052508101906129249190615111565b506001600160a01b0388166323b872dd336040516001600160e01b031960e084901b1681526001600160a01b03909116600482015230602482015260448101899052606401602060405180830381600087803b15801561298357600080fd5b505af1158015612997573d6000803e3d6000fd5b505050506040513d601f19601f820116820180604052508101906129bb9190615111565b5085601c8a6040516129cd919061575f565b908152602001604051809103902060008a6001600160a01b03166001600160a01b031681526020019081526020016000206000828254612a0d9190615c83565b9091555050505b5050505050505050565b6000818152600260205260408120546001600160a01b031680610b765760405162461bcd60e51b815260206004820152602960248201527f4552433732313a206f776e657220717565727920666f72206e6f6e657869737460448201526832b73a103a37b5b2b760b91b6064820152608401610c40565b6001601787604051612aa7919061575f565b9081526040519081900360200190205460ff166003811115612acb57612acb615da7565b14612b0c5760405162461bcd60e51b81526020600482015260116024820152706261646765206e6f742070656e64696e6760781b6044820152606401610c40565b601a86604051612b1c919061575f565b90815260200160405180910390206000612b333390565b6001600160a01b0316815260208101919091526040016000205460ff1615612b9d5760405162461bcd60e51b815260206004820152601c60248201527f616c726561647920766f74656420666f722074686973206261646765000000006044820152606401610c40565b84604051602001612bae919061575f565b60405160208183030381529060405280519060200120601687604051612bd4919061575f565b9081526020016040518091039020604051602001612bf291906157e6565b6040516020818303038152906040528051906020012014612c4b5760405162461bcd60e51b81526020600482015260136024820152721a5b98dbdc9c9958dd081c185d1a1dd85e5259606a1b6044820152606401610c40565b600e54845184518451604051630903288360e11b81526000946001600160a01b031693631206510693612c8a9333938e938e9390929091600401615895565b602060405180830381600087803b158015612ca457600080fd5b505af1158015612cb8573d6000803e3d6000fd5b505050506040513d601f19601f82011682018060405250810190612cdc9190615111565b905080612cfb5760405162461bcd60e51b8152600401610c4090615b03565b600e546020868101518682015191860151604051632336629f60e11b81526000946001600160a01b03169363466cc53e93612d419333938f938b939290916004016158ed565b602060405180830381600087803b158015612d5b57600080fd5b505af1158015612d6f573d6000803e3d6000fd5b505050506040513d601f19601f82011682018060405250810190612d939190615111565b905080612db25760405162461bcd60e51b8152600401610c4090615bcd565b601988604051612dc2919061575f565b9081526040519081900360200190208054906000612ddf83615d4c565b91905055506001601a89604051612df6919061575f565b90815260200160405180910390206000612e0d3390565b6001600160a01b03166001600160a01b0316815260200190815260200160002060006101000a81548160ff02191690831515021790555082601989604051612e55919061575f565b90815260200160405180910390205410612a14576002601789604051612e7b919061575f565b908152604051908190036020019020805460ff19166001836003811115612ea457612ea4615da7565b02179055505050505050505050565b60006001600160a01b038216612f1e5760405162461bcd60e51b815260206004820152602a60248201527f4552433732313a2062616c616e636520717565727920666f7220746865207a65604482015269726f206164647265737360b01b6064820152608401610c40565b506001600160a01b031660009081526003602052604090205490565b600b546001600160a01b03163314612f645760405162461bcd60e51b8152600401610c4090615b47565b612f6e60006143e1565b565b805160208183018101805160168252928201919093012091528054610b9590615d11565b606060018054610c7a90615d11565b6060602583604051612fb5919061575f565b90815260408051918290036020908101832060008681529082528290208054808302850183019093528284529190830182828015611ade57602002820191906000526020600020905b81546001600160a01b03168152600190910190602001808311612ffe575050505050905092915050565b613033338383614433565b5050565b6060601582604051613049919061575f565b90815260408051918290036020908101832080548083028501830190935282845291908301828280156130a557602002820191906000526020600020905b81546001600160a01b03168152600190910190602001808311613087575b50505050509050919050565b60006017886040516130c3919061575f565b9081526040519081900360200190205460ff1660038111156130e7576130e7615da7565b146130f157600080fd5b6001601788604051613103919061575f565b908152604051908190036020019020805460ff1916600183600381111561312c5761312c615da7565b021790555085601688604051613142919061575f565b90815260200160405180910390209080519060200190613163929190614c29565b5084601f88604051613175919061575f565b90815260405190819003602001902055831561225a5761225a878484846122f6565b6131a13383614150565b6131bd5760405162461bcd60e51b8152600401610c4090615b7c565b6131c984848484614502565b50505050565b6060610b7682614535565b60016017876040516131ec919061575f565b9081526040519081900360200190205460ff16600381111561321057613210615da7565b146132525760405162461bcd60e51b8152602060048201526012602482015271737461747573206e6f742070656e64696e6760701b6044820152606401610c40565b601a86604051613262919061575f565b908152602001604051809103902060006132793390565b6001600160a01b0316815260208101919091526040016000205460ff16156132e35760405162461bcd60e51b815260206004820152601c60248201527f616c726561647920766f74656420666f722074686973206261646765000000006044820152606401610c40565b846040516020016132f4919061575f565b6040516020818303038152906040528051906020012060168760405161331a919061575f565b908152602001604051809103902060405160200161333891906157e6565b60405160208183030381529060405280519060200120146133915760405162461bcd60e51b81526020600482015260136024820152721a5b98dbdc9c9958dd081c185d1a1dd85e5259606a1b6044820152606401610c40565b600e54845184518451604051630903288360e11b81526000946001600160a01b0316936312065106936133d09333938e938e9390929091600401615895565b602060405180830381600087803b1580156133ea57600080fd5b505af11580156133fe573d6000803e3d6000fd5b505050506040513d601f19601f820116820180604052508101906134229190615111565b9050806134415760405162461bcd60e51b8152600401610c4090615b03565b600e546020868101518682015191860151604051632336629f60e11b81526000946001600160a01b03169363466cc53e936134879333938f938b939290916004016158ed565b602060405180830381600087803b1580156134a157600080fd5b505af11580156134b5573d6000803e3d6000fd5b505050506040513d601f19601f820116820180604052508101906134d99190615111565b9050806134f85760405162461bcd60e51b8152600401610c4090615bcd565b601888604051613508919061575f565b908152604051908190036020019020805490600061352583615d4c565b91905055506001601a8960405161353c919061575f565b908152602001604051809103902060006135533390565b6001600160a01b0316815260208101919091526040908101600020805460ff1916921515929092179091555160189061358d908a9061575f565b908152602001604051809103902054600114156136bf5760008951116135e35760405162461bcd60e51b815260206004820152600b60248201526a656d70747920617272617960a81b6044820152606401610c40565b886015896040516135f4919061575f565b90815260200160405180910390209080519060200190613615929190614cad565b50601888604051613626919061575f565b90815260200160405180910390205483116136ba57600360178960405161364d919061575f565b908152604051908190036020019020805460ff1916600183600381111561367657613676615da7565b021790555087604051613689919061575f565b604051908190038120907fcb7144701e8d0b3465bbe141996dd943a0458bba214e98eac12ba128ffe44c0890600090a25b613763565b826018896040516136d0919061575f565b908152602001604051809103902054106137635760036017896040516136f6919061575f565b908152604051908190036020019020805460ff1916600183600381111561371f5761371f615da7565b021790555087604051613732919061575f565b604051908190038120907fcb7144701e8d0b3465bbe141996dd943a0458bba214e98eac12ba128ffe44c0890600090a25b505050505050505050565b600b546001600160a01b031633146137985760405162461bcd60e51b8152600401610c4090615b47565b6001600160a01b0381166137fd5760405162461bcd60e51b815260206004820152602660248201527f4f776e61626c653a206e6577206f776e657220697320746865207a65726f206160448201526564647265737360d01b6064820152608401610c40565b613806816143e1565b50565b606080600061381784612eb3565b6040805160208101909152600080825291925090826001600160401b0381111561384357613843615de9565b60405190808252806020026020018201604052801561386c578160200160208202803683370190505b5090508261387b578094508193505b60005b613889600185615cce565b8110156139b6576000602760006138a08a85611bcc565b81526020019081526020016000206040518060400160405290816000820180546138c990615d11565b80601f01602080910402602001604051908101604052809291908181526020018280546138f590615d11565b80156139425780601f1061391757610100808354040283529160200191613942565b820191906000526020600020905b81548152906001019060200180831161392557829003601f168201915b505050505081526020016001820154815250509050806020015183838151811061396e5761396e615dd3565b6020026020010181815250508381600001516040516020016139919291906157aa565b604051602081830303815290604052935081806139ad90615d4c565b9250505061387e565b6000602760006139c68a85611bcc565b81526020019081526020016000206040518060400160405290816000820180546139ef90615d11565b80601f0160208091040260200160405190810160405280929190818152602001828054613a1b90615d11565b8015613a685780601f10613a3d57610100808354040283529160200191613a68565b820191906000526020600020905b815481529060010190602001808311613a4b57829003601f168201915b5050505050815260200160018201548152505090508060200151838381518110613a9457613a94615dd3565b602002602001018181525050838160000151604051602001613ab792919061577b565b60405160208183030381529060405295508296505050505050915091565b60006001600160e01b0319821663780e9d6360e01b1480610b765750610b76826146a4565b6000908152600260205260409020546001600160a01b0316151590565b600081815260046020526040902080546001600160a01b0319166001600160a01b0384169081179091558190613b4c82612a1e565b6001600160a01b03167f8c5be1e5ebec7d5bd14f71427d1e84f3dd0314c0f7b2291e5b200ac8c7c3b92560405160405180910390a45050565b6001600160a01b038216613bdb5760405162461bcd60e51b815260206004820181905260248201527f4552433732313a206d696e7420746f20746865207a65726f20616464726573736044820152606401610c40565b613be481613afa565b15613c315760405162461bcd60e51b815260206004820152601c60248201527f4552433732313a20746f6b656e20616c7265616479206d696e746564000000006044820152606401610c40565b613c3d600083836146f4565b6001600160a01b0382166000908152600360205260408120805460019290613c66908490615c83565b909155505060008181526002602052604080822080546001600160a01b0319166001600160a01b03861690811790915590518392907fddf252ad1be2c89b69c2b068fc378daa952ba7f163c4a11628f55a4df523b3ef908290a45050565b613ccd82613afa565b613d305760405162461bcd60e51b815260206004820152602e60248201527f45524337323155524953746f726167653a2055524920736574206f66206e6f6e60448201526d32bc34b9ba32b73a103a37b5b2b760911b6064820152608401610c40565b60008281526006602090815260409091208251610e9692840190614c29565b60008087304660228a604051613d65919061575f565b90815260408051602092819003830181206001600160a01b038f1660009081529084529190912054613da09594939290918c918e9101615704565b60408051601f1981840301815282825280516020918201206011546004855260248501845291840180516001600160e01b031663a5207df560e01b179052915191935060009283926001600160a01b0390921691613dfe919061575f565b6000604051808303816000865af19150503d8060008114613e3b576040519150601f19603f3d011682016040523d82523d6000602084013e613e40565b606091505b509150915081613e4f57600080fd5b600081806020019051810190613e659190614e60565b6040517f19457468657265756d205369676e6564204d6573736167653a0a3332000000006020820152603c8101869052909150600190605c0160408051601f198184030181528282528051602091820120600084529083018083525260ff891690820152606081018a90526080810189905260a0016020604051602081039080840390855afa158015613efc573d6000803e3d6000fd5b505050602060405103516001600160a01b0316816001600160a01b031614613f595760405162461bcd60e51b815260206004820152601060248201526f24b731b7b93932b1ba1039b4b3b732b960811b6044820152606401610c40565b60228a604051613f69919061575f565b90815260408051602092819003830190206001600160a01b038e16600090815292528120805491613f9983615d4c565b9091555060019c9b505050505050505050505050565b602483604051613fbf919061575f565b908152604080516020928190038301902060008481529083528181206001600160a01b038816825290925290205460ff1615613ffa576131c9565b600061400a600c80546001019055565b50600c546140183382613b85565b6140228184613cc4565b60408051808201825285815260208082018590526000848152602782529290922081518051929384936140589284920190614c29565b5060208201518160010155905050602585604051614076919061575f565b9081526040805191829003602090810183206000878152908252918220805460018101825590835291200180546001600160a01b0389166001600160a01b03199091161790556026906140ca90879061575f565b908152604080519182900360209081018320600087815290825291822080546001818101835591845291909220018490559060249061410a90889061575f565b9081526040805160209281900383019020600096875282528086206001600160a01b0399909916865297905295909220805460ff19169515159590951790945550505050565b600061415b82613afa565b6141bc5760405162461bcd60e51b815260206004820152602c60248201527f4552433732313a206f70657261746f7220717565727920666f72206e6f6e657860448201526b34b9ba32b73a103a37b5b2b760a11b6064820152608401610c40565b60006141c783612a1e565b9050806001600160a01b0316846001600160a01b031614806142025750836001600160a01b03166141f784610cfd565b6001600160a01b0316145b8061423257506001600160a01b0380821660009081526005602090815260408083209388168352929052205460ff165b949350505050565b826001600160a01b031661424d82612a1e565b6001600160a01b0316146142b15760405162461bcd60e51b815260206004820152602560248201527f4552433732313a207472616e736665722066726f6d20696e636f72726563742060448201526437bbb732b960d91b6064820152608401610c40565b6001600160a01b0382166143135760405162461bcd60e51b8152602060048201526024808201527f4552433732313a207472616e7366657220746f20746865207a65726f206164646044820152637265737360e01b6064820152608401610c40565b61431e8383836146f4565b614329600082613b17565b6001600160a01b0383166000908152600360205260408120805460019290614352908490615cce565b90915550506001600160a01b0382166000908152600360205260408120805460019290614380908490615c83565b909155505060008181526002602052604080822080546001600160a01b0319166001600160a01b0386811691821790925591518493918716917fddf252ad1be2c89b69c2b068fc378daa952ba7f163c4a11628f55a4df523b3ef91a4505050565b600b80546001600160a01b038381166001600160a01b0319831681179093556040519116919082907f8be0079c531659141344cd1fd0a4f28419497f9722a3daafe3b4186f6b6457e090600090a35050565b816001600160a01b0316836001600160a01b031614156144955760405162461bcd60e51b815260206004820152601960248201527f4552433732313a20617070726f766520746f2063616c6c6572000000000000006044820152606401610c40565b6001600160a01b03838116600081815260056020908152604080832094871680845294825291829020805460ff191686151590811790915591519182527f17307eab39ab6107e8899845ad3d59bd9653f200f220920489ca2b5937696c31910160405180910390a3505050565b61450d84848461423a565b614519848484846146ff565b6131c95760405162461bcd60e51b8152600401610c4090615ab1565b606061454082613afa565b6145a65760405162461bcd60e51b815260206004820152603160248201527f45524337323155524953746f726167653a2055524920717565727920666f72206044820152703737b732bc34b9ba32b73a103a37b5b2b760791b6064820152608401610c40565b600082815260066020526040812080546145bf90615d11565b80601f01602080910402602001604051908101604052809291908181526020018280546145eb90615d11565b80156146385780601f1061460d57610100808354040283529160200191614638565b820191906000526020600020905b81548152906001019060200180831161461b57829003601f168201915b50505050509050600061465660408051602081019091526000815290565b9050805160001415614669575092915050565b81511561469b57808260405160200161468392919061577b565b60405160208183030381529060405292505050919050565b6142328461480c565b60006001600160e01b031982166380ac58cd60e01b14806146d557506001600160e01b03198216635b5e139f60e01b145b80610b7657506301ffc9a760e01b6001600160e01b0319831614610b76565b610e968383836148e4565b60006001600160a01b0384163b1561480157604051630a85bd0160e11b81526001600160a01b0385169063150b7a0290614743903390899088908890600401615858565b602060405180830381600087803b15801561475d57600080fd5b505af192505050801561478d575060408051601f3d908101601f1916820190925261478a9181019061514b565b60015b6147e7573d8080156147bb576040519150601f19603f3d011682016040523d82523d6000602084013e6147c0565b606091505b5080516147df5760405162461bcd60e51b8152600401610c4090615ab1565b805181602001fd5b6001600160e01b031916630a85bd0160e11b149050614232565b506001949350505050565b606061481782613afa565b61487b5760405162461bcd60e51b815260206004820152602f60248201527f4552433732314d657461646174613a2055524920717565727920666f72206e6f60448201526e3732bc34b9ba32b73a103a37b5b2b760891b6064820152608401610c40565b600061489260408051602081019091526000815290565b905060008151116148b257604051806020016040528060008152506148dd565b806148bc8461499c565b6040516020016148cd92919061577b565b6040516020818303038152906040525b9392505050565b6001600160a01b03831661493f5761493a81600980546000838152600a60205260408120829055600182018355919091527f6e1540171b6c0c960b71a7020d9f60077f6af931a8bbf590da0223dacf75c7af0155565b614962565b816001600160a01b0316836001600160a01b031614614962576149628382614a99565b6001600160a01b03821661497957610e9681614b36565b826001600160a01b0316826001600160a01b031614610e9657610e968282614be5565b6060816149c05750506040805180820190915260018152600360fc1b602082015290565b8160005b81156149ea57806149d481615d4c565b91506149e39050600a83615c9b565b91506149c4565b6000816001600160401b03811115614a0457614a04615de9565b6040519080825280601f01601f191660200182016040528015614a2e576020820181803683370190505b5090505b841561423257614a43600183615cce565b9150614a50600a86615d67565b614a5b906030615c83565b60f81b818381518110614a7057614a70615dd3565b60200101906001600160f81b031916908160001a905350614a92600a86615c9b565b9450614a32565b60006001614aa684612eb3565b614ab09190615cce565b600083815260086020526040902054909150808214614b03576001600160a01b03841660009081526007602090815260408083208584528252808320548484528184208190558352600890915290208190555b5060009182526008602090815260408084208490556001600160a01b039094168352600781528383209183525290812055565b600954600090614b4890600190615cce565b6000838152600a602052604081205460098054939450909284908110614b7057614b70615dd3565b906000526020600020015490508060098381548110614b9157614b91615dd3565b6000918252602080832090910192909255828152600a90915260408082208490558582528120556009805480614bc957614bc9615dbd565b6001900381819060005260206000200160009055905550505050565b6000614bf083612eb3565b6001600160a01b039093166000908152600760209081526040808320868452825280832085905593825260089052919091209190915550565b828054614c3590615d11565b90600052602060002090601f016020900481019282614c575760008555614c9d565b82601f10614c7057805160ff1916838001178555614c9d565b82800160010185558215614c9d579182015b82811115614c9d578251825591602001919060010190614c82565b50614ca9929150614d02565b5090565b828054828255906000526020600020908101928215614c9d579160200282015b82811115614c9d57825182546001600160a01b0319166001600160a01b03909116178255602090920191600190910190614ccd565b5b80821115614ca95760008155600101614d03565b6000614d2a614d2584615c5c565b615c2c565b9050828152838383011115614d3e57600080fd5b828260208301376000602084830101529392505050565b600082601f830112614d6657600080fd5b614d6e615c04565b808385604086011115614d8057600080fd5b60005b6002811015614da2578135845260209384019390910190600101614d83565b509095945050505050565b600082601f830112614dbe57600080fd5b614dc6615c04565b808385604086011115614dd857600080fd5b60005b6002811015614da257614ded82614e32565b84526020938401939190910190600101614ddb565b8035614e0d81615e14565b919050565b600082601f830112614e2357600080fd5b6148dd83833560208501614d17565b803560ff81168114614e0d57600080fd5b600060208284031215614e5557600080fd5b81356148dd81615dff565b600060208284031215614e7257600080fd5b81516148dd81615dff565b60008060408385031215614e9057600080fd5b8235614e9b81615dff565b91506020830135614eab81615dff565b809150509250929050565b600080600060608486031215614ecb57600080fd5b8335614ed681615dff565b92506020840135614ee681615dff565b929592945050506040919091013590565b60008060008060808587031215614f0d57600080fd5b8435614f1881615dff565b93506020850135614f2881615dff565b92506040850135915060608501356001600160401b03811115614f4a57600080fd5b8501601f81018713614f5b57600080fd5b614f6a87823560208401614d17565b91505092959194509250565b60008060408385031215614f8957600080fd5b8235614f9481615dff565b91506020830135614eab81615e14565b60008060408385031215614fb757600080fd5b8235614fc281615dff565b946020939093013593505050565b6000806000806000806000610140888a031215614fec57600080fd5b6001600160401b03808935111561500257600080fd5b883589018a601f82011261501557600080fd5b80358281111561502757615027615de9565b8060051b61503760208201615c2c565b80838252602082019150602085018f602085880101111561505757600080fd5b600095505b848610156150855761506e8135615dff565b80358352600195909501946020928301920161505c565b509b5050505060208a013590508181111561509f57600080fd5b6150ab8b828c01614e12565b9750506040890135818111156150c057600080fd5b6150cc8b828c01614e12565b965050506150dd8960608a01614d55565b93506150ec8960a08a01614d55565b92506150fb8960e08a01614dad565b9150610120880135905092959891949750929550565b60006020828403121561512357600080fd5b81516148dd81615e14565b60006020828403121561514057600080fd5b81356148dd81615e22565b60006020828403121561515d57600080fd5b81516148dd81615e22565b60006020828403121561517a57600080fd5b81356001600160401b0381111561519057600080fd5b61423284828501614e12565b6000602082840312156151ae57600080fd5b81516001600160401b038111156151c457600080fd5b8201601f810184136151d557600080fd5b80516151e3614d2582615c5c565b8181528560208385010111156151f857600080fd5b615209826020830160208601615ce5565b95945050505050565b6000806040838503121561522557600080fd5b82356001600160401b0381111561523b57600080fd5b61524785828601614e12565b9250506020830135614eab81615dff565b6000806000806080858703121561526e57600080fd5b84356001600160401b0381111561528457600080fd5b61529087828801614e12565b94505060208501356152a181615dff565b925060408501356152b181615e14565b9396929550929360600135925050565b6000806000606084860312156152d657600080fd5b83356001600160401b038111156152ec57600080fd5b6152f886828701614e12565b935050602084013561530981615e14565b9150604084013561531981615dff565b809150509250925092565b60008060008060008060008060006101208a8c03121561534357600080fd5b89356001600160401b038082111561535a57600080fd5b6153668d838e01614e12565b9a5060208c0135915061537882615e14565b90985060408b01359061538a82615dff565b81985060608c0135975060808c013596506153a760a08d01614e32565b95506153b560c08d01614e02565b945060e08c01359150808211156153cb57600080fd5b506153d88c828d01614e12565b9250506101008a013590509295985092959850929598565b600080600080600080610120878903121561540a57600080fd5b86356001600160401b038082111561542157600080fd5b61542d8a838b01614e12565b9750602089013591508082111561544357600080fd5b5061545089828a01614e12565b9550506154608860408901614d55565b935061546f8860808901614d55565b925061547e8860c08901614dad565b915061010087013590509295509295509295565b6000806000806000806000610140888a0312156154ae57600080fd5b87356001600160401b03808211156154c557600080fd5b6154d18b838c01614e12565b985060208a01359150808211156154e757600080fd5b6154f38b838c01614e12565b975060408a013591508082111561550957600080fd5b506155168a828b01614e12565b9550506150dd8960608a01614d55565b600080600080600080600060e0888a03121561554157600080fd5b87356001600160401b038082111561555857600080fd5b6155648b838c01614e12565b985060208a013591508082111561557a57600080fd5b506155878a828b01614e12565b96505060408801359450606088013561559f81615e14565b935060808801356155af81615dff565b925060a08801356155bf81615e14565b8092505060c0880135905092959891949750929550565b600080604083850312156155e957600080fd5b82356001600160401b038111156155ff57600080fd5b61560b85828601614e12565b95602094909401359450505050565b600080600080600060a0868803121561563257600080fd5b85356001600160401b0381111561564857600080fd5b61565488828901614e12565b95505060208601359350604086013592506060860135915061567860808701614e32565b90509295509295909350565b60006020828403121561569657600080fd5b5035919050565b600081518084526020808501945080840160005b838110156156cd578151875295820195908201906001016156b1565b509495945050505050565b600081518084526156f0816020860160208601615ce5565b601f01601f19169290920160200192915050565b60006bffffffffffffffffffffffff19808960601b168352808860601b16601484015250856028830152846048830152836068830152825161574d816088850160208701615ce5565b91909101608801979650505050505050565b60008251615771818460208701615ce5565b9190910192915050565b6000835161578d818460208801615ce5565b8351908301906157a1818360208801615ce5565b01949350505050565b600083516157bc818460208801615ce5565b8351908301906157d0818360208801615ce5565b615f5f60f01b9101908152600201949350505050565b60008083546157f481615d11565b6001828116801561580c576001811461581d5761584c565b60ff1984168752828701945061584c565b8760005260208060002060005b858110156158435781548a82015290840190820161582a565b50505082870194505b50929695505050505050565b6001600160a01b038581168252841660208201526040810183905260806060820181905260009061588b908301846156d8565b9695505050505050565b6001600160a01b038716815260c0602082018190526000906158b9908301886156d8565b82810360408401526158cb81886156d8565b60608401969096525050608081019290925260ff1660a0909101529392505050565b6001600160a01b038716815260c060208201819052600090615911908301886156d8565b905085604083015284606083015283608083015260ff831660a0830152979650505050505050565b6020808252825182820181905260009190848201906040850190845b8181101561597a5783516001600160a01b031683529284019291840191600101615955565b50909695505050505050565b6020815260006148dd602083018461569d565b6040815260006159ac604083018561569d565b828103602084015261520981856156d8565b60208101600483106159e057634e487b7160e01b600052602160045260246000fd5b91905290565b6020815260006148dd60208301846156d8565b606081526000615a0c60608301866156d8565b6020830194909452506001600160a01b0391909116604090910152919050565b6000602080835260008454615a4081615d11565b80848701526040600180841660008114615a615760018114615a7557615aa3565b60ff19851689840152606089019550615aa3565b896000528660002060005b85811015615a9b5781548b8201860152908301908801615a80565b8a0184019650505b509398975050505050505050565b60208082526032908201527f4552433732313a207472616e7366657220746f206e6f6e20455243373231526560408201527131b2b4bb32b91034b6b83632b6b2b73a32b960711b606082015260800190565b60208082526024908201527f73656e646572206973206e6f7420617070726f7665642070617468776179207660408201526337ba32b960e11b606082015260800190565b6020808252818101527f4f776e61626c653a2063616c6c6572206973206e6f7420746865206f776e6572604082015260600190565b60208082526031908201527f4552433732313a207472616e736665722063616c6c6572206973206e6f74206f6040820152701ddb995c881b9bdc88185c1c1c9bdd9959607a1b606082015260800190565b6020808252601b908201527f696e636f727265637420766f746573206e65656465642073656e740000000000604082015260600190565b604080519081016001600160401b0381118282101715615c2657615c26615de9565b60405290565b604051601f8201601f191681016001600160401b0381118282101715615c5457615c54615de9565b604052919050565b60006001600160401b03821115615c7557615c75615de9565b50601f01601f191660200190565b60008219821115615c9657615c96615d7b565b500190565b600082615caa57615caa615d91565b500490565b6000816000190483118215151615615cc957615cc9615d7b565b500290565b600082821015615ce057615ce0615d7b565b500390565b60005b83811015615d00578181015183820152602001615ce8565b838111156131c95750506000910152565b600181811c90821680615d2557607f821691505b60208210811415615d4657634e487b7160e01b600052602260045260246000fd5b50919050565b6000600019821415615d6057615d60615d7b565b5060010190565b600082615d7657615d76615d91565b500690565b634e487b7160e01b600052601160045260246000fd5b634e487b7160e01b600052601260045260246000fd5b634e487b7160e01b600052602160045260246000fd5b634e487b7160e01b600052603160045260246000fd5b634e487b7160e01b600052603260045260246000fd5b634e487b7160e01b600052604160045260246000fd5b6001600160a01b038116811461380657600080fd5b801515811461380657600080fd5b6001600160e01b03198116811461380657600080fdfea2646970667358221220160d794dae765565885defc31b68fb853fec0b444f19e89b195f505dca52f87164736f6c63430008070033",
  "devdoc": {
    "kind": "dev",
    "methods": {
      "approve(address,uint256)": {
        "details": "See {IERC721-approve}."
      },
      "balanceOf(address)": {
        "details": "See {IERC721-balanceOf}."
      },
      "getApproved(uint256)": {
        "details": "See {IERC721-getApproved}."
      },
      "isApprovedForAll(address,address)": {
        "details": "See {IERC721-isApprovedForAll}."
      },
      "name()": {
        "details": "See {IERC721Metadata-name}."
      },
      "owner()": {
        "details": "Returns the address of the current owner."
      },
      "ownerOf(uint256)": {
        "details": "See {IERC721-ownerOf}."
      },
      "renounceOwnership()": {
        "details": "Leaves the contract without owner. It will not be possible to call `onlyOwner` functions anymore. Can only be called by the current owner. NOTE: Renouncing ownership will leave the contract without an owner, thereby removing any functionality that is only available to the owner."
      },
      "safeTransferFrom(address,address,uint256)": {
        "details": "See {IERC721-safeTransferFrom}."
      },
      "safeTransferFrom(address,address,uint256,bytes)": {
        "details": "See {IERC721-safeTransferFrom}."
      },
      "setApprovalForAll(address,bool)": {
        "details": "See {IERC721-setApprovalForAll}."
      },
      "symbol()": {
        "details": "See {IERC721Metadata-symbol}."
      },
      "tokenByIndex(uint256)": {
        "details": "See {IERC721Enumerable-tokenByIndex}."
      },
      "tokenOfOwnerByIndex(address,uint256)": {
        "details": "See {IERC721Enumerable-tokenOfOwnerByIndex}."
      },
      "totalSupply()": {
        "details": "See {IERC721Enumerable-totalSupply}."
      },
      "transferFrom(address,address,uint256)": {
        "details": "See {IERC721-transferFrom}."
      },
      "transferOwnership(address)": {
        "details": "Transfers ownership of the contract to a new account (`newOwner`). Can only be called by the current owner."
      }
    },
    "version": 1
  },
  "userdoc": {
    "kind": "user",
    "methods": {},
    "version": 1
  },
  "storageLayout": {
    "storage": [
      {
        "astId": 1902,
        "contract": "contracts/BadgeNFT.sol:BadgeNFT",
        "label": "_name",
        "offset": 0,
        "slot": "0",
        "type": "t_string_storage"
      },
      {
        "astId": 1904,
        "contract": "contracts/BadgeNFT.sol:BadgeNFT",
        "label": "_symbol",
        "offset": 0,
        "slot": "1",
        "type": "t_string_storage"
      },
      {
        "astId": 1908,
        "contract": "contracts/BadgeNFT.sol:BadgeNFT",
        "label": "_owners",
        "offset": 0,
        "slot": "2",
        "type": "t_mapping(t_uint256,t_address)"
      },
      {
        "astId": 1912,
        "contract": "contracts/BadgeNFT.sol:BadgeNFT",
        "label": "_balances",
        "offset": 0,
        "slot": "3",
        "type": "t_mapping(t_address,t_uint256)"
      },
      {
        "astId": 1916,
        "contract": "contracts/BadgeNFT.sol:BadgeNFT",
        "label": "_tokenApprovals",
        "offset": 0,
        "slot": "4",
        "type": "t_mapping(t_uint256,t_address)"
      },
      {
        "astId": 1922,
        "contract": "contracts/BadgeNFT.sol:BadgeNFT",
        "label": "_operatorApprovals",
        "offset": 0,
        "slot": "5",
        "type": "t_mapping(t_address,t_mapping(t_address,t_bool))"
      },
      {
        "astId": 3227,
        "contract": "contracts/BadgeNFT.sol:BadgeNFT",
        "label": "_tokenURIs",
        "offset": 0,
        "slot": "6",
        "type": "t_mapping(t_uint256,t_string_storage)"
      },
      {
        "astId": 2891,
        "contract": "contracts/BadgeNFT.sol:BadgeNFT",
        "label": "_ownedTokens",
        "offset": 0,
        "slot": "7",
        "type": "t_mapping(t_address,t_mapping(t_uint256,t_uint256))"
      },
      {
        "astId": 2895,
        "contract": "contracts/BadgeNFT.sol:BadgeNFT",
        "label": "_ownedTokensIndex",
        "offset": 0,
        "slot": "8",
        "type": "t_mapping(t_uint256,t_uint256)"
      },
      {
        "astId": 2898,
        "contract": "contracts/BadgeNFT.sol:BadgeNFT",
        "label": "_allTokens",
        "offset": 0,
        "slot": "9",
        "type": "t_array(t_uint256)dyn_storage"
      },
      {
        "astId": 2902,
        "contract": "contracts/BadgeNFT.sol:BadgeNFT",
        "label": "_allTokensIndex",
        "offset": 0,
        "slot": "10",
        "type": "t_mapping(t_uint256,t_uint256)"
      },
      {
        "astId": 273,
        "contract": "contracts/BadgeNFT.sol:BadgeNFT",
        "label": "_owner",
        "offset": 0,
        "slot": "11",
        "type": "t_address"
      },
      {
        "astId": 5192,
        "contract": "contracts/BadgeNFT.sol:BadgeNFT",
        "label": "_tokenIds",
        "offset": 0,
        "slot": "12",
        "type": "t_struct(Counter)3723_storage"
      },
      {
        "astId": 5195,
        "contract": "contracts/BadgeNFT.sol:BadgeNFT",
        "label": "vrfContract",
        "offset": 0,
        "slot": "13",
        "type": "t_contract(RandomNumberConsumer)11651"
      },
      {
        "astId": 5198,
        "contract": "contracts/BadgeNFT.sol:BadgeNFT",
        "label": "verifyContract",
        "offset": 0,
        "slot": "14",
        "type": "t_contract(Verify)12312"
      },
      {
        "astId": 5200,
        "contract": "contracts/BadgeNFT.sol:BadgeNFT",
        "label": "projectNFTAddress",
        "offset": 0,
        "slot": "15",
        "type": "t_address"
      },
      {
        "astId": 5202,
        "contract": "contracts/BadgeNFT.sol:BadgeNFT",
        "label": "pathwayNFTAddress",
        "offset": 0,
        "slot": "16",
        "type": "t_address"
      },
      {
        "astId": 5204,
        "contract": "contracts/BadgeNFT.sol:BadgeNFT",
        "label": "appDiamond",
        "offset": 0,
        "slot": "17",
        "type": "t_address"
      },
      {
        "astId": 5206,
        "contract": "contracts/BadgeNFT.sol:BadgeNFT",
        "label": "adventureFactory",
        "offset": 0,
        "slot": "18",
        "type": "t_address"
      },
      {
        "astId": 5210,
        "contract": "contracts/BadgeNFT.sol:BadgeNFT",
        "label": "statusStrings",
        "offset": 0,
        "slot": "19",
        "type": "t_mapping(t_uint256,t_string_storage)"
      },
      {
        "astId": 5214,
        "contract": "contracts/BadgeNFT.sol:BadgeNFT",
        "label": "badgeMinted",
        "offset": 0,
        "slot": "20",
        "type": "t_mapping(t_string_memory_ptr,t_bool)"
      },
      {
        "astId": 5219,
        "contract": "contracts/BadgeNFT.sol:BadgeNFT",
        "label": "contributors",
        "offset": 0,
        "slot": "21",
        "type": "t_mapping(t_string_memory_ptr,t_array(t_address)dyn_storage)"
      },
      {
        "astId": 5223,
        "contract": "contracts/BadgeNFT.sol:BadgeNFT",
        "label": "pathwayIdforBadge",
        "offset": 0,
        "slot": "22",
        "type": "t_mapping(t_string_memory_ptr,t_string_storage)"
      },
      {
        "astId": 5228,
        "contract": "contracts/BadgeNFT.sol:BadgeNFT",
        "label": "status",
        "offset": 0,
        "slot": "23",
        "type": "t_mapping(t_string_memory_ptr,t_enum(BadgeStatus)5335)"
      },
      {
        "astId": 5232,
        "contract": "contracts/BadgeNFT.sol:BadgeNFT",
        "label": "votes",
        "offset": 0,
        "slot": "24",
        "type": "t_mapping(t_string_memory_ptr,t_uint256)"
      },
      {
        "astId": 5236,
        "contract": "contracts/BadgeNFT.sol:BadgeNFT",
        "label": "votesReject",
        "offset": 0,
        "slot": "25",
        "type": "t_mapping(t_string_memory_ptr,t_uint256)"
      },
      {
        "astId": 5242,
        "contract": "contracts/BadgeNFT.sol:BadgeNFT",
        "label": "reviewerVotes",
        "offset": 0,
        "slot": "26",
        "type": "t_mapping(t_string_memory_ptr,t_mapping(t_address,t_bool))"
      },
      {
        "astId": 5246,
        "contract": "contracts/BadgeNFT.sol:BadgeNFT",
        "label": "nativeRewards",
        "offset": 0,
        "slot": "27",
        "type": "t_mapping(t_string_memory_ptr,t_uint256)"
      },
      {
        "astId": 5252,
        "contract": "contracts/BadgeNFT.sol:BadgeNFT",
        "label": "erc20Amounts",
        "offset": 0,
        "slot": "28",
        "type": "t_mapping(t_string_memory_ptr,t_mapping(t_address,t_uint256))"
      },
      {
        "astId": 5256,
        "contract": "contracts/BadgeNFT.sol:BadgeNFT",
        "label": "nativeRefundClaimed",
        "offset": 0,
        "slot": "29",
        "type": "t_mapping(t_string_memory_ptr,t_bool)"
      },
      {
        "astId": 5262,
        "contract": "contracts/BadgeNFT.sol:BadgeNFT",
        "label": "erc20RefundClaimed",
        "offset": 0,
        "slot": "30",
        "type": "t_mapping(t_string_memory_ptr,t_mapping(t_address,t_bool))"
      },
      {
        "astId": 5266,
        "contract": "contracts/BadgeNFT.sol:BadgeNFT",
        "label": "numUsersRewardPerBadge",
        "offset": 0,
        "slot": "31",
        "type": "t_mapping(t_string_memory_ptr,t_uint256)"
      },
      {
        "astId": 5270,
        "contract": "contracts/BadgeNFT.sol:BadgeNFT",
        "label": "currentNumUsersRewardPerBadgeNative",
        "offset": 0,
        "slot": "32",
        "type": "t_mapping(t_string_memory_ptr,t_uint256)"
      },
      {
        "astId": 5276,
        "contract": "contracts/BadgeNFT.sol:BadgeNFT",
        "label": "currentNumUsersRewardPerBadgeERC20",
        "offset": 0,
        "slot": "33",
        "type": "t_mapping(t_string_memory_ptr,t_mapping(t_address,t_uint256))"
      },
      {
        "astId": 5282,
        "contract": "contracts/BadgeNFT.sol:BadgeNFT",
        "label": "nonces",
        "offset": 0,
        "slot": "34",
        "type": "t_mapping(t_string_memory_ptr,t_mapping(t_address,t_uint256))"
      },
      {
        "astId": 5286,
        "contract": "contracts/BadgeNFT.sol:BadgeNFT",
        "label": "adventurerAddress",
        "offset": 0,
        "slot": "35",
        "type": "t_mapping(t_string_memory_ptr,t_address)"
      },
      {
        "astId": 5294,
        "contract": "contracts/BadgeNFT.sol:BadgeNFT",
        "label": "mintTrackerByBadgeIdVersionMinter",
        "offset": 0,
        "slot": "36",
        "type": "t_mapping(t_string_memory_ptr,t_mapping(t_uint256,t_mapping(t_address,t_bool)))"
      },
      {
        "astId": 5301,
        "contract": "contracts/BadgeNFT.sol:BadgeNFT",
        "label": "allMintersPerBadgeAndVersion",
        "offset": 0,
        "slot": "37",
        "type": "t_mapping(t_string_memory_ptr,t_mapping(t_uint256,t_array(t_address)dyn_storage))"
      },
      {
        "astId": 5308,
        "contract": "contracts/BadgeNFT.sol:BadgeNFT",
        "label": "allTokenIdsPerBadgeAndVersion",
        "offset": 0,
        "slot": "38",
        "type": "t_mapping(t_string_memory_ptr,t_mapping(t_uint256,t_array(t_uint256)dyn_storage))"
      },
      {
        "astId": 5313,
        "contract": "contracts/BadgeNFT.sol:BadgeNFT",
        "label": "tokenInfoById",
        "offset": 0,
        "slot": "39",
        "type": "t_mapping(t_uint256,t_struct(TokenInfo)5340_storage)"
      },
      {
        "astId": 5321,
        "contract": "contracts/BadgeNFT.sol:BadgeNFT",
        "label": "userRewardedForBadgeERC20",
        "offset": 0,
        "slot": "40",
        "type": "t_mapping(t_string_memory_ptr,t_mapping(t_address,t_mapping(t_address,t_bool)))"
      },
      {
        "astId": 5327,
        "contract": "contracts/BadgeNFT.sol:BadgeNFT",
        "label": "userRewardedForBadgeNative",
        "offset": 0,
        "slot": "41",
        "type": "t_mapping(t_string_memory_ptr,t_mapping(t_address,t_bool))"
      },
      {
        "astId": 5330,
        "contract": "contracts/BadgeNFT.sol:BadgeNFT",
        "label": "fee",
        "offset": 0,
        "slot": "42",
        "type": "t_uint256"
      }
    ],
    "types": {
      "t_address": {
        "encoding": "inplace",
        "label": "address",
        "numberOfBytes": "20"
      },
      "t_array(t_address)dyn_storage": {
        "base": "t_address",
        "encoding": "dynamic_array",
        "label": "address[]",
        "numberOfBytes": "32"
      },
      "t_array(t_uint256)dyn_storage": {
        "base": "t_uint256",
        "encoding": "dynamic_array",
        "label": "uint256[]",
        "numberOfBytes": "32"
      },
      "t_bool": {
        "encoding": "inplace",
        "label": "bool",
        "numberOfBytes": "1"
      },
      "t_contract(RandomNumberConsumer)11651": {
        "encoding": "inplace",
        "label": "contract RandomNumberConsumer",
        "numberOfBytes": "20"
      },
      "t_contract(Verify)12312": {
        "encoding": "inplace",
        "label": "contract Verify",
        "numberOfBytes": "20"
      },
      "t_enum(BadgeStatus)5335": {
        "encoding": "inplace",
        "label": "enum BadgeNFT.BadgeStatus",
        "numberOfBytes": "1"
      },
      "t_mapping(t_address,t_bool)": {
        "encoding": "mapping",
        "key": "t_address",
        "label": "mapping(address => bool)",
        "numberOfBytes": "32",
        "value": "t_bool"
      },
      "t_mapping(t_address,t_mapping(t_address,t_bool))": {
        "encoding": "mapping",
        "key": "t_address",
        "label": "mapping(address => mapping(address => bool))",
        "numberOfBytes": "32",
        "value": "t_mapping(t_address,t_bool)"
      },
      "t_mapping(t_address,t_mapping(t_uint256,t_uint256))": {
        "encoding": "mapping",
        "key": "t_address",
        "label": "mapping(address => mapping(uint256 => uint256))",
        "numberOfBytes": "32",
        "value": "t_mapping(t_uint256,t_uint256)"
      },
      "t_mapping(t_address,t_uint256)": {
        "encoding": "mapping",
        "key": "t_address",
        "label": "mapping(address => uint256)",
        "numberOfBytes": "32",
        "value": "t_uint256"
      },
      "t_mapping(t_string_memory_ptr,t_address)": {
        "encoding": "mapping",
        "key": "t_string_memory_ptr",
        "label": "mapping(string => address)",
        "numberOfBytes": "32",
        "value": "t_address"
      },
      "t_mapping(t_string_memory_ptr,t_array(t_address)dyn_storage)": {
        "encoding": "mapping",
        "key": "t_string_memory_ptr",
        "label": "mapping(string => address[])",
        "numberOfBytes": "32",
        "value": "t_array(t_address)dyn_storage"
      },
      "t_mapping(t_string_memory_ptr,t_bool)": {
        "encoding": "mapping",
        "key": "t_string_memory_ptr",
        "label": "mapping(string => bool)",
        "numberOfBytes": "32",
        "value": "t_bool"
      },
      "t_mapping(t_string_memory_ptr,t_enum(BadgeStatus)5335)": {
        "encoding": "mapping",
        "key": "t_string_memory_ptr",
        "label": "mapping(string => enum BadgeNFT.BadgeStatus)",
        "numberOfBytes": "32",
        "value": "t_enum(BadgeStatus)5335"
      },
      "t_mapping(t_string_memory_ptr,t_mapping(t_address,t_bool))": {
        "encoding": "mapping",
        "key": "t_string_memory_ptr",
        "label": "mapping(string => mapping(address => bool))",
        "numberOfBytes": "32",
        "value": "t_mapping(t_address,t_bool)"
      },
      "t_mapping(t_string_memory_ptr,t_mapping(t_address,t_mapping(t_address,t_bool)))": {
        "encoding": "mapping",
        "key": "t_string_memory_ptr",
        "label": "mapping(string => mapping(address => mapping(address => bool)))",
        "numberOfBytes": "32",
        "value": "t_mapping(t_address,t_mapping(t_address,t_bool))"
      },
      "t_mapping(t_string_memory_ptr,t_mapping(t_address,t_uint256))": {
        "encoding": "mapping",
        "key": "t_string_memory_ptr",
        "label": "mapping(string => mapping(address => uint256))",
        "numberOfBytes": "32",
        "value": "t_mapping(t_address,t_uint256)"
      },
      "t_mapping(t_string_memory_ptr,t_mapping(t_uint256,t_array(t_address)dyn_storage))": {
        "encoding": "mapping",
        "key": "t_string_memory_ptr",
        "label": "mapping(string => mapping(uint256 => address[]))",
        "numberOfBytes": "32",
        "value": "t_mapping(t_uint256,t_array(t_address)dyn_storage)"
      },
      "t_mapping(t_string_memory_ptr,t_mapping(t_uint256,t_array(t_uint256)dyn_storage))": {
        "encoding": "mapping",
        "key": "t_string_memory_ptr",
        "label": "mapping(string => mapping(uint256 => uint256[]))",
        "numberOfBytes": "32",
        "value": "t_mapping(t_uint256,t_array(t_uint256)dyn_storage)"
      },
      "t_mapping(t_string_memory_ptr,t_mapping(t_uint256,t_mapping(t_address,t_bool)))": {
        "encoding": "mapping",
        "key": "t_string_memory_ptr",
        "label": "mapping(string => mapping(uint256 => mapping(address => bool)))",
        "numberOfBytes": "32",
        "value": "t_mapping(t_uint256,t_mapping(t_address,t_bool))"
      },
      "t_mapping(t_string_memory_ptr,t_string_storage)": {
        "encoding": "mapping",
        "key": "t_string_memory_ptr",
        "label": "mapping(string => string)",
        "numberOfBytes": "32",
        "value": "t_string_storage"
      },
      "t_mapping(t_string_memory_ptr,t_uint256)": {
        "encoding": "mapping",
        "key": "t_string_memory_ptr",
        "label": "mapping(string => uint256)",
        "numberOfBytes": "32",
        "value": "t_uint256"
      },
      "t_mapping(t_uint256,t_address)": {
        "encoding": "mapping",
        "key": "t_uint256",
        "label": "mapping(uint256 => address)",
        "numberOfBytes": "32",
        "value": "t_address"
      },
      "t_mapping(t_uint256,t_array(t_address)dyn_storage)": {
        "encoding": "mapping",
        "key": "t_uint256",
        "label": "mapping(uint256 => address[])",
        "numberOfBytes": "32",
        "value": "t_array(t_address)dyn_storage"
      },
      "t_mapping(t_uint256,t_array(t_uint256)dyn_storage)": {
        "encoding": "mapping",
        "key": "t_uint256",
        "label": "mapping(uint256 => uint256[])",
        "numberOfBytes": "32",
        "value": "t_array(t_uint256)dyn_storage"
      },
      "t_mapping(t_uint256,t_mapping(t_address,t_bool))": {
        "encoding": "mapping",
        "key": "t_uint256",
        "label": "mapping(uint256 => mapping(address => bool))",
        "numberOfBytes": "32",
        "value": "t_mapping(t_address,t_bool)"
      },
      "t_mapping(t_uint256,t_string_storage)": {
        "encoding": "mapping",
        "key": "t_uint256",
        "label": "mapping(uint256 => string)",
        "numberOfBytes": "32",
        "value": "t_string_storage"
      },
      "t_mapping(t_uint256,t_struct(TokenInfo)5340_storage)": {
        "encoding": "mapping",
        "key": "t_uint256",
        "label": "mapping(uint256 => struct BadgeNFT.TokenInfo)",
        "numberOfBytes": "32",
        "value": "t_struct(TokenInfo)5340_storage"
      },
      "t_mapping(t_uint256,t_uint256)": {
        "encoding": "mapping",
        "key": "t_uint256",
        "label": "mapping(uint256 => uint256)",
        "numberOfBytes": "32",
        "value": "t_uint256"
      },
      "t_string_memory_ptr": {
        "encoding": "bytes",
        "label": "string",
        "numberOfBytes": "32"
      },
      "t_string_storage": {
        "encoding": "bytes",
        "label": "string",
        "numberOfBytes": "32"
      },
      "t_struct(Counter)3723_storage": {
        "encoding": "inplace",
        "label": "struct Counters.Counter",
        "members": [
          {
            "astId": 3722,
            "contract": "contracts/BadgeNFT.sol:BadgeNFT",
            "label": "_value",
            "offset": 0,
            "slot": "0",
            "type": "t_uint256"
          }
        ],
        "numberOfBytes": "32"
      },
      "t_struct(TokenInfo)5340_storage": {
        "encoding": "inplace",
        "label": "struct BadgeNFT.TokenInfo",
        "members": [
          {
            "astId": 5337,
            "contract": "contracts/BadgeNFT.sol:BadgeNFT",
            "label": "badgeId",
            "offset": 0,
            "slot": "0",
            "type": "t_string_storage"
          },
          {
            "astId": 5339,
            "contract": "contracts/BadgeNFT.sol:BadgeNFT",
            "label": "version",
            "offset": 0,
            "slot": "1",
            "type": "t_uint256"
          }
        ],
        "numberOfBytes": "64"
      },
      "t_uint256": {
        "encoding": "inplace",
        "label": "uint256",
        "numberOfBytes": "32"
      }
    }
  }
}