{
  "address": "0x859730c1e82ef01427f3a86Adf6AF89C6Df3C9F6",
  "abi": [
    {
      "inputs": [
        {
          "internalType": "address",
          "name": "_vrfAddress",
          "type": "address"
        },
        {
          "internalType": "address",
          "name": "_projectNFTAddress",
          "type": "address"
        },
        {
          "internalType": "address",
          "name": "_verifyAddress",
          "type": "address"
        }
      ],
      "stateMutability": "nonpayable",
      "type": "constructor"
    },
    {
      "anonymous": false,
      "inputs": [
        {
          "indexed": true,
          "internalType": "address",
          "name": "owner",
          "type": "address"
        },
        {
          "indexed": true,
          "internalType": "address",
          "name": "approved",
          "type": "address"
        },
        {
          "indexed": true,
          "internalType": "uint256",
          "name": "tokenId",
          "type": "uint256"
        }
      ],
      "name": "Approval",
      "type": "event"
    },
    {
      "anonymous": false,
      "inputs": [
        {
          "indexed": true,
          "internalType": "address",
          "name": "owner",
          "type": "address"
        },
        {
          "indexed": true,
          "internalType": "address",
          "name": "operator",
          "type": "address"
        },
        {
          "indexed": false,
          "internalType": "bool",
          "name": "approved",
          "type": "bool"
        }
      ],
      "name": "ApprovalForAll",
      "type": "event"
    },
    {
      "anonymous": false,
      "inputs": [
        {
          "indexed": true,
          "internalType": "address",
          "name": "_to",
          "type": "address"
        },
        {
          "indexed": true,
          "internalType": "string",
          "name": "_tokenURI",
          "type": "string"
        },
        {
          "indexed": true,
          "internalType": "string",
          "name": "_badgeId",
          "type": "string"
        }
      ],
      "name": "NFTPathwayMinted",
      "type": "event"
    },
    {
      "anonymous": false,
      "inputs": [
        {
          "indexed": true,
          "internalType": "address",
          "name": "previousOwner",
          "type": "address"
        },
        {
          "indexed": true,
          "internalType": "address",
          "name": "newOwner",
          "type": "address"
        }
      ],
      "name": "OwnershipTransferred",
      "type": "event"
    },
    {
      "anonymous": false,
      "inputs": [
        {
          "indexed": true,
          "internalType": "string",
          "name": "_pathwayId",
          "type": "string"
        }
      ],
      "name": "PathwayApproved",
      "type": "event"
    },
    {
      "anonymous": false,
      "inputs": [
        {
          "indexed": false,
          "internalType": "address",
          "name": "_caller",
          "type": "address"
        },
        {
          "indexed": false,
          "internalType": "uint256",
          "name": "_value",
          "type": "uint256"
        }
      ],
      "name": "ReceiveCalled",
      "type": "event"
    },
    {
      "anonymous": false,
      "inputs": [
        {
          "indexed": true,
          "internalType": "address",
          "name": "from",
          "type": "address"
        },
        {
          "indexed": true,
          "internalType": "address",
          "name": "to",
          "type": "address"
        },
        {
          "indexed": true,
          "internalType": "uint256",
          "name": "tokenId",
          "type": "uint256"
        }
      ],
      "name": "Transfer",
      "type": "event"
    },
    {
      "inputs": [
        {
          "internalType": "string",
          "name": "_pathwayId",
          "type": "string"
        },
        {
          "internalType": "address",
          "name": "_ERC20Address",
          "type": "address"
        },
        {
          "internalType": "bool",
          "name": "useNative",
          "type": "bool"
        },
        {
          "internalType": "uint256",
          "name": "amount",
          "type": "uint256"
        }
      ],
      "name": "addPathwayCreationReward",
      "outputs": [],
      "stateMutability": "payable",
      "type": "function"
    },
    {
      "inputs": [
        {
          "internalType": "address",
          "name": "to",
          "type": "address"
        },
        {
          "internalType": "uint256",
          "name": "tokenId",
          "type": "uint256"
        }
      ],
      "name": "approve",
      "outputs": [],
      "stateMutability": "nonpayable",
      "type": "function"
    },
    {
      "inputs": [
        {
          "internalType": "address",
          "name": "owner",
          "type": "address"
        }
      ],
      "name": "balanceOf",
      "outputs": [
        {
          "internalType": "uint256",
          "name": "",
          "type": "uint256"
        }
      ],
      "stateMutability": "view",
      "type": "function"
    },
    {
      "inputs": [
        {
          "internalType": "string",
          "name": "_pathwayId",
          "type": "string"
        },
        {
          "internalType": "bool",
          "name": "native",
          "type": "bool"
        },
        {
          "internalType": "address",
          "name": "_ERC20Address",
          "type": "address"
        },
        {
          "internalType": "bytes32",
          "name": "r",
          "type": "bytes32"
        },
        {
          "internalType": "bytes32",
          "name": "s",
          "type": "bytes32"
        },
        {
          "internalType": "uint8",
          "name": "v",
          "type": "uint8"
        }
      ],
      "name": "claimPathwayRewards",
      "outputs": [],
      "stateMutability": "nonpayable",
      "type": "function"
    },
    {
      "inputs": [
        {
          "internalType": "string",
          "name": "_pathwayId",
          "type": "string"
        },
        {
          "internalType": "bool",
          "name": "native",
          "type": "bool"
        },
        {
          "internalType": "address",
          "name": "_ERC20Address",
          "type": "address"
        }
      ],
      "name": "claimRejectionRefund",
      "outputs": [],
      "stateMutability": "nonpayable",
      "type": "function"
    },
    {
      "inputs": [
        {
          "internalType": "string",
          "name": "_pathwayId",
          "type": "string"
        },
        {
          "internalType": "string",
          "name": "_projectId",
          "type": "string"
        },
        {
          "internalType": "uint256",
          "name": "numUsersRewarded",
          "type": "uint256"
        },
        {
          "internalType": "bool",
          "name": "callRewards",
          "type": "bool"
        },
        {
          "internalType": "address",
          "name": "_ERC20Address",
          "type": "address"
        },
        {
          "internalType": "bool",
          "name": "useNative",
          "type": "bool"
        },
        {
          "internalType": "uint256",
          "name": "amount",
          "type": "uint256"
        }
      ],
      "name": "createPathway",
      "outputs": [],
      "stateMutability": "payable",
      "type": "function"
    },
    {
      "inputs": [
        {
          "internalType": "string",
          "name": "_tokenURI",
          "type": "string"
        },
        {
          "internalType": "string",
          "name": "_pathwayId",
          "type": "string"
        },
        {
          "internalType": "string",
          "name": "_projectId",
          "type": "string"
        },
        {
          "internalType": "bytes32[2]",
          "name": "r",
          "type": "bytes32[2]"
        },
        {
          "internalType": "bytes32[2]",
          "name": "s",
          "type": "bytes32[2]"
        },
        {
          "internalType": "uint8[2]",
          "name": "v",
          "type": "uint8[2]"
        },
        {
          "internalType": "uint256",
          "name": "votesNeeded",
          "type": "uint256"
        }
      ],
      "name": "createToken",
      "outputs": [
        {
          "internalType": "uint256[]",
          "name": "",
          "type": "uint256[]"
        }
      ],
      "stateMutability": "nonpayable",
      "type": "function"
    },
    {
      "inputs": [
        {
          "internalType": "string",
          "name": "",
          "type": "string"
        },
        {
          "internalType": "address",
          "name": "",
          "type": "address"
        }
      ],
      "name": "currentNumUsersRewardPerPathwayERC20",
      "outputs": [
        {
          "internalType": "uint256",
          "name": "",
          "type": "uint256"
        }
      ],
      "stateMutability": "view",
      "type": "function"
    },
    {
      "inputs": [
        {
          "internalType": "string",
          "name": "",
          "type": "string"
        }
      ],
      "name": "currentNumUsersRewardPerPathwayNative",
      "outputs": [
        {
          "internalType": "uint256",
          "name": "",
          "type": "uint256"
        }
      ],
      "stateMutability": "view",
      "type": "function"
    },
    {
      "inputs": [],
      "name": "fee",
      "outputs": [
        {
          "internalType": "uint256",
          "name": "",
          "type": "uint256"
        }
      ],
      "stateMutability": "view",
      "type": "function"
    },
    {
      "inputs": [],
      "name": "getAppDiamond",
      "outputs": [
        {
          "internalType": "address",
          "name": "",
          "type": "address"
        }
      ],
      "stateMutability": "view",
      "type": "function"
    },
    {
      "inputs": [
        {
          "internalType": "uint256",
          "name": "tokenId",
          "type": "uint256"
        }
      ],
      "name": "getApproved",
      "outputs": [
        {
          "internalType": "address",
          "name": "",
          "type": "address"
        }
      ],
      "stateMutability": "view",
      "type": "function"
    },
    {
      "inputs": [
        {
          "internalType": "string",
          "name": "_pathwayId",
          "type": "string"
        }
      ],
      "name": "getContributors",
      "outputs": [
        {
          "internalType": "address[]",
          "name": "",
          "type": "address[]"
        }
      ],
      "stateMutability": "view",
      "type": "function"
    },
    {
      "inputs": [
        {
          "internalType": "address",
          "name": "owner",
          "type": "address"
        },
        {
          "internalType": "address",
          "name": "operator",
          "type": "address"
        }
      ],
      "name": "isApprovedForAll",
      "outputs": [
        {
          "internalType": "bool",
          "name": "",
          "type": "bool"
        }
      ],
      "stateMutability": "view",
      "type": "function"
    },
    {
      "inputs": [],
      "name": "name",
      "outputs": [
        {
          "internalType": "string",
          "name": "",
          "type": "string"
        }
      ],
      "stateMutability": "view",
      "type": "function"
    },
    {
      "inputs": [
        {
          "internalType": "string",
          "name": "",
          "type": "string"
        }
      ],
      "name": "nativeRefundClaimed",
      "outputs": [
        {
          "internalType": "bool",
          "name": "",
          "type": "bool"
        }
      ],
      "stateMutability": "view",
      "type": "function"
    },
    {
      "inputs": [
        {
          "internalType": "string",
          "name": "",
          "type": "string"
        }
      ],
      "name": "nativeRewards",
      "outputs": [
        {
          "internalType": "uint256",
          "name": "",
          "type": "uint256"
        }
      ],
      "stateMutability": "view",
      "type": "function"
    },
    {
      "inputs": [
        {
          "internalType": "string",
          "name": "",
          "type": "string"
        }
      ],
      "name": "numUsersRewardPerPathway",
      "outputs": [
        {
          "internalType": "uint256",
          "name": "",
          "type": "uint256"
        }
      ],
      "stateMutability": "view",
      "type": "function"
    },
    {
      "inputs": [],
      "name": "owner",
      "outputs": [
        {
          "internalType": "address",
          "name": "",
          "type": "address"
        }
      ],
      "stateMutability": "view",
      "type": "function"
    },
    {
      "inputs": [
        {
          "internalType": "uint256",
          "name": "tokenId",
          "type": "uint256"
        }
      ],
      "name": "ownerOf",
      "outputs": [
        {
          "internalType": "address",
          "name": "",
          "type": "address"
        }
      ],
      "stateMutability": "view",
      "type": "function"
    },
    {
      "inputs": [
        {
          "internalType": "string",
          "name": "",
          "type": "string"
        }
      ],
      "name": "pathwayMinted",
      "outputs": [
        {
          "internalType": "bool",
          "name": "",
          "type": "bool"
        }
      ],
      "stateMutability": "view",
      "type": "function"
    },
    {
      "inputs": [
        {
          "internalType": "string",
          "name": "",
          "type": "string"
        }
      ],
      "name": "projectIdforPathway",
      "outputs": [
        {
          "internalType": "string",
          "name": "",
          "type": "string"
        }
      ],
      "stateMutability": "view",
      "type": "function"
    },
    {
      "inputs": [],
      "name": "renounceOwnership",
      "outputs": [],
      "stateMutability": "nonpayable",
      "type": "function"
    },
    {
      "inputs": [
        {
          "internalType": "string",
          "name": "",
          "type": "string"
        },
        {
          "internalType": "address",
          "name": "",
          "type": "address"
        }
      ],
      "name": "reviewerVotes",
      "outputs": [
        {
          "internalType": "bool",
          "name": "",
          "type": "bool"
        }
      ],
      "stateMutability": "view",
      "type": "function"
    },
    {
      "inputs": [
        {
          "internalType": "address",
          "name": "from",
          "type": "address"
        },
        {
          "internalType": "address",
          "name": "to",
          "type": "address"
        },
        {
          "internalType": "uint256",
          "name": "tokenId",
          "type": "uint256"
        }
      ],
      "name": "safeTransferFrom",
      "outputs": [],
      "stateMutability": "nonpayable",
      "type": "function"
    },
    {
      "inputs": [
        {
          "internalType": "address",
          "name": "from",
          "type": "address"
        },
        {
          "internalType": "address",
          "name": "to",
          "type": "address"
        },
        {
          "internalType": "uint256",
          "name": "tokenId",
          "type": "uint256"
        },
        {
          "internalType": "bytes",
          "name": "_data",
          "type": "bytes"
        }
      ],
      "name": "safeTransferFrom",
      "outputs": [],
      "stateMutability": "nonpayable",
      "type": "function"
    },
    {
      "inputs": [
        {
          "internalType": "address",
          "name": "newAppDiamond",
          "type": "address"
        }
      ],
      "name": "setAppDiamond",
      "outputs": [],
      "stateMutability": "nonpayable",
      "type": "function"
    },
    {
      "inputs": [
        {
          "internalType": "address",
          "name": "operator",
          "type": "address"
        },
        {
          "internalType": "bool",
          "name": "approved",
          "type": "bool"
        }
      ],
      "name": "setApprovalForAll",
      "outputs": [],
      "stateMutability": "nonpayable",
      "type": "function"
    },
    {
      "inputs": [
        {
          "internalType": "string",
          "name": "",
          "type": "string"
        }
      ],
      "name": "status",
      "outputs": [
        {
          "internalType": "enum PathwayNFT.PathwayStatus",
          "name": "",
          "type": "uint8"
        }
      ],
      "stateMutability": "view",
      "type": "function"
    },
    {
      "inputs": [
        {
          "internalType": "uint256",
          "name": "",
          "type": "uint256"
        }
      ],
      "name": "statusStrings",
      "outputs": [
        {
          "internalType": "string",
          "name": "",
          "type": "string"
        }
      ],
      "stateMutability": "view",
      "type": "function"
    },
    {
      "inputs": [
        {
          "internalType": "bytes4",
          "name": "interfaceId",
          "type": "bytes4"
        }
      ],
      "name": "supportsInterface",
      "outputs": [
        {
          "internalType": "bool",
          "name": "",
          "type": "bool"
        }
      ],
      "stateMutability": "view",
      "type": "function"
    },
    {
      "inputs": [],
      "name": "symbol",
      "outputs": [
        {
          "internalType": "string",
          "name": "",
          "type": "string"
        }
      ],
      "stateMutability": "view",
      "type": "function"
    },
    {
      "inputs": [
        {
          "internalType": "uint256",
          "name": "index",
          "type": "uint256"
        }
      ],
      "name": "tokenByIndex",
      "outputs": [
        {
          "internalType": "uint256",
          "name": "",
          "type": "uint256"
        }
      ],
      "stateMutability": "view",
      "type": "function"
    },
    {
      "inputs": [
        {
          "internalType": "address",
          "name": "owner",
          "type": "address"
        },
        {
          "internalType": "uint256",
          "name": "index",
          "type": "uint256"
        }
      ],
      "name": "tokenOfOwnerByIndex",
      "outputs": [
        {
          "internalType": "uint256",
          "name": "",
          "type": "uint256"
        }
      ],
      "stateMutability": "view",
      "type": "function"
    },
    {
      "inputs": [
        {
          "internalType": "uint256",
          "name": "tokenId",
          "type": "uint256"
        }
      ],
      "name": "tokenURI",
      "outputs": [
        {
          "internalType": "string",
          "name": "",
          "type": "string"
        }
      ],
      "stateMutability": "view",
      "type": "function"
    },
    {
      "inputs": [],
      "name": "totalSupply",
      "outputs": [
        {
          "internalType": "uint256",
          "name": "",
          "type": "uint256"
        }
      ],
      "stateMutability": "view",
      "type": "function"
    },
    {
      "inputs": [
        {
          "internalType": "address",
          "name": "from",
          "type": "address"
        },
        {
          "internalType": "address",
          "name": "to",
          "type": "address"
        },
        {
          "internalType": "uint256",
          "name": "tokenId",
          "type": "uint256"
        }
      ],
      "name": "transferFrom",
      "outputs": [],
      "stateMutability": "nonpayable",
      "type": "function"
    },
    {
      "inputs": [
        {
          "internalType": "address",
          "name": "newOwner",
          "type": "address"
        }
      ],
      "name": "transferOwnership",
      "outputs": [],
      "stateMutability": "nonpayable",
      "type": "function"
    },
    {
      "inputs": [
        {
          "internalType": "string",
          "name": "",
          "type": "string"
        },
        {
          "internalType": "address",
          "name": "",
          "type": "address"
        }
      ],
      "name": "userRewardedForPathwayNative",
      "outputs": [
        {
          "internalType": "bool",
          "name": "",
          "type": "bool"
        }
      ],
      "stateMutability": "view",
      "type": "function"
    },
    {
      "inputs": [
        {
          "internalType": "address[]",
          "name": "_contributors",
          "type": "address[]"
        },
        {
          "internalType": "string",
          "name": "_pathwayId",
          "type": "string"
        },
        {
          "internalType": "string",
          "name": "_projectId",
          "type": "string"
        },
        {
          "internalType": "bytes32[2]",
          "name": "r",
          "type": "bytes32[2]"
        },
        {
          "internalType": "bytes32[2]",
          "name": "s",
          "type": "bytes32[2]"
        },
        {
          "internalType": "uint8[2]",
          "name": "v",
          "type": "uint8[2]"
        },
        {
          "internalType": "uint256",
          "name": "votesNeeded",
          "type": "uint256"
        }
      ],
      "name": "voteForApproval",
      "outputs": [],
      "stateMutability": "nonpayable",
      "type": "function"
    },
    {
      "inputs": [
        {
          "internalType": "string",
          "name": "_pathwayId",
          "type": "string"
        },
        {
          "internalType": "string",
          "name": "_projectId",
          "type": "string"
        },
        {
          "internalType": "bytes32[2]",
          "name": "r",
          "type": "bytes32[2]"
        },
        {
          "internalType": "bytes32[2]",
          "name": "s",
          "type": "bytes32[2]"
        },
        {
          "internalType": "uint8[2]",
          "name": "v",
          "type": "uint8[2]"
        },
        {
          "internalType": "uint256",
          "name": "votesNeeded",
          "type": "uint256"
        }
      ],
      "name": "voteForRejection",
      "outputs": [],
      "stateMutability": "nonpayable",
      "type": "function"
    },
    {
      "inputs": [
        {
          "internalType": "string",
          "name": "",
          "type": "string"
        }
      ],
      "name": "votes",
      "outputs": [
        {
          "internalType": "uint256",
          "name": "",
          "type": "uint256"
        }
      ],
      "stateMutability": "view",
      "type": "function"
    },
    {
      "inputs": [
        {
          "internalType": "string",
          "name": "",
          "type": "string"
        }
      ],
      "name": "votesReject",
      "outputs": [
        {
          "internalType": "uint256",
          "name": "",
          "type": "uint256"
        }
      ],
      "stateMutability": "view",
      "type": "function"
    },
    {
      "inputs": [
        {
          "internalType": "address",
          "name": "_owner",
          "type": "address"
        }
      ],
      "name": "walletOfOwner",
      "outputs": [
        {
          "internalType": "uint256[]",
          "name": "",
          "type": "uint256[]"
        }
      ],
      "stateMutability": "view",
      "type": "function"
    },
    {
      "stateMutability": "payable",
      "type": "receive"
    }
  ],
  "transactionHash": "0x4f41bfa4d5e031216a147189d118ca6a69b66207c207c52d7ece1e4e6c6b67fc",
  "args": [
    "0x5CC387AeCba2Ac9c90fdBD8F51032D4e4DAf944c",
    "0xc6f5693C9741A4889870CbE361428Eb0Ba0c05e3",
    "0x40f40fb4d93D1133B8df8f87B6d48c2932559415"
  ],
  "numDeployments": 9,
  "solcInputHash": "2ff7f625715d4d4ea5e012444afe35e9",
  "bytecode": "0x60806040526105dc6023553480156200001757600080fd5b5060405162005605380380620056058339810160408190526200003a916200038a565b604080518082018252600d81526c64436f6d70617373426164676560981b6020808301918252835180850190945260068452652221a7a6a82160d11b9084015281519192916200008d91600091620002c7565b508051620000a3906001906020840190620002c7565b505050620000c0620000ba6200027160201b60201c565b62000275565b600d80546001600160a01b038086166001600160a01b031992831617909255600e8054848416908316179055600f80549285169290911691909117905560408051808201909152600b81526a1393d391561254d511539560aa1b60208083019182526000805260119052905162000159917f4ad3b33220dddc71b994a52d72c06b10862965f7d926534c05c00fb7e819e7b791620002c7565b5060408051808201909152600781526650454e44494e4760c81b60208083019182526001600052601190529051620001b3917f17bc176d2408558f6e4111feebc3cab4e16b63e967be91cde721f4c8a488b55291620002c7565b5060408051808201909152600681526511115392515160d21b602080830191825260026000526011905290516200020c917f08037d7b151cc412d25674a4e66b334d9ae9d2e5517a7feaae5cdb828bf1c62891620002c7565b506040805180820190915260088152671054141493d5915160c21b6020808301918252600360005260119052905162000267917f9bfbaa59f8e10e7868f8b402de9d605a390c45ddaebd8c9de3c6f31e733c87ff91620002c7565b5050505062000411565b3390565b600b80546001600160a01b038381166001600160a01b0319831681179093556040519116919082907f8be0079c531659141344cd1fd0a4f28419497f9722a3daafe3b4186f6b6457e090600090a35050565b828054620002d590620003d4565b90600052602060002090601f016020900481019282620002f9576000855562000344565b82601f106200031457805160ff191683800117855562000344565b8280016001018555821562000344579182015b828111156200034457825182559160200191906001019062000327565b506200035292915062000356565b5090565b5b8082111562000352576000815560010162000357565b80516001600160a01b03811681146200038557600080fd5b919050565b600080600060608486031215620003a057600080fd5b620003ab846200036d565b9250620003bb602085016200036d565b9150620003cb604085016200036d565b90509250925092565b600181811c90821680620003e957607f821691505b602082108114156200040b57634e487b7160e01b600052602260045260246000fd5b50919050565b6151e480620004216000396000f3fe60806040526004361061026b5760003560e01c806368aa4dff11610144578063a22cb465116100b6578063ddca3f431161007a578063ddca3f431461089c578063e5ab63e9146108b2578063e8ca64f4146108ea578063e985e9c514610932578063ebcb309a1461097b578063f2fde38b1461099b57600080fd5b8063a22cb465146107d7578063aaa545d0146107f7578063b88d4fde14610824578063b99ef1fa14610844578063c87b56dd1461087c57600080fd5b806376032f0e1161010857806376032f0e146106ee5780638b11cf8a146107265780638da5cb5b14610746578063946543af1461076457806395d89b41146107775780639e1b567c1461078c57600080fd5b806368aa4dff1461064e57806370a0823114610661578063715018a6146106815780637180a03014610696578063727577c4146106b657600080fd5b80632f745c59116101dd5780634f6ccce7116101a15780634f6ccce71461055d578063500b5bd61461057d5780635398ba741461059b5780636352211e146105d65780636810b4cf146105f657806368929b5c1461061657600080fd5b80632f745c59146104a257806341038d19146104c257806342842e0e146104fd578063438b63001461051d578063471859571461053d57600080fd5b80630c54d2dd1161022f5780630c54d2dd146103805780630d0654d9146103d55780630e3c22cb1461040257806318160ddd146104225780631b8f91e81461043757806323b872dd1461048257600080fd5b806301ffc9a7146102af57806304dcd300146102e457806306fdde0314610311578063081812fc14610326578063095ea7b31461035e57600080fd5b366102aa57604080513381523460208201527f64c983f10188c30a885d77970aa5aae9a86e80ef9b459ad33cc620eb5999e070910160405180910390a1005b600080fd5b3480156102bb57600080fd5b506102cf6102ca3660046146d9565b6109bb565b60405190151581526020015b60405180910390f35b3480156102f057600080fd5b506103046102ff366004614ac3565b6109cc565b6040516102db9190614da0565b34801561031d57600080fd5b50610304610a66565b34801561033257600080fd5b50610346610341366004614ac3565b610af8565b6040516001600160a01b0390911681526020016102db565b34801561036a57600080fd5b5061037e61037936600461454f565b610b85565b005b34801561038c57600080fd5b506103c761039b366004614747565b815160208184018101805182825292820194820194909420919093529091526000908152604090205481565b6040519081526020016102db565b3480156103e157600080fd5b506103f56103f036600461497f565b610c9b565b6040516102db9190614d40565b34801561040e57600080fd5b5061037e61041d3660046143ee565b6113c6565b34801561042e57600080fd5b506009546103c7565b34801561044357600080fd5b506102cf610452366004614747565b81516020818401810180516022825292820194820194909420919093529091526000908152604090205460ff1681565b34801561048e57600080fd5b5061037e61049d366004614461565b611412565b3480156104ae57600080fd5b506103c76104bd36600461454f565b611443565b3480156104ce57600080fd5b506102cf6104dd366004614713565b8051602081830181018051601c8252928201919093012091525460ff1681565b34801561050957600080fd5b5061037e610518366004614461565b6114d9565b34801561052957600080fd5b506103f56105383660046143ee565b6114f4565b34801561054957600080fd5b5061037e6105583660046147f6565b611595565b34801561056957600080fd5b506103c7610578366004614ac3565b611a89565b34801561058957600080fd5b506010546001600160a01b0316610346565b3480156105a757600080fd5b506102cf6105b6366004614713565b805160208183018101805160128252928201919093012091525460ff1681565b3480156105e257600080fd5b506103466105f1366004614ac3565b611b1c565b34801561060257600080fd5b5061037e6106113660046148dd565b611b93565b34801561062257600080fd5b506103c7610631366004614713565b805160208183018101805160188252928201919093012091525481565b61037e61065c36600461478d565b611fb4565b34801561066d57600080fd5b506103c761067c3660046143ee565b6125a9565b34801561068d57600080fd5b5061037e612630565b3480156106a257600080fd5b5061037e6106b1366004614859565b612666565b3480156106c257600080fd5b506103c76106d1366004614713565b8051602081830181018051601e8252928201919093012091525481565b3480156106fa57600080fd5b506103c7610709366004614713565b8051602081830181018051601a8252928201919093012091525481565b34801561073257600080fd5b50610304610741366004614713565b612c5f565b34801561075257600080fd5b50600b546001600160a01b0316610346565b61037e610772366004614a13565b612c83565b34801561078357600080fd5b50610304612d69565b34801561079857600080fd5b506102cf6107a7366004614747565b81516020818401810180516019825292820194820194909420919093529091526000908152604090205460ff1681565b3480156107e357600080fd5b5061037e6107f2366004614521565b612d78565b34801561080357600080fd5b50610817610812366004614713565b612d87565b6040516102db9190614cf3565b34801561083057600080fd5b5061037e61083f3660046144a2565b612e01565b34801561085057600080fd5b506103c761085f366004614713565b805160208183018101805160178252928201919093012091525481565b34801561088857600080fd5b50610304610897366004614ac3565b612e39565b3480156108a857600080fd5b506103c760235481565b3480156108be57600080fd5b506103c76108cd366004614713565b8051602081830181018051601f8252928201919093012091525481565b3480156108f657600080fd5b50610925610905366004614713565b805160208183018101805160168252928201919093012091525460ff1681565b6040516102db9190614d78565b34801561093e57600080fd5b506102cf61094d366004614428565b6001600160a01b03918216600090815260056020908152604080832093909416825291909152205460ff1690565b34801561098757600080fd5b5061037e61099636600461457b565b612e44565b3480156109a757600080fd5b5061037e6109b63660046143ee565b6133d8565b60006109c682613473565b92915050565b601160205260009081526040902080546109e590615087565b80601f0160208091040260200160405190810160405280929190818152602001828054610a1190615087565b8015610a5e5780601f10610a3357610100808354040283529160200191610a5e565b820191906000526020600020905b815481529060010190602001808311610a4157829003601f168201915b505050505081565b606060008054610a7590615087565b80601f0160208091040260200160405190810160405280929190818152602001828054610aa190615087565b8015610aee5780601f10610ac357610100808354040283529160200191610aee565b820191906000526020600020905b815481529060010190602001808311610ad157829003601f168201915b5050505050905090565b6000610b0382613498565b610b695760405162461bcd60e51b815260206004820152602c60248201527f4552433732313a20617070726f76656420717565727920666f72206e6f6e657860448201526b34b9ba32b73a103a37b5b2b760a11b60648201526084015b60405180910390fd5b506000908152600460205260409020546001600160a01b031690565b6000610b9082611b1c565b9050806001600160a01b0316836001600160a01b03161415610bfe5760405162461bcd60e51b815260206004820152602160248201527f4552433732313a20617070726f76616c20746f2063757272656e74206f776e656044820152603960f91b6064820152608401610b60565b336001600160a01b0382161480610c1a5750610c1a813361094d565b610c8c5760405162461bcd60e51b815260206004820152603860248201527f4552433732313a20617070726f76652063616c6c6572206973206e6f74206f7760448201527f6e6572206e6f7220617070726f76656420666f7220616c6c00000000000000006064820152608401610b60565b610c9683836134b5565b505050565b6060601287604051610cad9190614b55565b9081526040519081900360200190205460ff1615610cfe5760405162461bcd60e51b815260206004820152600e60248201526d185b1c9958591e481b5a5b9d195960921b6044820152606401610b60565b600e54855185518551604051630903288360e11b81526000946001600160a01b031693631206510693610d3d9333938f938f9390929091600401614c4f565b602060405180830381600087803b158015610d5757600080fd5b505af1158015610d6b573d6000803e3d6000fd5b505050506040513d601f19601f82011682018060405250810190610d8f91906146bc565b905080610dec5760405162461bcd60e51b815260206004820152602560248201527f73656e646572206973206e6f7420617070726f7665642070726f6a656374206d60448201526434b73a32b960d91b6064820152608401610b60565b6001601689604051610dfe9190614b55565b9081526040519081900360200190205460ff166003811115610e2257610e2261511d565b1415610f7f57601788604051610e389190614b55565b908152602001604051809103902054831115610e895760405162461bcd60e51b815260206004820152601060248201526f6e6f7420656e6f75676820766f74657360801b6044820152606401610b60565b600e546020878101518782015191870151604051632336629f60e11b81526001600160a01b039094169363466cc53e93610ecd9333938f938b939190600401614ca7565b602060405180830381600087803b158015610ee757600080fd5b505af1158015610efb573d6000803e3d6000fd5b505050506040513d601f19601f82011682018060405250810190610f1f91906146bc565b905080610f3e5760405162461bcd60e51b8152600401610b6090614f6a565b6003601689604051610f509190614b55565b908152604051908190036020019020805460ff19166001836003811115610f7957610f7961511d565b02179055505b6003601689604051610f919190614b55565b9081526040519081900360200190205460ff166003811115610fb557610fb561511d565b146110185760405162461bcd60e51b815260206004820152602d60248201527f63616e206f6e6c79206d696e7420666f7220706174687761797320696e20617060448201526c70726f7665642073746174757360981b6064820152608401610b60565b6010546040516060916001600160a01b0316907f65a35964691f73fd1604104300b719081f6abd939cb2fc62b713db949a3b24099061105b908b90602401614da0565b60408051601f198184030181529181526020820180516001600160e01b03166001600160e01b03199094169390931790925290516110999190614b55565b6000604051808303816000865af19150503d80600081146110d6576040519150601f19603f3d011682016040523d82523d6000602084013e6110db565b606091505b509092509050816110eb57600080fd5b600081806020019051810190611101919061440b565b90506001600160a01b038116156111de57806001600160a01b03167f7c83c11f9ec76afed5429fa5830b7cc482416d05625066ce8f77199e2f5faaee8b60405160240161114e9190614da0565b60408051601f198184030181529181526020820180516001600160e01b03166001600160e01b031990941693909317909252905161118c9190614b55565b6000604051808303816000865af19150503d80600081146111c9576040519150601f19603f3d011682016040523d82523d6000602084013e6111ce565b606091505b509093509150826111de57600080fd5b600060138b6040516111f09190614b55565b908152604051908190036020019020546001600160401b038111156112175761121761515f565b604051908082528060200260200182016040528015611240578160200160208202803683370190505b5090506000805b60138d6040516112579190614b55565b908152604051908190036020019020548110156113825761127c600c80546001019055565b600c5491506112ce60138e6040516112949190614b55565b908152602001604051809103902082815481106112b3576112b3615149565b6000918252602090912001546001600160a01b031683613523565b6112d8828f613662565b8c6040516112e69190614b55565b60405180910390208e6040516112fc9190614b55565b604051809103902060138f6040516113149190614b55565b9081526020016040518091039020838154811061133357611333615149565b60009182526020822001546040516001600160a01b03909116917f323af8e82495eba529e101c6ea8614b66233683ec49766c746a7203ba276185e91a48061137a816150c2565b915050611247565b50600160128d6040516113959190614b55565b908152604051908190036020019020805491151560ff19909216919091179055509350505050979650505050505050565b600b546001600160a01b031633146113f05760405162461bcd60e51b8152600401610b6090614ea0565b601080546001600160a01b0319166001600160a01b0392909216919091179055565b61141c33826136ed565b6114385760405162461bcd60e51b8152600401610b6090614f19565b610c968383836137d7565b600061144e836125a9565b82106114b05760405162461bcd60e51b815260206004820152602b60248201527f455243373231456e756d657261626c653a206f776e657220696e646578206f7560448201526a74206f6620626f756e647360a81b6064820152608401610b60565b506001600160a01b03919091166000908152600760209081526040808320938352929052205490565b610c9683838360405180602001604052806000815250612e01565b60606000611501836125a9565b90506000816001600160401b0381111561151d5761151d61515f565b604051908082528060200260200182016040528015611546578160200160208202803683370190505b50905060005b8281101561158d5761155e8582611443565b82828151811061157057611570615149565b602090810291909101015280611585816150c2565b91505061154c565b509392505050565b60026016846040516115a79190614b55565b9081526040519081900360200190205460ff1660038111156115cb576115cb61511d565b146116185760405162461bcd60e51b815260206004820152601860248201527f696e636f727265637420706174687761792073746174757300000000000000006044820152606401610b60565b600060158460405161162a9190614b55565b9081526020016040518091039020805461164390615087565b80601f016020809104026020016040519081016040528092919081815260200182805461166f90615087565b80156116bc5780601f10611691576101008083540402835291602001916116bc565b820191906000526020600020905b81548152906001019060200180831161169f57829003601f168201915b5050600f546040519495506000948594506001600160a01b0390911692507f0d58dd088cbe688b8c61e8f36a658aa45125fbcff8c7e7af836d3925770f01bc915061170b908690602401614da0565b60408051601f198184030181529181526020820180516001600160e01b03166001600160e01b03199094169390931790925290516117499190614b55565b6000604051808303816000865af19150503d8060008114611786576040519150601f19603f3d011682016040523d82523d6000602084013e61178b565b606091505b50915091508161179a57600080fd5b6000818060200190518101906117b0919061440b565b90506001600160a01b0381166117c557600080fd5b85156118eb57601c876040516117db9190614b55565b9081526040519081900360200190205460ff161561183b5760405162461bcd60e51b815260206004820152601d60248201527f6e61746976652072657761726420616c726561647920636c61696d65640000006044820152606401610b60565b806001600160a01b0316601a886040516118559190614b55565b9081526040519081900360200181205490600081818185875af1925050503d806000811461189f576040519150601f19603f3d011682016040523d82523d6000602084013e6118a4565b606091505b505080935050826118b457600080fd5b6001601c886040516118c69190614b55565b908152604051908190036020019020805491151560ff19909216919091179055611a80565b601d876040516118fb9190614b55565b90815260408051602092819003830190206001600160a01b0388166000908152925290205460ff16156119705760405162461bcd60e51b815260206004820152601c60248201527f65726332302072657761726420616c726561647920636c61696d6564000000006044820152606401610b60565b846001600160a01b031663a9059cbb82601b8a6040516119909190614b55565b9081526040805191829003602090810183206001600160a01b038c166000908152915220546001600160e01b031960e085901b1682526119e792916004016001600160a01b03929092168252602082015260400190565b602060405180830381600087803b158015611a0157600080fd5b505af1158015611a15573d6000803e3d6000fd5b505050506040513d601f19601f82011682018060405250810190611a3991906146bc565b506001601d88604051611a4c9190614b55565b90815260408051602092819003830190206001600160a01b038916600090815292529020805460ff19169115159190911790555b50505050505050565b6000611a9460095490565b8210611af75760405162461bcd60e51b815260206004820152602c60248201527f455243373231456e756d657261626c653a20676c6f62616c20696e646578206f60448201526b7574206f6620626f756e647360a01b6064820152608401610b60565b60098281548110611b0a57611b0a615149565b90600052602060002001549050919050565b6000818152600260205260408120546001600160a01b0316806109c65760405162461bcd60e51b815260206004820152602960248201527f4552433732313a206f776e657220717565727920666f72206e6f6e657869737460448201526832b73a103a37b5b2b760b91b6064820152608401610b60565b6001601687604051611ba59190614b55565b9081526040519081900360200190205460ff166003811115611bc957611bc961511d565b14611c0c5760405162461bcd60e51b815260206004820152601360248201527270617468776179206e6f742070656e64696e6760681b6044820152606401610b60565b601986604051611c1c9190614b55565b90815260200160405180910390206000611c333390565b6001600160a01b0316815260208101919091526040016000205460ff1615611c9d5760405162461bcd60e51b815260206004820152601e60248201527f616c726561647920766f74656420666f722074686973207061746877617900006044820152606401610b60565b84604051602001611cae9190614b55565b60405160208183030381529060405280519060200120601587604051611cd49190614b55565b9081526020016040518091039020604051602001611cf29190614ba0565b6040516020818303038152906040528051906020012014611d4b5760405162461bcd60e51b81526020600482015260136024820152721a5b98dbdc9c9958dd081c1c9bda9958dd1259606a1b6044820152606401610b60565b600e54845184518451604051630903288360e11b81526000946001600160a01b031693631206510693611d8a9333938e938e9390929091600401614c4f565b602060405180830381600087803b158015611da457600080fd5b505af1158015611db8573d6000803e3d6000fd5b505050506040513d601f19601f82011682018060405250810190611ddc91906146bc565b905080611dfb5760405162461bcd60e51b8152600401610b6090614ed5565b600e546020868101518682015191860151604051632336629f60e11b81526000946001600160a01b03169363466cc53e93611e419333938f938b93929091600401614ca7565b602060405180830381600087803b158015611e5b57600080fd5b505af1158015611e6f573d6000803e3d6000fd5b505050506040513d601f19601f82011682018060405250810190611e9391906146bc565b905080611eb25760405162461bcd60e51b8152600401610b6090614f6a565b601888604051611ec29190614b55565b9081526040519081900360200190208054906000611edf836150c2565b91905055506001601989604051611ef69190614b55565b90815260200160405180910390206000611f0d3390565b6001600160a01b03166001600160a01b0316815260200190815260200160002060006101000a81548160ff02191690831515021790555082601889604051611f559190614b55565b90815260200160405180910390205410611faa576002601689604051611f7b9190614b55565b908152604051908190036020019020805460ff19166001836003811115611fa457611fa461511d565b02179055505b5050505050505050565b6001601685604051611fc69190614b55565b9081526040519081900360200190205460ff166003811115611fea57611fea61511d565b1461202d5760405162461bcd60e51b815260206004820152601360248201527270617468776179206e6f742070656e64696e6760681b6044820152606401610b60565b6000601e8560405161203f9190614b55565b9081526020016040518091039020541161208d5760405162461bcd60e51b815260206004820152600f60248201526e6e6f2075736572207265776172647360881b6044820152606401610b60565b600f5460408051600481526024810182526020810180516001600160e01b0316631c3b702f60e11b179052905160009283926001600160a01b03909116916120d59190614b55565b6000604051808303816000865af19150503d8060008114612112576040519150601f19603f3d011682016040523d82523d6000602084013e612117565b606091505b50915091508161212657600080fd5b60008180602001905181019061213c919061440b565b90506000612710602354866121519190615025565b61215b9190615011565b905085156122bd5761216d8186614ff9565b3410156121ae5760405162461bcd60e51b815260206004820152600f60248201526e1b9bdd08195b9bdd59da081cd95b9d608a1b6044820152606401610b60565b6040516001600160a01b038316908290600081818185875af1925050503d80600081146121f7576040519150601f19603f3d011682016040523d82523d6000602084013e6121fc565b606091505b5050809450508361220c57600080fd5b84601a8960405161221d9190614b55565b9081526020016040518091039020600082825461223a9190614ff9565b9091555061224a90508186614ff9565b3411156122b857338161225d8734615044565b6122679190615044565b604051600081818185875af1925050503d80600081146122a3576040519150601f19603f3d011682016040523d82523d6000602084013e6122a8565b606091505b505080945050836122b857600080fd5b611faa565b6001600160a01b0387166122d057600080fd5b6010546040516001600160a01b03909116907f11f69039648f0dd87bd7c96fa7501d8c9b90ae27f5d68bb2f9adfc6ae113637a90601590612312908c90614b55565b9081526040519081900360200181206123319146908c90602401614db3565b60408051601f198184030181529181526020820180516001600160e01b03166001600160e01b031990941693909317909252905161236f9190614b55565b6000604051808303816000865af19150503d80600081146123ac576040519150601f19603f3d011682016040523d82523d6000602084013e6123b1565b606091505b509094509250836123c157600080fd5b828060200190518101906123d591906146bc565b9350836124195760405162461bcd60e51b8152602060048201526012602482015271115490cc8c081b9bdd08185c1c1c9bdd995960721b6044820152606401610b60565b6001600160a01b0387166323b872dd336040516001600160e01b031960e084901b1681526001600160a01b039182166004820152908516602482015260448101849052606401602060405180830381600087803b15801561247957600080fd5b505af115801561248d573d6000803e3d6000fd5b505050506040513d601f19601f820116820180604052508101906124b191906146bc565b506001600160a01b0387166323b872dd336040516001600160e01b031960e084901b1681526001600160a01b03909116600482015230602482015260448101889052606401602060405180830381600087803b15801561251057600080fd5b505af1158015612524573d6000803e3d6000fd5b505050506040513d601f19601f8201168201806040525081019061254891906146bc565b5084601b8960405161255a9190614b55565b90815260200160405180910390206000896001600160a01b03166001600160a01b03168152602001908152602001600020600082825461259a9190614ff9565b90915550505050505050505050565b60006001600160a01b0382166126145760405162461bcd60e51b815260206004820152602a60248201527f4552433732313a2062616c616e636520717565727920666f7220746865207a65604482015269726f206164647265737360b01b6064820152608401610b60565b506001600160a01b031660009081526003602052604090205490565b600b546001600160a01b0316331461265a5760405162461bcd60e51b8152600401610b6090614ea0565b612664600061397e565b565b600085156127605760228760405161267e9190614b55565b908152602001604051809103902060006126953390565b6001600160a01b0316815260208101919091526040016000205460ff16156126bc57600080fd5b601e876040516126cc9190614b55565b908152602001604051809103902054601f886040516126eb9190614b55565b9081526020016040518091039020541061270457600080fd5b601e876040516127149190614b55565b908152602001604051809103902054601a886040516127339190614b55565b90815260200160405180910390205461274c9190615011565b90506000811161275b57600080fd5b612877565b6021876040516127709190614b55565b90815260408051602092819003830190206001600160a01b038816600090815290835281812033825290925290205460ff16156127ac57600080fd5b601e876040516127bc9190614b55565b9081526020016040518091039020546020886040516127db9190614b55565b90815260408051602092819003830190206001600160a01b038916600090815292529020541061280a57600080fd5b601e8760405161281a9190614b55565b908152602001604051809103902054601b886040516128399190614b55565b90815260408051602092819003830190206001600160a01b038916600090815292529020546128689190615011565b90506000811161287757600080fd5b60003330468a6040516020016128909493929190614b08565b60408051601f1981840301815282825280516020918201206010546004855260248501845291840180516001600160e01b031663a5207df560e01b179052915191935060009283926001600160a01b03909216916128ee9190614b55565b6000604051808303816000865af19150503d806000811461292b576040519150601f19603f3d011682016040523d82523d6000602084013e612930565b606091505b50915091508161293f57600080fd5b600081806020019051810190612955919061440b565b6040517f19457468657265756d205369676e6564204d6573736167653a0a3332000000006020820152603c8101869052909150600190605c0160408051601f198184030181528282528051602091820120600084529083018083525260ff891690820152606081018a90526080810189905260a0016020604051602081039080840390855afa1580156129ec573d6000803e3d6000fd5b505050602060405103516001600160a01b0316816001600160a01b031614612a495760405162461bcd60e51b815260206004820152601060248201526f24b731b7b93932b1ba1039b4b3b732b960811b6044820152606401610b60565b8915612b2e5760405133908690600081818185875af1925050503d8060008114612a8f576040519150601f19603f3d011682016040523d82523d6000602084013e612a94565b606091505b50508093505082612aa457600080fd5b600160228c604051612ab69190614b55565b90815260200160405180910390206000612acd3390565b6001600160a01b0316815260208101919091526040908101600020805460ff19169215159290921790915551601f90612b07908d90614b55565b9081526040519081900360200190208054906000612b24836150c2565b9190505550612c52565b6001600160a01b03891663a9059cbb336040516001600160e01b031960e084901b1681526001600160a01b03909116600482015260248101889052604401602060405180830381600087803b158015612b8657600080fd5b505af1158015612b9a573d6000803e3d6000fd5b505050506040513d601f19601f82011682018060405250810190612bbe91906146bc565b50600160218c604051612bd19190614b55565b90815260408051602092819003830181206001600160a01b038e166000908152908452828120338252845291909120805460ff19169315159390931790925590612c1c908d90614b55565b90815260408051602092819003830190206001600160a01b038c16600090815292528120805491612c4c836150c2565b91905055505b5050505050505050505050565b8051602081830181018051601582529282019190930120915280546109e590615087565b6000601688604051612c959190614b55565b9081526040519081900360200190205460ff166003811115612cb957612cb961511d565b14612cc357600080fd5b6001601688604051612cd59190614b55565b908152604051908190036020019020805460ff19166001836003811115612cfe57612cfe61511d565b021790555085601588604051612d149190614b55565b90815260200160405180910390209080519060200190612d359291906141c6565b5084601e88604051612d479190614b55565b908152604051908190036020019020558315611a8057611a8087848484611fb4565b606060018054610a7590615087565b612d833383836139d0565b5050565b6060601382604051612d999190614b55565b9081526040805191829003602090810183208054808302850183019093528284529190830182828015612df557602002820191906000526020600020905b81546001600160a01b03168152600190910190602001808311612dd7575b50505050509050919050565b612e0b33836136ed565b612e275760405162461bcd60e51b8152600401610b6090614f19565b612e3384848484613a9f565b50505050565b60606109c682613ad2565b6001601687604051612e569190614b55565b9081526040519081900360200190205460ff166003811115612e7a57612e7a61511d565b14612ebc5760405162461bcd60e51b8152602060048201526012602482015271737461747573206e6f742070656e64696e6760701b6044820152606401610b60565b601986604051612ecc9190614b55565b90815260200160405180910390206000612ee33390565b6001600160a01b0316815260208101919091526040016000205460ff1615612f4d5760405162461bcd60e51b815260206004820152601e60248201527f616c726561647920766f74656420666f722074686973207061746877617900006044820152606401610b60565b84604051602001612f5e9190614b55565b60405160208183030381529060405280519060200120601587604051612f849190614b55565b9081526020016040518091039020604051602001612fa29190614ba0565b6040516020818303038152906040528051906020012014612ffb5760405162461bcd60e51b81526020600482015260136024820152721a5b98dbdc9c9958dd081c1c9bda9958dd1259606a1b6044820152606401610b60565b600e54845184518451604051630903288360e11b81526000946001600160a01b03169363120651069361303a9333938e938e9390929091600401614c4f565b602060405180830381600087803b15801561305457600080fd5b505af1158015613068573d6000803e3d6000fd5b505050506040513d601f19601f8201168201806040525081019061308c91906146bc565b9050806130ab5760405162461bcd60e51b8152600401610b6090614ed5565b600e546020868101518682015191860151604051632336629f60e11b81526000946001600160a01b03169363466cc53e936130f19333938f938b93929091600401614ca7565b602060405180830381600087803b15801561310b57600080fd5b505af115801561311f573d6000803e3d6000fd5b505050506040513d601f19601f8201168201806040525081019061314391906146bc565b9050806131625760405162461bcd60e51b8152600401610b6090614f6a565b6017886040516131729190614b55565b908152604051908190036020019020805490600061318f836150c2565b919050555060016019896040516131a69190614b55565b908152602001604051809103902060006131bd3390565b6001600160a01b0316815260208101919091526040908101600020805460ff191692151592909217909155516017906131f7908a90614b55565b9081526020016040518091039020546001141561332957600089511161324d5760405162461bcd60e51b815260206004820152600b60248201526a656d70747920617272617960a81b6044820152606401610b60565b8860138960405161325e9190614b55565b9081526020016040518091039020908051906020019061327f92919061424a565b506017886040516132909190614b55565b90815260200160405180910390205483116133245760036016896040516132b79190614b55565b908152604051908190036020019020805460ff191660018360038111156132e0576132e061511d565b0217905550876040516132f39190614b55565b604051908190038120907fcf525faa39dde00362f50602e2030eb0b110857c69ffaf3c69a504b41962bf0f90600090a25b6133cd565b8260178960405161333a9190614b55565b908152602001604051809103902054106133cd5760036016896040516133609190614b55565b908152604051908190036020019020805460ff191660018360038111156133895761338961511d565b02179055508760405161339c9190614b55565b604051908190038120907fcf525faa39dde00362f50602e2030eb0b110857c69ffaf3c69a504b41962bf0f90600090a25b505050505050505050565b600b546001600160a01b031633146134025760405162461bcd60e51b8152600401610b6090614ea0565b6001600160a01b0381166134675760405162461bcd60e51b815260206004820152602660248201527f4f776e61626c653a206e6577206f776e657220697320746865207a65726f206160448201526564647265737360d01b6064820152608401610b60565b6134708161397e565b50565b60006001600160e01b0319821663780e9d6360e01b14806109c657506109c682613c41565b6000908152600260205260409020546001600160a01b0316151590565b600081815260046020526040902080546001600160a01b0319166001600160a01b03841690811790915581906134ea82611b1c565b6001600160a01b03167f8c5be1e5ebec7d5bd14f71427d1e84f3dd0314c0f7b2291e5b200ac8c7c3b92560405160405180910390a45050565b6001600160a01b0382166135795760405162461bcd60e51b815260206004820181905260248201527f4552433732313a206d696e7420746f20746865207a65726f20616464726573736044820152606401610b60565b61358281613498565b156135cf5760405162461bcd60e51b815260206004820152601c60248201527f4552433732313a20746f6b656e20616c7265616479206d696e746564000000006044820152606401610b60565b6135db60008383613c91565b6001600160a01b0382166000908152600360205260408120805460019290613604908490614ff9565b909155505060008181526002602052604080822080546001600160a01b0319166001600160a01b03861690811790915590518392907fddf252ad1be2c89b69c2b068fc378daa952ba7f163c4a11628f55a4df523b3ef908290a45050565b61366b82613498565b6136ce5760405162461bcd60e51b815260206004820152602e60248201527f45524337323155524953746f726167653a2055524920736574206f66206e6f6e60448201526d32bc34b9ba32b73a103a37b5b2b760911b6064820152608401610b60565b60008281526006602090815260409091208251610c96928401906141c6565b60006136f882613498565b6137595760405162461bcd60e51b815260206004820152602c60248201527f4552433732313a206f70657261746f7220717565727920666f72206e6f6e657860448201526b34b9ba32b73a103a37b5b2b760a11b6064820152608401610b60565b600061376483611b1c565b9050806001600160a01b0316846001600160a01b0316148061379f5750836001600160a01b031661379484610af8565b6001600160a01b0316145b806137cf57506001600160a01b0380821660009081526005602090815260408083209388168352929052205460ff165b949350505050565b826001600160a01b03166137ea82611b1c565b6001600160a01b03161461384e5760405162461bcd60e51b815260206004820152602560248201527f4552433732313a207472616e736665722066726f6d20696e636f72726563742060448201526437bbb732b960d91b6064820152608401610b60565b6001600160a01b0382166138b05760405162461bcd60e51b8152602060048201526024808201527f4552433732313a207472616e7366657220746f20746865207a65726f206164646044820152637265737360e01b6064820152608401610b60565b6138bb838383613c91565b6138c66000826134b5565b6001600160a01b03831660009081526003602052604081208054600192906138ef908490615044565b90915550506001600160a01b038216600090815260036020526040812080546001929061391d908490614ff9565b909155505060008181526002602052604080822080546001600160a01b0319166001600160a01b0386811691821790925591518493918716917fddf252ad1be2c89b69c2b068fc378daa952ba7f163c4a11628f55a4df523b3ef91a4505050565b600b80546001600160a01b038381166001600160a01b0319831681179093556040519116919082907f8be0079c531659141344cd1fd0a4f28419497f9722a3daafe3b4186f6b6457e090600090a35050565b816001600160a01b0316836001600160a01b03161415613a325760405162461bcd60e51b815260206004820152601960248201527f4552433732313a20617070726f766520746f2063616c6c6572000000000000006044820152606401610b60565b6001600160a01b03838116600081815260056020908152604080832094871680845294825291829020805460ff191686151590811790915591519182527f17307eab39ab6107e8899845ad3d59bd9653f200f220920489ca2b5937696c31910160405180910390a3505050565b613aaa8484846137d7565b613ab684848484613c9c565b612e335760405162461bcd60e51b8152600401610b6090614e4e565b6060613add82613498565b613b435760405162461bcd60e51b815260206004820152603160248201527f45524337323155524953746f726167653a2055524920717565727920666f72206044820152703737b732bc34b9ba32b73a103a37b5b2b760791b6064820152608401610b60565b60008281526006602052604081208054613b5c90615087565b80601f0160208091040260200160405190810160405280929190818152602001828054613b8890615087565b8015613bd55780601f10613baa57610100808354040283529160200191613bd5565b820191906000526020600020905b815481529060010190602001808311613bb857829003601f168201915b505050505090506000613bf360408051602081019091526000815290565b9050805160001415613c06575092915050565b815115613c38578082604051602001613c20929190614b71565b60405160208183030381529060405292505050919050565b6137cf84613da9565b60006001600160e01b031982166380ac58cd60e01b1480613c7257506001600160e01b03198216635b5e139f60e01b145b806109c657506301ffc9a760e01b6001600160e01b03198316146109c6565b610c96838383613e81565b60006001600160a01b0384163b15613d9e57604051630a85bd0160e11b81526001600160a01b0385169063150b7a0290613ce0903390899088908890600401614c12565b602060405180830381600087803b158015613cfa57600080fd5b505af1925050508015613d2a575060408051601f3d908101601f19168201909252613d27918101906146f6565b60015b613d84573d808015613d58576040519150601f19603f3d011682016040523d82523d6000602084013e613d5d565b606091505b508051613d7c5760405162461bcd60e51b8152600401610b6090614e4e565b805181602001fd5b6001600160e01b031916630a85bd0160e11b1490506137cf565b506001949350505050565b6060613db482613498565b613e185760405162461bcd60e51b815260206004820152602f60248201527f4552433732314d657461646174613a2055524920717565727920666f72206e6f60448201526e3732bc34b9ba32b73a103a37b5b2b760891b6064820152608401610b60565b6000613e2f60408051602081019091526000815290565b90506000815111613e4f5760405180602001604052806000815250613e7a565b80613e5984613f39565b604051602001613e6a929190614b71565b6040516020818303038152906040525b9392505050565b6001600160a01b038316613edc57613ed781600980546000838152600a60205260408120829055600182018355919091527f6e1540171b6c0c960b71a7020d9f60077f6af931a8bbf590da0223dacf75c7af0155565b613eff565b816001600160a01b0316836001600160a01b031614613eff57613eff8382614036565b6001600160a01b038216613f1657610c96816140d3565b826001600160a01b0316826001600160a01b031614610c9657610c968282614182565b606081613f5d5750506040805180820190915260018152600360fc1b602082015290565b8160005b8115613f875780613f71816150c2565b9150613f809050600a83615011565b9150613f61565b6000816001600160401b03811115613fa157613fa161515f565b6040519080825280601f01601f191660200182016040528015613fcb576020820181803683370190505b5090505b84156137cf57613fe0600183615044565b9150613fed600a866150dd565b613ff8906030614ff9565b60f81b81838151811061400d5761400d615149565b60200101906001600160f81b031916908160001a90535061402f600a86615011565b9450613fcf565b60006001614043846125a9565b61404d9190615044565b6000838152600860205260409020549091508082146140a0576001600160a01b03841660009081526007602090815260408083208584528252808320548484528184208190558352600890915290208190555b5060009182526008602090815260408084208490556001600160a01b039094168352600781528383209183525290812055565b6009546000906140e590600190615044565b6000838152600a60205260408120546009805493945090928490811061410d5761410d615149565b90600052602060002001549050806009838154811061412e5761412e615149565b6000918252602080832090910192909255828152600a9091526040808220849055858252812055600980548061416657614166615133565b6001900381819060005260206000200160009055905550505050565b600061418d836125a9565b6001600160a01b039093166000908152600760209081526040808320868452825280832085905593825260089052919091209190915550565b8280546141d290615087565b90600052602060002090601f0160209004810192826141f4576000855561423a565b82601f1061420d57805160ff191683800117855561423a565b8280016001018555821561423a579182015b8281111561423a57825182559160200191906001019061421f565b5061424692915061429f565b5090565b82805482825590600052602060002090810192821561423a579160200282015b8281111561423a57825182546001600160a01b0319166001600160a01b0390911617825560209092019160019091019061426a565b5b8082111561424657600081556001016142a0565b60006001600160401b038311156142cd576142cd61515f565b6142e0601f8401601f1916602001614fc9565b90508281528383830111156142f457600080fd5b828260208301376000602084830101529392505050565b600082601f83011261431c57600080fd5b614324614fa1565b80838560408601111561433657600080fd5b60005b6002811015614358578135845260209384019390910190600101614339565b509095945050505050565b600082601f83011261437457600080fd5b61437c614fa1565b80838560408601111561438e57600080fd5b60005b6002811015614358576143a3826143d8565b84526020938401939190910190600101614391565b600082601f8301126143c957600080fd5b613e7a838335602085016142b4565b803560ff811681146143e957600080fd5b919050565b60006020828403121561440057600080fd5b8135613e7a81615175565b60006020828403121561441d57600080fd5b8151613e7a81615175565b6000806040838503121561443b57600080fd5b823561444681615175565b9150602083013561445681615175565b809150509250929050565b60008060006060848603121561447657600080fd5b833561448181615175565b9250602084013561449181615175565b929592945050506040919091013590565b600080600080608085870312156144b857600080fd5b84356144c381615175565b935060208501356144d381615175565b92506040850135915060608501356001600160401b038111156144f557600080fd5b8501601f8101871361450657600080fd5b614515878235602084016142b4565b91505092959194509250565b6000806040838503121561453457600080fd5b823561453f81615175565b915060208301356144568161518a565b6000806040838503121561456257600080fd5b823561456d81615175565b946020939093013593505050565b6000806000806000806000610140888a03121561459757600080fd5b6001600160401b0380893511156145ad57600080fd5b883589018a601f8201126145c057600080fd5b8035828111156145d2576145d261515f565b8060051b6145e260208201614fc9565b80838252602082019150602085018f602085880101111561460257600080fd5b600095505b84861015614630576146198135615175565b803583526001959095019460209283019201614607565b509b5050505060208a013590508181111561464a57600080fd5b6146568b828c016143b8565b97505060408901358181111561466b57600080fd5b6146778b828c016143b8565b965050506146888960608a0161430b565b93506146978960a08a0161430b565b92506146a68960e08a01614363565b9150610120880135905092959891949750929550565b6000602082840312156146ce57600080fd5b8151613e7a8161518a565b6000602082840312156146eb57600080fd5b8135613e7a81615198565b60006020828403121561470857600080fd5b8151613e7a81615198565b60006020828403121561472557600080fd5b81356001600160401b0381111561473b57600080fd5b6137cf848285016143b8565b6000806040838503121561475a57600080fd5b82356001600160401b0381111561477057600080fd5b61477c858286016143b8565b925050602083013561445681615175565b600080600080608085870312156147a357600080fd5b84356001600160401b038111156147b957600080fd5b6147c5878288016143b8565b94505060208501356147d681615175565b925060408501356147e68161518a565b9396929550929360600135925050565b60008060006060848603121561480b57600080fd5b83356001600160401b0381111561482157600080fd5b61482d868287016143b8565b935050602084013561483e8161518a565b9150604084013561484e81615175565b809150509250925092565b60008060008060008060c0878903121561487257600080fd5b86356001600160401b0381111561488857600080fd5b61489489828a016143b8565b96505060208701356148a58161518a565b945060408701356148b581615175565b935060608701359250608087013591506148d160a088016143d8565b90509295509295509295565b60008060008060008061012087890312156148f757600080fd5b86356001600160401b038082111561490e57600080fd5b61491a8a838b016143b8565b9750602089013591508082111561493057600080fd5b5061493d89828a016143b8565b95505061494d886040890161430b565b935061495c886080890161430b565b925061496b8860c08901614363565b915061010087013590509295509295509295565b6000806000806000806000610140888a03121561499b57600080fd5b87356001600160401b03808211156149b257600080fd5b6149be8b838c016143b8565b985060208a01359150808211156149d457600080fd5b6149e08b838c016143b8565b975060408a01359150808211156149f657600080fd5b50614a038a828b016143b8565b9550506146888960608a0161430b565b600080600080600080600060e0888a031215614a2e57600080fd5b87356001600160401b0380821115614a4557600080fd5b614a518b838c016143b8565b985060208a0135915080821115614a6757600080fd5b50614a748a828b016143b8565b965050604088013594506060880135614a8c8161518a565b93506080880135614a9c81615175565b925060a0880135614aac8161518a565b8092505060c0880135905092959891949750929550565b600060208284031215614ad557600080fd5b5035919050565b60008151808452614af481602086016020860161505b565b601f01601f19169290920160200192915050565b60006bffffffffffffffffffffffff19808760601b168352808660601b166014840152508360288301528251614b4581604885016020870161505b565b9190910160480195945050505050565b60008251614b6781846020870161505b565b9190910192915050565b60008351614b8381846020880161505b565b835190830190614b9781836020880161505b565b01949350505050565b6000808354614bae81615087565b60018281168015614bc65760018114614bd757614c06565b60ff19841687528287019450614c06565b8760005260208060002060005b85811015614bfd5781548a820152908401908201614be4565b50505082870194505b50929695505050505050565b6001600160a01b0385811682528416602082015260408101839052608060608201819052600090614c4590830184614adc565b9695505050505050565b6001600160a01b038716815260c060208201819052600090614c7390830188614adc565b8281036040840152614c858188614adc565b60608401969096525050608081019290925260ff1660a0909101529392505050565b6001600160a01b038716815260c060208201819052600090614ccb90830188614adc565b905085604083015284606083015283608083015260ff831660a0830152979650505050505050565b6020808252825182820181905260009190848201906040850190845b81811015614d345783516001600160a01b031683529284019291840191600101614d0f565b50909695505050505050565b6020808252825182820181905260009190848201906040850190845b81811015614d3457835183529284019291840191600101614d5c565b6020810160048310614d9a57634e487b7160e01b600052602160045260246000fd5b91905290565b602081526000613e7a6020830184614adc565b606081526000808554614dc581615087565b8060608601526080600180841660008114614de75760018114614dfb57614e2c565b60ff1985168884015260a088019550614e2c565b8a60005260208060002060005b86811015614e235781548b8201870152908401908201614e08565b8a018501975050505b5050505050602083018590526001600160a01b038416604084015290506137cf565b60208082526032908201527f4552433732313a207472616e7366657220746f206e6f6e20455243373231526560408201527131b2b4bb32b91034b6b83632b6b2b73a32b960711b606082015260800190565b6020808252818101527f4f776e61626c653a2063616c6c6572206973206e6f7420746865206f776e6572604082015260600190565b60208082526024908201527f73656e646572206973206e6f7420617070726f7665642070726f6a656374207660408201526337ba32b960e11b606082015260800190565b60208082526031908201527f4552433732313a207472616e736665722063616c6c6572206973206e6f74206f6040820152701ddb995c881b9bdc88185c1c1c9bdd9959607a1b606082015260800190565b6020808252601b908201527f696e636f727265637420766f746573206e65656465642073656e740000000000604082015260600190565b604080519081016001600160401b0381118282101715614fc357614fc361515f565b60405290565b604051601f8201601f191681016001600160401b0381118282101715614ff157614ff161515f565b604052919050565b6000821982111561500c5761500c6150f1565b500190565b60008261502057615020615107565b500490565b600081600019048311821515161561503f5761503f6150f1565b500290565b600082821015615056576150566150f1565b500390565b60005b8381101561507657818101518382015260200161505e565b83811115612e335750506000910152565b600181811c9082168061509b57607f821691505b602082108114156150bc57634e487b7160e01b600052602260045260246000fd5b50919050565b60006000198214156150d6576150d66150f1565b5060010190565b6000826150ec576150ec615107565b500690565b634e487b7160e01b600052601160045260246000fd5b634e487b7160e01b600052601260045260246000fd5b634e487b7160e01b600052602160045260246000fd5b634e487b7160e01b600052603160045260246000fd5b634e487b7160e01b600052603260045260246000fd5b634e487b7160e01b600052604160045260246000fd5b6001600160a01b038116811461347057600080fd5b801515811461347057600080fd5b6001600160e01b03198116811461347057600080fdfea2646970667358221220d7d8f4e5ffa8db7393fc3d4967780e194d6a3f48b0c14958ef285216b0fcc59264736f6c63430008070033",
  "devdoc": {
    "kind": "dev",
    "methods": {
      "approve(address,uint256)": {
        "details": "See {IERC721-approve}."
      },
      "balanceOf(address)": {
        "details": "See {IERC721-balanceOf}."
      },
      "getApproved(uint256)": {
        "details": "See {IERC721-getApproved}."
      },
      "isApprovedForAll(address,address)": {
        "details": "See {IERC721-isApprovedForAll}."
      },
      "name()": {
        "details": "See {IERC721Metadata-name}."
      },
      "owner()": {
        "details": "Returns the address of the current owner."
      },
      "ownerOf(uint256)": {
        "details": "See {IERC721-ownerOf}."
      },
      "renounceOwnership()": {
        "details": "Leaves the contract without owner. It will not be possible to call `onlyOwner` functions anymore. Can only be called by the current owner. NOTE: Renouncing ownership will leave the contract without an owner, thereby removing any functionality that is only available to the owner."
      },
      "safeTransferFrom(address,address,uint256)": {
        "details": "See {IERC721-safeTransferFrom}."
      },
      "safeTransferFrom(address,address,uint256,bytes)": {
        "details": "See {IERC721-safeTransferFrom}."
      },
      "setApprovalForAll(address,bool)": {
        "details": "See {IERC721-setApprovalForAll}."
      },
      "symbol()": {
        "details": "See {IERC721Metadata-symbol}."
      },
      "tokenByIndex(uint256)": {
        "details": "See {IERC721Enumerable-tokenByIndex}."
      },
      "tokenOfOwnerByIndex(address,uint256)": {
        "details": "See {IERC721Enumerable-tokenOfOwnerByIndex}."
      },
      "totalSupply()": {
        "details": "See {IERC721Enumerable-totalSupply}."
      },
      "transferFrom(address,address,uint256)": {
        "details": "See {IERC721-transferFrom}."
      },
      "transferOwnership(address)": {
        "details": "Transfers ownership of the contract to a new account (`newOwner`). Can only be called by the current owner."
      }
    },
    "version": 1
  },
  "userdoc": {
    "kind": "user",
    "methods": {},
    "version": 1
  },
  "storageLayout": {
    "storage": [
      {
        "astId": 1902,
        "contract": "contracts/PathwayNFT.sol:PathwayNFT",
        "label": "_name",
        "offset": 0,
        "slot": "0",
        "type": "t_string_storage"
      },
      {
        "astId": 1904,
        "contract": "contracts/PathwayNFT.sol:PathwayNFT",
        "label": "_symbol",
        "offset": 0,
        "slot": "1",
        "type": "t_string_storage"
      },
      {
        "astId": 1908,
        "contract": "contracts/PathwayNFT.sol:PathwayNFT",
        "label": "_owners",
        "offset": 0,
        "slot": "2",
        "type": "t_mapping(t_uint256,t_address)"
      },
      {
        "astId": 1912,
        "contract": "contracts/PathwayNFT.sol:PathwayNFT",
        "label": "_balances",
        "offset": 0,
        "slot": "3",
        "type": "t_mapping(t_address,t_uint256)"
      },
      {
        "astId": 1916,
        "contract": "contracts/PathwayNFT.sol:PathwayNFT",
        "label": "_tokenApprovals",
        "offset": 0,
        "slot": "4",
        "type": "t_mapping(t_uint256,t_address)"
      },
      {
        "astId": 1922,
        "contract": "contracts/PathwayNFT.sol:PathwayNFT",
        "label": "_operatorApprovals",
        "offset": 0,
        "slot": "5",
        "type": "t_mapping(t_address,t_mapping(t_address,t_bool))"
      },
      {
        "astId": 3227,
        "contract": "contracts/PathwayNFT.sol:PathwayNFT",
        "label": "_tokenURIs",
        "offset": 0,
        "slot": "6",
        "type": "t_mapping(t_uint256,t_string_storage)"
      },
      {
        "astId": 2891,
        "contract": "contracts/PathwayNFT.sol:PathwayNFT",
        "label": "_ownedTokens",
        "offset": 0,
        "slot": "7",
        "type": "t_mapping(t_address,t_mapping(t_uint256,t_uint256))"
      },
      {
        "astId": 2895,
        "contract": "contracts/PathwayNFT.sol:PathwayNFT",
        "label": "_ownedTokensIndex",
        "offset": 0,
        "slot": "8",
        "type": "t_mapping(t_uint256,t_uint256)"
      },
      {
        "astId": 2898,
        "contract": "contracts/PathwayNFT.sol:PathwayNFT",
        "label": "_allTokens",
        "offset": 0,
        "slot": "9",
        "type": "t_array(t_uint256)dyn_storage"
      },
      {
        "astId": 2902,
        "contract": "contracts/PathwayNFT.sol:PathwayNFT",
        "label": "_allTokensIndex",
        "offset": 0,
        "slot": "10",
        "type": "t_mapping(t_uint256,t_uint256)"
      },
      {
        "astId": 273,
        "contract": "contracts/PathwayNFT.sol:PathwayNFT",
        "label": "_owner",
        "offset": 0,
        "slot": "11",
        "type": "t_address"
      },
      {
        "astId": 7128,
        "contract": "contracts/PathwayNFT.sol:PathwayNFT",
        "label": "_tokenIds",
        "offset": 0,
        "slot": "12",
        "type": "t_struct(Counter)3723_storage"
      },
      {
        "astId": 7131,
        "contract": "contracts/PathwayNFT.sol:PathwayNFT",
        "label": "vrfContract",
        "offset": 0,
        "slot": "13",
        "type": "t_contract(RandomNumberConsumer)10811"
      },
      {
        "astId": 7134,
        "contract": "contracts/PathwayNFT.sol:PathwayNFT",
        "label": "verifyContract",
        "offset": 0,
        "slot": "14",
        "type": "t_contract(Verify)11472"
      },
      {
        "astId": 7136,
        "contract": "contracts/PathwayNFT.sol:PathwayNFT",
        "label": "projectNFTAddress",
        "offset": 0,
        "slot": "15",
        "type": "t_address"
      },
      {
        "astId": 7138,
        "contract": "contracts/PathwayNFT.sol:PathwayNFT",
        "label": "appDiamond",
        "offset": 0,
        "slot": "16",
        "type": "t_address"
      },
      {
        "astId": 7142,
        "contract": "contracts/PathwayNFT.sol:PathwayNFT",
        "label": "statusStrings",
        "offset": 0,
        "slot": "17",
        "type": "t_mapping(t_uint256,t_string_storage)"
      },
      {
        "astId": 7146,
        "contract": "contracts/PathwayNFT.sol:PathwayNFT",
        "label": "pathwayMinted",
        "offset": 0,
        "slot": "18",
        "type": "t_mapping(t_string_memory_ptr,t_bool)"
      },
      {
        "astId": 7151,
        "contract": "contracts/PathwayNFT.sol:PathwayNFT",
        "label": "contributors",
        "offset": 0,
        "slot": "19",
        "type": "t_mapping(t_string_memory_ptr,t_array(t_address)dyn_storage)"
      },
      {
        "astId": 7154,
        "contract": "contracts/PathwayNFT.sol:PathwayNFT",
        "label": "rarityThresholds",
        "offset": 0,
        "slot": "20",
        "type": "t_array(t_uint8)dyn_storage"
      },
      {
        "astId": 7158,
        "contract": "contracts/PathwayNFT.sol:PathwayNFT",
        "label": "projectIdforPathway",
        "offset": 0,
        "slot": "21",
        "type": "t_mapping(t_string_memory_ptr,t_string_storage)"
      },
      {
        "astId": 7163,
        "contract": "contracts/PathwayNFT.sol:PathwayNFT",
        "label": "status",
        "offset": 0,
        "slot": "22",
        "type": "t_mapping(t_string_memory_ptr,t_enum(PathwayStatus)7233)"
      },
      {
        "astId": 7167,
        "contract": "contracts/PathwayNFT.sol:PathwayNFT",
        "label": "votes",
        "offset": 0,
        "slot": "23",
        "type": "t_mapping(t_string_memory_ptr,t_uint256)"
      },
      {
        "astId": 7171,
        "contract": "contracts/PathwayNFT.sol:PathwayNFT",
        "label": "votesReject",
        "offset": 0,
        "slot": "24",
        "type": "t_mapping(t_string_memory_ptr,t_uint256)"
      },
      {
        "astId": 7177,
        "contract": "contracts/PathwayNFT.sol:PathwayNFT",
        "label": "reviewerVotes",
        "offset": 0,
        "slot": "25",
        "type": "t_mapping(t_string_memory_ptr,t_mapping(t_address,t_bool))"
      },
      {
        "astId": 7181,
        "contract": "contracts/PathwayNFT.sol:PathwayNFT",
        "label": "nativeRewards",
        "offset": 0,
        "slot": "26",
        "type": "t_mapping(t_string_memory_ptr,t_uint256)"
      },
      {
        "astId": 7187,
        "contract": "contracts/PathwayNFT.sol:PathwayNFT",
        "label": "erc20Amounts",
        "offset": 0,
        "slot": "27",
        "type": "t_mapping(t_string_memory_ptr,t_mapping(t_address,t_uint256))"
      },
      {
        "astId": 7191,
        "contract": "contracts/PathwayNFT.sol:PathwayNFT",
        "label": "nativeRefundClaimed",
        "offset": 0,
        "slot": "28",
        "type": "t_mapping(t_string_memory_ptr,t_bool)"
      },
      {
        "astId": 7197,
        "contract": "contracts/PathwayNFT.sol:PathwayNFT",
        "label": "erc20RefundClaimed",
        "offset": 0,
        "slot": "29",
        "type": "t_mapping(t_string_memory_ptr,t_mapping(t_address,t_bool))"
      },
      {
        "astId": 7201,
        "contract": "contracts/PathwayNFT.sol:PathwayNFT",
        "label": "numUsersRewardPerPathway",
        "offset": 0,
        "slot": "30",
        "type": "t_mapping(t_string_memory_ptr,t_uint256)"
      },
      {
        "astId": 7205,
        "contract": "contracts/PathwayNFT.sol:PathwayNFT",
        "label": "currentNumUsersRewardPerPathwayNative",
        "offset": 0,
        "slot": "31",
        "type": "t_mapping(t_string_memory_ptr,t_uint256)"
      },
      {
        "astId": 7211,
        "contract": "contracts/PathwayNFT.sol:PathwayNFT",
        "label": "currentNumUsersRewardPerPathwayERC20",
        "offset": 0,
        "slot": "32",
        "type": "t_mapping(t_string_memory_ptr,t_mapping(t_address,t_uint256))"
      },
      {
        "astId": 7219,
        "contract": "contracts/PathwayNFT.sol:PathwayNFT",
        "label": "userRewardedForPathwayERC20",
        "offset": 0,
        "slot": "33",
        "type": "t_mapping(t_string_memory_ptr,t_mapping(t_address,t_mapping(t_address,t_bool)))"
      },
      {
        "astId": 7225,
        "contract": "contracts/PathwayNFT.sol:PathwayNFT",
        "label": "userRewardedForPathwayNative",
        "offset": 0,
        "slot": "34",
        "type": "t_mapping(t_string_memory_ptr,t_mapping(t_address,t_bool))"
      },
      {
        "astId": 7228,
        "contract": "contracts/PathwayNFT.sol:PathwayNFT",
        "label": "fee",
        "offset": 0,
        "slot": "35",
        "type": "t_uint256"
      }
    ],
    "types": {
      "t_address": {
        "encoding": "inplace",
        "label": "address",
        "numberOfBytes": "20"
      },
      "t_array(t_address)dyn_storage": {
        "base": "t_address",
        "encoding": "dynamic_array",
        "label": "address[]",
        "numberOfBytes": "32"
      },
      "t_array(t_uint256)dyn_storage": {
        "base": "t_uint256",
        "encoding": "dynamic_array",
        "label": "uint256[]",
        "numberOfBytes": "32"
      },
      "t_array(t_uint8)dyn_storage": {
        "base": "t_uint8",
        "encoding": "dynamic_array",
        "label": "uint8[]",
        "numberOfBytes": "32"
      },
      "t_bool": {
        "encoding": "inplace",
        "label": "bool",
        "numberOfBytes": "1"
      },
      "t_contract(RandomNumberConsumer)10811": {
        "encoding": "inplace",
        "label": "contract RandomNumberConsumer",
        "numberOfBytes": "20"
      },
      "t_contract(Verify)11472": {
        "encoding": "inplace",
        "label": "contract Verify",
        "numberOfBytes": "20"
      },
      "t_enum(PathwayStatus)7233": {
        "encoding": "inplace",
        "label": "enum PathwayNFT.PathwayStatus",
        "numberOfBytes": "1"
      },
      "t_mapping(t_address,t_bool)": {
        "encoding": "mapping",
        "key": "t_address",
        "label": "mapping(address => bool)",
        "numberOfBytes": "32",
        "value": "t_bool"
      },
      "t_mapping(t_address,t_mapping(t_address,t_bool))": {
        "encoding": "mapping",
        "key": "t_address",
        "label": "mapping(address => mapping(address => bool))",
        "numberOfBytes": "32",
        "value": "t_mapping(t_address,t_bool)"
      },
      "t_mapping(t_address,t_mapping(t_uint256,t_uint256))": {
        "encoding": "mapping",
        "key": "t_address",
        "label": "mapping(address => mapping(uint256 => uint256))",
        "numberOfBytes": "32",
        "value": "t_mapping(t_uint256,t_uint256)"
      },
      "t_mapping(t_address,t_uint256)": {
        "encoding": "mapping",
        "key": "t_address",
        "label": "mapping(address => uint256)",
        "numberOfBytes": "32",
        "value": "t_uint256"
      },
      "t_mapping(t_string_memory_ptr,t_array(t_address)dyn_storage)": {
        "encoding": "mapping",
        "key": "t_string_memory_ptr",
        "label": "mapping(string => address[])",
        "numberOfBytes": "32",
        "value": "t_array(t_address)dyn_storage"
      },
      "t_mapping(t_string_memory_ptr,t_bool)": {
        "encoding": "mapping",
        "key": "t_string_memory_ptr",
        "label": "mapping(string => bool)",
        "numberOfBytes": "32",
        "value": "t_bool"
      },
      "t_mapping(t_string_memory_ptr,t_enum(PathwayStatus)7233)": {
        "encoding": "mapping",
        "key": "t_string_memory_ptr",
        "label": "mapping(string => enum PathwayNFT.PathwayStatus)",
        "numberOfBytes": "32",
        "value": "t_enum(PathwayStatus)7233"
      },
      "t_mapping(t_string_memory_ptr,t_mapping(t_address,t_bool))": {
        "encoding": "mapping",
        "key": "t_string_memory_ptr",
        "label": "mapping(string => mapping(address => bool))",
        "numberOfBytes": "32",
        "value": "t_mapping(t_address,t_bool)"
      },
      "t_mapping(t_string_memory_ptr,t_mapping(t_address,t_mapping(t_address,t_bool)))": {
        "encoding": "mapping",
        "key": "t_string_memory_ptr",
        "label": "mapping(string => mapping(address => mapping(address => bool)))",
        "numberOfBytes": "32",
        "value": "t_mapping(t_address,t_mapping(t_address,t_bool))"
      },
      "t_mapping(t_string_memory_ptr,t_mapping(t_address,t_uint256))": {
        "encoding": "mapping",
        "key": "t_string_memory_ptr",
        "label": "mapping(string => mapping(address => uint256))",
        "numberOfBytes": "32",
        "value": "t_mapping(t_address,t_uint256)"
      },
      "t_mapping(t_string_memory_ptr,t_string_storage)": {
        "encoding": "mapping",
        "key": "t_string_memory_ptr",
        "label": "mapping(string => string)",
        "numberOfBytes": "32",
        "value": "t_string_storage"
      },
      "t_mapping(t_string_memory_ptr,t_uint256)": {
        "encoding": "mapping",
        "key": "t_string_memory_ptr",
        "label": "mapping(string => uint256)",
        "numberOfBytes": "32",
        "value": "t_uint256"
      },
      "t_mapping(t_uint256,t_address)": {
        "encoding": "mapping",
        "key": "t_uint256",
        "label": "mapping(uint256 => address)",
        "numberOfBytes": "32",
        "value": "t_address"
      },
      "t_mapping(t_uint256,t_string_storage)": {
        "encoding": "mapping",
        "key": "t_uint256",
        "label": "mapping(uint256 => string)",
        "numberOfBytes": "32",
        "value": "t_string_storage"
      },
      "t_mapping(t_uint256,t_uint256)": {
        "encoding": "mapping",
        "key": "t_uint256",
        "label": "mapping(uint256 => uint256)",
        "numberOfBytes": "32",
        "value": "t_uint256"
      },
      "t_string_memory_ptr": {
        "encoding": "bytes",
        "label": "string",
        "numberOfBytes": "32"
      },
      "t_string_storage": {
        "encoding": "bytes",
        "label": "string",
        "numberOfBytes": "32"
      },
      "t_struct(Counter)3723_storage": {
        "encoding": "inplace",
        "label": "struct Counters.Counter",
        "members": [
          {
            "astId": 3722,
            "contract": "contracts/PathwayNFT.sol:PathwayNFT",
            "label": "_value",
            "offset": 0,
            "slot": "0",
            "type": "t_uint256"
          }
        ],
        "numberOfBytes": "32"
      },
      "t_uint256": {
        "encoding": "inplace",
        "label": "uint256",
        "numberOfBytes": "32"
      },
      "t_uint8": {
        "encoding": "inplace",
        "label": "uint8",
        "numberOfBytes": "1"
      }
    }
  }
}