{
  "address": "0xfa5c02137AE9830C84aDDC5B916B1B9BCbA813e6",
  "abi": [
    {
      "inputs": [
        {
          "internalType": "address",
          "name": "_vrfAddress",
          "type": "address"
        },
        {
          "internalType": "address",
          "name": "_projectNFTAddress",
          "type": "address"
        },
        {
          "internalType": "address",
          "name": "_verifyAddress",
          "type": "address"
        }
      ],
      "stateMutability": "nonpayable",
      "type": "constructor"
    },
    {
      "anonymous": false,
      "inputs": [
        {
          "indexed": true,
          "internalType": "address",
          "name": "owner",
          "type": "address"
        },
        {
          "indexed": true,
          "internalType": "address",
          "name": "approved",
          "type": "address"
        },
        {
          "indexed": true,
          "internalType": "uint256",
          "name": "tokenId",
          "type": "uint256"
        }
      ],
      "name": "Approval",
      "type": "event"
    },
    {
      "anonymous": false,
      "inputs": [
        {
          "indexed": true,
          "internalType": "address",
          "name": "owner",
          "type": "address"
        },
        {
          "indexed": true,
          "internalType": "address",
          "name": "operator",
          "type": "address"
        },
        {
          "indexed": false,
          "internalType": "bool",
          "name": "approved",
          "type": "bool"
        }
      ],
      "name": "ApprovalForAll",
      "type": "event"
    },
    {
      "anonymous": false,
      "inputs": [
        {
          "indexed": true,
          "internalType": "address",
          "name": "_to",
          "type": "address"
        },
        {
          "indexed": true,
          "internalType": "string",
          "name": "_tokenURI",
          "type": "string"
        },
        {
          "indexed": true,
          "internalType": "string",
          "name": "_badgeId",
          "type": "string"
        }
      ],
      "name": "NFTPathwayMinted",
      "type": "event"
    },
    {
      "anonymous": false,
      "inputs": [
        {
          "indexed": true,
          "internalType": "address",
          "name": "previousOwner",
          "type": "address"
        },
        {
          "indexed": true,
          "internalType": "address",
          "name": "newOwner",
          "type": "address"
        }
      ],
      "name": "OwnershipTransferred",
      "type": "event"
    },
    {
      "anonymous": false,
      "inputs": [
        {
          "indexed": true,
          "internalType": "string",
          "name": "_pathwayId",
          "type": "string"
        }
      ],
      "name": "PathwayApproved",
      "type": "event"
    },
    {
      "anonymous": false,
      "inputs": [
        {
          "indexed": false,
          "internalType": "address",
          "name": "_caller",
          "type": "address"
        },
        {
          "indexed": false,
          "internalType": "uint256",
          "name": "_value",
          "type": "uint256"
        }
      ],
      "name": "ReceiveCalled",
      "type": "event"
    },
    {
      "anonymous": false,
      "inputs": [
        {
          "indexed": true,
          "internalType": "address",
          "name": "from",
          "type": "address"
        },
        {
          "indexed": true,
          "internalType": "address",
          "name": "to",
          "type": "address"
        },
        {
          "indexed": true,
          "internalType": "uint256",
          "name": "tokenId",
          "type": "uint256"
        }
      ],
      "name": "Transfer",
      "type": "event"
    },
    {
      "inputs": [
        {
          "internalType": "string",
          "name": "_pathwayId",
          "type": "string"
        },
        {
          "internalType": "address",
          "name": "_ERC20Address",
          "type": "address"
        },
        {
          "internalType": "bool",
          "name": "useNative",
          "type": "bool"
        },
        {
          "internalType": "uint256",
          "name": "amount",
          "type": "uint256"
        }
      ],
      "name": "addPathwayCreationReward",
      "outputs": [],
      "stateMutability": "payable",
      "type": "function"
    },
    {
      "inputs": [
        {
          "internalType": "address",
          "name": "to",
          "type": "address"
        },
        {
          "internalType": "uint256",
          "name": "tokenId",
          "type": "uint256"
        }
      ],
      "name": "approve",
      "outputs": [],
      "stateMutability": "nonpayable",
      "type": "function"
    },
    {
      "inputs": [
        {
          "internalType": "address",
          "name": "owner",
          "type": "address"
        }
      ],
      "name": "balanceOf",
      "outputs": [
        {
          "internalType": "uint256",
          "name": "",
          "type": "uint256"
        }
      ],
      "stateMutability": "view",
      "type": "function"
    },
    {
      "inputs": [
        {
          "internalType": "string",
          "name": "_tokenURI",
          "type": "string"
        },
        {
          "internalType": "string",
          "name": "_pathwayId",
          "type": "string"
        },
        {
          "internalType": "string",
          "name": "_projectId",
          "type": "string"
        },
        {
          "internalType": "bytes32[2]",
          "name": "r",
          "type": "bytes32[2]"
        },
        {
          "internalType": "bytes32[2]",
          "name": "s",
          "type": "bytes32[2]"
        },
        {
          "internalType": "uint8[2]",
          "name": "v",
          "type": "uint8[2]"
        },
        {
          "internalType": "uint256",
          "name": "votesNeeded",
          "type": "uint256"
        }
      ],
      "name": "createToken",
      "outputs": [
        {
          "internalType": "uint256[]",
          "name": "",
          "type": "uint256[]"
        }
      ],
      "stateMutability": "nonpayable",
      "type": "function"
    },
    {
      "inputs": [
        {
          "internalType": "uint256",
          "name": "tokenId",
          "type": "uint256"
        }
      ],
      "name": "getApproved",
      "outputs": [
        {
          "internalType": "address",
          "name": "",
          "type": "address"
        }
      ],
      "stateMutability": "view",
      "type": "function"
    },
    {
      "inputs": [
        {
          "internalType": "address",
          "name": "owner",
          "type": "address"
        },
        {
          "internalType": "address",
          "name": "operator",
          "type": "address"
        }
      ],
      "name": "isApprovedForAll",
      "outputs": [
        {
          "internalType": "bool",
          "name": "",
          "type": "bool"
        }
      ],
      "stateMutability": "view",
      "type": "function"
    },
    {
      "inputs": [],
      "name": "name",
      "outputs": [
        {
          "internalType": "string",
          "name": "",
          "type": "string"
        }
      ],
      "stateMutability": "view",
      "type": "function"
    },
    {
      "inputs": [
        {
          "internalType": "string",
          "name": "",
          "type": "string"
        }
      ],
      "name": "nativeRewards",
      "outputs": [
        {
          "internalType": "uint256",
          "name": "",
          "type": "uint256"
        }
      ],
      "stateMutability": "view",
      "type": "function"
    },
    {
      "inputs": [],
      "name": "owner",
      "outputs": [
        {
          "internalType": "address",
          "name": "",
          "type": "address"
        }
      ],
      "stateMutability": "view",
      "type": "function"
    },
    {
      "inputs": [
        {
          "internalType": "uint256",
          "name": "tokenId",
          "type": "uint256"
        }
      ],
      "name": "ownerOf",
      "outputs": [
        {
          "internalType": "address",
          "name": "",
          "type": "address"
        }
      ],
      "stateMutability": "view",
      "type": "function"
    },
    {
      "inputs": [
        {
          "internalType": "string",
          "name": "",
          "type": "string"
        }
      ],
      "name": "pathwayMinted",
      "outputs": [
        {
          "internalType": "bool",
          "name": "",
          "type": "bool"
        }
      ],
      "stateMutability": "view",
      "type": "function"
    },
    {
      "inputs": [
        {
          "internalType": "string",
          "name": "",
          "type": "string"
        }
      ],
      "name": "projectIdforPathway",
      "outputs": [
        {
          "internalType": "string",
          "name": "",
          "type": "string"
        }
      ],
      "stateMutability": "view",
      "type": "function"
    },
    {
      "inputs": [],
      "name": "renounceOwnership",
      "outputs": [],
      "stateMutability": "nonpayable",
      "type": "function"
    },
    {
      "inputs": [
        {
          "internalType": "string",
          "name": "",
          "type": "string"
        },
        {
          "internalType": "address",
          "name": "",
          "type": "address"
        }
      ],
      "name": "reviewerVotes",
      "outputs": [
        {
          "internalType": "bool",
          "name": "",
          "type": "bool"
        }
      ],
      "stateMutability": "view",
      "type": "function"
    },
    {
      "inputs": [
        {
          "internalType": "address",
          "name": "from",
          "type": "address"
        },
        {
          "internalType": "address",
          "name": "to",
          "type": "address"
        },
        {
          "internalType": "uint256",
          "name": "tokenId",
          "type": "uint256"
        }
      ],
      "name": "safeTransferFrom",
      "outputs": [],
      "stateMutability": "nonpayable",
      "type": "function"
    },
    {
      "inputs": [
        {
          "internalType": "address",
          "name": "from",
          "type": "address"
        },
        {
          "internalType": "address",
          "name": "to",
          "type": "address"
        },
        {
          "internalType": "uint256",
          "name": "tokenId",
          "type": "uint256"
        },
        {
          "internalType": "bytes",
          "name": "_data",
          "type": "bytes"
        }
      ],
      "name": "safeTransferFrom",
      "outputs": [],
      "stateMutability": "nonpayable",
      "type": "function"
    },
    {
      "inputs": [
        {
          "internalType": "address",
          "name": "operator",
          "type": "address"
        },
        {
          "internalType": "bool",
          "name": "approved",
          "type": "bool"
        }
      ],
      "name": "setApprovalForAll",
      "outputs": [],
      "stateMutability": "nonpayable",
      "type": "function"
    },
    {
      "inputs": [
        {
          "internalType": "string",
          "name": "",
          "type": "string"
        }
      ],
      "name": "status",
      "outputs": [
        {
          "internalType": "enum PathwayNFT.PathwayStatus",
          "name": "",
          "type": "uint8"
        }
      ],
      "stateMutability": "view",
      "type": "function"
    },
    {
      "inputs": [
        {
          "internalType": "uint256",
          "name": "",
          "type": "uint256"
        }
      ],
      "name": "statusStrings",
      "outputs": [
        {
          "internalType": "string",
          "name": "",
          "type": "string"
        }
      ],
      "stateMutability": "view",
      "type": "function"
    },
    {
      "inputs": [
        {
          "internalType": "bytes4",
          "name": "interfaceId",
          "type": "bytes4"
        }
      ],
      "name": "supportsInterface",
      "outputs": [
        {
          "internalType": "bool",
          "name": "",
          "type": "bool"
        }
      ],
      "stateMutability": "view",
      "type": "function"
    },
    {
      "inputs": [],
      "name": "symbol",
      "outputs": [
        {
          "internalType": "string",
          "name": "",
          "type": "string"
        }
      ],
      "stateMutability": "view",
      "type": "function"
    },
    {
      "inputs": [
        {
          "internalType": "uint256",
          "name": "index",
          "type": "uint256"
        }
      ],
      "name": "tokenByIndex",
      "outputs": [
        {
          "internalType": "uint256",
          "name": "",
          "type": "uint256"
        }
      ],
      "stateMutability": "view",
      "type": "function"
    },
    {
      "inputs": [
        {
          "internalType": "address",
          "name": "owner",
          "type": "address"
        },
        {
          "internalType": "uint256",
          "name": "index",
          "type": "uint256"
        }
      ],
      "name": "tokenOfOwnerByIndex",
      "outputs": [
        {
          "internalType": "uint256",
          "name": "",
          "type": "uint256"
        }
      ],
      "stateMutability": "view",
      "type": "function"
    },
    {
      "inputs": [
        {
          "internalType": "uint256",
          "name": "tokenId",
          "type": "uint256"
        }
      ],
      "name": "tokenURI",
      "outputs": [
        {
          "internalType": "string",
          "name": "",
          "type": "string"
        }
      ],
      "stateMutability": "view",
      "type": "function"
    },
    {
      "inputs": [],
      "name": "totalSupply",
      "outputs": [
        {
          "internalType": "uint256",
          "name": "",
          "type": "uint256"
        }
      ],
      "stateMutability": "view",
      "type": "function"
    },
    {
      "inputs": [
        {
          "internalType": "address",
          "name": "from",
          "type": "address"
        },
        {
          "internalType": "address",
          "name": "to",
          "type": "address"
        },
        {
          "internalType": "uint256",
          "name": "tokenId",
          "type": "uint256"
        }
      ],
      "name": "transferFrom",
      "outputs": [],
      "stateMutability": "nonpayable",
      "type": "function"
    },
    {
      "inputs": [
        {
          "internalType": "address",
          "name": "newOwner",
          "type": "address"
        }
      ],
      "name": "transferOwnership",
      "outputs": [],
      "stateMutability": "nonpayable",
      "type": "function"
    },
    {
      "inputs": [
        {
          "internalType": "address[]",
          "name": "_contributors",
          "type": "address[]"
        },
        {
          "internalType": "string",
          "name": "_pathwayId",
          "type": "string"
        },
        {
          "internalType": "string",
          "name": "_projectId",
          "type": "string"
        },
        {
          "internalType": "bytes32[2]",
          "name": "r",
          "type": "bytes32[2]"
        },
        {
          "internalType": "bytes32[2]",
          "name": "s",
          "type": "bytes32[2]"
        },
        {
          "internalType": "uint8[2]",
          "name": "v",
          "type": "uint8[2]"
        },
        {
          "internalType": "uint256",
          "name": "votesNeeded",
          "type": "uint256"
        }
      ],
      "name": "voteForApproval",
      "outputs": [],
      "stateMutability": "nonpayable",
      "type": "function"
    },
    {
      "inputs": [
        {
          "internalType": "string",
          "name": "_pathwayId",
          "type": "string"
        },
        {
          "internalType": "string",
          "name": "_projectId",
          "type": "string"
        },
        {
          "internalType": "bytes32[2]",
          "name": "r",
          "type": "bytes32[2]"
        },
        {
          "internalType": "bytes32[2]",
          "name": "s",
          "type": "bytes32[2]"
        },
        {
          "internalType": "uint8[2]",
          "name": "v",
          "type": "uint8[2]"
        },
        {
          "internalType": "uint256",
          "name": "votesNeeded",
          "type": "uint256"
        }
      ],
      "name": "voteForRejection",
      "outputs": [],
      "stateMutability": "nonpayable",
      "type": "function"
    },
    {
      "inputs": [
        {
          "internalType": "string",
          "name": "",
          "type": "string"
        }
      ],
      "name": "votes",
      "outputs": [
        {
          "internalType": "uint256",
          "name": "",
          "type": "uint256"
        }
      ],
      "stateMutability": "view",
      "type": "function"
    },
    {
      "inputs": [
        {
          "internalType": "string",
          "name": "",
          "type": "string"
        }
      ],
      "name": "votesReject",
      "outputs": [
        {
          "internalType": "uint256",
          "name": "",
          "type": "uint256"
        }
      ],
      "stateMutability": "view",
      "type": "function"
    },
    {
      "inputs": [
        {
          "internalType": "address",
          "name": "_owner",
          "type": "address"
        }
      ],
      "name": "walletOfOwner",
      "outputs": [
        {
          "internalType": "uint256[]",
          "name": "",
          "type": "uint256[]"
        }
      ],
      "stateMutability": "view",
      "type": "function"
    },
    {
      "stateMutability": "payable",
      "type": "receive"
    }
  ],
  "transactionHash": "0xd78e36576f109b9d47a3132063146f5371bc8cd53e07b440ba6455fbe144982c",
  "args": [
    "0xE1616622133CAE2c59D1358218d427f1EeFb2e16",
    "0x242E4B38d65500aa40c84b19C9e1CB5160FC0230",
    "0x10e3aDcB6b2276d87a99857aaf80d0E779BDBe5E"
  ],
  "numDeployments": 3,
  "solcInputHash": "60d95d77d1127866465377513185c870",
  "bytecode": "0x60806040523480156200001157600080fd5b506040516200418a3803806200418a833981016040819052620000349162000384565b604080518082018252600d81526c64436f6d70617373426164676560981b6020808301918252835180850190945260068452652221a7a6a82160d11b9084015281519192916200008791600091620002c1565b5080516200009d906001906020840190620002c1565b505050620000ba620000b46200026b60201b60201c565b6200026f565b600d80546001600160a01b038086166001600160a01b031992831617909255600e8054848416908316179055600f80549285169290911691909117905560408051808201909152600b81526a1393d391561254d511539560aa1b60208083019182526000805260119052905162000153917f4ad3b33220dddc71b994a52d72c06b10862965f7d926534c05c00fb7e819e7b791620002c1565b5060408051808201909152600781526650454e44494e4760c81b60208083019182526001600052601190529051620001ad917f17bc176d2408558f6e4111feebc3cab4e16b63e967be91cde721f4c8a488b55291620002c1565b5060408051808201909152600681526511115392515160d21b6020808301918252600260005260119052905162000206917f08037d7b151cc412d25674a4e66b334d9ae9d2e5517a7feaae5cdb828bf1c62891620002c1565b506040805180820190915260088152671054141493d5915160c21b6020808301918252600360005260119052905162000261917f9bfbaa59f8e10e7868f8b402de9d605a390c45ddaebd8c9de3c6f31e733c87ff91620002c1565b505050506200040b565b3390565b600b80546001600160a01b038381166001600160a01b0319831681179093556040519116919082907f8be0079c531659141344cd1fd0a4f28419497f9722a3daafe3b4186f6b6457e090600090a35050565b828054620002cf90620003ce565b90600052602060002090601f016020900481019282620002f357600085556200033e565b82601f106200030e57805160ff19168380011785556200033e565b828001600101855582156200033e579182015b828111156200033e57825182559160200191906001019062000321565b506200034c92915062000350565b5090565b5b808211156200034c576000815560010162000351565b80516001600160a01b03811681146200037f57600080fd5b919050565b6000806000606084860312156200039a57600080fd5b620003a58462000367565b9250620003b56020850162000367565b9150620003c56040850162000367565b90509250925092565b600181811c90821680620003e357607f821691505b602082108114156200040557634e487b7160e01b600052602260045260246000fd5b50919050565b613d6f806200041b6000396000f3fe6080604052600436106101e75760003560e01c806368aa4dff11610102578063a22cb46511610095578063e8ca64f411610064578063e8ca64f414610651578063e985e9c514610699578063ebcb309a146106e2578063f2fde38b1461070257600080fd5b8063a22cb465146105b9578063b88d4fde146105d9578063b99ef1fa146105f9578063c87b56dd1461063157600080fd5b80638b11cf8a116100d15780638b11cf8a1461051b5780638da5cb5b1461053b57806395d89b41146105595780639e1b567c1461056e57600080fd5b806368aa4dff1461049b57806370a08231146104ae578063715018a6146104ce57806376032f0e146104e357600080fd5b80632f745c591161017a5780635398ba74116101495780635398ba74146103e85780636352211e146104235780636810b4cf1461044357806368929b5c1461046357600080fd5b80632f745c591461036857806342842e0e14610388578063438b6300146103a85780634f6ccce7146103c857600080fd5b8063095ea7b3116101b6578063095ea7b3146102da5780630d0654d9146102fc57806318160ddd1461032957806323b872dd1461034857600080fd5b806301ffc9a71461022b57806304dcd3001461026057806306fdde031461028d578063081812fc146102a257600080fd5b3661022657604080513381523460208201527f64c983f10188c30a885d77970aa5aae9a86e80ef9b459ad33cc620eb5999e070910160405180910390a1005b600080fd5b34801561023757600080fd5b5061024b61024636600461352e565b610722565b60405190151581526020015b60405180910390f35b34801561026c57600080fd5b5061028061027b366004613781565b610733565b604051610257919061395e565b34801561029957600080fd5b506102806107cd565b3480156102ae57600080fd5b506102c26102bd366004613781565b61085f565b6040516001600160a01b039091168152602001610257565b3480156102e657600080fd5b506102fa6102f53660046133a4565b6108ec565b005b34801561030857600080fd5b5061031c6103173660046136ed565b610a02565b60405161025791906138f2565b34801561033557600080fd5b506009545b604051908152602001610257565b34801561035457600080fd5b506102fa6103633660046132b6565b61112d565b34801561037457600080fd5b5061033a6103833660046133a4565b61115e565b34801561039457600080fd5b506102fa6103a33660046132b6565b6111f4565b3480156103b457600080fd5b5061031c6103c3366004613243565b61120f565b3480156103d457600080fd5b5061033a6103e3366004613781565b6112b0565b3480156103f457600080fd5b5061024b610403366004613568565b805160208183018101805160128252928201919093012091525460ff1681565b34801561042f57600080fd5b506102c261043e366004613781565b611343565b34801561044f57600080fd5b506102fa61045e36600461364b565b6113ba565b34801561046f57600080fd5b5061033a61047e366004613568565b805160208183018101805160188252928201919093012091525481565b6102fa6104a93660046135e2565b61172d565b3480156104ba57600080fd5b5061033a6104c9366004613243565b611ae2565b3480156104da57600080fd5b506102fa611b69565b3480156104ef57600080fd5b5061033a6104fe366004613568565b8051602081830181018051601a8252928201919093012091525481565b34801561052757600080fd5b50610280610536366004613568565b611bcf565b34801561054757600080fd5b50600b546001600160a01b03166102c2565b34801561056557600080fd5b50610280611bf3565b34801561057a57600080fd5b5061024b61058936600461359c565b81516020818401810180516019825292820194820194909420919093529091526000908152604090205460ff1681565b3480156105c557600080fd5b506102fa6105d4366004613376565b611c02565b3480156105e557600080fd5b506102fa6105f43660046132f7565b611c11565b34801561060557600080fd5b5061033a610614366004613568565b805160208183018101805160178252928201919093012091525481565b34801561063d57600080fd5b5061028061064c366004613781565b611c43565b34801561065d57600080fd5b5061068c61066c366004613568565b805160208183018101805160168252928201919093012091525460ff1681565b6040516102579190613936565b3480156106a557600080fd5b5061024b6106b436600461327d565b6001600160a01b03918216600090815260056020908152604080832093909416825291909152205460ff1690565b3480156106ee57600080fd5b506102fa6106fd3660046133d0565b611c4e565b34801561070e57600080fd5b506102fa61071d366004613243565b6121ff565b600061072d826122ca565b92915050565b6011602052600090815260409020805461074c90613c12565b80601f016020809104026020016040519081016040528092919081815260200182805461077890613c12565b80156107c55780601f1061079a576101008083540402835291602001916107c5565b820191906000526020600020905b8154815290600101906020018083116107a857829003601f168201915b505050505081565b6060600080546107dc90613c12565b80601f016020809104026020016040519081016040528092919081815260200182805461080890613c12565b80156108555780601f1061082a57610100808354040283529160200191610855565b820191906000526020600020905b81548152906001019060200180831161083857829003601f168201915b5050505050905090565b600061086a826122ef565b6108d05760405162461bcd60e51b815260206004820152602c60248201527f4552433732313a20617070726f76656420717565727920666f72206e6f6e657860448201526b34b9ba32b73a103a37b5b2b760a11b60648201526084015b60405180910390fd5b506000908152600460205260409020546001600160a01b031690565b60006108f782611343565b9050806001600160a01b0316836001600160a01b031614156109655760405162461bcd60e51b815260206004820152602160248201527f4552433732313a20617070726f76616c20746f2063757272656e74206f776e656044820152603960f91b60648201526084016108c7565b336001600160a01b0382161480610981575061098181336106b4565b6109f35760405162461bcd60e51b815260206004820152603860248201527f4552433732313a20617070726f76652063616c6c6572206973206e6f74206f7760448201527f6e6572206e6f7220617070726f76656420666f7220616c6c000000000000000060648201526084016108c7565b6109fd838361230c565b505050565b6060601287604051610a1491906137c6565b9081526040519081900360200190205460ff1615610a655760405162461bcd60e51b815260206004820152600e60248201526d185b1c9958591e481b5a5b9d195960921b60448201526064016108c7565b600e54855185518551604051630903288360e11b81526000946001600160a01b031693631206510693610aa49333938f938f939092909160040161384e565b602060405180830381600087803b158015610abe57600080fd5b505af1158015610ad2573d6000803e3d6000fd5b505050506040513d601f19601f82011682018060405250810190610af69190613511565b905080610b535760405162461bcd60e51b815260206004820152602560248201527f73656e646572206973206e6f7420617070726f7665642070726f6a656374206d60448201526434b73a32b960d91b60648201526084016108c7565b6001601689604051610b6591906137c6565b9081526040519081900360200190205460ff166003811115610b8957610b89613ca8565b1415610ce657601788604051610b9f91906137c6565b908152602001604051809103902054831115610bf05760405162461bcd60e51b815260206004820152601060248201526f6e6f7420656e6f75676820766f74657360801b60448201526064016108c7565b600e546020878101518782015191870151604051632336629f60e11b81526001600160a01b039094169363466cc53e93610c349333938f938b9391906004016138a6565b602060405180830381600087803b158015610c4e57600080fd5b505af1158015610c62573d6000803e3d6000fd5b505050506040513d601f19601f82011682018060405250810190610c869190613511565b905080610ca55760405162461bcd60e51b81526004016108c790613b14565b6003601689604051610cb791906137c6565b908152604051908190036020019020805460ff19166001836003811115610ce057610ce0613ca8565b02179055505b6003601689604051610cf891906137c6565b9081526040519081900360200190205460ff166003811115610d1c57610d1c613ca8565b14610d7f5760405162461bcd60e51b815260206004820152602d60248201527f63616e206f6e6c79206d696e7420666f7220706174687761797320696e20617060448201526c70726f7665642073746174757360981b60648201526084016108c7565b6010546040516060916001600160a01b0316907f65a35964691f73fd1604104300b719081f6abd939cb2fc62b713db949a3b240990610dc2908b9060240161395e565b60408051601f198184030181529181526020820180516001600160e01b03166001600160e01b0319909416939093179092529051610e0091906137c6565b6000604051808303816000865af19150503d8060008114610e3d576040519150601f19603f3d011682016040523d82523d6000602084013e610e42565b606091505b50909250905081610e5257600080fd5b600081806020019051810190610e689190613260565b90506001600160a01b03811615610f4557806001600160a01b03167f7c83c11f9ec76afed5429fa5830b7cc482416d05625066ce8f77199e2f5faaee8b604051602401610eb5919061395e565b60408051601f198184030181529181526020820180516001600160e01b03166001600160e01b0319909416939093179092529051610ef391906137c6565b6000604051808303816000865af19150503d8060008114610f30576040519150601f19603f3d011682016040523d82523d6000602084013e610f35565b606091505b50909350915082610f4557600080fd5b600060138b604051610f5791906137c6565b908152604051908190036020019020546001600160401b03811115610f7e57610f7e613cea565b604051908082528060200260200182016040528015610fa7578160200160208202803683370190505b5090506000805b60138d604051610fbe91906137c6565b908152604051908190036020019020548110156110e957610fe3600c80546001019055565b600c54915061103560138e604051610ffb91906137c6565b9081526020016040518091039020828154811061101a5761101a613cd4565b6000918252602090912001546001600160a01b03168361237a565b61103f828f6124b9565b8c60405161104d91906137c6565b60405180910390208e60405161106391906137c6565b604051809103902060138f60405161107b91906137c6565b9081526020016040518091039020838154811061109a5761109a613cd4565b60009182526020822001546040516001600160a01b03909116917f323af8e82495eba529e101c6ea8614b66233683ec49766c746a7203ba276185e91a4806110e181613c4d565b915050610fae565b50600160128d6040516110fc91906137c6565b908152604051908190036020019020805491151560ff19909216919091179055509350505050979650505050505050565b6111373382612544565b6111535760405162461bcd60e51b81526004016108c790613ac3565b6109fd83838361262e565b600061116983611ae2565b82106111cb5760405162461bcd60e51b815260206004820152602b60248201527f455243373231456e756d657261626c653a206f776e657220696e646578206f7560448201526a74206f6620626f756e647360a81b60648201526084016108c7565b506001600160a01b03919091166000908152600760209081526040808320938352929052205490565b6109fd83838360405180602001604052806000815250611c11565b6060600061121c83611ae2565b90506000816001600160401b0381111561123857611238613cea565b604051908082528060200260200182016040528015611261578160200160208202803683370190505b50905060005b828110156112a857611279858261115e565b82828151811061128b5761128b613cd4565b6020908102919091010152806112a081613c4d565b915050611267565b509392505050565b60006112bb60095490565b821061131e5760405162461bcd60e51b815260206004820152602c60248201527f455243373231456e756d657261626c653a20676c6f62616c20696e646578206f60448201526b7574206f6620626f756e647360a01b60648201526084016108c7565b6009828154811061133157611331613cd4565b90600052602060002001549050919050565b6000818152600260205260408120546001600160a01b03168061072d5760405162461bcd60e51b815260206004820152602960248201527f4552433732313a206f776e657220717565727920666f72206e6f6e657869737460448201526832b73a103a37b5b2b760b91b60648201526084016108c7565b60016016876040516113cc91906137c6565b9081526040519081900360200190205460ff1660038111156113f0576113f0613ca8565b146114335760405162461bcd60e51b815260206004820152601360248201527270617468776179206e6f742070656e64696e6760681b60448201526064016108c7565b60198660405161144391906137c6565b9081526020016040518091039020600061145a3390565b6001600160a01b0316815260208101919091526040016000205460ff16156114c45760405162461bcd60e51b815260206004820152601e60248201527f616c726561647920766f74656420666f7220746869732070617468776179000060448201526064016108c7565b600e54845184518451604051630903288360e11b81526000946001600160a01b0316936312065106936115039333938e938e939092909160040161384e565b602060405180830381600087803b15801561151d57600080fd5b505af1158015611531573d6000803e3d6000fd5b505050506040513d601f19601f820116820180604052508101906115559190613511565b9050806115745760405162461bcd60e51b81526004016108c790613a7f565b600e546020868101518682015191860151604051632336629f60e11b81526000946001600160a01b03169363466cc53e936115ba9333938f938b939290916004016138a6565b602060405180830381600087803b1580156115d457600080fd5b505af11580156115e8573d6000803e3d6000fd5b505050506040513d601f19601f8201168201806040525081019061160c9190613511565b90508061162b5760405162461bcd60e51b81526004016108c790613b14565b60188860405161163b91906137c6565b908152604051908190036020019020805490600061165883613c4d565b9190505550600160198960405161166f91906137c6565b908152602001604051809103902060006116863390565b6001600160a01b03166001600160a01b0316815260200190815260200160002060006101000a81548160ff021916908315150217905550826018896040516116ce91906137c6565b908152602001604051809103902054106117235760026016896040516116f491906137c6565b908152604051908190036020019020805460ff1916600183600381111561171d5761171d613ca8565b02179055505b5050505050505050565b600160168560405161173f91906137c6565b9081526040519081900360200190205460ff16600381111561176357611763613ca8565b146117a65760405162461bcd60e51b815260206004820152601360248201527270617468776179206e6f742070656e64696e6760681b60448201526064016108c7565b811561188c57803410156117ee5760405162461bcd60e51b815260206004820152600f60248201526e1b9bdd08195b9bdd59da081cd95b9d608a1b60448201526064016108c7565b34601a856040516117ff91906137c6565b9081526020016040518091039020600082825461181c9190613ba3565b909155505034811015611887576000336118368334613bcf565b604051600081818185875af1925050503d8060008114611872576040519150601f19603f3d011682016040523d82523d6000602084013e611877565b606091505b505090508061188557600080fd5b505b611adc565b6001600160a01b03831661189f57600080fd5b60105460405160009182916001600160a01b03909116907f11f69039648f0dd87bd7c96fa7501d8c9b90ae27f5d68bb2f9adfc6ae113637a906015906118e6908a906137c6565b9081526040519081900360200181206119059146908a90602401613971565b60408051601f198184030181529181526020820180516001600160e01b03166001600160e01b031990941693909317909252905161194391906137c6565b6000604051808303816000865af19150503d8060008114611980576040519150601f19603f3d011682016040523d82523d6000602084013e611985565b606091505b50915091508161199457600080fd5b808060200190518101906119a89190613511565b9150816119ec5760405162461bcd60e51b8152602060048201526012602482015271115490cc8c081b9bdd08185c1c1c9bdd995960721b60448201526064016108c7565b6001600160a01b0385166323b872dd336040516001600160e01b031960e084901b1681526001600160a01b03909116600482015230602482015260448101869052606401602060405180830381600087803b158015611a4a57600080fd5b505af1158015611a5e573d6000803e3d6000fd5b505050506040513d601f19601f82011682018060405250810190611a829190613511565b5082601b87604051611a9491906137c6565b90815260200160405180910390206000876001600160a01b03166001600160a01b031681526020019081526020016000206000828254611ad49190613ba3565b909155505050505b50505050565b60006001600160a01b038216611b4d5760405162461bcd60e51b815260206004820152602a60248201527f4552433732313a2062616c616e636520717565727920666f7220746865207a65604482015269726f206164647265737360b01b60648201526084016108c7565b506001600160a01b031660009081526003602052604090205490565b600b546001600160a01b03163314611bc35760405162461bcd60e51b815260206004820181905260248201527f4f776e61626c653a2063616c6c6572206973206e6f7420746865206f776e657260448201526064016108c7565b611bcd60006127d5565b565b80516020818301810180516015825292820191909301209152805461074c90613c12565b6060600180546107dc90613c12565b611c0d338383612827565b5050565b611c1b3383612544565b611c375760405162461bcd60e51b81526004016108c790613ac3565b611adc848484846128f6565b606061072d82612929565b6002601687604051611c6091906137c6565b9081526040519081900360200190205460ff166003811115611c8457611c84613ca8565b14158015611cc657506003601687604051611c9f91906137c6565b9081526040519081900360200190205460ff166003811115611cc357611cc3613ca8565b14155b611d065760405162461bcd60e51b815260206004820152601160248201527066696e616c697a6564207061746877617960781b60448201526064016108c7565b601986604051611d1691906137c6565b90815260200160405180910390206000611d2d3390565b6001600160a01b0316815260208101919091526040016000205460ff1615611d975760405162461bcd60e51b815260206004820152601e60248201527f616c726561647920766f74656420666f7220746869732070617468776179000060448201526064016108c7565b600e54845184518451604051630903288360e11b81526000946001600160a01b031693631206510693611dd69333938e938e939092909160040161384e565b602060405180830381600087803b158015611df057600080fd5b505af1158015611e04573d6000803e3d6000fd5b505050506040513d601f19601f82011682018060405250810190611e289190613511565b905080611e475760405162461bcd60e51b81526004016108c790613a7f565b600e546020868101518682015191860151604051632336629f60e11b81526000946001600160a01b03169363466cc53e93611e8d9333938f938b939290916004016138a6565b602060405180830381600087803b158015611ea757600080fd5b505af1158015611ebb573d6000803e3d6000fd5b505050506040513d601f19601f82011682018060405250810190611edf9190613511565b905080611efe5760405162461bcd60e51b81526004016108c790613b14565b601788604051611f0e91906137c6565b9081526040519081900360200190208054906000611f2b83613c4d565b91905055506001601989604051611f4291906137c6565b90815260200160405180910390206000611f593390565b6001600160a01b0316815260208101919091526040016000908120805460ff191692151592909217909155601689604051611f9491906137c6565b9081526040519081900360200190205460ff166003811115611fb857611fb8613ca8565b1415612150576000895111611ffd5760405162461bcd60e51b815260206004820152600b60248201526a656d70747920617272617960a81b60448201526064016108c7565b8860138960405161200e91906137c6565b9081526020016040518091039020908051906020019061202f92919061301d565b508660158960405161204191906137c6565b90815260200160405180910390209080519060200190612062929190613082565b5060178860405161207391906137c6565b908152602001604051809103902054831161210b57600360168960405161209a91906137c6565b908152604051908190036020019020805460ff191660018360038111156120c3576120c3613ca8565b0217905550876040516120d691906137c6565b604051908190038120907fcf525faa39dde00362f50602e2030eb0b110857c69ffaf3c69a504b41962bf0f90600090a26121f4565b600160168960405161211d91906137c6565b908152604051908190036020019020805460ff1916600183600381111561214657612146613ca8565b02179055506121f4565b8260178960405161216191906137c6565b908152602001604051809103902054106121f457600360168960405161218791906137c6565b908152604051908190036020019020805460ff191660018360038111156121b0576121b0613ca8565b0217905550876040516121c391906137c6565b604051908190038120907fcf525faa39dde00362f50602e2030eb0b110857c69ffaf3c69a504b41962bf0f90600090a25b505050505050505050565b600b546001600160a01b031633146122595760405162461bcd60e51b815260206004820181905260248201527f4f776e61626c653a2063616c6c6572206973206e6f7420746865206f776e657260448201526064016108c7565b6001600160a01b0381166122be5760405162461bcd60e51b815260206004820152602660248201527f4f776e61626c653a206e6577206f776e657220697320746865207a65726f206160448201526564647265737360d01b60648201526084016108c7565b6122c7816127d5565b50565b60006001600160e01b0319821663780e9d6360e01b148061072d575061072d82612a98565b6000908152600260205260409020546001600160a01b0316151590565b600081815260046020526040902080546001600160a01b0319166001600160a01b038416908117909155819061234182611343565b6001600160a01b03167f8c5be1e5ebec7d5bd14f71427d1e84f3dd0314c0f7b2291e5b200ac8c7c3b92560405160405180910390a45050565b6001600160a01b0382166123d05760405162461bcd60e51b815260206004820181905260248201527f4552433732313a206d696e7420746f20746865207a65726f206164647265737360448201526064016108c7565b6123d9816122ef565b156124265760405162461bcd60e51b815260206004820152601c60248201527f4552433732313a20746f6b656e20616c7265616479206d696e7465640000000060448201526064016108c7565b61243260008383612ae8565b6001600160a01b038216600090815260036020526040812080546001929061245b908490613ba3565b909155505060008181526002602052604080822080546001600160a01b0319166001600160a01b03861690811790915590518392907fddf252ad1be2c89b69c2b068fc378daa952ba7f163c4a11628f55a4df523b3ef908290a45050565b6124c2826122ef565b6125255760405162461bcd60e51b815260206004820152602e60248201527f45524337323155524953746f726167653a2055524920736574206f66206e6f6e60448201526d32bc34b9ba32b73a103a37b5b2b760911b60648201526084016108c7565b600082815260066020908152604090912082516109fd92840190613082565b600061254f826122ef565b6125b05760405162461bcd60e51b815260206004820152602c60248201527f4552433732313a206f70657261746f7220717565727920666f72206e6f6e657860448201526b34b9ba32b73a103a37b5b2b760a11b60648201526084016108c7565b60006125bb83611343565b9050806001600160a01b0316846001600160a01b031614806125f65750836001600160a01b03166125eb8461085f565b6001600160a01b0316145b8061262657506001600160a01b0380821660009081526005602090815260408083209388168352929052205460ff165b949350505050565b826001600160a01b031661264182611343565b6001600160a01b0316146126a55760405162461bcd60e51b815260206004820152602560248201527f4552433732313a207472616e736665722066726f6d20696e636f72726563742060448201526437bbb732b960d91b60648201526084016108c7565b6001600160a01b0382166127075760405162461bcd60e51b8152602060048201526024808201527f4552433732313a207472616e7366657220746f20746865207a65726f206164646044820152637265737360e01b60648201526084016108c7565b612712838383612ae8565b61271d60008261230c565b6001600160a01b0383166000908152600360205260408120805460019290612746908490613bcf565b90915550506001600160a01b0382166000908152600360205260408120805460019290612774908490613ba3565b909155505060008181526002602052604080822080546001600160a01b0319166001600160a01b0386811691821790925591518493918716917fddf252ad1be2c89b69c2b068fc378daa952ba7f163c4a11628f55a4df523b3ef91a4505050565b600b80546001600160a01b038381166001600160a01b0319831681179093556040519116919082907f8be0079c531659141344cd1fd0a4f28419497f9722a3daafe3b4186f6b6457e090600090a35050565b816001600160a01b0316836001600160a01b031614156128895760405162461bcd60e51b815260206004820152601960248201527f4552433732313a20617070726f766520746f2063616c6c65720000000000000060448201526064016108c7565b6001600160a01b03838116600081815260056020908152604080832094871680845294825291829020805460ff191686151590811790915591519182527f17307eab39ab6107e8899845ad3d59bd9653f200f220920489ca2b5937696c31910160405180910390a3505050565b61290184848461262e565b61290d84848484612af3565b611adc5760405162461bcd60e51b81526004016108c790613a2d565b6060612934826122ef565b61299a5760405162461bcd60e51b815260206004820152603160248201527f45524337323155524953746f726167653a2055524920717565727920666f72206044820152703737b732bc34b9ba32b73a103a37b5b2b760791b60648201526084016108c7565b600082815260066020526040812080546129b390613c12565b80601f01602080910402602001604051908101604052809291908181526020018280546129df90613c12565b8015612a2c5780601f10612a0157610100808354040283529160200191612a2c565b820191906000526020600020905b815481529060010190602001808311612a0f57829003601f168201915b505050505090506000612a4a60408051602081019091526000815290565b9050805160001415612a5d575092915050565b815115612a8f578082604051602001612a779291906137e2565b60405160208183030381529060405292505050919050565b61262684612c00565b60006001600160e01b031982166380ac58cd60e01b1480612ac957506001600160e01b03198216635b5e139f60e01b145b8061072d57506301ffc9a760e01b6001600160e01b031983161461072d565b6109fd838383612cd8565b60006001600160a01b0384163b15612bf557604051630a85bd0160e11b81526001600160a01b0385169063150b7a0290612b37903390899088908890600401613811565b602060405180830381600087803b158015612b5157600080fd5b505af1925050508015612b81575060408051601f3d908101601f19168201909252612b7e9181019061354b565b60015b612bdb573d808015612baf576040519150601f19603f3d011682016040523d82523d6000602084013e612bb4565b606091505b508051612bd35760405162461bcd60e51b81526004016108c790613a2d565b805181602001fd5b6001600160e01b031916630a85bd0160e11b149050612626565b506001949350505050565b6060612c0b826122ef565b612c6f5760405162461bcd60e51b815260206004820152602f60248201527f4552433732314d657461646174613a2055524920717565727920666f72206e6f60448201526e3732bc34b9ba32b73a103a37b5b2b760891b60648201526084016108c7565b6000612c8660408051602081019091526000815290565b90506000815111612ca65760405180602001604052806000815250612cd1565b80612cb084612d90565b604051602001612cc19291906137e2565b6040516020818303038152906040525b9392505050565b6001600160a01b038316612d3357612d2e81600980546000838152600a60205260408120829055600182018355919091527f6e1540171b6c0c960b71a7020d9f60077f6af931a8bbf590da0223dacf75c7af0155565b612d56565b816001600160a01b0316836001600160a01b031614612d5657612d568382612e8d565b6001600160a01b038216612d6d576109fd81612f2a565b826001600160a01b0316826001600160a01b0316146109fd576109fd8282612fd9565b606081612db45750506040805180820190915260018152600360fc1b602082015290565b8160005b8115612dde5780612dc881613c4d565b9150612dd79050600a83613bbb565b9150612db8565b6000816001600160401b03811115612df857612df8613cea565b6040519080825280601f01601f191660200182016040528015612e22576020820181803683370190505b5090505b841561262657612e37600183613bcf565b9150612e44600a86613c68565b612e4f906030613ba3565b60f81b818381518110612e6457612e64613cd4565b60200101906001600160f81b031916908160001a905350612e86600a86613bbb565b9450612e26565b60006001612e9a84611ae2565b612ea49190613bcf565b600083815260086020526040902054909150808214612ef7576001600160a01b03841660009081526007602090815260408083208584528252808320548484528184208190558352600890915290208190555b5060009182526008602090815260408084208490556001600160a01b039094168352600781528383209183525290812055565b600954600090612f3c90600190613bcf565b6000838152600a602052604081205460098054939450909284908110612f6457612f64613cd4565b906000526020600020015490508060098381548110612f8557612f85613cd4565b6000918252602080832090910192909255828152600a90915260408082208490558582528120556009805480612fbd57612fbd613cbe565b6001900381819060005260206000200160009055905550505050565b6000612fe483611ae2565b6001600160a01b039093166000908152600760209081526040808320868452825280832085905593825260089052919091209190915550565b828054828255906000526020600020908101928215613072579160200282015b8281111561307257825182546001600160a01b0319166001600160a01b0390911617825560209092019160019091019061303d565b5061307e9291506130f6565b5090565b82805461308e90613c12565b90600052602060002090601f0160209004810192826130b05760008555613072565b82601f106130c957805160ff1916838001178555613072565b82800160010185558215613072579182015b828111156130725782518255916020019190600101906130db565b5b8082111561307e57600081556001016130f7565b60006001600160401b0383111561312457613124613cea565b613137601f8401601f1916602001613b73565b905082815283838301111561314b57600080fd5b828260208301376000602084830101529392505050565b600082601f83011261317357600080fd5b61317b613b4b565b80838560408601111561318d57600080fd5b60005b60028110156131af578135845260209384019390910190600101613190565b509095945050505050565b600082601f8301126131cb57600080fd5b6131d3613b4b565b8083856040860111156131e557600080fd5b6000805b600281101561321757823560ff81168114613202578283fd5b855260209485019492909201916001016131e9565b50919695505050505050565b600082601f83011261323457600080fd5b612cd18383356020850161310b565b60006020828403121561325557600080fd5b8135612cd181613d00565b60006020828403121561327257600080fd5b8151612cd181613d00565b6000806040838503121561329057600080fd5b823561329b81613d00565b915060208301356132ab81613d00565b809150509250929050565b6000806000606084860312156132cb57600080fd5b83356132d681613d00565b925060208401356132e681613d00565b929592945050506040919091013590565b6000806000806080858703121561330d57600080fd5b843561331881613d00565b9350602085013561332881613d00565b92506040850135915060608501356001600160401b0381111561334a57600080fd5b8501601f8101871361335b57600080fd5b61336a8782356020840161310b565b91505092959194509250565b6000806040838503121561338957600080fd5b823561339481613d00565b915060208301356132ab81613d15565b600080604083850312156133b757600080fd5b82356133c281613d00565b946020939093013593505050565b6000806000806000806000610140888a0312156133ec57600080fd5b6001600160401b03808935111561340257600080fd5b883589018a601f82011261341557600080fd5b80358281111561342757613427613cea565b8060051b61343760208201613b73565b80838252602082019150602085018f602085880101111561345757600080fd5b600095505b848610156134855761346e8135613d00565b80358352600195909501946020928301920161345c565b509b5050505060208a013590508181111561349f57600080fd5b6134ab8b828c01613223565b9750506040890135818111156134c057600080fd5b6134cc8b828c01613223565b965050506134dd8960608a01613162565b93506134ec8960a08a01613162565b92506134fb8960e08a016131ba565b9150610120880135905092959891949750929550565b60006020828403121561352357600080fd5b8151612cd181613d15565b60006020828403121561354057600080fd5b8135612cd181613d23565b60006020828403121561355d57600080fd5b8151612cd181613d23565b60006020828403121561357a57600080fd5b81356001600160401b0381111561359057600080fd5b61262684828501613223565b600080604083850312156135af57600080fd5b82356001600160401b038111156135c557600080fd5b6135d185828601613223565b92505060208301356132ab81613d00565b600080600080608085870312156135f857600080fd5b84356001600160401b0381111561360e57600080fd5b61361a87828801613223565b945050602085013561362b81613d00565b9250604085013561363b81613d15565b9396929550929360600135925050565b600080600080600080610120878903121561366557600080fd5b86356001600160401b038082111561367c57600080fd5b6136888a838b01613223565b9750602089013591508082111561369e57600080fd5b506136ab89828a01613223565b9550506136bb8860408901613162565b93506136ca8860808901613162565b92506136d98860c089016131ba565b915061010087013590509295509295509295565b6000806000806000806000610140888a03121561370957600080fd5b87356001600160401b038082111561372057600080fd5b61372c8b838c01613223565b985060208a013591508082111561374257600080fd5b61374e8b838c01613223565b975060408a013591508082111561376457600080fd5b506137718a828b01613223565b9550506134dd8960608a01613162565b60006020828403121561379357600080fd5b5035919050565b600081518084526137b2816020860160208601613be6565b601f01601f19169290920160200192915050565b600082516137d8818460208701613be6565b9190910192915050565b600083516137f4818460208801613be6565b835190830190613808818360208801613be6565b01949350505050565b6001600160a01b03858116825284166020820152604081018390526080606082018190526000906138449083018461379a565b9695505050505050565b6001600160a01b038716815260c0602082018190526000906138729083018861379a565b8281036040840152613884818861379a565b60608401969096525050608081019290925260ff1660a0909101529392505050565b6001600160a01b038716815260c0602082018190526000906138ca9083018861379a565b905085604083015284606083015283608083015260ff831660a0830152979650505050505050565b6020808252825182820181905260009190848201906040850190845b8181101561392a5783518352928401929184019160010161390e565b50909695505050505050565b602081016004831061395857634e487b7160e01b600052602160045260246000fd5b91905290565b602081526000612cd1602083018461379a565b60608152600080855481600182811c91508083168061399157607f831692505b60208084108214156139b157634e487b7160e01b86526022600452602486fd5b60608801849052608088018280156139d057600181146139e157613a0c565b60ff19871682528282019750613a0c565b60008d81526020902060005b87811015613a06578154848201529086019084016139ed565b83019850505b505087018990525050506001600160a01b0385166040850152509050612626565b60208082526032908201527f4552433732313a207472616e7366657220746f206e6f6e20455243373231526560408201527131b2b4bb32b91034b6b83632b6b2b73a32b960711b606082015260800190565b60208082526024908201527f73656e646572206973206e6f7420617070726f7665642070726f6a656374207660408201526337ba32b960e11b606082015260800190565b60208082526031908201527f4552433732313a207472616e736665722063616c6c6572206973206e6f74206f6040820152701ddb995c881b9bdc88185c1c1c9bdd9959607a1b606082015260800190565b6020808252601b908201527f696e636f727265637420766f746573206e65656465642073656e740000000000604082015260600190565b604080519081016001600160401b0381118282101715613b6d57613b6d613cea565b60405290565b604051601f8201601f191681016001600160401b0381118282101715613b9b57613b9b613cea565b604052919050565b60008219821115613bb657613bb6613c7c565b500190565b600082613bca57613bca613c92565b500490565b600082821015613be157613be1613c7c565b500390565b60005b83811015613c01578181015183820152602001613be9565b83811115611adc5750506000910152565b600181811c90821680613c2657607f821691505b60208210811415613c4757634e487b7160e01b600052602260045260246000fd5b50919050565b6000600019821415613c6157613c61613c7c565b5060010190565b600082613c7757613c77613c92565b500690565b634e487b7160e01b600052601160045260246000fd5b634e487b7160e01b600052601260045260246000fd5b634e487b7160e01b600052602160045260246000fd5b634e487b7160e01b600052603160045260246000fd5b634e487b7160e01b600052603260045260246000fd5b634e487b7160e01b600052604160045260246000fd5b6001600160a01b03811681146122c757600080fd5b80151581146122c757600080fd5b6001600160e01b0319811681146122c757600080fdfea26469706673582212207a04ba7e6c6233863e0f98cd1bf6673904249744e2155d8aa552aca608039afa64736f6c63430008070033",
  "devdoc": {
    "kind": "dev",
    "methods": {
      "approve(address,uint256)": {
        "details": "See {IERC721-approve}."
      },
      "balanceOf(address)": {
        "details": "See {IERC721-balanceOf}."
      },
      "getApproved(uint256)": {
        "details": "See {IERC721-getApproved}."
      },
      "isApprovedForAll(address,address)": {
        "details": "See {IERC721-isApprovedForAll}."
      },
      "name()": {
        "details": "See {IERC721Metadata-name}."
      },
      "owner()": {
        "details": "Returns the address of the current owner."
      },
      "ownerOf(uint256)": {
        "details": "See {IERC721-ownerOf}."
      },
      "renounceOwnership()": {
        "details": "Leaves the contract without owner. It will not be possible to call `onlyOwner` functions anymore. Can only be called by the current owner. NOTE: Renouncing ownership will leave the contract without an owner, thereby removing any functionality that is only available to the owner."
      },
      "safeTransferFrom(address,address,uint256)": {
        "details": "See {IERC721-safeTransferFrom}."
      },
      "safeTransferFrom(address,address,uint256,bytes)": {
        "details": "See {IERC721-safeTransferFrom}."
      },
      "setApprovalForAll(address,bool)": {
        "details": "See {IERC721-setApprovalForAll}."
      },
      "symbol()": {
        "details": "See {IERC721Metadata-symbol}."
      },
      "tokenByIndex(uint256)": {
        "details": "See {IERC721Enumerable-tokenByIndex}."
      },
      "tokenOfOwnerByIndex(address,uint256)": {
        "details": "See {IERC721Enumerable-tokenOfOwnerByIndex}."
      },
      "totalSupply()": {
        "details": "See {IERC721Enumerable-totalSupply}."
      },
      "transferFrom(address,address,uint256)": {
        "details": "See {IERC721-transferFrom}."
      },
      "transferOwnership(address)": {
        "details": "Transfers ownership of the contract to a new account (`newOwner`). Can only be called by the current owner."
      }
    },
    "version": 1
  },
  "userdoc": {
    "kind": "user",
    "methods": {},
    "version": 1
  },
  "storageLayout": {
    "storage": [
      {
        "astId": 1748,
        "contract": "contracts/PathwayNFT.sol:PathwayNFT",
        "label": "_name",
        "offset": 0,
        "slot": "0",
        "type": "t_string_storage"
      },
      {
        "astId": 1750,
        "contract": "contracts/PathwayNFT.sol:PathwayNFT",
        "label": "_symbol",
        "offset": 0,
        "slot": "1",
        "type": "t_string_storage"
      },
      {
        "astId": 1754,
        "contract": "contracts/PathwayNFT.sol:PathwayNFT",
        "label": "_owners",
        "offset": 0,
        "slot": "2",
        "type": "t_mapping(t_uint256,t_address)"
      },
      {
        "astId": 1758,
        "contract": "contracts/PathwayNFT.sol:PathwayNFT",
        "label": "_balances",
        "offset": 0,
        "slot": "3",
        "type": "t_mapping(t_address,t_uint256)"
      },
      {
        "astId": 1762,
        "contract": "contracts/PathwayNFT.sol:PathwayNFT",
        "label": "_tokenApprovals",
        "offset": 0,
        "slot": "4",
        "type": "t_mapping(t_uint256,t_address)"
      },
      {
        "astId": 1768,
        "contract": "contracts/PathwayNFT.sol:PathwayNFT",
        "label": "_operatorApprovals",
        "offset": 0,
        "slot": "5",
        "type": "t_mapping(t_address,t_mapping(t_address,t_bool))"
      },
      {
        "astId": 3073,
        "contract": "contracts/PathwayNFT.sol:PathwayNFT",
        "label": "_tokenURIs",
        "offset": 0,
        "slot": "6",
        "type": "t_mapping(t_uint256,t_string_storage)"
      },
      {
        "astId": 2737,
        "contract": "contracts/PathwayNFT.sol:PathwayNFT",
        "label": "_ownedTokens",
        "offset": 0,
        "slot": "7",
        "type": "t_mapping(t_address,t_mapping(t_uint256,t_uint256))"
      },
      {
        "astId": 2741,
        "contract": "contracts/PathwayNFT.sol:PathwayNFT",
        "label": "_ownedTokensIndex",
        "offset": 0,
        "slot": "8",
        "type": "t_mapping(t_uint256,t_uint256)"
      },
      {
        "astId": 2744,
        "contract": "contracts/PathwayNFT.sol:PathwayNFT",
        "label": "_allTokens",
        "offset": 0,
        "slot": "9",
        "type": "t_array(t_uint256)dyn_storage"
      },
      {
        "astId": 2748,
        "contract": "contracts/PathwayNFT.sol:PathwayNFT",
        "label": "_allTokensIndex",
        "offset": 0,
        "slot": "10",
        "type": "t_mapping(t_uint256,t_uint256)"
      },
      {
        "astId": 273,
        "contract": "contracts/PathwayNFT.sol:PathwayNFT",
        "label": "_owner",
        "offset": 0,
        "slot": "11",
        "type": "t_address"
      },
      {
        "astId": 5123,
        "contract": "contracts/PathwayNFT.sol:PathwayNFT",
        "label": "_tokenIds",
        "offset": 0,
        "slot": "12",
        "type": "t_struct(Counter)3569_storage"
      },
      {
        "astId": 5126,
        "contract": "contracts/PathwayNFT.sol:PathwayNFT",
        "label": "vrfContract",
        "offset": 0,
        "slot": "13",
        "type": "t_contract(RandomNumberConsumer)8252"
      },
      {
        "astId": 5129,
        "contract": "contracts/PathwayNFT.sol:PathwayNFT",
        "label": "verifyContract",
        "offset": 0,
        "slot": "14",
        "type": "t_contract(Verify)8948"
      },
      {
        "astId": 5131,
        "contract": "contracts/PathwayNFT.sol:PathwayNFT",
        "label": "projectNFTAddress",
        "offset": 0,
        "slot": "15",
        "type": "t_address"
      },
      {
        "astId": 5133,
        "contract": "contracts/PathwayNFT.sol:PathwayNFT",
        "label": "appDiamond",
        "offset": 0,
        "slot": "16",
        "type": "t_address"
      },
      {
        "astId": 5137,
        "contract": "contracts/PathwayNFT.sol:PathwayNFT",
        "label": "statusStrings",
        "offset": 0,
        "slot": "17",
        "type": "t_mapping(t_uint256,t_string_storage)"
      },
      {
        "astId": 5141,
        "contract": "contracts/PathwayNFT.sol:PathwayNFT",
        "label": "pathwayMinted",
        "offset": 0,
        "slot": "18",
        "type": "t_mapping(t_string_memory_ptr,t_bool)"
      },
      {
        "astId": 5146,
        "contract": "contracts/PathwayNFT.sol:PathwayNFT",
        "label": "contributors",
        "offset": 0,
        "slot": "19",
        "type": "t_mapping(t_string_memory_ptr,t_array(t_address)dyn_storage)"
      },
      {
        "astId": 5149,
        "contract": "contracts/PathwayNFT.sol:PathwayNFT",
        "label": "rarityThresholds",
        "offset": 0,
        "slot": "20",
        "type": "t_array(t_uint8)dyn_storage"
      },
      {
        "astId": 5153,
        "contract": "contracts/PathwayNFT.sol:PathwayNFT",
        "label": "projectIdforPathway",
        "offset": 0,
        "slot": "21",
        "type": "t_mapping(t_string_memory_ptr,t_string_storage)"
      },
      {
        "astId": 5158,
        "contract": "contracts/PathwayNFT.sol:PathwayNFT",
        "label": "status",
        "offset": 0,
        "slot": "22",
        "type": "t_mapping(t_string_memory_ptr,t_enum(PathwayStatus)5187)"
      },
      {
        "astId": 5162,
        "contract": "contracts/PathwayNFT.sol:PathwayNFT",
        "label": "votes",
        "offset": 0,
        "slot": "23",
        "type": "t_mapping(t_string_memory_ptr,t_uint256)"
      },
      {
        "astId": 5166,
        "contract": "contracts/PathwayNFT.sol:PathwayNFT",
        "label": "votesReject",
        "offset": 0,
        "slot": "24",
        "type": "t_mapping(t_string_memory_ptr,t_uint256)"
      },
      {
        "astId": 5172,
        "contract": "contracts/PathwayNFT.sol:PathwayNFT",
        "label": "reviewerVotes",
        "offset": 0,
        "slot": "25",
        "type": "t_mapping(t_string_memory_ptr,t_mapping(t_address,t_bool))"
      },
      {
        "astId": 5176,
        "contract": "contracts/PathwayNFT.sol:PathwayNFT",
        "label": "nativeRewards",
        "offset": 0,
        "slot": "26",
        "type": "t_mapping(t_string_memory_ptr,t_uint256)"
      },
      {
        "astId": 5182,
        "contract": "contracts/PathwayNFT.sol:PathwayNFT",
        "label": "erc20Amounts",
        "offset": 0,
        "slot": "27",
        "type": "t_mapping(t_string_memory_ptr,t_mapping(t_address,t_uint256))"
      }
    ],
    "types": {
      "t_address": {
        "encoding": "inplace",
        "label": "address",
        "numberOfBytes": "20"
      },
      "t_array(t_address)dyn_storage": {
        "base": "t_address",
        "encoding": "dynamic_array",
        "label": "address[]",
        "numberOfBytes": "32"
      },
      "t_array(t_uint256)dyn_storage": {
        "base": "t_uint256",
        "encoding": "dynamic_array",
        "label": "uint256[]",
        "numberOfBytes": "32"
      },
      "t_array(t_uint8)dyn_storage": {
        "base": "t_uint8",
        "encoding": "dynamic_array",
        "label": "uint8[]",
        "numberOfBytes": "32"
      },
      "t_bool": {
        "encoding": "inplace",
        "label": "bool",
        "numberOfBytes": "1"
      },
      "t_contract(RandomNumberConsumer)8252": {
        "encoding": "inplace",
        "label": "contract RandomNumberConsumer",
        "numberOfBytes": "20"
      },
      "t_contract(Verify)8948": {
        "encoding": "inplace",
        "label": "contract Verify",
        "numberOfBytes": "20"
      },
      "t_enum(PathwayStatus)5187": {
        "encoding": "inplace",
        "label": "enum PathwayNFT.PathwayStatus",
        "numberOfBytes": "1"
      },
      "t_mapping(t_address,t_bool)": {
        "encoding": "mapping",
        "key": "t_address",
        "label": "mapping(address => bool)",
        "numberOfBytes": "32",
        "value": "t_bool"
      },
      "t_mapping(t_address,t_mapping(t_address,t_bool))": {
        "encoding": "mapping",
        "key": "t_address",
        "label": "mapping(address => mapping(address => bool))",
        "numberOfBytes": "32",
        "value": "t_mapping(t_address,t_bool)"
      },
      "t_mapping(t_address,t_mapping(t_uint256,t_uint256))": {
        "encoding": "mapping",
        "key": "t_address",
        "label": "mapping(address => mapping(uint256 => uint256))",
        "numberOfBytes": "32",
        "value": "t_mapping(t_uint256,t_uint256)"
      },
      "t_mapping(t_address,t_uint256)": {
        "encoding": "mapping",
        "key": "t_address",
        "label": "mapping(address => uint256)",
        "numberOfBytes": "32",
        "value": "t_uint256"
      },
      "t_mapping(t_string_memory_ptr,t_array(t_address)dyn_storage)": {
        "encoding": "mapping",
        "key": "t_string_memory_ptr",
        "label": "mapping(string => address[])",
        "numberOfBytes": "32",
        "value": "t_array(t_address)dyn_storage"
      },
      "t_mapping(t_string_memory_ptr,t_bool)": {
        "encoding": "mapping",
        "key": "t_string_memory_ptr",
        "label": "mapping(string => bool)",
        "numberOfBytes": "32",
        "value": "t_bool"
      },
      "t_mapping(t_string_memory_ptr,t_enum(PathwayStatus)5187)": {
        "encoding": "mapping",
        "key": "t_string_memory_ptr",
        "label": "mapping(string => enum PathwayNFT.PathwayStatus)",
        "numberOfBytes": "32",
        "value": "t_enum(PathwayStatus)5187"
      },
      "t_mapping(t_string_memory_ptr,t_mapping(t_address,t_bool))": {
        "encoding": "mapping",
        "key": "t_string_memory_ptr",
        "label": "mapping(string => mapping(address => bool))",
        "numberOfBytes": "32",
        "value": "t_mapping(t_address,t_bool)"
      },
      "t_mapping(t_string_memory_ptr,t_mapping(t_address,t_uint256))": {
        "encoding": "mapping",
        "key": "t_string_memory_ptr",
        "label": "mapping(string => mapping(address => uint256))",
        "numberOfBytes": "32",
        "value": "t_mapping(t_address,t_uint256)"
      },
      "t_mapping(t_string_memory_ptr,t_string_storage)": {
        "encoding": "mapping",
        "key": "t_string_memory_ptr",
        "label": "mapping(string => string)",
        "numberOfBytes": "32",
        "value": "t_string_storage"
      },
      "t_mapping(t_string_memory_ptr,t_uint256)": {
        "encoding": "mapping",
        "key": "t_string_memory_ptr",
        "label": "mapping(string => uint256)",
        "numberOfBytes": "32",
        "value": "t_uint256"
      },
      "t_mapping(t_uint256,t_address)": {
        "encoding": "mapping",
        "key": "t_uint256",
        "label": "mapping(uint256 => address)",
        "numberOfBytes": "32",
        "value": "t_address"
      },
      "t_mapping(t_uint256,t_string_storage)": {
        "encoding": "mapping",
        "key": "t_uint256",
        "label": "mapping(uint256 => string)",
        "numberOfBytes": "32",
        "value": "t_string_storage"
      },
      "t_mapping(t_uint256,t_uint256)": {
        "encoding": "mapping",
        "key": "t_uint256",
        "label": "mapping(uint256 => uint256)",
        "numberOfBytes": "32",
        "value": "t_uint256"
      },
      "t_string_memory_ptr": {
        "encoding": "bytes",
        "label": "string",
        "numberOfBytes": "32"
      },
      "t_string_storage": {
        "encoding": "bytes",
        "label": "string",
        "numberOfBytes": "32"
      },
      "t_struct(Counter)3569_storage": {
        "encoding": "inplace",
        "label": "struct Counters.Counter",
        "members": [
          {
            "astId": 3568,
            "contract": "contracts/PathwayNFT.sol:PathwayNFT",
            "label": "_value",
            "offset": 0,
            "slot": "0",
            "type": "t_uint256"
          }
        ],
        "numberOfBytes": "32"
      },
      "t_uint256": {
        "encoding": "inplace",
        "label": "uint256",
        "numberOfBytes": "32"
      },
      "t_uint8": {
        "encoding": "inplace",
        "label": "uint8",
        "numberOfBytes": "1"
      }
    }
  }
}