{
  "address": "0x1A0Dc4C2973B40B15e873a0EAf9eD5762C9e8Ca4",
  "abi": [
    {
      "inputs": [
        {
          "internalType": "address",
          "name": "_vrfAddress",
          "type": "address"
        },
        {
          "internalType": "address",
          "name": "_projectNFTAddress",
          "type": "address"
        },
        {
          "internalType": "address",
          "name": "_verifyAddress",
          "type": "address"
        }
      ],
      "stateMutability": "nonpayable",
      "type": "constructor"
    },
    {
      "anonymous": false,
      "inputs": [
        {
          "indexed": true,
          "internalType": "address",
          "name": "owner",
          "type": "address"
        },
        {
          "indexed": true,
          "internalType": "address",
          "name": "approved",
          "type": "address"
        },
        {
          "indexed": true,
          "internalType": "uint256",
          "name": "tokenId",
          "type": "uint256"
        }
      ],
      "name": "Approval",
      "type": "event"
    },
    {
      "anonymous": false,
      "inputs": [
        {
          "indexed": true,
          "internalType": "address",
          "name": "owner",
          "type": "address"
        },
        {
          "indexed": true,
          "internalType": "address",
          "name": "operator",
          "type": "address"
        },
        {
          "indexed": false,
          "internalType": "bool",
          "name": "approved",
          "type": "bool"
        }
      ],
      "name": "ApprovalForAll",
      "type": "event"
    },
    {
      "anonymous": false,
      "inputs": [
        {
          "indexed": true,
          "internalType": "address",
          "name": "_to",
          "type": "address"
        },
        {
          "indexed": true,
          "internalType": "string",
          "name": "_tokenURI",
          "type": "string"
        },
        {
          "indexed": true,
          "internalType": "string",
          "name": "_badgeId",
          "type": "string"
        }
      ],
      "name": "NFTPathwayMinted",
      "type": "event"
    },
    {
      "anonymous": false,
      "inputs": [
        {
          "indexed": true,
          "internalType": "address",
          "name": "previousOwner",
          "type": "address"
        },
        {
          "indexed": true,
          "internalType": "address",
          "name": "newOwner",
          "type": "address"
        }
      ],
      "name": "OwnershipTransferred",
      "type": "event"
    },
    {
      "anonymous": false,
      "inputs": [
        {
          "indexed": true,
          "internalType": "string",
          "name": "_pathwayId",
          "type": "string"
        }
      ],
      "name": "PathwayApproved",
      "type": "event"
    },
    {
      "anonymous": false,
      "inputs": [
        {
          "indexed": false,
          "internalType": "address",
          "name": "_caller",
          "type": "address"
        },
        {
          "indexed": false,
          "internalType": "uint256",
          "name": "_value",
          "type": "uint256"
        }
      ],
      "name": "ReceiveCalled",
      "type": "event"
    },
    {
      "anonymous": false,
      "inputs": [
        {
          "indexed": true,
          "internalType": "address",
          "name": "from",
          "type": "address"
        },
        {
          "indexed": true,
          "internalType": "address",
          "name": "to",
          "type": "address"
        },
        {
          "indexed": true,
          "internalType": "uint256",
          "name": "tokenId",
          "type": "uint256"
        }
      ],
      "name": "Transfer",
      "type": "event"
    },
    {
      "inputs": [
        {
          "internalType": "string",
          "name": "_pathwayId",
          "type": "string"
        },
        {
          "internalType": "address",
          "name": "_ERC20Address",
          "type": "address"
        },
        {
          "internalType": "bool",
          "name": "useNative",
          "type": "bool"
        },
        {
          "internalType": "uint256",
          "name": "amount",
          "type": "uint256"
        }
      ],
      "name": "addPathwayCreationReward",
      "outputs": [],
      "stateMutability": "payable",
      "type": "function"
    },
    {
      "inputs": [
        {
          "internalType": "string",
          "name": "",
          "type": "string"
        }
      ],
      "name": "adventurerAddress",
      "outputs": [
        {
          "internalType": "address",
          "name": "",
          "type": "address"
        }
      ],
      "stateMutability": "view",
      "type": "function"
    },
    {
      "inputs": [
        {
          "internalType": "address",
          "name": "to",
          "type": "address"
        },
        {
          "internalType": "uint256",
          "name": "tokenId",
          "type": "uint256"
        }
      ],
      "name": "approve",
      "outputs": [],
      "stateMutability": "nonpayable",
      "type": "function"
    },
    {
      "inputs": [
        {
          "internalType": "address",
          "name": "owner",
          "type": "address"
        }
      ],
      "name": "balanceOf",
      "outputs": [
        {
          "internalType": "uint256",
          "name": "",
          "type": "uint256"
        }
      ],
      "stateMutability": "view",
      "type": "function"
    },
    {
      "inputs": [
        {
          "internalType": "string",
          "name": "_pathwayId",
          "type": "string"
        },
        {
          "internalType": "bool",
          "name": "native",
          "type": "bool"
        },
        {
          "internalType": "address",
          "name": "_ERC20Address",
          "type": "address"
        },
        {
          "internalType": "bytes32",
          "name": "r",
          "type": "bytes32"
        },
        {
          "internalType": "bytes32",
          "name": "s",
          "type": "bytes32"
        },
        {
          "internalType": "uint8",
          "name": "v",
          "type": "uint8"
        },
        {
          "internalType": "bool",
          "name": "claimReward",
          "type": "bool"
        },
        {
          "internalType": "string",
          "name": "_tokenURI",
          "type": "string"
        },
        {
          "internalType": "uint256",
          "name": "version",
          "type": "uint256"
        }
      ],
      "name": "claimPathwayRewards",
      "outputs": [],
      "stateMutability": "nonpayable",
      "type": "function"
    },
    {
      "inputs": [
        {
          "internalType": "string",
          "name": "_pathwayId",
          "type": "string"
        },
        {
          "internalType": "bool",
          "name": "native",
          "type": "bool"
        },
        {
          "internalType": "address",
          "name": "_ERC20Address",
          "type": "address"
        }
      ],
      "name": "claimRejectionRefund",
      "outputs": [],
      "stateMutability": "nonpayable",
      "type": "function"
    },
    {
      "inputs": [
        {
          "internalType": "string",
          "name": "_pathwayId",
          "type": "string"
        },
        {
          "internalType": "string",
          "name": "_projectId",
          "type": "string"
        },
        {
          "internalType": "uint256",
          "name": "numUsersRewarded",
          "type": "uint256"
        },
        {
          "internalType": "bool",
          "name": "callRewards",
          "type": "bool"
        },
        {
          "internalType": "address",
          "name": "_ERC20Address",
          "type": "address"
        },
        {
          "internalType": "bool",
          "name": "useNative",
          "type": "bool"
        },
        {
          "internalType": "uint256",
          "name": "amount",
          "type": "uint256"
        }
      ],
      "name": "createPathway",
      "outputs": [],
      "stateMutability": "payable",
      "type": "function"
    },
    {
      "inputs": [
        {
          "internalType": "string",
          "name": "_tokenURI",
          "type": "string"
        },
        {
          "internalType": "string",
          "name": "_pathwayId",
          "type": "string"
        },
        {
          "internalType": "string",
          "name": "_projectId",
          "type": "string"
        },
        {
          "internalType": "bytes32[2]",
          "name": "r",
          "type": "bytes32[2]"
        },
        {
          "internalType": "bytes32[2]",
          "name": "s",
          "type": "bytes32[2]"
        },
        {
          "internalType": "uint8[2]",
          "name": "v",
          "type": "uint8[2]"
        },
        {
          "internalType": "uint256",
          "name": "votesNeeded",
          "type": "uint256"
        }
      ],
      "name": "createToken",
      "outputs": [
        {
          "internalType": "uint256[]",
          "name": "",
          "type": "uint256[]"
        }
      ],
      "stateMutability": "nonpayable",
      "type": "function"
    },
    {
      "inputs": [
        {
          "internalType": "string",
          "name": "",
          "type": "string"
        },
        {
          "internalType": "address",
          "name": "",
          "type": "address"
        }
      ],
      "name": "currentNumUsersRewardPerPathwayERC20",
      "outputs": [
        {
          "internalType": "uint256",
          "name": "",
          "type": "uint256"
        }
      ],
      "stateMutability": "view",
      "type": "function"
    },
    {
      "inputs": [
        {
          "internalType": "string",
          "name": "",
          "type": "string"
        }
      ],
      "name": "currentNumUsersRewardPerPathwayNative",
      "outputs": [
        {
          "internalType": "uint256",
          "name": "",
          "type": "uint256"
        }
      ],
      "stateMutability": "view",
      "type": "function"
    },
    {
      "inputs": [],
      "name": "fee",
      "outputs": [
        {
          "internalType": "uint256",
          "name": "",
          "type": "uint256"
        }
      ],
      "stateMutability": "view",
      "type": "function"
    },
    {
      "inputs": [
        {
          "internalType": "string",
          "name": "_pathwayId",
          "type": "string"
        },
        {
          "internalType": "uint256",
          "name": "version",
          "type": "uint256"
        }
      ],
      "name": "getAllAddrsByPathwayIDVersion",
      "outputs": [
        {
          "internalType": "address[]",
          "name": "",
          "type": "address[]"
        }
      ],
      "stateMutability": "view",
      "type": "function"
    },
    {
      "inputs": [
        {
          "internalType": "string",
          "name": "_pathwayId",
          "type": "string"
        },
        {
          "internalType": "uint256",
          "name": "version",
          "type": "uint256"
        }
      ],
      "name": "getAllTokenIdsByPathwayIDVersion",
      "outputs": [
        {
          "internalType": "uint256[]",
          "name": "",
          "type": "uint256[]"
        }
      ],
      "stateMutability": "view",
      "type": "function"
    },
    {
      "inputs": [],
      "name": "getAppDiamond",
      "outputs": [
        {
          "internalType": "address",
          "name": "",
          "type": "address"
        }
      ],
      "stateMutability": "view",
      "type": "function"
    },
    {
      "inputs": [
        {
          "internalType": "uint256",
          "name": "tokenId",
          "type": "uint256"
        }
      ],
      "name": "getApproved",
      "outputs": [
        {
          "internalType": "address",
          "name": "",
          "type": "address"
        }
      ],
      "stateMutability": "view",
      "type": "function"
    },
    {
      "inputs": [
        {
          "internalType": "string",
          "name": "_pathwayId",
          "type": "string"
        }
      ],
      "name": "getContributors",
      "outputs": [
        {
          "internalType": "address[]",
          "name": "",
          "type": "address[]"
        }
      ],
      "stateMutability": "view",
      "type": "function"
    },
    {
      "inputs": [
        {
          "internalType": "address",
          "name": "adventurer",
          "type": "address"
        }
      ],
      "name": "getVersionsAndPathwayIDsByAdventurer",
      "outputs": [
        {
          "internalType": "uint256[]",
          "name": "versions",
          "type": "uint256[]"
        },
        {
          "internalType": "string",
          "name": "concatPathwayIds",
          "type": "string"
        }
      ],
      "stateMutability": "view",
      "type": "function"
    },
    {
      "inputs": [
        {
          "internalType": "address",
          "name": "owner",
          "type": "address"
        },
        {
          "internalType": "address",
          "name": "operator",
          "type": "address"
        }
      ],
      "name": "isApprovedForAll",
      "outputs": [
        {
          "internalType": "bool",
          "name": "",
          "type": "bool"
        }
      ],
      "stateMutability": "view",
      "type": "function"
    },
    {
      "inputs": [],
      "name": "name",
      "outputs": [
        {
          "internalType": "string",
          "name": "",
          "type": "string"
        }
      ],
      "stateMutability": "view",
      "type": "function"
    },
    {
      "inputs": [
        {
          "internalType": "string",
          "name": "",
          "type": "string"
        }
      ],
      "name": "nativeRefundClaimed",
      "outputs": [
        {
          "internalType": "bool",
          "name": "",
          "type": "bool"
        }
      ],
      "stateMutability": "view",
      "type": "function"
    },
    {
      "inputs": [
        {
          "internalType": "string",
          "name": "",
          "type": "string"
        }
      ],
      "name": "nativeRewards",
      "outputs": [
        {
          "internalType": "uint256",
          "name": "",
          "type": "uint256"
        }
      ],
      "stateMutability": "view",
      "type": "function"
    },
    {
      "inputs": [
        {
          "internalType": "string",
          "name": "",
          "type": "string"
        },
        {
          "internalType": "address",
          "name": "",
          "type": "address"
        }
      ],
      "name": "nonces",
      "outputs": [
        {
          "internalType": "uint256",
          "name": "",
          "type": "uint256"
        }
      ],
      "stateMutability": "view",
      "type": "function"
    },
    {
      "inputs": [
        {
          "internalType": "string",
          "name": "",
          "type": "string"
        }
      ],
      "name": "numUsersRewardPerPathway",
      "outputs": [
        {
          "internalType": "uint256",
          "name": "",
          "type": "uint256"
        }
      ],
      "stateMutability": "view",
      "type": "function"
    },
    {
      "inputs": [],
      "name": "owner",
      "outputs": [
        {
          "internalType": "address",
          "name": "",
          "type": "address"
        }
      ],
      "stateMutability": "view",
      "type": "function"
    },
    {
      "inputs": [
        {
          "internalType": "uint256",
          "name": "tokenId",
          "type": "uint256"
        }
      ],
      "name": "ownerOf",
      "outputs": [
        {
          "internalType": "address",
          "name": "",
          "type": "address"
        }
      ],
      "stateMutability": "view",
      "type": "function"
    },
    {
      "inputs": [
        {
          "internalType": "string",
          "name": "",
          "type": "string"
        }
      ],
      "name": "pathwayMinted",
      "outputs": [
        {
          "internalType": "bool",
          "name": "",
          "type": "bool"
        }
      ],
      "stateMutability": "view",
      "type": "function"
    },
    {
      "inputs": [
        {
          "internalType": "string",
          "name": "",
          "type": "string"
        }
      ],
      "name": "projectIdforPathway",
      "outputs": [
        {
          "internalType": "string",
          "name": "",
          "type": "string"
        }
      ],
      "stateMutability": "view",
      "type": "function"
    },
    {
      "inputs": [],
      "name": "renounceOwnership",
      "outputs": [],
      "stateMutability": "nonpayable",
      "type": "function"
    },
    {
      "inputs": [
        {
          "internalType": "string",
          "name": "",
          "type": "string"
        },
        {
          "internalType": "address",
          "name": "",
          "type": "address"
        }
      ],
      "name": "reviewerVotes",
      "outputs": [
        {
          "internalType": "bool",
          "name": "",
          "type": "bool"
        }
      ],
      "stateMutability": "view",
      "type": "function"
    },
    {
      "inputs": [
        {
          "internalType": "address",
          "name": "from",
          "type": "address"
        },
        {
          "internalType": "address",
          "name": "to",
          "type": "address"
        },
        {
          "internalType": "uint256",
          "name": "tokenId",
          "type": "uint256"
        }
      ],
      "name": "safeTransferFrom",
      "outputs": [],
      "stateMutability": "nonpayable",
      "type": "function"
    },
    {
      "inputs": [
        {
          "internalType": "address",
          "name": "from",
          "type": "address"
        },
        {
          "internalType": "address",
          "name": "to",
          "type": "address"
        },
        {
          "internalType": "uint256",
          "name": "tokenId",
          "type": "uint256"
        },
        {
          "internalType": "bytes",
          "name": "_data",
          "type": "bytes"
        }
      ],
      "name": "safeTransferFrom",
      "outputs": [],
      "stateMutability": "nonpayable",
      "type": "function"
    },
    {
      "inputs": [
        {
          "internalType": "address",
          "name": "newFactory",
          "type": "address"
        }
      ],
      "name": "setAdventureFactory",
      "outputs": [],
      "stateMutability": "nonpayable",
      "type": "function"
    },
    {
      "inputs": [
        {
          "internalType": "address",
          "name": "newAppDiamond",
          "type": "address"
        }
      ],
      "name": "setAppDiamond",
      "outputs": [],
      "stateMutability": "nonpayable",
      "type": "function"
    },
    {
      "inputs": [
        {
          "internalType": "address",
          "name": "operator",
          "type": "address"
        },
        {
          "internalType": "bool",
          "name": "approved",
          "type": "bool"
        }
      ],
      "name": "setApprovalForAll",
      "outputs": [],
      "stateMutability": "nonpayable",
      "type": "function"
    },
    {
      "inputs": [
        {
          "internalType": "string",
          "name": "_pathwayId",
          "type": "string"
        },
        {
          "internalType": "uint256",
          "name": "newNumber",
          "type": "uint256"
        },
        {
          "internalType": "bytes32",
          "name": "r",
          "type": "bytes32"
        },
        {
          "internalType": "bytes32",
          "name": "s",
          "type": "bytes32"
        },
        {
          "internalType": "uint8",
          "name": "v",
          "type": "uint8"
        }
      ],
      "name": "setNumberOfUsersRewarded",
      "outputs": [],
      "stateMutability": "nonpayable",
      "type": "function"
    },
    {
      "inputs": [
        {
          "internalType": "string",
          "name": "",
          "type": "string"
        }
      ],
      "name": "status",
      "outputs": [
        {
          "internalType": "enum PathwayNFT.PathwayStatus",
          "name": "",
          "type": "uint8"
        }
      ],
      "stateMutability": "view",
      "type": "function"
    },
    {
      "inputs": [
        {
          "internalType": "uint256",
          "name": "",
          "type": "uint256"
        }
      ],
      "name": "statusStrings",
      "outputs": [
        {
          "internalType": "string",
          "name": "",
          "type": "string"
        }
      ],
      "stateMutability": "view",
      "type": "function"
    },
    {
      "inputs": [
        {
          "internalType": "bytes4",
          "name": "interfaceId",
          "type": "bytes4"
        }
      ],
      "name": "supportsInterface",
      "outputs": [
        {
          "internalType": "bool",
          "name": "",
          "type": "bool"
        }
      ],
      "stateMutability": "view",
      "type": "function"
    },
    {
      "inputs": [],
      "name": "symbol",
      "outputs": [
        {
          "internalType": "string",
          "name": "",
          "type": "string"
        }
      ],
      "stateMutability": "view",
      "type": "function"
    },
    {
      "inputs": [
        {
          "internalType": "uint256",
          "name": "index",
          "type": "uint256"
        }
      ],
      "name": "tokenByIndex",
      "outputs": [
        {
          "internalType": "uint256",
          "name": "",
          "type": "uint256"
        }
      ],
      "stateMutability": "view",
      "type": "function"
    },
    {
      "inputs": [
        {
          "internalType": "address",
          "name": "owner",
          "type": "address"
        },
        {
          "internalType": "uint256",
          "name": "index",
          "type": "uint256"
        }
      ],
      "name": "tokenOfOwnerByIndex",
      "outputs": [
        {
          "internalType": "uint256",
          "name": "",
          "type": "uint256"
        }
      ],
      "stateMutability": "view",
      "type": "function"
    },
    {
      "inputs": [
        {
          "internalType": "uint256",
          "name": "tokenId",
          "type": "uint256"
        }
      ],
      "name": "tokenURI",
      "outputs": [
        {
          "internalType": "string",
          "name": "",
          "type": "string"
        }
      ],
      "stateMutability": "view",
      "type": "function"
    },
    {
      "inputs": [],
      "name": "totalSupply",
      "outputs": [
        {
          "internalType": "uint256",
          "name": "",
          "type": "uint256"
        }
      ],
      "stateMutability": "view",
      "type": "function"
    },
    {
      "inputs": [
        {
          "internalType": "address",
          "name": "from",
          "type": "address"
        },
        {
          "internalType": "address",
          "name": "to",
          "type": "address"
        },
        {
          "internalType": "uint256",
          "name": "tokenId",
          "type": "uint256"
        }
      ],
      "name": "transferFrom",
      "outputs": [],
      "stateMutability": "nonpayable",
      "type": "function"
    },
    {
      "inputs": [
        {
          "internalType": "address",
          "name": "newOwner",
          "type": "address"
        }
      ],
      "name": "transferOwnership",
      "outputs": [],
      "stateMutability": "nonpayable",
      "type": "function"
    },
    {
      "inputs": [
        {
          "internalType": "string",
          "name": "",
          "type": "string"
        },
        {
          "internalType": "address",
          "name": "",
          "type": "address"
        }
      ],
      "name": "userRewardedForPathwayNative",
      "outputs": [
        {
          "internalType": "bool",
          "name": "",
          "type": "bool"
        }
      ],
      "stateMutability": "view",
      "type": "function"
    },
    {
      "inputs": [
        {
          "internalType": "address[]",
          "name": "_contributors",
          "type": "address[]"
        },
        {
          "internalType": "string",
          "name": "_pathwayId",
          "type": "string"
        },
        {
          "internalType": "string",
          "name": "_projectId",
          "type": "string"
        },
        {
          "internalType": "bytes32[2]",
          "name": "r",
          "type": "bytes32[2]"
        },
        {
          "internalType": "bytes32[2]",
          "name": "s",
          "type": "bytes32[2]"
        },
        {
          "internalType": "uint8[2]",
          "name": "v",
          "type": "uint8[2]"
        },
        {
          "internalType": "uint256",
          "name": "votesNeeded",
          "type": "uint256"
        }
      ],
      "name": "voteForApproval",
      "outputs": [],
      "stateMutability": "nonpayable",
      "type": "function"
    },
    {
      "inputs": [
        {
          "internalType": "string",
          "name": "_pathwayId",
          "type": "string"
        },
        {
          "internalType": "string",
          "name": "_projectId",
          "type": "string"
        },
        {
          "internalType": "bytes32[2]",
          "name": "r",
          "type": "bytes32[2]"
        },
        {
          "internalType": "bytes32[2]",
          "name": "s",
          "type": "bytes32[2]"
        },
        {
          "internalType": "uint8[2]",
          "name": "v",
          "type": "uint8[2]"
        },
        {
          "internalType": "uint256",
          "name": "votesNeeded",
          "type": "uint256"
        }
      ],
      "name": "voteForRejection",
      "outputs": [],
      "stateMutability": "nonpayable",
      "type": "function"
    },
    {
      "inputs": [
        {
          "internalType": "string",
          "name": "",
          "type": "string"
        }
      ],
      "name": "votes",
      "outputs": [
        {
          "internalType": "uint256",
          "name": "",
          "type": "uint256"
        }
      ],
      "stateMutability": "view",
      "type": "function"
    },
    {
      "inputs": [
        {
          "internalType": "string",
          "name": "",
          "type": "string"
        }
      ],
      "name": "votesReject",
      "outputs": [
        {
          "internalType": "uint256",
          "name": "",
          "type": "uint256"
        }
      ],
      "stateMutability": "view",
      "type": "function"
    },
    {
      "inputs": [
        {
          "internalType": "address",
          "name": "_owner",
          "type": "address"
        }
      ],
      "name": "walletOfOwner",
      "outputs": [
        {
          "internalType": "uint256[]",
          "name": "",
          "type": "uint256[]"
        }
      ],
      "stateMutability": "view",
      "type": "function"
    },
    {
      "stateMutability": "payable",
      "type": "receive"
    }
  ],
  "transactionHash": "0x9f5d28689e7db41cc9f39316d2d71f3e651ea952c156146e4bc390f08de70616",
  "args": [
    "0x5CC387AeCba2Ac9c90fdBD8F51032D4e4DAf944c",
    "0xc6f5693C9741A4889870CbE361428Eb0Ba0c05e3",
    "0x001291926f58a4CaFDad77Ca3363AA210400EEfE"
  ],
  "numDeployments": 11,
  "solcInputHash": "18bf3ca238bfed8d5b87482a431cda3f",
  "bytecode": "0x60806040526105dc602a553480156200001757600080fd5b506040516200606b3803806200606b8339810160408190526200003a916200038a565b604080518082018252600d81526c64436f6d70617373426164676560981b6020808301918252835180850190945260068452652221a7a6a82160d11b9084015281519192916200008d91600091620002c7565b508051620000a3906001906020840190620002c7565b505050620000c0620000ba6200027160201b60201c565b62000275565b600d80546001600160a01b038086166001600160a01b031992831617909255600e8054848416908316179055600f80549285169290911691909117905560408051808201909152600b81526a1393d391561254d511539560aa1b60208083019182526000805260129052905162000159917f7e7fa33969761a458e04f477e039a608702b4f924981d6653935a8319a08ad7b91620002c7565b5060408051808201909152600781526650454e44494e4760c81b60208083019182526001600052601290529051620001b3917f71a67924699a20698523213e55fe499d539379d7769cd5567e2c45d583f815a391620002c7565b5060408051808201909152600681526511115392515160d21b602080830191825260026000526012905290516200020c917f8e1fee8c88a9e04123b21e90cae2727a7715bf522a1e46eb5934ccd05203a6b291620002c7565b506040805180820190915260088152671054141493d5915160c21b6020808301918252600360005260129052905162000267917f0f36ad39aee03e7108cc48f54934702a5f0d4066f10344cebf8198978d86976a91620002c7565b5050505062000411565b3390565b600b80546001600160a01b038381166001600160a01b0319831681179093556040519116919082907f8be0079c531659141344cd1fd0a4f28419497f9722a3daafe3b4186f6b6457e090600090a35050565b828054620002d590620003d4565b90600052602060002090601f016020900481019282620002f9576000855562000344565b82601f106200031457805160ff191683800117855562000344565b8280016001018555821562000344579182015b828111156200034457825182559160200191906001019062000327565b506200035292915062000356565b5090565b5b8082111562000352576000815560010162000357565b80516001600160a01b03811681146200038557600080fd5b919050565b600080600060608486031215620003a057600080fd5b620003ab846200036d565b9250620003bb602085016200036d565b9150620003cb604085016200036d565b90509250925092565b600181811c90821680620003e957607f821691505b602082108114156200040b57634e487b7160e01b600052602260045260246000fd5b50919050565b615c4a80620004216000396000f3fe6080604052600436106102e85760003560e01c80636810b4cf116101905780639e1b567c116100dc578063cef9fab711610095578063e8ca64f41161006f578063e8ca64f414610a9e578063e985e9c514610ae6578063ebcb309a14610b2f578063f2fde38b14610b4f57600080fd5b8063cef9fab714610a09578063ddca3f4314610a51578063e5ab63e914610a6757600080fd5b80639e1b567c14610906578063a22cb46514610951578063aaa545d014610971578063b88d4fde14610991578063b99ef1fa146109b1578063c87b56dd146109e957600080fd5b806376032f0e116101495780638da5cb5b116101235780638da5cb5b1461087f578063946543af1461089d578063956f49bf146108b057806395d89b41146108f157600080fd5b806376032f0e146107fa5780637bfec909146108325780638b11cf8a1461085f57600080fd5b80636810b4cf1461072257806368929b5c1461074257806368aa4dff1461077a57806370a082311461078d578063715018a6146107ad578063727577c4146107c257600080fd5b806323b872dd1161024f5780634718595711610208578063500b5bd6116101e2578063500b5bd61461067b578063522ba1e3146106995780635398ba74146106c75780636352211e1461070257600080fd5b8063471859571461061b5780634e177b521461063b5780634f6ccce71461065b57600080fd5b806323b872dd146105405780632693d518146105605780632f745c591461058057806341038d19146105a057806342842e0e146105db578063438b6300146105fb57600080fd5b80630c54d2dd116102a15780630c54d2dd1461041d5780630d0654d9146104735780630e3c22cb146104a057806318160ddd146104c05780631b8f91e8146104d55780631fd8b97e1461052057600080fd5b806301ffc9a71461032c57806304dcd3001461036157806306462b6f1461038e57806306fdde03146103b0578063081812fc146103c5578063095ea7b3146103fd57600080fd5b3661032757604080513381523460208201527f64c983f10188c30a885d77970aa5aae9a86e80ef9b459ad33cc620eb5999e070910160405180910390a1005b600080fd5b34801561033857600080fd5b5061034c610347366004614fbb565b610b6f565b60405190151581526020015b60405180910390f35b34801561036d57600080fd5b5061038161037c36600461549b565b610b80565b6040516103589190615806565b34801561039a57600080fd5b506103ae6103a9366004614cd0565b610c1a565b005b3480156103bc57600080fd5b50610381610c6f565b3480156103d157600080fd5b506103e56103e036600461549b565b610d01565b6040516001600160a01b039091168152602001610358565b34801561040957600080fd5b506103ae610418366004614e31565b610d89565b34801561042957600080fd5b50610465610438366004615029565b81516020818401810180516021825292820194820194909420919093529091526000908152604090205481565b604051908152602001610358565b34801561047f57600080fd5b5061049361048e3660046152a9565b610e9f565b604051610358919061579d565b3480156104ac57600080fd5b506103ae6104bb366004614cd0565b6115ca565b3480156104cc57600080fd5b50600954610465565b3480156104e157600080fd5b5061034c6104f0366004615029565b81516020818401810180516029825292820194820194909420919093529091526000908152604090205460ff1681565b34801561052c57600080fd5b506103ae61053b366004615431565b611616565b34801561054c57600080fd5b506103ae61055b366004614d43565b6116c6565b34801561056c57600080fd5b506103ae61057b36600461513b565b6116f7565b34801561058c57600080fd5b5061046561059b366004614e31565b611b45565b3480156105ac57600080fd5b5061034c6105bb366004614ff5565b8051602081830181018051601d8252928201919093012091525460ff1681565b3480156105e757600080fd5b506103ae6105f6366004614d43565b611bdb565b34801561060757600080fd5b50610493610616366004614cd0565b611bf6565b34801561062757600080fd5b506103ae6106363660046150d8565b611c97565b34801561064757600080fd5b506104936106563660046153ed565b61218b565b34801561066757600080fd5b5061046561067636600461549b565b612207565b34801561068757600080fd5b506010546001600160a01b03166103e5565b3480156106a557600080fd5b506106b96106b4366004614cd0565b61229a565b6040516103589291906157b0565b3480156106d357600080fd5b5061034c6106e2366004614ff5565b805160208183018101805160138252928201919093012091525460ff1681565b34801561070e57600080fd5b506103e561071d36600461549b565b612566565b34801561072e57600080fd5b506103ae61073d366004615207565b6125dd565b34801561074e57600080fd5b5061046561075d366004614ff5565b805160208183018101805160198252928201919093012091525481565b6103ae61078836600461506f565b6129fe565b34801561079957600080fd5b506104656107a8366004614cd0565b612ff3565b3480156107b957600080fd5b506103ae61307a565b3480156107ce57600080fd5b506104656107dd366004614ff5565b8051602081830181018051601f8252928201919093012091525481565b34801561080657600080fd5b50610465610815366004614ff5565b8051602081830181018051601b8252928201919093012091525481565b34801561083e57600080fd5b5061085261084d3660046153ed565b6130b0565b6040516103589190615750565b34801561086b57600080fd5b5061038161087a366004614ff5565b613135565b34801561088b57600080fd5b50600b546001600160a01b03166103e5565b6103ae6108ab36600461533d565b613159565b3480156108bc57600080fd5b506103e56108cb366004614ff5565b80516020818301810180516023825292820191909301209152546001600160a01b031681565b3480156108fd57600080fd5b5061038161323f565b34801561091257600080fd5b5061034c610921366004615029565b8151602081840181018051601a825292820194820194909420919093529091526000908152604090205460ff1681565b34801561095d57600080fd5b506103ae61096c366004614e03565b61324e565b34801561097d57600080fd5b5061085261098c366004614ff5565b61325d565b34801561099d57600080fd5b506103ae6109ac366004614d84565b6132d7565b3480156109bd57600080fd5b506104656109cc366004614ff5565b805160208183018101805160188252928201919093012091525481565b3480156109f557600080fd5b50610381610a0436600461549b565b61330f565b348015610a1557600080fd5b50610465610a24366004615029565b81516020818401810180516022825292820194820194909420919093529091526000908152604090205481565b348015610a5d57600080fd5b50610465602a5481565b348015610a7357600080fd5b50610465610a82366004614ff5565b8051602081830181018051828252928201919093012091525481565b348015610aaa57600080fd5b50610ad9610ab9366004614ff5565b805160208183018101805160178252928201919093012091525460ff1681565b60405161035891906157de565b348015610af257600080fd5b5061034c610b01366004614d0a565b6001600160a01b03918216600090815260056020908152604080832093909416825291909152205460ff1690565b348015610b3b57600080fd5b506103ae610b4a366004614e5d565b61331a565b348015610b5b57600080fd5b506103ae610b6a366004614cd0565b6138ae565b6000610b7a82613949565b92915050565b60126020526000908152604090208054610b9990615aed565b80601f0160208091040260200160405190810160405280929190818152602001828054610bc590615aed565b8015610c125780601f10610be757610100808354040283529160200191610c12565b820191906000526020600020905b815481529060010190602001808311610bf557829003601f168201915b505050505081565b600b546001600160a01b03163314610c4d5760405162461bcd60e51b8152600401610c4490615906565b60405180910390fd5b601180546001600160a01b0319166001600160a01b0392909216919091179055565b606060008054610c7e90615aed565b80601f0160208091040260200160405190810160405280929190818152602001828054610caa90615aed565b8015610cf75780601f10610ccc57610100808354040283529160200191610cf7565b820191906000526020600020905b815481529060010190602001808311610cda57829003601f168201915b5050505050905090565b6000610d0c8261396e565b610d6d5760405162461bcd60e51b815260206004820152602c60248201527f4552433732313a20617070726f76656420717565727920666f72206e6f6e657860448201526b34b9ba32b73a103a37b5b2b760a11b6064820152608401610c44565b506000908152600460205260409020546001600160a01b031690565b6000610d9482612566565b9050806001600160a01b0316836001600160a01b03161415610e025760405162461bcd60e51b815260206004820152602160248201527f4552433732313a20617070726f76616c20746f2063757272656e74206f776e656044820152603960f91b6064820152608401610c44565b336001600160a01b0382161480610e1e5750610e1e8133610b01565b610e905760405162461bcd60e51b815260206004820152603860248201527f4552433732313a20617070726f76652063616c6c6572206973206e6f74206f7760448201527f6e6572206e6f7220617070726f76656420666f7220616c6c00000000000000006064820152608401610c44565b610e9a838361398b565b505050565b6060601387604051610eb19190615576565b9081526040519081900360200190205460ff1615610f025760405162461bcd60e51b815260206004820152600e60248201526d185b1c9958591e481b5a5b9d195960921b6044820152606401610c44565b600e54855185518551604051630903288360e11b81526000946001600160a01b031693631206510693610f419333938f938f93909290916004016156ac565b602060405180830381600087803b158015610f5b57600080fd5b505af1158015610f6f573d6000803e3d6000fd5b505050506040513d601f19601f82011682018060405250810190610f939190614f9e565b905080610ff05760405162461bcd60e51b815260206004820152602560248201527f73656e646572206973206e6f7420617070726f7665642070726f6a656374206d60448201526434b73a32b960d91b6064820152608401610c44565b60016017896040516110029190615576565b9081526040519081900360200190205460ff16600381111561102657611026615b83565b14156111835760188860405161103c9190615576565b90815260200160405180910390205483111561108d5760405162461bcd60e51b815260206004820152601060248201526f6e6f7420656e6f75676820766f74657360801b6044820152606401610c44565b600e546020878101518782015191870151604051632336629f60e11b81526001600160a01b039094169363466cc53e936110d19333938f938b939190600401615704565b602060405180830381600087803b1580156110eb57600080fd5b505af11580156110ff573d6000803e3d6000fd5b505050506040513d601f19601f820116820180604052508101906111239190614f9e565b9050806111425760405162461bcd60e51b8152600401610c44906159d0565b60036017896040516111549190615576565b908152604051908190036020019020805460ff1916600183600381111561117d5761117d615b83565b02179055505b60036017896040516111959190615576565b9081526040519081900360200190205460ff1660038111156111b9576111b9615b83565b1461121c5760405162461bcd60e51b815260206004820152602d60248201527f63616e206f6e6c79206d696e7420666f7220706174687761797320696e20617060448201526c70726f7665642073746174757360981b6064820152608401610c44565b6010546040516060916001600160a01b0316907f65a35964691f73fd1604104300b719081f6abd939cb2fc62b713db949a3b24099061125f908b90602401615806565b60408051601f198184030181529181526020820180516001600160e01b03166001600160e01b031990941693909317909252905161129d9190615576565b6000604051808303816000865af19150503d80600081146112da576040519150601f19603f3d011682016040523d82523d6000602084013e6112df565b606091505b509092509050816112ef57600080fd5b6000818060200190518101906113059190614ced565b90506001600160a01b038116156113e257806001600160a01b03167f7c83c11f9ec76afed5429fa5830b7cc482416d05625066ce8f77199e2f5faaee8b6040516024016113529190615806565b60408051601f198184030181529181526020820180516001600160e01b03166001600160e01b03199094169390931790925290516113909190615576565b6000604051808303816000865af19150503d80600081146113cd576040519150601f19603f3d011682016040523d82523d6000602084013e6113d2565b606091505b509093509150826113e257600080fd5b600060148b6040516113f49190615576565b908152604051908190036020019020546001600160401b0381111561141b5761141b615bc5565b604051908082528060200260200182016040528015611444578160200160208202803683370190505b5090506000805b60148d60405161145b9190615576565b9081526040519081900360200190205481101561158657611480600c80546001019055565b600c5491506114d260148e6040516114989190615576565b908152602001604051809103902082815481106114b7576114b7615baf565b6000918252602090912001546001600160a01b0316836139f9565b6114dc828f613b38565b8c6040516114ea9190615576565b60405180910390208e6040516115009190615576565b604051809103902060148f6040516115189190615576565b9081526020016040518091039020838154811061153757611537615baf565b60009182526020822001546040516001600160a01b03909116917f323af8e82495eba529e101c6ea8614b66233683ec49766c746a7203ba276185e91a48061157e81615b28565b91505061144b565b50600160138d6040516115999190615576565b908152604051908190036020019020805491151560ff19909216919091179055509350505050979650505050505050565b600b546001600160a01b031633146115f45760405162461bcd60e51b8152600401610c4490615906565b601080546001600160a01b0319166001600160a01b0392909216919091179055565b6001601f866040516116289190615576565b9081526020016040518091039020546116419190615aaa565b841161168f5760405162461bcd60e51b815260206004820152601b60248201527f506174687761794e4654203a20696e76616c6964206e756d62657200000000006044820152606401610c44565b61169d338686868686613bc3565b5083601f866040516116af9190615576565b908152604051908190036020019020555050505050565b6116d03382613e23565b6116ec5760405162461bcd60e51b8152600401610c449061597f565b610e9a838383613f0d565b6000831561190e5788156117f75760298a6040516117159190615576565b9081526020016040518091039020600061172c3390565b6001600160a01b0316815260208101919091526040016000205460ff161561175357600080fd5b601f8a6040516117639190615576565b90815260200160405180910390205460208b6040516117829190615576565b9081526020016040518091039020541061179b57600080fd5b601f8a6040516117ab9190615576565b908152602001604051809103902054601b8b6040516117ca9190615576565b9081526020016040518091039020546117e39190615a77565b9050600081116117f257600080fd5b61190e565b60288a6040516118079190615576565b90815260408051602092819003830190206001600160a01b038b16600090815290835281812033825290925290205460ff161561184357600080fd5b601f8a6040516118539190615576565b90815260200160405180910390205460218b6040516118729190615576565b90815260408051602092819003830190206001600160a01b038c1660009081529252902054106118a157600080fd5b601f8a6040516118b19190615576565b908152602001604051809103902054601c8b6040516118d09190615576565b90815260408051602092819003830190206001600160a01b038c16600090815292529020546118ff9190615a77565b90506000811161190e57600080fd5b61191c338b848a8a8a613bc3565b508315611b2d578815611a0857604051600090339083908381818185875af1925050503d806000811461196b576040519150601f19603f3d011682016040523d82523d6000602084013e611970565b606091505b505090508061197e57600080fd5b600160298c6040516119909190615576565b908152602001604051809103902060006119a73390565b6001600160a01b031681526020808201929092526040908101600020805460ff19169315159390931790925590516119e0908d90615576565b90815260405190819003602001902080549060006119fd83615b28565b919050555050611b2d565b6001600160a01b03881663a9059cbb336040516001600160e01b031960e084901b1681526001600160a01b03909116600482015260248101849052604401602060405180830381600087803b158015611a6057600080fd5b505af1158015611a74573d6000803e3d6000fd5b505050506040513d601f19601f82011682018060405250810190611a989190614f9e565b50600160288b604051611aab9190615576565b90815260408051602092819003830181206001600160a01b038d1660009081529084528281203382529093529120805460ff191692151592909217909155602190611af7908c90615576565b90815260408051602092819003830190206001600160a01b038b16600090815292528120805491611b2783615b28565b91905055505b611b39338b85856140b4565b50505050505050505050565b6000611b5083612ff3565b8210611bb25760405162461bcd60e51b815260206004820152602b60248201527f455243373231456e756d657261626c653a206f776e657220696e646578206f7560448201526a74206f6620626f756e647360a81b6064820152608401610c44565b506001600160a01b03919091166000908152600760209081526040808320938352929052205490565b610e9a838383604051806020016040528060008152506132d7565b60606000611c0383612ff3565b90506000816001600160401b03811115611c1f57611c1f615bc5565b604051908082528060200260200182016040528015611c48578160200160208202803683370190505b50905060005b82811015611c8f57611c608582611b45565b828281518110611c7257611c72615baf565b602090810291909101015280611c8781615b28565b915050611c4e565b509392505050565b6002601784604051611ca99190615576565b9081526040519081900360200190205460ff166003811115611ccd57611ccd615b83565b14611d1a5760405162461bcd60e51b815260206004820152601860248201527f696e636f727265637420706174687761792073746174757300000000000000006044820152606401610c44565b6000601684604051611d2c9190615576565b90815260200160405180910390208054611d4590615aed565b80601f0160208091040260200160405190810160405280929190818152602001828054611d7190615aed565b8015611dbe5780601f10611d9357610100808354040283529160200191611dbe565b820191906000526020600020905b815481529060010190602001808311611da157829003601f168201915b5050600f546040519495506000948594506001600160a01b0390911692507f0d58dd088cbe688b8c61e8f36a658aa45125fbcff8c7e7af836d3925770f01bc9150611e0d908690602401615806565b60408051601f198184030181529181526020820180516001600160e01b03166001600160e01b0319909416939093179092529051611e4b9190615576565b6000604051808303816000865af19150503d8060008114611e88576040519150601f19603f3d011682016040523d82523d6000602084013e611e8d565b606091505b509150915081611e9c57600080fd5b600081806020019051810190611eb29190614ced565b90506001600160a01b038116611ec757600080fd5b8515611fed57601d87604051611edd9190615576565b9081526040519081900360200190205460ff1615611f3d5760405162461bcd60e51b815260206004820152601d60248201527f6e61746976652072657761726420616c726561647920636c61696d65640000006044820152606401610c44565b806001600160a01b0316601b88604051611f579190615576565b9081526040519081900360200181205490600081818185875af1925050503d8060008114611fa1576040519150601f19603f3d011682016040523d82523d6000602084013e611fa6565b606091505b50508093505082611fb657600080fd5b6001601d88604051611fc89190615576565b908152604051908190036020019020805491151560ff19909216919091179055612182565b601e87604051611ffd9190615576565b90815260408051602092819003830190206001600160a01b0388166000908152925290205460ff16156120725760405162461bcd60e51b815260206004820152601c60248201527f65726332302072657761726420616c726561647920636c61696d6564000000006044820152606401610c44565b846001600160a01b031663a9059cbb82601c8a6040516120929190615576565b9081526040805191829003602090810183206001600160a01b038c166000908152915220546001600160e01b031960e085901b1682526120e992916004016001600160a01b03929092168252602082015260400190565b602060405180830381600087803b15801561210357600080fd5b505af1158015612117573d6000803e3d6000fd5b505050506040513d601f19601f8201168201806040525081019061213b9190614f9e565b506001601e8860405161214e9190615576565b90815260408051602092819003830190206001600160a01b038916600090815292529020805460ff19169115159190911790555b50505050505050565b606060268360405161219d9190615576565b908152604080519182900360209081018320600086815290825282902080548083028501830190935282845291908301828280156121fa57602002820191906000526020600020905b8154815260200190600101908083116121e6575b5050505050905092915050565b600061221260095490565b82106122755760405162461bcd60e51b815260206004820152602c60248201527f455243373231456e756d657261626c653a20676c6f62616c20696e646578206f60448201526b7574206f6620626f756e647360a01b6064820152608401610c44565b6009828154811061228857612288615baf565b90600052602060002001549050919050565b60608060006122a884612ff3565b6040805160208101909152600080825291925090826001600160401b038111156122d4576122d4615bc5565b6040519080825280602002602001820160405280156122fd578160200160208202803683370190505b5090508261230c578094508193505b60005b61231a600185615aaa565b811015612447576000602760006123318a85611b45565b815260200190815260200160002060405180604001604052908160008201805461235a90615aed565b80601f016020809104026020016040519081016040528092919081815260200182805461238690615aed565b80156123d35780601f106123a8576101008083540402835291602001916123d3565b820191906000526020600020905b8154815290600101906020018083116123b657829003601f168201915b50505050508152602001600182015481525050905080602001518383815181106123ff576123ff615baf565b6020026020010181815250508381600001516040516020016124229291906155c1565b6040516020818303038152906040529350818061243e90615b28565b9250505061230f565b6000602760006124578a85611b45565b815260200190815260200160002060405180604001604052908160008201805461248090615aed565b80601f01602080910402602001604051908101604052809291908181526020018280546124ac90615aed565b80156124f95780601f106124ce576101008083540402835291602001916124f9565b820191906000526020600020905b8154815290600101906020018083116124dc57829003601f168201915b505050505081526020016001820154815250509050806020015183838151811061252557612525615baf565b602002602001018181525050838160000151604051602001612548929190615592565b60405160208183030381529060405295508296505050505050915091565b6000818152600260205260408120546001600160a01b031680610b7a5760405162461bcd60e51b815260206004820152602960248201527f4552433732313a206f776e657220717565727920666f72206e6f6e657869737460448201526832b73a103a37b5b2b760b91b6064820152608401610c44565b60016017876040516125ef9190615576565b9081526040519081900360200190205460ff16600381111561261357612613615b83565b146126565760405162461bcd60e51b815260206004820152601360248201527270617468776179206e6f742070656e64696e6760681b6044820152606401610c44565b601a866040516126669190615576565b9081526020016040518091039020600061267d3390565b6001600160a01b0316815260208101919091526040016000205460ff16156126e75760405162461bcd60e51b815260206004820152601e60248201527f616c726561647920766f74656420666f722074686973207061746877617900006044820152606401610c44565b846040516020016126f89190615576565b6040516020818303038152906040528051906020012060168760405161271e9190615576565b908152602001604051809103902060405160200161273c91906155fd565b60405160208183030381529060405280519060200120146127955760405162461bcd60e51b81526020600482015260136024820152721a5b98dbdc9c9958dd081c1c9bda9958dd1259606a1b6044820152606401610c44565b600e54845184518451604051630903288360e11b81526000946001600160a01b0316936312065106936127d49333938e938e93909290916004016156ac565b602060405180830381600087803b1580156127ee57600080fd5b505af1158015612802573d6000803e3d6000fd5b505050506040513d601f19601f820116820180604052508101906128269190614f9e565b9050806128455760405162461bcd60e51b8152600401610c449061593b565b600e546020868101518682015191860151604051632336629f60e11b81526000946001600160a01b03169363466cc53e9361288b9333938f938b93929091600401615704565b602060405180830381600087803b1580156128a557600080fd5b505af11580156128b9573d6000803e3d6000fd5b505050506040513d601f19601f820116820180604052508101906128dd9190614f9e565b9050806128fc5760405162461bcd60e51b8152600401610c44906159d0565b60198860405161290c9190615576565b908152604051908190036020019020805490600061292983615b28565b91905055506001601a896040516129409190615576565b908152602001604051809103902060006129573390565b6001600160a01b03166001600160a01b0316815260200190815260200160002060006101000a81548160ff0219169083151502179055508260198960405161299f9190615576565b908152602001604051809103902054106129f45760026017896040516129c59190615576565b908152604051908190036020019020805460ff191660018360038111156129ee576129ee615b83565b02179055505b5050505050505050565b6001601785604051612a109190615576565b9081526040519081900360200190205460ff166003811115612a3457612a34615b83565b14612a775760405162461bcd60e51b815260206004820152601360248201527270617468776179206e6f742070656e64696e6760681b6044820152606401610c44565b6000601f85604051612a899190615576565b90815260200160405180910390205411612ad75760405162461bcd60e51b815260206004820152600f60248201526e6e6f2075736572207265776172647360881b6044820152606401610c44565b600f5460408051600481526024810182526020810180516001600160e01b0316631c3b702f60e11b179052905160009283926001600160a01b0390911691612b1f9190615576565b6000604051808303816000865af19150503d8060008114612b5c576040519150601f19603f3d011682016040523d82523d6000602084013e612b61565b606091505b509150915081612b7057600080fd5b600081806020019051810190612b869190614ced565b90506000612710602a5486612b9b9190615a8b565b612ba59190615a77565b90508515612d0757612bb78186615a5f565b341015612bf85760405162461bcd60e51b815260206004820152600f60248201526e1b9bdd08195b9bdd59da081cd95b9d608a1b6044820152606401610c44565b6040516001600160a01b038316908290600081818185875af1925050503d8060008114612c41576040519150601f19603f3d011682016040523d82523d6000602084013e612c46565b606091505b50508094505083612c5657600080fd5b84601b89604051612c679190615576565b90815260200160405180910390206000828254612c849190615a5f565b90915550612c9490508186615a5f565b341115612d02573381612ca78734615aaa565b612cb19190615aaa565b604051600081818185875af1925050503d8060008114612ced576040519150601f19603f3d011682016040523d82523d6000602084013e612cf2565b606091505b50508094505083612d0257600080fd5b6129f4565b6001600160a01b038716612d1a57600080fd5b6010546040516001600160a01b03909116907f11f69039648f0dd87bd7c96fa7501d8c9b90ae27f5d68bb2f9adfc6ae113637a90601690612d5c908c90615576565b908152604051908190036020018120612d7b9146908c90602401615819565b60408051601f198184030181529181526020820180516001600160e01b03166001600160e01b0319909416939093179092529051612db99190615576565b6000604051808303816000865af19150503d8060008114612df6576040519150601f19603f3d011682016040523d82523d6000602084013e612dfb565b606091505b50909450925083612e0b57600080fd5b82806020019051810190612e1f9190614f9e565b935083612e635760405162461bcd60e51b8152602060048201526012602482015271115490cc8c081b9bdd08185c1c1c9bdd995960721b6044820152606401610c44565b6001600160a01b0387166323b872dd336040516001600160e01b031960e084901b1681526001600160a01b039182166004820152908516602482015260448101849052606401602060405180830381600087803b158015612ec357600080fd5b505af1158015612ed7573d6000803e3d6000fd5b505050506040513d601f19601f82011682018060405250810190612efb9190614f9e565b506001600160a01b0387166323b872dd336040516001600160e01b031960e084901b1681526001600160a01b03909116600482015230602482015260448101889052606401602060405180830381600087803b158015612f5a57600080fd5b505af1158015612f6e573d6000803e3d6000fd5b505050506040513d601f19601f82011682018060405250810190612f929190614f9e565b5084601c89604051612fa49190615576565b90815260200160405180910390206000896001600160a01b03166001600160a01b031681526020019081526020016000206000828254612fe49190615a5f565b90915550505050505050505050565b60006001600160a01b03821661305e5760405162461bcd60e51b815260206004820152602a60248201527f4552433732313a2062616c616e636520717565727920666f7220746865207a65604482015269726f206164647265737360b01b6064820152608401610c44565b506001600160a01b031660009081526003602052604090205490565b600b546001600160a01b031633146130a45760405162461bcd60e51b8152600401610c4490615906565b6130ae6000614255565b565b60606025836040516130c29190615576565b908152604080519182900360209081018320600086815290825282902080548083028501830190935282845291908301828280156121fa57602002820191906000526020600020905b81546001600160a01b0316815260019091019060200180831161310b575050505050905092915050565b805160208183018101805160168252928201919093012091528054610b9990615aed565b600060178860405161316b9190615576565b9081526040519081900360200190205460ff16600381111561318f5761318f615b83565b1461319957600080fd5b60016017886040516131ab9190615576565b908152604051908190036020019020805460ff191660018360038111156131d4576131d4615b83565b0217905550856016886040516131ea9190615576565b9081526020016040518091039020908051906020019061320b929190614a9d565b5084601f8860405161321d9190615576565b90815260405190819003602001902055831561218257612182878484846129fe565b606060018054610c7e90615aed565b6132593383836142a7565b5050565b606060148260405161326f9190615576565b90815260408051918290036020908101832080548083028501830190935282845291908301828280156132cb57602002820191906000526020600020905b81546001600160a01b031681526001909101906020018083116132ad575b50505050509050919050565b6132e13383613e23565b6132fd5760405162461bcd60e51b8152600401610c449061597f565b61330984848484614376565b50505050565b6060610b7a826143a9565b600160178760405161332c9190615576565b9081526040519081900360200190205460ff16600381111561335057613350615b83565b146133925760405162461bcd60e51b8152602060048201526012602482015271737461747573206e6f742070656e64696e6760701b6044820152606401610c44565b601a866040516133a29190615576565b908152602001604051809103902060006133b93390565b6001600160a01b0316815260208101919091526040016000205460ff16156134235760405162461bcd60e51b815260206004820152601e60248201527f616c726561647920766f74656420666f722074686973207061746877617900006044820152606401610c44565b846040516020016134349190615576565b6040516020818303038152906040528051906020012060168760405161345a9190615576565b908152602001604051809103902060405160200161347891906155fd565b60405160208183030381529060405280519060200120146134d15760405162461bcd60e51b81526020600482015260136024820152721a5b98dbdc9c9958dd081c1c9bda9958dd1259606a1b6044820152606401610c44565b600e54845184518451604051630903288360e11b81526000946001600160a01b0316936312065106936135109333938e938e93909290916004016156ac565b602060405180830381600087803b15801561352a57600080fd5b505af115801561353e573d6000803e3d6000fd5b505050506040513d601f19601f820116820180604052508101906135629190614f9e565b9050806135815760405162461bcd60e51b8152600401610c449061593b565b600e546020868101518682015191860151604051632336629f60e11b81526000946001600160a01b03169363466cc53e936135c79333938f938b93929091600401615704565b602060405180830381600087803b1580156135e157600080fd5b505af11580156135f5573d6000803e3d6000fd5b505050506040513d601f19601f820116820180604052508101906136199190614f9e565b9050806136385760405162461bcd60e51b8152600401610c44906159d0565b6018886040516136489190615576565b908152604051908190036020019020805490600061366583615b28565b91905055506001601a8960405161367c9190615576565b908152602001604051809103902060006136933390565b6001600160a01b0316815260208101919091526040908101600020805460ff191692151592909217909155516018906136cd908a90615576565b908152602001604051809103902054600114156137ff5760008951116137235760405162461bcd60e51b815260206004820152600b60248201526a656d70747920617272617960a81b6044820152606401610c44565b886014896040516137349190615576565b90815260200160405180910390209080519060200190613755929190614b21565b506018886040516137669190615576565b90815260200160405180910390205483116137fa57600360178960405161378d9190615576565b908152604051908190036020019020805460ff191660018360038111156137b6576137b6615b83565b0217905550876040516137c99190615576565b604051908190038120907fcf525faa39dde00362f50602e2030eb0b110857c69ffaf3c69a504b41962bf0f90600090a25b6138a3565b826018896040516138109190615576565b908152602001604051809103902054106138a35760036017896040516138369190615576565b908152604051908190036020019020805460ff1916600183600381111561385f5761385f615b83565b0217905550876040516138729190615576565b604051908190038120907fcf525faa39dde00362f50602e2030eb0b110857c69ffaf3c69a504b41962bf0f90600090a25b505050505050505050565b600b546001600160a01b031633146138d85760405162461bcd60e51b8152600401610c4490615906565b6001600160a01b03811661393d5760405162461bcd60e51b815260206004820152602660248201527f4f776e61626c653a206e6577206f776e657220697320746865207a65726f206160448201526564647265737360d01b6064820152608401610c44565b61394681614255565b50565b60006001600160e01b0319821663780e9d6360e01b1480610b7a5750610b7a82614518565b6000908152600260205260409020546001600160a01b0316151590565b600081815260046020526040902080546001600160a01b0319166001600160a01b03841690811790915581906139c082612566565b6001600160a01b03167f8c5be1e5ebec7d5bd14f71427d1e84f3dd0314c0f7b2291e5b200ac8c7c3b92560405160405180910390a45050565b6001600160a01b038216613a4f5760405162461bcd60e51b815260206004820181905260248201527f4552433732313a206d696e7420746f20746865207a65726f20616464726573736044820152606401610c44565b613a588161396e565b15613aa55760405162461bcd60e51b815260206004820152601c60248201527f4552433732313a20746f6b656e20616c7265616479206d696e746564000000006044820152606401610c44565b613ab160008383614568565b6001600160a01b0382166000908152600360205260408120805460019290613ada908490615a5f565b909155505060008181526002602052604080822080546001600160a01b0319166001600160a01b03861690811790915590518392907fddf252ad1be2c89b69c2b068fc378daa952ba7f163c4a11628f55a4df523b3ef908290a45050565b613b418261396e565b613ba45760405162461bcd60e51b815260206004820152602e60248201527f45524337323155524953746f726167653a2055524920736574206f66206e6f6e60448201526d32bc34b9ba32b73a103a37b5b2b760911b6064820152608401610c44565b60008281526006602090815260409091208251610e9a92840190614a9d565b60008087304660228a604051613bd99190615576565b90815260408051602092819003830181206001600160a01b038f1660009081529084529190912054613c149594939290918c918e910161551b565b60408051601f1981840301815282825280516020918201206010546004855260248501845291840180516001600160e01b031663a5207df560e01b179052915191935060009283926001600160a01b0390921691613c729190615576565b6000604051808303816000865af19150503d8060008114613caf576040519150601f19603f3d011682016040523d82523d6000602084013e613cb4565b606091505b509150915081613cc357600080fd5b600081806020019051810190613cd99190614ced565b6040517f19457468657265756d205369676e6564204d6573736167653a0a3332000000006020820152603c8101869052909150600190605c0160408051601f198184030181528282528051602091820120600084529083018083525260ff891690820152606081018a90526080810189905260a0016020604051602081039080840390855afa158015613d70573d6000803e3d6000fd5b505050602060405103516001600160a01b0316816001600160a01b031614613dcd5760405162461bcd60e51b815260206004820152601060248201526f24b731b7b93932b1ba1039b4b3b732b960811b6044820152606401610c44565b60228a604051613ddd9190615576565b90815260408051602092819003830190206001600160a01b038e16600090815292528120805491613e0d83615b28565b9091555060019c9b505050505050505050505050565b6000613e2e8261396e565b613e8f5760405162461bcd60e51b815260206004820152602c60248201527f4552433732313a206f70657261746f7220717565727920666f72206e6f6e657860448201526b34b9ba32b73a103a37b5b2b760a11b6064820152608401610c44565b6000613e9a83612566565b9050806001600160a01b0316846001600160a01b03161480613ed55750836001600160a01b0316613eca84610d01565b6001600160a01b0316145b80613f0557506001600160a01b0380821660009081526005602090815260408083209388168352929052205460ff165b949350505050565b826001600160a01b0316613f2082612566565b6001600160a01b031614613f845760405162461bcd60e51b815260206004820152602560248201527f4552433732313a207472616e736665722066726f6d20696e636f72726563742060448201526437bbb732b960d91b6064820152608401610c44565b6001600160a01b038216613fe65760405162461bcd60e51b8152602060048201526024808201527f4552433732313a207472616e7366657220746f20746865207a65726f206164646044820152637265737360e01b6064820152608401610c44565b613ff1838383614568565b613ffc60008261398b565b6001600160a01b0383166000908152600360205260408120805460019290614025908490615aaa565b90915550506001600160a01b0382166000908152600360205260408120805460019290614053908490615a5f565b909155505060008181526002602052604080822080546001600160a01b0319166001600160a01b0386811691821790925591518493918716917fddf252ad1be2c89b69c2b068fc378daa952ba7f163c4a11628f55a4df523b3ef91a4505050565b6024836040516140c49190615576565b908152604080516020928190038301902060008481529083528181206001600160a01b038816825290925290205460ff16156140ff57613309565b600061410f600c80546001019055565b50600c5461411d33826139f9565b6141278184613b38565b604080518082018252858152602080820185905260008481526027825292909220815180519293849361415d9284920190614a9d565b506020820151816001015590505060258560405161417b9190615576565b9081526040805191829003602090810183206000878152908252918220805460018101825590835291200180546001600160a01b0389166001600160a01b03199091161790556026906141cf908790615576565b908152604080519182900360209081018320600087815290825291822080546001818101835591845291909220018490559060249061420f908890615576565b9081526040805160209281900383019020600096875282528086206001600160a01b0399909916865297905295909220805460ff19169515159590951790945550505050565b600b80546001600160a01b038381166001600160a01b0319831681179093556040519116919082907f8be0079c531659141344cd1fd0a4f28419497f9722a3daafe3b4186f6b6457e090600090a35050565b816001600160a01b0316836001600160a01b031614156143095760405162461bcd60e51b815260206004820152601960248201527f4552433732313a20617070726f766520746f2063616c6c6572000000000000006044820152606401610c44565b6001600160a01b03838116600081815260056020908152604080832094871680845294825291829020805460ff191686151590811790915591519182527f17307eab39ab6107e8899845ad3d59bd9653f200f220920489ca2b5937696c31910160405180910390a3505050565b614381848484613f0d565b61438d84848484614573565b6133095760405162461bcd60e51b8152600401610c44906158b4565b60606143b48261396e565b61441a5760405162461bcd60e51b815260206004820152603160248201527f45524337323155524953746f726167653a2055524920717565727920666f72206044820152703737b732bc34b9ba32b73a103a37b5b2b760791b6064820152608401610c44565b6000828152600660205260408120805461443390615aed565b80601f016020809104026020016040519081016040528092919081815260200182805461445f90615aed565b80156144ac5780601f10614481576101008083540402835291602001916144ac565b820191906000526020600020905b81548152906001019060200180831161448f57829003601f168201915b5050505050905060006144ca60408051602081019091526000815290565b90508051600014156144dd575092915050565b81511561450f5780826040516020016144f7929190615592565b60405160208183030381529060405292505050919050565b613f0584614680565b60006001600160e01b031982166380ac58cd60e01b148061454957506001600160e01b03198216635b5e139f60e01b145b80610b7a57506301ffc9a760e01b6001600160e01b0319831614610b7a565b610e9a838383614758565b60006001600160a01b0384163b1561467557604051630a85bd0160e11b81526001600160a01b0385169063150b7a02906145b790339089908890889060040161566f565b602060405180830381600087803b1580156145d157600080fd5b505af1925050508015614601575060408051601f3d908101601f191682019092526145fe91810190614fd8565b60015b61465b573d80801561462f576040519150601f19603f3d011682016040523d82523d6000602084013e614634565b606091505b5080516146535760405162461bcd60e51b8152600401610c44906158b4565b805181602001fd5b6001600160e01b031916630a85bd0160e11b149050613f05565b506001949350505050565b606061468b8261396e565b6146ef5760405162461bcd60e51b815260206004820152602f60248201527f4552433732314d657461646174613a2055524920717565727920666f72206e6f60448201526e3732bc34b9ba32b73a103a37b5b2b760891b6064820152608401610c44565b600061470660408051602081019091526000815290565b905060008151116147265760405180602001604052806000815250614751565b8061473084614810565b604051602001614741929190615592565b6040516020818303038152906040525b9392505050565b6001600160a01b0383166147b3576147ae81600980546000838152600a60205260408120829055600182018355919091527f6e1540171b6c0c960b71a7020d9f60077f6af931a8bbf590da0223dacf75c7af0155565b6147d6565b816001600160a01b0316836001600160a01b0316146147d6576147d6838261490d565b6001600160a01b0382166147ed57610e9a816149aa565b826001600160a01b0316826001600160a01b031614610e9a57610e9a8282614a59565b6060816148345750506040805180820190915260018152600360fc1b602082015290565b8160005b811561485e578061484881615b28565b91506148579050600a83615a77565b9150614838565b6000816001600160401b0381111561487857614878615bc5565b6040519080825280601f01601f1916602001820160405280156148a2576020820181803683370190505b5090505b8415613f05576148b7600183615aaa565b91506148c4600a86615b43565b6148cf906030615a5f565b60f81b8183815181106148e4576148e4615baf565b60200101906001600160f81b031916908160001a905350614906600a86615a77565b94506148a6565b6000600161491a84612ff3565b6149249190615aaa565b600083815260086020526040902054909150808214614977576001600160a01b03841660009081526007602090815260408083208584528252808320548484528184208190558352600890915290208190555b5060009182526008602090815260408084208490556001600160a01b039094168352600781528383209183525290812055565b6009546000906149bc90600190615aaa565b6000838152600a6020526040812054600980549394509092849081106149e4576149e4615baf565b906000526020600020015490508060098381548110614a0557614a05615baf565b6000918252602080832090910192909255828152600a90915260408082208490558582528120556009805480614a3d57614a3d615b99565b6001900381819060005260206000200160009055905550505050565b6000614a6483612ff3565b6001600160a01b039093166000908152600760209081526040808320868452825280832085905593825260089052919091209190915550565b828054614aa990615aed565b90600052602060002090601f016020900481019282614acb5760008555614b11565b82601f10614ae457805160ff1916838001178555614b11565b82800160010185558215614b11579182015b82811115614b11578251825591602001919060010190614af6565b50614b1d929150614b76565b5090565b828054828255906000526020600020908101928215614b11579160200282015b82811115614b1157825182546001600160a01b0319166001600160a01b03909116178255602090920191600190910190614b41565b5b80821115614b1d5760008155600101614b77565b60006001600160401b03831115614ba457614ba4615bc5565b614bb7601f8401601f1916602001615a2f565b9050828152838383011115614bcb57600080fd5b828260208301376000602084830101529392505050565b600082601f830112614bf357600080fd5b614bfb615a07565b808385604086011115614c0d57600080fd5b60005b6002811015614c2f578135845260209384019390910190600101614c10565b509095945050505050565b600082601f830112614c4b57600080fd5b614c53615a07565b808385604086011115614c6557600080fd5b60005b6002811015614c2f57614c7a82614cbf565b84526020938401939190910190600101614c68565b8035614c9a81615bf0565b919050565b600082601f830112614cb057600080fd5b61475183833560208501614b8b565b803560ff81168114614c9a57600080fd5b600060208284031215614ce257600080fd5b813561475181615bdb565b600060208284031215614cff57600080fd5b815161475181615bdb565b60008060408385031215614d1d57600080fd5b8235614d2881615bdb565b91506020830135614d3881615bdb565b809150509250929050565b600080600060608486031215614d5857600080fd5b8335614d6381615bdb565b92506020840135614d7381615bdb565b929592945050506040919091013590565b60008060008060808587031215614d9a57600080fd5b8435614da581615bdb565b93506020850135614db581615bdb565b92506040850135915060608501356001600160401b03811115614dd757600080fd5b8501601f81018713614de857600080fd5b614df787823560208401614b8b565b91505092959194509250565b60008060408385031215614e1657600080fd5b8235614e2181615bdb565b91506020830135614d3881615bf0565b60008060408385031215614e4457600080fd5b8235614e4f81615bdb565b946020939093013593505050565b6000806000806000806000610140888a031215614e7957600080fd5b6001600160401b038089351115614e8f57600080fd5b883589018a601f820112614ea257600080fd5b803582811115614eb457614eb4615bc5565b8060051b614ec460208201615a2f565b80838252602082019150602085018f6020858801011115614ee457600080fd5b600095505b84861015614f1257614efb8135615bdb565b803583526001959095019460209283019201614ee9565b509b5050505060208a0135905081811115614f2c57600080fd5b614f388b828c01614c9f565b975050604089013581811115614f4d57600080fd5b614f598b828c01614c9f565b96505050614f6a8960608a01614be2565b9350614f798960a08a01614be2565b9250614f888960e08a01614c3a565b9150610120880135905092959891949750929550565b600060208284031215614fb057600080fd5b815161475181615bf0565b600060208284031215614fcd57600080fd5b813561475181615bfe565b600060208284031215614fea57600080fd5b815161475181615bfe565b60006020828403121561500757600080fd5b81356001600160401b0381111561501d57600080fd5b613f0584828501614c9f565b6000806040838503121561503c57600080fd5b82356001600160401b0381111561505257600080fd5b61505e85828601614c9f565b9250506020830135614d3881615bdb565b6000806000806080858703121561508557600080fd5b84356001600160401b0381111561509b57600080fd5b6150a787828801614c9f565b94505060208501356150b881615bdb565b925060408501356150c881615bf0565b9396929550929360600135925050565b6000806000606084860312156150ed57600080fd5b83356001600160401b0381111561510357600080fd5b61510f86828701614c9f565b935050602084013561512081615bf0565b9150604084013561513081615bdb565b809150509250925092565b60008060008060008060008060006101208a8c03121561515a57600080fd5b89356001600160401b038082111561517157600080fd5b61517d8d838e01614c9f565b9a5060208c0135915061518f82615bf0565b90985060408b0135906151a182615bdb565b81985060608c0135975060808c013596506151be60a08d01614cbf565b95506151cc60c08d01614c8f565b945060e08c01359150808211156151e257600080fd5b506151ef8c828d01614c9f565b9250506101008a013590509295985092959850929598565b600080600080600080610120878903121561522157600080fd5b86356001600160401b038082111561523857600080fd5b6152448a838b01614c9f565b9750602089013591508082111561525a57600080fd5b5061526789828a01614c9f565b9550506152778860408901614be2565b93506152868860808901614be2565b92506152958860c08901614c3a565b915061010087013590509295509295509295565b6000806000806000806000610140888a0312156152c557600080fd5b87356001600160401b03808211156152dc57600080fd5b6152e88b838c01614c9f565b985060208a01359150808211156152fe57600080fd5b61530a8b838c01614c9f565b975060408a013591508082111561532057600080fd5b5061532d8a828b01614c9f565b955050614f6a8960608a01614be2565b600080600080600080600060e0888a03121561535857600080fd5b87356001600160401b038082111561536f57600080fd5b61537b8b838c01614c9f565b985060208a013591508082111561539157600080fd5b5061539e8a828b01614c9f565b9650506040880135945060608801356153b681615bf0565b935060808801356153c681615bdb565b925060a08801356153d681615bf0565b8092505060c0880135905092959891949750929550565b6000806040838503121561540057600080fd5b82356001600160401b0381111561541657600080fd5b61542285828601614c9f565b95602094909401359450505050565b600080600080600060a0868803121561544957600080fd5b85356001600160401b0381111561545f57600080fd5b61546b88828901614c9f565b95505060208601359350604086013592506060860135915061548f60808701614cbf565b90509295509295909350565b6000602082840312156154ad57600080fd5b5035919050565b600081518084526020808501945080840160005b838110156154e4578151875295820195908201906001016154c8565b509495945050505050565b60008151808452615507816020860160208601615ac1565b601f01601f19169290920160200192915050565b60006bffffffffffffffffffffffff19808960601b168352808860601b166014840152508560288301528460488301528360688301528251615564816088850160208701615ac1565b91909101608801979650505050505050565b60008251615588818460208701615ac1565b9190910192915050565b600083516155a4818460208801615ac1565b8351908301906155b8818360208801615ac1565b01949350505050565b600083516155d3818460208801615ac1565b8351908301906155e7818360208801615ac1565b615f5f60f01b9101908152600201949350505050565b600080835461560b81615aed565b60018281168015615623576001811461563457615663565b60ff19841687528287019450615663565b8760005260208060002060005b8581101561565a5781548a820152908401908201615641565b50505082870194505b50929695505050505050565b6001600160a01b03858116825284166020820152604081018390526080606082018190526000906156a2908301846154ef565b9695505050505050565b6001600160a01b038716815260c0602082018190526000906156d0908301886154ef565b82810360408401526156e281886154ef565b60608401969096525050608081019290925260ff1660a0909101529392505050565b6001600160a01b038716815260c060208201819052600090615728908301886154ef565b905085604083015284606083015283608083015260ff831660a0830152979650505050505050565b6020808252825182820181905260009190848201906040850190845b818110156157915783516001600160a01b03168352928401929184019160010161576c565b50909695505050505050565b60208152600061475160208301846154b4565b6040815260006157c360408301856154b4565b82810360208401526157d581856154ef565b95945050505050565b602081016004831061580057634e487b7160e01b600052602160045260246000fd5b91905290565b60208152600061475160208301846154ef565b60608152600080855461582b81615aed565b806060860152608060018084166000811461584d576001811461586157615892565b60ff1985168884015260a088019550615892565b8a60005260208060002060005b868110156158895781548b820187015290840190820161586e565b8a018501975050505b5050505050602083018590526001600160a01b03841660408401529050613f05565b60208082526032908201527f4552433732313a207472616e7366657220746f206e6f6e20455243373231526560408201527131b2b4bb32b91034b6b83632b6b2b73a32b960711b606082015260800190565b6020808252818101527f4f776e61626c653a2063616c6c6572206973206e6f7420746865206f776e6572604082015260600190565b60208082526024908201527f73656e646572206973206e6f7420617070726f7665642070726f6a656374207660408201526337ba32b960e11b606082015260800190565b60208082526031908201527f4552433732313a207472616e736665722063616c6c6572206973206e6f74206f6040820152701ddb995c881b9bdc88185c1c1c9bdd9959607a1b606082015260800190565b6020808252601b908201527f696e636f727265637420766f746573206e65656465642073656e740000000000604082015260600190565b604080519081016001600160401b0381118282101715615a2957615a29615bc5565b60405290565b604051601f8201601f191681016001600160401b0381118282101715615a5757615a57615bc5565b604052919050565b60008219821115615a7257615a72615b57565b500190565b600082615a8657615a86615b6d565b500490565b6000816000190483118215151615615aa557615aa5615b57565b500290565b600082821015615abc57615abc615b57565b500390565b60005b83811015615adc578181015183820152602001615ac4565b838111156133095750506000910152565b600181811c90821680615b0157607f821691505b60208210811415615b2257634e487b7160e01b600052602260045260246000fd5b50919050565b6000600019821415615b3c57615b3c615b57565b5060010190565b600082615b5257615b52615b6d565b500690565b634e487b7160e01b600052601160045260246000fd5b634e487b7160e01b600052601260045260246000fd5b634e487b7160e01b600052602160045260246000fd5b634e487b7160e01b600052603160045260246000fd5b634e487b7160e01b600052603260045260246000fd5b634e487b7160e01b600052604160045260246000fd5b6001600160a01b038116811461394657600080fd5b801515811461394657600080fd5b6001600160e01b03198116811461394657600080fdfea2646970667358221220a5fd1d9c4f671d7854380182b09a2f73be0a4ac09a96e8dbad37af17ea6fe95264736f6c63430008070033",
  "devdoc": {
    "kind": "dev",
    "methods": {
      "approve(address,uint256)": {
        "details": "See {IERC721-approve}."
      },
      "balanceOf(address)": {
        "details": "See {IERC721-balanceOf}."
      },
      "getApproved(uint256)": {
        "details": "See {IERC721-getApproved}."
      },
      "isApprovedForAll(address,address)": {
        "details": "See {IERC721-isApprovedForAll}."
      },
      "name()": {
        "details": "See {IERC721Metadata-name}."
      },
      "owner()": {
        "details": "Returns the address of the current owner."
      },
      "ownerOf(uint256)": {
        "details": "See {IERC721-ownerOf}."
      },
      "renounceOwnership()": {
        "details": "Leaves the contract without owner. It will not be possible to call `onlyOwner` functions anymore. Can only be called by the current owner. NOTE: Renouncing ownership will leave the contract without an owner, thereby removing any functionality that is only available to the owner."
      },
      "safeTransferFrom(address,address,uint256)": {
        "details": "See {IERC721-safeTransferFrom}."
      },
      "safeTransferFrom(address,address,uint256,bytes)": {
        "details": "See {IERC721-safeTransferFrom}."
      },
      "setApprovalForAll(address,bool)": {
        "details": "See {IERC721-setApprovalForAll}."
      },
      "symbol()": {
        "details": "See {IERC721Metadata-symbol}."
      },
      "tokenByIndex(uint256)": {
        "details": "See {IERC721Enumerable-tokenByIndex}."
      },
      "tokenOfOwnerByIndex(address,uint256)": {
        "details": "See {IERC721Enumerable-tokenOfOwnerByIndex}."
      },
      "totalSupply()": {
        "details": "See {IERC721Enumerable-totalSupply}."
      },
      "transferFrom(address,address,uint256)": {
        "details": "See {IERC721-transferFrom}."
      },
      "transferOwnership(address)": {
        "details": "Transfers ownership of the contract to a new account (`newOwner`). Can only be called by the current owner."
      }
    },
    "version": 1
  },
  "userdoc": {
    "kind": "user",
    "methods": {},
    "version": 1
  },
  "storageLayout": {
    "storage": [
      {
        "astId": 1902,
        "contract": "contracts/PathwayNFT.sol:PathwayNFT",
        "label": "_name",
        "offset": 0,
        "slot": "0",
        "type": "t_string_storage"
      },
      {
        "astId": 1904,
        "contract": "contracts/PathwayNFT.sol:PathwayNFT",
        "label": "_symbol",
        "offset": 0,
        "slot": "1",
        "type": "t_string_storage"
      },
      {
        "astId": 1908,
        "contract": "contracts/PathwayNFT.sol:PathwayNFT",
        "label": "_owners",
        "offset": 0,
        "slot": "2",
        "type": "t_mapping(t_uint256,t_address)"
      },
      {
        "astId": 1912,
        "contract": "contracts/PathwayNFT.sol:PathwayNFT",
        "label": "_balances",
        "offset": 0,
        "slot": "3",
        "type": "t_mapping(t_address,t_uint256)"
      },
      {
        "astId": 1916,
        "contract": "contracts/PathwayNFT.sol:PathwayNFT",
        "label": "_tokenApprovals",
        "offset": 0,
        "slot": "4",
        "type": "t_mapping(t_uint256,t_address)"
      },
      {
        "astId": 1922,
        "contract": "contracts/PathwayNFT.sol:PathwayNFT",
        "label": "_operatorApprovals",
        "offset": 0,
        "slot": "5",
        "type": "t_mapping(t_address,t_mapping(t_address,t_bool))"
      },
      {
        "astId": 3227,
        "contract": "contracts/PathwayNFT.sol:PathwayNFT",
        "label": "_tokenURIs",
        "offset": 0,
        "slot": "6",
        "type": "t_mapping(t_uint256,t_string_storage)"
      },
      {
        "astId": 2891,
        "contract": "contracts/PathwayNFT.sol:PathwayNFT",
        "label": "_ownedTokens",
        "offset": 0,
        "slot": "7",
        "type": "t_mapping(t_address,t_mapping(t_uint256,t_uint256))"
      },
      {
        "astId": 2895,
        "contract": "contracts/PathwayNFT.sol:PathwayNFT",
        "label": "_ownedTokensIndex",
        "offset": 0,
        "slot": "8",
        "type": "t_mapping(t_uint256,t_uint256)"
      },
      {
        "astId": 2898,
        "contract": "contracts/PathwayNFT.sol:PathwayNFT",
        "label": "_allTokens",
        "offset": 0,
        "slot": "9",
        "type": "t_array(t_uint256)dyn_storage"
      },
      {
        "astId": 2902,
        "contract": "contracts/PathwayNFT.sol:PathwayNFT",
        "label": "_allTokensIndex",
        "offset": 0,
        "slot": "10",
        "type": "t_mapping(t_uint256,t_uint256)"
      },
      {
        "astId": 273,
        "contract": "contracts/PathwayNFT.sol:PathwayNFT",
        "label": "_owner",
        "offset": 0,
        "slot": "11",
        "type": "t_address"
      },
      {
        "astId": 7404,
        "contract": "contracts/PathwayNFT.sol:PathwayNFT",
        "label": "_tokenIds",
        "offset": 0,
        "slot": "12",
        "type": "t_struct(Counter)3723_storage"
      },
      {
        "astId": 7407,
        "contract": "contracts/PathwayNFT.sol:PathwayNFT",
        "label": "vrfContract",
        "offset": 0,
        "slot": "13",
        "type": "t_contract(RandomNumberConsumer)11651"
      },
      {
        "astId": 7410,
        "contract": "contracts/PathwayNFT.sol:PathwayNFT",
        "label": "verifyContract",
        "offset": 0,
        "slot": "14",
        "type": "t_contract(Verify)12312"
      },
      {
        "astId": 7412,
        "contract": "contracts/PathwayNFT.sol:PathwayNFT",
        "label": "projectNFTAddress",
        "offset": 0,
        "slot": "15",
        "type": "t_address"
      },
      {
        "astId": 7414,
        "contract": "contracts/PathwayNFT.sol:PathwayNFT",
        "label": "appDiamond",
        "offset": 0,
        "slot": "16",
        "type": "t_address"
      },
      {
        "astId": 7416,
        "contract": "contracts/PathwayNFT.sol:PathwayNFT",
        "label": "adventureFactory",
        "offset": 0,
        "slot": "17",
        "type": "t_address"
      },
      {
        "astId": 7420,
        "contract": "contracts/PathwayNFT.sol:PathwayNFT",
        "label": "statusStrings",
        "offset": 0,
        "slot": "18",
        "type": "t_mapping(t_uint256,t_string_storage)"
      },
      {
        "astId": 7424,
        "contract": "contracts/PathwayNFT.sol:PathwayNFT",
        "label": "pathwayMinted",
        "offset": 0,
        "slot": "19",
        "type": "t_mapping(t_string_memory_ptr,t_bool)"
      },
      {
        "astId": 7429,
        "contract": "contracts/PathwayNFT.sol:PathwayNFT",
        "label": "contributors",
        "offset": 0,
        "slot": "20",
        "type": "t_mapping(t_string_memory_ptr,t_array(t_address)dyn_storage)"
      },
      {
        "astId": 7432,
        "contract": "contracts/PathwayNFT.sol:PathwayNFT",
        "label": "rarityThresholds",
        "offset": 0,
        "slot": "21",
        "type": "t_array(t_uint8)dyn_storage"
      },
      {
        "astId": 7436,
        "contract": "contracts/PathwayNFT.sol:PathwayNFT",
        "label": "projectIdforPathway",
        "offset": 0,
        "slot": "22",
        "type": "t_mapping(t_string_memory_ptr,t_string_storage)"
      },
      {
        "astId": 7441,
        "contract": "contracts/PathwayNFT.sol:PathwayNFT",
        "label": "status",
        "offset": 0,
        "slot": "23",
        "type": "t_mapping(t_string_memory_ptr,t_enum(PathwayStatus)7548)"
      },
      {
        "astId": 7445,
        "contract": "contracts/PathwayNFT.sol:PathwayNFT",
        "label": "votes",
        "offset": 0,
        "slot": "24",
        "type": "t_mapping(t_string_memory_ptr,t_uint256)"
      },
      {
        "astId": 7449,
        "contract": "contracts/PathwayNFT.sol:PathwayNFT",
        "label": "votesReject",
        "offset": 0,
        "slot": "25",
        "type": "t_mapping(t_string_memory_ptr,t_uint256)"
      },
      {
        "astId": 7455,
        "contract": "contracts/PathwayNFT.sol:PathwayNFT",
        "label": "reviewerVotes",
        "offset": 0,
        "slot": "26",
        "type": "t_mapping(t_string_memory_ptr,t_mapping(t_address,t_bool))"
      },
      {
        "astId": 7459,
        "contract": "contracts/PathwayNFT.sol:PathwayNFT",
        "label": "nativeRewards",
        "offset": 0,
        "slot": "27",
        "type": "t_mapping(t_string_memory_ptr,t_uint256)"
      },
      {
        "astId": 7465,
        "contract": "contracts/PathwayNFT.sol:PathwayNFT",
        "label": "erc20Amounts",
        "offset": 0,
        "slot": "28",
        "type": "t_mapping(t_string_memory_ptr,t_mapping(t_address,t_uint256))"
      },
      {
        "astId": 7469,
        "contract": "contracts/PathwayNFT.sol:PathwayNFT",
        "label": "nativeRefundClaimed",
        "offset": 0,
        "slot": "29",
        "type": "t_mapping(t_string_memory_ptr,t_bool)"
      },
      {
        "astId": 7475,
        "contract": "contracts/PathwayNFT.sol:PathwayNFT",
        "label": "erc20RefundClaimed",
        "offset": 0,
        "slot": "30",
        "type": "t_mapping(t_string_memory_ptr,t_mapping(t_address,t_bool))"
      },
      {
        "astId": 7479,
        "contract": "contracts/PathwayNFT.sol:PathwayNFT",
        "label": "numUsersRewardPerPathway",
        "offset": 0,
        "slot": "31",
        "type": "t_mapping(t_string_memory_ptr,t_uint256)"
      },
      {
        "astId": 7483,
        "contract": "contracts/PathwayNFT.sol:PathwayNFT",
        "label": "currentNumUsersRewardPerPathwayNative",
        "offset": 0,
        "slot": "32",
        "type": "t_mapping(t_string_memory_ptr,t_uint256)"
      },
      {
        "astId": 7489,
        "contract": "contracts/PathwayNFT.sol:PathwayNFT",
        "label": "currentNumUsersRewardPerPathwayERC20",
        "offset": 0,
        "slot": "33",
        "type": "t_mapping(t_string_memory_ptr,t_mapping(t_address,t_uint256))"
      },
      {
        "astId": 7495,
        "contract": "contracts/PathwayNFT.sol:PathwayNFT",
        "label": "nonces",
        "offset": 0,
        "slot": "34",
        "type": "t_mapping(t_string_memory_ptr,t_mapping(t_address,t_uint256))"
      },
      {
        "astId": 7499,
        "contract": "contracts/PathwayNFT.sol:PathwayNFT",
        "label": "adventurerAddress",
        "offset": 0,
        "slot": "35",
        "type": "t_mapping(t_string_memory_ptr,t_address)"
      },
      {
        "astId": 7507,
        "contract": "contracts/PathwayNFT.sol:PathwayNFT",
        "label": "mintTrackerByPathwayIdVersionMinter",
        "offset": 0,
        "slot": "36",
        "type": "t_mapping(t_string_memory_ptr,t_mapping(t_uint256,t_mapping(t_address,t_bool)))"
      },
      {
        "astId": 7514,
        "contract": "contracts/PathwayNFT.sol:PathwayNFT",
        "label": "allMintersPerPathwayAndVersion",
        "offset": 0,
        "slot": "37",
        "type": "t_mapping(t_string_memory_ptr,t_mapping(t_uint256,t_array(t_address)dyn_storage))"
      },
      {
        "astId": 7521,
        "contract": "contracts/PathwayNFT.sol:PathwayNFT",
        "label": "allTokenIdsPerPathwayAndVersion",
        "offset": 0,
        "slot": "38",
        "type": "t_mapping(t_string_memory_ptr,t_mapping(t_uint256,t_array(t_uint256)dyn_storage))"
      },
      {
        "astId": 7526,
        "contract": "contracts/PathwayNFT.sol:PathwayNFT",
        "label": "tokenInfoById",
        "offset": 0,
        "slot": "39",
        "type": "t_mapping(t_uint256,t_struct(TokenInfo)7553_storage)"
      },
      {
        "astId": 7534,
        "contract": "contracts/PathwayNFT.sol:PathwayNFT",
        "label": "userRewardedForPathwayERC20",
        "offset": 0,
        "slot": "40",
        "type": "t_mapping(t_string_memory_ptr,t_mapping(t_address,t_mapping(t_address,t_bool)))"
      },
      {
        "astId": 7540,
        "contract": "contracts/PathwayNFT.sol:PathwayNFT",
        "label": "userRewardedForPathwayNative",
        "offset": 0,
        "slot": "41",
        "type": "t_mapping(t_string_memory_ptr,t_mapping(t_address,t_bool))"
      },
      {
        "astId": 7543,
        "contract": "contracts/PathwayNFT.sol:PathwayNFT",
        "label": "fee",
        "offset": 0,
        "slot": "42",
        "type": "t_uint256"
      }
    ],
    "types": {
      "t_address": {
        "encoding": "inplace",
        "label": "address",
        "numberOfBytes": "20"
      },
      "t_array(t_address)dyn_storage": {
        "base": "t_address",
        "encoding": "dynamic_array",
        "label": "address[]",
        "numberOfBytes": "32"
      },
      "t_array(t_uint256)dyn_storage": {
        "base": "t_uint256",
        "encoding": "dynamic_array",
        "label": "uint256[]",
        "numberOfBytes": "32"
      },
      "t_array(t_uint8)dyn_storage": {
        "base": "t_uint8",
        "encoding": "dynamic_array",
        "label": "uint8[]",
        "numberOfBytes": "32"
      },
      "t_bool": {
        "encoding": "inplace",
        "label": "bool",
        "numberOfBytes": "1"
      },
      "t_contract(RandomNumberConsumer)11651": {
        "encoding": "inplace",
        "label": "contract RandomNumberConsumer",
        "numberOfBytes": "20"
      },
      "t_contract(Verify)12312": {
        "encoding": "inplace",
        "label": "contract Verify",
        "numberOfBytes": "20"
      },
      "t_enum(PathwayStatus)7548": {
        "encoding": "inplace",
        "label": "enum PathwayNFT.PathwayStatus",
        "numberOfBytes": "1"
      },
      "t_mapping(t_address,t_bool)": {
        "encoding": "mapping",
        "key": "t_address",
        "label": "mapping(address => bool)",
        "numberOfBytes": "32",
        "value": "t_bool"
      },
      "t_mapping(t_address,t_mapping(t_address,t_bool))": {
        "encoding": "mapping",
        "key": "t_address",
        "label": "mapping(address => mapping(address => bool))",
        "numberOfBytes": "32",
        "value": "t_mapping(t_address,t_bool)"
      },
      "t_mapping(t_address,t_mapping(t_uint256,t_uint256))": {
        "encoding": "mapping",
        "key": "t_address",
        "label": "mapping(address => mapping(uint256 => uint256))",
        "numberOfBytes": "32",
        "value": "t_mapping(t_uint256,t_uint256)"
      },
      "t_mapping(t_address,t_uint256)": {
        "encoding": "mapping",
        "key": "t_address",
        "label": "mapping(address => uint256)",
        "numberOfBytes": "32",
        "value": "t_uint256"
      },
      "t_mapping(t_string_memory_ptr,t_address)": {
        "encoding": "mapping",
        "key": "t_string_memory_ptr",
        "label": "mapping(string => address)",
        "numberOfBytes": "32",
        "value": "t_address"
      },
      "t_mapping(t_string_memory_ptr,t_array(t_address)dyn_storage)": {
        "encoding": "mapping",
        "key": "t_string_memory_ptr",
        "label": "mapping(string => address[])",
        "numberOfBytes": "32",
        "value": "t_array(t_address)dyn_storage"
      },
      "t_mapping(t_string_memory_ptr,t_bool)": {
        "encoding": "mapping",
        "key": "t_string_memory_ptr",
        "label": "mapping(string => bool)",
        "numberOfBytes": "32",
        "value": "t_bool"
      },
      "t_mapping(t_string_memory_ptr,t_enum(PathwayStatus)7548)": {
        "encoding": "mapping",
        "key": "t_string_memory_ptr",
        "label": "mapping(string => enum PathwayNFT.PathwayStatus)",
        "numberOfBytes": "32",
        "value": "t_enum(PathwayStatus)7548"
      },
      "t_mapping(t_string_memory_ptr,t_mapping(t_address,t_bool))": {
        "encoding": "mapping",
        "key": "t_string_memory_ptr",
        "label": "mapping(string => mapping(address => bool))",
        "numberOfBytes": "32",
        "value": "t_mapping(t_address,t_bool)"
      },
      "t_mapping(t_string_memory_ptr,t_mapping(t_address,t_mapping(t_address,t_bool)))": {
        "encoding": "mapping",
        "key": "t_string_memory_ptr",
        "label": "mapping(string => mapping(address => mapping(address => bool)))",
        "numberOfBytes": "32",
        "value": "t_mapping(t_address,t_mapping(t_address,t_bool))"
      },
      "t_mapping(t_string_memory_ptr,t_mapping(t_address,t_uint256))": {
        "encoding": "mapping",
        "key": "t_string_memory_ptr",
        "label": "mapping(string => mapping(address => uint256))",
        "numberOfBytes": "32",
        "value": "t_mapping(t_address,t_uint256)"
      },
      "t_mapping(t_string_memory_ptr,t_mapping(t_uint256,t_array(t_address)dyn_storage))": {
        "encoding": "mapping",
        "key": "t_string_memory_ptr",
        "label": "mapping(string => mapping(uint256 => address[]))",
        "numberOfBytes": "32",
        "value": "t_mapping(t_uint256,t_array(t_address)dyn_storage)"
      },
      "t_mapping(t_string_memory_ptr,t_mapping(t_uint256,t_array(t_uint256)dyn_storage))": {
        "encoding": "mapping",
        "key": "t_string_memory_ptr",
        "label": "mapping(string => mapping(uint256 => uint256[]))",
        "numberOfBytes": "32",
        "value": "t_mapping(t_uint256,t_array(t_uint256)dyn_storage)"
      },
      "t_mapping(t_string_memory_ptr,t_mapping(t_uint256,t_mapping(t_address,t_bool)))": {
        "encoding": "mapping",
        "key": "t_string_memory_ptr",
        "label": "mapping(string => mapping(uint256 => mapping(address => bool)))",
        "numberOfBytes": "32",
        "value": "t_mapping(t_uint256,t_mapping(t_address,t_bool))"
      },
      "t_mapping(t_string_memory_ptr,t_string_storage)": {
        "encoding": "mapping",
        "key": "t_string_memory_ptr",
        "label": "mapping(string => string)",
        "numberOfBytes": "32",
        "value": "t_string_storage"
      },
      "t_mapping(t_string_memory_ptr,t_uint256)": {
        "encoding": "mapping",
        "key": "t_string_memory_ptr",
        "label": "mapping(string => uint256)",
        "numberOfBytes": "32",
        "value": "t_uint256"
      },
      "t_mapping(t_uint256,t_address)": {
        "encoding": "mapping",
        "key": "t_uint256",
        "label": "mapping(uint256 => address)",
        "numberOfBytes": "32",
        "value": "t_address"
      },
      "t_mapping(t_uint256,t_array(t_address)dyn_storage)": {
        "encoding": "mapping",
        "key": "t_uint256",
        "label": "mapping(uint256 => address[])",
        "numberOfBytes": "32",
        "value": "t_array(t_address)dyn_storage"
      },
      "t_mapping(t_uint256,t_array(t_uint256)dyn_storage)": {
        "encoding": "mapping",
        "key": "t_uint256",
        "label": "mapping(uint256 => uint256[])",
        "numberOfBytes": "32",
        "value": "t_array(t_uint256)dyn_storage"
      },
      "t_mapping(t_uint256,t_mapping(t_address,t_bool))": {
        "encoding": "mapping",
        "key": "t_uint256",
        "label": "mapping(uint256 => mapping(address => bool))",
        "numberOfBytes": "32",
        "value": "t_mapping(t_address,t_bool)"
      },
      "t_mapping(t_uint256,t_string_storage)": {
        "encoding": "mapping",
        "key": "t_uint256",
        "label": "mapping(uint256 => string)",
        "numberOfBytes": "32",
        "value": "t_string_storage"
      },
      "t_mapping(t_uint256,t_struct(TokenInfo)7553_storage)": {
        "encoding": "mapping",
        "key": "t_uint256",
        "label": "mapping(uint256 => struct PathwayNFT.TokenInfo)",
        "numberOfBytes": "32",
        "value": "t_struct(TokenInfo)7553_storage"
      },
      "t_mapping(t_uint256,t_uint256)": {
        "encoding": "mapping",
        "key": "t_uint256",
        "label": "mapping(uint256 => uint256)",
        "numberOfBytes": "32",
        "value": "t_uint256"
      },
      "t_string_memory_ptr": {
        "encoding": "bytes",
        "label": "string",
        "numberOfBytes": "32"
      },
      "t_string_storage": {
        "encoding": "bytes",
        "label": "string",
        "numberOfBytes": "32"
      },
      "t_struct(Counter)3723_storage": {
        "encoding": "inplace",
        "label": "struct Counters.Counter",
        "members": [
          {
            "astId": 3722,
            "contract": "contracts/PathwayNFT.sol:PathwayNFT",
            "label": "_value",
            "offset": 0,
            "slot": "0",
            "type": "t_uint256"
          }
        ],
        "numberOfBytes": "32"
      },
      "t_struct(TokenInfo)7553_storage": {
        "encoding": "inplace",
        "label": "struct PathwayNFT.TokenInfo",
        "members": [
          {
            "astId": 7550,
            "contract": "contracts/PathwayNFT.sol:PathwayNFT",
            "label": "pathwayId",
            "offset": 0,
            "slot": "0",
            "type": "t_string_storage"
          },
          {
            "astId": 7552,
            "contract": "contracts/PathwayNFT.sol:PathwayNFT",
            "label": "version",
            "offset": 0,
            "slot": "1",
            "type": "t_uint256"
          }
        ],
        "numberOfBytes": "64"
      },
      "t_uint256": {
        "encoding": "inplace",
        "label": "uint256",
        "numberOfBytes": "32"
      },
      "t_uint8": {
        "encoding": "inplace",
        "label": "uint8",
        "numberOfBytes": "1"
      }
    }
  }
}