{
  "address": "0x2897fb5b6E9D6D48A0263Ff9D3eA08Dd6aaD6FaD",
  "abi": [
    {
      "inputs": [
        {
          "internalType": "address payable",
          "name": "_walletAddress",
          "type": "address"
        },
        {
          "internalType": "address[]",
          "name": "_reviewers",
          "type": "address[]"
        },
        {
          "internalType": "uint128",
          "name": "_initialThreshold",
          "type": "uint128"
        }
      ],
      "stateMutability": "nonpayable",
      "type": "constructor"
    },
    {
      "anonymous": false,
      "inputs": [
        {
          "indexed": true,
          "internalType": "address",
          "name": "owner",
          "type": "address"
        },
        {
          "indexed": true,
          "internalType": "address",
          "name": "approved",
          "type": "address"
        },
        {
          "indexed": true,
          "internalType": "uint256",
          "name": "tokenId",
          "type": "uint256"
        }
      ],
      "name": "Approval",
      "type": "event"
    },
    {
      "anonymous": false,
      "inputs": [
        {
          "indexed": true,
          "internalType": "address",
          "name": "owner",
          "type": "address"
        },
        {
          "indexed": true,
          "internalType": "address",
          "name": "operator",
          "type": "address"
        },
        {
          "indexed": false,
          "internalType": "bool",
          "name": "approved",
          "type": "bool"
        }
      ],
      "name": "ApprovalForAll",
      "type": "event"
    },
    {
      "anonymous": false,
      "inputs": [
        {
          "indexed": true,
          "internalType": "address",
          "name": "_to",
          "type": "address"
        },
        {
          "indexed": true,
          "internalType": "string",
          "name": "_tokenURI",
          "type": "string"
        },
        {
          "indexed": true,
          "internalType": "string",
          "name": "_questId",
          "type": "string"
        }
      ],
      "name": "NFTProjectMinted",
      "type": "event"
    },
    {
      "anonymous": false,
      "inputs": [
        {
          "indexed": true,
          "internalType": "address",
          "name": "previousOwner",
          "type": "address"
        },
        {
          "indexed": true,
          "internalType": "address",
          "name": "newOwner",
          "type": "address"
        }
      ],
      "name": "OwnershipTransferred",
      "type": "event"
    },
    {
      "anonymous": false,
      "inputs": [
        {
          "indexed": true,
          "internalType": "string",
          "name": "_projectId",
          "type": "string"
        }
      ],
      "name": "ProjectApproved",
      "type": "event"
    },
    {
      "anonymous": false,
      "inputs": [
        {
          "indexed": false,
          "internalType": "address",
          "name": "_caller",
          "type": "address"
        },
        {
          "indexed": false,
          "internalType": "uint256",
          "name": "_value",
          "type": "uint256"
        }
      ],
      "name": "ReceiveCalled",
      "type": "event"
    },
    {
      "anonymous": false,
      "inputs": [
        {
          "indexed": true,
          "internalType": "address",
          "name": "from",
          "type": "address"
        },
        {
          "indexed": true,
          "internalType": "address",
          "name": "to",
          "type": "address"
        },
        {
          "indexed": true,
          "internalType": "uint256",
          "name": "tokenId",
          "type": "uint256"
        }
      ],
      "name": "Transfer",
      "type": "event"
    },
    {
      "inputs": [
        {
          "internalType": "string",
          "name": "_projectId",
          "type": "string"
        },
        {
          "internalType": "address",
          "name": "newContributor",
          "type": "address"
        }
      ],
      "name": "addProjectContributor",
      "outputs": [],
      "stateMutability": "nonpayable",
      "type": "function"
    },
    {
      "inputs": [
        {
          "internalType": "string",
          "name": "_projectId",
          "type": "string"
        },
        {
          "internalType": "address",
          "name": "_projectWallet",
          "type": "address"
        },
        {
          "internalType": "string",
          "name": "level",
          "type": "string"
        }
      ],
      "name": "addProjectWallet",
      "outputs": [],
      "stateMutability": "payable",
      "type": "function"
    },
    {
      "inputs": [
        {
          "internalType": "address",
          "name": "_reviewer",
          "type": "address"
        }
      ],
      "name": "addReviewer",
      "outputs": [],
      "stateMutability": "nonpayable",
      "type": "function"
    },
    {
      "inputs": [],
      "name": "appWallet",
      "outputs": [
        {
          "internalType": "address payable",
          "name": "",
          "type": "address"
        }
      ],
      "stateMutability": "view",
      "type": "function"
    },
    {
      "inputs": [
        {
          "internalType": "address",
          "name": "to",
          "type": "address"
        },
        {
          "internalType": "uint256",
          "name": "tokenId",
          "type": "uint256"
        }
      ],
      "name": "approve",
      "outputs": [],
      "stateMutability": "nonpayable",
      "type": "function"
    },
    {
      "inputs": [
        {
          "internalType": "address",
          "name": "owner",
          "type": "address"
        }
      ],
      "name": "balanceOf",
      "outputs": [
        {
          "internalType": "uint256",
          "name": "",
          "type": "uint256"
        }
      ],
      "stateMutability": "view",
      "type": "function"
    },
    {
      "inputs": [
        {
          "internalType": "string",
          "name": "_projectId",
          "type": "string"
        },
        {
          "internalType": "address",
          "name": "newAddr",
          "type": "address"
        }
      ],
      "name": "changeProjectWallet",
      "outputs": [],
      "stateMutability": "nonpayable",
      "type": "function"
    },
    {
      "inputs": [
        {
          "internalType": "uint32[]",
          "name": "firstURIParts",
          "type": "uint32[]"
        },
        {
          "internalType": "uint256[]",
          "name": "secondURIParts",
          "type": "uint256[]"
        },
        {
          "internalType": "string",
          "name": "_projectId",
          "type": "string"
        }
      ],
      "name": "createToken",
      "outputs": [
        {
          "internalType": "uint256[]",
          "name": "",
          "type": "uint256[]"
        }
      ],
      "stateMutability": "nonpayable",
      "type": "function"
    },
    {
      "inputs": [],
      "name": "getAppDiamond",
      "outputs": [
        {
          "internalType": "address",
          "name": "",
          "type": "address"
        }
      ],
      "stateMutability": "view",
      "type": "function"
    },
    {
      "inputs": [
        {
          "internalType": "uint256",
          "name": "tokenId",
          "type": "uint256"
        }
      ],
      "name": "getApproved",
      "outputs": [
        {
          "internalType": "address",
          "name": "",
          "type": "address"
        }
      ],
      "stateMutability": "view",
      "type": "function"
    },
    {
      "inputs": [
        {
          "internalType": "string",
          "name": "_projectId",
          "type": "string"
        }
      ],
      "name": "getContributors",
      "outputs": [
        {
          "internalType": "address[]",
          "name": "",
          "type": "address[]"
        }
      ],
      "stateMutability": "view",
      "type": "function"
    },
    {
      "inputs": [],
      "name": "getSFTAddr",
      "outputs": [
        {
          "internalType": "address",
          "name": "",
          "type": "address"
        }
      ],
      "stateMutability": "view",
      "type": "function"
    },
    {
      "inputs": [
        {
          "internalType": "address",
          "name": "owner",
          "type": "address"
        },
        {
          "internalType": "address",
          "name": "operator",
          "type": "address"
        }
      ],
      "name": "isApprovedForAll",
      "outputs": [
        {
          "internalType": "bool",
          "name": "",
          "type": "bool"
        }
      ],
      "stateMutability": "view",
      "type": "function"
    },
    {
      "inputs": [],
      "name": "multiSigThreshold",
      "outputs": [
        {
          "internalType": "uint128",
          "name": "",
          "type": "uint128"
        }
      ],
      "stateMutability": "view",
      "type": "function"
    },
    {
      "inputs": [],
      "name": "name",
      "outputs": [
        {
          "internalType": "string",
          "name": "",
          "type": "string"
        }
      ],
      "stateMutability": "view",
      "type": "function"
    },
    {
      "inputs": [],
      "name": "numReviewers",
      "outputs": [
        {
          "internalType": "uint128",
          "name": "",
          "type": "uint128"
        }
      ],
      "stateMutability": "view",
      "type": "function"
    },
    {
      "inputs": [],
      "name": "owner",
      "outputs": [
        {
          "internalType": "address",
          "name": "",
          "type": "address"
        }
      ],
      "stateMutability": "view",
      "type": "function"
    },
    {
      "inputs": [
        {
          "internalType": "uint256",
          "name": "tokenId",
          "type": "uint256"
        }
      ],
      "name": "ownerOf",
      "outputs": [
        {
          "internalType": "address",
          "name": "",
          "type": "address"
        }
      ],
      "stateMutability": "view",
      "type": "function"
    },
    {
      "inputs": [
        {
          "internalType": "string",
          "name": "",
          "type": "string"
        }
      ],
      "name": "projectMinted",
      "outputs": [
        {
          "internalType": "bool",
          "name": "",
          "type": "bool"
        }
      ],
      "stateMutability": "view",
      "type": "function"
    },
    {
      "inputs": [
        {
          "internalType": "string",
          "name": "_projectId",
          "type": "string"
        }
      ],
      "name": "projectRefund",
      "outputs": [],
      "stateMutability": "payable",
      "type": "function"
    },
    {
      "inputs": [
        {
          "internalType": "string",
          "name": "",
          "type": "string"
        }
      ],
      "name": "projectThresholds",
      "outputs": [
        {
          "internalType": "uint256",
          "name": "",
          "type": "uint256"
        }
      ],
      "stateMutability": "view",
      "type": "function"
    },
    {
      "inputs": [
        {
          "internalType": "string",
          "name": "",
          "type": "string"
        }
      ],
      "name": "projectWallets",
      "outputs": [
        {
          "internalType": "address",
          "name": "",
          "type": "address"
        }
      ],
      "stateMutability": "view",
      "type": "function"
    },
    {
      "inputs": [
        {
          "internalType": "string",
          "name": "",
          "type": "string"
        }
      ],
      "name": "refundPerProject",
      "outputs": [
        {
          "internalType": "uint256",
          "name": "",
          "type": "uint256"
        }
      ],
      "stateMutability": "view",
      "type": "function"
    },
    {
      "inputs": [],
      "name": "renounceOwnership",
      "outputs": [],
      "stateMutability": "nonpayable",
      "type": "function"
    },
    {
      "inputs": [
        {
          "internalType": "string",
          "name": "",
          "type": "string"
        },
        {
          "internalType": "address",
          "name": "",
          "type": "address"
        }
      ],
      "name": "reviewerVotes",
      "outputs": [
        {
          "internalType": "bool",
          "name": "",
          "type": "bool"
        }
      ],
      "stateMutability": "view",
      "type": "function"
    },
    {
      "inputs": [
        {
          "internalType": "address",
          "name": "",
          "type": "address"
        }
      ],
      "name": "reviewers",
      "outputs": [
        {
          "internalType": "bool",
          "name": "",
          "type": "bool"
        }
      ],
      "stateMutability": "view",
      "type": "function"
    },
    {
      "inputs": [
        {
          "internalType": "address",
          "name": "from",
          "type": "address"
        },
        {
          "internalType": "address",
          "name": "to",
          "type": "address"
        },
        {
          "internalType": "uint256",
          "name": "tokenId",
          "type": "uint256"
        }
      ],
      "name": "safeTransferFrom",
      "outputs": [],
      "stateMutability": "nonpayable",
      "type": "function"
    },
    {
      "inputs": [
        {
          "internalType": "address",
          "name": "from",
          "type": "address"
        },
        {
          "internalType": "address",
          "name": "to",
          "type": "address"
        },
        {
          "internalType": "uint256",
          "name": "tokenId",
          "type": "uint256"
        },
        {
          "internalType": "bytes",
          "name": "_data",
          "type": "bytes"
        }
      ],
      "name": "safeTransferFrom",
      "outputs": [],
      "stateMutability": "nonpayable",
      "type": "function"
    },
    {
      "inputs": [
        {
          "internalType": "address payable",
          "name": "_appDiamond",
          "type": "address"
        }
      ],
      "name": "setAppDiamond",
      "outputs": [],
      "stateMutability": "nonpayable",
      "type": "function"
    },
    {
      "inputs": [
        {
          "internalType": "address",
          "name": "operator",
          "type": "address"
        },
        {
          "internalType": "bool",
          "name": "approved",
          "type": "bool"
        }
      ],
      "name": "setApprovalForAll",
      "outputs": [],
      "stateMutability": "nonpayable",
      "type": "function"
    },
    {
      "inputs": [
        {
          "internalType": "address payable",
          "name": "_SFTAddr",
          "type": "address"
        }
      ],
      "name": "setSFTAddr",
      "outputs": [],
      "stateMutability": "nonpayable",
      "type": "function"
    },
    {
      "inputs": [
        {
          "internalType": "uint256",
          "name": "index",
          "type": "uint256"
        },
        {
          "internalType": "string",
          "name": "newName",
          "type": "string"
        }
      ],
      "name": "setStatusString",
      "outputs": [],
      "stateMutability": "nonpayable",
      "type": "function"
    },
    {
      "inputs": [
        {
          "internalType": "uint128",
          "name": "_newThreshold",
          "type": "uint128"
        }
      ],
      "name": "setThreshold",
      "outputs": [],
      "stateMutability": "nonpayable",
      "type": "function"
    },
    {
      "inputs": [
        {
          "internalType": "string",
          "name": "",
          "type": "string"
        }
      ],
      "name": "sponsorLevel",
      "outputs": [
        {
          "internalType": "uint256",
          "name": "",
          "type": "uint256"
        }
      ],
      "stateMutability": "view",
      "type": "function"
    },
    {
      "inputs": [
        {
          "internalType": "string",
          "name": "",
          "type": "string"
        }
      ],
      "name": "stakePerProject",
      "outputs": [
        {
          "internalType": "uint256",
          "name": "",
          "type": "uint256"
        }
      ],
      "stateMutability": "view",
      "type": "function"
    },
    {
      "inputs": [
        {
          "internalType": "string",
          "name": "",
          "type": "string"
        }
      ],
      "name": "status",
      "outputs": [
        {
          "internalType": "enum ProjectNFT.ProjectStatus",
          "name": "",
          "type": "uint8"
        }
      ],
      "stateMutability": "view",
      "type": "function"
    },
    {
      "inputs": [
        {
          "internalType": "uint256",
          "name": "",
          "type": "uint256"
        }
      ],
      "name": "statusStrings",
      "outputs": [
        {
          "internalType": "string",
          "name": "",
          "type": "string"
        }
      ],
      "stateMutability": "view",
      "type": "function"
    },
    {
      "inputs": [
        {
          "internalType": "bytes4",
          "name": "interfaceId",
          "type": "bytes4"
        }
      ],
      "name": "supportsInterface",
      "outputs": [
        {
          "internalType": "bool",
          "name": "",
          "type": "bool"
        }
      ],
      "stateMutability": "view",
      "type": "function"
    },
    {
      "inputs": [],
      "name": "symbol",
      "outputs": [
        {
          "internalType": "string",
          "name": "",
          "type": "string"
        }
      ],
      "stateMutability": "view",
      "type": "function"
    },
    {
      "inputs": [
        {
          "internalType": "uint256",
          "name": "tokenId",
          "type": "uint256"
        }
      ],
      "name": "tokenURI",
      "outputs": [
        {
          "internalType": "string",
          "name": "",
          "type": "string"
        }
      ],
      "stateMutability": "view",
      "type": "function"
    },
    {
      "inputs": [
        {
          "internalType": "address",
          "name": "from",
          "type": "address"
        },
        {
          "internalType": "address",
          "name": "to",
          "type": "address"
        },
        {
          "internalType": "uint256",
          "name": "tokenId",
          "type": "uint256"
        }
      ],
      "name": "transferFrom",
      "outputs": [],
      "stateMutability": "nonpayable",
      "type": "function"
    },
    {
      "inputs": [
        {
          "internalType": "address",
          "name": "newOwner",
          "type": "address"
        }
      ],
      "name": "transferOwnership",
      "outputs": [],
      "stateMutability": "nonpayable",
      "type": "function"
    },
    {
      "inputs": [
        {
          "internalType": "string",
          "name": "_projectId",
          "type": "string"
        },
        {
          "internalType": "string",
          "name": "newLevel",
          "type": "string"
        }
      ],
      "name": "updateSponsorLevel",
      "outputs": [],
      "stateMutability": "payable",
      "type": "function"
    },
    {
      "inputs": [
        {
          "internalType": "address[]",
          "name": "_contributors",
          "type": "address[]"
        },
        {
          "internalType": "uint256",
          "name": "_threshold",
          "type": "uint256"
        },
        {
          "internalType": "string",
          "name": "_projectId",
          "type": "string"
        }
      ],
      "name": "voteForApproval",
      "outputs": [],
      "stateMutability": "nonpayable",
      "type": "function"
    },
    {
      "inputs": [
        {
          "internalType": "string",
          "name": "_projectId",
          "type": "string"
        }
      ],
      "name": "voteForRejection",
      "outputs": [],
      "stateMutability": "nonpayable",
      "type": "function"
    },
    {
      "inputs": [
        {
          "internalType": "string",
          "name": "",
          "type": "string"
        }
      ],
      "name": "votes",
      "outputs": [
        {
          "internalType": "uint256",
          "name": "",
          "type": "uint256"
        }
      ],
      "stateMutability": "view",
      "type": "function"
    },
    {
      "inputs": [
        {
          "internalType": "string",
          "name": "",
          "type": "string"
        }
      ],
      "name": "votesReject",
      "outputs": [
        {
          "internalType": "uint256",
          "name": "",
          "type": "uint256"
        }
      ],
      "stateMutability": "view",
      "type": "function"
    },
    {
      "stateMutability": "payable",
      "type": "receive"
    }
  ],
  "transactionHash": "0x18e3d1cd0322588175138cf0150dc6e27cd781aef71331f77472e51c5cb3c9ef",
  "args": [
    "0x7E13623dd5D070967c8568066bE81a3E5bF75226",
    [
      "0x7E13623dd5D070967c8568066bE81a3E5bF75226",
      "0xA072f8Bd3847E21C8EdaAf38D7425631a2A63631",
      "0x2c0B08C414A8EE088596832cf64eFcA283D46703",
      "0x16eBE01dCae1338f8d1802C63712C5279e768d29",
      "0x3E31155a1c17c9F85e74828447aec412090a4622",
      "0x4678854dB7421fF1B3C5ACAe6c5C11e73f4F5702",
      "0xDAFf97a69408Cdb4AeFE331eA029a55e189ef60b",
      "0xD39C3Cdb811f6544067ECFeDEf40855578cA0C52"
    ],
    10
  ],
  "numDeployments": 5,
  "solcInputHash": "2d2b29efc4eee97580adb0204de1afc9",
  "bytecode": "0x60806040523480156200001157600080fd5b506040516200564838038062005648833981016040819052620000349162000604565b604080518082018252600f81526e1910dbdb5c185cdcd41c9bda9958dd608a1b6020808301918252835180850190945260088452672221a7a6a82927a560c11b9084015281519192916200008b9160009162000534565b508051620000a190600190602084019062000534565b505050620000be620000b8620004de60201b60201c565b620004e2565b6000825111620001155760405162461bcd60e51b815260206004820152601d60248201527f4d7573742068617665206174206c65617374203120726576696577657200000060448201526064015b60405180910390fd5b6000816001600160801b03161180156200013957506064816001600160801b031611155b6200017b5760405162461bcd60e51b81526020600482015260116024820152701a5b9d985b1a59081d1a1c995cda1bdb19607a1b60448201526064016200010c565b600b80546001600160801b0319166001600160801b038316179055600c80546001600160a01b0319166001600160a01b03851617905560005b8251811015620002eb5760006001600160a01b0316838281518110620001de57620001de620007a3565b60200260200101516001600160a01b0316141580156200023b5750600a6000848381518110620002125762000212620007a3565b6020908102919091018101516001600160a01b031682528101919091526040016000205460ff16155b15620002d6576001600a60008584815181106200025c576200025c620007a3565b6020908102919091018101516001600160a01b03168252810191909152604001600020805460ff1916911515919091179055600b8054600160801b90046001600160801b0316906010620002b08362000745565b91906101000a8154816001600160801b0302191690836001600160801b03160217905550505b80620002e2816200076f565b915050620001b4565b5060408051808201909152600b81526a1393d391561254d511539560aa1b60208083019182526000805260159052905162000348917fa31547ce6245cdb9ecea19cf8c7eb9f5974025bb4075011409251ae855b30aed9162000534565b5060408051808201909152600781526650454e44494e4760c81b60208083019182526001600052601590529051620003a2917f27739e4bb5e6f8b5e4b57a047dca8767cc9b982a011081e086cbb0dfa9de818d9162000534565b5060408051808201909152600681526511115392515160d21b60208083019182526002600052601590529051620003fb917f07d4ff730d9753101d832555708a37d38c2c45fce8cacaefc99f06074e93fe0b9162000534565b506040805180820190915260088152671054141493d5915160c21b6020808301918252600360005260159052905162000456917fb3a65e8276bd33b3e4f7d6081ebd9899187264822358758dca2e2bc37b2a9c279162000534565b506001601460405162000475906529a4a62b22a960d11b815260060190565b908152604051908190036020018120919091556311d3d31160e21b815260029060149060040190815260405190819003602001812091909155661112505353d39160ca1b81526003906014906007019081526040519081900360200190205550620007e8915050565b3390565b600780546001600160a01b038381166001600160a01b0319831681179093556040519116919082907f8be0079c531659141344cd1fd0a4f28419497f9722a3daafe3b4186f6b6457e090600090a35050565b828054620005429062000708565b90600052602060002090601f016020900481019282620005665760008555620005b1565b82601f106200058157805160ff1916838001178555620005b1565b82800160010185558215620005b1579182015b82811115620005b157825182559160200191906001019062000594565b50620005bf929150620005c3565b5090565b5b80821115620005bf5760008155600101620005c4565b8051620005e781620007cf565b919050565b80516001600160801b0381168114620005e757600080fd5b6000806000606084860312156200061a57600080fd5b83516200062781620007cf565b602085810151919450906001600160401b03808211156200064757600080fd5b818701915087601f8301126200065c57600080fd5b815181811115620006715762000671620007b9565b8060051b604051601f19603f83011681018181108582111715620006995762000699620007b9565b604052828152858101935084860182860187018c1015620006b957600080fd5b600095505b83861015620006e757620006d281620005da565b855260019590950194938601938601620006be565b50809750505050505050620006ff60408501620005ec565b90509250925092565b600181811c908216806200071d57607f821691505b602082108114156200073f57634e487b7160e01b600052602260045260246000fd5b50919050565b60006001600160801b03828116808214156200076557620007656200078d565b6001019392505050565b60006000198214156200078657620007866200078d565b5060010190565b634e487b7160e01b600052601160045260246000fd5b634e487b7160e01b600052603260045260246000fd5b634e487b7160e01b600052604160045260246000fd5b6001600160a01b0381168114620007e557600080fd5b50565b614e5080620007f86000396000f3fe60806040526004361061028c5760003560e01c806382171fbe1161015a578063b2f3f80c116100c1578063e985e9c51161007a578063e985e9c514610939578063ee335b4214610982578063f1e3fad9146109a2578063f2fde38b146109b5578063f7cbb1b2146109d5578063fa824ea414610a0557600080fd5b8063b2f3f80c14610832578063b88d4fde14610859578063b99ef1fa14610879578063c87b56dd146108b1578063d57c9c82146108d1578063e8ca64f4146108f157600080fd5b8063a479030b11610113578063a479030b14610774578063a94cb7fd146107a1578063aaa545d0146107bf578063ac6f0e05146107ec578063ace8a365146107ff578063b03e4dd51461081257600080fd5b806382171fbe1461067b5780638da5cb5b146106b657806395d89b41146106d45780639e1b567c146106e9578063a22cb46514610734578063a41641b61461075457600080fd5b806323b872dd116101fe578063500b5bd6116101b7578063500b5bd6146105b05780636352211e146105ce57806368929b5c146105ee57806370a0823114610626578063715018a61461064657806373a82b5f1461065b57600080fd5b806323b872dd146104c05780632751c4e1146104e05780633876e05e1461050057806338b686cb1461052057806342842e0e146105585780634badfeb21461057857600080fd5b80630d46ed21116102505780630d46ed21146103a15780630d58dd08146103c15780630e3c22cb1461040257806310cd3a9c1461042257806315e5aaab146104685780631e97aa5c146104a057600080fd5b806301ffc9a7146102d057806304dcd3001461030557806306fdde0314610332578063081812fc14610347578063095ea7b31461037f57600080fd5b366102cb57604080513381523460208201527f64c983f10188c30a885d77970aa5aae9a86e80ef9b459ad33cc620eb5999e070910160405180910390a1005b600080fd5b3480156102dc57600080fd5b506102f06102eb36600461461f565b610a3d565b60405190151581526020015b60405180910390f35b34801561031157600080fd5b506103256103203660046147bf565b610a8f565b6040516102fc91906149d4565b34801561033e57600080fd5b50610325610b29565b34801561035357600080fd5b506103676103623660046147bf565b610bbb565b6040516001600160a01b0390911681526020016102fc565b34801561038b57600080fd5b5061039f61039a366004614427565b610c48565b005b3480156103ad57600080fd5b5061039f6103bc3660046147f1565b610d5e565b3480156103cd57600080fd5b506103676103dc366004614659565b80516020818301810180516010825292820191909301209152546001600160a01b031681565b34801561040e57600080fd5b5061039f61041d3660046142e3565b610dac565b34801561042e57600080fd5b5061045a61043d366004614659565b805160208183018101805160128252928201919093012091525481565b6040519081526020016102fc565b34801561047457600080fd5b5061045a610483366004614659565b805160208183018101805160118252928201919093012091525481565b3480156104ac57600080fd5b5061039f6104bb366004614453565b610e10565b3480156104cc57600080fd5b5061039f6104db366004614339565b611453565b3480156104ec57600080fd5b5061039f6104fb3660046142e3565b611484565b34801561050c57600080fd5b50600c54610367906001600160a01b031681565b34801561052c57600080fd5b5061045a61053b366004614659565b8051602081830181018051601b8252928201919093012091525481565b34801561056457600080fd5b5061039f610573366004614339565b6114e8565b34801561058457600080fd5b50600b54610598906001600160801b031681565b6040516001600160801b0390911681526020016102fc565b3480156105bc57600080fd5b50600d546001600160a01b0316610367565b3480156105da57600080fd5b506103676105e93660046147bf565b611503565b3480156105fa57600080fd5b5061045a610609366004614659565b805160208183018101805160188252928201919093012091525481565b34801561063257600080fd5b5061045a6106413660046142e3565b61157a565b34801561065257600080fd5b5061039f611601565b34801561066757600080fd5b5061039f6106763660046142e3565b611667565b34801561068757600080fd5b506102f0610696366004614659565b8051602081830181018051601a8252928201919093012091525460ff1681565b3480156106c257600080fd5b506007546001600160a01b0316610367565b3480156106e057600080fd5b5061032561175e565b3480156106f557600080fd5b506102f061070436600461468d565b81516020818401810180516019825292820194820194909420919093529091526000908152604090205460ff1681565b34801561074057600080fd5b5061039f61074f3660046143f9565b61176d565b34801561076057600080fd5b5061039f61076f366004614659565b61177c565b34801561078057600080fd5b5061079461078f366004614524565b611ac3565b6040516102fc9190614974565b3480156107ad57600080fd5b50600e546001600160a01b0316610367565b3480156107cb57600080fd5b506107df6107da366004614659565b6120f3565b6040516102fc9190614927565b61039f6107fa3660046146d3565b61216d565b61039f61080d366004614659565b612601565b34801561081e57600080fd5b5061039f61082d366004614796565b61273d565b34801561083e57600080fd5b50600b5461059890600160801b90046001600160801b031681565b34801561086557600080fd5b5061039f61087436600461437a565b6127fa565b34801561088557600080fd5b5061045a610894366004614659565b805160208183018101805160178252928201919093012091525481565b3480156108bd57600080fd5b506103256108cc3660046147bf565b61282c565b3480156108dd57600080fd5b5061039f6108ec36600461468d565b6129a3565b3480156108fd57600080fd5b5061092c61090c366004614659565b805160208183018101805160168252928201919093012091525460ff1681565b6040516102fc91906149ac565b34801561094557600080fd5b506102f0610954366004614300565b6001600160a01b03918216600090815260056020908152604080832093909416825291909152205460ff1690565b34801561098e57600080fd5b5061039f61099d36600461468d565b612ac0565b61039f6109b0366004614733565b612dcc565b3480156109c157600080fd5b5061039f6109d03660046142e3565b6135e0565b3480156109e157600080fd5b506102f06109f03660046142e3565b600a6020526000908152604090205460ff1681565b348015610a1157600080fd5b5061045a610a20366004614659565b805160208183018101805160138252928201919093012091525481565b60006001600160e01b031982166380ac58cd60e01b1480610a6e57506001600160e01b03198216635b5e139f60e01b145b80610a8957506301ffc9a760e01b6001600160e01b03198316145b92915050565b60156020526000908152604090208054610aa890614ce2565b80601f0160208091040260200160405190810160405280929190818152602001828054610ad490614ce2565b8015610b215780601f10610af657610100808354040283529160200191610b21565b820191906000526020600020905b815481529060010190602001808311610b0457829003601f168201915b505050505081565b606060008054610b3890614ce2565b80601f0160208091040260200160405190810160405280929190818152602001828054610b6490614ce2565b8015610bb15780601f10610b8657610100808354040283529160200191610bb1565b820191906000526020600020905b815481529060010190602001808311610b9457829003601f168201915b5050505050905090565b6000610bc6826136ab565b610c2c5760405162461bcd60e51b815260206004820152602c60248201527f4552433732313a20617070726f76656420717565727920666f72206e6f6e657860448201526b34b9ba32b73a103a37b5b2b760a11b60648201526084015b60405180910390fd5b506000908152600460205260409020546001600160a01b031690565b6000610c5382611503565b9050806001600160a01b0316836001600160a01b03161415610cc15760405162461bcd60e51b815260206004820152602160248201527f4552433732313a20617070726f76616c20746f2063757272656e74206f776e656044820152603960f91b6064820152608401610c23565b336001600160a01b0382161480610cdd5750610cdd8133610954565b610d4f5760405162461bcd60e51b815260206004820152603860248201527f4552433732313a20617070726f76652063616c6c6572206973206e6f74206f7760448201527f6e6572206e6f7220617070726f76656420666f7220616c6c00000000000000006064820152608401610c23565b610d5983836136c8565b505050565b336000908152600a602052604090205460ff16610d8d5760405162461bcd60e51b8152600401610c23906149e7565b60008281526015602090815260409091208251610d599284019061410c565b336000908152600a602052604090205460ff16610ddb5760405162461bcd60e51b8152600401610c23906149e7565b6001600160a01b038116610dee57600080fd5b600d80546001600160a01b0319166001600160a01b0392909216919091179055565b336000908152600a602052604090205460ff16610e3f5760405162461bcd60e51b8152600401610c23906149e7565b6001601682604051610e519190614859565b9081526040519081900360200190205460ff166003811115610e7557610e75614d9f565b14610eb75760405162461bcd60e51b8152602060048201526012602482015271737461747573206e6f742070656e64696e6760701b6044820152606401610c23565b601981604051610ec79190614859565b90815260200160405180910390206000610ede3390565b6001600160a01b0316815260208101919091526040016000205460ff1615610f485760405162461bcd60e51b815260206004820152601e60248201527f616c726561647920766f74656420666f7220746869732070726f6a65637400006044820152606401610c23565b60006001600160a01b0316601082604051610f639190614859565b908152604051908190036020019020546001600160a01b03161415610fbe5760405162461bcd60e51b81526020600482015260116024820152701b9bc81c1c9bda9958dd081dd85b1b195d607a1b6044820152606401610c23565b601781604051610fce9190614859565b9081526040519081900360200190208054906000610feb83614d44565b919050555060016019826040516110029190614859565b908152602001604051809103902060006110193390565b6001600160a01b0316815260208101919091526040908101600020805460ff19169215159290921790915551601790611053908390614859565b9081526020016040518091039020546001141561129c5760008351116110a95760405162461bcd60e51b815260206004820152600b60248201526a656d70747920617272617960a81b6044820152606401610c23565b6000821180156110ba575060648211155b6110fa5760405162461bcd60e51b81526020600482015260116024820152701a5b9d985b1a59081d1a1c995cda1bdb19607a1b6044820152606401610c23565b82600f8260405161110b9190614859565b9081526020016040518091039020908051906020019061112c929190614190565b5081601b8260405161113e9190614859565b90815260405190819003602001902055600b54606490611170906001600160801b03600160801b820481169116614c3a565b61117a9190614c00565b6001600160801b0316610d595760036016826040516111999190614859565b908152604051908190036020019020805460ff191660018360038111156111c2576111c2614d9f565b0217905550600c546040516000916001600160a01b0316906011906111e8908590614859565b9081526040519081900360200181205490600081818185875af1925050503d8060008114611232576040519150601f19603f3d011682016040523d82523d6000602084013e611237565b606091505b50509050806112585760405162461bcd60e51b8152600401610c2390614ad9565b816040516112669190614859565b604051908190038120907fae4295c58d61bc95278d93c0ce50389c66907d23767828ed2cf0c1b0cb80483e90600090a250505050565b600b546000906064906112c1906001600160801b03600160801b820481169116614c3a565b6112cb9190614c00565b600b546001600160801b0391821692506112ef91600160801b820481169116614c3a565b6001600160801b0316611303826064614c69565b1015611317578061131381614d44565b9150505b806017836040516113289190614859565b9081526020016040518091039020541061144d57600360168360405161134e9190614859565b908152604051908190036020019020805460ff1916600183600381111561137757611377614d9f565b0217905550600c546040516000916001600160a01b03169060119061139d908690614859565b9081526040519081900360200181205490600081818185875af1925050503d80600081146113e7576040519150601f19603f3d011682016040523d82523d6000602084013e6113ec565b606091505b505090508061140d5760405162461bcd60e51b8152600401610c2390614ad9565b8260405161141b9190614859565b604051908190038120907fae4295c58d61bc95278d93c0ce50389c66907d23767828ed2cf0c1b0cb80483e90600090a2505b50505050565b61145d3382613736565b6114795760405162461bcd60e51b8152600401610c2390614a88565b610d5983838361381c565b336000908152600a602052604090205460ff166114b35760405162461bcd60e51b8152600401610c23906149e7565b6001600160a01b0381166114c657600080fd5b600e80546001600160a01b0319166001600160a01b0392909216919091179055565b610d59838383604051806020016040528060008152506127fa565b6000818152600260205260408120546001600160a01b031680610a895760405162461bcd60e51b815260206004820152602960248201527f4552433732313a206f776e657220717565727920666f72206e6f6e657869737460448201526832b73a103a37b5b2b760b91b6064820152608401610c23565b60006001600160a01b0382166115e55760405162461bcd60e51b815260206004820152602a60248201527f4552433732313a2062616c616e636520717565727920666f7220746865207a65604482015269726f206164647265737360b01b6064820152608401610c23565b506001600160a01b031660009081526003602052604090205490565b6007546001600160a01b0316331461165b5760405162461bcd60e51b815260206004820181905260248201527f4f776e61626c653a2063616c6c6572206973206e6f7420746865206f776e65726044820152606401610c23565b61166560006139bc565b565b336000908152600a602052604090205460ff166116965760405162461bcd60e51b8152600401610c23906149e7565b6001600160a01b0381166000908152600a602052604090205460ff16156116f25760405162461bcd60e51b815260206004820152601060248201526f30b63932b0b23c903932bb34b2bbb2b960811b6044820152606401610c23565b6001600160a01b0381166000908152600a60205260409020805460ff19166001179055600b80546001600160801b03600160801b9091041690601061173683614d1d565b91906101000a8154816001600160801b0302191690836001600160801b031602179055505050565b606060018054610b3890614ce2565b611778338383613a0e565b5050565b336000908152600a602052604090205460ff166117ab5760405162461bcd60e51b8152600401610c23906149e7565b60016016826040516117bd9190614859565b9081526040519081900360200190205460ff1660038111156117e1576117e1614d9f565b146118245760405162461bcd60e51b815260206004820152601360248201527270726f6a656374206e6f742070656e64696e6760681b6044820152606401610c23565b6019816040516118349190614859565b9081526020016040518091039020600061184b3390565b6001600160a01b0316815260208101919091526040016000205460ff16156118b55760405162461bcd60e51b815260206004820152601e60248201527f616c726561647920766f74656420666f7220746869732070726f6a65637400006044820152606401610c23565b6018816040516118c59190614859565b90815260405190819003602001902080549060006118e283614d44565b919050555060016019826040516118f99190614859565b908152602001604051809103902060006119103390565b6001600160a01b0316815260208101919091526040016000908120805460ff191692151592909217909155600b5460649061195e90600160801b81046001600160801b039081169116614c3a565b6119689190614c00565b600b546001600160801b03918216925061198c91600160801b820481169116614c3a565b6001600160801b03166119a0826064614c69565b10156119b457806119b081614d44565b9150505b806018836040516119c59190614859565b908152602001604051809103902054106117785760026016836040516119eb9190614859565b908152604051908190036020019020805460ff19166001836003811115611a1457611a14614d9f565b02179055506000601083604051611a2b9190614859565b908152604051908190036020018120546001600160a01b031690601190611a53908690614859565b9081526040519081900360200181205490600081818185875af1925050503d8060008114611a9d576040519150601f19603f3d011682016040523d82523d6000602084013e611aa2565b606091505b5050905080610d595760405162461bcd60e51b8152600401610c2390614ad9565b336000908152600a602052604090205460609060ff16611af55760405162461bcd60e51b8152600401610c23906149e7565b6003601683604051611b079190614859565b9081526040519081900360200190205460ff166003811115611b2b57611b2b614d9f565b14611b6f5760405162461bcd60e51b81526020600482015260146024820152731a9bd8881b9bdd08185c1c1c9bdd9959081e595d60621b6044820152606401610c23565b601a82604051611b7f9190614859565b9081526040519081900360200190205460ff1615611bd05760405162461bcd60e51b815260206004820152600e60248201526d185b1c9958591e481b5a5b9d195960921b6044820152606401610c23565b82518451148015611c005750600f82604051611bec9190614859565b908152604051908190036020019020548451145b611c3d5760405162461bcd60e51b815260206004820152600e60248201526d696e636f7272656374206172727360901b6044820152606401610c23565b6000600f83604051611c4f9190614859565b908152604051908190036020019020546001600160401b03811115611c7657611c76614dcb565b604051908082528060200260200182016040528015611c9f578160200160208202803683370190505b5090506000606060005b600f86604051611cb99190614859565b90815260405190819003602001902054811015611e4a57611cde600880546001019055565b6008549250611d05888281518110611cf857611cf8614db5565b6020026020010151613add565b611d27888381518110611d1a57611d1a614db5565b6020026020010151613b80565b604051602001611d389291906148a4565b6040516020818303038152906040529150611d96600f87604051611d5c9190614859565b90815260200160405180910390208281548110611d7b57611d7b614db5565b6000918252602090912001546001600160a01b031684613c11565b611da08383613d44565b85604051611dae9190614859565b604051809103902082604051611dc49190614859565b6040518091039020600f88604051611ddc9190614859565b90815260200160405180910390208381548110611dfb57611dfb614db5565b60009182526020822001546040516001600160a01b03909116917f7ae1edbeb69892774d94c2010b6183269d48e647bbfddb34d22d5aaf08dd4ad491a480611e4281614d44565b915050611ca9565b50600d546040516000916001600160a01b0316907fc50441ae845872978b51f82be155098d8562f1c2acdfbdcd81e2617131c30d5f90611e8e9089906024016149d4565b60408051601f198184030181529181526020820180516001600160e01b03166001600160e01b0319909416939093179092529051611ecc9190614859565b6000604051808303816000865af19150503d8060008114611f09576040519150601f19603f3d011682016040523d82523d6000602084013e611f0e565b606091505b5050905080611f5f5760405162461bcd60e51b815260206004820152601760248201527f6469616d6f6e6420617070726f76616c206661696c65640000000000000000006044820152606401610c23565b600e546040516001600160a01b03909116907fe67e402ca6beeaacd513fae4bbf646bf7d901d594bb12deef43930a6d4a510da90601390611fa1908a90614859565b908152602001604051809103902054601089604051611fc09190614859565b90815260405190819003602001812054611feb92916001600160a01b03909116908b90602401614b02565b60408051601f198184030181529181526020820180516001600160e01b03166001600160e01b03199094169390931790925290516120299190614859565b6000604051808303816000865af19150503d8060008114612066576040519150601f19603f3d011682016040523d82523d6000602084013e61206b565b606091505b505080915050806120b45760405162461bcd60e51b81526020600482015260136024820152721cdc1bdb9cdbdc881b5a5b9d0819985a5b1959606a1b6044820152606401610c23565b6001601a876040516120c69190614859565b908152604051908190036020019020805491151560ff199092169190911790555091925050509392505050565b6060600f826040516121059190614859565b908152604080519182900360209081018320805480830285018301909352828452919083018282801561216157602002820191906000526020600020905b81546001600160a01b03168152600190910190602001808311612143575b50505050509050919050565b60006001600160a01b03166010846040516121889190614859565b908152604051908190036020019020546001600160a01b0316146121e75760405162461bcd60e51b8152602060048201526016602482015275185b1c9958591e481c1c9bda9958dd081dd85b1b195d60521b6044820152606401610c23565b60006016846040516121f99190614859565b9081526040519081900360200190205460ff16600381111561221d5761221d614d9f565b1461222757600080fd5b60006014826040516122399190614859565b9081526020016040518091039020549050600081116122925760405162461bcd60e51b8152602060048201526015602482015274696e76616c69642073706f6e736f72207374616b6560581b6044820152606401610c23565b600e5460408051602480820185905282518083039091018152604490910182526020810180516001600160e01b0316630e0da79d60e11b179052905160009283926001600160a01b03909116916122e99190614859565b6000604051808303816000865af19150503d8060008114612326576040519150601f19603f3d011682016040523d82523d6000602084013e61232b565b606091505b50915091508161233a57600080fd5b60008180602001905181019061235091906147d8565b9050803410156123965760405162461bcd60e51b81526020600482015260116024820152701b9bdd08195b9bdd59da081cdd185ad959607a1b6044820152606401610c23565b600e54604080516001600160a01b0389811660248084019190915283518084039091018152604490920183526020820180516001600160e01b031663f6edbc1960e01b179052915191909216916123ec91614859565b6000604051808303816000865af19150503d8060008114612429576040519150601f19603f3d011682016040523d82523d6000602084013e61242e565b606091505b5090935091508261243e57600080fd5b6000828060200190518101906124549190614602565b905080156124b75760405162461bcd60e51b815260206004820152602a60248201527f6164647265737320616c7265616479206c696e6b6564207769746820616374696044820152691d99481c1c9bda9958dd60b21b6064820152608401610c23565b866010896040516124c89190614859565b908152602001604051809103902060006101000a8154816001600160a01b0302191690836001600160a01b031602179055508160118960405161250b9190614859565b9081526020016040518091039020819055508460138960405161252e9190614859565b90815260200160405180910390208190555060016016896040516125529190614859565b908152604051908190036020019020805460ff1916600183600381111561257b5761257b614d9f565b0217905550813411156125f757336125938334614c88565b604051600081818185875af1925050503d80600081146125cf576040519150601f19603f3d011682016040523d82523d6000602084013e6125d4565b606091505b505080945050836125f75760405162461bcd60e51b8152600401610c2390614a61565b5050505050505050565b60016016826040516126139190614859565b9081526040519081900360200190205460ff16600381111561263757612637614d9f565b1480612676575060036016826040516126509190614859565b9081526040519081900360200190205460ff16600381111561267457612674614d9f565b145b6126b55760405162461bcd60e51b815260206004820152601060248201526f696e636f72726563742073746174757360801b6044820152606401610c23565b600c546001600160a01b0316336001600160a01b0316146127075760405162461bcd60e51b815260206004820152600c60248201526b3bb937b7339039b2b73232b960a11b6044820152606401610c23565b346012826040516127189190614859565b908152602001604051809103902060008282546127359190614bc3565b909155505050565b336000908152600a602052604090205460ff1661276c5760405162461bcd60e51b8152600401610c23906149e7565b6000816001600160801b031611801561278f57506064816001600160801b031611155b6127cf5760405162461bcd60e51b81526020600482015260116024820152701a5b9d985b1a59081d1a1c995cda1bdb19607a1b6044820152606401610c23565b600b80546fffffffffffffffffffffffffffffffff19166001600160801b0392909216919091179055565b6128043383613736565b6128205760405162461bcd60e51b8152600401610c2390614a88565b61144d84848484613dcf565b6060612837826136ab565b61289d5760405162461bcd60e51b815260206004820152603160248201527f45524337323155524953746f726167653a2055524920717565727920666f72206044820152703737b732bc34b9ba32b73a103a37b5b2b760791b6064820152608401610c23565b600082815260066020526040812080546128b690614ce2565b80601f01602080910402602001604051908101604052809291908181526020018280546128e290614ce2565b801561292f5780601f106129045761010080835404028352916020019161292f565b820191906000526020600020905b81548152906001019060200180831161291257829003601f168201915b50505050509050600061294d60408051602081019091526000815290565b9050805160001415612960575092915050565b81511561299257808260405160200161297a929190614875565b60405160208183030381529060405292505050919050565b61299b84613e02565b949350505050565b600e546001600160a01b0316336001600160a01b031614612a065760405162461bcd60e51b815260206004820152601860248201527f50726f6a6563744e46543a2077726f6e672063616c6c657200000000000000006044820152606401610c23565b60006001600160a01b0316601083604051612a219190614859565b908152604051908190036020019020546001600160a01b03161415612a7c5760405162461bcd60e51b81526020600482015260116024820152701b9bc81c1c9bda9958dd081dd85b1b195d607a1b6044820152606401610c23565b80601083604051612a8d9190614859565b90815260405190819003602001902080546001600160a01b03929092166001600160a01b03199092169190911790555050565b6000601683604051612ad29190614859565b9081526040519081900360200190205460ff166003811115612af657612af6614d9f565b1415612b3c5760405162461bcd60e51b81526020600482015260156024820152741c1c9bda9958dd08191bd95cdb89dd08195e1a5cdd605a1b6044820152606401610c23565b601a82604051612b4c9190614859565b9081526040519081900360200190205460ff1615612ba55760405162461bcd60e51b81526020600482015260166024820152751c1c9bda9958dd08185b1c9958591e481b5a5b9d195960521b6044820152606401610c23565b336000908152600a602052604090205460ff16600181612ccb576000600f85604051612bd19190614859565b9081526040805191829003602090810183208054808302850183019093528284529190830182828015612c2d57602002820191906000526020600020905b81546001600160a01b03168152600190910190602001808311612c0f575b5050505050905060005b8151811015612cc857818181518110612c5257612c52614db5565b60200260200101516001600160a01b0316612c6a3390565b6001600160a01b03161415612c7e57600193505b818181518110612c9057612c90614db5565b60200260200101516001600160a01b0316856001600160a01b03161415612cb657600092505b80612cc081614d44565b915050612c37565b50505b81612d2a5760405162461bcd60e51b815260206004820152602960248201527f6d75737420626520612070726f6a65637420636f6e7472696275746f72206f72604482015268103932bb34b2bbb2b960b91b6064820152608401610c23565b80612d775760405162461bcd60e51b815260206004820181905260248201527f616c7265616479206120636f6e7472696275746f72206f6e2070726f6a6563746044820152606401610c23565b600f84604051612d879190614859565b90815260405160209181900382019020805460018101825560009182529190200180546001600160a01b0319166001600160a01b039490941693909317909255505050565b6001601683604051612dde9190614859565b9081526040519081900360200190205460ff166003811115612e0257612e02614d9f565b1480612e4157506003601683604051612e1b9190614859565b9081526040519081900360200190205460ff166003811115612e3f57612e3f614d9f565b145b612e805760405162461bcd60e51b815260206004820152601060248201526f696e636f72726563742073746174757360801b6044820152606401610c23565b601082604051612e909190614859565b908152604051908190036020019020546001600160a01b0316612eb03390565b6001600160a01b031614612ef55760405162461bcd60e51b815260206004820152600c60248201526b3bb937b7339039b2b73232b960a11b6044820152606401610c23565b6000601482604051612f079190614859565b908152602001604051809103902054905060008111612f585760405162461bcd60e51b815260206004820152600d60248201526c1a5b9d985b1a59081b195d995b609a1b6044820152606401610c23565b600e5460408051602480820185905282518083039091018152604490910182526020810180516001600160e01b0316630e0da79d60e11b179052905160009283926001600160a01b0390911691612faf9190614859565b6000604051808303816000865af19150503d8060008114612fec576040519150601f19603f3d011682016040523d82523d6000602084013e612ff1565b606091505b50915091508161300057600080fd5b60008180602001905181019061301691906147d8565b9050600060118760405161302a9190614859565b9081526020016040518091039020549050600060138860405161304d9190614859565b90815260200160405180910390205490508581141561321b5760016016896040516130789190614859565b9081526040519081900360200190205460ff16600381111561309c5761309c614d9f565b1415613140578183101561313b57336130b58484614c88565b604051600081818185875af1925050503d80600081146130f1576040519150601f19603f3d011682016040523d82523d6000602084013e6130f6565b606091505b505080955050846131195760405162461bcd60e51b8152600401610c2390614a61565b8260118960405161312a9190614859565b908152604051908190036020019020555b6125f7565b336001600160a01b031660128960405161315a9190614859565b9081526040519081900360200181205490600081818185875af1925050503d80600081146131a4576040519150601f19603f3d011682016040523d82523d6000602084013e6131a9565b606091505b505080955050846131cc5760405162461bcd60e51b8152600401610c2390614a61565b826011896040516131dd9190614859565b9081526020016040518091039020819055506012886040516131ff9190614859565b9081526020016040518091039020600090555050505050505050565b8183116133855760016016896040516132349190614859565b9081526040519081900360200190205460ff16600381111561325857613258614d9f565b14156132d257336132698484614c88565b604051600081818185875af1925050503d80600081146132a5576040519150601f19603f3d011682016040523d82523d6000602084013e6132aa565b606091505b505080955050846132cd5760405162461bcd60e51b8152600401610c2390614a61565b613469565b336001600160a01b03166012896040516132ec9190614859565b9081526040519081900360200181205490600081818185875af1925050503d8060008114613336576040519150601f19603f3d011682016040523d82523d6000602084013e61333b565b606091505b5050809550508461335e5760405162461bcd60e51b8152600401610c2390614a61565b60128860405161336e9190614859565b908152602001604051809103902060009055613469565b61338f8284614c88565b3410156133de5760405162461bcd60e51b815260206004820152601f60248201527f696e737566666963656e742066756e647320666f72206e6577206c6576656c006044820152606401610c23565b6133e88284614c88565b3411156134695733836133fb8434614bc3565b6134059190614c88565b604051600081818185875af1925050503d8060008114613441576040519150601f19603f3d011682016040523d82523d6000602084013e613446565b606091505b505080955050846134695760405162461bcd60e51b8152600401610c2390614a61565b601a886040516134799190614859565b9081526040519081900360200190205460ff161561359257600e546040516001600160a01b03909116907f8f58ecc17b5391b137156cd2f17ee22d7e2ee685d8a264a53294baf38f62e16e9083906010906134d5908d90614859565b9081526040519081900360200181205461350292916001600160a01b03909116908d908c90602401614b35565b60408051601f198184030181529181526020820180516001600160e01b03166001600160e01b03199094169390931790925290516135409190614859565b6000604051808303816000865af19150503d806000811461357d576040519150601f19603f3d011682016040523d82523d6000602084013e613582565b606091505b5090955093508461359257600080fd5b826011896040516135a39190614859565b908152602001604051809103902081905550856013896040516135c69190614859565b908152604051908190036020019020555050505050505050565b6007546001600160a01b0316331461363a5760405162461bcd60e51b815260206004820181905260248201527f4f776e61626c653a2063616c6c6572206973206e6f7420746865206f776e65726044820152606401610c23565b6001600160a01b03811661369f5760405162461bcd60e51b815260206004820152602660248201527f4f776e61626c653a206e6577206f776e657220697320746865207a65726f206160448201526564647265737360d01b6064820152608401610c23565b6136a8816139bc565b50565b6000908152600260205260409020546001600160a01b0316151590565b600081815260046020526040902080546001600160a01b0319166001600160a01b03841690811790915581906136fd82611503565b6001600160a01b03167f8c5be1e5ebec7d5bd14f71427d1e84f3dd0314c0f7b2291e5b200ac8c7c3b92560405160405180910390a45050565b6000613741826136ab565b6137a25760405162461bcd60e51b815260206004820152602c60248201527f4552433732313a206f70657261746f7220717565727920666f72206e6f6e657860448201526b34b9ba32b73a103a37b5b2b760a11b6064820152608401610c23565b60006137ad83611503565b9050806001600160a01b0316846001600160a01b031614806137e85750836001600160a01b03166137dd84610bbb565b6001600160a01b0316145b8061299b57506001600160a01b0380821660009081526005602090815260408083209388168352929052205460ff1661299b565b826001600160a01b031661382f82611503565b6001600160a01b0316146138975760405162461bcd60e51b815260206004820152602960248201527f4552433732313a207472616e73666572206f6620746f6b656e2074686174206960448201526839903737ba1037bbb760b91b6064820152608401610c23565b6001600160a01b0382166138f95760405162461bcd60e51b8152602060048201526024808201527f4552433732313a207472616e7366657220746f20746865207a65726f206164646044820152637265737360e01b6064820152608401610c23565b6139046000826136c8565b6001600160a01b038316600090815260036020526040812080546001929061392d908490614c88565b90915550506001600160a01b038216600090815260036020526040812080546001929061395b908490614bc3565b909155505060008181526002602052604080822080546001600160a01b0319166001600160a01b0386811691821790925591518493918716917fddf252ad1be2c89b69c2b068fc378daa952ba7f163c4a11628f55a4df523b3ef91a4505050565b600780546001600160a01b038381166001600160a01b0319831681179093556040519116919082907f8be0079c531659141344cd1fd0a4f28419497f9722a3daafe3b4186f6b6457e090600090a35050565b816001600160a01b0316836001600160a01b03161415613a705760405162461bcd60e51b815260206004820152601960248201527f4552433732313a20617070726f766520746f2063616c6c6572000000000000006044820152606401610c23565b6001600160a01b03838116600081815260056020908152604080832094871680845294825291829020805460ff191686151590811790915591519182527f17307eab39ab6107e8899845ad3d59bd9653f200f220920489ca2b5937696c31910160405180910390a3505050565b60408051600880825281830190925260609160009190602082018180368337019050509050600f60085b8015613b7757613b18828616613eda565b60f81b83613b27600184614c88565b81518110613b3757613b37614db5565b60200101906001600160f81b031916908160001a9053506001811115613b655760048563ffffffff16901c94505b80613b6f81614ccb565b915050613b07565b50909392505050565b60408051818152606081810183529160009190602082018180368337019050509050600f60405b8015613b7757613bb8828616613eda565b60f81b83613bc7600184614c88565b81518110613bd757613bd7614db5565b60200101906001600160f81b031916908160001a9053506001811115613bff57600485901c94505b80613c0981614ccb565b915050613ba7565b6001600160a01b038216613c675760405162461bcd60e51b815260206004820181905260248201527f4552433732313a206d696e7420746f20746865207a65726f20616464726573736044820152606401610c23565b613c70816136ab565b15613cbd5760405162461bcd60e51b815260206004820152601c60248201527f4552433732313a20746f6b656e20616c7265616479206d696e746564000000006044820152606401610c23565b6001600160a01b0382166000908152600360205260408120805460019290613ce6908490614bc3565b909155505060008181526002602052604080822080546001600160a01b0319166001600160a01b03861690811790915590518392907fddf252ad1be2c89b69c2b068fc378daa952ba7f163c4a11628f55a4df523b3ef908290a45050565b613d4d826136ab565b613db05760405162461bcd60e51b815260206004820152602e60248201527f45524337323155524953746f726167653a2055524920736574206f66206e6f6e60448201526d32bc34b9ba32b73a103a37b5b2b760911b6064820152608401610c23565b60008281526006602090815260409091208251610d599284019061410c565b613dda84848461381c565b613de684848484613f02565b61144d5760405162461bcd60e51b8152600401610c2390614a0f565b6060613e0d826136ab565b613e715760405162461bcd60e51b815260206004820152602f60248201527f4552433732314d657461646174613a2055524920717565727920666f72206e6f60448201526e3732bc34b9ba32b73a103a37b5b2b760891b6064820152608401610c23565b6000613e8860408051602081019091526000815290565b90506000815111613ea85760405180602001604052806000815250613ed3565b80613eb28461400f565b604051602001613ec3929190614875565b6040516020818303038152906040525b9392505050565b600060098260ff1611613ef757613ef2826030614bdb565b610a89565b610a89826057614bdb565b60006001600160a01b0384163b1561400457604051630a85bd0160e11b81526001600160a01b0385169063150b7a0290613f469033908990889088906004016148ea565b602060405180830381600087803b158015613f6057600080fd5b505af1925050508015613f90575060408051601f3d908101601f19168201909252613f8d9181019061463c565b60015b613fea573d808015613fbe576040519150601f19603f3d011682016040523d82523d6000602084013e613fc3565b606091505b508051613fe25760405162461bcd60e51b8152600401610c2390614a0f565b805181602001fd5b6001600160e01b031916630a85bd0160e11b14905061299b565b506001949350505050565b6060816140335750506040805180820190915260018152600360fc1b602082015290565b8160005b811561405d578061404781614d44565b91506140569050600a83614c26565b9150614037565b6000816001600160401b0381111561407757614077614dcb565b6040519080825280601f01601f1916602001820160405280156140a1576020820181803683370190505b5090505b841561299b576140b6600183614c88565b91506140c3600a86614d5f565b6140ce906030614bc3565b60f81b8183815181106140e3576140e3614db5565b60200101906001600160f81b031916908160001a905350614105600a86614c26565b94506140a5565b82805461411890614ce2565b90600052602060002090601f01602090048101928261413a5760008555614180565b82601f1061415357805160ff1916838001178555614180565b82800160010185558215614180579182015b82811115614180578251825591602001919060010190614165565b5061418c9291506141e5565b5090565b828054828255906000526020600020908101928215614180579160200282015b8281111561418057825182546001600160a01b0319166001600160a01b039091161782556020909201916001909101906141b0565b5b8082111561418c57600081556001016141e6565b60006001600160401b0383111561421357614213614dcb565b614226601f8401601f1916602001614b70565b905082815283838301111561423a57600080fd5b828260208301376000602084830101529392505050565b600082601f83011261426257600080fd5b8135602061427761427283614ba0565b614b70565b80838252828201915082860187848660051b890101111561429757600080fd5b60005b858110156142b65781358452928401929084019060010161429a565b5090979650505050505050565b600082601f8301126142d457600080fd5b613ed3838335602085016141fa565b6000602082840312156142f557600080fd5b8135613ed381614de1565b6000806040838503121561431357600080fd5b823561431e81614de1565b9150602083013561432e81614de1565b809150509250929050565b60008060006060848603121561434e57600080fd5b833561435981614de1565b9250602084013561436981614de1565b929592945050506040919091013590565b6000806000806080858703121561439057600080fd5b843561439b81614de1565b935060208501356143ab81614de1565b92506040850135915060608501356001600160401b038111156143cd57600080fd5b8501601f810187136143de57600080fd5b6143ed878235602084016141fa565b91505092959194509250565b6000806040838503121561440c57600080fd5b823561441781614de1565b9150602083013561432e81614df6565b6000806040838503121561443a57600080fd5b823561444581614de1565b946020939093013593505050565b60008060006060848603121561446857600080fd5b83356001600160401b038082111561447f57600080fd5b818601915086601f83011261449357600080fd5b813560206144a361427283614ba0565b8083825282820191508286018b848660051b89010111156144c357600080fd5b600096505b848710156144ef5780356144db81614de1565b8352600196909601959183019183016144c8565b50975050870135945050604086013591508082111561450d57600080fd5b5061451a868287016142c3565b9150509250925092565b60008060006060848603121561453957600080fd5b83356001600160401b038082111561455057600080fd5b818601915086601f83011261456457600080fd5b8135602061457461427283614ba0565b8083825282820191508286018b848660051b890101111561459457600080fd5b600096505b848710156145c957803563ffffffff811681146145b557600080fd5b835260019690960195918301918301614599565b50975050870135925050808211156145e057600080fd5b6145ec87838801614251565b9350604086013591508082111561450d57600080fd5b60006020828403121561461457600080fd5b8151613ed381614df6565b60006020828403121561463157600080fd5b8135613ed381614e04565b60006020828403121561464e57600080fd5b8151613ed381614e04565b60006020828403121561466b57600080fd5b81356001600160401b0381111561468157600080fd5b61299b848285016142c3565b600080604083850312156146a057600080fd5b82356001600160401b038111156146b657600080fd5b6146c2858286016142c3565b925050602083013561432e81614de1565b6000806000606084860312156146e857600080fd5b83356001600160401b03808211156146ff57600080fd5b61470b878388016142c3565b94506020860135915061471d82614de1565b9092506040850135908082111561450d57600080fd5b6000806040838503121561474657600080fd5b82356001600160401b038082111561475d57600080fd5b614769868387016142c3565b9350602085013591508082111561477f57600080fd5b5061478c858286016142c3565b9150509250929050565b6000602082840312156147a857600080fd5b81356001600160801b0381168114613ed357600080fd5b6000602082840312156147d157600080fd5b5035919050565b6000602082840312156147ea57600080fd5b5051919050565b6000806040838503121561480457600080fd5b8235915060208301356001600160401b0381111561482157600080fd5b61478c858286016142c3565b60008151808452614845816020860160208601614c9f565b601f01601f19169290920160200192915050565b6000825161486b818460208701614c9f565b9190910192915050565b60008351614887818460208801614c9f565b83519083019061489b818360208801614c9f565b01949350505050565b6734b833399d1797b360c11b8152600083516148c7816008850160208801614c9f565b8351908301906148de816008840160208801614c9f565b01600801949350505050565b6001600160a01b038581168252841660208201526040810183905260806060820181905260009061491d9083018461482d565b9695505050505050565b6020808252825182820181905260009190848201906040850190845b818110156149685783516001600160a01b031683529284019291840191600101614943565b50909695505050505050565b6020808252825182820181905260009190848201906040850190845b8181101561496857835183529284019291840191600101614990565b60208101600483106149ce57634e487b7160e01b600052602160045260246000fd5b91905290565b602081526000613ed3602083018461482d565b6020808252600e908201526d3737ba1030903932bb34b2bbb2b960911b604082015260600190565b60208082526032908201527f4552433732313a207472616e7366657220746f206e6f6e20455243373231526560408201527131b2b4bb32b91034b6b83632b6b2b73a32b960711b606082015260800190565b6020808252600d908201526c19985a5b1959081c99599d5b99609a1b604082015260600190565b60208082526031908201527f4552433732313a207472616e736665722063616c6c6572206973206e6f74206f6040820152701ddb995c881b9bdc88185c1c1c9bdd9959607a1b606082015260800190565b6020808252600f908201526e1d1c985b9cd9995c8819985a5b1959608a1b604082015260600190565b8381526001600160a01b0383166020820152606060408201819052600090614b2c9083018461482d565b95945050505050565b8481526001600160a01b0384166020820152608060408201819052600090614b5f9083018561482d565b905082606083015295945050505050565b604051601f8201601f191681016001600160401b0381118282101715614b9857614b98614dcb565b604052919050565b60006001600160401b03821115614bb957614bb9614dcb565b5060051b60200190565b60008219821115614bd657614bd6614d73565b500190565b600060ff821660ff84168060ff03821115614bf857614bf8614d73565b019392505050565b60006001600160801b0380841680614c1a57614c1a614d89565b92169190910492915050565b600082614c3557614c35614d89565b500490565b60006001600160801b0380831681851681830481118215151615614c6057614c60614d73565b02949350505050565b6000816000190483118215151615614c8357614c83614d73565b500290565b600082821015614c9a57614c9a614d73565b500390565b60005b83811015614cba578181015183820152602001614ca2565b8381111561144d5750506000910152565b600081614cda57614cda614d73565b506000190190565b600181811c90821680614cf657607f821691505b60208210811415614d1757634e487b7160e01b600052602260045260246000fd5b50919050565b60006001600160801b0380831681811415614d3a57614d3a614d73565b6001019392505050565b6000600019821415614d5857614d58614d73565b5060010190565b600082614d6e57614d6e614d89565b500690565b634e487b7160e01b600052601160045260246000fd5b634e487b7160e01b600052601260045260246000fd5b634e487b7160e01b600052602160045260246000fd5b634e487b7160e01b600052603260045260246000fd5b634e487b7160e01b600052604160045260246000fd5b6001600160a01b03811681146136a857600080fd5b80151581146136a857600080fd5b6001600160e01b0319811681146136a857600080fdfea264697066735822122094555f88d4c52c5b5241ec90c8c82691298a501c7b31e266927070bdc62d5e5d64736f6c63430008070033",
  "devdoc": {
    "kind": "dev",
    "methods": {
      "approve(address,uint256)": {
        "details": "See {IERC721-approve}."
      },
      "balanceOf(address)": {
        "details": "See {IERC721-balanceOf}."
      },
      "getApproved(uint256)": {
        "details": "See {IERC721-getApproved}."
      },
      "isApprovedForAll(address,address)": {
        "details": "See {IERC721-isApprovedForAll}."
      },
      "name()": {
        "details": "See {IERC721Metadata-name}."
      },
      "owner()": {
        "details": "Returns the address of the current owner."
      },
      "ownerOf(uint256)": {
        "details": "See {IERC721-ownerOf}."
      },
      "renounceOwnership()": {
        "details": "Leaves the contract without owner. It will not be possible to call `onlyOwner` functions anymore. Can only be called by the current owner. NOTE: Renouncing ownership will leave the contract without an owner, thereby removing any functionality that is only available to the owner."
      },
      "safeTransferFrom(address,address,uint256)": {
        "details": "See {IERC721-safeTransferFrom}."
      },
      "safeTransferFrom(address,address,uint256,bytes)": {
        "details": "See {IERC721-safeTransferFrom}."
      },
      "setApprovalForAll(address,bool)": {
        "details": "See {IERC721-setApprovalForAll}."
      },
      "supportsInterface(bytes4)": {
        "details": "See {IERC165-supportsInterface}."
      },
      "symbol()": {
        "details": "See {IERC721Metadata-symbol}."
      },
      "tokenURI(uint256)": {
        "details": "See {IERC721Metadata-tokenURI}."
      },
      "transferFrom(address,address,uint256)": {
        "details": "See {IERC721-transferFrom}."
      },
      "transferOwnership(address)": {
        "details": "Transfers ownership of the contract to a new account (`newOwner`). Can only be called by the current owner."
      }
    },
    "version": 1
  },
  "userdoc": {
    "kind": "user",
    "methods": {},
    "version": 1
  },
  "storageLayout": {
    "storage": [
      {
        "astId": 1748,
        "contract": "contracts/ProjectNFT.sol:ProjectNFT",
        "label": "_name",
        "offset": 0,
        "slot": "0",
        "type": "t_string_storage"
      },
      {
        "astId": 1750,
        "contract": "contracts/ProjectNFT.sol:ProjectNFT",
        "label": "_symbol",
        "offset": 0,
        "slot": "1",
        "type": "t_string_storage"
      },
      {
        "astId": 1754,
        "contract": "contracts/ProjectNFT.sol:ProjectNFT",
        "label": "_owners",
        "offset": 0,
        "slot": "2",
        "type": "t_mapping(t_uint256,t_address)"
      },
      {
        "astId": 1758,
        "contract": "contracts/ProjectNFT.sol:ProjectNFT",
        "label": "_balances",
        "offset": 0,
        "slot": "3",
        "type": "t_mapping(t_address,t_uint256)"
      },
      {
        "astId": 1762,
        "contract": "contracts/ProjectNFT.sol:ProjectNFT",
        "label": "_tokenApprovals",
        "offset": 0,
        "slot": "4",
        "type": "t_mapping(t_uint256,t_address)"
      },
      {
        "astId": 1768,
        "contract": "contracts/ProjectNFT.sol:ProjectNFT",
        "label": "_operatorApprovals",
        "offset": 0,
        "slot": "5",
        "type": "t_mapping(t_address,t_mapping(t_address,t_bool))"
      },
      {
        "astId": 3038,
        "contract": "contracts/ProjectNFT.sol:ProjectNFT",
        "label": "_tokenURIs",
        "offset": 0,
        "slot": "6",
        "type": "t_mapping(t_uint256,t_string_storage)"
      },
      {
        "astId": 273,
        "contract": "contracts/ProjectNFT.sol:ProjectNFT",
        "label": "_owner",
        "offset": 0,
        "slot": "7",
        "type": "t_address"
      },
      {
        "astId": 6653,
        "contract": "contracts/ProjectNFT.sol:ProjectNFT",
        "label": "_tokenIds",
        "offset": 0,
        "slot": "8",
        "type": "t_struct(Counter)3536_storage"
      },
      {
        "astId": 6656,
        "contract": "contracts/ProjectNFT.sol:ProjectNFT",
        "label": "_multiSigRequest",
        "offset": 0,
        "slot": "9",
        "type": "t_struct(Counter)3536_storage"
      },
      {
        "astId": 6660,
        "contract": "contracts/ProjectNFT.sol:ProjectNFT",
        "label": "reviewers",
        "offset": 0,
        "slot": "10",
        "type": "t_mapping(t_address,t_bool)"
      },
      {
        "astId": 6662,
        "contract": "contracts/ProjectNFT.sol:ProjectNFT",
        "label": "multiSigThreshold",
        "offset": 0,
        "slot": "11",
        "type": "t_uint128"
      },
      {
        "astId": 6664,
        "contract": "contracts/ProjectNFT.sol:ProjectNFT",
        "label": "numReviewers",
        "offset": 16,
        "slot": "11",
        "type": "t_uint128"
      },
      {
        "astId": 6666,
        "contract": "contracts/ProjectNFT.sol:ProjectNFT",
        "label": "appWallet",
        "offset": 0,
        "slot": "12",
        "type": "t_address_payable"
      },
      {
        "astId": 6668,
        "contract": "contracts/ProjectNFT.sol:ProjectNFT",
        "label": "appDiamond",
        "offset": 0,
        "slot": "13",
        "type": "t_address_payable"
      },
      {
        "astId": 6670,
        "contract": "contracts/ProjectNFT.sol:ProjectNFT",
        "label": "sponsorSFTAddr",
        "offset": 0,
        "slot": "14",
        "type": "t_address_payable"
      },
      {
        "astId": 6680,
        "contract": "contracts/ProjectNFT.sol:ProjectNFT",
        "label": "contributors",
        "offset": 0,
        "slot": "15",
        "type": "t_mapping(t_string_memory_ptr,t_array(t_address)dyn_storage)"
      },
      {
        "astId": 6684,
        "contract": "contracts/ProjectNFT.sol:ProjectNFT",
        "label": "projectWallets",
        "offset": 0,
        "slot": "16",
        "type": "t_mapping(t_string_memory_ptr,t_address)"
      },
      {
        "astId": 6688,
        "contract": "contracts/ProjectNFT.sol:ProjectNFT",
        "label": "stakePerProject",
        "offset": 0,
        "slot": "17",
        "type": "t_mapping(t_string_memory_ptr,t_uint256)"
      },
      {
        "astId": 6692,
        "contract": "contracts/ProjectNFT.sol:ProjectNFT",
        "label": "refundPerProject",
        "offset": 0,
        "slot": "18",
        "type": "t_mapping(t_string_memory_ptr,t_uint256)"
      },
      {
        "astId": 6696,
        "contract": "contracts/ProjectNFT.sol:ProjectNFT",
        "label": "sponsorLevel",
        "offset": 0,
        "slot": "19",
        "type": "t_mapping(t_string_memory_ptr,t_uint256)"
      },
      {
        "astId": 6700,
        "contract": "contracts/ProjectNFT.sol:ProjectNFT",
        "label": "sponsorLevels",
        "offset": 0,
        "slot": "20",
        "type": "t_mapping(t_string_memory_ptr,t_uint256)"
      },
      {
        "astId": 6704,
        "contract": "contracts/ProjectNFT.sol:ProjectNFT",
        "label": "statusStrings",
        "offset": 0,
        "slot": "21",
        "type": "t_mapping(t_uint256,t_string_storage)"
      },
      {
        "astId": 6709,
        "contract": "contracts/ProjectNFT.sol:ProjectNFT",
        "label": "status",
        "offset": 0,
        "slot": "22",
        "type": "t_mapping(t_string_memory_ptr,t_enum(ProjectStatus)6675)"
      },
      {
        "astId": 6713,
        "contract": "contracts/ProjectNFT.sol:ProjectNFT",
        "label": "votes",
        "offset": 0,
        "slot": "23",
        "type": "t_mapping(t_string_memory_ptr,t_uint256)"
      },
      {
        "astId": 6717,
        "contract": "contracts/ProjectNFT.sol:ProjectNFT",
        "label": "votesReject",
        "offset": 0,
        "slot": "24",
        "type": "t_mapping(t_string_memory_ptr,t_uint256)"
      },
      {
        "astId": 6723,
        "contract": "contracts/ProjectNFT.sol:ProjectNFT",
        "label": "reviewerVotes",
        "offset": 0,
        "slot": "25",
        "type": "t_mapping(t_string_memory_ptr,t_mapping(t_address,t_bool))"
      },
      {
        "astId": 6727,
        "contract": "contracts/ProjectNFT.sol:ProjectNFT",
        "label": "projectMinted",
        "offset": 0,
        "slot": "26",
        "type": "t_mapping(t_string_memory_ptr,t_bool)"
      },
      {
        "astId": 6731,
        "contract": "contracts/ProjectNFT.sol:ProjectNFT",
        "label": "projectThresholds",
        "offset": 0,
        "slot": "27",
        "type": "t_mapping(t_string_memory_ptr,t_uint256)"
      }
    ],
    "types": {
      "t_address": {
        "encoding": "inplace",
        "label": "address",
        "numberOfBytes": "20"
      },
      "t_address_payable": {
        "encoding": "inplace",
        "label": "address payable",
        "numberOfBytes": "20"
      },
      "t_array(t_address)dyn_storage": {
        "base": "t_address",
        "encoding": "dynamic_array",
        "label": "address[]",
        "numberOfBytes": "32"
      },
      "t_bool": {
        "encoding": "inplace",
        "label": "bool",
        "numberOfBytes": "1"
      },
      "t_enum(ProjectStatus)6675": {
        "encoding": "inplace",
        "label": "enum ProjectNFT.ProjectStatus",
        "numberOfBytes": "1"
      },
      "t_mapping(t_address,t_bool)": {
        "encoding": "mapping",
        "key": "t_address",
        "label": "mapping(address => bool)",
        "numberOfBytes": "32",
        "value": "t_bool"
      },
      "t_mapping(t_address,t_mapping(t_address,t_bool))": {
        "encoding": "mapping",
        "key": "t_address",
        "label": "mapping(address => mapping(address => bool))",
        "numberOfBytes": "32",
        "value": "t_mapping(t_address,t_bool)"
      },
      "t_mapping(t_address,t_uint256)": {
        "encoding": "mapping",
        "key": "t_address",
        "label": "mapping(address => uint256)",
        "numberOfBytes": "32",
        "value": "t_uint256"
      },
      "t_mapping(t_string_memory_ptr,t_address)": {
        "encoding": "mapping",
        "key": "t_string_memory_ptr",
        "label": "mapping(string => address)",
        "numberOfBytes": "32",
        "value": "t_address"
      },
      "t_mapping(t_string_memory_ptr,t_array(t_address)dyn_storage)": {
        "encoding": "mapping",
        "key": "t_string_memory_ptr",
        "label": "mapping(string => address[])",
        "numberOfBytes": "32",
        "value": "t_array(t_address)dyn_storage"
      },
      "t_mapping(t_string_memory_ptr,t_bool)": {
        "encoding": "mapping",
        "key": "t_string_memory_ptr",
        "label": "mapping(string => bool)",
        "numberOfBytes": "32",
        "value": "t_bool"
      },
      "t_mapping(t_string_memory_ptr,t_enum(ProjectStatus)6675)": {
        "encoding": "mapping",
        "key": "t_string_memory_ptr",
        "label": "mapping(string => enum ProjectNFT.ProjectStatus)",
        "numberOfBytes": "32",
        "value": "t_enum(ProjectStatus)6675"
      },
      "t_mapping(t_string_memory_ptr,t_mapping(t_address,t_bool))": {
        "encoding": "mapping",
        "key": "t_string_memory_ptr",
        "label": "mapping(string => mapping(address => bool))",
        "numberOfBytes": "32",
        "value": "t_mapping(t_address,t_bool)"
      },
      "t_mapping(t_string_memory_ptr,t_uint256)": {
        "encoding": "mapping",
        "key": "t_string_memory_ptr",
        "label": "mapping(string => uint256)",
        "numberOfBytes": "32",
        "value": "t_uint256"
      },
      "t_mapping(t_uint256,t_address)": {
        "encoding": "mapping",
        "key": "t_uint256",
        "label": "mapping(uint256 => address)",
        "numberOfBytes": "32",
        "value": "t_address"
      },
      "t_mapping(t_uint256,t_string_storage)": {
        "encoding": "mapping",
        "key": "t_uint256",
        "label": "mapping(uint256 => string)",
        "numberOfBytes": "32",
        "value": "t_string_storage"
      },
      "t_string_memory_ptr": {
        "encoding": "bytes",
        "label": "string",
        "numberOfBytes": "32"
      },
      "t_string_storage": {
        "encoding": "bytes",
        "label": "string",
        "numberOfBytes": "32"
      },
      "t_struct(Counter)3536_storage": {
        "encoding": "inplace",
        "label": "struct Counters.Counter",
        "members": [
          {
            "astId": 3535,
            "contract": "contracts/ProjectNFT.sol:ProjectNFT",
            "label": "_value",
            "offset": 0,
            "slot": "0",
            "type": "t_uint256"
          }
        ],
        "numberOfBytes": "32"
      },
      "t_uint128": {
        "encoding": "inplace",
        "label": "uint128",
        "numberOfBytes": "16"
      },
      "t_uint256": {
        "encoding": "inplace",
        "label": "uint256",
        "numberOfBytes": "32"
      }
    }
  }
}