{
  "address": "0xFd779189CEcbAA4c1798Dcc691E3CD448B35e7Ce",
  "abi": [
    {
      "inputs": [
        {
          "internalType": "uint256[]",
          "name": "_initStakeAmounts",
          "type": "uint256[]"
        },
        {
          "internalType": "address payable",
          "name": "_projectNFTAddr",
          "type": "address"
        }
      ],
      "stateMutability": "nonpayable",
      "type": "constructor"
    },
    {
      "anonymous": false,
      "inputs": [
        {
          "indexed": true,
          "internalType": "address",
          "name": "account",
          "type": "address"
        },
        {
          "indexed": true,
          "internalType": "address",
          "name": "operator",
          "type": "address"
        },
        {
          "indexed": false,
          "internalType": "bool",
          "name": "approved",
          "type": "bool"
        }
      ],
      "name": "ApprovalForAll",
      "type": "event"
    },
    {
      "anonymous": false,
      "inputs": [
        {
          "indexed": true,
          "internalType": "address",
          "name": "operator",
          "type": "address"
        },
        {
          "indexed": true,
          "internalType": "address",
          "name": "from",
          "type": "address"
        },
        {
          "indexed": true,
          "internalType": "address",
          "name": "to",
          "type": "address"
        },
        {
          "indexed": false,
          "internalType": "uint256[]",
          "name": "ids",
          "type": "uint256[]"
        },
        {
          "indexed": false,
          "internalType": "uint256[]",
          "name": "values",
          "type": "uint256[]"
        }
      ],
      "name": "TransferBatch",
      "type": "event"
    },
    {
      "anonymous": false,
      "inputs": [
        {
          "indexed": true,
          "internalType": "address",
          "name": "operator",
          "type": "address"
        },
        {
          "indexed": true,
          "internalType": "address",
          "name": "from",
          "type": "address"
        },
        {
          "indexed": true,
          "internalType": "address",
          "name": "to",
          "type": "address"
        },
        {
          "indexed": false,
          "internalType": "uint256",
          "name": "id",
          "type": "uint256"
        },
        {
          "indexed": false,
          "internalType": "uint256",
          "name": "value",
          "type": "uint256"
        }
      ],
      "name": "TransferSingle",
      "type": "event"
    },
    {
      "anonymous": false,
      "inputs": [
        {
          "indexed": false,
          "internalType": "string",
          "name": "value",
          "type": "string"
        },
        {
          "indexed": true,
          "internalType": "uint256",
          "name": "id",
          "type": "uint256"
        }
      ],
      "name": "URI",
      "type": "event"
    },
    {
      "inputs": [],
      "name": "DIAMOND",
      "outputs": [
        {
          "internalType": "uint256",
          "name": "",
          "type": "uint256"
        }
      ],
      "stateMutability": "view",
      "type": "function"
    },
    {
      "inputs": [],
      "name": "GOLD",
      "outputs": [
        {
          "internalType": "uint256",
          "name": "",
          "type": "uint256"
        }
      ],
      "stateMutability": "view",
      "type": "function"
    },
    {
      "inputs": [],
      "name": "SILVER",
      "outputs": [
        {
          "internalType": "uint256",
          "name": "",
          "type": "uint256"
        }
      ],
      "stateMutability": "view",
      "type": "function"
    },
    {
      "inputs": [
        {
          "internalType": "address",
          "name": "account",
          "type": "address"
        },
        {
          "internalType": "uint256",
          "name": "id",
          "type": "uint256"
        }
      ],
      "name": "balanceOf",
      "outputs": [
        {
          "internalType": "uint256",
          "name": "",
          "type": "uint256"
        }
      ],
      "stateMutability": "view",
      "type": "function"
    },
    {
      "inputs": [
        {
          "internalType": "address[]",
          "name": "accounts",
          "type": "address[]"
        },
        {
          "internalType": "uint256[]",
          "name": "ids",
          "type": "uint256[]"
        }
      ],
      "name": "balanceOfBatch",
      "outputs": [
        {
          "internalType": "uint256[]",
          "name": "",
          "type": "uint256[]"
        }
      ],
      "stateMutability": "view",
      "type": "function"
    },
    {
      "inputs": [
        {
          "internalType": "address",
          "name": "",
          "type": "address"
        }
      ],
      "name": "isAddrOwner",
      "outputs": [
        {
          "internalType": "bool",
          "name": "",
          "type": "bool"
        }
      ],
      "stateMutability": "view",
      "type": "function"
    },
    {
      "inputs": [
        {
          "internalType": "address",
          "name": "account",
          "type": "address"
        },
        {
          "internalType": "address",
          "name": "operator",
          "type": "address"
        }
      ],
      "name": "isApprovedForAll",
      "outputs": [
        {
          "internalType": "bool",
          "name": "",
          "type": "bool"
        }
      ],
      "stateMutability": "view",
      "type": "function"
    },
    {
      "inputs": [
        {
          "internalType": "uint256",
          "name": "_id",
          "type": "uint256"
        },
        {
          "internalType": "address",
          "name": "_to",
          "type": "address"
        },
        {
          "internalType": "string",
          "name": "projectId",
          "type": "string"
        }
      ],
      "name": "mint",
      "outputs": [],
      "stateMutability": "nonpayable",
      "type": "function"
    },
    {
      "inputs": [
        {
          "internalType": "address",
          "name": "",
          "type": "address"
        }
      ],
      "name": "projByWallet",
      "outputs": [
        {
          "internalType": "string",
          "name": "",
          "type": "string"
        }
      ],
      "stateMutability": "view",
      "type": "function"
    },
    {
      "inputs": [
        {
          "internalType": "address",
          "name": "from",
          "type": "address"
        },
        {
          "internalType": "address",
          "name": "to",
          "type": "address"
        },
        {
          "internalType": "uint256[]",
          "name": "ids",
          "type": "uint256[]"
        },
        {
          "internalType": "uint256[]",
          "name": "amounts",
          "type": "uint256[]"
        },
        {
          "internalType": "bytes",
          "name": "data",
          "type": "bytes"
        }
      ],
      "name": "safeBatchTransferFrom",
      "outputs": [],
      "stateMutability": "nonpayable",
      "type": "function"
    },
    {
      "inputs": [
        {
          "internalType": "address",
          "name": "from",
          "type": "address"
        },
        {
          "internalType": "address",
          "name": "to",
          "type": "address"
        },
        {
          "internalType": "uint256",
          "name": "id",
          "type": "uint256"
        },
        {
          "internalType": "uint256",
          "name": "amount",
          "type": "uint256"
        },
        {
          "internalType": "bytes",
          "name": "data",
          "type": "bytes"
        }
      ],
      "name": "safeTransferFrom",
      "outputs": [],
      "stateMutability": "nonpayable",
      "type": "function"
    },
    {
      "inputs": [
        {
          "internalType": "address",
          "name": "operator",
          "type": "address"
        },
        {
          "internalType": "bool",
          "name": "approved",
          "type": "bool"
        }
      ],
      "name": "setApprovalForAll",
      "outputs": [],
      "stateMutability": "nonpayable",
      "type": "function"
    },
    {
      "inputs": [
        {
          "internalType": "uint256",
          "name": "_tokenId",
          "type": "uint256"
        },
        {
          "internalType": "uint256",
          "name": "amount",
          "type": "uint256"
        }
      ],
      "name": "setStakeAmounts",
      "outputs": [],
      "stateMutability": "nonpayable",
      "type": "function"
    },
    {
      "inputs": [
        {
          "internalType": "uint256",
          "name": "",
          "type": "uint256"
        }
      ],
      "name": "stakeAmounts",
      "outputs": [
        {
          "internalType": "uint256",
          "name": "",
          "type": "uint256"
        }
      ],
      "stateMutability": "view",
      "type": "function"
    },
    {
      "inputs": [
        {
          "internalType": "bytes4",
          "name": "interfaceId",
          "type": "bytes4"
        }
      ],
      "name": "supportsInterface",
      "outputs": [
        {
          "internalType": "bool",
          "name": "",
          "type": "bool"
        }
      ],
      "stateMutability": "view",
      "type": "function"
    },
    {
      "inputs": [
        {
          "internalType": "uint256",
          "name": "_id",
          "type": "uint256"
        },
        {
          "internalType": "address",
          "name": "_from",
          "type": "address"
        },
        {
          "internalType": "string",
          "name": "projectId",
          "type": "string"
        },
        {
          "internalType": "uint256",
          "name": "newLevel",
          "type": "uint256"
        }
      ],
      "name": "updateLevel",
      "outputs": [],
      "stateMutability": "nonpayable",
      "type": "function"
    },
    {
      "inputs": [
        {
          "internalType": "uint256",
          "name": "",
          "type": "uint256"
        }
      ],
      "name": "uri",
      "outputs": [
        {
          "internalType": "string",
          "name": "",
          "type": "string"
        }
      ],
      "stateMutability": "view",
      "type": "function"
    }
  ],
  "transactionHash": "0x75bb2fcdfd29d55efe859c6d75c35437e83107689485c69a039eb5391bd16f5b",
  "args": [
    [
      "0xde0b6b3a7640000",
      "0x29a2241af62c0000",
      "0x4563918244f40000"
    ],
    "0x242E4B38d65500aa40c84b19C9e1CB5160FC0230"
  ],
  "numDeployments": 2,
  "solcInputHash": "60d95d77d1127866465377513185c870",
  "bytecode": "0x60806040523480156200001157600080fd5b5060405162002335380380620023358339810160408190526200003491620001c1565b6040518060800160405280605c8152602001620022d9605c91396200005981620000e5565b5060005b6003811015620000bd578281815181106200007c576200007c62000331565b602002602001015160036000836001620000979190620002a5565b815260208101919091526040016000205580620000b481620002fd565b9150506200005d565b50600480546001600160a01b0319166001600160a01b0392909216919091179055506200035d565b8051620000fa906002906020840190620000fe565b5050565b8280546200010c90620002c0565b90600052602060002090601f0160209004810192826200013057600085556200017b565b82601f106200014b57805160ff19168380011785556200017b565b828001600101855582156200017b579182015b828111156200017b5782518255916020019190600101906200015e565b50620001899291506200018d565b5090565b5b808211156200018957600081556001016200018e565b80516001600160a01b0381168114620001bc57600080fd5b919050565b60008060408385031215620001d557600080fd5b82516001600160401b0380821115620001ed57600080fd5b818501915085601f8301126200020257600080fd5b815160208282111562000219576200021962000347565b8160051b604051601f19603f8301168101818110868211171562000241576200024162000347565b604052838152828101945085830182870184018b10156200026157600080fd5b600096505b848710156200028657805186526001969096019594830194830162000266565b509650620002989050878201620001a4565b9450505050509250929050565b60008219821115620002bb57620002bb6200031b565b500190565b600181811c90821680620002d557607f821691505b60208210811415620002f757634e487b7160e01b600052602260045260246000fd5b50919050565b60006000198214156200031457620003146200031b565b5060010190565b634e487b7160e01b600052601160045260246000fd5b634e487b7160e01b600052603260045260246000fd5b634e487b7160e01b600052604160045260246000fd5b611f6c806200036d6000396000f3fe608060405234801561001057600080fd5b506004361061010a5760003560e01c80634e1273f4116100a2578063e67e402c11610071578063e67e402c1461021e578063e985e9c514610231578063f149444b1461026d578063f242432a14610280578063f6edbc191461029357600080fd5b80634e1273f4146101d05780638f58ecc1146101f0578063a22cb46514610203578063e3e55f081461021657600080fd5b8063206545c2116100de578063206545c21461019857806323ac4069146101a05780632eb2c2d6146101b35780633e4bee38146101c857600080fd5b8062fdd58e1461010f57806301ffc9a7146101355780630e89341c146101585780631c1b4f3a14610178575b600080fd5b61012261011d36600461190c565b6102b6565b6040519081526020015b60405180910390f35b610148610143366004611a24565b61034d565b604051901515815260200161012c565b61016b610166366004611a5e565b61039f565b60405161012c9190611c92565b610122610186366004611a5e565b60036020526000908152604090205481565b610122600381565b61016b6101ae366004611771565b610433565b6101c66101c13660046117c6565b6104cd565b005b610122600281565b6101e36101de366004611936565b61051c565b60405161012c9190611c4e565b6101c66101fe366004611ace565b610646565b6101c66102113660046118d5565b61080e565b610122600181565b6101c661022c366004611a77565b61081d565b61014861023f366004611793565b6001600160a01b03918216600090815260016020908152604080832093909416825291909152205460ff1690565b6101c661027b366004611b2d565b61096b565b6101c661028e366004611870565b610b2b565b6101486102a1366004611771565b60066020526000908152604090205460ff1681565b60006001600160a01b0383166103275760405162461bcd60e51b815260206004820152602b60248201527f455243313135353a2062616c616e636520717565727920666f7220746865207a60448201526a65726f206164647265737360a81b60648201526084015b60405180910390fd5b506000908152602081815260408083206001600160a01b03949094168352929052205490565b60006001600160e01b03198216636cdb3d1360e11b148061037e57506001600160e01b031982166303a24d0760e21b145b8061039957506301ffc9a760e01b6001600160e01b03198316145b92915050565b6060600280546103ae90611da7565b80601f01602080910402602001604051908101604052809291908181526020018280546103da90611da7565b80156104275780601f106103fc57610100808354040283529160200191610427565b820191906000526020600020905b81548152906001019060200180831161040a57829003601f168201915b50505050509050919050565b6007602052600090815260409020805461044c90611da7565b80601f016020809104026020016040519081016040528092919081815260200182805461047890611da7565b80156104c55780601f1061049a576101008083540402835291602001916104c5565b820191906000526020600020905b8154815290600101906020018083116104a857829003601f168201915b505050505081565b60405162461bcd60e51b815260206004820181905260248201527f455243313135353a206c6f636b696e67206261746368205472616e7366657273604482015260640161031e565b5050505050565b606081518351146105815760405162461bcd60e51b815260206004820152602960248201527f455243313135353a206163636f756e747320616e6420696473206c656e677468604482015268040dad2e6dac2e8c6d60bb1b606482015260840161031e565b6000835167ffffffffffffffff81111561059d5761059d611e56565b6040519080825280602002602001820160405280156105c6578160200160208202803683370190505b50905060005b845181101561063e576106118582815181106105ea576105ea611e40565b602002602001015185838151811061060457610604611e40565b60200260200101516102b6565b82828151811061062357610623611e40565b602090810291909101015261063781611e0f565b90506105cc565b509392505050565b6004546001600160a01b031633146106a05760405162461bcd60e51b815260206004820152601d60248201527f696e76616c696420636f6e74726163742063616c6c696e67206d696e74000000604482015260640161031e565b6001600160a01b03831660009081526006602052604090205460ff166106fb5760405162461bcd60e51b815260206004820152601060248201526f3737903a37b5b2b7103a3790313ab93760811b604482015260640161031e565b8160405160200161070c9190611b7b565b60408051601f1981840301815282825280516020918201206001600160a01b038716600090815260078352929092209192610748929101611b97565b60405160208183030381529060405280519060200120146107bd5760405162461bcd60e51b815260206004820152602960248201527f6e6f742063757272656e74206f776e6572206173736f636961746564207769746044820152681a081c1c9bda9958dd60ba1b606482015260840161031e565b6107c983856001610e17565b806005836040516107da9190611b7b565b9081526020016040518091039020819055506108088382600160405180602001604052806000815250610f91565b50505050565b61081933838361109b565b5050565b6004546001600160a01b031633146108775760405162461bcd60e51b815260206004820152601d60248201527f696e76616c696420636f6e74726163742063616c6c696e67206d696e74000000604482015260640161031e565b6001600160a01b03821660009081526006602052604090205460ff16156108eb5760405162461bcd60e51b815260206004820152602260248201527f616464726573732063757272656e746c79206861732061637469766520746f6b60448201526132b760f11b606482015260840161031e565b6001600160a01b0382166000908152600660209081526040808320805460ff1916600117905560078252909120825161092692840190611519565b50826005826040516109389190611b7b565b9081526020016040518091039020819055506109668284600160405180602001604052806000815250610f91565b505050565b600454604080513360248083019190915282518083039091018152604490910182526020810180516001600160e01b0316637be5d8d960e11b179052905160009283926001600160a01b03909116916109c49190611b7b565b6000604051808303816000865af19150503d8060008114610a01576040519150601f19603f3d011682016040523d82523d6000602084013e610a06565b606091505b509150915081610a585760405162461bcd60e51b815260206004820152601c60248201527f756e7375636365737366756c2070726f6a6563744e46542063616c6c00000000604482015260640161031e565b600081806020019051810190610a6e9190611a07565b905080610abd5760405162461bcd60e51b815260206004820152601960248201527f6e6f7420617070726f7665642061707020726576696577657200000000000000604482015260640161031e565b600085118015610ad75750610ad460036001611d63565b85105b610b165760405162461bcd60e51b815260206004820152601060248201526f1a5b9d985b1a590817dd1bdad95b925960821b604482015260640161031e565b50505060009182526003602052604090912055565b6001600160a01b038516331480610b475750610b47853361023f565b610ba55760405162461bcd60e51b815260206004820152602960248201527f455243313135353a2063616c6c6572206973206e6f74206f776e6572206e6f7260448201526808185c1c1c9bdd995960ba1b606482015260840161031e565b6001600160a01b03851660009081526006602052604090205460ff168015610be657506001600160a01b03841660009081526006602052604090205460ff16155b610c475760405162461bcd60e51b815260206004820152602c60248201527f455243313135353a2066726f6d206f7220746f206861766520696e636f72726560448201526b06374206f776e6572736869760a41b606482015260840161031e565b610c54858585858561117c565b6004546001600160a01b038681166000908152600760205260408082209051919392909216917fd57c9c82929c770367e7e304e7ec6a347bf62af8f61f33998c4ad1f3963ef73191610cab91908990602401611ca5565b60408051601f198184030181529181526020820180516001600160e01b03166001600160e01b0319909416939093179092529051610ce99190611b7b565b6000604051808303816000865af19150503d8060008114610d26576040519150601f19603f3d011682016040523d82523d6000602084013e610d2b565b606091505b5050905080610d7c5760405162461bcd60e51b815260206004820152601c60248201527f756e7375636365737366756c2070726f6a6563744e46542063616c6c00000000604482015260640161031e565b6001600160a01b03808716600090815260076020526040808220928816825290208154909190610dab90611da7565b610db692919061159d565b506001600160a01b0386166000908152600760205260408120610dd891611618565b5050506001600160a01b03928316600090815260066020526040808220805460ff19908116909155939094168152929092208054909116600117905550565b6001600160a01b038316610e795760405162461bcd60e51b815260206004820152602360248201527f455243313135353a206275726e2066726f6d20746865207a65726f206164647260448201526265737360e81b606482015260840161031e565b33610ea981856000610e8a8761131a565b610e938761131a565b5050604080516020810190915260009052505050565b6000838152602081815260408083206001600160a01b038816845290915290205482811015610f265760405162461bcd60e51b8152602060048201526024808201527f455243313135353a206275726e20616d6f756e7420657863656564732062616c604482015263616e636560e01b606482015260840161031e565b6000848152602081815260408083206001600160a01b03898116808652918452828520888703905582518981529384018890529092908616917fc3d58168c5ae7397731d063d5bbf3d657854427343f4c083240f7aacaa2d0f62910160405180910390a45050505050565b6001600160a01b038416610ff15760405162461bcd60e51b815260206004820152602160248201527f455243313135353a206d696e7420746f20746865207a65726f206164647265736044820152607360f81b606482015260840161031e565b3361100b816000876110028861131a565b6105158861131a565b6000848152602081815260408083206001600160a01b03891684529091528120805485929061103b908490611d63565b909155505060408051858152602081018590526001600160a01b0380881692600092918516917fc3d58168c5ae7397731d063d5bbf3d657854427343f4c083240f7aacaa2d0f62910160405180910390a46105158160008787878761136d565b816001600160a01b0316836001600160a01b0316141561110f5760405162461bcd60e51b815260206004820152602960248201527f455243313135353a2073657474696e6720617070726f76616c20737461747573604482015268103337b91039b2b63360b91b606482015260840161031e565b6001600160a01b03838116600081815260016020908152604080832094871680845294825291829020805460ff191686151590811790915591519182527f17307eab39ab6107e8899845ad3d59bd9653f200f220920489ca2b5937696c31910160405180910390a3505050565b6001600160a01b0384166111e05760405162461bcd60e51b815260206004820152602560248201527f455243313135353a207472616e7366657220746f20746865207a65726f206164604482015264647265737360d81b606482015260840161031e565b336111f08187876110028861131a565b6000848152602081815260408083206001600160a01b038a168452909152902054838110156112745760405162461bcd60e51b815260206004820152602a60248201527f455243313135353a20696e73756666696369656e742062616c616e636520666f60448201526939103a3930b739b332b960b11b606482015260840161031e565b6000858152602081815260408083206001600160a01b038b81168552925280832087850390559088168252812080548692906112b1908490611d63565b909155505060408051868152602081018690526001600160a01b03808916928a821692918616917fc3d58168c5ae7397731d063d5bbf3d657854427343f4c083240f7aacaa2d0f62910160405180910390a461131182888888888861136d565b50505050505050565b6040805160018082528183019092526060916000919060208083019080368337019050509050828160008151811061135457611354611e40565b602090810291909101015292915050565b505050505050565b6001600160a01b0384163b156113655760405163f23a6e6160e01b81526001600160a01b0385169063f23a6e61906113b19089908990889088908890600401611c09565b602060405180830381600087803b1580156113cb57600080fd5b505af19250505080156113fb575060408051601f3d908101601f191682019092526113f891810190611a41565b60015b6114a857611407611e6c565b806308c379a01415611441575061141c611e88565b806114275750611443565b8060405162461bcd60e51b815260040161031e9190611c92565b505b60405162461bcd60e51b815260206004820152603460248201527f455243313135353a207472616e7366657220746f206e6f6e20455243313135356044820152732932b1b2b4bb32b91034b6b83632b6b2b73a32b960611b606482015260840161031e565b6001600160e01b0319811663f23a6e6160e01b146113115760405162461bcd60e51b815260206004820152602860248201527f455243313135353a204552433131353552656365697665722072656a656374656044820152676420746f6b656e7360c01b606482015260840161031e565b82805461152590611da7565b90600052602060002090601f016020900481019282611547576000855561158d565b82601f1061156057805160ff191683800117855561158d565b8280016001018555821561158d579182015b8281111561158d578251825591602001919060010190611572565b50611599929150611655565b5090565b8280546115a990611da7565b90600052602060002090601f0160209004810192826115cb576000855561158d565b82601f106115dc578054855561158d565b8280016001018555821561158d57600052602060002091601f016020900482015b8281111561158d5782548255916001019190600101906115fd565b50805461162490611da7565b6000825580601f10611634575050565b601f0160209004906000526020600020908101906116529190611655565b50565b5b808211156115995760008155600101611656565b80356001600160a01b038116811461168157600080fd5b919050565b600082601f83011261169757600080fd5b813560206116a482611d3f565b6040516116b18282611de2565b8381528281019150858301600585901b870184018810156116d157600080fd5b60005b858110156116f0578135845292840192908401906001016116d4565b5090979650505050505050565b600082601f83011261170e57600080fd5b813567ffffffffffffffff81111561172857611728611e56565b60405161173f601f8301601f191660200182611de2565b81815284602083860101111561175457600080fd5b816020850160208301376000918101602001919091529392505050565b60006020828403121561178357600080fd5b61178c8261166a565b9392505050565b600080604083850312156117a657600080fd5b6117af8361166a565b91506117bd6020840161166a565b90509250929050565b600080600080600060a086880312156117de57600080fd5b6117e78661166a565b94506117f56020870161166a565b9350604086013567ffffffffffffffff8082111561181257600080fd5b61181e89838a01611686565b9450606088013591508082111561183457600080fd5b61184089838a01611686565b9350608088013591508082111561185657600080fd5b50611863888289016116fd565b9150509295509295909350565b600080600080600060a0868803121561188857600080fd5b6118918661166a565b945061189f6020870161166a565b93506040860135925060608601359150608086013567ffffffffffffffff8111156118c957600080fd5b611863888289016116fd565b600080604083850312156118e857600080fd5b6118f18361166a565b9150602083013561190181611f12565b809150509250929050565b6000806040838503121561191f57600080fd5b6119288361166a565b946020939093013593505050565b6000806040838503121561194957600080fd5b823567ffffffffffffffff8082111561196157600080fd5b818501915085601f83011261197557600080fd5b8135602061198282611d3f565b60405161198f8282611de2565b8381528281019150858301600585901b870184018b10156119af57600080fd5b600096505b848710156119d9576119c58161166a565b8352600196909601959183019183016119b4565b50965050860135925050808211156119f057600080fd5b506119fd85828601611686565b9150509250929050565b600060208284031215611a1957600080fd5b815161178c81611f12565b600060208284031215611a3657600080fd5b813561178c81611f20565b600060208284031215611a5357600080fd5b815161178c81611f20565b600060208284031215611a7057600080fd5b5035919050565b600080600060608486031215611a8c57600080fd5b83359250611a9c6020850161166a565b9150604084013567ffffffffffffffff811115611ab857600080fd5b611ac4868287016116fd565b9150509250925092565b60008060008060808587031215611ae457600080fd5b84359350611af46020860161166a565b9250604085013567ffffffffffffffff811115611b1057600080fd5b611b1c878288016116fd565b949793965093946060013593505050565b60008060408385031215611b4057600080fd5b50508035926020909101359150565b60008151808452611b67816020860160208601611d7b565b601f01601f19169290920160200192915050565b60008251611b8d818460208701611d7b565b9190910192915050565b6000808354611ba581611da7565b60018281168015611bbd5760018114611bce57611bfd565b60ff19841687528287019450611bfd565b8760005260208060002060005b85811015611bf45781548a820152908401908201611bdb565b50505082870194505b50929695505050505050565b6001600160a01b03868116825285166020820152604081018490526060810183905260a060808201819052600090611c4390830184611b4f565b979650505050505050565b6020808252825182820181905260009190848201906040850190845b81811015611c8657835183529284019291840191600101611c6a565b50909695505050505050565b60208152600061178c6020830184611b4f565b604081526000808454611cb781611da7565b8060408601526060600180841660008114611cd95760018114611ced57611d1e565b60ff19851688840152608088019550611d1e565b8960005260208060002060005b86811015611d155781548b8201870152908401908201611cfa565b8a018501975050505b505050506001600160a01b0394909416602093909301929092525092915050565b600067ffffffffffffffff821115611d5957611d59611e56565b5060051b60200190565b60008219821115611d7657611d76611e2a565b500190565b60005b83811015611d96578181015183820152602001611d7e565b838111156108085750506000910152565b600181811c90821680611dbb57607f821691505b60208210811415611ddc57634e487b7160e01b600052602260045260246000fd5b50919050565b601f8201601f1916810167ffffffffffffffff81118282101715611e0857611e08611e56565b6040525050565b6000600019821415611e2357611e23611e2a565b5060010190565b634e487b7160e01b600052601160045260246000fd5b634e487b7160e01b600052603260045260246000fd5b634e487b7160e01b600052604160045260246000fd5b600060033d1115611e855760046000803e5060005160e01c5b90565b600060443d1015611e965790565b6040516003193d81016004833e81513d67ffffffffffffffff8160248401118184111715611ec657505050505090565b8285019150815181811115611ede5750505050505090565b843d8701016020828501011115611ef85750505050505090565b611f0760208286010187611de2565b509095945050505050565b801515811461165257600080fd5b6001600160e01b03198116811461165257600080fdfea26469706673582212203baa35e4745f7155be516a4058fd980d829fb3b2077e329ff0c40f6801c6ea1964736f6c6343000807003368747470733a2f2f62616679626569666575356a356135326e366f736c7164766b79736b75687465686171786b6a6977356c62706e69613666616b70776c6b677a32792e697066732e647765622e6c696e6b2f7b69647d2e6a736f6e",
  "devdoc": {
    "kind": "dev",
    "methods": {
      "balanceOf(address,uint256)": {
        "details": "See {IERC1155-balanceOf}. Requirements: - `account` cannot be the zero address."
      },
      "balanceOfBatch(address[],uint256[])": {
        "details": "See {IERC1155-balanceOfBatch}. Requirements: - `accounts` and `ids` must have the same length."
      },
      "isApprovedForAll(address,address)": {
        "details": "See {IERC1155-isApprovedForAll}."
      },
      "safeBatchTransferFrom(address,address,uint256[],uint256[],bytes)": {
        "details": "See {IERC1155-safeBatchTransferFrom}."
      },
      "safeTransferFrom(address,address,uint256,uint256,bytes)": {
        "details": "See {IERC1155-safeTransferFrom}."
      },
      "setApprovalForAll(address,bool)": {
        "details": "See {IERC1155-setApprovalForAll}."
      },
      "supportsInterface(bytes4)": {
        "details": "See {IERC165-supportsInterface}."
      },
      "uri(uint256)": {
        "details": "See {IERC1155MetadataURI-uri}. This implementation returns the same URI for *all* token types. It relies on the token type ID substitution mechanism https://eips.ethereum.org/EIPS/eip-1155#metadata[defined in the EIP]. Clients calling this function must replace the `\\{id\\}` substring with the actual token type ID."
      }
    },
    "version": 1
  },
  "userdoc": {
    "kind": "user",
    "methods": {},
    "version": 1
  },
  "storageLayout": {
    "storage": [
      {
        "astId": 396,
        "contract": "contracts/SponsorPassSFT.sol:SponsorPassSFT",
        "label": "_balances",
        "offset": 0,
        "slot": "0",
        "type": "t_mapping(t_uint256,t_mapping(t_address,t_uint256))"
      },
      {
        "astId": 402,
        "contract": "contracts/SponsorPassSFT.sol:SponsorPassSFT",
        "label": "_operatorApprovals",
        "offset": 0,
        "slot": "1",
        "type": "t_mapping(t_address,t_mapping(t_address,t_bool))"
      },
      {
        "astId": 404,
        "contract": "contracts/SponsorPassSFT.sol:SponsorPassSFT",
        "label": "_uri",
        "offset": 0,
        "slot": "2",
        "type": "t_string_storage"
      },
      {
        "astId": 8270,
        "contract": "contracts/SponsorPassSFT.sol:SponsorPassSFT",
        "label": "stakeAmounts",
        "offset": 0,
        "slot": "3",
        "type": "t_mapping(t_uint256,t_uint256)"
      },
      {
        "astId": 8272,
        "contract": "contracts/SponsorPassSFT.sol:SponsorPassSFT",
        "label": "projectNFTAddr",
        "offset": 0,
        "slot": "4",
        "type": "t_address_payable"
      },
      {
        "astId": 8276,
        "contract": "contracts/SponsorPassSFT.sol:SponsorPassSFT",
        "label": "levelByProject",
        "offset": 0,
        "slot": "5",
        "type": "t_mapping(t_string_memory_ptr,t_uint256)"
      },
      {
        "astId": 8280,
        "contract": "contracts/SponsorPassSFT.sol:SponsorPassSFT",
        "label": "isAddrOwner",
        "offset": 0,
        "slot": "6",
        "type": "t_mapping(t_address,t_bool)"
      },
      {
        "astId": 8284,
        "contract": "contracts/SponsorPassSFT.sol:SponsorPassSFT",
        "label": "projByWallet",
        "offset": 0,
        "slot": "7",
        "type": "t_mapping(t_address,t_string_storage)"
      }
    ],
    "types": {
      "t_address": {
        "encoding": "inplace",
        "label": "address",
        "numberOfBytes": "20"
      },
      "t_address_payable": {
        "encoding": "inplace",
        "label": "address payable",
        "numberOfBytes": "20"
      },
      "t_bool": {
        "encoding": "inplace",
        "label": "bool",
        "numberOfBytes": "1"
      },
      "t_mapping(t_address,t_bool)": {
        "encoding": "mapping",
        "key": "t_address",
        "label": "mapping(address => bool)",
        "numberOfBytes": "32",
        "value": "t_bool"
      },
      "t_mapping(t_address,t_mapping(t_address,t_bool))": {
        "encoding": "mapping",
        "key": "t_address",
        "label": "mapping(address => mapping(address => bool))",
        "numberOfBytes": "32",
        "value": "t_mapping(t_address,t_bool)"
      },
      "t_mapping(t_address,t_string_storage)": {
        "encoding": "mapping",
        "key": "t_address",
        "label": "mapping(address => string)",
        "numberOfBytes": "32",
        "value": "t_string_storage"
      },
      "t_mapping(t_address,t_uint256)": {
        "encoding": "mapping",
        "key": "t_address",
        "label": "mapping(address => uint256)",
        "numberOfBytes": "32",
        "value": "t_uint256"
      },
      "t_mapping(t_string_memory_ptr,t_uint256)": {
        "encoding": "mapping",
        "key": "t_string_memory_ptr",
        "label": "mapping(string => uint256)",
        "numberOfBytes": "32",
        "value": "t_uint256"
      },
      "t_mapping(t_uint256,t_mapping(t_address,t_uint256))": {
        "encoding": "mapping",
        "key": "t_uint256",
        "label": "mapping(uint256 => mapping(address => uint256))",
        "numberOfBytes": "32",
        "value": "t_mapping(t_address,t_uint256)"
      },
      "t_mapping(t_uint256,t_uint256)": {
        "encoding": "mapping",
        "key": "t_uint256",
        "label": "mapping(uint256 => uint256)",
        "numberOfBytes": "32",
        "value": "t_uint256"
      },
      "t_string_memory_ptr": {
        "encoding": "bytes",
        "label": "string",
        "numberOfBytes": "32"
      },
      "t_string_storage": {
        "encoding": "bytes",
        "label": "string",
        "numberOfBytes": "32"
      },
      "t_uint256": {
        "encoding": "inplace",
        "label": "uint256",
        "numberOfBytes": "32"
      }
    }
  }
}