{
  "address": "0xAd6E7551bf4E0f105dCCA02f519881100516C34a",
  "abi": [
    {
      "inputs": [
        {
          "internalType": "address",
          "name": "_vrfAddress",
          "type": "address"
        },
        {
          "internalType": "address",
          "name": "_projectNFTAddress",
          "type": "address"
        },
        {
          "internalType": "address",
          "name": "_verifyAddress",
          "type": "address"
        }
      ],
      "stateMutability": "nonpayable",
      "type": "constructor"
    },
    {
      "anonymous": false,
      "inputs": [
        {
          "indexed": true,
          "internalType": "address",
          "name": "owner",
          "type": "address"
        },
        {
          "indexed": true,
          "internalType": "address",
          "name": "approved",
          "type": "address"
        },
        {
          "indexed": true,
          "internalType": "uint256",
          "name": "tokenId",
          "type": "uint256"
        }
      ],
      "name": "Approval",
      "type": "event"
    },
    {
      "anonymous": false,
      "inputs": [
        {
          "indexed": true,
          "internalType": "address",
          "name": "owner",
          "type": "address"
        },
        {
          "indexed": true,
          "internalType": "address",
          "name": "operator",
          "type": "address"
        },
        {
          "indexed": false,
          "internalType": "bool",
          "name": "approved",
          "type": "bool"
        }
      ],
      "name": "ApprovalForAll",
      "type": "event"
    },
    {
      "anonymous": false,
      "inputs": [
        {
          "indexed": true,
          "internalType": "address",
          "name": "_to",
          "type": "address"
        },
        {
          "indexed": true,
          "internalType": "string",
          "name": "_tokenURI",
          "type": "string"
        },
        {
          "indexed": true,
          "internalType": "string",
          "name": "_badgeId",
          "type": "string"
        }
      ],
      "name": "NFTPathwayMinted",
      "type": "event"
    },
    {
      "anonymous": false,
      "inputs": [
        {
          "indexed": true,
          "internalType": "address",
          "name": "previousOwner",
          "type": "address"
        },
        {
          "indexed": true,
          "internalType": "address",
          "name": "newOwner",
          "type": "address"
        }
      ],
      "name": "OwnershipTransferred",
      "type": "event"
    },
    {
      "anonymous": false,
      "inputs": [
        {
          "indexed": true,
          "internalType": "string",
          "name": "_pathwayId",
          "type": "string"
        }
      ],
      "name": "PathwayApproved",
      "type": "event"
    },
    {
      "anonymous": false,
      "inputs": [
        {
          "indexed": false,
          "internalType": "address",
          "name": "_caller",
          "type": "address"
        },
        {
          "indexed": false,
          "internalType": "uint256",
          "name": "_value",
          "type": "uint256"
        }
      ],
      "name": "ReceiveCalled",
      "type": "event"
    },
    {
      "anonymous": false,
      "inputs": [
        {
          "indexed": true,
          "internalType": "address",
          "name": "from",
          "type": "address"
        },
        {
          "indexed": true,
          "internalType": "address",
          "name": "to",
          "type": "address"
        },
        {
          "indexed": true,
          "internalType": "uint256",
          "name": "tokenId",
          "type": "uint256"
        }
      ],
      "name": "Transfer",
      "type": "event"
    },
    {
      "inputs": [
        {
          "internalType": "address",
          "name": "to",
          "type": "address"
        },
        {
          "internalType": "uint256",
          "name": "tokenId",
          "type": "uint256"
        }
      ],
      "name": "approve",
      "outputs": [],
      "stateMutability": "nonpayable",
      "type": "function"
    },
    {
      "inputs": [
        {
          "internalType": "address",
          "name": "owner",
          "type": "address"
        }
      ],
      "name": "balanceOf",
      "outputs": [
        {
          "internalType": "uint256",
          "name": "",
          "type": "uint256"
        }
      ],
      "stateMutability": "view",
      "type": "function"
    },
    {
      "inputs": [
        {
          "internalType": "string",
          "name": "_tokenURI",
          "type": "string"
        },
        {
          "internalType": "string",
          "name": "_pathwayId",
          "type": "string"
        },
        {
          "internalType": "string",
          "name": "_projectId",
          "type": "string"
        },
        {
          "internalType": "bytes32[2]",
          "name": "r",
          "type": "bytes32[2]"
        },
        {
          "internalType": "bytes32[2]",
          "name": "s",
          "type": "bytes32[2]"
        },
        {
          "internalType": "uint8[2]",
          "name": "v",
          "type": "uint8[2]"
        },
        {
          "internalType": "uint256",
          "name": "votesNeeded",
          "type": "uint256"
        }
      ],
      "name": "createToken",
      "outputs": [
        {
          "internalType": "uint256[]",
          "name": "",
          "type": "uint256[]"
        }
      ],
      "stateMutability": "nonpayable",
      "type": "function"
    },
    {
      "inputs": [
        {
          "internalType": "uint256",
          "name": "tokenId",
          "type": "uint256"
        }
      ],
      "name": "getApproved",
      "outputs": [
        {
          "internalType": "address",
          "name": "",
          "type": "address"
        }
      ],
      "stateMutability": "view",
      "type": "function"
    },
    {
      "inputs": [
        {
          "internalType": "address",
          "name": "owner",
          "type": "address"
        },
        {
          "internalType": "address",
          "name": "operator",
          "type": "address"
        }
      ],
      "name": "isApprovedForAll",
      "outputs": [
        {
          "internalType": "bool",
          "name": "",
          "type": "bool"
        }
      ],
      "stateMutability": "view",
      "type": "function"
    },
    {
      "inputs": [],
      "name": "name",
      "outputs": [
        {
          "internalType": "string",
          "name": "",
          "type": "string"
        }
      ],
      "stateMutability": "view",
      "type": "function"
    },
    {
      "inputs": [],
      "name": "owner",
      "outputs": [
        {
          "internalType": "address",
          "name": "",
          "type": "address"
        }
      ],
      "stateMutability": "view",
      "type": "function"
    },
    {
      "inputs": [
        {
          "internalType": "uint256",
          "name": "tokenId",
          "type": "uint256"
        }
      ],
      "name": "ownerOf",
      "outputs": [
        {
          "internalType": "address",
          "name": "",
          "type": "address"
        }
      ],
      "stateMutability": "view",
      "type": "function"
    },
    {
      "inputs": [
        {
          "internalType": "string",
          "name": "",
          "type": "string"
        }
      ],
      "name": "pathwayMinted",
      "outputs": [
        {
          "internalType": "bool",
          "name": "",
          "type": "bool"
        }
      ],
      "stateMutability": "view",
      "type": "function"
    },
    {
      "inputs": [
        {
          "internalType": "string",
          "name": "",
          "type": "string"
        }
      ],
      "name": "projectIdforPathway",
      "outputs": [
        {
          "internalType": "string",
          "name": "",
          "type": "string"
        }
      ],
      "stateMutability": "view",
      "type": "function"
    },
    {
      "inputs": [],
      "name": "renounceOwnership",
      "outputs": [],
      "stateMutability": "nonpayable",
      "type": "function"
    },
    {
      "inputs": [
        {
          "internalType": "string",
          "name": "",
          "type": "string"
        },
        {
          "internalType": "address",
          "name": "",
          "type": "address"
        }
      ],
      "name": "reviewerVotes",
      "outputs": [
        {
          "internalType": "bool",
          "name": "",
          "type": "bool"
        }
      ],
      "stateMutability": "view",
      "type": "function"
    },
    {
      "inputs": [
        {
          "internalType": "address",
          "name": "from",
          "type": "address"
        },
        {
          "internalType": "address",
          "name": "to",
          "type": "address"
        },
        {
          "internalType": "uint256",
          "name": "tokenId",
          "type": "uint256"
        }
      ],
      "name": "safeTransferFrom",
      "outputs": [],
      "stateMutability": "nonpayable",
      "type": "function"
    },
    {
      "inputs": [
        {
          "internalType": "address",
          "name": "from",
          "type": "address"
        },
        {
          "internalType": "address",
          "name": "to",
          "type": "address"
        },
        {
          "internalType": "uint256",
          "name": "tokenId",
          "type": "uint256"
        },
        {
          "internalType": "bytes",
          "name": "_data",
          "type": "bytes"
        }
      ],
      "name": "safeTransferFrom",
      "outputs": [],
      "stateMutability": "nonpayable",
      "type": "function"
    },
    {
      "inputs": [
        {
          "internalType": "address",
          "name": "operator",
          "type": "address"
        },
        {
          "internalType": "bool",
          "name": "approved",
          "type": "bool"
        }
      ],
      "name": "setApprovalForAll",
      "outputs": [],
      "stateMutability": "nonpayable",
      "type": "function"
    },
    {
      "inputs": [
        {
          "internalType": "string",
          "name": "",
          "type": "string"
        }
      ],
      "name": "status",
      "outputs": [
        {
          "internalType": "enum PathwayNFT.PathwayStatus",
          "name": "",
          "type": "uint8"
        }
      ],
      "stateMutability": "view",
      "type": "function"
    },
    {
      "inputs": [
        {
          "internalType": "uint256",
          "name": "",
          "type": "uint256"
        }
      ],
      "name": "statusStrings",
      "outputs": [
        {
          "internalType": "string",
          "name": "",
          "type": "string"
        }
      ],
      "stateMutability": "view",
      "type": "function"
    },
    {
      "inputs": [
        {
          "internalType": "bytes4",
          "name": "interfaceId",
          "type": "bytes4"
        }
      ],
      "name": "supportsInterface",
      "outputs": [
        {
          "internalType": "bool",
          "name": "",
          "type": "bool"
        }
      ],
      "stateMutability": "view",
      "type": "function"
    },
    {
      "inputs": [],
      "name": "symbol",
      "outputs": [
        {
          "internalType": "string",
          "name": "",
          "type": "string"
        }
      ],
      "stateMutability": "view",
      "type": "function"
    },
    {
      "inputs": [
        {
          "internalType": "uint256",
          "name": "index",
          "type": "uint256"
        }
      ],
      "name": "tokenByIndex",
      "outputs": [
        {
          "internalType": "uint256",
          "name": "",
          "type": "uint256"
        }
      ],
      "stateMutability": "view",
      "type": "function"
    },
    {
      "inputs": [
        {
          "internalType": "address",
          "name": "owner",
          "type": "address"
        },
        {
          "internalType": "uint256",
          "name": "index",
          "type": "uint256"
        }
      ],
      "name": "tokenOfOwnerByIndex",
      "outputs": [
        {
          "internalType": "uint256",
          "name": "",
          "type": "uint256"
        }
      ],
      "stateMutability": "view",
      "type": "function"
    },
    {
      "inputs": [
        {
          "internalType": "uint256",
          "name": "tokenId",
          "type": "uint256"
        }
      ],
      "name": "tokenURI",
      "outputs": [
        {
          "internalType": "string",
          "name": "",
          "type": "string"
        }
      ],
      "stateMutability": "view",
      "type": "function"
    },
    {
      "inputs": [],
      "name": "totalSupply",
      "outputs": [
        {
          "internalType": "uint256",
          "name": "",
          "type": "uint256"
        }
      ],
      "stateMutability": "view",
      "type": "function"
    },
    {
      "inputs": [
        {
          "internalType": "address",
          "name": "from",
          "type": "address"
        },
        {
          "internalType": "address",
          "name": "to",
          "type": "address"
        },
        {
          "internalType": "uint256",
          "name": "tokenId",
          "type": "uint256"
        }
      ],
      "name": "transferFrom",
      "outputs": [],
      "stateMutability": "nonpayable",
      "type": "function"
    },
    {
      "inputs": [
        {
          "internalType": "address",
          "name": "newOwner",
          "type": "address"
        }
      ],
      "name": "transferOwnership",
      "outputs": [],
      "stateMutability": "nonpayable",
      "type": "function"
    },
    {
      "inputs": [
        {
          "internalType": "address[]",
          "name": "_contributors",
          "type": "address[]"
        },
        {
          "internalType": "string",
          "name": "_pathwayId",
          "type": "string"
        },
        {
          "internalType": "string",
          "name": "_projectId",
          "type": "string"
        },
        {
          "internalType": "bytes32[]",
          "name": "r",
          "type": "bytes32[]"
        },
        {
          "internalType": "bytes32[]",
          "name": "s",
          "type": "bytes32[]"
        },
        {
          "internalType": "uint8[]",
          "name": "v",
          "type": "uint8[]"
        },
        {
          "internalType": "uint256",
          "name": "votesNeeded",
          "type": "uint256"
        }
      ],
      "name": "voteForApproval",
      "outputs": [],
      "stateMutability": "nonpayable",
      "type": "function"
    },
    {
      "inputs": [
        {
          "internalType": "string",
          "name": "",
          "type": "string"
        }
      ],
      "name": "votes",
      "outputs": [
        {
          "internalType": "uint256",
          "name": "",
          "type": "uint256"
        }
      ],
      "stateMutability": "view",
      "type": "function"
    },
    {
      "inputs": [
        {
          "internalType": "address",
          "name": "_owner",
          "type": "address"
        }
      ],
      "name": "walletOfOwner",
      "outputs": [
        {
          "internalType": "uint256[]",
          "name": "",
          "type": "uint256[]"
        }
      ],
      "stateMutability": "view",
      "type": "function"
    },
    {
      "stateMutability": "payable",
      "type": "receive"
    }
  ],
  "transactionHash": "0x27f621a0ec5856a439d8541688f58ba3ad592fffd5003d83182503321011bd80",
  "args": [
    "0x390BfAcf67ea7E48427Cf1eB55FA1ec2beB687d3",
    "0xaDdC5a35DEc443139e221D19Cf82167BEcA00151",
    "0x085cF156B9D7890432516518BDe9fd92Ce1a82c3"
  ],
  "solcInputHash": "e6e20ef9d8dc2d8fe4e95c6313fcd8a7",
  "bytecode": "0x60806040523480156200001157600080fd5b506040516200365c3803806200365c833981016040819052620000349162000384565b604080518082018252600d81526c64436f6d70617373426164676560981b6020808301918252835180850190945260068452652221a7a6a82160d11b9084015281519192916200008791600091620002c1565b5080516200009d906001906020840190620002c1565b505050620000ba620000b46200026b60201b60201c565b6200026f565b600d80546001600160a01b038086166001600160a01b031992831617909255600e8054848416908316179055600f80549285169290911691909117905560408051808201909152600b81526a1393d391561254d511539560aa1b60208083019182526000805260109052905162000153917f6e0956cda88cad152e89927e53611735b61a5c762d1428573c6931b0a5efcb0191620002c1565b5060408051808201909152600781526650454e44494e4760c81b60208083019182526001600052601090529051620001ad917f8c6065603763fec3f5742441d3833f3f43b982453612d76adb39a885e3006b5f91620002c1565b5060408051808201909152600681526511115392515160d21b6020808301918252600260005260109052905162000206917f853b2fefe141400fef543280f93d98bd49996069f632d0d20236afeeed8e46a291620002c1565b506040805180820190915260088152671054141493d5915160c21b6020808301918252600360005260109052905162000261917fb3edd0d534d647cffdae9f1294f11ad21f3fcf2814bea44c92bbb8d384a57d9e91620002c1565b505050506200040b565b3390565b600b80546001600160a01b038381166001600160a01b0319831681179093556040519116919082907f8be0079c531659141344cd1fd0a4f28419497f9722a3daafe3b4186f6b6457e090600090a35050565b828054620002cf90620003ce565b90600052602060002090601f016020900481019282620002f357600085556200033e565b82601f106200030e57805160ff19168380011785556200033e565b828001600101855582156200033e579182015b828111156200033e57825182559160200191906001019062000321565b506200034c92915062000350565b5090565b5b808211156200034c576000815560010162000351565b80516001600160a01b03811681146200037f57600080fd5b919050565b6000806000606084860312156200039a57600080fd5b620003a58462000367565b9250620003b56020850162000367565b9150620003c56040850162000367565b90509250925092565b600181811c90821680620003e357607f821691505b602082108114156200040557634e487b7160e01b600052602260045260246000fd5b50919050565b613241806200041b6000396000f3fe6080604052600436106101bb5760003560e01c80636352211e116100ec578063a22cb4651161008a578063c87b56dd11610064578063c87b56dd14610582578063e8ca64f4146105a2578063e985e9c5146105ea578063f2fde38b1461063357600080fd5b8063a22cb4651461050a578063b88d4fde1461052a578063b99ef1fa1461054a57600080fd5b80638b11cf8a116100c65780638b11cf8a1461046c5780638da5cb5b1461048c57806395d89b41146104aa5780639e1b567c146104bf57600080fd5b80636352211e1461041757806370a0823114610437578063715018a61461045757600080fd5b806318160ddd1161015957806342842e0e1161013357806342842e0e1461037c578063438b63001461039c5780634f6ccce7146103bc5780635398ba74146103dc57600080fd5b806318160ddd1461031d57806323b872dd1461033c5780632f745c591461035c57600080fd5b8063081812fc11610195578063081812fc14610276578063095ea7b3146102ae5780630d0654d9146102d05780630f6ff720146102fd57600080fd5b806301ffc9a7146101ff57806304dcd3001461023457806306fdde031461026157600080fd5b366101fa57604080513381523460208201527f64c983f10188c30a885d77970aa5aae9a86e80ef9b459ad33cc620eb5999e070910160405180910390a1005b600080fd5b34801561020b57600080fd5b5061021f61021a366004612bb1565b610653565b60405190151581526020015b60405180910390f35b34801561024057600080fd5b5061025461024f366004612d79565b610664565b60405161022b9190612f56565b34801561026d57600080fd5b506102546106fe565b34801561028257600080fd5b50610296610291366004612d79565b610790565b6040516001600160a01b03909116815260200161022b565b3480156102ba57600080fd5b506102ce6102c9366004612a6a565b61081d565b005b3480156102dc57600080fd5b506102f06102eb366004612c65565b610933565b60405161022b9190612eea565b34801561030957600080fd5b506102ce610318366004612a94565b610ed4565b34801561032957600080fd5b506009545b60405190815260200161022b565b34801561034857600080fd5b506102ce61035736600461297b565b6113f8565b34801561036857600080fd5b5061032e610377366004612a6a565b611429565b34801561038857600080fd5b506102ce61039736600461297b565b6114bf565b3480156103a857600080fd5b506102f06103b736600461292d565b6114da565b3480156103c857600080fd5b5061032e6103d7366004612d79565b61157c565b3480156103e857600080fd5b5061021f6103f7366004612beb565b805160208183018101805160118252928201919093012091525460ff1681565b34801561042357600080fd5b50610296610432366004612d79565b61160f565b34801561044357600080fd5b5061032e61045236600461292d565b611686565b34801561046357600080fd5b506102ce61170d565b34801561047857600080fd5b50610254610487366004612beb565b611773565b34801561049857600080fd5b50600b546001600160a01b0316610296565b3480156104b657600080fd5b50610254611797565b3480156104cb57600080fd5b5061021f6104da366004612c20565b81516020818401810180516017825292820194820194909420919093529091526000908152604090205460ff1681565b34801561051657600080fd5b506102ce610525366004612a33565b6117a6565b34801561053657600080fd5b506102ce6105453660046129b7565b61186b565b34801561055657600080fd5b5061032e610565366004612beb565b805160208183018101805160168252928201919093012091525481565b34801561058e57600080fd5b5061025461059d366004612d79565b6118a3565b3480156105ae57600080fd5b506105dd6105bd366004612beb565b805160208183018101805160158252928201919093012091525460ff1681565b60405161022b9190612f2e565b3480156105f657600080fd5b5061021f610605366004612948565b6001600160a01b03918216600090815260056020908152604080832093909416825291909152205460ff1690565b34801561063f57600080fd5b506102ce61064e36600461292d565b6118ae565b600061065e82611979565b92915050565b6010602052600090815260409020805461067d906130f9565b80601f01602080910402602001604051908101604052809291908181526020018280546106a9906130f9565b80156106f65780601f106106cb576101008083540402835291602001916106f6565b820191906000526020600020905b8154815290600101906020018083116106d957829003601f168201915b505050505081565b60606000805461070d906130f9565b80601f0160208091040260200160405190810160405280929190818152602001828054610739906130f9565b80156107865780601f1061075b57610100808354040283529160200191610786565b820191906000526020600020905b81548152906001019060200180831161076957829003601f168201915b5050505050905090565b600061079b8261199e565b6108015760405162461bcd60e51b815260206004820152602c60248201527f4552433732313a20617070726f76656420717565727920666f72206e6f6e657860448201526b34b9ba32b73a103a37b5b2b760a11b60648201526084015b60405180910390fd5b506000908152600460205260409020546001600160a01b031690565b60006108288261160f565b9050806001600160a01b0316836001600160a01b031614156108965760405162461bcd60e51b815260206004820152602160248201527f4552433732313a20617070726f76616c20746f2063757272656e74206f776e656044820152603960f91b60648201526084016107f8565b336001600160a01b03821614806108b257506108b28133610605565b6109245760405162461bcd60e51b815260206004820152603860248201527f4552433732313a20617070726f76652063616c6c6572206973206e6f74206f7760448201527f6e6572206e6f7220617070726f76656420666f7220616c6c000000000000000060648201526084016107f8565b61092e83836119bb565b505050565b60606011876040516109459190612dbe565b9081526040519081900360200190205460ff16156109965760405162461bcd60e51b815260206004820152600e60248201526d185b1c9958591e481b5a5b9d195960921b60448201526064016107f8565b600e54855185518551604051630903288360e11b81526000946001600160a01b0316936312065106936109d59333938f938f9390929091600401612e46565b602060405180830381600087803b1580156109ef57600080fd5b505af1158015610a03573d6000803e3d6000fd5b505050506040513d601f19601f82011682018060405250810190610a279190612b94565b905080610a845760405162461bcd60e51b815260206004820152602560248201527f73656e646572206973206e6f7420617070726f7665642070726f6a656374206d60448201526434b73a32b960d91b60648201526084016107f8565b6001601589604051610a969190612dbe565b9081526040519081900360200190205460ff166003811115610aba57610aba61318f565b1415610c5457601688604051610ad09190612dbe565b908152602001604051809103902054831115610b215760405162461bcd60e51b815260206004820152601060248201526f6e6f7420656e6f75676820766f74657360801b60448201526064016107f8565b600e546000906001600160a01b031663466cc53e338b878b600160200201518b600160200201518b600160200201516040518763ffffffff1660e01b8152600401610b7196959493929190612e9e565b602060405180830381600087803b158015610b8b57600080fd5b505af1158015610b9f573d6000803e3d6000fd5b505050506040513d601f19601f82011682018060405250810190610bc39190612b94565b905080610c125760405162461bcd60e51b815260206004820152601b60248201527f696e636f727265637420766f746573206e65656465642073656e74000000000060448201526064016107f8565b600360158a604051610c249190612dbe565b908152604051908190036020019020805460ff19166001836003811115610c4d57610c4d61318f565b0217905550505b6003601589604051610c669190612dbe565b9081526040519081900360200190205460ff166003811115610c8a57610c8a61318f565b14610ced5760405162461bcd60e51b815260206004820152602d60248201527f63616e206f6e6c79206d696e7420666f7220706174687761797320696e20617060448201526c70726f7665642073746174757360981b60648201526084016107f8565b6000601289604051610cff9190612dbe565b9081526040519081900360200190205467ffffffffffffffff811115610d2757610d276131d1565b604051908082528060200260200182016040528015610d50578160200160208202803683370190505b5090506000805b60128b604051610d679190612dbe565b90815260405190819003602001902054811015610e9257610d8c600c80546001019055565b600c549150610dde60128c604051610da49190612dbe565b90815260200160405180910390208281548110610dc357610dc36131bb565b6000918252602090912001546001600160a01b031683611a29565b610de8828d611b68565b8a604051610df69190612dbe565b60405180910390208c604051610e0c9190612dbe565b604051809103902060128d604051610e249190612dbe565b90815260200160405180910390208381548110610e4357610e436131bb565b60009182526020822001546040516001600160a01b03909116917f323af8e82495eba529e101c6ea8614b66233683ec49766c746a7203ba276185e91a480610e8a81613134565b915050610d57565b50600160118b604051610ea59190612dbe565b908152604051908190036020019020805491151560ff1990921691909117905550915050979650505050505050565b6002601587604051610ee69190612dbe565b9081526040519081900360200190205460ff166003811115610f0a57610f0a61318f565b14158015610f4c57506003601587604051610f259190612dbe565b9081526040519081900360200190205460ff166003811115610f4957610f4961318f565b14155b610f8a5760405162461bcd60e51b815260206004820152600f60248201526e66696e616c697a656420626164676560881b60448201526064016107f8565b601786604051610f9a9190612dbe565b90815260200160405180910390206000610fb13390565b6001600160a01b0316815260208101919091526040016000205460ff161561101b5760405162461bcd60e51b815260206004820152601c60248201527f616c726561647920766f74656420666f7220746869732062616467650000000060448201526064016107f8565b600e546000906001600160a01b0316631206510633898989600081518110611045576110456131bb565b602002602001015189600081518110611060576110606131bb565b60200260200101518960008151811061107b5761107b6131bb565b60200260200101516040518763ffffffff1660e01b81526004016110a496959493929190612e46565b602060405180830381600087803b1580156110be57600080fd5b505af11580156110d2573d6000803e3d6000fd5b505050506040513d601f19601f820116820180604052508101906110f69190612b94565b90506016876040516111089190612dbe565b908152604051908190036020019020805490600061112583613134565b9190505550600160178860405161113c9190612dbe565b908152602001604051809103902060006111533390565b6001600160a01b0316815260208101919091526040016000908120805460ff19169215159290921790915560158860405161118e9190612dbe565b9081526040519081900360200190205460ff1660038111156111b2576111b261318f565b141561134a5760008851116111f75760405162461bcd60e51b815260206004820152600b60248201526a656d70747920617272617960a81b60448201526064016107f8565b876012886040516112089190612dbe565b90815260200160405180910390209080519060200190611229929190612602565b508560148860405161123b9190612dbe565b9081526020016040518091039020908051906020019061125c929190612667565b5060168760405161126d9190612dbe565b90815260200160405180910390205482116113055760036015886040516112949190612dbe565b908152604051908190036020019020805460ff191660018360038111156112bd576112bd61318f565b0217905550866040516112d09190612dbe565b604051908190038120907fcf525faa39dde00362f50602e2030eb0b110857c69ffaf3c69a504b41962bf0f90600090a26113ee565b60016015886040516113179190612dbe565b908152604051908190036020019020805460ff191660018360038111156113405761134061318f565b02179055506113ee565b8160168860405161135b9190612dbe565b908152602001604051809103902054106113ee5760036015886040516113819190612dbe565b908152604051908190036020019020805460ff191660018360038111156113aa576113aa61318f565b0217905550866040516113bd9190612dbe565b604051908190038120907fcf525faa39dde00362f50602e2030eb0b110857c69ffaf3c69a504b41962bf0f90600090a25b5050505050505050565b6114023382611bf3565b61141e5760405162461bcd60e51b81526004016107f890612fbb565b61092e838383611cdd565b600061143483611686565b82106114965760405162461bcd60e51b815260206004820152602b60248201527f455243373231456e756d657261626c653a206f776e657220696e646578206f7560448201526a74206f6620626f756e647360a81b60648201526084016107f8565b506001600160a01b03919091166000908152600760209081526040808320938352929052205490565b61092e8383836040518060200160405280600081525061186b565b606060006114e783611686565b905060008167ffffffffffffffff811115611504576115046131d1565b60405190808252806020026020018201604052801561152d578160200160208202803683370190505b50905060005b82811015611574576115458582611429565b828281518110611557576115576131bb565b60209081029190910101528061156c81613134565b915050611533565b509392505050565b600061158760095490565b82106115ea5760405162461bcd60e51b815260206004820152602c60248201527f455243373231456e756d657261626c653a20676c6f62616c20696e646578206f60448201526b7574206f6620626f756e647360a01b60648201526084016107f8565b600982815481106115fd576115fd6131bb565b90600052602060002001549050919050565b6000818152600260205260408120546001600160a01b03168061065e5760405162461bcd60e51b815260206004820152602960248201527f4552433732313a206f776e657220717565727920666f72206e6f6e657869737460448201526832b73a103a37b5b2b760b91b60648201526084016107f8565b60006001600160a01b0382166116f15760405162461bcd60e51b815260206004820152602a60248201527f4552433732313a2062616c616e636520717565727920666f7220746865207a65604482015269726f206164647265737360b01b60648201526084016107f8565b506001600160a01b031660009081526003602052604090205490565b600b546001600160a01b031633146117675760405162461bcd60e51b815260206004820181905260248201527f4f776e61626c653a2063616c6c6572206973206e6f7420746865206f776e657260448201526064016107f8565b6117716000611e88565b565b80516020818301810180516014825292820191909301209152805461067d906130f9565b60606001805461070d906130f9565b6001600160a01b0382163314156117ff5760405162461bcd60e51b815260206004820152601960248201527f4552433732313a20617070726f766520746f2063616c6c65720000000000000060448201526064016107f8565b3360008181526005602090815260408083206001600160a01b03871680855290835292819020805460ff191686151590811790915590519081529192917f17307eab39ab6107e8899845ad3d59bd9653f200f220920489ca2b5937696c31910160405180910390a35050565b6118753383611bf3565b6118915760405162461bcd60e51b81526004016107f890612fbb565b61189d84848484611eda565b50505050565b606061065e82611f0d565b600b546001600160a01b031633146119085760405162461bcd60e51b815260206004820181905260248201527f4f776e61626c653a2063616c6c6572206973206e6f7420746865206f776e657260448201526064016107f8565b6001600160a01b03811661196d5760405162461bcd60e51b815260206004820152602660248201527f4f776e61626c653a206e6577206f776e657220697320746865207a65726f206160448201526564647265737360d01b60648201526084016107f8565b61197681611e88565b50565b60006001600160e01b0319821663780e9d6360e01b148061065e575061065e8261207c565b6000908152600260205260409020546001600160a01b0316151590565b600081815260046020526040902080546001600160a01b0319166001600160a01b03841690811790915581906119f08261160f565b6001600160a01b03167f8c5be1e5ebec7d5bd14f71427d1e84f3dd0314c0f7b2291e5b200ac8c7c3b92560405160405180910390a45050565b6001600160a01b038216611a7f5760405162461bcd60e51b815260206004820181905260248201527f4552433732313a206d696e7420746f20746865207a65726f206164647265737360448201526064016107f8565b611a888161199e565b15611ad55760405162461bcd60e51b815260206004820152601c60248201527f4552433732313a20746f6b656e20616c7265616479206d696e7465640000000060448201526064016107f8565b611ae1600083836120cc565b6001600160a01b0382166000908152600360205260408120805460019290611b0a90849061308a565b909155505060008181526002602052604080822080546001600160a01b0319166001600160a01b03861690811790915590518392907fddf252ad1be2c89b69c2b068fc378daa952ba7f163c4a11628f55a4df523b3ef908290a45050565b611b718261199e565b611bd45760405162461bcd60e51b815260206004820152602e60248201527f45524337323155524953746f726167653a2055524920736574206f66206e6f6e60448201526d32bc34b9ba32b73a103a37b5b2b760911b60648201526084016107f8565b6000828152600660209081526040909120825161092e92840190612667565b6000611bfe8261199e565b611c5f5760405162461bcd60e51b815260206004820152602c60248201527f4552433732313a206f70657261746f7220717565727920666f72206e6f6e657860448201526b34b9ba32b73a103a37b5b2b760a11b60648201526084016107f8565b6000611c6a8361160f565b9050806001600160a01b0316846001600160a01b03161480611ca55750836001600160a01b0316611c9a84610790565b6001600160a01b0316145b80611cd557506001600160a01b0380821660009081526005602090815260408083209388168352929052205460ff165b949350505050565b826001600160a01b0316611cf08261160f565b6001600160a01b031614611d585760405162461bcd60e51b815260206004820152602960248201527f4552433732313a207472616e73666572206f6620746f6b656e2074686174206960448201526839903737ba1037bbb760b91b60648201526084016107f8565b6001600160a01b038216611dba5760405162461bcd60e51b8152602060048201526024808201527f4552433732313a207472616e7366657220746f20746865207a65726f206164646044820152637265737360e01b60648201526084016107f8565b611dc58383836120cc565b611dd06000826119bb565b6001600160a01b0383166000908152600360205260408120805460019290611df99084906130b6565b90915550506001600160a01b0382166000908152600360205260408120805460019290611e2790849061308a565b909155505060008181526002602052604080822080546001600160a01b0319166001600160a01b0386811691821790925591518493918716917fddf252ad1be2c89b69c2b068fc378daa952ba7f163c4a11628f55a4df523b3ef91a4505050565b600b80546001600160a01b038381166001600160a01b0319831681179093556040519116919082907f8be0079c531659141344cd1fd0a4f28419497f9722a3daafe3b4186f6b6457e090600090a35050565b611ee5848484611cdd565b611ef1848484846120d7565b61189d5760405162461bcd60e51b81526004016107f890612f69565b6060611f188261199e565b611f7e5760405162461bcd60e51b815260206004820152603160248201527f45524337323155524953746f726167653a2055524920717565727920666f72206044820152703737b732bc34b9ba32b73a103a37b5b2b760791b60648201526084016107f8565b60008281526006602052604081208054611f97906130f9565b80601f0160208091040260200160405190810160405280929190818152602001828054611fc3906130f9565b80156120105780601f10611fe557610100808354040283529160200191612010565b820191906000526020600020905b815481529060010190602001808311611ff357829003601f168201915b50505050509050600061202e60408051602081019091526000815290565b9050805160001415612041575092915050565b81511561207357808260405160200161205b929190612dda565b60405160208183030381529060405292505050919050565b611cd5846121e4565b60006001600160e01b031982166380ac58cd60e01b14806120ad57506001600160e01b03198216635b5e139f60e01b145b8061065e57506301ffc9a760e01b6001600160e01b031983161461065e565b61092e8383836122bc565b60006001600160a01b0384163b156121d957604051630a85bd0160e11b81526001600160a01b0385169063150b7a029061211b903390899088908890600401612e09565b602060405180830381600087803b15801561213557600080fd5b505af1925050508015612165575060408051601f3d908101601f1916820190925261216291810190612bce565b60015b6121bf573d808015612193576040519150601f19603f3d011682016040523d82523d6000602084013e612198565b606091505b5080516121b75760405162461bcd60e51b81526004016107f890612f69565b805181602001fd5b6001600160e01b031916630a85bd0160e11b149050611cd5565b506001949350505050565b60606121ef8261199e565b6122535760405162461bcd60e51b815260206004820152602f60248201527f4552433732314d657461646174613a2055524920717565727920666f72206e6f60448201526e3732bc34b9ba32b73a103a37b5b2b760891b60648201526084016107f8565b600061226a60408051602081019091526000815290565b9050600081511161228a57604051806020016040528060008152506122b5565b8061229484612374565b6040516020016122a5929190612dda565b6040516020818303038152906040525b9392505050565b6001600160a01b0383166123175761231281600980546000838152600a60205260408120829055600182018355919091527f6e1540171b6c0c960b71a7020d9f60077f6af931a8bbf590da0223dacf75c7af0155565b61233a565b816001600160a01b0316836001600160a01b03161461233a5761233a8382612472565b6001600160a01b0382166123515761092e8161250f565b826001600160a01b0316826001600160a01b03161461092e5761092e82826125be565b6060816123985750506040805180820190915260018152600360fc1b602082015290565b8160005b81156123c257806123ac81613134565b91506123bb9050600a836130a2565b915061239c565b60008167ffffffffffffffff8111156123dd576123dd6131d1565b6040519080825280601f01601f191660200182016040528015612407576020820181803683370190505b5090505b8415611cd55761241c6001836130b6565b9150612429600a8661314f565b61243490603061308a565b60f81b818381518110612449576124496131bb565b60200101906001600160f81b031916908160001a90535061246b600a866130a2565b945061240b565b6000600161247f84611686565b61248991906130b6565b6000838152600860205260409020549091508082146124dc576001600160a01b03841660009081526007602090815260408083208584528252808320548484528184208190558352600890915290208190555b5060009182526008602090815260408084208490556001600160a01b039094168352600781528383209183525290812055565b600954600090612521906001906130b6565b6000838152600a602052604081205460098054939450909284908110612549576125496131bb565b90600052602060002001549050806009838154811061256a5761256a6131bb565b6000918252602080832090910192909255828152600a909152604080822084905585825281205560098054806125a2576125a26131a5565b6001900381819060005260206000200160009055905550505050565b60006125c983611686565b6001600160a01b039093166000908152600760209081526040808320868452825280832085905593825260089052919091209190915550565b828054828255906000526020600020908101928215612657579160200282015b8281111561265757825182546001600160a01b0319166001600160a01b03909116178255602090920191600190910190612622565b506126639291506126db565b5090565b828054612673906130f9565b90600052602060002090601f0160209004810192826126955760008555612657565b82601f106126ae57805160ff1916838001178555612657565b82800160010185558215612657579182015b828111156126575782518255916020019190600101906126c0565b5b8082111561266357600081556001016126dc565b600067ffffffffffffffff83111561270a5761270a6131d1565b61271d601f8401601f1916602001613035565b905082815283838301111561273157600080fd5b828260208301376000602084830101529392505050565b80356001600160a01b038116811461275f57600080fd5b919050565b600082601f83011261277557600080fd5b8135602061278a61278583613066565b613035565b80838252828201915082860187848660051b89010111156127aa57600080fd5b60005b858110156127d0576127be82612748565b845292840192908401906001016127ad565b5090979650505050505050565b600082601f8301126127ee57600080fd5b6127f661300c565b80838560408601111561280857600080fd5b60005b600281101561282a57813584526020938401939091019060010161280b565b509095945050505050565b600082601f83011261284657600080fd5b8135602061285661278583613066565b80838252828201915082860187848660051b890101111561287657600080fd5b60005b858110156127d057813584529284019290840190600101612879565b600082601f8301126128a657600080fd5b813560206128b661278583613066565b80838252828201915082860187848660051b89010111156128d657600080fd5b60005b858110156127d0576128ea8261291c565b845292840192908401906001016128d9565b600082601f83011261290d57600080fd5b6122b5838335602085016126f0565b803560ff8116811461275f57600080fd5b60006020828403121561293f57600080fd5b6122b582612748565b6000806040838503121561295b57600080fd5b61296483612748565b915061297260208401612748565b90509250929050565b60008060006060848603121561299057600080fd5b61299984612748565b92506129a760208501612748565b9150604084013590509250925092565b600080600080608085870312156129cd57600080fd5b6129d685612748565b93506129e460208601612748565b925060408501359150606085013567ffffffffffffffff811115612a0757600080fd5b8501601f81018713612a1857600080fd5b612a27878235602084016126f0565b91505092959194509250565b60008060408385031215612a4657600080fd5b612a4f83612748565b91506020830135612a5f816131e7565b809150509250929050565b60008060408385031215612a7d57600080fd5b612a8683612748565b946020939093013593505050565b600080600080600080600060e0888a031215612aaf57600080fd5b873567ffffffffffffffff80821115612ac757600080fd5b612ad38b838c01612764565b985060208a0135915080821115612ae957600080fd5b612af58b838c016128fc565b975060408a0135915080821115612b0b57600080fd5b612b178b838c016128fc565b965060608a0135915080821115612b2d57600080fd5b612b398b838c01612835565b955060808a0135915080821115612b4f57600080fd5b612b5b8b838c01612835565b945060a08a0135915080821115612b7157600080fd5b50612b7e8a828b01612895565b92505060c0880135905092959891949750929550565b600060208284031215612ba657600080fd5b81516122b5816131e7565b600060208284031215612bc357600080fd5b81356122b5816131f5565b600060208284031215612be057600080fd5b81516122b5816131f5565b600060208284031215612bfd57600080fd5b813567ffffffffffffffff811115612c1457600080fd5b611cd5848285016128fc565b60008060408385031215612c3357600080fd5b823567ffffffffffffffff811115612c4a57600080fd5b612c56858286016128fc565b92505061297260208401612748565b6000806000806000806000610140888a031215612c8157600080fd5b873567ffffffffffffffff80821115612c9957600080fd5b612ca58b838c016128fc565b985060209150818a013581811115612cbc57600080fd5b612cc88c828d016128fc565b98505060408a013581811115612cdd57600080fd5b612ce98c828d016128fc565b97505050612cfa8a60608b016127dd565b9450612d098a60a08b016127dd565b93508960ff8a0112612d1a57600080fd5b612d2261300c565b8060e08b016101208c018d811115612d3957600080fd5b60005b6002811015612d6057612d4e8361291c565b85529385019391850191600101612d3c565b5082965080359550505050505092959891949750929550565b600060208284031215612d8b57600080fd5b5035919050565b60008151808452612daa8160208601602086016130cd565b601f01601f19169290920160200192915050565b60008251612dd08184602087016130cd565b9190910192915050565b60008351612dec8184602088016130cd565b835190830190612e008183602088016130cd565b01949350505050565b6001600160a01b0385811682528416602082015260408101839052608060608201819052600090612e3c90830184612d92565b9695505050505050565b6001600160a01b038716815260c060208201819052600090612e6a90830188612d92565b8281036040840152612e7c8188612d92565b60608401969096525050608081019290925260ff1660a0909101529392505050565b6001600160a01b038716815260c060208201819052600090612ec290830188612d92565b905085604083015284606083015283608083015260ff831660a0830152979650505050505050565b6020808252825182820181905260009190848201906040850190845b81811015612f2257835183529284019291840191600101612f06565b50909695505050505050565b6020810160048310612f5057634e487b7160e01b600052602160045260246000fd5b91905290565b6020815260006122b56020830184612d92565b60208082526032908201527f4552433732313a207472616e7366657220746f206e6f6e20455243373231526560408201527131b2b4bb32b91034b6b83632b6b2b73a32b960711b606082015260800190565b60208082526031908201527f4552433732313a207472616e736665722063616c6c6572206973206e6f74206f6040820152701ddb995c881b9bdc88185c1c1c9bdd9959607a1b606082015260800190565b6040805190810167ffffffffffffffff8111828210171561302f5761302f6131d1565b60405290565b604051601f8201601f1916810167ffffffffffffffff8111828210171561305e5761305e6131d1565b604052919050565b600067ffffffffffffffff821115613080576130806131d1565b5060051b60200190565b6000821982111561309d5761309d613163565b500190565b6000826130b1576130b1613179565b500490565b6000828210156130c8576130c8613163565b500390565b60005b838110156130e85781810151838201526020016130d0565b8381111561189d5750506000910152565b600181811c9082168061310d57607f821691505b6020821081141561312e57634e487b7160e01b600052602260045260246000fd5b50919050565b600060001982141561314857613148613163565b5060010190565b60008261315e5761315e613179565b500690565b634e487b7160e01b600052601160045260246000fd5b634e487b7160e01b600052601260045260246000fd5b634e487b7160e01b600052602160045260246000fd5b634e487b7160e01b600052603160045260246000fd5b634e487b7160e01b600052603260045260246000fd5b634e487b7160e01b600052604160045260246000fd5b801515811461197657600080fd5b6001600160e01b03198116811461197657600080fdfea2646970667358221220fd984be4d9e84a8940fad8ae27602af51b261798f5b8968af77847e787059f5164736f6c63430008070033",
  "devdoc": {
    "kind": "dev",
    "methods": {
      "approve(address,uint256)": {
        "details": "See {IERC721-approve}."
      },
      "balanceOf(address)": {
        "details": "See {IERC721-balanceOf}."
      },
      "getApproved(uint256)": {
        "details": "See {IERC721-getApproved}."
      },
      "isApprovedForAll(address,address)": {
        "details": "See {IERC721-isApprovedForAll}."
      },
      "name()": {
        "details": "See {IERC721Metadata-name}."
      },
      "owner()": {
        "details": "Returns the address of the current owner."
      },
      "ownerOf(uint256)": {
        "details": "See {IERC721-ownerOf}."
      },
      "renounceOwnership()": {
        "details": "Leaves the contract without owner. It will not be possible to call `onlyOwner` functions anymore. Can only be called by the current owner. NOTE: Renouncing ownership will leave the contract without an owner, thereby removing any functionality that is only available to the owner."
      },
      "safeTransferFrom(address,address,uint256)": {
        "details": "See {IERC721-safeTransferFrom}."
      },
      "safeTransferFrom(address,address,uint256,bytes)": {
        "details": "See {IERC721-safeTransferFrom}."
      },
      "setApprovalForAll(address,bool)": {
        "details": "See {IERC721-setApprovalForAll}."
      },
      "symbol()": {
        "details": "See {IERC721Metadata-symbol}."
      },
      "tokenByIndex(uint256)": {
        "details": "See {IERC721Enumerable-tokenByIndex}."
      },
      "tokenOfOwnerByIndex(address,uint256)": {
        "details": "See {IERC721Enumerable-tokenOfOwnerByIndex}."
      },
      "totalSupply()": {
        "details": "See {IERC721Enumerable-totalSupply}."
      },
      "transferFrom(address,address,uint256)": {
        "details": "See {IERC721-transferFrom}."
      },
      "transferOwnership(address)": {
        "details": "Transfers ownership of the contract to a new account (`newOwner`). Can only be called by the current owner."
      }
    },
    "version": 1
  },
  "userdoc": {
    "kind": "user",
    "methods": {},
    "version": 1
  },
  "storageLayout": {
    "storage": [
      {
        "astId": 395,
        "contract": "contracts/PathwayNFT.sol:PathwayNFT",
        "label": "_name",
        "offset": 0,
        "slot": "0",
        "type": "t_string_storage"
      },
      {
        "astId": 397,
        "contract": "contracts/PathwayNFT.sol:PathwayNFT",
        "label": "_symbol",
        "offset": 0,
        "slot": "1",
        "type": "t_string_storage"
      },
      {
        "astId": 401,
        "contract": "contracts/PathwayNFT.sol:PathwayNFT",
        "label": "_owners",
        "offset": 0,
        "slot": "2",
        "type": "t_mapping(t_uint256,t_address)"
      },
      {
        "astId": 405,
        "contract": "contracts/PathwayNFT.sol:PathwayNFT",
        "label": "_balances",
        "offset": 0,
        "slot": "3",
        "type": "t_mapping(t_address,t_uint256)"
      },
      {
        "astId": 409,
        "contract": "contracts/PathwayNFT.sol:PathwayNFT",
        "label": "_tokenApprovals",
        "offset": 0,
        "slot": "4",
        "type": "t_mapping(t_uint256,t_address)"
      },
      {
        "astId": 415,
        "contract": "contracts/PathwayNFT.sol:PathwayNFT",
        "label": "_operatorApprovals",
        "offset": 0,
        "slot": "5",
        "type": "t_mapping(t_address,t_mapping(t_address,t_bool))"
      },
      {
        "astId": 1670,
        "contract": "contracts/PathwayNFT.sol:PathwayNFT",
        "label": "_tokenURIs",
        "offset": 0,
        "slot": "6",
        "type": "t_mapping(t_uint256,t_string_storage)"
      },
      {
        "astId": 1334,
        "contract": "contracts/PathwayNFT.sol:PathwayNFT",
        "label": "_ownedTokens",
        "offset": 0,
        "slot": "7",
        "type": "t_mapping(t_address,t_mapping(t_uint256,t_uint256))"
      },
      {
        "astId": 1338,
        "contract": "contracts/PathwayNFT.sol:PathwayNFT",
        "label": "_ownedTokensIndex",
        "offset": 0,
        "slot": "8",
        "type": "t_mapping(t_uint256,t_uint256)"
      },
      {
        "astId": 1341,
        "contract": "contracts/PathwayNFT.sol:PathwayNFT",
        "label": "_allTokens",
        "offset": 0,
        "slot": "9",
        "type": "t_array(t_uint256)dyn_storage"
      },
      {
        "astId": 1345,
        "contract": "contracts/PathwayNFT.sol:PathwayNFT",
        "label": "_allTokensIndex",
        "offset": 0,
        "slot": "10",
        "type": "t_mapping(t_uint256,t_uint256)"
      },
      {
        "astId": 273,
        "contract": "contracts/PathwayNFT.sol:PathwayNFT",
        "label": "_owner",
        "offset": 0,
        "slot": "11",
        "type": "t_address"
      },
      {
        "astId": 3214,
        "contract": "contracts/PathwayNFT.sol:PathwayNFT",
        "label": "_tokenIds",
        "offset": 0,
        "slot": "12",
        "type": "t_struct(Counter)2168_storage"
      },
      {
        "astId": 3217,
        "contract": "contracts/PathwayNFT.sol:PathwayNFT",
        "label": "vrfContract",
        "offset": 0,
        "slot": "13",
        "type": "t_contract(RandomNumberConsumer)4955"
      },
      {
        "astId": 3220,
        "contract": "contracts/PathwayNFT.sol:PathwayNFT",
        "label": "verifyContract",
        "offset": 0,
        "slot": "14",
        "type": "t_contract(Verify)5202"
      },
      {
        "astId": 3222,
        "contract": "contracts/PathwayNFT.sol:PathwayNFT",
        "label": "projectNFTAddress",
        "offset": 0,
        "slot": "15",
        "type": "t_address"
      },
      {
        "astId": 3226,
        "contract": "contracts/PathwayNFT.sol:PathwayNFT",
        "label": "statusStrings",
        "offset": 0,
        "slot": "16",
        "type": "t_mapping(t_uint256,t_string_storage)"
      },
      {
        "astId": 3230,
        "contract": "contracts/PathwayNFT.sol:PathwayNFT",
        "label": "pathwayMinted",
        "offset": 0,
        "slot": "17",
        "type": "t_mapping(t_string_memory_ptr,t_bool)"
      },
      {
        "astId": 3235,
        "contract": "contracts/PathwayNFT.sol:PathwayNFT",
        "label": "contributors",
        "offset": 0,
        "slot": "18",
        "type": "t_mapping(t_string_memory_ptr,t_array(t_address)dyn_storage)"
      },
      {
        "astId": 3238,
        "contract": "contracts/PathwayNFT.sol:PathwayNFT",
        "label": "rarityThresholds",
        "offset": 0,
        "slot": "19",
        "type": "t_array(t_uint8)dyn_storage"
      },
      {
        "astId": 3242,
        "contract": "contracts/PathwayNFT.sol:PathwayNFT",
        "label": "projectIdforPathway",
        "offset": 0,
        "slot": "20",
        "type": "t_mapping(t_string_memory_ptr,t_string_storage)"
      },
      {
        "astId": 3247,
        "contract": "contracts/PathwayNFT.sol:PathwayNFT",
        "label": "status",
        "offset": 0,
        "slot": "21",
        "type": "t_mapping(t_string_memory_ptr,t_enum(PathwayStatus)3262)"
      },
      {
        "astId": 3251,
        "contract": "contracts/PathwayNFT.sol:PathwayNFT",
        "label": "votes",
        "offset": 0,
        "slot": "22",
        "type": "t_mapping(t_string_memory_ptr,t_uint256)"
      },
      {
        "astId": 3257,
        "contract": "contracts/PathwayNFT.sol:PathwayNFT",
        "label": "reviewerVotes",
        "offset": 0,
        "slot": "23",
        "type": "t_mapping(t_string_memory_ptr,t_mapping(t_address,t_bool))"
      }
    ],
    "types": {
      "t_address": {
        "encoding": "inplace",
        "label": "address",
        "numberOfBytes": "20"
      },
      "t_array(t_address)dyn_storage": {
        "base": "t_address",
        "encoding": "dynamic_array",
        "label": "address[]",
        "numberOfBytes": "32"
      },
      "t_array(t_uint256)dyn_storage": {
        "base": "t_uint256",
        "encoding": "dynamic_array",
        "label": "uint256[]",
        "numberOfBytes": "32"
      },
      "t_array(t_uint8)dyn_storage": {
        "base": "t_uint8",
        "encoding": "dynamic_array",
        "label": "uint8[]",
        "numberOfBytes": "32"
      },
      "t_bool": {
        "encoding": "inplace",
        "label": "bool",
        "numberOfBytes": "1"
      },
      "t_contract(RandomNumberConsumer)4955": {
        "encoding": "inplace",
        "label": "contract RandomNumberConsumer",
        "numberOfBytes": "20"
      },
      "t_contract(Verify)5202": {
        "encoding": "inplace",
        "label": "contract Verify",
        "numberOfBytes": "20"
      },
      "t_enum(PathwayStatus)3262": {
        "encoding": "inplace",
        "label": "enum PathwayNFT.PathwayStatus",
        "numberOfBytes": "1"
      },
      "t_mapping(t_address,t_bool)": {
        "encoding": "mapping",
        "key": "t_address",
        "label": "mapping(address => bool)",
        "numberOfBytes": "32",
        "value": "t_bool"
      },
      "t_mapping(t_address,t_mapping(t_address,t_bool))": {
        "encoding": "mapping",
        "key": "t_address",
        "label": "mapping(address => mapping(address => bool))",
        "numberOfBytes": "32",
        "value": "t_mapping(t_address,t_bool)"
      },
      "t_mapping(t_address,t_mapping(t_uint256,t_uint256))": {
        "encoding": "mapping",
        "key": "t_address",
        "label": "mapping(address => mapping(uint256 => uint256))",
        "numberOfBytes": "32",
        "value": "t_mapping(t_uint256,t_uint256)"
      },
      "t_mapping(t_address,t_uint256)": {
        "encoding": "mapping",
        "key": "t_address",
        "label": "mapping(address => uint256)",
        "numberOfBytes": "32",
        "value": "t_uint256"
      },
      "t_mapping(t_string_memory_ptr,t_array(t_address)dyn_storage)": {
        "encoding": "mapping",
        "key": "t_string_memory_ptr",
        "label": "mapping(string => address[])",
        "numberOfBytes": "32",
        "value": "t_array(t_address)dyn_storage"
      },
      "t_mapping(t_string_memory_ptr,t_bool)": {
        "encoding": "mapping",
        "key": "t_string_memory_ptr",
        "label": "mapping(string => bool)",
        "numberOfBytes": "32",
        "value": "t_bool"
      },
      "t_mapping(t_string_memory_ptr,t_enum(PathwayStatus)3262)": {
        "encoding": "mapping",
        "key": "t_string_memory_ptr",
        "label": "mapping(string => enum PathwayNFT.PathwayStatus)",
        "numberOfBytes": "32",
        "value": "t_enum(PathwayStatus)3262"
      },
      "t_mapping(t_string_memory_ptr,t_mapping(t_address,t_bool))": {
        "encoding": "mapping",
        "key": "t_string_memory_ptr",
        "label": "mapping(string => mapping(address => bool))",
        "numberOfBytes": "32",
        "value": "t_mapping(t_address,t_bool)"
      },
      "t_mapping(t_string_memory_ptr,t_string_storage)": {
        "encoding": "mapping",
        "key": "t_string_memory_ptr",
        "label": "mapping(string => string)",
        "numberOfBytes": "32",
        "value": "t_string_storage"
      },
      "t_mapping(t_string_memory_ptr,t_uint256)": {
        "encoding": "mapping",
        "key": "t_string_memory_ptr",
        "label": "mapping(string => uint256)",
        "numberOfBytes": "32",
        "value": "t_uint256"
      },
      "t_mapping(t_uint256,t_address)": {
        "encoding": "mapping",
        "key": "t_uint256",
        "label": "mapping(uint256 => address)",
        "numberOfBytes": "32",
        "value": "t_address"
      },
      "t_mapping(t_uint256,t_string_storage)": {
        "encoding": "mapping",
        "key": "t_uint256",
        "label": "mapping(uint256 => string)",
        "numberOfBytes": "32",
        "value": "t_string_storage"
      },
      "t_mapping(t_uint256,t_uint256)": {
        "encoding": "mapping",
        "key": "t_uint256",
        "label": "mapping(uint256 => uint256)",
        "numberOfBytes": "32",
        "value": "t_uint256"
      },
      "t_string_memory_ptr": {
        "encoding": "bytes",
        "label": "string",
        "numberOfBytes": "32"
      },
      "t_string_storage": {
        "encoding": "bytes",
        "label": "string",
        "numberOfBytes": "32"
      },
      "t_struct(Counter)2168_storage": {
        "encoding": "inplace",
        "label": "struct Counters.Counter",
        "members": [
          {
            "astId": 2167,
            "contract": "contracts/PathwayNFT.sol:PathwayNFT",
            "label": "_value",
            "offset": 0,
            "slot": "0",
            "type": "t_uint256"
          }
        ],
        "numberOfBytes": "32"
      },
      "t_uint256": {
        "encoding": "inplace",
        "label": "uint256",
        "numberOfBytes": "32"
      },
      "t_uint8": {
        "encoding": "inplace",
        "label": "uint8",
        "numberOfBytes": "1"
      }
    }
  }
}