{
  "address": "0xD031A08028561EC2329d2CA22595448E31927D1A",
  "abi": [
    {
      "inputs": [
        {
          "internalType": "address payable",
          "name": "_walletAddress",
          "type": "address"
        },
        {
          "internalType": "address[]",
          "name": "_reviewers",
          "type": "address[]"
        },
        {
          "internalType": "uint128",
          "name": "_initialThreshold",
          "type": "uint128"
        }
      ],
      "stateMutability": "nonpayable",
      "type": "constructor"
    },
    {
      "anonymous": false,
      "inputs": [
        {
          "indexed": true,
          "internalType": "address",
          "name": "owner",
          "type": "address"
        },
        {
          "indexed": true,
          "internalType": "address",
          "name": "approved",
          "type": "address"
        },
        {
          "indexed": true,
          "internalType": "uint256",
          "name": "tokenId",
          "type": "uint256"
        }
      ],
      "name": "Approval",
      "type": "event"
    },
    {
      "anonymous": false,
      "inputs": [
        {
          "indexed": true,
          "internalType": "address",
          "name": "owner",
          "type": "address"
        },
        {
          "indexed": true,
          "internalType": "address",
          "name": "operator",
          "type": "address"
        },
        {
          "indexed": false,
          "internalType": "bool",
          "name": "approved",
          "type": "bool"
        }
      ],
      "name": "ApprovalForAll",
      "type": "event"
    },
    {
      "anonymous": false,
      "inputs": [
        {
          "indexed": true,
          "internalType": "address",
          "name": "_to",
          "type": "address"
        },
        {
          "indexed": true,
          "internalType": "string",
          "name": "_tokenURI",
          "type": "string"
        },
        {
          "indexed": true,
          "internalType": "string",
          "name": "_questId",
          "type": "string"
        }
      ],
      "name": "NFTProjectMinted",
      "type": "event"
    },
    {
      "anonymous": false,
      "inputs": [
        {
          "indexed": true,
          "internalType": "address",
          "name": "previousOwner",
          "type": "address"
        },
        {
          "indexed": true,
          "internalType": "address",
          "name": "newOwner",
          "type": "address"
        }
      ],
      "name": "OwnershipTransferred",
      "type": "event"
    },
    {
      "anonymous": false,
      "inputs": [
        {
          "indexed": true,
          "internalType": "string",
          "name": "_projectId",
          "type": "string"
        }
      ],
      "name": "ProjectApproved",
      "type": "event"
    },
    {
      "anonymous": false,
      "inputs": [
        {
          "indexed": false,
          "internalType": "address",
          "name": "_caller",
          "type": "address"
        },
        {
          "indexed": false,
          "internalType": "uint256",
          "name": "_value",
          "type": "uint256"
        }
      ],
      "name": "ReceiveCalled",
      "type": "event"
    },
    {
      "anonymous": false,
      "inputs": [
        {
          "indexed": true,
          "internalType": "address",
          "name": "from",
          "type": "address"
        },
        {
          "indexed": true,
          "internalType": "address",
          "name": "to",
          "type": "address"
        },
        {
          "indexed": true,
          "internalType": "uint256",
          "name": "tokenId",
          "type": "uint256"
        }
      ],
      "name": "Transfer",
      "type": "event"
    },
    {
      "inputs": [
        {
          "internalType": "string",
          "name": "_projectId",
          "type": "string"
        },
        {
          "internalType": "address",
          "name": "newContributor",
          "type": "address"
        }
      ],
      "name": "addProjectContributor",
      "outputs": [],
      "stateMutability": "nonpayable",
      "type": "function"
    },
    {
      "inputs": [
        {
          "internalType": "string",
          "name": "_projectId",
          "type": "string"
        }
      ],
      "name": "addProjectWallet",
      "outputs": [],
      "stateMutability": "payable",
      "type": "function"
    },
    {
      "inputs": [
        {
          "internalType": "address",
          "name": "_reviewer",
          "type": "address"
        }
      ],
      "name": "addReviewer",
      "outputs": [],
      "stateMutability": "nonpayable",
      "type": "function"
    },
    {
      "inputs": [
        {
          "internalType": "address",
          "name": "to",
          "type": "address"
        },
        {
          "internalType": "uint256",
          "name": "tokenId",
          "type": "uint256"
        }
      ],
      "name": "approve",
      "outputs": [],
      "stateMutability": "nonpayable",
      "type": "function"
    },
    {
      "inputs": [
        {
          "internalType": "address",
          "name": "owner",
          "type": "address"
        }
      ],
      "name": "balanceOf",
      "outputs": [
        {
          "internalType": "uint256",
          "name": "",
          "type": "uint256"
        }
      ],
      "stateMutability": "view",
      "type": "function"
    },
    {
      "inputs": [
        {
          "internalType": "uint32[]",
          "name": "firstURIParts",
          "type": "uint32[]"
        },
        {
          "internalType": "uint256[]",
          "name": "secondURIParts",
          "type": "uint256[]"
        },
        {
          "internalType": "string",
          "name": "_projectId",
          "type": "string"
        }
      ],
      "name": "createToken",
      "outputs": [
        {
          "internalType": "uint256[]",
          "name": "",
          "type": "uint256[]"
        }
      ],
      "stateMutability": "nonpayable",
      "type": "function"
    },
    {
      "inputs": [
        {
          "internalType": "uint256",
          "name": "tokenId",
          "type": "uint256"
        }
      ],
      "name": "getApproved",
      "outputs": [
        {
          "internalType": "address",
          "name": "",
          "type": "address"
        }
      ],
      "stateMutability": "view",
      "type": "function"
    },
    {
      "inputs": [
        {
          "internalType": "string",
          "name": "_projectId",
          "type": "string"
        }
      ],
      "name": "getApprovedAddrs",
      "outputs": [
        {
          "internalType": "address[]",
          "name": "",
          "type": "address[]"
        }
      ],
      "stateMutability": "view",
      "type": "function"
    },
    {
      "inputs": [
        {
          "internalType": "string",
          "name": "_projectId",
          "type": "string"
        }
      ],
      "name": "getContributors",
      "outputs": [
        {
          "internalType": "address[]",
          "name": "",
          "type": "address[]"
        }
      ],
      "stateMutability": "view",
      "type": "function"
    },
    {
      "inputs": [
        {
          "internalType": "address",
          "name": "owner",
          "type": "address"
        },
        {
          "internalType": "address",
          "name": "operator",
          "type": "address"
        }
      ],
      "name": "isApprovedForAll",
      "outputs": [
        {
          "internalType": "bool",
          "name": "",
          "type": "bool"
        }
      ],
      "stateMutability": "view",
      "type": "function"
    },
    {
      "inputs": [],
      "name": "multiSigThreshold",
      "outputs": [
        {
          "internalType": "uint128",
          "name": "",
          "type": "uint128"
        }
      ],
      "stateMutability": "view",
      "type": "function"
    },
    {
      "inputs": [],
      "name": "name",
      "outputs": [
        {
          "internalType": "string",
          "name": "",
          "type": "string"
        }
      ],
      "stateMutability": "view",
      "type": "function"
    },
    {
      "inputs": [],
      "name": "numReviewers",
      "outputs": [
        {
          "internalType": "uint128",
          "name": "",
          "type": "uint128"
        }
      ],
      "stateMutability": "view",
      "type": "function"
    },
    {
      "inputs": [],
      "name": "owner",
      "outputs": [
        {
          "internalType": "address",
          "name": "",
          "type": "address"
        }
      ],
      "stateMutability": "view",
      "type": "function"
    },
    {
      "inputs": [
        {
          "internalType": "uint256",
          "name": "tokenId",
          "type": "uint256"
        }
      ],
      "name": "ownerOf",
      "outputs": [
        {
          "internalType": "address",
          "name": "",
          "type": "address"
        }
      ],
      "stateMutability": "view",
      "type": "function"
    },
    {
      "inputs": [
        {
          "internalType": "string",
          "name": "",
          "type": "string"
        }
      ],
      "name": "projectMinted",
      "outputs": [
        {
          "internalType": "bool",
          "name": "",
          "type": "bool"
        }
      ],
      "stateMutability": "view",
      "type": "function"
    },
    {
      "inputs": [
        {
          "internalType": "string",
          "name": "",
          "type": "string"
        }
      ],
      "name": "projectThresholds",
      "outputs": [
        {
          "internalType": "uint256",
          "name": "",
          "type": "uint256"
        }
      ],
      "stateMutability": "view",
      "type": "function"
    },
    {
      "inputs": [
        {
          "internalType": "string",
          "name": "",
          "type": "string"
        }
      ],
      "name": "projectWallets",
      "outputs": [
        {
          "internalType": "address",
          "name": "",
          "type": "address"
        }
      ],
      "stateMutability": "view",
      "type": "function"
    },
    {
      "inputs": [],
      "name": "renounceOwnership",
      "outputs": [],
      "stateMutability": "nonpayable",
      "type": "function"
    },
    {
      "inputs": [
        {
          "internalType": "string",
          "name": "",
          "type": "string"
        },
        {
          "internalType": "address",
          "name": "",
          "type": "address"
        }
      ],
      "name": "reviewerVotes",
      "outputs": [
        {
          "internalType": "bool",
          "name": "",
          "type": "bool"
        }
      ],
      "stateMutability": "view",
      "type": "function"
    },
    {
      "inputs": [
        {
          "internalType": "address",
          "name": "",
          "type": "address"
        }
      ],
      "name": "reviewers",
      "outputs": [
        {
          "internalType": "bool",
          "name": "",
          "type": "bool"
        }
      ],
      "stateMutability": "view",
      "type": "function"
    },
    {
      "inputs": [
        {
          "internalType": "address",
          "name": "from",
          "type": "address"
        },
        {
          "internalType": "address",
          "name": "to",
          "type": "address"
        },
        {
          "internalType": "uint256",
          "name": "tokenId",
          "type": "uint256"
        }
      ],
      "name": "safeTransferFrom",
      "outputs": [],
      "stateMutability": "nonpayable",
      "type": "function"
    },
    {
      "inputs": [
        {
          "internalType": "address",
          "name": "from",
          "type": "address"
        },
        {
          "internalType": "address",
          "name": "to",
          "type": "address"
        },
        {
          "internalType": "uint256",
          "name": "tokenId",
          "type": "uint256"
        },
        {
          "internalType": "bytes",
          "name": "_data",
          "type": "bytes"
        }
      ],
      "name": "safeTransferFrom",
      "outputs": [],
      "stateMutability": "nonpayable",
      "type": "function"
    },
    {
      "inputs": [
        {
          "internalType": "address payable",
          "name": "_appDiamond",
          "type": "address"
        }
      ],
      "name": "setAppDiamond",
      "outputs": [],
      "stateMutability": "nonpayable",
      "type": "function"
    },
    {
      "inputs": [
        {
          "internalType": "address",
          "name": "operator",
          "type": "address"
        },
        {
          "internalType": "bool",
          "name": "approved",
          "type": "bool"
        }
      ],
      "name": "setApprovalForAll",
      "outputs": [],
      "stateMutability": "nonpayable",
      "type": "function"
    },
    {
      "inputs": [
        {
          "internalType": "uint256",
          "name": "newStake",
          "type": "uint256"
        }
      ],
      "name": "setStake",
      "outputs": [],
      "stateMutability": "nonpayable",
      "type": "function"
    },
    {
      "inputs": [
        {
          "internalType": "uint256",
          "name": "index",
          "type": "uint256"
        },
        {
          "internalType": "string",
          "name": "newName",
          "type": "string"
        }
      ],
      "name": "setStatusString",
      "outputs": [],
      "stateMutability": "nonpayable",
      "type": "function"
    },
    {
      "inputs": [
        {
          "internalType": "uint128",
          "name": "_newThreshold",
          "type": "uint128"
        }
      ],
      "name": "setThreshold",
      "outputs": [],
      "stateMutability": "nonpayable",
      "type": "function"
    },
    {
      "inputs": [],
      "name": "stakeAmount",
      "outputs": [
        {
          "internalType": "uint256",
          "name": "",
          "type": "uint256"
        }
      ],
      "stateMutability": "view",
      "type": "function"
    },
    {
      "inputs": [
        {
          "internalType": "string",
          "name": "",
          "type": "string"
        }
      ],
      "name": "status",
      "outputs": [
        {
          "internalType": "enum ProjectNFT.ProjectStatus",
          "name": "",
          "type": "uint8"
        }
      ],
      "stateMutability": "view",
      "type": "function"
    },
    {
      "inputs": [
        {
          "internalType": "uint256",
          "name": "",
          "type": "uint256"
        }
      ],
      "name": "statusStrings",
      "outputs": [
        {
          "internalType": "string",
          "name": "",
          "type": "string"
        }
      ],
      "stateMutability": "view",
      "type": "function"
    },
    {
      "inputs": [
        {
          "internalType": "bytes4",
          "name": "interfaceId",
          "type": "bytes4"
        }
      ],
      "name": "supportsInterface",
      "outputs": [
        {
          "internalType": "bool",
          "name": "",
          "type": "bool"
        }
      ],
      "stateMutability": "view",
      "type": "function"
    },
    {
      "inputs": [],
      "name": "symbol",
      "outputs": [
        {
          "internalType": "string",
          "name": "",
          "type": "string"
        }
      ],
      "stateMutability": "view",
      "type": "function"
    },
    {
      "inputs": [
        {
          "internalType": "uint256",
          "name": "tokenId",
          "type": "uint256"
        }
      ],
      "name": "tokenURI",
      "outputs": [
        {
          "internalType": "string",
          "name": "",
          "type": "string"
        }
      ],
      "stateMutability": "view",
      "type": "function"
    },
    {
      "inputs": [
        {
          "internalType": "address",
          "name": "from",
          "type": "address"
        },
        {
          "internalType": "address",
          "name": "to",
          "type": "address"
        },
        {
          "internalType": "uint256",
          "name": "tokenId",
          "type": "uint256"
        }
      ],
      "name": "transferFrom",
      "outputs": [],
      "stateMutability": "nonpayable",
      "type": "function"
    },
    {
      "inputs": [
        {
          "internalType": "address",
          "name": "newOwner",
          "type": "address"
        }
      ],
      "name": "transferOwnership",
      "outputs": [],
      "stateMutability": "nonpayable",
      "type": "function"
    },
    {
      "inputs": [
        {
          "internalType": "address[]",
          "name": "_contributors",
          "type": "address[]"
        },
        {
          "internalType": "address[]",
          "name": "approvedAddrs",
          "type": "address[]"
        },
        {
          "internalType": "uint256",
          "name": "_threshold",
          "type": "uint256"
        },
        {
          "internalType": "string",
          "name": "_projectId",
          "type": "string"
        }
      ],
      "name": "voteForApproval",
      "outputs": [],
      "stateMutability": "nonpayable",
      "type": "function"
    },
    {
      "inputs": [
        {
          "internalType": "string",
          "name": "_projectId",
          "type": "string"
        }
      ],
      "name": "voteForRejection",
      "outputs": [],
      "stateMutability": "nonpayable",
      "type": "function"
    },
    {
      "inputs": [
        {
          "internalType": "string",
          "name": "",
          "type": "string"
        }
      ],
      "name": "votes",
      "outputs": [
        {
          "internalType": "uint256",
          "name": "",
          "type": "uint256"
        }
      ],
      "stateMutability": "view",
      "type": "function"
    },
    {
      "inputs": [
        {
          "internalType": "string",
          "name": "",
          "type": "string"
        }
      ],
      "name": "votesReject",
      "outputs": [
        {
          "internalType": "uint256",
          "name": "",
          "type": "uint256"
        }
      ],
      "stateMutability": "view",
      "type": "function"
    },
    {
      "stateMutability": "payable",
      "type": "receive"
    }
  ],
  "transactionHash": "0x4e2660d2bf75fa8e54433ac0e248c592820fe4dd038180e4f6b2878fc4bbfde6",
  "args": [
    "0x7E13623dd5D070967c8568066bE81a3E5bF75226",
    [
      "0x7E13623dd5D070967c8568066bE81a3E5bF75226",
      "0xA072f8Bd3847E21C8EdaAf38D7425631a2A63631",
      "0x2c0B08C414A8EE088596832cf64eFcA283D46703",
      "0x16eBE01dCae1338f8d1802C63712C5279e768d29",
      "0x3E31155a1c17c9F85e74828447aec412090a4622",
      "0x4678854dB7421fF1B3C5ACAe6c5C11e73f4F5702",
      "0xDAFf97a69408Cdb4AeFE331eA029a55e189ef60b"
    ],
    10
  ],
  "solcInputHash": "8fd304358dbe062342bf4ba0ef2216b2",
  "bytecode": "0x608060405266038d7ea4c68000600a553480156200001c57600080fd5b50604051620044d7380380620044d78339810160408190526200003f9162000591565b604080518082018252600f81526e1910dbdb5c185cdcd41c9bda9958dd608a1b6020808301918252835180850190945260088452672221a7a6a82927a560c11b9084015281519192916200009691600091620004c1565b508051620000ac906001906020840190620004c1565b505050620000c9620000c36200046b60201b60201c565b6200046f565b6000825111620001205760405162461bcd60e51b815260206004820152601d60248201527f4d7573742068617665206174206c65617374203120726576696577657200000060448201526064015b60405180910390fd5b6000816001600160801b03161180156200014457506064816001600160801b031611155b620001865760405162461bcd60e51b81526020600482015260116024820152701a5b9d985b1a59081d1a1c995cda1bdb19607a1b604482015260640162000117565b600c80546001600160801b0319166001600160801b038316179055600d80546001600160a01b0319166001600160a01b03851617905560005b8251811015620002f65760006001600160a01b0316838281518110620001e957620001e962000730565b60200260200101516001600160a01b031614158015620002465750600b60008483815181106200021d576200021d62000730565b6020908102919091018101516001600160a01b031682528101919091526040016000205460ff16155b15620002e1576001600b600085848151811062000267576200026762000730565b6020908102919091018101516001600160a01b03168252810191909152604001600020805460ff1916911515919091179055600c8054600160801b90046001600160801b0316906010620002bb83620006d2565b91906101000a8154816001600160801b0302191690836001600160801b03160217905550505b80620002ed81620006fc565b915050620001bf565b5060408051808201909152600b81526a1393d391561254d511539560aa1b60208083019182526000805260139052905162000353917f8fa6efc3be94b5b348b21fea823fe8d100408cee9b7f90524494500445d8ff6c91620004c1565b5060408051808201909152600781526650454e44494e4760c81b60208083019182526001600052601390529051620003ad917f4155c2f711f2cdd34f8262ab8fb9b7020a700fe7b6948222152f7670d1fdf34d91620004c1565b5060408051808201909152600681526511115392515160d21b6020808301918252600260005260139052905162000406917f0b9d2c0c271bb30544eb78c59bdaebdae2728e5f65814c07768a0abe90ed192391620004c1565b506040805180820190915260088152671054141493d5915160c21b6020808301918252600360005260139052905162000461917f0d2a6872ef858a7f8ead18dc4f3f2e8d35c853d47e2816cbb9cdd49202554e0c91620004c1565b5050505062000775565b3390565b600780546001600160a01b038381166001600160a01b0319831681179093556040519116919082907f8be0079c531659141344cd1fd0a4f28419497f9722a3daafe3b4186f6b6457e090600090a35050565b828054620004cf9062000695565b90600052602060002090601f016020900481019282620004f357600085556200053e565b82601f106200050e57805160ff19168380011785556200053e565b828001600101855582156200053e579182015b828111156200053e57825182559160200191906001019062000521565b506200054c92915062000550565b5090565b5b808211156200054c576000815560010162000551565b805162000574816200075c565b919050565b80516001600160801b03811681146200057457600080fd5b600080600060608486031215620005a757600080fd5b8351620005b4816200075c565b602085810151919450906001600160401b0380821115620005d457600080fd5b818701915087601f830112620005e957600080fd5b815181811115620005fe57620005fe62000746565b8060051b604051601f19603f8301168101818110858211171562000626576200062662000746565b604052828152858101935084860182860187018c10156200064657600080fd5b600095505b8386101562000674576200065f8162000567565b8552600195909501949386019386016200064b565b508097505050505050506200068c6040850162000579565b90509250925092565b600181811c90821680620006aa57607f821691505b60208210811415620006cc57634e487b7160e01b600052602260045260246000fd5b50919050565b60006001600160801b0382811680821415620006f257620006f26200071a565b6001019392505050565b60006000198214156200071357620007136200071a565b5060010190565b634e487b7160e01b600052601160045260246000fd5b634e487b7160e01b600052603260045260246000fd5b634e487b7160e01b600052604160045260246000fd5b6001600160a01b03811681146200077257600080fd5b50565b613d5280620007856000396000f3fe60806040526004361061023f5760003560e01c806382171fbe1161012e578063b2f3f80c116100ab578063e8ca64f41161006f578063e8ca64f4146107db578063e985e9c514610823578063ee335b421461086c578063f2fde38b1461088c578063f7cbb1b2146108ac57600080fd5b8063b2f3f80c1461071c578063b88d4fde14610743578063b99ef1fa14610763578063c87b56dd1461079b578063d699e96d146107bb57600080fd5b8063a22cb465116100f2578063a22cb4651461066f578063a41641b61461068f578063a479030b146106af578063aaa545d0146106dc578063b03e4dd5146106fc57600080fd5b806382171fbe146105895780638da5cb5b146105c457806395d89b41146105e2578063965f055c146105f75780639e1b567c1461062457600080fd5b806338b686cb116101bc5780636352211e116101805780636352211e146104dc57806368929b5c146104fc57806370a0823114610534578063715018a61461055457806373a82b5f1461056957600080fd5b806338b686cb1461041557806342842e0e1461045b5780634badfeb21461047b57806358c84551146104b357806360c7dc47146104c657600080fd5b80630d46ed21116102035780630d46ed21146103545780630d58dd08146103745780630e3c22cb146103b557806323b872dd146103d557806335d9db53146103f557600080fd5b806301ffc9a71461028357806304dcd300146102b857806306fdde03146102e5578063081812fc146102fa578063095ea7b31461033257600080fd5b3661027e57604080513381523460208201527f64c983f10188c30a885d77970aa5aae9a86e80ef9b459ad33cc620eb5999e070910160405180910390a1005b600080fd5b34801561028f57600080fd5b506102a361029e366004613691565b6108dc565b60405190151581526020015b60405180910390f35b3480156102c457600080fd5b506102d86102d3366004613770565b61092e565b6040516102af9190613977565b3480156102f157600080fd5b506102d86109c8565b34801561030657600080fd5b5061031a610315366004613770565b610a5a565b6040516001600160a01b0390911681526020016102af565b34801561033e57600080fd5b5061035261034d3660046134e9565b610ae7565b005b34801561036057600080fd5b5061035261036f366004613789565b610bfd565b34801561038057600080fd5b5061031a61038f3660046136cb565b80516020818301810180516011825292820191909301209152546001600160a01b031681565b3480156103c157600080fd5b506103526103d036600461339f565b610c4b565b3480156103e157600080fd5b506103526103f03660046133f5565b610caf565b34801561040157600080fd5b50610352610410366004613770565b610ce0565b34801561042157600080fd5b5061044d6104303660046136cb565b805160208183018101805160198252928201919093012091525481565b6040519081526020016102af565b34801561046757600080fd5b506103526104763660046133f5565b610d14565b34801561048757600080fd5b50600c5461049b906001600160801b031681565b6040516001600160801b0390911681526020016102af565b6103526104c13660046136cb565b610d2f565b3480156104d257600080fd5b5061044d600a5481565b3480156104e857600080fd5b5061031a6104f7366004613770565b610ef8565b34801561050857600080fd5b5061044d6105173660046136cb565b805160208183018101805160168252928201919093012091525481565b34801561054057600080fd5b5061044d61054f36600461339f565b610f6f565b34801561056057600080fd5b50610352610ff6565b34801561057557600080fd5b5061035261058436600461339f565b61105c565b34801561059557600080fd5b506102a36105a43660046136cb565b805160208183018101805160188252928201919093012091525460ff1681565b3480156105d057600080fd5b506007546001600160a01b031661031a565b3480156105ee57600080fd5b506102d8611153565b34801561060357600080fd5b506106176106123660046136cb565b611162565b6040516102af91906138ca565b34801561063057600080fd5b506102a361063f366004613700565b81516020818401810180516017825292820194820194909420919093529091526000908152604090205460ff1681565b34801561067b57600080fd5b5061035261068a3660046134b6565b6111dc565b34801561069b57600080fd5b506103526106aa3660046136cb565b6112a1565b3480156106bb57600080fd5b506106cf6106ca36600461359b565b6115cf565b6040516102af9190613917565b3480156106e857600080fd5b506106176106f73660046136cb565b611aab565b34801561070857600080fd5b50610352610717366004613747565b611abd565b34801561072857600080fd5b50600c5461049b90600160801b90046001600160801b031681565b34801561074f57600080fd5b5061035261075e366004613436565b611b7a565b34801561076f57600080fd5b5061044d61077e3660046136cb565b805160208183018101805160158252928201919093012091525481565b3480156107a757600080fd5b506102d86107b6366004613770565b611bb2565b3480156107c757600080fd5b506103526107d6366004613515565b611d29565b3480156107e757600080fd5b506108166107f63660046136cb565b805160208183018101805160148252928201919093012091525460ff1681565b6040516102af919061394f565b34801561082f57600080fd5b506102a361083e3660046133bc565b6001600160a01b03918216600090815260056020908152604080832093909416825291909152205460ff1690565b34801561087857600080fd5b50610352610887366004613700565b6123f7565b34801561089857600080fd5b506103526108a736600461339f565b612703565b3480156108b857600080fd5b506102a36108c736600461339f565b600b6020526000908152604090205460ff1681565b60006001600160e01b031982166380ac58cd60e01b148061090d57506001600160e01b03198216635b5e139f60e01b145b8061092857506301ffc9a760e01b6001600160e01b03198316145b92915050565b6013602052600090815260409020805461094790613bf2565b80601f016020809104026020016040519081016040528092919081815260200182805461097390613bf2565b80156109c05780601f10610995576101008083540402835291602001916109c0565b820191906000526020600020905b8154815290600101906020018083116109a357829003601f168201915b505050505081565b6060600080546109d790613bf2565b80601f0160208091040260200160405190810160405280929190818152602001828054610a0390613bf2565b8015610a505780601f10610a2557610100808354040283529160200191610a50565b820191906000526020600020905b815481529060010190602001808311610a3357829003601f168201915b5050505050905090565b6000610a65826127cb565b610acb5760405162461bcd60e51b815260206004820152602c60248201527f4552433732313a20617070726f76656420717565727920666f72206e6f6e657860448201526b34b9ba32b73a103a37b5b2b760a11b60648201526084015b60405180910390fd5b506000908152600460205260409020546001600160a01b031690565b6000610af282610ef8565b9050806001600160a01b0316836001600160a01b03161415610b605760405162461bcd60e51b815260206004820152602160248201527f4552433732313a20617070726f76616c20746f2063757272656e74206f776e656044820152603960f91b6064820152608401610ac2565b336001600160a01b0382161480610b7c5750610b7c813361083e565b610bee5760405162461bcd60e51b815260206004820152603860248201527f4552433732313a20617070726f76652063616c6c6572206973206e6f74206f7760448201527f6e6572206e6f7220617070726f76656420666f7220616c6c00000000000000006064820152608401610ac2565b610bf883836127e8565b505050565b336000908152600b602052604090205460ff16610c2c5760405162461bcd60e51b8152600401610ac29061398a565b60008281526013602090815260409091208251610bf89284019061315e565b336000908152600b602052604090205460ff16610c7a5760405162461bcd60e51b8152600401610ac29061398a565b6001600160a01b038116610c8d57600080fd5b600e80546001600160a01b0319166001600160a01b0392909216919091179055565b610cb93382612856565b610cd55760405162461bcd60e51b8152600401610ac290613a04565b610bf883838361293c565b336000908152600b602052604090205460ff16610d0f5760405162461bcd60e51b8152600401610ac29061398a565b600a55565b610bf883838360405180602001604052806000815250611b7a565b60006001600160a01b0316601182604051610d4a91906137fc565b908152604051908190036020019020546001600160a01b031614610da95760405162461bcd60e51b8152602060048201526016602482015275185b1c9958591e481c1c9bda9958dd081dd85b1b195d60521b6044820152606401610ac2565b600a54341015610def5760405162461bcd60e51b81526020600482015260116024820152701b9bdd08195b9bdd59da081cdd185ad959607a1b6044820152606401610ac2565b33601182604051610e0091906137fc565b908152602001604051809103902060006101000a8154816001600160a01b0302191690836001600160a01b03160217905550600a54601282604051610e4591906137fc565b90815260405190819003602001902055600a54341115610ef557600a546000903390610e719034613b98565b604051600081818185875af1925050503d8060008114610ead576040519150601f19603f3d011682016040523d82523d6000602084013e610eb2565b606091505b5050905080610ef35760405162461bcd60e51b815260206004820152600d60248201526c19985a5b1959081c99599d5b99609a1b6044820152606401610ac2565b505b50565b6000818152600260205260408120546001600160a01b0316806109285760405162461bcd60e51b815260206004820152602960248201527f4552433732313a206f776e657220717565727920666f72206e6f6e657869737460448201526832b73a103a37b5b2b760b91b6064820152608401610ac2565b60006001600160a01b038216610fda5760405162461bcd60e51b815260206004820152602a60248201527f4552433732313a2062616c616e636520717565727920666f7220746865207a65604482015269726f206164647265737360b01b6064820152608401610ac2565b506001600160a01b031660009081526003602052604090205490565b6007546001600160a01b031633146110505760405162461bcd60e51b815260206004820181905260248201527f4f776e61626c653a2063616c6c6572206973206e6f7420746865206f776e65726044820152606401610ac2565b61105a6000612adc565b565b336000908152600b602052604090205460ff1661108b5760405162461bcd60e51b8152600401610ac29061398a565b6001600160a01b0381166000908152600b602052604090205460ff16156110e75760405162461bcd60e51b815260206004820152601060248201526f30b63932b0b23c903932bb34b2bbb2b960811b6044820152606401610ac2565b6001600160a01b0381166000908152600b60205260409020805460ff19166001179055600c80546001600160801b03600160801b9091041690601061112b83613c2d565b91906101000a8154816001600160801b0302191690836001600160801b031602179055505050565b6060600180546109d790613bf2565b606060108260405161117491906137fc565b90815260408051918290036020908101832080548083028501830190935282845291908301828280156111d057602002820191906000526020600020905b81546001600160a01b031681526001909101906020018083116111b2575b50505050509050919050565b6001600160a01b0382163314156112355760405162461bcd60e51b815260206004820152601960248201527f4552433732313a20617070726f766520746f2063616c6c6572000000000000006044820152606401610ac2565b3360008181526005602090815260408083206001600160a01b03871680855290835292819020805460ff191686151590811790915590519081529192917f17307eab39ab6107e8899845ad3d59bd9653f200f220920489ca2b5937696c31910160405180910390a35050565b336000908152600b602052604090205460ff166112d05760405162461bcd60e51b8152600401610ac29061398a565b60016014826040516112e291906137fc565b9081526040519081900360200190205460ff16600381111561130657611306613caf565b146113495760405162461bcd60e51b815260206004820152601360248201527270726f6a656374206e6f742070656e64696e6760681b6044820152606401610ac2565b60178160405161135991906137fc565b908152602001604051809103902060006113703390565b6001600160a01b0316815260208101919091526040016000205460ff16156113da5760405162461bcd60e51b815260206004820152601e60248201527f616c726561647920766f74656420666f7220746869732070726f6a65637400006044820152606401610ac2565b6016816040516113ea91906137fc565b908152604051908190036020019020805490600061140783613c54565b9190505550600160178260405161141e91906137fc565b908152602001604051809103902060006114353390565b6001600160a01b0316815260208101919091526040016000908120805460ff191692151592909217909155600c5460649061148390600160801b81046001600160801b039081169116613b4a565b61148d9190613b10565b600c546001600160801b0391821692506114b191600160801b820481169116613b4a565b6001600160801b03166114c5826064613b79565b10156114d957806114d581613c54565b9150505b806016836040516114ea91906137fc565b90815260200160405180910390205410610ef357600260148360405161151091906137fc565b908152604051908190036020019020805460ff1916600183600381111561153957611539613caf565b0217905550600d546040516000916001600160a01b03169060129061155f9086906137fc565b9081526040519081900360200181205490600081818185875af1925050503d80600081146115a9576040519150601f19603f3d011682016040523d82523d6000602084013e6115ae565b606091505b5050905080610bf85760405162461bcd60e51b8152600401610ac290613a55565b336000908152600b602052604090205460609060ff166116015760405162461bcd60e51b8152600401610ac29061398a565b600360148360405161161391906137fc565b9081526040519081900360200190205460ff16600381111561163757611637613caf565b1461167b5760405162461bcd60e51b81526020600482015260146024820152731a9bd8881b9bdd08185c1c1c9bdd9959081e595d60621b6044820152606401610ac2565b60188260405161168b91906137fc565b9081526040519081900360200190205460ff16156116dc5760405162461bcd60e51b815260206004820152600e60248201526d185b1c9958591e481b5a5b9d195960921b6044820152606401610ac2565b8251845114801561170c5750600f826040516116f891906137fc565b908152604051908190036020019020548451145b6117495760405162461bcd60e51b815260206004820152600e60248201526d696e636f7272656374206172727360901b6044820152606401610ac2565b6000600f8360405161175b91906137fc565b9081526040519081900360200190205467ffffffffffffffff81111561178357611783613cdb565b6040519080825280602002602001820160405280156117ac578160200160208202803683370190505b5090506000606060005b600f866040516117c691906137fc565b90815260405190819003602001902054811015611a6c576117eb600880546001019055565b600854925061181288828151811061180557611805613cc5565b6020026020010151612b2e565b61183488838151811061182757611827613cc5565b6020026020010151612bd1565b604051602001611845929190613847565b60405160208183030381529060405291506118a3600f8760405161186991906137fc565b9081526020016040518091039020828154811061188857611888613cc5565b6000918252602090912001546001600160a01b031684612c62565b6118ad8383612d95565b600e546040516000916001600160a01b0316907fc50441ae845872978b51f82be155098d8562f1c2acdfbdcd81e2617131c30d5f906118f0908a90602401613977565b60408051601f198184030181529181526020820180516001600160e01b03166001600160e01b031990941693909317909252905161192e91906137fc565b6000604051808303816000865af19150503d806000811461196b576040519150601f19603f3d011682016040523d82523d6000602084013e611970565b606091505b50509050806119c15760405162461bcd60e51b815260206004820152601760248201527f6469616d6f6e6420617070726f76616c206661696c65640000000000000000006044820152606401610ac2565b866040516119cf91906137fc565b6040518091039020836040516119e591906137fc565b6040518091039020600f896040516119fd91906137fc565b90815260200160405180910390208481548110611a1c57611a1c613cc5565b60009182526020822001546040516001600160a01b03909116917f7ae1edbeb69892774d94c2010b6183269d48e647bbfddb34d22d5aaf08dd4ad491a45080611a6481613c54565b9150506117b6565b506001601886604051611a7f91906137fc565b908152604051908190036020019020805491151560ff1990921691909117905550909150509392505050565b6060600f8260405161117491906137fc565b336000908152600b602052604090205460ff16611aec5760405162461bcd60e51b8152600401610ac29061398a565b6000816001600160801b0316118015611b0f57506064816001600160801b031611155b611b4f5760405162461bcd60e51b81526020600482015260116024820152701a5b9d985b1a59081d1a1c995cda1bdb19607a1b6044820152606401610ac2565b600c80546fffffffffffffffffffffffffffffffff19166001600160801b0392909216919091179055565b611b843383612856565b611ba05760405162461bcd60e51b8152600401610ac290613a04565b611bac84848484612e20565b50505050565b6060611bbd826127cb565b611c235760405162461bcd60e51b815260206004820152603160248201527f45524337323155524953746f726167653a2055524920717565727920666f72206044820152703737b732bc34b9ba32b73a103a37b5b2b760791b6064820152608401610ac2565b60008281526006602052604081208054611c3c90613bf2565b80601f0160208091040260200160405190810160405280929190818152602001828054611c6890613bf2565b8015611cb55780601f10611c8a57610100808354040283529160200191611cb5565b820191906000526020600020905b815481529060010190602001808311611c9857829003601f168201915b505050505090506000611cd360408051602081019091526000815290565b9050805160001415611ce6575092915050565b815115611d18578082604051602001611d00929190613818565b60405160208183030381529060405292505050919050565b611d2184612e53565b949350505050565b336000908152600b602052604090205460ff16611d585760405162461bcd60e51b8152600401610ac29061398a565b6002601482604051611d6a91906137fc565b9081526040519081900360200190205460ff166003811115611d8e57611d8e613caf565b14158015611dd057506003601482604051611da991906137fc565b9081526040519081900360200190205460ff166003811115611dcd57611dcd613caf565b14155b611e105760405162461bcd60e51b8152602060048201526011602482015270199a5b985b1a5e9959081c1c9bda9958dd607a1b6044820152606401610ac2565b601781604051611e2091906137fc565b90815260200160405180910390206000611e373390565b6001600160a01b0316815260208101919091526040016000205460ff1615611ea15760405162461bcd60e51b815260206004820152601e60248201527f616c726561647920766f74656420666f7220746869732070726f6a65637400006044820152606401610ac2565b601581604051611eb191906137fc565b9081526040519081900360200190208054906000611ece83613c54565b91905055506001601782604051611ee591906137fc565b90815260200160405180910390206000611efc3390565b6001600160a01b0316815260208101919091526040016000908120805460ff191692151592909217909155601482604051611f3791906137fc565b9081526040519081900360200190205460ff166003811115611f5b57611f5b613caf565b1415612226576000845111611fa05760405162461bcd60e51b815260206004820152600b60248201526a656d70747920617272617960a81b6044820152606401610ac2565b600082118015611fb1575060648211155b611ff15760405162461bcd60e51b81526020600482015260116024820152701a5b9d985b1a59081d1a1c995cda1bdb19607a1b6044820152606401610ac2565b83600f8260405161200291906137fc565b908152602001604051809103902090805190602001906120239291906131e2565b508160198260405161203591906137fc565b9081526020016040518091039020819055508260108260405161205891906137fc565b908152602001604051809103902090805190602001906120799291906131e2565b50600c5460649061209c906001600160801b03600160801b820481169116613b4a565b6120a69190613b10565b6001600160801b03166121e15760036014826040516120c591906137fc565b908152604051908190036020019020805460ff191660018360038111156120ee576120ee613caf565b0217905550600060118260405161210591906137fc565b908152604051908190036020018120546001600160a01b03169060129061212d9085906137fc565b9081526040519081900360200181205490600081818185875af1925050503d8060008114612177576040519150601f19603f3d011682016040523d82523d6000602084013e61217c565b606091505b505090508061219d5760405162461bcd60e51b8152600401610ac290613a55565b816040516121ab91906137fc565b604051908190038120907fae4295c58d61bc95278d93c0ce50389c66907d23767828ed2cf0c1b0cb80483e90600090a250611bac565b60016014826040516121f391906137fc565b908152604051908190036020019020805460ff1916600183600381111561221c5761221c613caf565b0217905550611bac565b600c5460009060649061224b906001600160801b03600160801b820481169116613b4a565b6122559190613b10565b600c546001600160801b03918216925061227991600160801b820481169116613b4a565b6001600160801b031661228d826064613b79565b10156122a1578061229d81613c54565b9150505b806015836040516122b291906137fc565b908152602001604051809103902054106123f05760036014836040516122d891906137fc565b908152604051908190036020019020805460ff1916600183600381111561230157612301613caf565b0217905550600060118360405161231891906137fc565b908152604051908190036020018120546001600160a01b0316906012906123409086906137fc565b9081526040519081900360200181205490600081818185875af1925050503d806000811461238a576040519150601f19603f3d011682016040523d82523d6000602084013e61238f565b606091505b50509050806123b05760405162461bcd60e51b8152600401610ac290613a55565b826040516123be91906137fc565b604051908190038120907fae4295c58d61bc95278d93c0ce50389c66907d23767828ed2cf0c1b0cb80483e90600090a2505b5050505050565b600060148360405161240991906137fc565b9081526040519081900360200190205460ff16600381111561242d5761242d613caf565b14156124735760405162461bcd60e51b81526020600482015260156024820152741c1c9bda9958dd08191bd95cdb89dd08195e1a5cdd605a1b6044820152606401610ac2565b60188260405161248391906137fc565b9081526040519081900360200190205460ff16156124dc5760405162461bcd60e51b81526020600482015260166024820152751c1c9bda9958dd08185b1c9958591e481b5a5b9d195960521b6044820152606401610ac2565b336000908152600b602052604090205460ff16600181612602576000600f8560405161250891906137fc565b908152604080519182900360209081018320805480830285018301909352828452919083018282801561256457602002820191906000526020600020905b81546001600160a01b03168152600190910190602001808311612546575b5050505050905060005b81518110156125ff5781818151811061258957612589613cc5565b60200260200101516001600160a01b03166125a13390565b6001600160a01b031614156125b557600193505b8181815181106125c7576125c7613cc5565b60200260200101516001600160a01b0316856001600160a01b031614156125ed57600092505b806125f781613c54565b91505061256e565b50505b816126615760405162461bcd60e51b815260206004820152602960248201527f6d75737420626520612070726f6a65637420636f6e7472696275746f72206f72604482015268103932bb34b2bbb2b960b91b6064820152608401610ac2565b806126ae5760405162461bcd60e51b815260206004820181905260248201527f616c7265616479206120636f6e7472696275746f72206f6e2070726f6a6563746044820152606401610ac2565b600f846040516126be91906137fc565b90815260405160209181900382019020805460018101825560009182529190200180546001600160a01b0319166001600160a01b039490941693909317909255505050565b6007546001600160a01b0316331461275d5760405162461bcd60e51b815260206004820181905260248201527f4f776e61626c653a2063616c6c6572206973206e6f7420746865206f776e65726044820152606401610ac2565b6001600160a01b0381166127c25760405162461bcd60e51b815260206004820152602660248201527f4f776e61626c653a206e6577206f776e657220697320746865207a65726f206160448201526564647265737360d01b6064820152608401610ac2565b610ef581612adc565b6000908152600260205260409020546001600160a01b0316151590565b600081815260046020526040902080546001600160a01b0319166001600160a01b038416908117909155819061281d82610ef8565b6001600160a01b03167f8c5be1e5ebec7d5bd14f71427d1e84f3dd0314c0f7b2291e5b200ac8c7c3b92560405160405180910390a45050565b6000612861826127cb565b6128c25760405162461bcd60e51b815260206004820152602c60248201527f4552433732313a206f70657261746f7220717565727920666f72206e6f6e657860448201526b34b9ba32b73a103a37b5b2b760a11b6064820152608401610ac2565b60006128cd83610ef8565b9050806001600160a01b0316846001600160a01b031614806129085750836001600160a01b03166128fd84610a5a565b6001600160a01b0316145b80611d2157506001600160a01b0380821660009081526005602090815260408083209388168352929052205460ff16611d21565b826001600160a01b031661294f82610ef8565b6001600160a01b0316146129b75760405162461bcd60e51b815260206004820152602960248201527f4552433732313a207472616e73666572206f6620746f6b656e2074686174206960448201526839903737ba1037bbb760b91b6064820152608401610ac2565b6001600160a01b038216612a195760405162461bcd60e51b8152602060048201526024808201527f4552433732313a207472616e7366657220746f20746865207a65726f206164646044820152637265737360e01b6064820152608401610ac2565b612a246000826127e8565b6001600160a01b0383166000908152600360205260408120805460019290612a4d908490613b98565b90915550506001600160a01b0382166000908152600360205260408120805460019290612a7b908490613ad3565b909155505060008181526002602052604080822080546001600160a01b0319166001600160a01b0386811691821790925591518493918716917fddf252ad1be2c89b69c2b068fc378daa952ba7f163c4a11628f55a4df523b3ef91a4505050565b600780546001600160a01b038381166001600160a01b0319831681179093556040519116919082907f8be0079c531659141344cd1fd0a4f28419497f9722a3daafe3b4186f6b6457e090600090a35050565b60408051600880825281830190925260609160009190602082018180368337019050509050600f60085b8015612bc857612b69828616612f2b565b60f81b83612b78600184613b98565b81518110612b8857612b88613cc5565b60200101906001600160f81b031916908160001a9053506001811115612bb65760048563ffffffff16901c94505b80612bc081613bdb565b915050612b58565b50909392505050565b60408051818152606081810183529160009190602082018180368337019050509050600f60405b8015612bc857612c09828616612f2b565b60f81b83612c18600184613b98565b81518110612c2857612c28613cc5565b60200101906001600160f81b031916908160001a9053506001811115612c5057600485901c94505b80612c5a81613bdb565b915050612bf8565b6001600160a01b038216612cb85760405162461bcd60e51b815260206004820181905260248201527f4552433732313a206d696e7420746f20746865207a65726f20616464726573736044820152606401610ac2565b612cc1816127cb565b15612d0e5760405162461bcd60e51b815260206004820152601c60248201527f4552433732313a20746f6b656e20616c7265616479206d696e746564000000006044820152606401610ac2565b6001600160a01b0382166000908152600360205260408120805460019290612d37908490613ad3565b909155505060008181526002602052604080822080546001600160a01b0319166001600160a01b03861690811790915590518392907fddf252ad1be2c89b69c2b068fc378daa952ba7f163c4a11628f55a4df523b3ef908290a45050565b612d9e826127cb565b612e015760405162461bcd60e51b815260206004820152602e60248201527f45524337323155524953746f726167653a2055524920736574206f66206e6f6e60448201526d32bc34b9ba32b73a103a37b5b2b760911b6064820152608401610ac2565b60008281526006602090815260409091208251610bf89284019061315e565b612e2b84848461293c565b612e3784848484612f53565b611bac5760405162461bcd60e51b8152600401610ac2906139b2565b6060612e5e826127cb565b612ec25760405162461bcd60e51b815260206004820152602f60248201527f4552433732314d657461646174613a2055524920717565727920666f72206e6f60448201526e3732bc34b9ba32b73a103a37b5b2b760891b6064820152608401610ac2565b6000612ed960408051602081019091526000815290565b90506000815111612ef95760405180602001604052806000815250612f24565b80612f0384613060565b604051602001612f14929190613818565b6040516020818303038152906040525b9392505050565b600060098260ff1611612f4857612f43826030613aeb565b610928565b610928826057613aeb565b60006001600160a01b0384163b1561305557604051630a85bd0160e11b81526001600160a01b0385169063150b7a0290612f9790339089908890889060040161388d565b602060405180830381600087803b158015612fb157600080fd5b505af1925050508015612fe1575060408051601f3d908101601f19168201909252612fde918101906136ae565b60015b61303b573d80801561300f576040519150601f19603f3d011682016040523d82523d6000602084013e613014565b606091505b5080516130335760405162461bcd60e51b8152600401610ac2906139b2565b805181602001fd5b6001600160e01b031916630a85bd0160e11b149050611d21565b506001949350505050565b6060816130845750506040805180820190915260018152600360fc1b602082015290565b8160005b81156130ae578061309881613c54565b91506130a79050600a83613b36565b9150613088565b60008167ffffffffffffffff8111156130c9576130c9613cdb565b6040519080825280601f01601f1916602001820160405280156130f3576020820181803683370190505b5090505b8415611d2157613108600183613b98565b9150613115600a86613c6f565b613120906030613ad3565b60f81b81838151811061313557613135613cc5565b60200101906001600160f81b031916908160001a905350613157600a86613b36565b94506130f7565b82805461316a90613bf2565b90600052602060002090601f01602090048101928261318c57600085556131d2565b82601f106131a557805160ff19168380011785556131d2565b828001600101855582156131d2579182015b828111156131d25782518255916020019190600101906131b7565b506131de929150613237565b5090565b8280548282559060005260206000209081019282156131d2579160200282015b828111156131d257825182546001600160a01b0319166001600160a01b03909116178255602090920191600190910190613202565b5b808211156131de5760008155600101613238565b600067ffffffffffffffff83111561326657613266613cdb565b613279601f8401601f1916602001613a7e565b905082815283838301111561328d57600080fd5b828260208301376000602084830101529392505050565b600082601f8301126132b557600080fd5b813560206132ca6132c583613aaf565b613a7e565b80838252828201915082860187848660051b89010111156132ea57600080fd5b60005b8581101561331257813561330081613cf1565b845292840192908401906001016132ed565b5090979650505050505050565b600082601f83011261333057600080fd5b813560206133406132c583613aaf565b80838252828201915082860187848660051b890101111561336057600080fd5b60005b8581101561331257813584529284019290840190600101613363565b600082601f83011261339057600080fd5b612f248383356020850161324c565b6000602082840312156133b157600080fd5b8135612f2481613cf1565b600080604083850312156133cf57600080fd5b82356133da81613cf1565b915060208301356133ea81613cf1565b809150509250929050565b60008060006060848603121561340a57600080fd5b833561341581613cf1565b9250602084013561342581613cf1565b929592945050506040919091013590565b6000806000806080858703121561344c57600080fd5b843561345781613cf1565b9350602085013561346781613cf1565b925060408501359150606085013567ffffffffffffffff81111561348a57600080fd5b8501601f8101871361349b57600080fd5b6134aa8782356020840161324c565b91505092959194509250565b600080604083850312156134c957600080fd5b82356134d481613cf1565b9150602083013580151581146133ea57600080fd5b600080604083850312156134fc57600080fd5b823561350781613cf1565b946020939093013593505050565b6000806000806080858703121561352b57600080fd5b843567ffffffffffffffff8082111561354357600080fd5b61354f888389016132a4565b9550602087013591508082111561356557600080fd5b613571888389016132a4565b945060408701359350606087013591508082111561358e57600080fd5b506134aa8782880161337f565b6000806000606084860312156135b057600080fd5b833567ffffffffffffffff808211156135c857600080fd5b818601915086601f8301126135dc57600080fd5b813560206135ec6132c583613aaf565b8083825282820191508286018b848660051b890101111561360c57600080fd5b600096505b8487101561364157803563ffffffff8116811461362d57600080fd5b835260019690960195918301918301613611565b509750508701359250508082111561365857600080fd5b6136648783880161331f565b9350604086013591508082111561367a57600080fd5b506136878682870161337f565b9150509250925092565b6000602082840312156136a357600080fd5b8135612f2481613d06565b6000602082840312156136c057600080fd5b8151612f2481613d06565b6000602082840312156136dd57600080fd5b813567ffffffffffffffff8111156136f457600080fd5b611d218482850161337f565b6000806040838503121561371357600080fd5b823567ffffffffffffffff81111561372a57600080fd5b6137368582860161337f565b92505060208301356133ea81613cf1565b60006020828403121561375957600080fd5b81356001600160801b0381168114612f2457600080fd5b60006020828403121561378257600080fd5b5035919050565b6000806040838503121561379c57600080fd5b82359150602083013567ffffffffffffffff8111156137ba57600080fd5b6137c68582860161337f565b9150509250929050565b600081518084526137e8816020860160208601613baf565b601f01601f19169290920160200192915050565b6000825161380e818460208701613baf565b9190910192915050565b6000835161382a818460208801613baf565b83519083019061383e818360208801613baf565b01949350505050565b6734b833399d1797b360c11b81526000835161386a816008850160208801613baf565b835190830190613881816008840160208801613baf565b01600801949350505050565b6001600160a01b03858116825284166020820152604081018390526080606082018190526000906138c0908301846137d0565b9695505050505050565b6020808252825182820181905260009190848201906040850190845b8181101561390b5783516001600160a01b0316835292840192918401916001016138e6565b50909695505050505050565b6020808252825182820181905260009190848201906040850190845b8181101561390b57835183529284019291840191600101613933565b602081016004831061397157634e487b7160e01b600052602160045260246000fd5b91905290565b602081526000612f2460208301846137d0565b6020808252600e908201526d3737ba1030903932bb34b2bbb2b960911b604082015260600190565b60208082526032908201527f4552433732313a207472616e7366657220746f206e6f6e20455243373231526560408201527131b2b4bb32b91034b6b83632b6b2b73a32b960711b606082015260800190565b60208082526031908201527f4552433732313a207472616e736665722063616c6c6572206973206e6f74206f6040820152701ddb995c881b9bdc88185c1c1c9bdd9959607a1b606082015260800190565b6020808252600f908201526e1d1c985b9cd9995c8819985a5b1959608a1b604082015260600190565b604051601f8201601f1916810167ffffffffffffffff81118282101715613aa757613aa7613cdb565b604052919050565b600067ffffffffffffffff821115613ac957613ac9613cdb565b5060051b60200190565b60008219821115613ae657613ae6613c83565b500190565b600060ff821660ff84168060ff03821115613b0857613b08613c83565b019392505050565b60006001600160801b0380841680613b2a57613b2a613c99565b92169190910492915050565b600082613b4557613b45613c99565b500490565b60006001600160801b0380831681851681830481118215151615613b7057613b70613c83565b02949350505050565b6000816000190483118215151615613b9357613b93613c83565b500290565b600082821015613baa57613baa613c83565b500390565b60005b83811015613bca578181015183820152602001613bb2565b83811115611bac5750506000910152565b600081613bea57613bea613c83565b506000190190565b600181811c90821680613c0657607f821691505b60208210811415613c2757634e487b7160e01b600052602260045260246000fd5b50919050565b60006001600160801b0380831681811415613c4a57613c4a613c83565b6001019392505050565b6000600019821415613c6857613c68613c83565b5060010190565b600082613c7e57613c7e613c99565b500690565b634e487b7160e01b600052601160045260246000fd5b634e487b7160e01b600052601260045260246000fd5b634e487b7160e01b600052602160045260246000fd5b634e487b7160e01b600052603260045260246000fd5b634e487b7160e01b600052604160045260246000fd5b6001600160a01b0381168114610ef557600080fd5b6001600160e01b031981168114610ef557600080fdfea26469706673582212200db83ec027a4e089ec4b00d51f4dca351e9544a9488a502af64a9b9a2e38443c64736f6c63430008070033",
  "devdoc": {
    "kind": "dev",
    "methods": {
      "approve(address,uint256)": {
        "details": "See {IERC721-approve}."
      },
      "balanceOf(address)": {
        "details": "See {IERC721-balanceOf}."
      },
      "getApproved(uint256)": {
        "details": "See {IERC721-getApproved}."
      },
      "isApprovedForAll(address,address)": {
        "details": "See {IERC721-isApprovedForAll}."
      },
      "name()": {
        "details": "See {IERC721Metadata-name}."
      },
      "owner()": {
        "details": "Returns the address of the current owner."
      },
      "ownerOf(uint256)": {
        "details": "See {IERC721-ownerOf}."
      },
      "renounceOwnership()": {
        "details": "Leaves the contract without owner. It will not be possible to call `onlyOwner` functions anymore. Can only be called by the current owner. NOTE: Renouncing ownership will leave the contract without an owner, thereby removing any functionality that is only available to the owner."
      },
      "safeTransferFrom(address,address,uint256)": {
        "details": "See {IERC721-safeTransferFrom}."
      },
      "safeTransferFrom(address,address,uint256,bytes)": {
        "details": "See {IERC721-safeTransferFrom}."
      },
      "setApprovalForAll(address,bool)": {
        "details": "See {IERC721-setApprovalForAll}."
      },
      "supportsInterface(bytes4)": {
        "details": "See {IERC165-supportsInterface}."
      },
      "symbol()": {
        "details": "See {IERC721Metadata-symbol}."
      },
      "tokenURI(uint256)": {
        "details": "See {IERC721Metadata-tokenURI}."
      },
      "transferFrom(address,address,uint256)": {
        "details": "See {IERC721-transferFrom}."
      },
      "transferOwnership(address)": {
        "details": "Transfers ownership of the contract to a new account (`newOwner`). Can only be called by the current owner."
      }
    },
    "version": 1
  },
  "userdoc": {
    "kind": "user",
    "methods": {},
    "version": 1
  },
  "storageLayout": {
    "storage": [
      {
        "astId": 395,
        "contract": "contracts/ProjectNFT.sol:ProjectNFT",
        "label": "_name",
        "offset": 0,
        "slot": "0",
        "type": "t_string_storage"
      },
      {
        "astId": 397,
        "contract": "contracts/ProjectNFT.sol:ProjectNFT",
        "label": "_symbol",
        "offset": 0,
        "slot": "1",
        "type": "t_string_storage"
      },
      {
        "astId": 401,
        "contract": "contracts/ProjectNFT.sol:ProjectNFT",
        "label": "_owners",
        "offset": 0,
        "slot": "2",
        "type": "t_mapping(t_uint256,t_address)"
      },
      {
        "astId": 405,
        "contract": "contracts/ProjectNFT.sol:ProjectNFT",
        "label": "_balances",
        "offset": 0,
        "slot": "3",
        "type": "t_mapping(t_address,t_uint256)"
      },
      {
        "astId": 409,
        "contract": "contracts/ProjectNFT.sol:ProjectNFT",
        "label": "_tokenApprovals",
        "offset": 0,
        "slot": "4",
        "type": "t_mapping(t_uint256,t_address)"
      },
      {
        "astId": 415,
        "contract": "contracts/ProjectNFT.sol:ProjectNFT",
        "label": "_operatorApprovals",
        "offset": 0,
        "slot": "5",
        "type": "t_mapping(t_address,t_mapping(t_address,t_bool))"
      },
      {
        "astId": 1670,
        "contract": "contracts/ProjectNFT.sol:ProjectNFT",
        "label": "_tokenURIs",
        "offset": 0,
        "slot": "6",
        "type": "t_mapping(t_uint256,t_string_storage)"
      },
      {
        "astId": 273,
        "contract": "contracts/ProjectNFT.sol:ProjectNFT",
        "label": "_owner",
        "offset": 0,
        "slot": "7",
        "type": "t_address"
      },
      {
        "astId": 3975,
        "contract": "contracts/ProjectNFT.sol:ProjectNFT",
        "label": "_tokenIds",
        "offset": 0,
        "slot": "8",
        "type": "t_struct(Counter)2168_storage"
      },
      {
        "astId": 3978,
        "contract": "contracts/ProjectNFT.sol:ProjectNFT",
        "label": "_multiSigRequest",
        "offset": 0,
        "slot": "9",
        "type": "t_struct(Counter)2168_storage"
      },
      {
        "astId": 3981,
        "contract": "contracts/ProjectNFT.sol:ProjectNFT",
        "label": "stakeAmount",
        "offset": 0,
        "slot": "10",
        "type": "t_uint256"
      },
      {
        "astId": 3985,
        "contract": "contracts/ProjectNFT.sol:ProjectNFT",
        "label": "reviewers",
        "offset": 0,
        "slot": "11",
        "type": "t_mapping(t_address,t_bool)"
      },
      {
        "astId": 3987,
        "contract": "contracts/ProjectNFT.sol:ProjectNFT",
        "label": "multiSigThreshold",
        "offset": 0,
        "slot": "12",
        "type": "t_uint128"
      },
      {
        "astId": 3989,
        "contract": "contracts/ProjectNFT.sol:ProjectNFT",
        "label": "numReviewers",
        "offset": 16,
        "slot": "12",
        "type": "t_uint128"
      },
      {
        "astId": 3991,
        "contract": "contracts/ProjectNFT.sol:ProjectNFT",
        "label": "appWallet",
        "offset": 0,
        "slot": "13",
        "type": "t_address_payable"
      },
      {
        "astId": 3993,
        "contract": "contracts/ProjectNFT.sol:ProjectNFT",
        "label": "appDiamond",
        "offset": 0,
        "slot": "14",
        "type": "t_address_payable"
      },
      {
        "astId": 4003,
        "contract": "contracts/ProjectNFT.sol:ProjectNFT",
        "label": "contributors",
        "offset": 0,
        "slot": "15",
        "type": "t_mapping(t_string_memory_ptr,t_array(t_address)dyn_storage)"
      },
      {
        "astId": 4008,
        "contract": "contracts/ProjectNFT.sol:ProjectNFT",
        "label": "approvedERC20Addrs",
        "offset": 0,
        "slot": "16",
        "type": "t_mapping(t_string_memory_ptr,t_array(t_address)dyn_storage)"
      },
      {
        "astId": 4012,
        "contract": "contracts/ProjectNFT.sol:ProjectNFT",
        "label": "projectWallets",
        "offset": 0,
        "slot": "17",
        "type": "t_mapping(t_string_memory_ptr,t_address)"
      },
      {
        "astId": 4016,
        "contract": "contracts/ProjectNFT.sol:ProjectNFT",
        "label": "stakePerProject",
        "offset": 0,
        "slot": "18",
        "type": "t_mapping(t_string_memory_ptr,t_uint256)"
      },
      {
        "astId": 4020,
        "contract": "contracts/ProjectNFT.sol:ProjectNFT",
        "label": "statusStrings",
        "offset": 0,
        "slot": "19",
        "type": "t_mapping(t_uint256,t_string_storage)"
      },
      {
        "astId": 4025,
        "contract": "contracts/ProjectNFT.sol:ProjectNFT",
        "label": "status",
        "offset": 0,
        "slot": "20",
        "type": "t_mapping(t_string_memory_ptr,t_enum(ProjectStatus)3998)"
      },
      {
        "astId": 4029,
        "contract": "contracts/ProjectNFT.sol:ProjectNFT",
        "label": "votes",
        "offset": 0,
        "slot": "21",
        "type": "t_mapping(t_string_memory_ptr,t_uint256)"
      },
      {
        "astId": 4033,
        "contract": "contracts/ProjectNFT.sol:ProjectNFT",
        "label": "votesReject",
        "offset": 0,
        "slot": "22",
        "type": "t_mapping(t_string_memory_ptr,t_uint256)"
      },
      {
        "astId": 4039,
        "contract": "contracts/ProjectNFT.sol:ProjectNFT",
        "label": "reviewerVotes",
        "offset": 0,
        "slot": "23",
        "type": "t_mapping(t_string_memory_ptr,t_mapping(t_address,t_bool))"
      },
      {
        "astId": 4043,
        "contract": "contracts/ProjectNFT.sol:ProjectNFT",
        "label": "projectMinted",
        "offset": 0,
        "slot": "24",
        "type": "t_mapping(t_string_memory_ptr,t_bool)"
      },
      {
        "astId": 4047,
        "contract": "contracts/ProjectNFT.sol:ProjectNFT",
        "label": "projectThresholds",
        "offset": 0,
        "slot": "25",
        "type": "t_mapping(t_string_memory_ptr,t_uint256)"
      }
    ],
    "types": {
      "t_address": {
        "encoding": "inplace",
        "label": "address",
        "numberOfBytes": "20"
      },
      "t_address_payable": {
        "encoding": "inplace",
        "label": "address payable",
        "numberOfBytes": "20"
      },
      "t_array(t_address)dyn_storage": {
        "base": "t_address",
        "encoding": "dynamic_array",
        "label": "address[]",
        "numberOfBytes": "32"
      },
      "t_bool": {
        "encoding": "inplace",
        "label": "bool",
        "numberOfBytes": "1"
      },
      "t_enum(ProjectStatus)3998": {
        "encoding": "inplace",
        "label": "enum ProjectNFT.ProjectStatus",
        "numberOfBytes": "1"
      },
      "t_mapping(t_address,t_bool)": {
        "encoding": "mapping",
        "key": "t_address",
        "label": "mapping(address => bool)",
        "numberOfBytes": "32",
        "value": "t_bool"
      },
      "t_mapping(t_address,t_mapping(t_address,t_bool))": {
        "encoding": "mapping",
        "key": "t_address",
        "label": "mapping(address => mapping(address => bool))",
        "numberOfBytes": "32",
        "value": "t_mapping(t_address,t_bool)"
      },
      "t_mapping(t_address,t_uint256)": {
        "encoding": "mapping",
        "key": "t_address",
        "label": "mapping(address => uint256)",
        "numberOfBytes": "32",
        "value": "t_uint256"
      },
      "t_mapping(t_string_memory_ptr,t_address)": {
        "encoding": "mapping",
        "key": "t_string_memory_ptr",
        "label": "mapping(string => address)",
        "numberOfBytes": "32",
        "value": "t_address"
      },
      "t_mapping(t_string_memory_ptr,t_array(t_address)dyn_storage)": {
        "encoding": "mapping",
        "key": "t_string_memory_ptr",
        "label": "mapping(string => address[])",
        "numberOfBytes": "32",
        "value": "t_array(t_address)dyn_storage"
      },
      "t_mapping(t_string_memory_ptr,t_bool)": {
        "encoding": "mapping",
        "key": "t_string_memory_ptr",
        "label": "mapping(string => bool)",
        "numberOfBytes": "32",
        "value": "t_bool"
      },
      "t_mapping(t_string_memory_ptr,t_enum(ProjectStatus)3998)": {
        "encoding": "mapping",
        "key": "t_string_memory_ptr",
        "label": "mapping(string => enum ProjectNFT.ProjectStatus)",
        "numberOfBytes": "32",
        "value": "t_enum(ProjectStatus)3998"
      },
      "t_mapping(t_string_memory_ptr,t_mapping(t_address,t_bool))": {
        "encoding": "mapping",
        "key": "t_string_memory_ptr",
        "label": "mapping(string => mapping(address => bool))",
        "numberOfBytes": "32",
        "value": "t_mapping(t_address,t_bool)"
      },
      "t_mapping(t_string_memory_ptr,t_uint256)": {
        "encoding": "mapping",
        "key": "t_string_memory_ptr",
        "label": "mapping(string => uint256)",
        "numberOfBytes": "32",
        "value": "t_uint256"
      },
      "t_mapping(t_uint256,t_address)": {
        "encoding": "mapping",
        "key": "t_uint256",
        "label": "mapping(uint256 => address)",
        "numberOfBytes": "32",
        "value": "t_address"
      },
      "t_mapping(t_uint256,t_string_storage)": {
        "encoding": "mapping",
        "key": "t_uint256",
        "label": "mapping(uint256 => string)",
        "numberOfBytes": "32",
        "value": "t_string_storage"
      },
      "t_string_memory_ptr": {
        "encoding": "bytes",
        "label": "string",
        "numberOfBytes": "32"
      },
      "t_string_storage": {
        "encoding": "bytes",
        "label": "string",
        "numberOfBytes": "32"
      },
      "t_struct(Counter)2168_storage": {
        "encoding": "inplace",
        "label": "struct Counters.Counter",
        "members": [
          {
            "astId": 2167,
            "contract": "contracts/ProjectNFT.sol:ProjectNFT",
            "label": "_value",
            "offset": 0,
            "slot": "0",
            "type": "t_uint256"
          }
        ],
        "numberOfBytes": "32"
      },
      "t_uint128": {
        "encoding": "inplace",
        "label": "uint128",
        "numberOfBytes": "16"
      },
      "t_uint256": {
        "encoding": "inplace",
        "label": "uint256",
        "numberOfBytes": "32"
      }
    }
  }
}