{
  "address": "0x085cF156B9D7890432516518BDe9fd92Ce1a82c3",
  "abi": [
    {
      "inputs": [
        {
          "internalType": "address",
          "name": "_serverAddress",
          "type": "address"
        },
        {
          "internalType": "address[]",
          "name": "_approvers",
          "type": "address[]"
        }
      ],
      "stateMutability": "nonpayable",
      "type": "constructor"
    },
    {
      "anonymous": false,
      "inputs": [
        {
          "indexed": true,
          "internalType": "address",
          "name": "previousOwner",
          "type": "address"
        },
        {
          "indexed": true,
          "internalType": "address",
          "name": "newOwner",
          "type": "address"
        }
      ],
      "name": "OwnershipTransferred",
      "type": "event"
    },
    {
      "inputs": [
        {
          "internalType": "address",
          "name": "",
          "type": "address"
        }
      ],
      "name": "approvers",
      "outputs": [
        {
          "internalType": "bool",
          "name": "",
          "type": "bool"
        }
      ],
      "stateMutability": "view",
      "type": "function"
    },
    {
      "inputs": [
        {
          "internalType": "address",
          "name": "_senderAddress",
          "type": "address"
        },
        {
          "internalType": "string",
          "name": "_objectId",
          "type": "string"
        },
        {
          "internalType": "string",
          "name": "_parentId",
          "type": "string"
        },
        {
          "internalType": "bytes32",
          "name": "r",
          "type": "bytes32"
        },
        {
          "internalType": "bytes32",
          "name": "s",
          "type": "bytes32"
        },
        {
          "internalType": "uint8",
          "name": "v",
          "type": "uint8"
        }
      ],
      "name": "metaDataVerify",
      "outputs": [
        {
          "internalType": "bool",
          "name": "",
          "type": "bool"
        }
      ],
      "stateMutability": "nonpayable",
      "type": "function"
    },
    {
      "inputs": [
        {
          "internalType": "string",
          "name": "",
          "type": "string"
        },
        {
          "internalType": "string",
          "name": "",
          "type": "string"
        }
      ],
      "name": "noncesParentIdChildId",
      "outputs": [
        {
          "internalType": "uint256",
          "name": "",
          "type": "uint256"
        }
      ],
      "stateMutability": "view",
      "type": "function"
    },
    {
      "inputs": [],
      "name": "owner",
      "outputs": [
        {
          "internalType": "address",
          "name": "",
          "type": "address"
        }
      ],
      "stateMutability": "view",
      "type": "function"
    },
    {
      "inputs": [],
      "name": "renounceOwnership",
      "outputs": [],
      "stateMutability": "nonpayable",
      "type": "function"
    },
    {
      "inputs": [],
      "name": "serverAddress",
      "outputs": [
        {
          "internalType": "address",
          "name": "",
          "type": "address"
        }
      ],
      "stateMutability": "view",
      "type": "function"
    },
    {
      "inputs": [
        {
          "internalType": "address",
          "name": "_newAddress",
          "type": "address"
        }
      ],
      "name": "setServerAddress",
      "outputs": [],
      "stateMutability": "nonpayable",
      "type": "function"
    },
    {
      "inputs": [
        {
          "internalType": "string",
          "name": "",
          "type": "string"
        }
      ],
      "name": "thresholdNoncesById",
      "outputs": [
        {
          "internalType": "uint256",
          "name": "",
          "type": "uint256"
        }
      ],
      "stateMutability": "view",
      "type": "function"
    },
    {
      "inputs": [
        {
          "internalType": "address",
          "name": "_senderAddress",
          "type": "address"
        },
        {
          "internalType": "string",
          "name": "_objectId",
          "type": "string"
        },
        {
          "internalType": "uint256",
          "name": "votesNeeded",
          "type": "uint256"
        },
        {
          "internalType": "bytes32",
          "name": "r",
          "type": "bytes32"
        },
        {
          "internalType": "bytes32",
          "name": "s",
          "type": "bytes32"
        },
        {
          "internalType": "uint8",
          "name": "v",
          "type": "uint8"
        }
      ],
      "name": "thresholdVerify",
      "outputs": [
        {
          "internalType": "bool",
          "name": "",
          "type": "bool"
        }
      ],
      "stateMutability": "nonpayable",
      "type": "function"
    },
    {
      "inputs": [
        {
          "internalType": "address",
          "name": "newOwner",
          "type": "address"
        }
      ],
      "name": "transferOwnership",
      "outputs": [],
      "stateMutability": "nonpayable",
      "type": "function"
    }
  ],
  "transactionHash": "0x38dce49dd4967bec3252f04687ced82ac4118b86ca78aab6fafb9f9e3db2553b",
  "args": [
    "0x5eF593FF381b7d36028c795B51e138428d009C20",
    [
      "0x7E13623dd5D070967c8568066bE81a3E5bF75226",
      "0xA072f8Bd3847E21C8EdaAf38D7425631a2A63631",
      "0x2c0B08C414A8EE088596832cf64eFcA283D46703",
      "0x16eBE01dCae1338f8d1802C63712C5279e768d29",
      "0x3E31155a1c17c9F85e74828447aec412090a4622",
      "0x4678854dB7421fF1B3C5ACAe6c5C11e73f4F5702",
      "0xDAFf97a69408Cdb4AeFE331eA029a55e189ef60b"
    ]
  ],
  "solcInputHash": "e6e20ef9d8dc2d8fe4e95c6313fcd8a7",
  "bytecode": "0x60806040523480156200001157600080fd5b5060405162000d8138038062000d81833981016040819052620000349162000153565b6200003f33620000e6565b6001600160a01b0382166200005357600080fd5b600380546001600160a01b0319166001600160a01b03841617905560005b8151811015620000dd576001600460008484815181106200009657620000966200026d565b6020908102919091018101516001600160a01b03168252810191909152604001600020805460ff191691151591909117905580620000d48162000243565b91505062000071565b50505062000299565b600080546001600160a01b038381166001600160a01b0319831681178455604051919092169283917f8be0079c531659141344cd1fd0a4f28419497f9722a3daafe3b4186f6b6457e09190a35050565b80516001600160a01b03811681146200014e57600080fd5b919050565b600080604083850312156200016757600080fd5b620001728362000136565b602084810151919350906001600160401b03808211156200019257600080fd5b818601915086601f830112620001a757600080fd5b815181811115620001bc57620001bc62000283565b8060051b604051601f19603f83011681018181108582111715620001e457620001e462000283565b604052828152858101935084860182860187018b10156200020457600080fd5b600095505b8386101562000232576200021d8162000136565b85526001959095019493860193860162000209565b508096505050505050509250929050565b60006000198214156200026657634e487b7160e01b600052601160045260246000fd5b5060010190565b634e487b7160e01b600052603260045260246000fd5b634e487b7160e01b600052604160045260246000fd5b610ad880620002a96000396000f3fe608060405234801561001057600080fd5b506004361061009e5760003560e01c8063715018a611610066578063715018a61461016c5780638da5cb5b14610174578063db420fe314610199578063dfc718d0146101ac578063f2fde38b146101d757600080fd5b8063040c8c7a146100a35780630a144391146100fe5780631206510614610131578063466cc53e1461014457806347b64eb014610157575b600080fd5b6100eb6100b1366004610917565b8151602081840181018051600182529282019482019490942091909352815180830184018051928152908401929093019190912091525481565b6040519081526020015b60405180910390f35b61012161010c3660046107b3565b60046020526000908152604090205460ff1681565b60405190151581526020016100f5565b61012161013f3660046107d5565b6101ea565b61012161015236600461086c565b61030a565b61016a6101653660046107b3565b61047c565b005b61016a610503565b6000546001600160a01b03165b6040516001600160a01b0390911681526020016100f5565b600354610181906001600160a01b031681565b6100eb6101ba3660046108da565b805160208183018101805160028252928201919093012091525481565b61016a6101e53660046107b3565b610569565b6000806101f988888833610634565b6040517f19457468657265756d205369676e6564204d6573736167653a0a3332000000006020820152603c8101829052909150600090600190605c0160408051601f198184030181528282528051602091820120600084529083018083525260ff871690820152606081018890526080810187905260a0016020604051602081039080840390855afa158015610293573d6000803e3d6000fd5b5050506020604051035190506001876040516102af91906109b6565b9081526020016040518091039020886040516102cb91906109b6565b90815260405190819003602001902080549060006102e883610a63565b90915550506003546001600160a01b0390811691161498975050505050505050565b60008060028760405161031d91906109b6565b90815260200160405180910390205486896103353390565b308b60405160200161034c96959493929190610a0f565b60405160208183030381529060405280519060200120905060006001826040516020016103a591907f19457468657265756d205369676e6564204d6573736167653a0a3332000000008152601c810191909152603c0190565b60408051601f198184030181528282528051602091820120600084529083018083525260ff871690820152606081018890526080810187905260a0016020604051602081039080840390855afa158015610403573d6000803e3d6000fd5b5050604051601f1901516003549092506001600160a01b03808416911614905061046c5760405162461bcd60e51b815260206004820152601560248201527429a4a3a722a91026aaa9aa1021229029a2a92b22a960591b60448201526064015b60405180910390fd5b6002886040516102cb91906109b6565b3360009081526004602052604090205460ff166104ce5760405162461bcd60e51b815260206004820152601060248201526f1b5d5cdd08189948185c1c1c9bdd995960821b6044820152606401610463565b6001600160a01b0381166104e157600080fd5b600380546001600160a01b0319166001600160a01b0392909216919091179055565b6000546001600160a01b0316331461055d5760405162461bcd60e51b815260206004820181905260248201527f4f776e61626c653a2063616c6c6572206973206e6f7420746865206f776e65726044820152606401610463565b61056760006106a9565b565b6000546001600160a01b031633146105c35760405162461bcd60e51b815260206004820181905260248201527f4f776e61626c653a2063616c6c6572206973206e6f7420746865206f776e65726044820152606401610463565b6001600160a01b0381166106285760405162461bcd60e51b815260206004820152602660248201527f4f776e61626c653a206e6577206f776e657220697320746865207a65726f206160448201526564647265737360d01b6064820152608401610463565b610631816106a9565b50565b600060018360405161064691906109b6565b90815260200160405180910390208460405161066291906109b6565b908152602001604051809103902054858330876040516020016106899594939291906109c2565b604051602081830303815290604052805190602001209050949350505050565b600080546001600160a01b038381166001600160a01b0319831681178455604051919092169283917f8be0079c531659141344cd1fd0a4f28419497f9722a3daafe3b4186f6b6457e09190a35050565b80356001600160a01b038116811461071057600080fd5b919050565b600082601f83011261072657600080fd5b813567ffffffffffffffff8082111561074157610741610a8c565b604051601f8301601f19908116603f0116810190828211818310171561076957610769610a8c565b8160405283815286602085880101111561078257600080fd5b836020870160208301376000602085830101528094505050505092915050565b803560ff8116811461071057600080fd5b6000602082840312156107c557600080fd5b6107ce826106f9565b9392505050565b60008060008060008060c087890312156107ee57600080fd5b6107f7876106f9565b9550602087013567ffffffffffffffff8082111561081457600080fd5b6108208a838b01610715565b9650604089013591508082111561083657600080fd5b5061084389828a01610715565b945050606087013592506080870135915061086060a088016107a2565b90509295509295509295565b60008060008060008060c0878903121561088557600080fd5b61088e876106f9565b9550602087013567ffffffffffffffff8111156108aa57600080fd5b6108b689828a01610715565b95505060408701359350606087013592506080870135915061086060a088016107a2565b6000602082840312156108ec57600080fd5b813567ffffffffffffffff81111561090357600080fd5b61090f84828501610715565b949350505050565b6000806040838503121561092a57600080fd5b823567ffffffffffffffff8082111561094257600080fd5b61094e86838701610715565b9350602085013591508082111561096457600080fd5b5061097185828601610715565b9150509250929050565b6000815160005b8181101561099c5760208185018101518683015201610982565b818111156109ab576000828601525b509290920192915050565b60006107ce828461097b565b85815260006bffffffffffffffffffffffff19808760601b166020840152808660601b166034840152808560601b16604884015250610a04605c83018461097b565b979650505050505050565b86815285602082015260006bffffffffffffffffffffffff19808760601b166040840152808660601b166054840152808560601b16606884015250610a57607c83018461097b565b98975050505050505050565b6000600019821415610a8557634e487b7160e01b600052601160045260246000fd5b5060010190565b634e487b7160e01b600052604160045260246000fdfea2646970667358221220fde28059a5444014d92c765e881cca39ee90f2d5fcc67595bfdfac98f0f330d064736f6c63430008070033",
  "devdoc": {
    "kind": "dev",
    "methods": {
      "owner()": {
        "details": "Returns the address of the current owner."
      },
      "renounceOwnership()": {
        "details": "Leaves the contract without owner. It will not be possible to call `onlyOwner` functions anymore. Can only be called by the current owner. NOTE: Renouncing ownership will leave the contract without an owner, thereby removing any functionality that is only available to the owner."
      },
      "transferOwnership(address)": {
        "details": "Transfers ownership of the contract to a new account (`newOwner`). Can only be called by the current owner."
      }
    },
    "version": 1
  },
  "userdoc": {
    "kind": "user",
    "methods": {},
    "version": 1
  },
  "storageLayout": {
    "storage": [
      {
        "astId": 273,
        "contract": "contracts/Verify.sol:Verify",
        "label": "_owner",
        "offset": 0,
        "slot": "0",
        "type": "t_address"
      },
      {
        "astId": 4966,
        "contract": "contracts/Verify.sol:Verify",
        "label": "noncesParentIdChildId",
        "offset": 0,
        "slot": "1",
        "type": "t_mapping(t_string_memory_ptr,t_mapping(t_string_memory_ptr,t_uint256))"
      },
      {
        "astId": 4970,
        "contract": "contracts/Verify.sol:Verify",
        "label": "thresholdNoncesById",
        "offset": 0,
        "slot": "2",
        "type": "t_mapping(t_string_memory_ptr,t_uint256)"
      },
      {
        "astId": 4972,
        "contract": "contracts/Verify.sol:Verify",
        "label": "serverAddress",
        "offset": 0,
        "slot": "3",
        "type": "t_address"
      },
      {
        "astId": 4976,
        "contract": "contracts/Verify.sol:Verify",
        "label": "approvers",
        "offset": 0,
        "slot": "4",
        "type": "t_mapping(t_address,t_bool)"
      }
    ],
    "types": {
      "t_address": {
        "encoding": "inplace",
        "label": "address",
        "numberOfBytes": "20"
      },
      "t_bool": {
        "encoding": "inplace",
        "label": "bool",
        "numberOfBytes": "1"
      },
      "t_mapping(t_address,t_bool)": {
        "encoding": "mapping",
        "key": "t_address",
        "label": "mapping(address => bool)",
        "numberOfBytes": "32",
        "value": "t_bool"
      },
      "t_mapping(t_string_memory_ptr,t_mapping(t_string_memory_ptr,t_uint256))": {
        "encoding": "mapping",
        "key": "t_string_memory_ptr",
        "label": "mapping(string => mapping(string => uint256))",
        "numberOfBytes": "32",
        "value": "t_mapping(t_string_memory_ptr,t_uint256)"
      },
      "t_mapping(t_string_memory_ptr,t_uint256)": {
        "encoding": "mapping",
        "key": "t_string_memory_ptr",
        "label": "mapping(string => uint256)",
        "numberOfBytes": "32",
        "value": "t_uint256"
      },
      "t_string_memory_ptr": {
        "encoding": "bytes",
        "label": "string",
        "numberOfBytes": "32"
      },
      "t_uint256": {
        "encoding": "inplace",
        "label": "uint256",
        "numberOfBytes": "32"
      }
    }
  }
}