{
  "address": "0x505cacAd97CaeCe1882F9fe89C438A58440cC94a",
  "abi": [
    {
      "inputs": [
        {
          "internalType": "address",
          "name": "_vrfAddress",
          "type": "address"
        },
        {
          "internalType": "address",
          "name": "_projectNFTAddress",
          "type": "address"
        },
        {
          "internalType": "address",
          "name": "_pathwayNFTAddress",
          "type": "address"
        },
        {
          "internalType": "address",
          "name": "_verifyAddress",
          "type": "address"
        }
      ],
      "stateMutability": "nonpayable",
      "type": "constructor"
    },
    {
      "anonymous": false,
      "inputs": [
        {
          "indexed": true,
          "internalType": "address",
          "name": "owner",
          "type": "address"
        },
        {
          "indexed": true,
          "internalType": "address",
          "name": "approved",
          "type": "address"
        },
        {
          "indexed": true,
          "internalType": "uint256",
          "name": "tokenId",
          "type": "uint256"
        }
      ],
      "name": "Approval",
      "type": "event"
    },
    {
      "anonymous": false,
      "inputs": [
        {
          "indexed": true,
          "internalType": "address",
          "name": "owner",
          "type": "address"
        },
        {
          "indexed": true,
          "internalType": "address",
          "name": "operator",
          "type": "address"
        },
        {
          "indexed": false,
          "internalType": "bool",
          "name": "approved",
          "type": "bool"
        }
      ],
      "name": "ApprovalForAll",
      "type": "event"
    },
    {
      "anonymous": false,
      "inputs": [
        {
          "indexed": true,
          "internalType": "string",
          "name": "_badgeId",
          "type": "string"
        }
      ],
      "name": "BadgeApproved",
      "type": "event"
    },
    {
      "anonymous": false,
      "inputs": [
        {
          "indexed": true,
          "internalType": "address",
          "name": "_to",
          "type": "address"
        },
        {
          "indexed": true,
          "internalType": "string",
          "name": "_tokenURI",
          "type": "string"
        },
        {
          "indexed": true,
          "internalType": "string",
          "name": "_badgeId",
          "type": "string"
        }
      ],
      "name": "NFTBadgeMinted",
      "type": "event"
    },
    {
      "anonymous": false,
      "inputs": [
        {
          "indexed": true,
          "internalType": "address",
          "name": "previousOwner",
          "type": "address"
        },
        {
          "indexed": true,
          "internalType": "address",
          "name": "newOwner",
          "type": "address"
        }
      ],
      "name": "OwnershipTransferred",
      "type": "event"
    },
    {
      "anonymous": false,
      "inputs": [
        {
          "indexed": false,
          "internalType": "address",
          "name": "_caller",
          "type": "address"
        },
        {
          "indexed": false,
          "internalType": "uint256",
          "name": "_value",
          "type": "uint256"
        }
      ],
      "name": "ReceiveCalled",
      "type": "event"
    },
    {
      "anonymous": false,
      "inputs": [
        {
          "indexed": true,
          "internalType": "address",
          "name": "from",
          "type": "address"
        },
        {
          "indexed": true,
          "internalType": "address",
          "name": "to",
          "type": "address"
        },
        {
          "indexed": true,
          "internalType": "uint256",
          "name": "tokenId",
          "type": "uint256"
        }
      ],
      "name": "Transfer",
      "type": "event"
    },
    {
      "inputs": [
        {
          "internalType": "string",
          "name": "_badgeId",
          "type": "string"
        },
        {
          "internalType": "address",
          "name": "_ERC20Address",
          "type": "address"
        },
        {
          "internalType": "bool",
          "name": "useNative",
          "type": "bool"
        },
        {
          "internalType": "uint256",
          "name": "amount",
          "type": "uint256"
        }
      ],
      "name": "addBadgeCreationReward",
      "outputs": [],
      "stateMutability": "payable",
      "type": "function"
    },
    {
      "inputs": [
        {
          "internalType": "string",
          "name": "",
          "type": "string"
        }
      ],
      "name": "adventurerAddress",
      "outputs": [
        {
          "internalType": "address",
          "name": "",
          "type": "address"
        }
      ],
      "stateMutability": "view",
      "type": "function"
    },
    {
      "inputs": [
        {
          "internalType": "address",
          "name": "to",
          "type": "address"
        },
        {
          "internalType": "uint256",
          "name": "tokenId",
          "type": "uint256"
        }
      ],
      "name": "approve",
      "outputs": [],
      "stateMutability": "nonpayable",
      "type": "function"
    },
    {
      "inputs": [
        {
          "internalType": "string",
          "name": "",
          "type": "string"
        }
      ],
      "name": "badgeMinted",
      "outputs": [
        {
          "internalType": "bool",
          "name": "",
          "type": "bool"
        }
      ],
      "stateMutability": "view",
      "type": "function"
    },
    {
      "inputs": [
        {
          "internalType": "address",
          "name": "owner",
          "type": "address"
        }
      ],
      "name": "balanceOf",
      "outputs": [
        {
          "internalType": "uint256",
          "name": "",
          "type": "uint256"
        }
      ],
      "stateMutability": "view",
      "type": "function"
    },
    {
      "inputs": [
        {
          "internalType": "string",
          "name": "_badgeId",
          "type": "string"
        },
        {
          "internalType": "bool",
          "name": "native",
          "type": "bool"
        },
        {
          "internalType": "address",
          "name": "_ERC20Address",
          "type": "address"
        },
        {
          "internalType": "bytes32",
          "name": "r",
          "type": "bytes32"
        },
        {
          "internalType": "bytes32",
          "name": "s",
          "type": "bytes32"
        },
        {
          "internalType": "uint8",
          "name": "v",
          "type": "uint8"
        },
        {
          "internalType": "bool",
          "name": "claimReward",
          "type": "bool"
        },
        {
          "internalType": "string",
          "name": "_tokenURI",
          "type": "string"
        },
        {
          "internalType": "uint256",
          "name": "version",
          "type": "uint256"
        }
      ],
      "name": "claimBadgeRewards",
      "outputs": [],
      "stateMutability": "nonpayable",
      "type": "function"
    },
    {
      "inputs": [
        {
          "internalType": "string",
          "name": "_badgeId",
          "type": "string"
        },
        {
          "internalType": "bool",
          "name": "native",
          "type": "bool"
        },
        {
          "internalType": "address",
          "name": "_ERC20Address",
          "type": "address"
        }
      ],
      "name": "claimRejectionRefund",
      "outputs": [],
      "stateMutability": "nonpayable",
      "type": "function"
    },
    {
      "inputs": [
        {
          "internalType": "string",
          "name": "_badgeId",
          "type": "string"
        },
        {
          "internalType": "string",
          "name": "_pathwayId",
          "type": "string"
        },
        {
          "internalType": "uint256",
          "name": "numUsersRewarded",
          "type": "uint256"
        },
        {
          "internalType": "bool",
          "name": "callRewards",
          "type": "bool"
        },
        {
          "internalType": "address",
          "name": "_ERC20Address",
          "type": "address"
        },
        {
          "internalType": "bool",
          "name": "useNative",
          "type": "bool"
        },
        {
          "internalType": "uint256",
          "name": "amount",
          "type": "uint256"
        }
      ],
      "name": "createBadge",
      "outputs": [],
      "stateMutability": "payable",
      "type": "function"
    },
    {
      "inputs": [
        {
          "internalType": "string",
          "name": "_tokenURI",
          "type": "string"
        },
        {
          "internalType": "string",
          "name": "_badgeId",
          "type": "string"
        },
        {
          "internalType": "string",
          "name": "_pathwayId",
          "type": "string"
        },
        {
          "internalType": "bytes32[2]",
          "name": "r",
          "type": "bytes32[2]"
        },
        {
          "internalType": "bytes32[2]",
          "name": "s",
          "type": "bytes32[2]"
        },
        {
          "internalType": "uint8[2]",
          "name": "v",
          "type": "uint8[2]"
        },
        {
          "internalType": "uint256",
          "name": "votesNeeded",
          "type": "uint256"
        }
      ],
      "name": "createToken",
      "outputs": [
        {
          "internalType": "uint256[]",
          "name": "",
          "type": "uint256[]"
        }
      ],
      "stateMutability": "nonpayable",
      "type": "function"
    },
    {
      "inputs": [
        {
          "internalType": "string",
          "name": "",
          "type": "string"
        }
      ],
      "name": "creator",
      "outputs": [
        {
          "internalType": "address",
          "name": "",
          "type": "address"
        }
      ],
      "stateMutability": "view",
      "type": "function"
    },
    {
      "inputs": [],
      "name": "creatorFee",
      "outputs": [
        {
          "internalType": "uint256",
          "name": "",
          "type": "uint256"
        }
      ],
      "stateMutability": "view",
      "type": "function"
    },
    {
      "inputs": [
        {
          "internalType": "string",
          "name": "",
          "type": "string"
        },
        {
          "internalType": "address",
          "name": "",
          "type": "address"
        }
      ],
      "name": "currentNumUsersRewardPerBadgeERC20",
      "outputs": [
        {
          "internalType": "uint256",
          "name": "",
          "type": "uint256"
        }
      ],
      "stateMutability": "view",
      "type": "function"
    },
    {
      "inputs": [
        {
          "internalType": "string",
          "name": "",
          "type": "string"
        }
      ],
      "name": "currentNumUsersRewardPerBadgeNative",
      "outputs": [
        {
          "internalType": "uint256",
          "name": "",
          "type": "uint256"
        }
      ],
      "stateMutability": "view",
      "type": "function"
    },
    {
      "inputs": [],
      "name": "fee",
      "outputs": [
        {
          "internalType": "uint256",
          "name": "",
          "type": "uint256"
        }
      ],
      "stateMutability": "view",
      "type": "function"
    },
    {
      "inputs": [
        {
          "internalType": "string",
          "name": "_badgeId",
          "type": "string"
        },
        {
          "internalType": "uint256",
          "name": "version",
          "type": "uint256"
        }
      ],
      "name": "getAllAddrsByBadgeIDVersion",
      "outputs": [
        {
          "internalType": "address[]",
          "name": "",
          "type": "address[]"
        }
      ],
      "stateMutability": "view",
      "type": "function"
    },
    {
      "inputs": [
        {
          "internalType": "string",
          "name": "_badgeId",
          "type": "string"
        },
        {
          "internalType": "uint256",
          "name": "version",
          "type": "uint256"
        }
      ],
      "name": "getAllTokenIdsByBadgeIDVersion",
      "outputs": [
        {
          "internalType": "uint256[]",
          "name": "",
          "type": "uint256[]"
        }
      ],
      "stateMutability": "view",
      "type": "function"
    },
    {
      "inputs": [],
      "name": "getAppDiamond",
      "outputs": [
        {
          "internalType": "address",
          "name": "",
          "type": "address"
        }
      ],
      "stateMutability": "view",
      "type": "function"
    },
    {
      "inputs": [
        {
          "internalType": "uint256",
          "name": "tokenId",
          "type": "uint256"
        }
      ],
      "name": "getApproved",
      "outputs": [
        {
          "internalType": "address",
          "name": "",
          "type": "address"
        }
      ],
      "stateMutability": "view",
      "type": "function"
    },
    {
      "inputs": [
        {
          "internalType": "string",
          "name": "_badgeId",
          "type": "string"
        }
      ],
      "name": "getContributors",
      "outputs": [
        {
          "internalType": "address[]",
          "name": "",
          "type": "address[]"
        }
      ],
      "stateMutability": "view",
      "type": "function"
    },
    {
      "inputs": [
        {
          "internalType": "address",
          "name": "adventurer",
          "type": "address"
        }
      ],
      "name": "getVersionsAndBadgeIDsByAdventurer",
      "outputs": [
        {
          "internalType": "uint256[]",
          "name": "versions",
          "type": "uint256[]"
        },
        {
          "internalType": "string",
          "name": "concatBadgeIds",
          "type": "string"
        }
      ],
      "stateMutability": "view",
      "type": "function"
    },
    {
      "inputs": [
        {
          "internalType": "address",
          "name": "owner",
          "type": "address"
        },
        {
          "internalType": "address",
          "name": "operator",
          "type": "address"
        }
      ],
      "name": "isApprovedForAll",
      "outputs": [
        {
          "internalType": "bool",
          "name": "",
          "type": "bool"
        }
      ],
      "stateMutability": "view",
      "type": "function"
    },
    {
      "inputs": [],
      "name": "name",
      "outputs": [
        {
          "internalType": "string",
          "name": "",
          "type": "string"
        }
      ],
      "stateMutability": "view",
      "type": "function"
    },
    {
      "inputs": [
        {
          "internalType": "string",
          "name": "",
          "type": "string"
        }
      ],
      "name": "nativeRefundClaimed",
      "outputs": [
        {
          "internalType": "bool",
          "name": "",
          "type": "bool"
        }
      ],
      "stateMutability": "view",
      "type": "function"
    },
    {
      "inputs": [
        {
          "internalType": "string",
          "name": "",
          "type": "string"
        }
      ],
      "name": "nativeRewards",
      "outputs": [
        {
          "internalType": "uint256",
          "name": "",
          "type": "uint256"
        }
      ],
      "stateMutability": "view",
      "type": "function"
    },
    {
      "inputs": [
        {
          "internalType": "string",
          "name": "",
          "type": "string"
        },
        {
          "internalType": "address",
          "name": "",
          "type": "address"
        }
      ],
      "name": "nonces",
      "outputs": [
        {
          "internalType": "uint256",
          "name": "",
          "type": "uint256"
        }
      ],
      "stateMutability": "view",
      "type": "function"
    },
    {
      "inputs": [
        {
          "internalType": "string",
          "name": "",
          "type": "string"
        }
      ],
      "name": "numUsersRewardPerBadge",
      "outputs": [
        {
          "internalType": "uint256",
          "name": "",
          "type": "uint256"
        }
      ],
      "stateMutability": "view",
      "type": "function"
    },
    {
      "inputs": [],
      "name": "owner",
      "outputs": [
        {
          "internalType": "address",
          "name": "",
          "type": "address"
        }
      ],
      "stateMutability": "view",
      "type": "function"
    },
    {
      "inputs": [
        {
          "internalType": "uint256",
          "name": "tokenId",
          "type": "uint256"
        }
      ],
      "name": "ownerOf",
      "outputs": [
        {
          "internalType": "address",
          "name": "",
          "type": "address"
        }
      ],
      "stateMutability": "view",
      "type": "function"
    },
    {
      "inputs": [
        {
          "internalType": "string",
          "name": "",
          "type": "string"
        }
      ],
      "name": "pathwayIdforBadge",
      "outputs": [
        {
          "internalType": "string",
          "name": "",
          "type": "string"
        }
      ],
      "stateMutability": "view",
      "type": "function"
    },
    {
      "inputs": [],
      "name": "renounceOwnership",
      "outputs": [],
      "stateMutability": "nonpayable",
      "type": "function"
    },
    {
      "inputs": [
        {
          "internalType": "string",
          "name": "",
          "type": "string"
        },
        {
          "internalType": "address",
          "name": "",
          "type": "address"
        }
      ],
      "name": "reviewerVotes",
      "outputs": [
        {
          "internalType": "bool",
          "name": "",
          "type": "bool"
        }
      ],
      "stateMutability": "view",
      "type": "function"
    },
    {
      "inputs": [
        {
          "internalType": "address",
          "name": "from",
          "type": "address"
        },
        {
          "internalType": "address",
          "name": "to",
          "type": "address"
        },
        {
          "internalType": "uint256",
          "name": "tokenId",
          "type": "uint256"
        }
      ],
      "name": "safeTransferFrom",
      "outputs": [],
      "stateMutability": "nonpayable",
      "type": "function"
    },
    {
      "inputs": [
        {
          "internalType": "address",
          "name": "from",
          "type": "address"
        },
        {
          "internalType": "address",
          "name": "to",
          "type": "address"
        },
        {
          "internalType": "uint256",
          "name": "tokenId",
          "type": "uint256"
        },
        {
          "internalType": "bytes",
          "name": "_data",
          "type": "bytes"
        }
      ],
      "name": "safeTransferFrom",
      "outputs": [],
      "stateMutability": "nonpayable",
      "type": "function"
    },
    {
      "inputs": [
        {
          "internalType": "address",
          "name": "newFactory",
          "type": "address"
        }
      ],
      "name": "setAdventureFactory",
      "outputs": [],
      "stateMutability": "nonpayable",
      "type": "function"
    },
    {
      "inputs": [
        {
          "internalType": "address",
          "name": "newAppDiamond",
          "type": "address"
        }
      ],
      "name": "setAppDiamond",
      "outputs": [],
      "stateMutability": "nonpayable",
      "type": "function"
    },
    {
      "inputs": [
        {
          "internalType": "address",
          "name": "operator",
          "type": "address"
        },
        {
          "internalType": "bool",
          "name": "approved",
          "type": "bool"
        }
      ],
      "name": "setApprovalForAll",
      "outputs": [],
      "stateMutability": "nonpayable",
      "type": "function"
    },
    {
      "inputs": [
        {
          "internalType": "string",
          "name": "_badgeId",
          "type": "string"
        },
        {
          "internalType": "uint256",
          "name": "newNumber",
          "type": "uint256"
        },
        {
          "internalType": "bytes32",
          "name": "r",
          "type": "bytes32"
        },
        {
          "internalType": "bytes32",
          "name": "s",
          "type": "bytes32"
        },
        {
          "internalType": "uint8",
          "name": "v",
          "type": "uint8"
        }
      ],
      "name": "setNumberOfUsersRewarded",
      "outputs": [],
      "stateMutability": "nonpayable",
      "type": "function"
    },
    {
      "inputs": [
        {
          "internalType": "string",
          "name": "",
          "type": "string"
        }
      ],
      "name": "status",
      "outputs": [
        {
          "internalType": "enum BadgeNFT.BadgeStatus",
          "name": "",
          "type": "uint8"
        }
      ],
      "stateMutability": "view",
      "type": "function"
    },
    {
      "inputs": [
        {
          "internalType": "uint256",
          "name": "",
          "type": "uint256"
        }
      ],
      "name": "statusStrings",
      "outputs": [
        {
          "internalType": "string",
          "name": "",
          "type": "string"
        }
      ],
      "stateMutability": "view",
      "type": "function"
    },
    {
      "inputs": [
        {
          "internalType": "bytes4",
          "name": "interfaceId",
          "type": "bytes4"
        }
      ],
      "name": "supportsInterface",
      "outputs": [
        {
          "internalType": "bool",
          "name": "",
          "type": "bool"
        }
      ],
      "stateMutability": "view",
      "type": "function"
    },
    {
      "inputs": [],
      "name": "symbol",
      "outputs": [
        {
          "internalType": "string",
          "name": "",
          "type": "string"
        }
      ],
      "stateMutability": "view",
      "type": "function"
    },
    {
      "inputs": [
        {
          "internalType": "uint256",
          "name": "index",
          "type": "uint256"
        }
      ],
      "name": "tokenByIndex",
      "outputs": [
        {
          "internalType": "uint256",
          "name": "",
          "type": "uint256"
        }
      ],
      "stateMutability": "view",
      "type": "function"
    },
    {
      "inputs": [
        {
          "internalType": "address",
          "name": "owner",
          "type": "address"
        },
        {
          "internalType": "uint256",
          "name": "index",
          "type": "uint256"
        }
      ],
      "name": "tokenOfOwnerByIndex",
      "outputs": [
        {
          "internalType": "uint256",
          "name": "",
          "type": "uint256"
        }
      ],
      "stateMutability": "view",
      "type": "function"
    },
    {
      "inputs": [
        {
          "internalType": "uint256",
          "name": "tokenId",
          "type": "uint256"
        }
      ],
      "name": "tokenURI",
      "outputs": [
        {
          "internalType": "string",
          "name": "",
          "type": "string"
        }
      ],
      "stateMutability": "view",
      "type": "function"
    },
    {
      "inputs": [],
      "name": "totalSupply",
      "outputs": [
        {
          "internalType": "uint256",
          "name": "",
          "type": "uint256"
        }
      ],
      "stateMutability": "view",
      "type": "function"
    },
    {
      "inputs": [
        {
          "internalType": "address",
          "name": "from",
          "type": "address"
        },
        {
          "internalType": "address",
          "name": "to",
          "type": "address"
        },
        {
          "internalType": "uint256",
          "name": "tokenId",
          "type": "uint256"
        }
      ],
      "name": "transferFrom",
      "outputs": [],
      "stateMutability": "nonpayable",
      "type": "function"
    },
    {
      "inputs": [
        {
          "internalType": "address",
          "name": "newOwner",
          "type": "address"
        }
      ],
      "name": "transferOwnership",
      "outputs": [],
      "stateMutability": "nonpayable",
      "type": "function"
    },
    {
      "inputs": [
        {
          "internalType": "string",
          "name": "",
          "type": "string"
        },
        {
          "internalType": "address",
          "name": "",
          "type": "address"
        }
      ],
      "name": "userRewardedForBadgeNative",
      "outputs": [
        {
          "internalType": "bool",
          "name": "",
          "type": "bool"
        }
      ],
      "stateMutability": "view",
      "type": "function"
    },
    {
      "inputs": [
        {
          "internalType": "address[]",
          "name": "_contributors",
          "type": "address[]"
        },
        {
          "internalType": "string",
          "name": "_badgeId",
          "type": "string"
        },
        {
          "internalType": "string",
          "name": "_pathwayId",
          "type": "string"
        },
        {
          "internalType": "bytes32[2]",
          "name": "r",
          "type": "bytes32[2]"
        },
        {
          "internalType": "bytes32[2]",
          "name": "s",
          "type": "bytes32[2]"
        },
        {
          "internalType": "uint8[2]",
          "name": "v",
          "type": "uint8[2]"
        },
        {
          "internalType": "uint256",
          "name": "votesNeeded",
          "type": "uint256"
        }
      ],
      "name": "voteForApproval",
      "outputs": [],
      "stateMutability": "nonpayable",
      "type": "function"
    },
    {
      "inputs": [
        {
          "internalType": "string",
          "name": "_badgeId",
          "type": "string"
        },
        {
          "internalType": "string",
          "name": "_pathwayId",
          "type": "string"
        },
        {
          "internalType": "bytes32[2]",
          "name": "r",
          "type": "bytes32[2]"
        },
        {
          "internalType": "bytes32[2]",
          "name": "s",
          "type": "bytes32[2]"
        },
        {
          "internalType": "uint8[2]",
          "name": "v",
          "type": "uint8[2]"
        },
        {
          "internalType": "uint256",
          "name": "votesNeeded",
          "type": "uint256"
        }
      ],
      "name": "voteForRejection",
      "outputs": [],
      "stateMutability": "nonpayable",
      "type": "function"
    },
    {
      "inputs": [
        {
          "internalType": "string",
          "name": "",
          "type": "string"
        }
      ],
      "name": "votes",
      "outputs": [
        {
          "internalType": "uint256",
          "name": "",
          "type": "uint256"
        }
      ],
      "stateMutability": "view",
      "type": "function"
    },
    {
      "inputs": [
        {
          "internalType": "string",
          "name": "",
          "type": "string"
        }
      ],
      "name": "votesReject",
      "outputs": [
        {
          "internalType": "uint256",
          "name": "",
          "type": "uint256"
        }
      ],
      "stateMutability": "view",
      "type": "function"
    },
    {
      "inputs": [
        {
          "internalType": "address",
          "name": "_owner",
          "type": "address"
        }
      ],
      "name": "walletOfOwner",
      "outputs": [
        {
          "internalType": "uint256[]",
          "name": "",
          "type": "uint256[]"
        }
      ],
      "stateMutability": "view",
      "type": "function"
    },
    {
      "stateMutability": "payable",
      "type": "receive"
    }
  ],
  "transactionHash": "0xc3a246410b95fba3337282bfcc9f64ff5a3236919d697f103e50bf4121d4aa99",
  "args": [
    "0xF33373d9507c15E7F7aC502a0EB8527e022dda79",
    "0xAB087AC3b091ea0584Cce918A5243F19069708B1",
    "0x20208429cf3aa75125Bd36E91A831bfD9BaA1a43",
    "0xcB2AF596fC582a3206e2D59368849Df5DAca75FD"
  ],
  "numDeployments": 1,
  "solcInputHash": "e900b873528671424b2623cdf1b46bc1",
  "bytecode": "0x6080604052610514602b5560c8602c553480156200001c57600080fd5b506040516200613b3803806200613b8339810160408190526200003f916200039d565b604080518082018252600d81526c64436f6d70617373426164676560981b6020808301918252835180850190945260068452652221a7a6a82160d11b9084015281519192916200009291600091620002da565b508051620000a8906001906020840190620002da565b505050620000c5620000bf6200028460201b60201c565b62000288565b600d80546001600160a01b038087166001600160a01b031992831617909255600e8054848416908316179055600f8054868416908316179055601080549285169290911691909117905560408051808201909152600b81526a1393d391561254d511539560aa1b6020808301918252600080526013905290516200016b917f8fa6efc3be94b5b348b21fea823fe8d100408cee9b7f90524494500445d8ff6c91620002da565b5060408051808201909152600781526650454e44494e4760c81b60208083019182526001600052601390529051620001c5917f4155c2f711f2cdd34f8262ab8fb9b7020a700fe7b6948222152f7670d1fdf34d91620002da565b5060408051808201909152600681526511115392515160d21b602080830191825260026000526013905290516200021e917f0b9d2c0c271bb30544eb78c59bdaebdae2728e5f65814c07768a0abe90ed192391620002da565b506040805180820190915260088152671054141493d5915160c21b6020808301918252600360005260139052905162000279917f0d2a6872ef858a7f8ead18dc4f3f2e8d35c853d47e2816cbb9cdd49202554e0c91620002da565b505050505062000437565b3390565b600b80546001600160a01b038381166001600160a01b0319831681179093556040519116919082907f8be0079c531659141344cd1fd0a4f28419497f9722a3daafe3b4186f6b6457e090600090a35050565b828054620002e890620003fa565b90600052602060002090601f0160209004810192826200030c576000855562000357565b82601f106200032757805160ff191683800117855562000357565b8280016001018555821562000357579182015b82811115620003575782518255916020019190600101906200033a565b506200036592915062000369565b5090565b5b808211156200036557600081556001016200036a565b80516001600160a01b03811681146200039857600080fd5b919050565b60008060008060808587031215620003b457600080fd5b620003bf8562000380565b9350620003cf6020860162000380565b9250620003df6040860162000380565b9150620003ef6060860162000380565b905092959194509250565b600181811c908216806200040f57607f821691505b602082108114156200043157634e487b7160e01b600052602260045260246000fd5b50919050565b615cf480620004476000396000f3fe60806040526004361061031e5760003560e01c8063715018a6116101ab578063b88d4fde116100f7578063e88958dc11610095578063ebcb309a1161006f578063ebcb309a14610b3f578063f2fde38b14610b5f578063f4f5d02914610b7f578063f66af3ed14610bca57600080fd5b8063e88958dc14610a98578063e8ca64f414610aae578063e985e9c514610af657600080fd5b8063c87b56dd116100d1578063c87b56dd146109df578063ce15ef81146109ff578063cef9fab714610a3a578063ddca3f4314610a8257600080fd5b8063b88d4fde14610946578063b99ef1fa14610966578063bf82a6ac1461099e57600080fd5b806395d89b41116101645780639e1b567c1161013e5780639e1b567c146108a8578063a22cb465146108f3578063aaa545d014610913578063b2986b4c1461093357600080fd5b806395d89b411461082e5780639a199401146108435780639e1a90d51461087b57600080fd5b8063715018a61461071a57806373a5d17c1461072f57806376032f0e146107775780638360bcb1146107af5780638da5cb5b146107cf578063956f49bf146107ed57600080fd5b80632f745c591161026a578063500b5bd6116102235780636352211e116101fd5780636352211e146106825780636810b4cf146106a257806368929b5c146106c257806370a08231146106fa57600080fd5b8063500b5bd61461061a5780635743d4f31461063857806362fe4f861461066f57600080fd5b80632f745c591461053f57806341038d191461055f57806342842e0e1461059a578063438b6300146105ba57806347185957146105da5780634f6ccce7146105fa57600080fd5b80630d0654d9116102d757806318160ddd116102b157806318160ddd146104c05780631f6f3b74146104df5780631fd8b97e146104ff57806323b872dd1461051f57600080fd5b80630d0654d9146104535780630e3c22cb1461048057806310f7a746146104a057600080fd5b806301ffc9a71461036257806304dcd3001461039757806306462b6f146103c457806306fdde03146103e6578063081812fc146103fb578063095ea7b31461043357600080fd5b3661035d57604080513381523460208201527f64c983f10188c30a885d77970aa5aae9a86e80ef9b459ad33cc620eb5999e070910160405180910390a1005b600080fd5b34801561036e57600080fd5b5061038261037d36600461502f565b610bf8565b60405190151581526020015b60405180910390f35b3480156103a357600080fd5b506103b76103b2366004615585565b610c09565b60405161038e91906158e7565b3480156103d057600080fd5b506103e46103df366004614d44565b610ca3565b005b3480156103f257600080fd5b506103b7610cf8565b34801561040757600080fd5b5061041b610416366004615585565b610d8a565b6040516001600160a01b03909116815260200161038e565b34801561043f57600080fd5b506103e461044e366004614ea5565b610e12565b34801561045f57600080fd5b5061047361046e366004615393565b610f28565b60405161038e9190615887565b34801561048c57600080fd5b506103e461049b366004614d44565b6114b8565b3480156104ac57600080fd5b506103e46104bb366004615225565b611504565b3480156104cc57600080fd5b506009545b60405190815260200161038e565b3480156104eb57600080fd5b506104736104fa3660046154d7565b611953565b34801561050b57600080fd5b506103e461051a36600461551b565b6119cf565b34801561052b57600080fd5b506103e461053a366004614db7565b611a7f565b34801561054b57600080fd5b506104d161055a366004614ea5565b611ab0565b34801561056b57600080fd5b5061038261057a366004615069565b8051602081830181018051601e8252928201919093012091525460ff1681565b3480156105a657600080fd5b506103e46105b5366004614db7565b611b46565b3480156105c657600080fd5b506104736105d5366004614d44565b611b61565b3480156105e657600080fd5b506103e46105f53660046151c2565b611c02565b34801561060657600080fd5b506104d1610615366004615585565b612147565b34801561062657600080fd5b506011546001600160a01b031661041b565b34801561064457600080fd5b506104d1610653366004615069565b8051602081830181018051828252928201919093012091525481565b6103e461067d366004615159565b6121da565b34801561068e57600080fd5b5061041b61069d366004615585565b612a70565b3480156106ae57600080fd5b506103e46106bd3660046152f1565b612ae7565b3480156106ce57600080fd5b506104d16106dd366004615069565b8051602081830181018051601a8252928201919093012091525481565b34801561070657600080fd5b506104d1610715366004614d44565b612d3c565b34801561072657600080fd5b506103e4612dc3565b34801561073b57600080fd5b506104d161074a366004615113565b81516020818401810180516022825292820194820194909420919093529091526000908152604090205481565b34801561078357600080fd5b506104d1610792366004615069565b8051602081830181018051601c8252928201919093012091525481565b3480156107bb57600080fd5b506103b76107ca366004615069565b612df9565b3480156107db57600080fd5b50600b546001600160a01b031661041b565b3480156107f957600080fd5b5061041b610808366004615069565b80516020818301810180516024825292820191909301209152546001600160a01b031681565b34801561083a57600080fd5b506103b7612e1d565b34801561084f57600080fd5b506104d161085e366004615069565b805160208183018101805160218252928201919093012091525481565b34801561088757600080fd5b5061089b6108963660046154d7565b612e2c565b60405161038e919061583a565b3480156108b457600080fd5b506103826108c3366004615113565b8151602081840181018051601b825292820194820194909420919093529091526000908152604090205460ff1681565b3480156108ff57600080fd5b506103e461090e366004614e77565b612eb1565b34801561091f57600080fd5b5061089b61092e366004615069565b612ec0565b6103e4610941366004615427565b612f3a565b34801561095257600080fd5b506103e4610961366004614df8565b613066565b34801561097257600080fd5b506104d1610981366004615069565b805160208183018101805160198252928201919093012091525481565b3480156109aa57600080fd5b5061041b6109b9366004615069565b80516020818301810180516016825292820191909301209152546001600160a01b031681565b3480156109eb57600080fd5b506103b76109fa366004615585565b61309e565b348015610a0b57600080fd5b50610382610a1a366004615069565b805160208183018101805160148252928201919093012091525460ff1681565b348015610a4657600080fd5b506104d1610a55366004615113565b81516020818401810180516023825292820194820194909420919093529091526000908152604090205481565b348015610a8e57600080fd5b506104d1602b5481565b348015610aa457600080fd5b506104d1602c5481565b348015610aba57600080fd5b50610ae9610ac9366004615069565b805160208183018101805160188252928201919093012091525460ff1681565b60405161038e91906158bf565b348015610b0257600080fd5b50610382610b11366004614d7e565b6001600160a01b03918216600090815260056020908152604080832093909416825291909152205460ff1690565b348015610b4b57600080fd5b506103e4610b5a366004614ed1565b6130a9565b348015610b6b57600080fd5b506103e4610b7a366004614d44565b6134ba565b348015610b8b57600080fd5b50610382610b9a366004615113565b8151602081840181018051602a825292820194820194909420919093529091526000908152604090205460ff1681565b348015610bd657600080fd5b50610bea610be5366004614d44565b613555565b60405161038e92919061589a565b6000610c0382613821565b92915050565b60136020526000908152604090208054610c2290615b97565b80601f0160208091040260200160405190810160405280929190818152602001828054610c4e90615b97565b8015610c9b5780601f10610c7057610100808354040283529160200191610c9b565b820191906000526020600020905b815481529060010190602001808311610c7e57829003601f168201915b505050505081565b600b546001600160a01b03163314610cd65760405162461bcd60e51b8152600401610ccd90615a04565b60405180910390fd5b601280546001600160a01b0319166001600160a01b0392909216919091179055565b606060008054610d0790615b97565b80601f0160208091040260200160405190810160405280929190818152602001828054610d3390615b97565b8015610d805780601f10610d5557610100808354040283529160200191610d80565b820191906000526020600020905b815481529060010190602001808311610d6357829003601f168201915b5050505050905090565b6000610d9582613846565b610df65760405162461bcd60e51b815260206004820152602c60248201527f4552433732313a20617070726f76656420717565727920666f72206e6f6e657860448201526b34b9ba32b73a103a37b5b2b760a11b6064820152608401610ccd565b506000908152600460205260409020546001600160a01b031690565b6000610e1d82612a70565b9050806001600160a01b0316836001600160a01b03161415610e8b5760405162461bcd60e51b815260206004820152602160248201527f4552433732313a20617070726f76616c20746f2063757272656e74206f776e656044820152603960f91b6064820152608401610ccd565b336001600160a01b0382161480610ea75750610ea78133610b11565b610f195760405162461bcd60e51b815260206004820152603860248201527f4552433732313a20617070726f76652063616c6c6572206973206e6f74206f7760448201527f6e6572206e6f7220617070726f76656420666f7220616c6c00000000000000006064820152608401610ccd565b610f238383613863565b505050565b6060601487604051610f3a9190615660565b9081526040519081900360200190205460ff1615610f8b5760405162461bcd60e51b815260206004820152600e60248201526d185b1c9958591e481b5a5b9d195960921b6044820152606401610ccd565b6000610f9d88888888888860016138d1565b5090506001601889604051610fb29190615660565b9081526040519081900360200190205460ff166003811115610fd657610fd6615c2d565b141561108057601988604051610fec9190615660565b90815260200160405180910390205483111561103f5760405162461bcd60e51b8152602060048201526012602482015271696e73756666696369656e7420766f74657360701b6044820152606401610ccd565b60036018896040516110519190615660565b908152604051908190036020019020805460ff1916600183600381111561107a5761107a615c2d565b02179055505b60036018896040516110929190615660565b9081526040519081900360200190205460ff1660038111156110b6576110b6615c2d565b146110f95760405162461bcd60e51b81526020600482015260136024820152721cdd185d1d5cc81b9bdd08185c1c1c9bdd9959606a1b6044820152606401610ccd565b6010546040516060916001600160a01b0316907f8b11cf8a4537c8abe6ddef215a5ad5cfd6c0d5f42e1e6c507a1e8f4d7e79ad5c9060179061113c908d90615660565b9081526040519081900360200181206111579160240161592d565b60408051601f198184030181529181526020820180516001600160e01b03166001600160e01b03199094169390931790925290516111959190615660565b6000604051808303816000865af19150503d80600081146111d2576040519150601f19603f3d011682016040523d82523d6000602084013e6111d7565b606091505b509092509050816111e757600080fd5b6000818060200190518101906111fd919061509d565b6011546040519192506001600160a01b0316907f65a35964691f73fd1604104300b719081f6abd939cb2fc62b713db949a3b2409906112409084906024016158e7565b60408051601f198184030181529181526020820180516001600160e01b03166001600160e01b031990941693909317909252905161127e9190615660565b6000604051808303816000865af19150503d80600081146112bb576040519150601f19603f3d011682016040523d82523d6000602084013e6112c0565b606091505b509093509150826112d057600080fd5b600060158b6040516112e29190615660565b908152604051908190036020019020546001600160401b0381111561130957611309615c6f565b604051908082528060200260200182016040528015611332578160200160208202803683370190505b5090506000805b60158d6040516113499190615660565b908152604051908190036020019020548110156114745761136e600c80546001019055565b600c5491506113c060158e6040516113869190615660565b908152602001604051809103902082815481106113a5576113a5615c59565b6000918252602090912001546001600160a01b031683613a86565b6113ca828f613bc5565b8b6040516113d89190615660565b60405180910390208e6040516113ee9190615660565b604051809103902060158f6040516114069190615660565b9081526020016040518091039020838154811061142557611425615c59565b60009182526020822001546040516001600160a01b03909116917fb1df09f7ba6c7da56f4dc0278f9fe78f4577bd6299ea8c339c7f5c3c02b6490791a48061146c81615bd2565b915050611339565b50600160148d6040516114879190615660565b908152604051908190036020019020805491151560ff19909216919091179055509350505050979650505050505050565b600b546001600160a01b031633146114e25760405162461bcd60e51b8152600401610ccd90615a04565b601180546001600160a01b0319166001600160a01b0392909216919091179055565b6000831561171b57881561160457602a8a6040516115229190615660565b908152602001604051809103902060006115393390565b6001600160a01b0316815260208101919091526040016000205460ff161561156057600080fd5b60208a6040516115709190615660565b90815260200160405180910390205460218b60405161158f9190615660565b908152602001604051809103902054106115a857600080fd5b60208a6040516115b89190615660565b908152602001604051809103902054601c8b6040516115d79190615660565b9081526020016040518091039020546115f09190615b21565b9050600081116115ff57600080fd5b61171b565b60298a6040516116149190615660565b90815260408051602092819003830190206001600160a01b038b16600090815290835281812033825290925290205460ff161561165057600080fd5b60208a6040516116609190615660565b90815260200160405180910390205460228b60405161167f9190615660565b90815260408051602092819003830190206001600160a01b038c1660009081529252902054106116ae57600080fd5b60208a6040516116be9190615660565b908152602001604051809103902054601d8b6040516116dd9190615660565b90815260408051602092819003830190206001600160a01b038c166000908152925290205461170c9190615b21565b90506000811161171b57600080fd5b611729338b848a8a8a613c50565b50831561193b57881561181657604051600090339083908381818185875af1925050503d8060008114611778576040519150601f19603f3d011682016040523d82523d6000602084013e61177d565b606091505b505090508061178b57600080fd5b6001602a8c60405161179d9190615660565b908152602001604051809103902060006117b43390565b6001600160a01b0316815260208101919091526040908101600020805460ff191692151592909217909155516021906117ee908d90615660565b908152604051908190036020019020805490600061180b83615bd2565b91905055505061193b565b6001600160a01b03881663a9059cbb336040516001600160e01b031960e084901b1681526001600160a01b03909116600482015260248101849052604401602060405180830381600087803b15801561186e57600080fd5b505af1158015611882573d6000803e3d6000fd5b505050506040513d601f19601f820116820180604052508101906118a69190615012565b50600160298b6040516118b99190615660565b90815260408051602092819003830181206001600160a01b038d1660009081529084528281203382529093529120805460ff191692151592909217909155602290611905908c90615660565b90815260408051602092819003830190206001600160a01b038b1660009081529252812080549161193583615bd2565b91905055505b611947338b8585613eb0565b50505050505050505050565b60606027836040516119659190615660565b908152604080519182900360209081018320600086815290825282902080548083028501830190935282845291908301828280156119c257602002820191906000526020600020905b8154815260200190600101908083116119ae575b5050505050905092915050565b60016020866040516119e19190615660565b9081526020016040518091039020546119fa9190615b54565b8411611a485760405162461bcd60e51b815260206004820152601960248201527f42616467654e4654203a20696e76616c6964206e756d626572000000000000006044820152606401610ccd565b611a56338686868686613c50565b5083602086604051611a689190615660565b908152604051908190036020019020555050505050565b611a893382614051565b611aa55760405162461bcd60e51b8152600401610ccd90615a39565b610f2383838361413b565b6000611abb83612d3c565b8210611b1d5760405162461bcd60e51b815260206004820152602b60248201527f455243373231456e756d657261626c653a206f776e657220696e646578206f7560448201526a74206f6620626f756e647360a81b6064820152608401610ccd565b506001600160a01b03919091166000908152600760209081526040808320938352929052205490565b610f2383838360405180602001604052806000815250613066565b60606000611b6e83612d3c565b90506000816001600160401b03811115611b8a57611b8a615c6f565b604051908082528060200260200182016040528015611bb3578160200160208202803683370190505b50905060005b82811015611bfa57611bcb8582611ab0565b828281518110611bdd57611bdd615c59565b602090810291909101015280611bf281615bd2565b915050611bb9565b509392505050565b6002601884604051611c149190615660565b9081526040519081900360200190205460ff166003811115611c3857611c38615c2d565b14611c7e5760405162461bcd60e51b8152602060048201526016602482015275696e636f72726563742062616467652073746174757360501b6044820152606401610ccd565b60105460405160009182916001600160a01b03909116907f8b11cf8a4537c8abe6ddef215a5ad5cfd6c0d5f42e1e6c507a1e8f4d7e79ad5c90601790611cc5908990615660565b908152604051908190036020018120611ce09160240161592d565b60408051601f198184030181529181526020820180516001600160e01b03166001600160e01b0319909416939093179092529051611d1e9190615660565b6000604051808303816000865af19150503d8060008114611d5b576040519150601f19603f3d011682016040523d82523d6000602084013e611d60565b606091505b509150915081611d6f57600080fd5b600081806020019051810190611d85919061509d565b600f546040519192506001600160a01b0316907f0d58dd088cbe688b8c61e8f36a658aa45125fbcff8c7e7af836d3925770f01bc90611dc89084906024016158e7565b60408051601f198184030181529181526020820180516001600160e01b03166001600160e01b0319909416939093179092529051611e069190615660565b6000604051808303816000865af19150503d8060008114611e43576040519150601f19603f3d011682016040523d82523d6000602084013e611e48565b606091505b50909350915082611e5857600080fd5b600082806020019051810190611e6e9190614d61565b90506001600160a01b038116611e8357600080fd5b8515611fa957601e87604051611e999190615660565b9081526040519081900360200190205460ff1615611ef95760405162461bcd60e51b815260206004820152601d60248201527f6e61746976652072657761726420616c726561647920636c61696d65640000006044820152606401610ccd565b806001600160a01b0316601c88604051611f139190615660565b9081526040519081900360200181205490600081818185875af1925050503d8060008114611f5d576040519150601f19603f3d011682016040523d82523d6000602084013e611f62565b606091505b50508094505083611f7257600080fd5b6001601e88604051611f849190615660565b908152604051908190036020019020805491151560ff1990921691909117905561213e565b601f87604051611fb99190615660565b90815260408051602092819003830190206001600160a01b0388166000908152925290205460ff161561202e5760405162461bcd60e51b815260206004820152601c60248201527f65726332302072657761726420616c726561647920636c61696d6564000000006044820152606401610ccd565b846001600160a01b031663a9059cbb82601d8a60405161204e9190615660565b9081526040805191829003602090810183206001600160a01b038c166000908152915220546001600160e01b031960e085901b1682526120a592916004016001600160a01b03929092168252602082015260400190565b602060405180830381600087803b1580156120bf57600080fd5b505af11580156120d3573d6000803e3d6000fd5b505050506040513d601f19601f820116820180604052508101906120f79190615012565b506001601f8860405161210a9190615660565b90815260408051602092819003830190206001600160a01b038916600090815292529020805460ff19169115159190911790555b50505050505050565b600061215260095490565b82106121b55760405162461bcd60e51b815260206004820152602c60248201527f455243373231456e756d657261626c653a20676c6f62616c20696e646578206f60448201526b7574206f6620626f756e647360a01b6064820152608401610ccd565b600982815481106121c8576121c8615c59565b90600052602060002001549050919050565b60016018856040516121ec9190615660565b9081526040519081900360200190205460ff16600381111561221057612210615c2d565b148061224f575060036018856040516122299190615660565b9081526040519081900360200190205460ff16600381111561224d5761224d615c2d565b145b61229b5760405162461bcd60e51b815260206004820152601a60248201527f6261646765206e6f742070656e64696e672f617070726f7665640000000000006044820152606401610ccd565b60006020856040516122ad9190615660565b908152602001604051809103902054116122f65760405162461bcd60e51b815260206004820152600a6024820152696e6f207265776172647360b01b6044820152606401610ccd565b600f5460408051600481526024810182526020810180516001600160e01b0316631c3b702f60e11b179052905160009283926001600160a01b039091169161233e9190615660565b6000604051808303816000865af19150503d806000811461237b576040519150601f19603f3d011682016040523d82523d6000602084013e612380565b606091505b50915091508161238f57600080fd5b6000818060200190518101906123a59190614d61565b90506000612710602b54866123ba9190615b35565b6123c49190615b21565b90506000612710602c54876123d99190615b35565b6123e39190615b21565b905086156125e757806123f68388615b09565b6124009190615b09565b3410156124445760405162461bcd60e51b8152602060048201526012602482015271696e73756666696369656e742066756e647360701b6044820152606401610ccd565b6040516001600160a01b038416908390600081818185875af1925050503d806000811461248d576040519150601f19603f3d011682016040523d82523d6000602084013e612492565b606091505b505080955050846124a257600080fd5b6016896040516124b29190615660565b908152604051908190036020018120546001600160a01b031690829060006040518083038185875af1925050503d806000811461250b576040519150601f19603f3d011682016040523d82523d6000602084013e612510565b606091505b5050809550508461252057600080fd5b85601c8a6040516125319190615660565b9081526020016040518091039020600082825461254e9190615b09565b9091555081905061255f8388615b09565b6125699190615b09565b3411156125e25733818361257d8934615b54565b6125879190615b54565b6125919190615b54565b604051600081818185875af1925050503d80600081146125cd576040519150601f19603f3d011682016040523d82523d6000602084013e6125d2565b606091505b505080955050846125e257600080fd5b612a65565b6001600160a01b0388166125fa57600080fd5b6010546040516001600160a01b03909116907f8b11cf8a4537c8abe6ddef215a5ad5cfd6c0d5f42e1e6c507a1e8f4d7e79ad5c9060179061263c908d90615660565b9081526040519081900360200181206126579160240161592d565b60408051601f198184030181529181526020820180516001600160e01b03166001600160e01b03199094169390931790925290516126959190615660565b6000604051808303816000865af19150503d80600081146126d2576040519150601f19603f3d011682016040523d82523d6000602084013e6126d7565b606091505b509095509350846126e757600080fd5b6000848060200190518101906126fd919061509d565b6011546040519192506001600160a01b0316907f11f69039648f0dd87bd7c96fa7501d8c9b90ae27f5d68bb2f9adfc6ae113637a9061274490849046908e906024016158fa565b60408051601f198184030181529181526020820180516001600160e01b03166001600160e01b03199094169390931790925290516127829190615660565b6000604051808303816000865af19150503d80600081146127bf576040519150601f19603f3d011682016040523d82523d6000602084013e6127c4565b606091505b509096509450856127d457600080fd5b848060200190518101906127e89190615012565b9550856128265760405162461bcd60e51b815260206004820152600c60248201526b1b9bdd08185c1c1c9bdd995960a21b6044820152606401610ccd565b6001600160a01b0389166323b872dd336040516001600160e01b031960e084901b1681526001600160a01b039182166004820152908716602482015260448101869052606401602060405180830381600087803b15801561288657600080fd5b505af115801561289a573d6000803e3d6000fd5b505050506040513d601f19601f820116820180604052508101906128be9190615012565b506001600160a01b0389166323b872dd33306128da868c615b09565b6040516001600160e01b031960e086901b1681526001600160a01b0393841660048201529290911660248301526044820152606401602060405180830381600087803b15801561292957600080fd5b505af115801561293d573d6000803e3d6000fd5b505050506040513d601f19601f820116820180604052508101906129619190615012565b50886001600160a01b031663a9059cbb60168c6040516129819190615660565b908152604051908190036020018120546001600160e01b031960e084901b1682526001600160a01b0316600482015260248101859052604401602060405180830381600087803b1580156129d457600080fd5b505af11580156129e8573d6000803e3d6000fd5b505050506040513d601f19601f82011682018060405250810190612a0c9190615012565b5086601d8b604051612a1e9190615660565b908152602001604051809103902060008b6001600160a01b03166001600160a01b031681526020019081526020016000206000828254612a5e9190615b09565b9091555050505b505050505050505050565b6000818152600260205260408120546001600160a01b031680610c035760405162461bcd60e51b815260206004820152602960248201527f4552433732313a206f776e657220717565727920666f72206e6f6e657869737460448201526832b73a103a37b5b2b760b91b6064820152608401610ccd565b6001601887604051612af99190615660565b9081526040519081900360200190205460ff166003811115612b1d57612b1d615c2d565b14612b2757600080fd5b601b86604051612b379190615660565b90815260200160405180910390206000612b4e3390565b6001600160a01b0316815260208101919091526040016000205460ff1615612b7557600080fd5b84604051602001612b869190615660565b60405160208183030381529060405280519060200120601787604051612bac9190615660565b9081526020016040518091039020604051602001612bca91906156e7565b6040516020818303038152906040528051906020012014612c235760405162461bcd60e51b81526020600482015260136024820152721a5b98dbdc9c9958dd081c185d1a1dd85e5259606a1b6044820152606401610ccd565b600080612c3688888888888860006138d1565b91509150601a88604051612c4a9190615660565b9081526040519081900360200190208054906000612c6783615bd2565b91905055506001601b89604051612c7e9190615660565b90815260200160405180910390206000612c953390565b6001600160a01b03166001600160a01b0316815260200190815260200160002060006101000a81548160ff02191690831515021790555082601a89604051612cdd9190615660565b90815260200160405180910390205410612d32576002601889604051612d039190615660565b908152604051908190036020019020805460ff19166001836003811115612d2c57612d2c615c2d565b02179055505b5050505050505050565b60006001600160a01b038216612da75760405162461bcd60e51b815260206004820152602a60248201527f4552433732313a2062616c616e636520717565727920666f7220746865207a65604482015269726f206164647265737360b01b6064820152608401610ccd565b506001600160a01b031660009081526003602052604090205490565b600b546001600160a01b03163314612ded5760405162461bcd60e51b8152600401610ccd90615a04565b612df760006142e2565b565b805160208183018101805160178252928201919093012091528054610c2290615b97565b606060018054610d0790615b97565b6060602683604051612e3e9190615660565b908152604080519182900360209081018320600086815290825282902080548083028501830190935282845291908301828280156119c257602002820191906000526020600020905b81546001600160a01b03168152600190910190602001808311612e87575050505050905092915050565b612ebc338383614334565b5050565b6060601582604051612ed29190615660565b9081526040805191829003602090810183208054808302850183019093528284529190830182828015612f2e57602002820191906000526020600020905b81546001600160a01b03168152600190910190602001808311612f10575b50505050509050919050565b6000601888604051612f4c9190615660565b9081526040519081900360200190205460ff166003811115612f7057612f70615c2d565b14612f7a57600080fd5b6001601888604051612f8c9190615660565b908152604051908190036020019020805460ff19166001836003811115612fb557612fb5615c2d565b021790555085601788604051612fcb9190615660565b90815260200160405180910390209080519060200190612fec929190614b2a565b5084602088604051612ffe9190615660565b908152604051908190036020019020556130153390565b6016886040516130259190615660565b90815260405190819003602001902080546001600160a01b03929092166001600160a01b0319909216919091179055831561213e5761213e878484846121da565b6130703383614051565b61308c5760405162461bcd60e51b8152600401610ccd90615a39565b61309884848484614403565b50505050565b6060610c0382614436565b60016018876040516130bb9190615660565b9081526040519081900360200190205460ff1660038111156130df576130df615c2d565b146131215760405162461bcd60e51b8152602060048201526012602482015271737461747573206e6f742070656e64696e6760701b6044820152606401610ccd565b601b866040516131319190615660565b908152602001604051809103902060006131483390565b6001600160a01b0316815260208101919091526040016000205460ff16156131b25760405162461bcd60e51b815260206004820152601c60248201527f616c726561647920766f74656420666f722074686973206261646765000000006044820152606401610ccd565b846040516020016131c39190615660565b604051602081830303815290604052805190602001206017876040516131e99190615660565b908152602001604051809103902060405160200161320791906156e7565b60405160208183030381529060405280519060200120146132605760405162461bcd60e51b81526020600482015260136024820152721a5b98dbdc9c9958dd081c185d1a1dd85e5259606a1b6044820152606401610ccd565b60008061327388888888888860006138d1565b915091506019886040516132879190615660565b90815260405190819003602001902080549060006132a483615bd2565b91905055506001601b896040516132bb9190615660565b908152602001604051809103902060006132d23390565b6001600160a01b0316815260208101919091526040908101600020805460ff1916921515929092179091555160199061330c908a90615660565b9081526020016040518091039020546001141561340c57600089511161333157600080fd5b886015896040516133429190615660565b90815260200160405180910390209080519060200190613363929190614bae565b506019886040516133749190615660565b90815260200160405180910390205483116125e257600360188960405161339b9190615660565b908152604051908190036020019020805460ff191660018360038111156133c4576133c4615c2d565b0217905550876040516133d79190615660565b604051908190038120907fcb7144701e8d0b3465bbe141996dd943a0458bba214e98eac12ba128ffe44c0890600090a2612a65565b8260198960405161341d9190615660565b90815260200160405180910390205410612a655760036018896040516134439190615660565b908152604051908190036020019020805460ff1916600183600381111561346c5761346c615c2d565b02179055508760405161347f9190615660565b604051908190038120907fcb7144701e8d0b3465bbe141996dd943a0458bba214e98eac12ba128ffe44c0890600090a2505050505050505050565b600b546001600160a01b031633146134e45760405162461bcd60e51b8152600401610ccd90615a04565b6001600160a01b0381166135495760405162461bcd60e51b815260206004820152602660248201527f4f776e61626c653a206e6577206f776e657220697320746865207a65726f206160448201526564647265737360d01b6064820152608401610ccd565b613552816142e2565b50565b606080600061356384612d3c565b6040805160208101909152600080825291925090826001600160401b0381111561358f5761358f615c6f565b6040519080825280602002602001820160405280156135b8578160200160208202803683370190505b509050826135c7578094508193505b60005b6135d5600185615b54565b811015613702576000602860006135ec8a85611ab0565b815260200190815260200160002060405180604001604052908160008201805461361590615b97565b80601f016020809104026020016040519081016040528092919081815260200182805461364190615b97565b801561368e5780601f106136635761010080835404028352916020019161368e565b820191906000526020600020905b81548152906001019060200180831161367157829003601f168201915b50505050508152602001600182015481525050905080602001518383815181106136ba576136ba615c59565b6020026020010181815250508381600001516040516020016136dd9291906156ab565b604051602081830303815290604052935081806136f990615bd2565b925050506135ca565b6000602860006137128a85611ab0565b815260200190815260200160002060405180604001604052908160008201805461373b90615b97565b80601f016020809104026020016040519081016040528092919081815260200182805461376790615b97565b80156137b45780601f10613789576101008083540402835291602001916137b4565b820191906000526020600020905b81548152906001019060200180831161379757829003601f168201915b50505050508152602001600182015481525050905080602001518383815181106137e0576137e0615c59565b60200260200101818152505083816000015160405160200161380392919061567c565b60405160208183030381529060405295508296505050505050915091565b60006001600160e01b0319821663780e9d6360e01b1480610c035750610c03826145a5565b6000908152600260205260409020546001600160a01b0316151590565b600081815260046020526040902080546001600160a01b0319166001600160a01b038416908117909155819061389882612a70565b6001600160a01b03167f8c5be1e5ebec7d5bd14f71427d1e84f3dd0314c0f7b2291e5b200ac8c7c3b92560405160405180910390a45050565b600e5460009081906001600160a01b03166312065106338b8b8b600060200201518b600060200201518b600060200201516040518763ffffffff1660e01b815260040161392396959493929190615796565b602060405180830381600087803b15801561393d57600080fd5b505af1158015613951573d6000803e3d6000fd5b505050506040513d601f19601f820116820180604052508101906139759190615012565b91508161398157600080fd5b8280156139c25750600160188a60405161399b9190615660565b9081526040519081900360200190205460ff1660038111156139bf576139bf615c2d565b14155b156139cf57506001613a7a565b600e546001600160a01b031663466cc53e338b878b600160200201518b600160200201518b600160200201516040518763ffffffff1660e01b8152600401613a1c969594939291906157ee565b602060405180830381600087803b158015613a3657600080fd5b505af1158015613a4a573d6000803e3d6000fd5b505050506040513d601f19601f82011682018060405250810190613a6e9190615012565b905080613a7a57600080fd5b97509795505050505050565b6001600160a01b038216613adc5760405162461bcd60e51b815260206004820181905260248201527f4552433732313a206d696e7420746f20746865207a65726f20616464726573736044820152606401610ccd565b613ae581613846565b15613b325760405162461bcd60e51b815260206004820152601c60248201527f4552433732313a20746f6b656e20616c7265616479206d696e746564000000006044820152606401610ccd565b613b3e600083836145f5565b6001600160a01b0382166000908152600360205260408120805460019290613b67908490615b09565b909155505060008181526002602052604080822080546001600160a01b0319166001600160a01b03861690811790915590518392907fddf252ad1be2c89b69c2b068fc378daa952ba7f163c4a11628f55a4df523b3ef908290a45050565b613bce82613846565b613c315760405162461bcd60e51b815260206004820152602e60248201527f45524337323155524953746f726167653a2055524920736574206f66206e6f6e60448201526d32bc34b9ba32b73a103a37b5b2b760911b6064820152608401610ccd565b60008281526006602090815260409091208251610f2392840190614b2a565b60008087304660238a604051613c669190615660565b90815260408051602092819003830181206001600160a01b038f1660009081529084529190912054613ca19594939290918c918e9101615605565b60408051601f1981840301815282825280516020918201206011546004855260248501845291840180516001600160e01b031663a5207df560e01b179052915191935060009283926001600160a01b0390921691613cff9190615660565b6000604051808303816000865af19150503d8060008114613d3c576040519150601f19603f3d011682016040523d82523d6000602084013e613d41565b606091505b509150915081613d5057600080fd5b600081806020019051810190613d669190614d61565b6040517f19457468657265756d205369676e6564204d6573736167653a0a3332000000006020820152603c8101869052909150600190605c0160408051601f198184030181528282528051602091820120600084529083018083525260ff891690820152606081018a90526080810189905260a0016020604051602081039080840390855afa158015613dfd573d6000803e3d6000fd5b505050602060405103516001600160a01b0316816001600160a01b031614613e5a5760405162461bcd60e51b815260206004820152601060248201526f24b731b7b93932b1ba1039b4b3b732b960811b6044820152606401610ccd565b60238a604051613e6a9190615660565b90815260408051602092819003830190206001600160a01b038e16600090815292528120805491613e9a83615bd2565b9091555060019c9b505050505050505050505050565b602583604051613ec09190615660565b908152604080516020928190038301902060008481529083528181206001600160a01b038816825290925290205460ff1615613efb57613098565b6000613f0b600c80546001019055565b50600c54613f193382613a86565b613f238184613bc5565b6040805180820182528581526020808201859052600084815260288252929092208151805192938493613f599284920190614b2a565b5060208201518160010155905050602685604051613f779190615660565b9081526040805191829003602090810183206000878152908252918220805460018101825590835291200180546001600160a01b0389166001600160a01b0319909116179055602790613fcb908790615660565b908152604080519182900360209081018320600087815290825291822080546001818101835591845291909220018490559060259061400b908890615660565b9081526040805160209281900383019020600096875282528086206001600160a01b0399909916865297905295909220805460ff19169515159590951790945550505050565b600061405c82613846565b6140bd5760405162461bcd60e51b815260206004820152602c60248201527f4552433732313a206f70657261746f7220717565727920666f72206e6f6e657860448201526b34b9ba32b73a103a37b5b2b760a11b6064820152608401610ccd565b60006140c883612a70565b9050806001600160a01b0316846001600160a01b0316148061410f57506001600160a01b0380821660009081526005602090815260408083209388168352929052205460ff165b806141335750836001600160a01b031661412884610d8a565b6001600160a01b0316145b949350505050565b826001600160a01b031661414e82612a70565b6001600160a01b0316146141b25760405162461bcd60e51b815260206004820152602560248201527f4552433732313a207472616e736665722066726f6d20696e636f72726563742060448201526437bbb732b960d91b6064820152608401610ccd565b6001600160a01b0382166142145760405162461bcd60e51b8152602060048201526024808201527f4552433732313a207472616e7366657220746f20746865207a65726f206164646044820152637265737360e01b6064820152608401610ccd565b61421f8383836145f5565b61422a600082613863565b6001600160a01b0383166000908152600360205260408120805460019290614253908490615b54565b90915550506001600160a01b0382166000908152600360205260408120805460019290614281908490615b09565b909155505060008181526002602052604080822080546001600160a01b0319166001600160a01b0386811691821790925591518493918716917fddf252ad1be2c89b69c2b068fc378daa952ba7f163c4a11628f55a4df523b3ef91a4505050565b600b80546001600160a01b038381166001600160a01b0319831681179093556040519116919082907f8be0079c531659141344cd1fd0a4f28419497f9722a3daafe3b4186f6b6457e090600090a35050565b816001600160a01b0316836001600160a01b031614156143965760405162461bcd60e51b815260206004820152601960248201527f4552433732313a20617070726f766520746f2063616c6c6572000000000000006044820152606401610ccd565b6001600160a01b03838116600081815260056020908152604080832094871680845294825291829020805460ff191686151590811790915591519182527f17307eab39ab6107e8899845ad3d59bd9653f200f220920489ca2b5937696c31910160405180910390a3505050565b61440e84848461413b565b61441a84848484614600565b6130985760405162461bcd60e51b8152600401610ccd906159b2565b606061444182613846565b6144a75760405162461bcd60e51b815260206004820152603160248201527f45524337323155524953746f726167653a2055524920717565727920666f72206044820152703737b732bc34b9ba32b73a103a37b5b2b760791b6064820152608401610ccd565b600082815260066020526040812080546144c090615b97565b80601f01602080910402602001604051908101604052809291908181526020018280546144ec90615b97565b80156145395780601f1061450e57610100808354040283529160200191614539565b820191906000526020600020905b81548152906001019060200180831161451c57829003601f168201915b50505050509050600061455760408051602081019091526000815290565b905080516000141561456a575092915050565b81511561459c57808260405160200161458492919061567c565b60405160208183030381529060405292505050919050565b6141338461470d565b60006001600160e01b031982166380ac58cd60e01b14806145d657506001600160e01b03198216635b5e139f60e01b145b80610c0357506301ffc9a760e01b6001600160e01b0319831614610c03565b610f238383836147e5565b60006001600160a01b0384163b1561470257604051630a85bd0160e11b81526001600160a01b0385169063150b7a0290614644903390899088908890600401615759565b602060405180830381600087803b15801561465e57600080fd5b505af192505050801561468e575060408051601f3d908101601f1916820190925261468b9181019061504c565b60015b6146e8573d8080156146bc576040519150601f19603f3d011682016040523d82523d6000602084013e6146c1565b606091505b5080516146e05760405162461bcd60e51b8152600401610ccd906159b2565b805181602001fd5b6001600160e01b031916630a85bd0160e11b149050614133565b506001949350505050565b606061471882613846565b61477c5760405162461bcd60e51b815260206004820152602f60248201527f4552433732314d657461646174613a2055524920717565727920666f72206e6f60448201526e3732bc34b9ba32b73a103a37b5b2b760891b6064820152608401610ccd565b600061479360408051602081019091526000815290565b905060008151116147b357604051806020016040528060008152506147de565b806147bd8461489d565b6040516020016147ce92919061567c565b6040516020818303038152906040525b9392505050565b6001600160a01b0383166148405761483b81600980546000838152600a60205260408120829055600182018355919091527f6e1540171b6c0c960b71a7020d9f60077f6af931a8bbf590da0223dacf75c7af0155565b614863565b816001600160a01b0316836001600160a01b03161461486357614863838261499a565b6001600160a01b03821661487a57610f2381614a37565b826001600160a01b0316826001600160a01b031614610f2357610f238282614ae6565b6060816148c15750506040805180820190915260018152600360fc1b602082015290565b8160005b81156148eb57806148d581615bd2565b91506148e49050600a83615b21565b91506148c5565b6000816001600160401b0381111561490557614905615c6f565b6040519080825280601f01601f19166020018201604052801561492f576020820181803683370190505b5090505b841561413357614944600183615b54565b9150614951600a86615bed565b61495c906030615b09565b60f81b81838151811061497157614971615c59565b60200101906001600160f81b031916908160001a905350614993600a86615b21565b9450614933565b600060016149a784612d3c565b6149b19190615b54565b600083815260086020526040902054909150808214614a04576001600160a01b03841660009081526007602090815260408083208584528252808320548484528184208190558352600890915290208190555b5060009182526008602090815260408084208490556001600160a01b039094168352600781528383209183525290812055565b600954600090614a4990600190615b54565b6000838152600a602052604081205460098054939450909284908110614a7157614a71615c59565b906000526020600020015490508060098381548110614a9257614a92615c59565b6000918252602080832090910192909255828152600a90915260408082208490558582528120556009805480614aca57614aca615c43565b6001900381819060005260206000200160009055905550505050565b6000614af183612d3c565b6001600160a01b039093166000908152600760209081526040808320868452825280832085905593825260089052919091209190915550565b828054614b3690615b97565b90600052602060002090601f016020900481019282614b585760008555614b9e565b82601f10614b7157805160ff1916838001178555614b9e565b82800160010185558215614b9e579182015b82811115614b9e578251825591602001919060010190614b83565b50614baa929150614c03565b5090565b828054828255906000526020600020908101928215614b9e579160200282015b82811115614b9e57825182546001600160a01b0319166001600160a01b03909116178255602090920191600190910190614bce565b5b80821115614baa5760008155600101614c04565b6000614c2b614c2684615ae2565b615ab2565b9050828152838383011115614c3f57600080fd5b828260208301376000602084830101529392505050565b600082601f830112614c6757600080fd5b614c6f615a8a565b808385604086011115614c8157600080fd5b60005b6002811015614ca3578135845260209384019390910190600101614c84565b509095945050505050565b600082601f830112614cbf57600080fd5b614cc7615a8a565b808385604086011115614cd957600080fd5b60005b6002811015614ca357614cee82614d33565b84526020938401939190910190600101614cdc565b8035614d0e81615c9a565b919050565b600082601f830112614d2457600080fd5b6147de83833560208501614c18565b803560ff81168114614d0e57600080fd5b600060208284031215614d5657600080fd5b81356147de81615c85565b600060208284031215614d7357600080fd5b81516147de81615c85565b60008060408385031215614d9157600080fd5b8235614d9c81615c85565b91506020830135614dac81615c85565b809150509250929050565b600080600060608486031215614dcc57600080fd5b8335614dd781615c85565b92506020840135614de781615c85565b929592945050506040919091013590565b60008060008060808587031215614e0e57600080fd5b8435614e1981615c85565b93506020850135614e2981615c85565b92506040850135915060608501356001600160401b03811115614e4b57600080fd5b8501601f81018713614e5c57600080fd5b614e6b87823560208401614c18565b91505092959194509250565b60008060408385031215614e8a57600080fd5b8235614e9581615c85565b91506020830135614dac81615c9a565b60008060408385031215614eb857600080fd5b8235614ec381615c85565b946020939093013593505050565b6000806000806000806000610140888a031215614eed57600080fd5b6001600160401b038089351115614f0357600080fd5b883589018a601f820112614f1657600080fd5b803582811115614f2857614f28615c6f565b8060051b614f3860208201615ab2565b80838252602082019150602085018f6020858801011115614f5857600080fd5b600095505b84861015614f8657614f6f8135615c85565b803583526001959095019460209283019201614f5d565b509b5050505060208a0135905081811115614fa057600080fd5b614fac8b828c01614d13565b975050604089013581811115614fc157600080fd5b614fcd8b828c01614d13565b96505050614fde8960608a01614c56565b9350614fed8960a08a01614c56565b9250614ffc8960e08a01614cae565b9150610120880135905092959891949750929550565b60006020828403121561502457600080fd5b81516147de81615c9a565b60006020828403121561504157600080fd5b81356147de81615ca8565b60006020828403121561505e57600080fd5b81516147de81615ca8565b60006020828403121561507b57600080fd5b81356001600160401b0381111561509157600080fd5b61413384828501614d13565b6000602082840312156150af57600080fd5b81516001600160401b038111156150c557600080fd5b8201601f810184136150d657600080fd5b80516150e4614c2682615ae2565b8181528560208385010111156150f957600080fd5b61510a826020830160208601615b6b565b95945050505050565b6000806040838503121561512657600080fd5b82356001600160401b0381111561513c57600080fd5b61514885828601614d13565b9250506020830135614dac81615c85565b6000806000806080858703121561516f57600080fd5b84356001600160401b0381111561518557600080fd5b61519187828801614d13565b94505060208501356151a281615c85565b925060408501356151b281615c9a565b9396929550929360600135925050565b6000806000606084860312156151d757600080fd5b83356001600160401b038111156151ed57600080fd5b6151f986828701614d13565b935050602084013561520a81615c9a565b9150604084013561521a81615c85565b809150509250925092565b60008060008060008060008060006101208a8c03121561524457600080fd5b89356001600160401b038082111561525b57600080fd5b6152678d838e01614d13565b9a5060208c0135915061527982615c9a565b90985060408b01359061528b82615c85565b81985060608c0135975060808c013596506152a860a08d01614d33565b95506152b660c08d01614d03565b945060e08c01359150808211156152cc57600080fd5b506152d98c828d01614d13565b9250506101008a013590509295985092959850929598565b600080600080600080610120878903121561530b57600080fd5b86356001600160401b038082111561532257600080fd5b61532e8a838b01614d13565b9750602089013591508082111561534457600080fd5b5061535189828a01614d13565b9550506153618860408901614c56565b93506153708860808901614c56565b925061537f8860c08901614cae565b915061010087013590509295509295509295565b6000806000806000806000610140888a0312156153af57600080fd5b87356001600160401b03808211156153c657600080fd5b6153d28b838c01614d13565b985060208a01359150808211156153e857600080fd5b6153f48b838c01614d13565b975060408a013591508082111561540a57600080fd5b506154178a828b01614d13565b955050614fde8960608a01614c56565b600080600080600080600060e0888a03121561544257600080fd5b87356001600160401b038082111561545957600080fd5b6154658b838c01614d13565b985060208a013591508082111561547b57600080fd5b506154888a828b01614d13565b9650506040880135945060608801356154a081615c9a565b935060808801356154b081615c85565b925060a08801356154c081615c9a565b8092505060c0880135905092959891949750929550565b600080604083850312156154ea57600080fd5b82356001600160401b0381111561550057600080fd5b61550c85828601614d13565b95602094909401359450505050565b600080600080600060a0868803121561553357600080fd5b85356001600160401b0381111561554957600080fd5b61555588828901614d13565b95505060208601359350604086013592506060860135915061557960808701614d33565b90509295509295909350565b60006020828403121561559757600080fd5b5035919050565b600081518084526020808501945080840160005b838110156155ce578151875295820195908201906001016155b2565b509495945050505050565b600081518084526155f1816020860160208601615b6b565b601f01601f19169290920160200192915050565b60006bffffffffffffffffffffffff19808960601b168352808860601b16601484015250856028830152846048830152836068830152825161564e816088850160208701615b6b565b91909101608801979650505050505050565b60008251615672818460208701615b6b565b9190910192915050565b6000835161568e818460208801615b6b565b8351908301906156a2818360208801615b6b565b01949350505050565b600083516156bd818460208801615b6b565b8351908301906156d1818360208801615b6b565b615f5f60f01b9101908152600201949350505050565b60008083546156f581615b97565b6001828116801561570d576001811461571e5761574d565b60ff1984168752828701945061574d565b8760005260208060002060005b858110156157445781548a82015290840190820161572b565b50505082870194505b50929695505050505050565b6001600160a01b038581168252841660208201526040810183905260806060820181905260009061578c908301846155d9565b9695505050505050565b6001600160a01b038716815260c0602082018190526000906157ba908301886155d9565b82810360408401526157cc81886155d9565b60608401969096525050608081019290925260ff1660a0909101529392505050565b6001600160a01b038716815260c060208201819052600090615812908301886155d9565b905085604083015284606083015283608083015260ff831660a0830152979650505050505050565b6020808252825182820181905260009190848201906040850190845b8181101561587b5783516001600160a01b031683529284019291840191600101615856565b50909695505050505050565b6020815260006147de602083018461559e565b6040815260006158ad604083018561559e565b828103602084015261510a81856155d9565b60208101600483106158e157634e487b7160e01b600052602160045260246000fd5b91905290565b6020815260006147de60208301846155d9565b60608152600061590d60608301866155d9565b6020830194909452506001600160a01b0391909116604090910152919050565b600060208083526000845461594181615b97565b808487015260406001808416600081146159625760018114615976576159a4565b60ff198516898401526060890195506159a4565b896000528660002060005b8581101561599c5781548b8201860152908301908801615981565b8a0184019650505b509398975050505050505050565b60208082526032908201527f4552433732313a207472616e7366657220746f206e6f6e20455243373231526560408201527131b2b4bb32b91034b6b83632b6b2b73a32b960711b606082015260800190565b6020808252818101527f4f776e61626c653a2063616c6c6572206973206e6f7420746865206f776e6572604082015260600190565b60208082526031908201527f4552433732313a207472616e736665722063616c6c6572206973206e6f74206f6040820152701ddb995c881b9bdc88185c1c1c9bdd9959607a1b606082015260800190565b604080519081016001600160401b0381118282101715615aac57615aac615c6f565b60405290565b604051601f8201601f191681016001600160401b0381118282101715615ada57615ada615c6f565b604052919050565b60006001600160401b03821115615afb57615afb615c6f565b50601f01601f191660200190565b60008219821115615b1c57615b1c615c01565b500190565b600082615b3057615b30615c17565b500490565b6000816000190483118215151615615b4f57615b4f615c01565b500290565b600082821015615b6657615b66615c01565b500390565b60005b83811015615b86578181015183820152602001615b6e565b838111156130985750506000910152565b600181811c90821680615bab57607f821691505b60208210811415615bcc57634e487b7160e01b600052602260045260246000fd5b50919050565b6000600019821415615be657615be6615c01565b5060010190565b600082615bfc57615bfc615c17565b500690565b634e487b7160e01b600052601160045260246000fd5b634e487b7160e01b600052601260045260246000fd5b634e487b7160e01b600052602160045260246000fd5b634e487b7160e01b600052603160045260246000fd5b634e487b7160e01b600052603260045260246000fd5b634e487b7160e01b600052604160045260246000fd5b6001600160a01b038116811461355257600080fd5b801515811461355257600080fd5b6001600160e01b03198116811461355257600080fdfea264697066735822122053c30c6dcfe988f914138061a65b455e6849dc53f917fa88f8f20804f501d43064736f6c63430008070033",
  "devdoc": {
    "kind": "dev",
    "methods": {
      "approve(address,uint256)": {
        "details": "See {IERC721-approve}."
      },
      "balanceOf(address)": {
        "details": "See {IERC721-balanceOf}."
      },
      "getApproved(uint256)": {
        "details": "See {IERC721-getApproved}."
      },
      "isApprovedForAll(address,address)": {
        "details": "See {IERC721-isApprovedForAll}."
      },
      "name()": {
        "details": "See {IERC721Metadata-name}."
      },
      "owner()": {
        "details": "Returns the address of the current owner."
      },
      "ownerOf(uint256)": {
        "details": "See {IERC721-ownerOf}."
      },
      "renounceOwnership()": {
        "details": "Leaves the contract without owner. It will not be possible to call `onlyOwner` functions anymore. Can only be called by the current owner. NOTE: Renouncing ownership will leave the contract without an owner, thereby removing any functionality that is only available to the owner."
      },
      "safeTransferFrom(address,address,uint256)": {
        "details": "See {IERC721-safeTransferFrom}."
      },
      "safeTransferFrom(address,address,uint256,bytes)": {
        "details": "See {IERC721-safeTransferFrom}."
      },
      "setApprovalForAll(address,bool)": {
        "details": "See {IERC721-setApprovalForAll}."
      },
      "symbol()": {
        "details": "See {IERC721Metadata-symbol}."
      },
      "tokenByIndex(uint256)": {
        "details": "See {IERC721Enumerable-tokenByIndex}."
      },
      "tokenOfOwnerByIndex(address,uint256)": {
        "details": "See {IERC721Enumerable-tokenOfOwnerByIndex}."
      },
      "totalSupply()": {
        "details": "See {IERC721Enumerable-totalSupply}."
      },
      "transferFrom(address,address,uint256)": {
        "details": "See {IERC721-transferFrom}."
      },
      "transferOwnership(address)": {
        "details": "Transfers ownership of the contract to a new account (`newOwner`). Can only be called by the current owner."
      }
    },
    "version": 1
  },
  "userdoc": {
    "kind": "user",
    "methods": {},
    "version": 1
  },
  "storageLayout": {
    "storage": [
      {
        "astId": 2361,
        "contract": "contracts/BadgeNFT.sol:BadgeNFT",
        "label": "_name",
        "offset": 0,
        "slot": "0",
        "type": "t_string_storage"
      },
      {
        "astId": 2363,
        "contract": "contracts/BadgeNFT.sol:BadgeNFT",
        "label": "_symbol",
        "offset": 0,
        "slot": "1",
        "type": "t_string_storage"
      },
      {
        "astId": 2367,
        "contract": "contracts/BadgeNFT.sol:BadgeNFT",
        "label": "_owners",
        "offset": 0,
        "slot": "2",
        "type": "t_mapping(t_uint256,t_address)"
      },
      {
        "astId": 2371,
        "contract": "contracts/BadgeNFT.sol:BadgeNFT",
        "label": "_balances",
        "offset": 0,
        "slot": "3",
        "type": "t_mapping(t_address,t_uint256)"
      },
      {
        "astId": 2375,
        "contract": "contracts/BadgeNFT.sol:BadgeNFT",
        "label": "_tokenApprovals",
        "offset": 0,
        "slot": "4",
        "type": "t_mapping(t_uint256,t_address)"
      },
      {
        "astId": 2381,
        "contract": "contracts/BadgeNFT.sol:BadgeNFT",
        "label": "_operatorApprovals",
        "offset": 0,
        "slot": "5",
        "type": "t_mapping(t_address,t_mapping(t_address,t_bool))"
      },
      {
        "astId": 3686,
        "contract": "contracts/BadgeNFT.sol:BadgeNFT",
        "label": "_tokenURIs",
        "offset": 0,
        "slot": "6",
        "type": "t_mapping(t_uint256,t_string_storage)"
      },
      {
        "astId": 3350,
        "contract": "contracts/BadgeNFT.sol:BadgeNFT",
        "label": "_ownedTokens",
        "offset": 0,
        "slot": "7",
        "type": "t_mapping(t_address,t_mapping(t_uint256,t_uint256))"
      },
      {
        "astId": 3354,
        "contract": "contracts/BadgeNFT.sol:BadgeNFT",
        "label": "_ownedTokensIndex",
        "offset": 0,
        "slot": "8",
        "type": "t_mapping(t_uint256,t_uint256)"
      },
      {
        "astId": 3357,
        "contract": "contracts/BadgeNFT.sol:BadgeNFT",
        "label": "_allTokens",
        "offset": 0,
        "slot": "9",
        "type": "t_array(t_uint256)dyn_storage"
      },
      {
        "astId": 3361,
        "contract": "contracts/BadgeNFT.sol:BadgeNFT",
        "label": "_allTokensIndex",
        "offset": 0,
        "slot": "10",
        "type": "t_mapping(t_uint256,t_uint256)"
      },
      {
        "astId": 273,
        "contract": "contracts/BadgeNFT.sol:BadgeNFT",
        "label": "_owner",
        "offset": 0,
        "slot": "11",
        "type": "t_address"
      },
      {
        "astId": 5656,
        "contract": "contracts/BadgeNFT.sol:BadgeNFT",
        "label": "_tokenIds",
        "offset": 0,
        "slot": "12",
        "type": "t_struct(Counter)4182_storage"
      },
      {
        "astId": 5659,
        "contract": "contracts/BadgeNFT.sol:BadgeNFT",
        "label": "vrfContract",
        "offset": 0,
        "slot": "13",
        "type": "t_contract(RandomNumberConsumer)12098"
      },
      {
        "astId": 5662,
        "contract": "contracts/BadgeNFT.sol:BadgeNFT",
        "label": "verifyContract",
        "offset": 0,
        "slot": "14",
        "type": "t_contract(Verify)12759"
      },
      {
        "astId": 5664,
        "contract": "contracts/BadgeNFT.sol:BadgeNFT",
        "label": "projectNFTAddress",
        "offset": 0,
        "slot": "15",
        "type": "t_address"
      },
      {
        "astId": 5666,
        "contract": "contracts/BadgeNFT.sol:BadgeNFT",
        "label": "pathwayNFTAddress",
        "offset": 0,
        "slot": "16",
        "type": "t_address"
      },
      {
        "astId": 5668,
        "contract": "contracts/BadgeNFT.sol:BadgeNFT",
        "label": "appDiamond",
        "offset": 0,
        "slot": "17",
        "type": "t_address"
      },
      {
        "astId": 5670,
        "contract": "contracts/BadgeNFT.sol:BadgeNFT",
        "label": "adventureFactory",
        "offset": 0,
        "slot": "18",
        "type": "t_address"
      },
      {
        "astId": 5674,
        "contract": "contracts/BadgeNFT.sol:BadgeNFT",
        "label": "statusStrings",
        "offset": 0,
        "slot": "19",
        "type": "t_mapping(t_uint256,t_string_storage)"
      },
      {
        "astId": 5678,
        "contract": "contracts/BadgeNFT.sol:BadgeNFT",
        "label": "badgeMinted",
        "offset": 0,
        "slot": "20",
        "type": "t_mapping(t_string_memory_ptr,t_bool)"
      },
      {
        "astId": 5683,
        "contract": "contracts/BadgeNFT.sol:BadgeNFT",
        "label": "contributors",
        "offset": 0,
        "slot": "21",
        "type": "t_mapping(t_string_memory_ptr,t_array(t_address)dyn_storage)"
      },
      {
        "astId": 5687,
        "contract": "contracts/BadgeNFT.sol:BadgeNFT",
        "label": "creator",
        "offset": 0,
        "slot": "22",
        "type": "t_mapping(t_string_memory_ptr,t_address)"
      },
      {
        "astId": 5691,
        "contract": "contracts/BadgeNFT.sol:BadgeNFT",
        "label": "pathwayIdforBadge",
        "offset": 0,
        "slot": "23",
        "type": "t_mapping(t_string_memory_ptr,t_string_storage)"
      },
      {
        "astId": 5696,
        "contract": "contracts/BadgeNFT.sol:BadgeNFT",
        "label": "status",
        "offset": 0,
        "slot": "24",
        "type": "t_mapping(t_string_memory_ptr,t_enum(BadgeStatus)5806)"
      },
      {
        "astId": 5700,
        "contract": "contracts/BadgeNFT.sol:BadgeNFT",
        "label": "votes",
        "offset": 0,
        "slot": "25",
        "type": "t_mapping(t_string_memory_ptr,t_uint256)"
      },
      {
        "astId": 5704,
        "contract": "contracts/BadgeNFT.sol:BadgeNFT",
        "label": "votesReject",
        "offset": 0,
        "slot": "26",
        "type": "t_mapping(t_string_memory_ptr,t_uint256)"
      },
      {
        "astId": 5710,
        "contract": "contracts/BadgeNFT.sol:BadgeNFT",
        "label": "reviewerVotes",
        "offset": 0,
        "slot": "27",
        "type": "t_mapping(t_string_memory_ptr,t_mapping(t_address,t_bool))"
      },
      {
        "astId": 5714,
        "contract": "contracts/BadgeNFT.sol:BadgeNFT",
        "label": "nativeRewards",
        "offset": 0,
        "slot": "28",
        "type": "t_mapping(t_string_memory_ptr,t_uint256)"
      },
      {
        "astId": 5720,
        "contract": "contracts/BadgeNFT.sol:BadgeNFT",
        "label": "erc20Amounts",
        "offset": 0,
        "slot": "29",
        "type": "t_mapping(t_string_memory_ptr,t_mapping(t_address,t_uint256))"
      },
      {
        "astId": 5724,
        "contract": "contracts/BadgeNFT.sol:BadgeNFT",
        "label": "nativeRefundClaimed",
        "offset": 0,
        "slot": "30",
        "type": "t_mapping(t_string_memory_ptr,t_bool)"
      },
      {
        "astId": 5730,
        "contract": "contracts/BadgeNFT.sol:BadgeNFT",
        "label": "erc20RefundClaimed",
        "offset": 0,
        "slot": "31",
        "type": "t_mapping(t_string_memory_ptr,t_mapping(t_address,t_bool))"
      },
      {
        "astId": 5734,
        "contract": "contracts/BadgeNFT.sol:BadgeNFT",
        "label": "numUsersRewardPerBadge",
        "offset": 0,
        "slot": "32",
        "type": "t_mapping(t_string_memory_ptr,t_uint256)"
      },
      {
        "astId": 5738,
        "contract": "contracts/BadgeNFT.sol:BadgeNFT",
        "label": "currentNumUsersRewardPerBadgeNative",
        "offset": 0,
        "slot": "33",
        "type": "t_mapping(t_string_memory_ptr,t_uint256)"
      },
      {
        "astId": 5744,
        "contract": "contracts/BadgeNFT.sol:BadgeNFT",
        "label": "currentNumUsersRewardPerBadgeERC20",
        "offset": 0,
        "slot": "34",
        "type": "t_mapping(t_string_memory_ptr,t_mapping(t_address,t_uint256))"
      },
      {
        "astId": 5750,
        "contract": "contracts/BadgeNFT.sol:BadgeNFT",
        "label": "nonces",
        "offset": 0,
        "slot": "35",
        "type": "t_mapping(t_string_memory_ptr,t_mapping(t_address,t_uint256))"
      },
      {
        "astId": 5754,
        "contract": "contracts/BadgeNFT.sol:BadgeNFT",
        "label": "adventurerAddress",
        "offset": 0,
        "slot": "36",
        "type": "t_mapping(t_string_memory_ptr,t_address)"
      },
      {
        "astId": 5762,
        "contract": "contracts/BadgeNFT.sol:BadgeNFT",
        "label": "mintTrackerByBadgeIdVersionMinter",
        "offset": 0,
        "slot": "37",
        "type": "t_mapping(t_string_memory_ptr,t_mapping(t_uint256,t_mapping(t_address,t_bool)))"
      },
      {
        "astId": 5769,
        "contract": "contracts/BadgeNFT.sol:BadgeNFT",
        "label": "allMintersPerBadgeAndVersion",
        "offset": 0,
        "slot": "38",
        "type": "t_mapping(t_string_memory_ptr,t_mapping(t_uint256,t_array(t_address)dyn_storage))"
      },
      {
        "astId": 5776,
        "contract": "contracts/BadgeNFT.sol:BadgeNFT",
        "label": "allTokenIdsPerBadgeAndVersion",
        "offset": 0,
        "slot": "39",
        "type": "t_mapping(t_string_memory_ptr,t_mapping(t_uint256,t_array(t_uint256)dyn_storage))"
      },
      {
        "astId": 5781,
        "contract": "contracts/BadgeNFT.sol:BadgeNFT",
        "label": "tokenInfoById",
        "offset": 0,
        "slot": "40",
        "type": "t_mapping(t_uint256,t_struct(TokenInfo)5811_storage)"
      },
      {
        "astId": 5789,
        "contract": "contracts/BadgeNFT.sol:BadgeNFT",
        "label": "userRewardedForBadgeERC20",
        "offset": 0,
        "slot": "41",
        "type": "t_mapping(t_string_memory_ptr,t_mapping(t_address,t_mapping(t_address,t_bool)))"
      },
      {
        "astId": 5795,
        "contract": "contracts/BadgeNFT.sol:BadgeNFT",
        "label": "userRewardedForBadgeNative",
        "offset": 0,
        "slot": "42",
        "type": "t_mapping(t_string_memory_ptr,t_mapping(t_address,t_bool))"
      },
      {
        "astId": 5798,
        "contract": "contracts/BadgeNFT.sol:BadgeNFT",
        "label": "fee",
        "offset": 0,
        "slot": "43",
        "type": "t_uint256"
      },
      {
        "astId": 5801,
        "contract": "contracts/BadgeNFT.sol:BadgeNFT",
        "label": "creatorFee",
        "offset": 0,
        "slot": "44",
        "type": "t_uint256"
      }
    ],
    "types": {
      "t_address": {
        "encoding": "inplace",
        "label": "address",
        "numberOfBytes": "20"
      },
      "t_array(t_address)dyn_storage": {
        "base": "t_address",
        "encoding": "dynamic_array",
        "label": "address[]",
        "numberOfBytes": "32"
      },
      "t_array(t_uint256)dyn_storage": {
        "base": "t_uint256",
        "encoding": "dynamic_array",
        "label": "uint256[]",
        "numberOfBytes": "32"
      },
      "t_bool": {
        "encoding": "inplace",
        "label": "bool",
        "numberOfBytes": "1"
      },
      "t_contract(RandomNumberConsumer)12098": {
        "encoding": "inplace",
        "label": "contract RandomNumberConsumer",
        "numberOfBytes": "20"
      },
      "t_contract(Verify)12759": {
        "encoding": "inplace",
        "label": "contract Verify",
        "numberOfBytes": "20"
      },
      "t_enum(BadgeStatus)5806": {
        "encoding": "inplace",
        "label": "enum BadgeNFT.BadgeStatus",
        "numberOfBytes": "1"
      },
      "t_mapping(t_address,t_bool)": {
        "encoding": "mapping",
        "key": "t_address",
        "label": "mapping(address => bool)",
        "numberOfBytes": "32",
        "value": "t_bool"
      },
      "t_mapping(t_address,t_mapping(t_address,t_bool))": {
        "encoding": "mapping",
        "key": "t_address",
        "label": "mapping(address => mapping(address => bool))",
        "numberOfBytes": "32",
        "value": "t_mapping(t_address,t_bool)"
      },
      "t_mapping(t_address,t_mapping(t_uint256,t_uint256))": {
        "encoding": "mapping",
        "key": "t_address",
        "label": "mapping(address => mapping(uint256 => uint256))",
        "numberOfBytes": "32",
        "value": "t_mapping(t_uint256,t_uint256)"
      },
      "t_mapping(t_address,t_uint256)": {
        "encoding": "mapping",
        "key": "t_address",
        "label": "mapping(address => uint256)",
        "numberOfBytes": "32",
        "value": "t_uint256"
      },
      "t_mapping(t_string_memory_ptr,t_address)": {
        "encoding": "mapping",
        "key": "t_string_memory_ptr",
        "label": "mapping(string => address)",
        "numberOfBytes": "32",
        "value": "t_address"
      },
      "t_mapping(t_string_memory_ptr,t_array(t_address)dyn_storage)": {
        "encoding": "mapping",
        "key": "t_string_memory_ptr",
        "label": "mapping(string => address[])",
        "numberOfBytes": "32",
        "value": "t_array(t_address)dyn_storage"
      },
      "t_mapping(t_string_memory_ptr,t_bool)": {
        "encoding": "mapping",
        "key": "t_string_memory_ptr",
        "label": "mapping(string => bool)",
        "numberOfBytes": "32",
        "value": "t_bool"
      },
      "t_mapping(t_string_memory_ptr,t_enum(BadgeStatus)5806)": {
        "encoding": "mapping",
        "key": "t_string_memory_ptr",
        "label": "mapping(string => enum BadgeNFT.BadgeStatus)",
        "numberOfBytes": "32",
        "value": "t_enum(BadgeStatus)5806"
      },
      "t_mapping(t_string_memory_ptr,t_mapping(t_address,t_bool))": {
        "encoding": "mapping",
        "key": "t_string_memory_ptr",
        "label": "mapping(string => mapping(address => bool))",
        "numberOfBytes": "32",
        "value": "t_mapping(t_address,t_bool)"
      },
      "t_mapping(t_string_memory_ptr,t_mapping(t_address,t_mapping(t_address,t_bool)))": {
        "encoding": "mapping",
        "key": "t_string_memory_ptr",
        "label": "mapping(string => mapping(address => mapping(address => bool)))",
        "numberOfBytes": "32",
        "value": "t_mapping(t_address,t_mapping(t_address,t_bool))"
      },
      "t_mapping(t_string_memory_ptr,t_mapping(t_address,t_uint256))": {
        "encoding": "mapping",
        "key": "t_string_memory_ptr",
        "label": "mapping(string => mapping(address => uint256))",
        "numberOfBytes": "32",
        "value": "t_mapping(t_address,t_uint256)"
      },
      "t_mapping(t_string_memory_ptr,t_mapping(t_uint256,t_array(t_address)dyn_storage))": {
        "encoding": "mapping",
        "key": "t_string_memory_ptr",
        "label": "mapping(string => mapping(uint256 => address[]))",
        "numberOfBytes": "32",
        "value": "t_mapping(t_uint256,t_array(t_address)dyn_storage)"
      },
      "t_mapping(t_string_memory_ptr,t_mapping(t_uint256,t_array(t_uint256)dyn_storage))": {
        "encoding": "mapping",
        "key": "t_string_memory_ptr",
        "label": "mapping(string => mapping(uint256 => uint256[]))",
        "numberOfBytes": "32",
        "value": "t_mapping(t_uint256,t_array(t_uint256)dyn_storage)"
      },
      "t_mapping(t_string_memory_ptr,t_mapping(t_uint256,t_mapping(t_address,t_bool)))": {
        "encoding": "mapping",
        "key": "t_string_memory_ptr",
        "label": "mapping(string => mapping(uint256 => mapping(address => bool)))",
        "numberOfBytes": "32",
        "value": "t_mapping(t_uint256,t_mapping(t_address,t_bool))"
      },
      "t_mapping(t_string_memory_ptr,t_string_storage)": {
        "encoding": "mapping",
        "key": "t_string_memory_ptr",
        "label": "mapping(string => string)",
        "numberOfBytes": "32",
        "value": "t_string_storage"
      },
      "t_mapping(t_string_memory_ptr,t_uint256)": {
        "encoding": "mapping",
        "key": "t_string_memory_ptr",
        "label": "mapping(string => uint256)",
        "numberOfBytes": "32",
        "value": "t_uint256"
      },
      "t_mapping(t_uint256,t_address)": {
        "encoding": "mapping",
        "key": "t_uint256",
        "label": "mapping(uint256 => address)",
        "numberOfBytes": "32",
        "value": "t_address"
      },
      "t_mapping(t_uint256,t_array(t_address)dyn_storage)": {
        "encoding": "mapping",
        "key": "t_uint256",
        "label": "mapping(uint256 => address[])",
        "numberOfBytes": "32",
        "value": "t_array(t_address)dyn_storage"
      },
      "t_mapping(t_uint256,t_array(t_uint256)dyn_storage)": {
        "encoding": "mapping",
        "key": "t_uint256",
        "label": "mapping(uint256 => uint256[])",
        "numberOfBytes": "32",
        "value": "t_array(t_uint256)dyn_storage"
      },
      "t_mapping(t_uint256,t_mapping(t_address,t_bool))": {
        "encoding": "mapping",
        "key": "t_uint256",
        "label": "mapping(uint256 => mapping(address => bool))",
        "numberOfBytes": "32",
        "value": "t_mapping(t_address,t_bool)"
      },
      "t_mapping(t_uint256,t_string_storage)": {
        "encoding": "mapping",
        "key": "t_uint256",
        "label": "mapping(uint256 => string)",
        "numberOfBytes": "32",
        "value": "t_string_storage"
      },
      "t_mapping(t_uint256,t_struct(TokenInfo)5811_storage)": {
        "encoding": "mapping",
        "key": "t_uint256",
        "label": "mapping(uint256 => struct BadgeNFT.TokenInfo)",
        "numberOfBytes": "32",
        "value": "t_struct(TokenInfo)5811_storage"
      },
      "t_mapping(t_uint256,t_uint256)": {
        "encoding": "mapping",
        "key": "t_uint256",
        "label": "mapping(uint256 => uint256)",
        "numberOfBytes": "32",
        "value": "t_uint256"
      },
      "t_string_memory_ptr": {
        "encoding": "bytes",
        "label": "string",
        "numberOfBytes": "32"
      },
      "t_string_storage": {
        "encoding": "bytes",
        "label": "string",
        "numberOfBytes": "32"
      },
      "t_struct(Counter)4182_storage": {
        "encoding": "inplace",
        "label": "struct Counters.Counter",
        "members": [
          {
            "astId": 4181,
            "contract": "contracts/BadgeNFT.sol:BadgeNFT",
            "label": "_value",
            "offset": 0,
            "slot": "0",
            "type": "t_uint256"
          }
        ],
        "numberOfBytes": "32"
      },
      "t_struct(TokenInfo)5811_storage": {
        "encoding": "inplace",
        "label": "struct BadgeNFT.TokenInfo",
        "members": [
          {
            "astId": 5808,
            "contract": "contracts/BadgeNFT.sol:BadgeNFT",
            "label": "badgeId",
            "offset": 0,
            "slot": "0",
            "type": "t_string_storage"
          },
          {
            "astId": 5810,
            "contract": "contracts/BadgeNFT.sol:BadgeNFT",
            "label": "version",
            "offset": 0,
            "slot": "1",
            "type": "t_uint256"
          }
        ],
        "numberOfBytes": "64"
      },
      "t_uint256": {
        "encoding": "inplace",
        "label": "uint256",
        "numberOfBytes": "32"
      }
    }
  }
}