{
  "address": "0x79619b50e57fC51B1aaf5eF2F85E9a73B25d40D6",
  "abi": [
    {
      "inputs": [
        {
          "internalType": "address",
          "name": "_vrfAddress",
          "type": "address"
        },
        {
          "internalType": "address",
          "name": "_projectNFTAddress",
          "type": "address"
        },
        {
          "internalType": "address",
          "name": "_pathwayNFTAddress",
          "type": "address"
        },
        {
          "internalType": "address",
          "name": "_verifyAddress",
          "type": "address"
        }
      ],
      "stateMutability": "nonpayable",
      "type": "constructor"
    },
    {
      "anonymous": false,
      "inputs": [
        {
          "indexed": true,
          "internalType": "address",
          "name": "owner",
          "type": "address"
        },
        {
          "indexed": true,
          "internalType": "address",
          "name": "approved",
          "type": "address"
        },
        {
          "indexed": true,
          "internalType": "uint256",
          "name": "tokenId",
          "type": "uint256"
        }
      ],
      "name": "Approval",
      "type": "event"
    },
    {
      "anonymous": false,
      "inputs": [
        {
          "indexed": true,
          "internalType": "address",
          "name": "owner",
          "type": "address"
        },
        {
          "indexed": true,
          "internalType": "address",
          "name": "operator",
          "type": "address"
        },
        {
          "indexed": false,
          "internalType": "bool",
          "name": "approved",
          "type": "bool"
        }
      ],
      "name": "ApprovalForAll",
      "type": "event"
    },
    {
      "anonymous": false,
      "inputs": [
        {
          "indexed": true,
          "internalType": "string",
          "name": "_badgeId",
          "type": "string"
        }
      ],
      "name": "BadgeApproved",
      "type": "event"
    },
    {
      "anonymous": false,
      "inputs": [
        {
          "indexed": true,
          "internalType": "address",
          "name": "_to",
          "type": "address"
        },
        {
          "indexed": true,
          "internalType": "string",
          "name": "_tokenURI",
          "type": "string"
        },
        {
          "indexed": true,
          "internalType": "string",
          "name": "_badgeId",
          "type": "string"
        }
      ],
      "name": "NFTBadgeMinted",
      "type": "event"
    },
    {
      "anonymous": false,
      "inputs": [
        {
          "indexed": true,
          "internalType": "address",
          "name": "previousOwner",
          "type": "address"
        },
        {
          "indexed": true,
          "internalType": "address",
          "name": "newOwner",
          "type": "address"
        }
      ],
      "name": "OwnershipTransferred",
      "type": "event"
    },
    {
      "anonymous": false,
      "inputs": [
        {
          "indexed": false,
          "internalType": "address",
          "name": "_caller",
          "type": "address"
        },
        {
          "indexed": false,
          "internalType": "uint256",
          "name": "_value",
          "type": "uint256"
        }
      ],
      "name": "ReceiveCalled",
      "type": "event"
    },
    {
      "anonymous": false,
      "inputs": [
        {
          "indexed": true,
          "internalType": "address",
          "name": "from",
          "type": "address"
        },
        {
          "indexed": true,
          "internalType": "address",
          "name": "to",
          "type": "address"
        },
        {
          "indexed": true,
          "internalType": "uint256",
          "name": "tokenId",
          "type": "uint256"
        }
      ],
      "name": "Transfer",
      "type": "event"
    },
    {
      "inputs": [
        {
          "internalType": "string",
          "name": "_badgeId",
          "type": "string"
        },
        {
          "internalType": "address",
          "name": "_ERC20Address",
          "type": "address"
        },
        {
          "internalType": "bool",
          "name": "useNative",
          "type": "bool"
        },
        {
          "internalType": "uint256",
          "name": "amount",
          "type": "uint256"
        }
      ],
      "name": "addBadgeCreationReward",
      "outputs": [],
      "stateMutability": "payable",
      "type": "function"
    },
    {
      "inputs": [
        {
          "internalType": "string",
          "name": "",
          "type": "string"
        }
      ],
      "name": "adventurerAddress",
      "outputs": [
        {
          "internalType": "address",
          "name": "",
          "type": "address"
        }
      ],
      "stateMutability": "view",
      "type": "function"
    },
    {
      "inputs": [
        {
          "internalType": "address",
          "name": "to",
          "type": "address"
        },
        {
          "internalType": "uint256",
          "name": "tokenId",
          "type": "uint256"
        }
      ],
      "name": "approve",
      "outputs": [],
      "stateMutability": "nonpayable",
      "type": "function"
    },
    {
      "inputs": [
        {
          "internalType": "string",
          "name": "",
          "type": "string"
        }
      ],
      "name": "badgeMinted",
      "outputs": [
        {
          "internalType": "bool",
          "name": "",
          "type": "bool"
        }
      ],
      "stateMutability": "view",
      "type": "function"
    },
    {
      "inputs": [
        {
          "internalType": "address",
          "name": "owner",
          "type": "address"
        }
      ],
      "name": "balanceOf",
      "outputs": [
        {
          "internalType": "uint256",
          "name": "",
          "type": "uint256"
        }
      ],
      "stateMutability": "view",
      "type": "function"
    },
    {
      "inputs": [
        {
          "internalType": "string",
          "name": "_badgeId",
          "type": "string"
        },
        {
          "internalType": "bool",
          "name": "native",
          "type": "bool"
        },
        {
          "internalType": "address",
          "name": "_ERC20Address",
          "type": "address"
        },
        {
          "internalType": "bytes32",
          "name": "r",
          "type": "bytes32"
        },
        {
          "internalType": "bytes32",
          "name": "s",
          "type": "bytes32"
        },
        {
          "internalType": "uint8",
          "name": "v",
          "type": "uint8"
        },
        {
          "internalType": "bool",
          "name": "claimReward",
          "type": "bool"
        },
        {
          "internalType": "string",
          "name": "_tokenURI",
          "type": "string"
        },
        {
          "internalType": "uint256",
          "name": "version",
          "type": "uint256"
        }
      ],
      "name": "claimBadgeRewards",
      "outputs": [],
      "stateMutability": "nonpayable",
      "type": "function"
    },
    {
      "inputs": [
        {
          "internalType": "string",
          "name": "_badgeId",
          "type": "string"
        },
        {
          "internalType": "bool",
          "name": "native",
          "type": "bool"
        },
        {
          "internalType": "address",
          "name": "_ERC20Address",
          "type": "address"
        }
      ],
      "name": "claimRejectionRefund",
      "outputs": [],
      "stateMutability": "nonpayable",
      "type": "function"
    },
    {
      "inputs": [
        {
          "internalType": "string",
          "name": "_badgeId",
          "type": "string"
        },
        {
          "internalType": "string",
          "name": "_pathwayId",
          "type": "string"
        },
        {
          "internalType": "uint256",
          "name": "numUsersRewarded",
          "type": "uint256"
        },
        {
          "internalType": "bool",
          "name": "callRewards",
          "type": "bool"
        },
        {
          "internalType": "address",
          "name": "_ERC20Address",
          "type": "address"
        },
        {
          "internalType": "bool",
          "name": "useNative",
          "type": "bool"
        },
        {
          "internalType": "uint256",
          "name": "amount",
          "type": "uint256"
        },
        {
          "internalType": "address",
          "name": "sender",
          "type": "address"
        }
      ],
      "name": "createBadge",
      "outputs": [],
      "stateMutability": "payable",
      "type": "function"
    },
    {
      "inputs": [
        {
          "internalType": "address[]",
          "name": "_contributors",
          "type": "address[]"
        },
        {
          "internalType": "string",
          "name": "_badgeId",
          "type": "string"
        },
        {
          "internalType": "string",
          "name": "_pathwayId",
          "type": "string"
        },
        {
          "internalType": "bytes32[2]",
          "name": "r",
          "type": "bytes32[2]"
        },
        {
          "internalType": "bytes32[2]",
          "name": "s",
          "type": "bytes32[2]"
        },
        {
          "internalType": "uint8[2]",
          "name": "v",
          "type": "uint8[2]"
        },
        {
          "internalType": "uint256",
          "name": "votesNeeded",
          "type": "uint256"
        },
        {
          "internalType": "uint256",
          "name": "numUsersRewarded",
          "type": "uint256"
        },
        {
          "internalType": "bool[2]",
          "name": "rewardsNative",
          "type": "bool[2]"
        },
        {
          "internalType": "address",
          "name": "_ERC20Address",
          "type": "address"
        },
        {
          "internalType": "uint256",
          "name": "amount",
          "type": "uint256"
        },
        {
          "internalType": "address",
          "name": "sender",
          "type": "address"
        }
      ],
      "name": "createBadgeAndVote",
      "outputs": [],
      "stateMutability": "nonpayable",
      "type": "function"
    },
    {
      "inputs": [
        {
          "internalType": "string",
          "name": "_tokenURI",
          "type": "string"
        },
        {
          "internalType": "string",
          "name": "_badgeId",
          "type": "string"
        },
        {
          "internalType": "string",
          "name": "_pathwayId",
          "type": "string"
        },
        {
          "internalType": "bytes32[2]",
          "name": "r",
          "type": "bytes32[2]"
        },
        {
          "internalType": "bytes32[2]",
          "name": "s",
          "type": "bytes32[2]"
        },
        {
          "internalType": "uint8[2]",
          "name": "v",
          "type": "uint8[2]"
        },
        {
          "internalType": "uint256",
          "name": "votesNeeded",
          "type": "uint256"
        }
      ],
      "name": "createToken",
      "outputs": [
        {
          "internalType": "uint256[]",
          "name": "",
          "type": "uint256[]"
        }
      ],
      "stateMutability": "nonpayable",
      "type": "function"
    },
    {
      "inputs": [
        {
          "internalType": "string",
          "name": "",
          "type": "string"
        }
      ],
      "name": "creator",
      "outputs": [
        {
          "internalType": "address",
          "name": "",
          "type": "address"
        }
      ],
      "stateMutability": "view",
      "type": "function"
    },
    {
      "inputs": [],
      "name": "creatorFee",
      "outputs": [
        {
          "internalType": "uint256",
          "name": "",
          "type": "uint256"
        }
      ],
      "stateMutability": "view",
      "type": "function"
    },
    {
      "inputs": [
        {
          "internalType": "string",
          "name": "",
          "type": "string"
        },
        {
          "internalType": "address",
          "name": "",
          "type": "address"
        }
      ],
      "name": "currentNumUsersRewardPerBadgeERC20",
      "outputs": [
        {
          "internalType": "uint256",
          "name": "",
          "type": "uint256"
        }
      ],
      "stateMutability": "view",
      "type": "function"
    },
    {
      "inputs": [
        {
          "internalType": "string",
          "name": "",
          "type": "string"
        }
      ],
      "name": "currentNumUsersRewardPerBadgeNative",
      "outputs": [
        {
          "internalType": "uint256",
          "name": "",
          "type": "uint256"
        }
      ],
      "stateMutability": "view",
      "type": "function"
    },
    {
      "inputs": [],
      "name": "fee",
      "outputs": [
        {
          "internalType": "uint256",
          "name": "",
          "type": "uint256"
        }
      ],
      "stateMutability": "view",
      "type": "function"
    },
    {
      "inputs": [
        {
          "internalType": "string",
          "name": "_badgeId",
          "type": "string"
        },
        {
          "internalType": "uint256",
          "name": "version",
          "type": "uint256"
        }
      ],
      "name": "getAllAddrsByBadgeIDVersion",
      "outputs": [
        {
          "internalType": "address[]",
          "name": "",
          "type": "address[]"
        }
      ],
      "stateMutability": "view",
      "type": "function"
    },
    {
      "inputs": [
        {
          "internalType": "string",
          "name": "_badgeId",
          "type": "string"
        },
        {
          "internalType": "uint256",
          "name": "version",
          "type": "uint256"
        }
      ],
      "name": "getAllTokenIdsByBadgeIDVersion",
      "outputs": [
        {
          "internalType": "uint256[]",
          "name": "",
          "type": "uint256[]"
        }
      ],
      "stateMutability": "view",
      "type": "function"
    },
    {
      "inputs": [],
      "name": "getAppDiamond",
      "outputs": [
        {
          "internalType": "address",
          "name": "",
          "type": "address"
        }
      ],
      "stateMutability": "view",
      "type": "function"
    },
    {
      "inputs": [
        {
          "internalType": "uint256",
          "name": "tokenId",
          "type": "uint256"
        }
      ],
      "name": "getApproved",
      "outputs": [
        {
          "internalType": "address",
          "name": "",
          "type": "address"
        }
      ],
      "stateMutability": "view",
      "type": "function"
    },
    {
      "inputs": [
        {
          "internalType": "string",
          "name": "_badgeId",
          "type": "string"
        }
      ],
      "name": "getContributors",
      "outputs": [
        {
          "internalType": "address[]",
          "name": "",
          "type": "address[]"
        }
      ],
      "stateMutability": "view",
      "type": "function"
    },
    {
      "inputs": [
        {
          "internalType": "address",
          "name": "adventurer",
          "type": "address"
        }
      ],
      "name": "getVersionsAndBadgeIDsByAdventurer",
      "outputs": [
        {
          "internalType": "uint256[]",
          "name": "versions",
          "type": "uint256[]"
        },
        {
          "internalType": "string",
          "name": "concatBadgeIds",
          "type": "string"
        }
      ],
      "stateMutability": "view",
      "type": "function"
    },
    {
      "inputs": [
        {
          "internalType": "address",
          "name": "owner",
          "type": "address"
        },
        {
          "internalType": "address",
          "name": "operator",
          "type": "address"
        }
      ],
      "name": "isApprovedForAll",
      "outputs": [
        {
          "internalType": "bool",
          "name": "",
          "type": "bool"
        }
      ],
      "stateMutability": "view",
      "type": "function"
    },
    {
      "inputs": [],
      "name": "name",
      "outputs": [
        {
          "internalType": "string",
          "name": "",
          "type": "string"
        }
      ],
      "stateMutability": "view",
      "type": "function"
    },
    {
      "inputs": [
        {
          "internalType": "string",
          "name": "",
          "type": "string"
        }
      ],
      "name": "nativeRefundClaimed",
      "outputs": [
        {
          "internalType": "bool",
          "name": "",
          "type": "bool"
        }
      ],
      "stateMutability": "view",
      "type": "function"
    },
    {
      "inputs": [
        {
          "internalType": "string",
          "name": "",
          "type": "string"
        }
      ],
      "name": "nativeRewards",
      "outputs": [
        {
          "internalType": "uint256",
          "name": "",
          "type": "uint256"
        }
      ],
      "stateMutability": "view",
      "type": "function"
    },
    {
      "inputs": [
        {
          "internalType": "string",
          "name": "",
          "type": "string"
        },
        {
          "internalType": "address",
          "name": "",
          "type": "address"
        }
      ],
      "name": "nonces",
      "outputs": [
        {
          "internalType": "uint256",
          "name": "",
          "type": "uint256"
        }
      ],
      "stateMutability": "view",
      "type": "function"
    },
    {
      "inputs": [
        {
          "internalType": "string",
          "name": "",
          "type": "string"
        }
      ],
      "name": "numUsersRewardPerBadge",
      "outputs": [
        {
          "internalType": "uint256",
          "name": "",
          "type": "uint256"
        }
      ],
      "stateMutability": "view",
      "type": "function"
    },
    {
      "inputs": [],
      "name": "owner",
      "outputs": [
        {
          "internalType": "address",
          "name": "",
          "type": "address"
        }
      ],
      "stateMutability": "view",
      "type": "function"
    },
    {
      "inputs": [
        {
          "internalType": "uint256",
          "name": "tokenId",
          "type": "uint256"
        }
      ],
      "name": "ownerOf",
      "outputs": [
        {
          "internalType": "address",
          "name": "",
          "type": "address"
        }
      ],
      "stateMutability": "view",
      "type": "function"
    },
    {
      "inputs": [
        {
          "internalType": "string",
          "name": "",
          "type": "string"
        }
      ],
      "name": "pathwayIdforBadge",
      "outputs": [
        {
          "internalType": "string",
          "name": "",
          "type": "string"
        }
      ],
      "stateMutability": "view",
      "type": "function"
    },
    {
      "inputs": [],
      "name": "renounceOwnership",
      "outputs": [],
      "stateMutability": "nonpayable",
      "type": "function"
    },
    {
      "inputs": [
        {
          "internalType": "string",
          "name": "",
          "type": "string"
        },
        {
          "internalType": "address",
          "name": "",
          "type": "address"
        }
      ],
      "name": "reviewerVotes",
      "outputs": [
        {
          "internalType": "bool",
          "name": "",
          "type": "bool"
        }
      ],
      "stateMutability": "view",
      "type": "function"
    },
    {
      "inputs": [
        {
          "internalType": "address",
          "name": "from",
          "type": "address"
        },
        {
          "internalType": "address",
          "name": "to",
          "type": "address"
        },
        {
          "internalType": "uint256",
          "name": "tokenId",
          "type": "uint256"
        }
      ],
      "name": "safeTransferFrom",
      "outputs": [],
      "stateMutability": "nonpayable",
      "type": "function"
    },
    {
      "inputs": [
        {
          "internalType": "address",
          "name": "from",
          "type": "address"
        },
        {
          "internalType": "address",
          "name": "to",
          "type": "address"
        },
        {
          "internalType": "uint256",
          "name": "tokenId",
          "type": "uint256"
        },
        {
          "internalType": "bytes",
          "name": "_data",
          "type": "bytes"
        }
      ],
      "name": "safeTransferFrom",
      "outputs": [],
      "stateMutability": "nonpayable",
      "type": "function"
    },
    {
      "inputs": [
        {
          "internalType": "address",
          "name": "newFactory",
          "type": "address"
        }
      ],
      "name": "setAdventureFactory",
      "outputs": [],
      "stateMutability": "nonpayable",
      "type": "function"
    },
    {
      "inputs": [
        {
          "internalType": "address",
          "name": "newAppDiamond",
          "type": "address"
        }
      ],
      "name": "setAppDiamond",
      "outputs": [],
      "stateMutability": "nonpayable",
      "type": "function"
    },
    {
      "inputs": [
        {
          "internalType": "address",
          "name": "operator",
          "type": "address"
        },
        {
          "internalType": "bool",
          "name": "approved",
          "type": "bool"
        }
      ],
      "name": "setApprovalForAll",
      "outputs": [],
      "stateMutability": "nonpayable",
      "type": "function"
    },
    {
      "inputs": [
        {
          "internalType": "string",
          "name": "_badgeId",
          "type": "string"
        },
        {
          "internalType": "uint256",
          "name": "newNumber",
          "type": "uint256"
        },
        {
          "internalType": "bytes32",
          "name": "r",
          "type": "bytes32"
        },
        {
          "internalType": "bytes32",
          "name": "s",
          "type": "bytes32"
        },
        {
          "internalType": "uint8",
          "name": "v",
          "type": "uint8"
        }
      ],
      "name": "setNumberOfUsersRewarded",
      "outputs": [],
      "stateMutability": "nonpayable",
      "type": "function"
    },
    {
      "inputs": [
        {
          "internalType": "string",
          "name": "",
          "type": "string"
        }
      ],
      "name": "status",
      "outputs": [
        {
          "internalType": "enum BadgeNFT.BadgeStatus",
          "name": "",
          "type": "uint8"
        }
      ],
      "stateMutability": "view",
      "type": "function"
    },
    {
      "inputs": [
        {
          "internalType": "uint256",
          "name": "",
          "type": "uint256"
        }
      ],
      "name": "statusStrings",
      "outputs": [
        {
          "internalType": "string",
          "name": "",
          "type": "string"
        }
      ],
      "stateMutability": "view",
      "type": "function"
    },
    {
      "inputs": [
        {
          "internalType": "bytes4",
          "name": "interfaceId",
          "type": "bytes4"
        }
      ],
      "name": "supportsInterface",
      "outputs": [
        {
          "internalType": "bool",
          "name": "",
          "type": "bool"
        }
      ],
      "stateMutability": "view",
      "type": "function"
    },
    {
      "inputs": [],
      "name": "symbol",
      "outputs": [
        {
          "internalType": "string",
          "name": "",
          "type": "string"
        }
      ],
      "stateMutability": "view",
      "type": "function"
    },
    {
      "inputs": [
        {
          "internalType": "uint256",
          "name": "index",
          "type": "uint256"
        }
      ],
      "name": "tokenByIndex",
      "outputs": [
        {
          "internalType": "uint256",
          "name": "",
          "type": "uint256"
        }
      ],
      "stateMutability": "view",
      "type": "function"
    },
    {
      "inputs": [
        {
          "internalType": "address",
          "name": "owner",
          "type": "address"
        },
        {
          "internalType": "uint256",
          "name": "index",
          "type": "uint256"
        }
      ],
      "name": "tokenOfOwnerByIndex",
      "outputs": [
        {
          "internalType": "uint256",
          "name": "",
          "type": "uint256"
        }
      ],
      "stateMutability": "view",
      "type": "function"
    },
    {
      "inputs": [
        {
          "internalType": "uint256",
          "name": "tokenId",
          "type": "uint256"
        }
      ],
      "name": "tokenURI",
      "outputs": [
        {
          "internalType": "string",
          "name": "",
          "type": "string"
        }
      ],
      "stateMutability": "view",
      "type": "function"
    },
    {
      "inputs": [],
      "name": "totalSupply",
      "outputs": [
        {
          "internalType": "uint256",
          "name": "",
          "type": "uint256"
        }
      ],
      "stateMutability": "view",
      "type": "function"
    },
    {
      "inputs": [
        {
          "internalType": "address",
          "name": "from",
          "type": "address"
        },
        {
          "internalType": "address",
          "name": "to",
          "type": "address"
        },
        {
          "internalType": "uint256",
          "name": "tokenId",
          "type": "uint256"
        }
      ],
      "name": "transferFrom",
      "outputs": [],
      "stateMutability": "nonpayable",
      "type": "function"
    },
    {
      "inputs": [
        {
          "internalType": "address",
          "name": "newOwner",
          "type": "address"
        }
      ],
      "name": "transferOwnership",
      "outputs": [],
      "stateMutability": "nonpayable",
      "type": "function"
    },
    {
      "inputs": [
        {
          "internalType": "string",
          "name": "",
          "type": "string"
        },
        {
          "internalType": "address",
          "name": "",
          "type": "address"
        }
      ],
      "name": "userRewardedForBadgeNative",
      "outputs": [
        {
          "internalType": "bool",
          "name": "",
          "type": "bool"
        }
      ],
      "stateMutability": "view",
      "type": "function"
    },
    {
      "inputs": [
        {
          "internalType": "address[]",
          "name": "_contributors",
          "type": "address[]"
        },
        {
          "internalType": "string",
          "name": "_badgeId",
          "type": "string"
        },
        {
          "internalType": "string",
          "name": "_pathwayId",
          "type": "string"
        },
        {
          "internalType": "bytes32[2]",
          "name": "r",
          "type": "bytes32[2]"
        },
        {
          "internalType": "bytes32[2]",
          "name": "s",
          "type": "bytes32[2]"
        },
        {
          "internalType": "uint8[2]",
          "name": "v",
          "type": "uint8[2]"
        },
        {
          "internalType": "uint256",
          "name": "votesNeeded",
          "type": "uint256"
        }
      ],
      "name": "voteForApproval",
      "outputs": [],
      "stateMutability": "nonpayable",
      "type": "function"
    },
    {
      "inputs": [
        {
          "internalType": "string",
          "name": "_badgeId",
          "type": "string"
        },
        {
          "internalType": "string",
          "name": "_pathwayId",
          "type": "string"
        },
        {
          "internalType": "bytes32[2]",
          "name": "r",
          "type": "bytes32[2]"
        },
        {
          "internalType": "bytes32[2]",
          "name": "s",
          "type": "bytes32[2]"
        },
        {
          "internalType": "uint8[2]",
          "name": "v",
          "type": "uint8[2]"
        },
        {
          "internalType": "uint256",
          "name": "votesNeeded",
          "type": "uint256"
        }
      ],
      "name": "voteForRejection",
      "outputs": [],
      "stateMutability": "nonpayable",
      "type": "function"
    },
    {
      "inputs": [
        {
          "internalType": "string",
          "name": "",
          "type": "string"
        }
      ],
      "name": "votes",
      "outputs": [
        {
          "internalType": "uint256",
          "name": "",
          "type": "uint256"
        }
      ],
      "stateMutability": "view",
      "type": "function"
    },
    {
      "inputs": [
        {
          "internalType": "string",
          "name": "",
          "type": "string"
        }
      ],
      "name": "votesReject",
      "outputs": [
        {
          "internalType": "uint256",
          "name": "",
          "type": "uint256"
        }
      ],
      "stateMutability": "view",
      "type": "function"
    },
    {
      "inputs": [
        {
          "internalType": "address",
          "name": "_owner",
          "type": "address"
        }
      ],
      "name": "walletOfOwner",
      "outputs": [
        {
          "internalType": "uint256[]",
          "name": "",
          "type": "uint256[]"
        }
      ],
      "stateMutability": "view",
      "type": "function"
    },
    {
      "stateMutability": "payable",
      "type": "receive"
    }
  ],
  "transactionHash": "0xfc79ff3997058befc94c66c8d02efe00ac582fb80700ced08c599d7d90956020",
  "args": [
    "0xF33373d9507c15E7F7aC502a0EB8527e022dda79",
    "0xAB087AC3b091ea0584Cce918A5243F19069708B1",
    "0xd2F29b918410ffb493fe1809cEbAC076CA85117B",
    "0xcB2AF596fC582a3206e2D59368849Df5DAca75FD"
  ],
  "numDeployments": 2,
  "solcInputHash": "b807e5f0c0a5c464fb9268507a8359dc",
  "bytecode": "0x6080604052610514602b5560c8602c553480156200001c57600080fd5b50604051620062fc380380620062fc8339810160408190526200003f916200039d565b604080518082018252600d81526c64436f6d70617373426164676560981b6020808301918252835180850190945260068452652221a7a6a82160d11b9084015281519192916200009291600091620002da565b508051620000a8906001906020840190620002da565b505050620000c5620000bf6200028460201b60201c565b62000288565b600d80546001600160a01b038087166001600160a01b031992831617909255600e8054848416908316179055600f8054868416908316179055601080549285169290911691909117905560408051808201909152600b81526a1393d391561254d511539560aa1b6020808301918252600080526013905290516200016b917f8fa6efc3be94b5b348b21fea823fe8d100408cee9b7f90524494500445d8ff6c91620002da565b5060408051808201909152600781526650454e44494e4760c81b60208083019182526001600052601390529051620001c5917f4155c2f711f2cdd34f8262ab8fb9b7020a700fe7b6948222152f7670d1fdf34d91620002da565b5060408051808201909152600681526511115392515160d21b602080830191825260026000526013905290516200021e917f0b9d2c0c271bb30544eb78c59bdaebdae2728e5f65814c07768a0abe90ed192391620002da565b506040805180820190915260088152671054141493d5915160c21b6020808301918252600360005260139052905162000279917f0d2a6872ef858a7f8ead18dc4f3f2e8d35c853d47e2816cbb9cdd49202554e0c91620002da565b505050505062000437565b3390565b600b80546001600160a01b038381166001600160a01b0319831681179093556040519116919082907f8be0079c531659141344cd1fd0a4f28419497f9722a3daafe3b4186f6b6457e090600090a35050565b828054620002e890620003fa565b90600052602060002090601f0160209004810192826200030c576000855562000357565b82601f106200032757805160ff191683800117855562000357565b8280016001018555821562000357579182015b82811115620003575782518255916020019190600101906200033a565b506200036592915062000369565b5090565b5b808211156200036557600081556001016200036a565b80516001600160a01b03811681146200039857600080fd5b919050565b60008060008060808587031215620003b457600080fd5b620003bf8562000380565b9350620003cf6020860162000380565b9250620003df6040860162000380565b9150620003ef6060860162000380565b905092959194509250565b600181811c908216806200040f57607f821691505b602082108114156200043157634e487b7160e01b600052602260045260246000fd5b50919050565b615eb580620004476000396000f3fe6080604052600436106103395760003560e01c806373a5d17c116101ab578063b88d4fde116100f7578063e88958dc11610095578063ebcb309a1161006f578063ebcb309a14610b7a578063f2fde38b14610b9a578063f4f5d02914610bba578063f66af3ed14610c0557600080fd5b8063e88958dc14610ad3578063e8ca64f414610ae9578063e985e9c514610b3157600080fd5b8063c87b56dd116100d1578063c87b56dd14610a1a578063ce15ef8114610a3a578063cef9fab714610a75578063ddca3f4314610abd57600080fd5b8063b88d4fde14610981578063b99ef1fa146109a1578063bf82a6ac146109d957600080fd5b80639a199401116101645780639fe13f251161013e5780639fe13f251461090e578063a22cb4651461092e578063aaa545d01461094e578063b5fe62dc1461096e57600080fd5b80639a1994011461085e5780639e1a90d5146108965780639e1b567c146108c357600080fd5b806373a5d17c1461074a57806376032f0e146107925780638360bcb1146107ca5780638da5cb5b146107ea578063956f49bf1461080857806395d89b411461084957600080fd5b80632f745c59116102855780635743d4f3116102235780636810b4cf116101fd5780636810b4cf146106bd57806368929b5c146106dd57806370a0823114610715578063715018a61461073557600080fd5b80635743d4f31461065357806362fe4f861461068a5780636352211e1461069d57600080fd5b8063438b63001161025f578063438b6300146105d557806347185957146105f55780634f6ccce714610615578063500b5bd61461063557600080fd5b80632f745c591461055a57806341038d191461057a57806342842e0e146105b557600080fd5b80630d0654d9116102f257806318160ddd116102cc57806318160ddd146104db5780631f6f3b74146104fa5780631fd8b97e1461051a57806323b872dd1461053a57600080fd5b80630d0654d91461046e5780630e3c22cb1461049b57806310f7a746146104bb57600080fd5b806301ffc9a71461037d57806304dcd300146103b257806306462b6f146103df57806306fdde0314610401578063081812fc14610416578063095ea7b31461044e57600080fd5b3661037857604080513381523460208201527f64c983f10188c30a885d77970aa5aae9a86e80ef9b459ad33cc620eb5999e070910160405180910390a1005b600080fd5b34801561038957600080fd5b5061039d610398366004615232565b610c33565b60405190151581526020015b60405180910390f35b3480156103be57600080fd5b506103d26103cd366004615746565b610c44565b6040516103a99190615aa8565b3480156103eb57600080fd5b506103ff6103fa366004614ea2565b610cde565b005b34801561040d57600080fd5b506103d2610d33565b34801561042257600080fd5b50610436610431366004615746565b610dc5565b6040516001600160a01b0390911681526020016103a9565b34801561045a57600080fd5b506103ff610469366004615003565b610e4d565b34801561047a57600080fd5b5061048e610489366004615596565b610f63565b6040516103a99190615a48565b3480156104a757600080fd5b506103ff6104b6366004614ea2565b6114f3565b3480156104c757600080fd5b506103ff6104d6366004615428565b61153f565b3480156104e757600080fd5b506009545b6040519081526020016103a9565b34801561050657600080fd5b5061048e610515366004615698565b61198e565b34801561052657600080fd5b506103ff6105353660046156dc565b611a0a565b34801561054657600080fd5b506103ff610555366004614f15565b611aba565b34801561056657600080fd5b506104ec610575366004615003565b611aeb565b34801561058657600080fd5b5061039d61059536600461526c565b8051602081830181018051601e8252928201919093012091525460ff1681565b3480156105c157600080fd5b506103ff6105d0366004614f15565b611b81565b3480156105e157600080fd5b5061048e6105f0366004614ea2565b611b9c565b34801561060157600080fd5b506103ff6106103660046153c5565b611c3d565b34801561062157600080fd5b506104ec610630366004615746565b612182565b34801561064157600080fd5b506011546001600160a01b0316610436565b34801561065f57600080fd5b506104ec61066e36600461526c565b8051602081830181018051828252928201919093012091525481565b6103ff61069836600461535c565b612215565b3480156106a957600080fd5b506104366106b8366004615746565b612aab565b3480156106c957600080fd5b506103ff6106d83660046154f4565b612b22565b3480156106e957600080fd5b506104ec6106f836600461526c565b8051602081830181018051601a8252928201919093012091525481565b34801561072157600080fd5b506104ec610730366004614ea2565b612d77565b34801561074157600080fd5b506103ff612dfe565b34801561075657600080fd5b506104ec610765366004615316565b81516020818401810180516022825292820194820194909420919093529091526000908152604090205481565b34801561079e57600080fd5b506104ec6107ad36600461526c565b8051602081830181018051601c8252928201919093012091525481565b3480156107d657600080fd5b506103d26107e536600461526c565b612e34565b3480156107f657600080fd5b50600b546001600160a01b0316610436565b34801561081457600080fd5b5061043661082336600461526c565b80516020818301810180516024825292820191909301209152546001600160a01b031681565b34801561085557600080fd5b506103d2612e58565b34801561086a57600080fd5b506104ec61087936600461526c565b805160208183018101805160218252928201919093012091525481565b3480156108a257600080fd5b506108b66108b1366004615698565b612e67565b6040516103a991906159fb565b3480156108cf57600080fd5b5061039d6108de366004615316565b8151602081840181018051601b825292820194820194909420919093529091526000908152604090205460ff1681565b34801561091a57600080fd5b506103ff6109293660046150f7565b612eec565b34801561093a57600080fd5b506103ff610949366004614fd5565b612f23565b34801561095a57600080fd5b506108b661096936600461526c565b612f32565b6103ff61097c3660046155d5565b612fac565b34801561098d57600080fd5b506103ff61099c366004614f56565b6130d4565b3480156109ad57600080fd5b506104ec6109bc36600461526c565b805160208183018101805160198252928201919093012091525481565b3480156109e557600080fd5b506104366109f436600461526c565b80516020818301810180516016825292820191909301209152546001600160a01b031681565b348015610a2657600080fd5b506103d2610a35366004615746565b61310c565b348015610a4657600080fd5b5061039d610a5536600461526c565b805160208183018101805160148252928201919093012091525460ff1681565b348015610a8157600080fd5b506104ec610a90366004615316565b81516020818401810180516023825292820194820194909420919093529091526000908152604090205481565b348015610ac957600080fd5b506104ec602b5481565b348015610adf57600080fd5b506104ec602c5481565b348015610af557600080fd5b50610b24610b0436600461526c565b805160208183018101805160188252928201919093012091525460ff1681565b6040516103a99190615a80565b348015610b3d57600080fd5b5061039d610b4c366004614edc565b6001600160a01b03918216600090815260056020908152604080832093909416825291909152205460ff1690565b348015610b8657600080fd5b506103ff610b9536600461502f565b613117565b348015610ba657600080fd5b506103ff610bb5366004614ea2565b613528565b348015610bc657600080fd5b5061039d610bd5366004615316565b8151602081840181018051602a825292820194820194909420919093529091526000908152604090205460ff1681565b348015610c1157600080fd5b50610c25610c20366004614ea2565b6135c3565b6040516103a9929190615a5b565b6000610c3e8261388f565b92915050565b60136020526000908152604090208054610c5d90615d58565b80601f0160208091040260200160405190810160405280929190818152602001828054610c8990615d58565b8015610cd65780601f10610cab57610100808354040283529160200191610cd6565b820191906000526020600020905b815481529060010190602001808311610cb957829003601f168201915b505050505081565b600b546001600160a01b03163314610d115760405162461bcd60e51b8152600401610d0890615bc5565b60405180910390fd5b601280546001600160a01b0319166001600160a01b0392909216919091179055565b606060008054610d4290615d58565b80601f0160208091040260200160405190810160405280929190818152602001828054610d6e90615d58565b8015610dbb5780601f10610d9057610100808354040283529160200191610dbb565b820191906000526020600020905b815481529060010190602001808311610d9e57829003601f168201915b5050505050905090565b6000610dd0826138b4565b610e315760405162461bcd60e51b815260206004820152602c60248201527f4552433732313a20617070726f76656420717565727920666f72206e6f6e657860448201526b34b9ba32b73a103a37b5b2b760a11b6064820152608401610d08565b506000908152600460205260409020546001600160a01b031690565b6000610e5882612aab565b9050806001600160a01b0316836001600160a01b03161415610ec65760405162461bcd60e51b815260206004820152602160248201527f4552433732313a20617070726f76616c20746f2063757272656e74206f776e656044820152603960f91b6064820152608401610d08565b336001600160a01b0382161480610ee25750610ee28133610b4c565b610f545760405162461bcd60e51b815260206004820152603860248201527f4552433732313a20617070726f76652063616c6c6572206973206e6f74206f7760448201527f6e6572206e6f7220617070726f76656420666f7220616c6c00000000000000006064820152608401610d08565b610f5e83836138d1565b505050565b6060601487604051610f759190615821565b9081526040519081900360200190205460ff1615610fc65760405162461bcd60e51b815260206004820152600e60248201526d185b1c9958591e481b5a5b9d195960921b6044820152606401610d08565b6000610fd8888888888888600161393f565b5090506001601889604051610fed9190615821565b9081526040519081900360200190205460ff16600381111561101157611011615dee565b14156110bb576019886040516110279190615821565b90815260200160405180910390205483111561107a5760405162461bcd60e51b8152602060048201526012602482015271696e73756666696369656e7420766f74657360701b6044820152606401610d08565b600360188960405161108c9190615821565b908152604051908190036020019020805460ff191660018360038111156110b5576110b5615dee565b02179055505b60036018896040516110cd9190615821565b9081526040519081900360200190205460ff1660038111156110f1576110f1615dee565b146111345760405162461bcd60e51b81526020600482015260136024820152721cdd185d1d5cc81b9bdd08185c1c1c9bdd9959606a1b6044820152606401610d08565b6010546040516060916001600160a01b0316907f8b11cf8a4537c8abe6ddef215a5ad5cfd6c0d5f42e1e6c507a1e8f4d7e79ad5c90601790611177908d90615821565b90815260405190819003602001812061119291602401615aee565b60408051601f198184030181529181526020820180516001600160e01b03166001600160e01b03199094169390931790925290516111d09190615821565b6000604051808303816000865af19150503d806000811461120d576040519150601f19603f3d011682016040523d82523d6000602084013e611212565b606091505b5090925090508161122257600080fd5b60008180602001905181019061123891906152a0565b6011546040519192506001600160a01b0316907f65a35964691f73fd1604104300b719081f6abd939cb2fc62b713db949a3b24099061127b908490602401615aa8565b60408051601f198184030181529181526020820180516001600160e01b03166001600160e01b03199094169390931790925290516112b99190615821565b6000604051808303816000865af19150503d80600081146112f6576040519150601f19603f3d011682016040523d82523d6000602084013e6112fb565b606091505b5090935091508261130b57600080fd5b600060158b60405161131d9190615821565b908152604051908190036020019020546001600160401b0381111561134457611344615e30565b60405190808252806020026020018201604052801561136d578160200160208202803683370190505b5090506000805b60158d6040516113849190615821565b908152604051908190036020019020548110156114af576113a9600c80546001019055565b600c5491506113fb60158e6040516113c19190615821565b908152602001604051809103902082815481106113e0576113e0615e1a565b6000918252602090912001546001600160a01b031683613af4565b611405828f613c33565b8b6040516114139190615821565b60405180910390208e6040516114299190615821565b604051809103902060158f6040516114419190615821565b9081526020016040518091039020838154811061146057611460615e1a565b60009182526020822001546040516001600160a01b03909116917fb1df09f7ba6c7da56f4dc0278f9fe78f4577bd6299ea8c339c7f5c3c02b6490791a4806114a781615d93565b915050611374565b50600160148d6040516114c29190615821565b908152604051908190036020019020805491151560ff19909216919091179055509350505050979650505050505050565b600b546001600160a01b0316331461151d5760405162461bcd60e51b8152600401610d0890615bc5565b601180546001600160a01b0319166001600160a01b0392909216919091179055565b6000831561175657881561163f57602a8a60405161155d9190615821565b908152602001604051809103902060006115743390565b6001600160a01b0316815260208101919091526040016000205460ff161561159b57600080fd5b60208a6040516115ab9190615821565b90815260200160405180910390205460218b6040516115ca9190615821565b908152602001604051809103902054106115e357600080fd5b60208a6040516115f39190615821565b908152602001604051809103902054601c8b6040516116129190615821565b90815260200160405180910390205461162b9190615ce2565b90506000811161163a57600080fd5b611756565b60298a60405161164f9190615821565b90815260408051602092819003830190206001600160a01b038b16600090815290835281812033825290925290205460ff161561168b57600080fd5b60208a60405161169b9190615821565b90815260200160405180910390205460228b6040516116ba9190615821565b90815260408051602092819003830190206001600160a01b038c1660009081529252902054106116e957600080fd5b60208a6040516116f99190615821565b908152602001604051809103902054601d8b6040516117189190615821565b90815260408051602092819003830190206001600160a01b038c16600090815292529020546117479190615ce2565b90506000811161175657600080fd5b611764338b848a8a8a613cbe565b50831561197657881561185157604051600090339083908381818185875af1925050503d80600081146117b3576040519150601f19603f3d011682016040523d82523d6000602084013e6117b8565b606091505b50509050806117c657600080fd5b6001602a8c6040516117d89190615821565b908152602001604051809103902060006117ef3390565b6001600160a01b0316815260208101919091526040908101600020805460ff19169215159290921790915551602190611829908d90615821565b908152604051908190036020019020805490600061184683615d93565b919050555050611976565b6001600160a01b03881663a9059cbb336040516001600160e01b031960e084901b1681526001600160a01b03909116600482015260248101849052604401602060405180830381600087803b1580156118a957600080fd5b505af11580156118bd573d6000803e3d6000fd5b505050506040513d601f19601f820116820180604052508101906118e19190615215565b50600160298b6040516118f49190615821565b90815260408051602092819003830181206001600160a01b038d1660009081529084528281203382529093529120805460ff191692151592909217909155602290611940908c90615821565b90815260408051602092819003830190206001600160a01b038b1660009081529252812080549161197083615d93565b91905055505b611982338b8585613f1e565b50505050505050505050565b60606027836040516119a09190615821565b908152604080519182900360209081018320600086815290825282902080548083028501830190935282845291908301828280156119fd57602002820191906000526020600020905b8154815260200190600101908083116119e9575b5050505050905092915050565b6001602086604051611a1c9190615821565b908152602001604051809103902054611a359190615d15565b8411611a835760405162461bcd60e51b815260206004820152601960248201527f42616467654e4654203a20696e76616c6964206e756d626572000000000000006044820152606401610d08565b611a91338686868686613cbe565b5083602086604051611aa39190615821565b908152604051908190036020019020555050505050565b611ac433826140bf565b611ae05760405162461bcd60e51b8152600401610d0890615bfa565b610f5e8383836141a9565b6000611af683612d77565b8210611b585760405162461bcd60e51b815260206004820152602b60248201527f455243373231456e756d657261626c653a206f776e657220696e646578206f7560448201526a74206f6620626f756e647360a81b6064820152608401610d08565b506001600160a01b03919091166000908152600760209081526040808320938352929052205490565b610f5e838383604051806020016040528060008152506130d4565b60606000611ba983612d77565b90506000816001600160401b03811115611bc557611bc5615e30565b604051908082528060200260200182016040528015611bee578160200160208202803683370190505b50905060005b82811015611c3557611c068582611aeb565b828281518110611c1857611c18615e1a565b602090810291909101015280611c2d81615d93565b915050611bf4565b509392505050565b6002601884604051611c4f9190615821565b9081526040519081900360200190205460ff166003811115611c7357611c73615dee565b14611cb95760405162461bcd60e51b8152602060048201526016602482015275696e636f72726563742062616467652073746174757360501b6044820152606401610d08565b60105460405160009182916001600160a01b03909116907f8b11cf8a4537c8abe6ddef215a5ad5cfd6c0d5f42e1e6c507a1e8f4d7e79ad5c90601790611d00908990615821565b908152604051908190036020018120611d1b91602401615aee565b60408051601f198184030181529181526020820180516001600160e01b03166001600160e01b0319909416939093179092529051611d599190615821565b6000604051808303816000865af19150503d8060008114611d96576040519150601f19603f3d011682016040523d82523d6000602084013e611d9b565b606091505b509150915081611daa57600080fd5b600081806020019051810190611dc091906152a0565b600f546040519192506001600160a01b0316907f0d58dd088cbe688b8c61e8f36a658aa45125fbcff8c7e7af836d3925770f01bc90611e03908490602401615aa8565b60408051601f198184030181529181526020820180516001600160e01b03166001600160e01b0319909416939093179092529051611e419190615821565b6000604051808303816000865af19150503d8060008114611e7e576040519150601f19603f3d011682016040523d82523d6000602084013e611e83565b606091505b50909350915082611e9357600080fd5b600082806020019051810190611ea99190614ebf565b90506001600160a01b038116611ebe57600080fd5b8515611fe457601e87604051611ed49190615821565b9081526040519081900360200190205460ff1615611f345760405162461bcd60e51b815260206004820152601d60248201527f6e61746976652072657761726420616c726561647920636c61696d65640000006044820152606401610d08565b806001600160a01b0316601c88604051611f4e9190615821565b9081526040519081900360200181205490600081818185875af1925050503d8060008114611f98576040519150601f19603f3d011682016040523d82523d6000602084013e611f9d565b606091505b50508094505083611fad57600080fd5b6001601e88604051611fbf9190615821565b908152604051908190036020019020805491151560ff19909216919091179055612179565b601f87604051611ff49190615821565b90815260408051602092819003830190206001600160a01b0388166000908152925290205460ff16156120695760405162461bcd60e51b815260206004820152601c60248201527f65726332302072657761726420616c726561647920636c61696d6564000000006044820152606401610d08565b846001600160a01b031663a9059cbb82601d8a6040516120899190615821565b9081526040805191829003602090810183206001600160a01b038c166000908152915220546001600160e01b031960e085901b1682526120e092916004016001600160a01b03929092168252602082015260400190565b602060405180830381600087803b1580156120fa57600080fd5b505af115801561210e573d6000803e3d6000fd5b505050506040513d601f19601f820116820180604052508101906121329190615215565b506001601f886040516121459190615821565b90815260408051602092819003830190206001600160a01b038916600090815292529020805460ff19169115159190911790555b50505050505050565b600061218d60095490565b82106121f05760405162461bcd60e51b815260206004820152602c60248201527f455243373231456e756d657261626c653a20676c6f62616c20696e646578206f60448201526b7574206f6620626f756e647360a01b6064820152608401610d08565b6009828154811061220357612203615e1a565b90600052602060002001549050919050565b60016018856040516122279190615821565b9081526040519081900360200190205460ff16600381111561224b5761224b615dee565b148061228a575060036018856040516122649190615821565b9081526040519081900360200190205460ff16600381111561228857612288615dee565b145b6122d65760405162461bcd60e51b815260206004820152601a60248201527f6261646765206e6f742070656e64696e672f617070726f7665640000000000006044820152606401610d08565b60006020856040516122e89190615821565b908152602001604051809103902054116123315760405162461bcd60e51b815260206004820152600a6024820152696e6f207265776172647360b01b6044820152606401610d08565b600f5460408051600481526024810182526020810180516001600160e01b0316631c3b702f60e11b179052905160009283926001600160a01b03909116916123799190615821565b6000604051808303816000865af19150503d80600081146123b6576040519150601f19603f3d011682016040523d82523d6000602084013e6123bb565b606091505b5091509150816123ca57600080fd5b6000818060200190518101906123e09190614ebf565b90506000612710602b54866123f59190615cf6565b6123ff9190615ce2565b90506000612710602c54876124149190615cf6565b61241e9190615ce2565b9050861561262257806124318388615cca565b61243b9190615cca565b34101561247f5760405162461bcd60e51b8152602060048201526012602482015271696e73756666696369656e742066756e647360701b6044820152606401610d08565b6040516001600160a01b038416908390600081818185875af1925050503d80600081146124c8576040519150601f19603f3d011682016040523d82523d6000602084013e6124cd565b606091505b505080955050846124dd57600080fd5b6016896040516124ed9190615821565b908152604051908190036020018120546001600160a01b031690829060006040518083038185875af1925050503d8060008114612546576040519150601f19603f3d011682016040523d82523d6000602084013e61254b565b606091505b5050809550508461255b57600080fd5b85601c8a60405161256c9190615821565b908152602001604051809103902060008282546125899190615cca565b9091555081905061259a8388615cca565b6125a49190615cca565b34111561261d573381836125b88934615d15565b6125c29190615d15565b6125cc9190615d15565b604051600081818185875af1925050503d8060008114612608576040519150601f19603f3d011682016040523d82523d6000602084013e61260d565b606091505b5050809550508461261d57600080fd5b612aa0565b6001600160a01b03881661263557600080fd5b6010546040516001600160a01b03909116907f8b11cf8a4537c8abe6ddef215a5ad5cfd6c0d5f42e1e6c507a1e8f4d7e79ad5c90601790612677908d90615821565b90815260405190819003602001812061269291602401615aee565b60408051601f198184030181529181526020820180516001600160e01b03166001600160e01b03199094169390931790925290516126d09190615821565b6000604051808303816000865af19150503d806000811461270d576040519150601f19603f3d011682016040523d82523d6000602084013e612712565b606091505b5090955093508461272257600080fd5b60008480602001905181019061273891906152a0565b6011546040519192506001600160a01b0316907f11f69039648f0dd87bd7c96fa7501d8c9b90ae27f5d68bb2f9adfc6ae113637a9061277f90849046908e90602401615abb565b60408051601f198184030181529181526020820180516001600160e01b03166001600160e01b03199094169390931790925290516127bd9190615821565b6000604051808303816000865af19150503d80600081146127fa576040519150601f19603f3d011682016040523d82523d6000602084013e6127ff565b606091505b5090965094508561280f57600080fd5b848060200190518101906128239190615215565b9550856128615760405162461bcd60e51b815260206004820152600c60248201526b1b9bdd08185c1c1c9bdd995960a21b6044820152606401610d08565b6001600160a01b0389166323b872dd336040516001600160e01b031960e084901b1681526001600160a01b039182166004820152908716602482015260448101869052606401602060405180830381600087803b1580156128c157600080fd5b505af11580156128d5573d6000803e3d6000fd5b505050506040513d601f19601f820116820180604052508101906128f99190615215565b506001600160a01b0389166323b872dd3330612915868c615cca565b6040516001600160e01b031960e086901b1681526001600160a01b0393841660048201529290911660248301526044820152606401602060405180830381600087803b15801561296457600080fd5b505af1158015612978573d6000803e3d6000fd5b505050506040513d601f19601f8201168201806040525081019061299c9190615215565b50886001600160a01b031663a9059cbb60168c6040516129bc9190615821565b908152604051908190036020018120546001600160e01b031960e084901b1682526001600160a01b0316600482015260248101859052604401602060405180830381600087803b158015612a0f57600080fd5b505af1158015612a23573d6000803e3d6000fd5b505050506040513d601f19601f82011682018060405250810190612a479190615215565b5086601d8b604051612a599190615821565b908152602001604051809103902060008b6001600160a01b03166001600160a01b031681526020019081526020016000206000828254612a999190615cca565b9091555050505b505050505050505050565b6000818152600260205260408120546001600160a01b031680610c3e5760405162461bcd60e51b815260206004820152602960248201527f4552433732313a206f776e657220717565727920666f72206e6f6e657869737460448201526832b73a103a37b5b2b760b91b6064820152608401610d08565b6001601887604051612b349190615821565b9081526040519081900360200190205460ff166003811115612b5857612b58615dee565b14612b6257600080fd5b601b86604051612b729190615821565b90815260200160405180910390206000612b893390565b6001600160a01b0316815260208101919091526040016000205460ff1615612bb057600080fd5b84604051602001612bc19190615821565b60405160208183030381529060405280519060200120601787604051612be79190615821565b9081526020016040518091039020604051602001612c0591906158a8565b6040516020818303038152906040528051906020012014612c5e5760405162461bcd60e51b81526020600482015260136024820152721a5b98dbdc9c9958dd081c185d1a1dd85e5259606a1b6044820152606401610d08565b600080612c71888888888888600061393f565b91509150601a88604051612c859190615821565b9081526040519081900360200190208054906000612ca283615d93565b91905055506001601b89604051612cb99190615821565b90815260200160405180910390206000612cd03390565b6001600160a01b03166001600160a01b0316815260200190815260200160002060006101000a81548160ff02191690831515021790555082601a89604051612d189190615821565b90815260200160405180910390205410612d6d576002601889604051612d3e9190615821565b908152604051908190036020019020805460ff19166001836003811115612d6757612d67615dee565b02179055505b5050505050505050565b60006001600160a01b038216612de25760405162461bcd60e51b815260206004820152602a60248201527f4552433732313a2062616c616e636520717565727920666f7220746865207a65604482015269726f206164647265737360b01b6064820152608401610d08565b506001600160a01b031660009081526003602052604090205490565b600b546001600160a01b03163314612e285760405162461bcd60e51b8152600401610d0890615bc5565b612e326000614350565b565b805160208183018101805160178252928201919093012091528054610c5d90615d58565b606060018054610d4290615d58565b6060602683604051612e799190615821565b908152604080519182900360209081018320600086815290825282902080548083028501830190935282845291908301828280156119fd57602002820191906000526020600020905b81546001600160a01b03168152600190910190602001808311612ec2575050505050905092915050565b83516020850151612f06918d918d91899188908888612fac565b612f158c8c8c8c8c8c8c613117565b505050505050505050505050565b612f2e3383836143a2565b5050565b6060601582604051612f449190615821565b9081526040805191829003602090810183208054808302850183019093528284529190830182828015612fa057602002820191906000526020600020905b81546001600160a01b03168152600190910190602001808311612f82575b50505050509050919050565b6000601889604051612fbe9190615821565b9081526040519081900360200190205460ff166003811115612fe257612fe2615dee565b14612fec57600080fd5b6001601889604051612ffe9190615821565b908152604051908190036020019020805460ff1916600183600381111561302757613027615dee565b02179055508660178960405161303d9190615821565b9081526020016040518091039020908051906020019061305e929190614b98565b50856020896040516130709190615821565b908152602001604051809103902081905550806016896040516130939190615821565b90815260405190819003602001902080546001600160a01b03929092166001600160a01b03199092169190911790558415612d6d57612d6d88858585612215565b6130de33836140bf565b6130fa5760405162461bcd60e51b8152600401610d0890615bfa565b61310684848484614471565b50505050565b6060610c3e826144a4565b60016018876040516131299190615821565b9081526040519081900360200190205460ff16600381111561314d5761314d615dee565b1461318f5760405162461bcd60e51b8152602060048201526012602482015271737461747573206e6f742070656e64696e6760701b6044820152606401610d08565b601b8660405161319f9190615821565b908152602001604051809103902060006131b63390565b6001600160a01b0316815260208101919091526040016000205460ff16156132205760405162461bcd60e51b815260206004820152601c60248201527f616c726561647920766f74656420666f722074686973206261646765000000006044820152606401610d08565b846040516020016132319190615821565b604051602081830303815290604052805190602001206017876040516132579190615821565b908152602001604051809103902060405160200161327591906158a8565b60405160208183030381529060405280519060200120146132ce5760405162461bcd60e51b81526020600482015260136024820152721a5b98dbdc9c9958dd081c185d1a1dd85e5259606a1b6044820152606401610d08565b6000806132e1888888888888600061393f565b915091506019886040516132f59190615821565b908152604051908190036020019020805490600061331283615d93565b91905055506001601b896040516133299190615821565b908152602001604051809103902060006133403390565b6001600160a01b0316815260208101919091526040908101600020805460ff1916921515929092179091555160199061337a908a90615821565b9081526020016040518091039020546001141561347a57600089511161339f57600080fd5b886015896040516133b09190615821565b908152602001604051809103902090805190602001906133d1929190614c1c565b506019886040516133e29190615821565b908152602001604051809103902054831161261d5760036018896040516134099190615821565b908152604051908190036020019020805460ff1916600183600381111561343257613432615dee565b0217905550876040516134459190615821565b604051908190038120907fcb7144701e8d0b3465bbe141996dd943a0458bba214e98eac12ba128ffe44c0890600090a2612aa0565b8260198960405161348b9190615821565b90815260200160405180910390205410612aa05760036018896040516134b19190615821565b908152604051908190036020019020805460ff191660018360038111156134da576134da615dee565b0217905550876040516134ed9190615821565b604051908190038120907fcb7144701e8d0b3465bbe141996dd943a0458bba214e98eac12ba128ffe44c0890600090a2505050505050505050565b600b546001600160a01b031633146135525760405162461bcd60e51b8152600401610d0890615bc5565b6001600160a01b0381166135b75760405162461bcd60e51b815260206004820152602660248201527f4f776e61626c653a206e6577206f776e657220697320746865207a65726f206160448201526564647265737360d01b6064820152608401610d08565b6135c081614350565b50565b60608060006135d184612d77565b6040805160208101909152600080825291925090826001600160401b038111156135fd576135fd615e30565b604051908082528060200260200182016040528015613626578160200160208202803683370190505b50905082613635578094508193505b60005b613643600185615d15565b8110156137705760006028600061365a8a85611aeb565b815260200190815260200160002060405180604001604052908160008201805461368390615d58565b80601f01602080910402602001604051908101604052809291908181526020018280546136af90615d58565b80156136fc5780601f106136d1576101008083540402835291602001916136fc565b820191906000526020600020905b8154815290600101906020018083116136df57829003601f168201915b505050505081526020016001820154815250509050806020015183838151811061372857613728615e1a565b60200260200101818152505083816000015160405160200161374b92919061586c565b6040516020818303038152906040529350818061376790615d93565b92505050613638565b6000602860006137808a85611aeb565b81526020019081526020016000206040518060400160405290816000820180546137a990615d58565b80601f01602080910402602001604051908101604052809291908181526020018280546137d590615d58565b80156138225780601f106137f757610100808354040283529160200191613822565b820191906000526020600020905b81548152906001019060200180831161380557829003601f168201915b505050505081526020016001820154815250509050806020015183838151811061384e5761384e615e1a565b60200260200101818152505083816000015160405160200161387192919061583d565b60405160208183030381529060405295508296505050505050915091565b60006001600160e01b0319821663780e9d6360e01b1480610c3e5750610c3e82614613565b6000908152600260205260409020546001600160a01b0316151590565b600081815260046020526040902080546001600160a01b0319166001600160a01b038416908117909155819061390682612aab565b6001600160a01b03167f8c5be1e5ebec7d5bd14f71427d1e84f3dd0314c0f7b2291e5b200ac8c7c3b92560405160405180910390a45050565b600e5460009081906001600160a01b03166312065106338b8b8b600060200201518b600060200201518b600060200201516040518763ffffffff1660e01b815260040161399196959493929190615957565b602060405180830381600087803b1580156139ab57600080fd5b505af11580156139bf573d6000803e3d6000fd5b505050506040513d601f19601f820116820180604052508101906139e39190615215565b9150816139ef57600080fd5b828015613a305750600160188a604051613a099190615821565b9081526040519081900360200190205460ff166003811115613a2d57613a2d615dee565b14155b15613a3d57506001613ae8565b600e546001600160a01b031663466cc53e338b878b600160200201518b600160200201518b600160200201516040518763ffffffff1660e01b8152600401613a8a969594939291906159af565b602060405180830381600087803b158015613aa457600080fd5b505af1158015613ab8573d6000803e3d6000fd5b505050506040513d601f19601f82011682018060405250810190613adc9190615215565b905080613ae857600080fd5b97509795505050505050565b6001600160a01b038216613b4a5760405162461bcd60e51b815260206004820181905260248201527f4552433732313a206d696e7420746f20746865207a65726f20616464726573736044820152606401610d08565b613b53816138b4565b15613ba05760405162461bcd60e51b815260206004820152601c60248201527f4552433732313a20746f6b656e20616c7265616479206d696e746564000000006044820152606401610d08565b613bac60008383614663565b6001600160a01b0382166000908152600360205260408120805460019290613bd5908490615cca565b909155505060008181526002602052604080822080546001600160a01b0319166001600160a01b03861690811790915590518392907fddf252ad1be2c89b69c2b068fc378daa952ba7f163c4a11628f55a4df523b3ef908290a45050565b613c3c826138b4565b613c9f5760405162461bcd60e51b815260206004820152602e60248201527f45524337323155524953746f726167653a2055524920736574206f66206e6f6e60448201526d32bc34b9ba32b73a103a37b5b2b760911b6064820152608401610d08565b60008281526006602090815260409091208251610f5e92840190614b98565b60008087304660238a604051613cd49190615821565b90815260408051602092819003830181206001600160a01b038f1660009081529084529190912054613d0f9594939290918c918e91016157c6565b60408051601f1981840301815282825280516020918201206011546004855260248501845291840180516001600160e01b031663a5207df560e01b179052915191935060009283926001600160a01b0390921691613d6d9190615821565b6000604051808303816000865af19150503d8060008114613daa576040519150601f19603f3d011682016040523d82523d6000602084013e613daf565b606091505b509150915081613dbe57600080fd5b600081806020019051810190613dd49190614ebf565b6040517f19457468657265756d205369676e6564204d6573736167653a0a3332000000006020820152603c8101869052909150600190605c0160408051601f198184030181528282528051602091820120600084529083018083525260ff891690820152606081018a90526080810189905260a0016020604051602081039080840390855afa158015613e6b573d6000803e3d6000fd5b505050602060405103516001600160a01b0316816001600160a01b031614613ec85760405162461bcd60e51b815260206004820152601060248201526f24b731b7b93932b1ba1039b4b3b732b960811b6044820152606401610d08565b60238a604051613ed89190615821565b90815260408051602092819003830190206001600160a01b038e16600090815292528120805491613f0883615d93565b9091555060019c9b505050505050505050505050565b602583604051613f2e9190615821565b908152604080516020928190038301902060008481529083528181206001600160a01b038816825290925290205460ff1615613f6957613106565b6000613f79600c80546001019055565b50600c54613f873382613af4565b613f918184613c33565b6040805180820182528581526020808201859052600084815260288252929092208151805192938493613fc79284920190614b98565b5060208201518160010155905050602685604051613fe59190615821565b9081526040805191829003602090810183206000878152908252918220805460018101825590835291200180546001600160a01b0389166001600160a01b0319909116179055602790614039908790615821565b9081526040805191829003602090810183206000878152908252918220805460018181018355918452919092200184905590602590614079908890615821565b9081526040805160209281900383019020600096875282528086206001600160a01b0399909916865297905295909220805460ff19169515159590951790945550505050565b60006140ca826138b4565b61412b5760405162461bcd60e51b815260206004820152602c60248201527f4552433732313a206f70657261746f7220717565727920666f72206e6f6e657860448201526b34b9ba32b73a103a37b5b2b760a11b6064820152608401610d08565b600061413683612aab565b9050806001600160a01b0316846001600160a01b0316148061417d57506001600160a01b0380821660009081526005602090815260408083209388168352929052205460ff165b806141a15750836001600160a01b031661419684610dc5565b6001600160a01b0316145b949350505050565b826001600160a01b03166141bc82612aab565b6001600160a01b0316146142205760405162461bcd60e51b815260206004820152602560248201527f4552433732313a207472616e736665722066726f6d20696e636f72726563742060448201526437bbb732b960d91b6064820152608401610d08565b6001600160a01b0382166142825760405162461bcd60e51b8152602060048201526024808201527f4552433732313a207472616e7366657220746f20746865207a65726f206164646044820152637265737360e01b6064820152608401610d08565b61428d838383614663565b6142986000826138d1565b6001600160a01b03831660009081526003602052604081208054600192906142c1908490615d15565b90915550506001600160a01b03821660009081526003602052604081208054600192906142ef908490615cca565b909155505060008181526002602052604080822080546001600160a01b0319166001600160a01b0386811691821790925591518493918716917fddf252ad1be2c89b69c2b068fc378daa952ba7f163c4a11628f55a4df523b3ef91a4505050565b600b80546001600160a01b038381166001600160a01b0319831681179093556040519116919082907f8be0079c531659141344cd1fd0a4f28419497f9722a3daafe3b4186f6b6457e090600090a35050565b816001600160a01b0316836001600160a01b031614156144045760405162461bcd60e51b815260206004820152601960248201527f4552433732313a20617070726f766520746f2063616c6c6572000000000000006044820152606401610d08565b6001600160a01b03838116600081815260056020908152604080832094871680845294825291829020805460ff191686151590811790915591519182527f17307eab39ab6107e8899845ad3d59bd9653f200f220920489ca2b5937696c31910160405180910390a3505050565b61447c8484846141a9565b6144888484848461466e565b6131065760405162461bcd60e51b8152600401610d0890615b73565b60606144af826138b4565b6145155760405162461bcd60e51b815260206004820152603160248201527f45524337323155524953746f726167653a2055524920717565727920666f72206044820152703737b732bc34b9ba32b73a103a37b5b2b760791b6064820152608401610d08565b6000828152600660205260408120805461452e90615d58565b80601f016020809104026020016040519081016040528092919081815260200182805461455a90615d58565b80156145a75780601f1061457c576101008083540402835291602001916145a7565b820191906000526020600020905b81548152906001019060200180831161458a57829003601f168201915b5050505050905060006145c560408051602081019091526000815290565b90508051600014156145d8575092915050565b81511561460a5780826040516020016145f292919061583d565b60405160208183030381529060405292505050919050565b6141a18461477b565b60006001600160e01b031982166380ac58cd60e01b148061464457506001600160e01b03198216635b5e139f60e01b145b80610c3e57506301ffc9a760e01b6001600160e01b0319831614610c3e565b610f5e838383614853565b60006001600160a01b0384163b1561477057604051630a85bd0160e11b81526001600160a01b0385169063150b7a02906146b290339089908890889060040161591a565b602060405180830381600087803b1580156146cc57600080fd5b505af19250505080156146fc575060408051601f3d908101601f191682019092526146f99181019061524f565b60015b614756573d80801561472a576040519150601f19603f3d011682016040523d82523d6000602084013e61472f565b606091505b50805161474e5760405162461bcd60e51b8152600401610d0890615b73565b805181602001fd5b6001600160e01b031916630a85bd0160e11b1490506141a1565b506001949350505050565b6060614786826138b4565b6147ea5760405162461bcd60e51b815260206004820152602f60248201527f4552433732314d657461646174613a2055524920717565727920666f72206e6f60448201526e3732bc34b9ba32b73a103a37b5b2b760891b6064820152608401610d08565b600061480160408051602081019091526000815290565b90506000815111614821576040518060200160405280600081525061484c565b8061482b8461490b565b60405160200161483c92919061583d565b6040516020818303038152906040525b9392505050565b6001600160a01b0383166148ae576148a981600980546000838152600a60205260408120829055600182018355919091527f6e1540171b6c0c960b71a7020d9f60077f6af931a8bbf590da0223dacf75c7af0155565b6148d1565b816001600160a01b0316836001600160a01b0316146148d1576148d18382614a08565b6001600160a01b0382166148e857610f5e81614aa5565b826001600160a01b0316826001600160a01b031614610f5e57610f5e8282614b54565b60608161492f5750506040805180820190915260018152600360fc1b602082015290565b8160005b8115614959578061494381615d93565b91506149529050600a83615ce2565b9150614933565b6000816001600160401b0381111561497357614973615e30565b6040519080825280601f01601f19166020018201604052801561499d576020820181803683370190505b5090505b84156141a1576149b2600183615d15565b91506149bf600a86615dae565b6149ca906030615cca565b60f81b8183815181106149df576149df615e1a565b60200101906001600160f81b031916908160001a905350614a01600a86615ce2565b94506149a1565b60006001614a1584612d77565b614a1f9190615d15565b600083815260086020526040902054909150808214614a72576001600160a01b03841660009081526007602090815260408083208584528252808320548484528184208190558352600890915290208190555b5060009182526008602090815260408084208490556001600160a01b039094168352600781528383209183525290812055565b600954600090614ab790600190615d15565b6000838152600a602052604081205460098054939450909284908110614adf57614adf615e1a565b906000526020600020015490508060098381548110614b0057614b00615e1a565b6000918252602080832090910192909255828152600a90915260408082208490558582528120556009805480614b3857614b38615e04565b6001900381819060005260206000200160009055905550505050565b6000614b5f83612d77565b6001600160a01b039093166000908152600760209081526040808320868452825280832085905593825260089052919091209190915550565b828054614ba490615d58565b90600052602060002090601f016020900481019282614bc65760008555614c0c565b82601f10614bdf57805160ff1916838001178555614c0c565b82800160010185558215614c0c579182015b82811115614c0c578251825591602001919060010190614bf1565b50614c18929150614c71565b5090565b828054828255906000526020600020908101928215614c0c579160200282015b82811115614c0c57825182546001600160a01b0319166001600160a01b03909116178255602090920191600190910190614c3c565b5b80821115614c185760008155600101614c72565b6000614c99614c9484615ca3565b615c73565b9050828152838383011115614cad57600080fd5b828260208301376000602084830101529392505050565b8035614ccf81615e46565b919050565b600082601f830112614ce557600080fd5b813560206001600160401b03821115614d0057614d00615e30565b8160051b614d0f828201615c73565b838152828101908684018388018501891015614d2a57600080fd5b600093505b85841015614d56578035614d4281615e46565b835260019390930192918401918401614d2f565b50979650505050505050565b600082601f830112614d7357600080fd5b614d7b615c4b565b808385604086011115614d8d57600080fd5b60005b6002811015614db9578135614da481615e5b565b84526020938401939190910190600101614d90565b509095945050505050565b600082601f830112614dd557600080fd5b614ddd615c4b565b808385604086011115614def57600080fd5b60005b6002811015614db9578135845260209384019390910190600101614df2565b600082601f830112614e2257600080fd5b614e2a615c4b565b808385604086011115614e3c57600080fd5b60005b6002811015614db957614e5182614e91565b84526020938401939190910190600101614e3f565b8035614ccf81615e5b565b600082601f830112614e8257600080fd5b61484c83833560208501614c86565b803560ff81168114614ccf57600080fd5b600060208284031215614eb457600080fd5b813561484c81615e46565b600060208284031215614ed157600080fd5b815161484c81615e46565b60008060408385031215614eef57600080fd5b8235614efa81615e46565b91506020830135614f0a81615e46565b809150509250929050565b600080600060608486031215614f2a57600080fd5b8335614f3581615e46565b92506020840135614f4581615e46565b929592945050506040919091013590565b60008060008060808587031215614f6c57600080fd5b8435614f7781615e46565b93506020850135614f8781615e46565b92506040850135915060608501356001600160401b03811115614fa957600080fd5b8501601f81018713614fba57600080fd5b614fc987823560208401614c86565b91505092959194509250565b60008060408385031215614fe857600080fd5b8235614ff381615e46565b91506020830135614f0a81615e5b565b6000806040838503121561501657600080fd5b823561502181615e46565b946020939093013593505050565b6000806000806000806000610140888a03121561504b57600080fd5b87356001600160401b038082111561506257600080fd5b61506e8b838c01614cd4565b985060208a013591508082111561508457600080fd5b6150908b838c01614e71565b975060408a01359150808211156150a657600080fd5b506150b38a828b01614e71565b9550506150c38960608a01614dc4565b93506150d28960a08a01614dc4565b92506150e18960e08a01614e11565b9150610120880135905092959891949750929550565b6000806000806000806000806000806000806102008d8f03121561511a57600080fd5b6001600160401b038d35111561512f57600080fd5b61513c8e8e358f01614cd4565b9b506001600160401b0360208e0135111561515657600080fd5b6151668e60208f01358f01614e71565b9a506001600160401b0360408e0135111561518057600080fd5b6151908e60408f01358f01614e71565b995061519f8e60608f01614dc4565b98506151ae8e60a08f01614dc4565b97506151bd8e60e08f01614e11565b96506101208d013595506101408d013594506151dd8e6101608f01614d62565b93506151ec6101a08e01614cc4565b92506101c08d013591506152036101e08e01614cc4565b90509295989b509295989b509295989b565b60006020828403121561522757600080fd5b815161484c81615e5b565b60006020828403121561524457600080fd5b813561484c81615e69565b60006020828403121561526157600080fd5b815161484c81615e69565b60006020828403121561527e57600080fd5b81356001600160401b0381111561529457600080fd5b6141a184828501614e71565b6000602082840312156152b257600080fd5b81516001600160401b038111156152c857600080fd5b8201601f810184136152d957600080fd5b80516152e7614c9482615ca3565b8181528560208385010111156152fc57600080fd5b61530d826020830160208601615d2c565b95945050505050565b6000806040838503121561532957600080fd5b82356001600160401b0381111561533f57600080fd5b61534b85828601614e71565b9250506020830135614f0a81615e46565b6000806000806080858703121561537257600080fd5b84356001600160401b0381111561538857600080fd5b61539487828801614e71565b94505060208501356153a581615e46565b925060408501356153b581615e5b565b9396929550929360600135925050565b6000806000606084860312156153da57600080fd5b83356001600160401b038111156153f057600080fd5b6153fc86828701614e71565b935050602084013561540d81615e5b565b9150604084013561541d81615e46565b809150509250925092565b60008060008060008060008060006101208a8c03121561544757600080fd5b89356001600160401b038082111561545e57600080fd5b61546a8d838e01614e71565b9a5060208c0135915061547c82615e5b565b90985060408b01359061548e82615e46565b81985060608c0135975060808c013596506154ab60a08d01614e91565b95506154b960c08d01614e66565b945060e08c01359150808211156154cf57600080fd5b506154dc8c828d01614e71565b9250506101008a013590509295985092959850929598565b600080600080600080610120878903121561550e57600080fd5b86356001600160401b038082111561552557600080fd5b6155318a838b01614e71565b9750602089013591508082111561554757600080fd5b5061555489828a01614e71565b9550506155648860408901614dc4565b93506155738860808901614dc4565b92506155828860c08901614e11565b915061010087013590509295509295509295565b6000806000806000806000610140888a0312156155b257600080fd5b87356001600160401b03808211156155c957600080fd5b61506e8b838c01614e71565b600080600080600080600080610100898b0312156155f257600080fd5b88356001600160401b038082111561560957600080fd5b6156158c838d01614e71565b995060208b013591508082111561562b57600080fd5b506156388b828c01614e71565b97505060408901359550606089013561565081615e5b565b9450608089013561566081615e46565b935060a089013561567081615e5b565b925060c0890135915060e089013561568781615e46565b809150509295985092959890939650565b600080604083850312156156ab57600080fd5b82356001600160401b038111156156c157600080fd5b6156cd85828601614e71565b95602094909401359450505050565b600080600080600060a086880312156156f457600080fd5b85356001600160401b0381111561570a57600080fd5b61571688828901614e71565b95505060208601359350604086013592506060860135915061573a60808701614e91565b90509295509295909350565b60006020828403121561575857600080fd5b5035919050565b600081518084526020808501945080840160005b8381101561578f57815187529582019590820190600101615773565b509495945050505050565b600081518084526157b2816020860160208601615d2c565b601f01601f19169290920160200192915050565b60006bffffffffffffffffffffffff19808960601b168352808860601b16601484015250856028830152846048830152836068830152825161580f816088850160208701615d2c565b91909101608801979650505050505050565b60008251615833818460208701615d2c565b9190910192915050565b6000835161584f818460208801615d2c565b835190830190615863818360208801615d2c565b01949350505050565b6000835161587e818460208801615d2c565b835190830190615892818360208801615d2c565b615f5f60f01b9101908152600201949350505050565b60008083546158b681615d58565b600182811680156158ce57600181146158df5761590e565b60ff1984168752828701945061590e565b8760005260208060002060005b858110156159055781548a8201529084019082016158ec565b50505082870194505b50929695505050505050565b6001600160a01b038581168252841660208201526040810183905260806060820181905260009061594d9083018461579a565b9695505050505050565b6001600160a01b038716815260c06020820181905260009061597b9083018861579a565b828103604084015261598d818861579a565b60608401969096525050608081019290925260ff1660a0909101529392505050565b6001600160a01b038716815260c0602082018190526000906159d39083018861579a565b905085604083015284606083015283608083015260ff831660a0830152979650505050505050565b6020808252825182820181905260009190848201906040850190845b81811015615a3c5783516001600160a01b031683529284019291840191600101615a17565b50909695505050505050565b60208152600061484c602083018461575f565b604081526000615a6e604083018561575f565b828103602084015261530d818561579a565b6020810160048310615aa257634e487b7160e01b600052602160045260246000fd5b91905290565b60208152600061484c602083018461579a565b606081526000615ace606083018661579a565b6020830194909452506001600160a01b0391909116604090910152919050565b6000602080835260008454615b0281615d58565b80848701526040600180841660008114615b235760018114615b3757615b65565b60ff19851689840152606089019550615b65565b896000528660002060005b85811015615b5d5781548b8201860152908301908801615b42565b8a0184019650505b509398975050505050505050565b60208082526032908201527f4552433732313a207472616e7366657220746f206e6f6e20455243373231526560408201527131b2b4bb32b91034b6b83632b6b2b73a32b960711b606082015260800190565b6020808252818101527f4f776e61626c653a2063616c6c6572206973206e6f7420746865206f776e6572604082015260600190565b60208082526031908201527f4552433732313a207472616e736665722063616c6c6572206973206e6f74206f6040820152701ddb995c881b9bdc88185c1c1c9bdd9959607a1b606082015260800190565b604080519081016001600160401b0381118282101715615c6d57615c6d615e30565b60405290565b604051601f8201601f191681016001600160401b0381118282101715615c9b57615c9b615e30565b604052919050565b60006001600160401b03821115615cbc57615cbc615e30565b50601f01601f191660200190565b60008219821115615cdd57615cdd615dc2565b500190565b600082615cf157615cf1615dd8565b500490565b6000816000190483118215151615615d1057615d10615dc2565b500290565b600082821015615d2757615d27615dc2565b500390565b60005b83811015615d47578181015183820152602001615d2f565b838111156131065750506000910152565b600181811c90821680615d6c57607f821691505b60208210811415615d8d57634e487b7160e01b600052602260045260246000fd5b50919050565b6000600019821415615da757615da7615dc2565b5060010190565b600082615dbd57615dbd615dd8565b500690565b634e487b7160e01b600052601160045260246000fd5b634e487b7160e01b600052601260045260246000fd5b634e487b7160e01b600052602160045260246000fd5b634e487b7160e01b600052603160045260246000fd5b634e487b7160e01b600052603260045260246000fd5b634e487b7160e01b600052604160045260246000fd5b6001600160a01b03811681146135c057600080fd5b80151581146135c057600080fd5b6001600160e01b0319811681146135c057600080fdfea26469706673582212208de7215a4f4e30d42cef09430e3e692f638de09ba34d3551d7252c09250fad1964736f6c63430008070033",
  "devdoc": {
    "kind": "dev",
    "methods": {
      "approve(address,uint256)": {
        "details": "See {IERC721-approve}."
      },
      "balanceOf(address)": {
        "details": "See {IERC721-balanceOf}."
      },
      "getApproved(uint256)": {
        "details": "See {IERC721-getApproved}."
      },
      "isApprovedForAll(address,address)": {
        "details": "See {IERC721-isApprovedForAll}."
      },
      "name()": {
        "details": "See {IERC721Metadata-name}."
      },
      "owner()": {
        "details": "Returns the address of the current owner."
      },
      "ownerOf(uint256)": {
        "details": "See {IERC721-ownerOf}."
      },
      "renounceOwnership()": {
        "details": "Leaves the contract without owner. It will not be possible to call `onlyOwner` functions anymore. Can only be called by the current owner. NOTE: Renouncing ownership will leave the contract without an owner, thereby removing any functionality that is only available to the owner."
      },
      "safeTransferFrom(address,address,uint256)": {
        "details": "See {IERC721-safeTransferFrom}."
      },
      "safeTransferFrom(address,address,uint256,bytes)": {
        "details": "See {IERC721-safeTransferFrom}."
      },
      "setApprovalForAll(address,bool)": {
        "details": "See {IERC721-setApprovalForAll}."
      },
      "symbol()": {
        "details": "See {IERC721Metadata-symbol}."
      },
      "tokenByIndex(uint256)": {
        "details": "See {IERC721Enumerable-tokenByIndex}."
      },
      "tokenOfOwnerByIndex(address,uint256)": {
        "details": "See {IERC721Enumerable-tokenOfOwnerByIndex}."
      },
      "totalSupply()": {
        "details": "See {IERC721Enumerable-totalSupply}."
      },
      "transferFrom(address,address,uint256)": {
        "details": "See {IERC721-transferFrom}."
      },
      "transferOwnership(address)": {
        "details": "Transfers ownership of the contract to a new account (`newOwner`). Can only be called by the current owner."
      }
    },
    "version": 1
  },
  "userdoc": {
    "kind": "user",
    "methods": {},
    "version": 1
  },
  "storageLayout": {
    "storage": [
      {
        "astId": 2361,
        "contract": "contracts/BadgeNFT.sol:BadgeNFT",
        "label": "_name",
        "offset": 0,
        "slot": "0",
        "type": "t_string_storage"
      },
      {
        "astId": 2363,
        "contract": "contracts/BadgeNFT.sol:BadgeNFT",
        "label": "_symbol",
        "offset": 0,
        "slot": "1",
        "type": "t_string_storage"
      },
      {
        "astId": 2367,
        "contract": "contracts/BadgeNFT.sol:BadgeNFT",
        "label": "_owners",
        "offset": 0,
        "slot": "2",
        "type": "t_mapping(t_uint256,t_address)"
      },
      {
        "astId": 2371,
        "contract": "contracts/BadgeNFT.sol:BadgeNFT",
        "label": "_balances",
        "offset": 0,
        "slot": "3",
        "type": "t_mapping(t_address,t_uint256)"
      },
      {
        "astId": 2375,
        "contract": "contracts/BadgeNFT.sol:BadgeNFT",
        "label": "_tokenApprovals",
        "offset": 0,
        "slot": "4",
        "type": "t_mapping(t_uint256,t_address)"
      },
      {
        "astId": 2381,
        "contract": "contracts/BadgeNFT.sol:BadgeNFT",
        "label": "_operatorApprovals",
        "offset": 0,
        "slot": "5",
        "type": "t_mapping(t_address,t_mapping(t_address,t_bool))"
      },
      {
        "astId": 3686,
        "contract": "contracts/BadgeNFT.sol:BadgeNFT",
        "label": "_tokenURIs",
        "offset": 0,
        "slot": "6",
        "type": "t_mapping(t_uint256,t_string_storage)"
      },
      {
        "astId": 3350,
        "contract": "contracts/BadgeNFT.sol:BadgeNFT",
        "label": "_ownedTokens",
        "offset": 0,
        "slot": "7",
        "type": "t_mapping(t_address,t_mapping(t_uint256,t_uint256))"
      },
      {
        "astId": 3354,
        "contract": "contracts/BadgeNFT.sol:BadgeNFT",
        "label": "_ownedTokensIndex",
        "offset": 0,
        "slot": "8",
        "type": "t_mapping(t_uint256,t_uint256)"
      },
      {
        "astId": 3357,
        "contract": "contracts/BadgeNFT.sol:BadgeNFT",
        "label": "_allTokens",
        "offset": 0,
        "slot": "9",
        "type": "t_array(t_uint256)dyn_storage"
      },
      {
        "astId": 3361,
        "contract": "contracts/BadgeNFT.sol:BadgeNFT",
        "label": "_allTokensIndex",
        "offset": 0,
        "slot": "10",
        "type": "t_mapping(t_uint256,t_uint256)"
      },
      {
        "astId": 273,
        "contract": "contracts/BadgeNFT.sol:BadgeNFT",
        "label": "_owner",
        "offset": 0,
        "slot": "11",
        "type": "t_address"
      },
      {
        "astId": 5656,
        "contract": "contracts/BadgeNFT.sol:BadgeNFT",
        "label": "_tokenIds",
        "offset": 0,
        "slot": "12",
        "type": "t_struct(Counter)4182_storage"
      },
      {
        "astId": 5659,
        "contract": "contracts/BadgeNFT.sol:BadgeNFT",
        "label": "vrfContract",
        "offset": 0,
        "slot": "13",
        "type": "t_contract(RandomNumberConsumer)12224"
      },
      {
        "astId": 5662,
        "contract": "contracts/BadgeNFT.sol:BadgeNFT",
        "label": "verifyContract",
        "offset": 0,
        "slot": "14",
        "type": "t_contract(Verify)12885"
      },
      {
        "astId": 5664,
        "contract": "contracts/BadgeNFT.sol:BadgeNFT",
        "label": "projectNFTAddress",
        "offset": 0,
        "slot": "15",
        "type": "t_address"
      },
      {
        "astId": 5666,
        "contract": "contracts/BadgeNFT.sol:BadgeNFT",
        "label": "pathwayNFTAddress",
        "offset": 0,
        "slot": "16",
        "type": "t_address"
      },
      {
        "astId": 5668,
        "contract": "contracts/BadgeNFT.sol:BadgeNFT",
        "label": "appDiamond",
        "offset": 0,
        "slot": "17",
        "type": "t_address"
      },
      {
        "astId": 5670,
        "contract": "contracts/BadgeNFT.sol:BadgeNFT",
        "label": "adventureFactory",
        "offset": 0,
        "slot": "18",
        "type": "t_address"
      },
      {
        "astId": 5674,
        "contract": "contracts/BadgeNFT.sol:BadgeNFT",
        "label": "statusStrings",
        "offset": 0,
        "slot": "19",
        "type": "t_mapping(t_uint256,t_string_storage)"
      },
      {
        "astId": 5678,
        "contract": "contracts/BadgeNFT.sol:BadgeNFT",
        "label": "badgeMinted",
        "offset": 0,
        "slot": "20",
        "type": "t_mapping(t_string_memory_ptr,t_bool)"
      },
      {
        "astId": 5683,
        "contract": "contracts/BadgeNFT.sol:BadgeNFT",
        "label": "contributors",
        "offset": 0,
        "slot": "21",
        "type": "t_mapping(t_string_memory_ptr,t_array(t_address)dyn_storage)"
      },
      {
        "astId": 5687,
        "contract": "contracts/BadgeNFT.sol:BadgeNFT",
        "label": "creator",
        "offset": 0,
        "slot": "22",
        "type": "t_mapping(t_string_memory_ptr,t_address)"
      },
      {
        "astId": 5691,
        "contract": "contracts/BadgeNFT.sol:BadgeNFT",
        "label": "pathwayIdforBadge",
        "offset": 0,
        "slot": "23",
        "type": "t_mapping(t_string_memory_ptr,t_string_storage)"
      },
      {
        "astId": 5696,
        "contract": "contracts/BadgeNFT.sol:BadgeNFT",
        "label": "status",
        "offset": 0,
        "slot": "24",
        "type": "t_mapping(t_string_memory_ptr,t_enum(BadgeStatus)5806)"
      },
      {
        "astId": 5700,
        "contract": "contracts/BadgeNFT.sol:BadgeNFT",
        "label": "votes",
        "offset": 0,
        "slot": "25",
        "type": "t_mapping(t_string_memory_ptr,t_uint256)"
      },
      {
        "astId": 5704,
        "contract": "contracts/BadgeNFT.sol:BadgeNFT",
        "label": "votesReject",
        "offset": 0,
        "slot": "26",
        "type": "t_mapping(t_string_memory_ptr,t_uint256)"
      },
      {
        "astId": 5710,
        "contract": "contracts/BadgeNFT.sol:BadgeNFT",
        "label": "reviewerVotes",
        "offset": 0,
        "slot": "27",
        "type": "t_mapping(t_string_memory_ptr,t_mapping(t_address,t_bool))"
      },
      {
        "astId": 5714,
        "contract": "contracts/BadgeNFT.sol:BadgeNFT",
        "label": "nativeRewards",
        "offset": 0,
        "slot": "28",
        "type": "t_mapping(t_string_memory_ptr,t_uint256)"
      },
      {
        "astId": 5720,
        "contract": "contracts/BadgeNFT.sol:BadgeNFT",
        "label": "erc20Amounts",
        "offset": 0,
        "slot": "29",
        "type": "t_mapping(t_string_memory_ptr,t_mapping(t_address,t_uint256))"
      },
      {
        "astId": 5724,
        "contract": "contracts/BadgeNFT.sol:BadgeNFT",
        "label": "nativeRefundClaimed",
        "offset": 0,
        "slot": "30",
        "type": "t_mapping(t_string_memory_ptr,t_bool)"
      },
      {
        "astId": 5730,
        "contract": "contracts/BadgeNFT.sol:BadgeNFT",
        "label": "erc20RefundClaimed",
        "offset": 0,
        "slot": "31",
        "type": "t_mapping(t_string_memory_ptr,t_mapping(t_address,t_bool))"
      },
      {
        "astId": 5734,
        "contract": "contracts/BadgeNFT.sol:BadgeNFT",
        "label": "numUsersRewardPerBadge",
        "offset": 0,
        "slot": "32",
        "type": "t_mapping(t_string_memory_ptr,t_uint256)"
      },
      {
        "astId": 5738,
        "contract": "contracts/BadgeNFT.sol:BadgeNFT",
        "label": "currentNumUsersRewardPerBadgeNative",
        "offset": 0,
        "slot": "33",
        "type": "t_mapping(t_string_memory_ptr,t_uint256)"
      },
      {
        "astId": 5744,
        "contract": "contracts/BadgeNFT.sol:BadgeNFT",
        "label": "currentNumUsersRewardPerBadgeERC20",
        "offset": 0,
        "slot": "34",
        "type": "t_mapping(t_string_memory_ptr,t_mapping(t_address,t_uint256))"
      },
      {
        "astId": 5750,
        "contract": "contracts/BadgeNFT.sol:BadgeNFT",
        "label": "nonces",
        "offset": 0,
        "slot": "35",
        "type": "t_mapping(t_string_memory_ptr,t_mapping(t_address,t_uint256))"
      },
      {
        "astId": 5754,
        "contract": "contracts/BadgeNFT.sol:BadgeNFT",
        "label": "adventurerAddress",
        "offset": 0,
        "slot": "36",
        "type": "t_mapping(t_string_memory_ptr,t_address)"
      },
      {
        "astId": 5762,
        "contract": "contracts/BadgeNFT.sol:BadgeNFT",
        "label": "mintTrackerByBadgeIdVersionMinter",
        "offset": 0,
        "slot": "37",
        "type": "t_mapping(t_string_memory_ptr,t_mapping(t_uint256,t_mapping(t_address,t_bool)))"
      },
      {
        "astId": 5769,
        "contract": "contracts/BadgeNFT.sol:BadgeNFT",
        "label": "allMintersPerBadgeAndVersion",
        "offset": 0,
        "slot": "38",
        "type": "t_mapping(t_string_memory_ptr,t_mapping(t_uint256,t_array(t_address)dyn_storage))"
      },
      {
        "astId": 5776,
        "contract": "contracts/BadgeNFT.sol:BadgeNFT",
        "label": "allTokenIdsPerBadgeAndVersion",
        "offset": 0,
        "slot": "39",
        "type": "t_mapping(t_string_memory_ptr,t_mapping(t_uint256,t_array(t_uint256)dyn_storage))"
      },
      {
        "astId": 5781,
        "contract": "contracts/BadgeNFT.sol:BadgeNFT",
        "label": "tokenInfoById",
        "offset": 0,
        "slot": "40",
        "type": "t_mapping(t_uint256,t_struct(TokenInfo)5811_storage)"
      },
      {
        "astId": 5789,
        "contract": "contracts/BadgeNFT.sol:BadgeNFT",
        "label": "userRewardedForBadgeERC20",
        "offset": 0,
        "slot": "41",
        "type": "t_mapping(t_string_memory_ptr,t_mapping(t_address,t_mapping(t_address,t_bool)))"
      },
      {
        "astId": 5795,
        "contract": "contracts/BadgeNFT.sol:BadgeNFT",
        "label": "userRewardedForBadgeNative",
        "offset": 0,
        "slot": "42",
        "type": "t_mapping(t_string_memory_ptr,t_mapping(t_address,t_bool))"
      },
      {
        "astId": 5798,
        "contract": "contracts/BadgeNFT.sol:BadgeNFT",
        "label": "fee",
        "offset": 0,
        "slot": "43",
        "type": "t_uint256"
      },
      {
        "astId": 5801,
        "contract": "contracts/BadgeNFT.sol:BadgeNFT",
        "label": "creatorFee",
        "offset": 0,
        "slot": "44",
        "type": "t_uint256"
      }
    ],
    "types": {
      "t_address": {
        "encoding": "inplace",
        "label": "address",
        "numberOfBytes": "20"
      },
      "t_array(t_address)dyn_storage": {
        "base": "t_address",
        "encoding": "dynamic_array",
        "label": "address[]",
        "numberOfBytes": "32"
      },
      "t_array(t_uint256)dyn_storage": {
        "base": "t_uint256",
        "encoding": "dynamic_array",
        "label": "uint256[]",
        "numberOfBytes": "32"
      },
      "t_bool": {
        "encoding": "inplace",
        "label": "bool",
        "numberOfBytes": "1"
      },
      "t_contract(RandomNumberConsumer)12224": {
        "encoding": "inplace",
        "label": "contract RandomNumberConsumer",
        "numberOfBytes": "20"
      },
      "t_contract(Verify)12885": {
        "encoding": "inplace",
        "label": "contract Verify",
        "numberOfBytes": "20"
      },
      "t_enum(BadgeStatus)5806": {
        "encoding": "inplace",
        "label": "enum BadgeNFT.BadgeStatus",
        "numberOfBytes": "1"
      },
      "t_mapping(t_address,t_bool)": {
        "encoding": "mapping",
        "key": "t_address",
        "label": "mapping(address => bool)",
        "numberOfBytes": "32",
        "value": "t_bool"
      },
      "t_mapping(t_address,t_mapping(t_address,t_bool))": {
        "encoding": "mapping",
        "key": "t_address",
        "label": "mapping(address => mapping(address => bool))",
        "numberOfBytes": "32",
        "value": "t_mapping(t_address,t_bool)"
      },
      "t_mapping(t_address,t_mapping(t_uint256,t_uint256))": {
        "encoding": "mapping",
        "key": "t_address",
        "label": "mapping(address => mapping(uint256 => uint256))",
        "numberOfBytes": "32",
        "value": "t_mapping(t_uint256,t_uint256)"
      },
      "t_mapping(t_address,t_uint256)": {
        "encoding": "mapping",
        "key": "t_address",
        "label": "mapping(address => uint256)",
        "numberOfBytes": "32",
        "value": "t_uint256"
      },
      "t_mapping(t_string_memory_ptr,t_address)": {
        "encoding": "mapping",
        "key": "t_string_memory_ptr",
        "label": "mapping(string => address)",
        "numberOfBytes": "32",
        "value": "t_address"
      },
      "t_mapping(t_string_memory_ptr,t_array(t_address)dyn_storage)": {
        "encoding": "mapping",
        "key": "t_string_memory_ptr",
        "label": "mapping(string => address[])",
        "numberOfBytes": "32",
        "value": "t_array(t_address)dyn_storage"
      },
      "t_mapping(t_string_memory_ptr,t_bool)": {
        "encoding": "mapping",
        "key": "t_string_memory_ptr",
        "label": "mapping(string => bool)",
        "numberOfBytes": "32",
        "value": "t_bool"
      },
      "t_mapping(t_string_memory_ptr,t_enum(BadgeStatus)5806)": {
        "encoding": "mapping",
        "key": "t_string_memory_ptr",
        "label": "mapping(string => enum BadgeNFT.BadgeStatus)",
        "numberOfBytes": "32",
        "value": "t_enum(BadgeStatus)5806"
      },
      "t_mapping(t_string_memory_ptr,t_mapping(t_address,t_bool))": {
        "encoding": "mapping",
        "key": "t_string_memory_ptr",
        "label": "mapping(string => mapping(address => bool))",
        "numberOfBytes": "32",
        "value": "t_mapping(t_address,t_bool)"
      },
      "t_mapping(t_string_memory_ptr,t_mapping(t_address,t_mapping(t_address,t_bool)))": {
        "encoding": "mapping",
        "key": "t_string_memory_ptr",
        "label": "mapping(string => mapping(address => mapping(address => bool)))",
        "numberOfBytes": "32",
        "value": "t_mapping(t_address,t_mapping(t_address,t_bool))"
      },
      "t_mapping(t_string_memory_ptr,t_mapping(t_address,t_uint256))": {
        "encoding": "mapping",
        "key": "t_string_memory_ptr",
        "label": "mapping(string => mapping(address => uint256))",
        "numberOfBytes": "32",
        "value": "t_mapping(t_address,t_uint256)"
      },
      "t_mapping(t_string_memory_ptr,t_mapping(t_uint256,t_array(t_address)dyn_storage))": {
        "encoding": "mapping",
        "key": "t_string_memory_ptr",
        "label": "mapping(string => mapping(uint256 => address[]))",
        "numberOfBytes": "32",
        "value": "t_mapping(t_uint256,t_array(t_address)dyn_storage)"
      },
      "t_mapping(t_string_memory_ptr,t_mapping(t_uint256,t_array(t_uint256)dyn_storage))": {
        "encoding": "mapping",
        "key": "t_string_memory_ptr",
        "label": "mapping(string => mapping(uint256 => uint256[]))",
        "numberOfBytes": "32",
        "value": "t_mapping(t_uint256,t_array(t_uint256)dyn_storage)"
      },
      "t_mapping(t_string_memory_ptr,t_mapping(t_uint256,t_mapping(t_address,t_bool)))": {
        "encoding": "mapping",
        "key": "t_string_memory_ptr",
        "label": "mapping(string => mapping(uint256 => mapping(address => bool)))",
        "numberOfBytes": "32",
        "value": "t_mapping(t_uint256,t_mapping(t_address,t_bool))"
      },
      "t_mapping(t_string_memory_ptr,t_string_storage)": {
        "encoding": "mapping",
        "key": "t_string_memory_ptr",
        "label": "mapping(string => string)",
        "numberOfBytes": "32",
        "value": "t_string_storage"
      },
      "t_mapping(t_string_memory_ptr,t_uint256)": {
        "encoding": "mapping",
        "key": "t_string_memory_ptr",
        "label": "mapping(string => uint256)",
        "numberOfBytes": "32",
        "value": "t_uint256"
      },
      "t_mapping(t_uint256,t_address)": {
        "encoding": "mapping",
        "key": "t_uint256",
        "label": "mapping(uint256 => address)",
        "numberOfBytes": "32",
        "value": "t_address"
      },
      "t_mapping(t_uint256,t_array(t_address)dyn_storage)": {
        "encoding": "mapping",
        "key": "t_uint256",
        "label": "mapping(uint256 => address[])",
        "numberOfBytes": "32",
        "value": "t_array(t_address)dyn_storage"
      },
      "t_mapping(t_uint256,t_array(t_uint256)dyn_storage)": {
        "encoding": "mapping",
        "key": "t_uint256",
        "label": "mapping(uint256 => uint256[])",
        "numberOfBytes": "32",
        "value": "t_array(t_uint256)dyn_storage"
      },
      "t_mapping(t_uint256,t_mapping(t_address,t_bool))": {
        "encoding": "mapping",
        "key": "t_uint256",
        "label": "mapping(uint256 => mapping(address => bool))",
        "numberOfBytes": "32",
        "value": "t_mapping(t_address,t_bool)"
      },
      "t_mapping(t_uint256,t_string_storage)": {
        "encoding": "mapping",
        "key": "t_uint256",
        "label": "mapping(uint256 => string)",
        "numberOfBytes": "32",
        "value": "t_string_storage"
      },
      "t_mapping(t_uint256,t_struct(TokenInfo)5811_storage)": {
        "encoding": "mapping",
        "key": "t_uint256",
        "label": "mapping(uint256 => struct BadgeNFT.TokenInfo)",
        "numberOfBytes": "32",
        "value": "t_struct(TokenInfo)5811_storage"
      },
      "t_mapping(t_uint256,t_uint256)": {
        "encoding": "mapping",
        "key": "t_uint256",
        "label": "mapping(uint256 => uint256)",
        "numberOfBytes": "32",
        "value": "t_uint256"
      },
      "t_string_memory_ptr": {
        "encoding": "bytes",
        "label": "string",
        "numberOfBytes": "32"
      },
      "t_string_storage": {
        "encoding": "bytes",
        "label": "string",
        "numberOfBytes": "32"
      },
      "t_struct(Counter)4182_storage": {
        "encoding": "inplace",
        "label": "struct Counters.Counter",
        "members": [
          {
            "astId": 4181,
            "contract": "contracts/BadgeNFT.sol:BadgeNFT",
            "label": "_value",
            "offset": 0,
            "slot": "0",
            "type": "t_uint256"
          }
        ],
        "numberOfBytes": "32"
      },
      "t_struct(TokenInfo)5811_storage": {
        "encoding": "inplace",
        "label": "struct BadgeNFT.TokenInfo",
        "members": [
          {
            "astId": 5808,
            "contract": "contracts/BadgeNFT.sol:BadgeNFT",
            "label": "badgeId",
            "offset": 0,
            "slot": "0",
            "type": "t_string_storage"
          },
          {
            "astId": 5810,
            "contract": "contracts/BadgeNFT.sol:BadgeNFT",
            "label": "version",
            "offset": 0,
            "slot": "1",
            "type": "t_uint256"
          }
        ],
        "numberOfBytes": "64"
      },
      "t_uint256": {
        "encoding": "inplace",
        "label": "uint256",
        "numberOfBytes": "32"
      }
    }
  }
}