{
  "address": "0x4B4812E571CC967EB8EC3D4FEe874e56301B0C76",
  "abi": [
    {
      "inputs": [
        {
          "internalType": "address",
          "name": "_vrfAddress",
          "type": "address"
        },
        {
          "internalType": "address",
          "name": "_projectNFTAddress",
          "type": "address"
        },
        {
          "internalType": "address",
          "name": "_verifyAddress",
          "type": "address"
        }
      ],
      "stateMutability": "nonpayable",
      "type": "constructor"
    },
    {
      "anonymous": false,
      "inputs": [
        {
          "indexed": true,
          "internalType": "address",
          "name": "owner",
          "type": "address"
        },
        {
          "indexed": true,
          "internalType": "address",
          "name": "approved",
          "type": "address"
        },
        {
          "indexed": true,
          "internalType": "uint256",
          "name": "tokenId",
          "type": "uint256"
        }
      ],
      "name": "Approval",
      "type": "event"
    },
    {
      "anonymous": false,
      "inputs": [
        {
          "indexed": true,
          "internalType": "address",
          "name": "owner",
          "type": "address"
        },
        {
          "indexed": true,
          "internalType": "address",
          "name": "operator",
          "type": "address"
        },
        {
          "indexed": false,
          "internalType": "bool",
          "name": "approved",
          "type": "bool"
        }
      ],
      "name": "ApprovalForAll",
      "type": "event"
    },
    {
      "anonymous": false,
      "inputs": [
        {
          "indexed": true,
          "internalType": "address",
          "name": "_to",
          "type": "address"
        },
        {
          "indexed": true,
          "internalType": "string",
          "name": "_tokenURI",
          "type": "string"
        },
        {
          "indexed": true,
          "internalType": "string",
          "name": "_badgeId",
          "type": "string"
        }
      ],
      "name": "NFTPathwayMinted",
      "type": "event"
    },
    {
      "anonymous": false,
      "inputs": [
        {
          "indexed": true,
          "internalType": "address",
          "name": "previousOwner",
          "type": "address"
        },
        {
          "indexed": true,
          "internalType": "address",
          "name": "newOwner",
          "type": "address"
        }
      ],
      "name": "OwnershipTransferred",
      "type": "event"
    },
    {
      "anonymous": false,
      "inputs": [
        {
          "indexed": true,
          "internalType": "string",
          "name": "_pathwayId",
          "type": "string"
        }
      ],
      "name": "PathwayApproved",
      "type": "event"
    },
    {
      "anonymous": false,
      "inputs": [
        {
          "indexed": false,
          "internalType": "address",
          "name": "_caller",
          "type": "address"
        },
        {
          "indexed": false,
          "internalType": "uint256",
          "name": "_value",
          "type": "uint256"
        }
      ],
      "name": "ReceiveCalled",
      "type": "event"
    },
    {
      "anonymous": false,
      "inputs": [
        {
          "indexed": true,
          "internalType": "address",
          "name": "from",
          "type": "address"
        },
        {
          "indexed": true,
          "internalType": "address",
          "name": "to",
          "type": "address"
        },
        {
          "indexed": true,
          "internalType": "uint256",
          "name": "tokenId",
          "type": "uint256"
        }
      ],
      "name": "Transfer",
      "type": "event"
    },
    {
      "inputs": [
        {
          "internalType": "address",
          "name": "to",
          "type": "address"
        },
        {
          "internalType": "uint256",
          "name": "tokenId",
          "type": "uint256"
        }
      ],
      "name": "approve",
      "outputs": [],
      "stateMutability": "nonpayable",
      "type": "function"
    },
    {
      "inputs": [
        {
          "internalType": "address",
          "name": "owner",
          "type": "address"
        }
      ],
      "name": "balanceOf",
      "outputs": [
        {
          "internalType": "uint256",
          "name": "",
          "type": "uint256"
        }
      ],
      "stateMutability": "view",
      "type": "function"
    },
    {
      "inputs": [
        {
          "internalType": "string",
          "name": "_tokenURI",
          "type": "string"
        },
        {
          "internalType": "string",
          "name": "_pathwayId",
          "type": "string"
        },
        {
          "internalType": "string",
          "name": "_projectId",
          "type": "string"
        },
        {
          "internalType": "bytes32[2]",
          "name": "r",
          "type": "bytes32[2]"
        },
        {
          "internalType": "bytes32[2]",
          "name": "s",
          "type": "bytes32[2]"
        },
        {
          "internalType": "uint8[2]",
          "name": "v",
          "type": "uint8[2]"
        },
        {
          "internalType": "uint256",
          "name": "votesNeeded",
          "type": "uint256"
        }
      ],
      "name": "createToken",
      "outputs": [
        {
          "internalType": "uint256[]",
          "name": "",
          "type": "uint256[]"
        }
      ],
      "stateMutability": "nonpayable",
      "type": "function"
    },
    {
      "inputs": [
        {
          "internalType": "uint256",
          "name": "tokenId",
          "type": "uint256"
        }
      ],
      "name": "getApproved",
      "outputs": [
        {
          "internalType": "address",
          "name": "",
          "type": "address"
        }
      ],
      "stateMutability": "view",
      "type": "function"
    },
    {
      "inputs": [
        {
          "internalType": "address",
          "name": "owner",
          "type": "address"
        },
        {
          "internalType": "address",
          "name": "operator",
          "type": "address"
        }
      ],
      "name": "isApprovedForAll",
      "outputs": [
        {
          "internalType": "bool",
          "name": "",
          "type": "bool"
        }
      ],
      "stateMutability": "view",
      "type": "function"
    },
    {
      "inputs": [],
      "name": "name",
      "outputs": [
        {
          "internalType": "string",
          "name": "",
          "type": "string"
        }
      ],
      "stateMutability": "view",
      "type": "function"
    },
    {
      "inputs": [],
      "name": "owner",
      "outputs": [
        {
          "internalType": "address",
          "name": "",
          "type": "address"
        }
      ],
      "stateMutability": "view",
      "type": "function"
    },
    {
      "inputs": [
        {
          "internalType": "uint256",
          "name": "tokenId",
          "type": "uint256"
        }
      ],
      "name": "ownerOf",
      "outputs": [
        {
          "internalType": "address",
          "name": "",
          "type": "address"
        }
      ],
      "stateMutability": "view",
      "type": "function"
    },
    {
      "inputs": [
        {
          "internalType": "string",
          "name": "",
          "type": "string"
        }
      ],
      "name": "pathwayMinted",
      "outputs": [
        {
          "internalType": "bool",
          "name": "",
          "type": "bool"
        }
      ],
      "stateMutability": "view",
      "type": "function"
    },
    {
      "inputs": [
        {
          "internalType": "string",
          "name": "",
          "type": "string"
        }
      ],
      "name": "projectIdforPathway",
      "outputs": [
        {
          "internalType": "string",
          "name": "",
          "type": "string"
        }
      ],
      "stateMutability": "view",
      "type": "function"
    },
    {
      "inputs": [],
      "name": "renounceOwnership",
      "outputs": [],
      "stateMutability": "nonpayable",
      "type": "function"
    },
    {
      "inputs": [
        {
          "internalType": "string",
          "name": "",
          "type": "string"
        },
        {
          "internalType": "address",
          "name": "",
          "type": "address"
        }
      ],
      "name": "reviewerVotes",
      "outputs": [
        {
          "internalType": "bool",
          "name": "",
          "type": "bool"
        }
      ],
      "stateMutability": "view",
      "type": "function"
    },
    {
      "inputs": [
        {
          "internalType": "address",
          "name": "from",
          "type": "address"
        },
        {
          "internalType": "address",
          "name": "to",
          "type": "address"
        },
        {
          "internalType": "uint256",
          "name": "tokenId",
          "type": "uint256"
        }
      ],
      "name": "safeTransferFrom",
      "outputs": [],
      "stateMutability": "nonpayable",
      "type": "function"
    },
    {
      "inputs": [
        {
          "internalType": "address",
          "name": "from",
          "type": "address"
        },
        {
          "internalType": "address",
          "name": "to",
          "type": "address"
        },
        {
          "internalType": "uint256",
          "name": "tokenId",
          "type": "uint256"
        },
        {
          "internalType": "bytes",
          "name": "_data",
          "type": "bytes"
        }
      ],
      "name": "safeTransferFrom",
      "outputs": [],
      "stateMutability": "nonpayable",
      "type": "function"
    },
    {
      "inputs": [
        {
          "internalType": "address",
          "name": "operator",
          "type": "address"
        },
        {
          "internalType": "bool",
          "name": "approved",
          "type": "bool"
        }
      ],
      "name": "setApprovalForAll",
      "outputs": [],
      "stateMutability": "nonpayable",
      "type": "function"
    },
    {
      "inputs": [
        {
          "internalType": "string",
          "name": "",
          "type": "string"
        }
      ],
      "name": "status",
      "outputs": [
        {
          "internalType": "enum PathwayNFT.PathwayStatus",
          "name": "",
          "type": "uint8"
        }
      ],
      "stateMutability": "view",
      "type": "function"
    },
    {
      "inputs": [
        {
          "internalType": "uint256",
          "name": "",
          "type": "uint256"
        }
      ],
      "name": "statusStrings",
      "outputs": [
        {
          "internalType": "string",
          "name": "",
          "type": "string"
        }
      ],
      "stateMutability": "view",
      "type": "function"
    },
    {
      "inputs": [
        {
          "internalType": "bytes4",
          "name": "interfaceId",
          "type": "bytes4"
        }
      ],
      "name": "supportsInterface",
      "outputs": [
        {
          "internalType": "bool",
          "name": "",
          "type": "bool"
        }
      ],
      "stateMutability": "view",
      "type": "function"
    },
    {
      "inputs": [],
      "name": "symbol",
      "outputs": [
        {
          "internalType": "string",
          "name": "",
          "type": "string"
        }
      ],
      "stateMutability": "view",
      "type": "function"
    },
    {
      "inputs": [
        {
          "internalType": "uint256",
          "name": "index",
          "type": "uint256"
        }
      ],
      "name": "tokenByIndex",
      "outputs": [
        {
          "internalType": "uint256",
          "name": "",
          "type": "uint256"
        }
      ],
      "stateMutability": "view",
      "type": "function"
    },
    {
      "inputs": [
        {
          "internalType": "address",
          "name": "owner",
          "type": "address"
        },
        {
          "internalType": "uint256",
          "name": "index",
          "type": "uint256"
        }
      ],
      "name": "tokenOfOwnerByIndex",
      "outputs": [
        {
          "internalType": "uint256",
          "name": "",
          "type": "uint256"
        }
      ],
      "stateMutability": "view",
      "type": "function"
    },
    {
      "inputs": [
        {
          "internalType": "uint256",
          "name": "tokenId",
          "type": "uint256"
        }
      ],
      "name": "tokenURI",
      "outputs": [
        {
          "internalType": "string",
          "name": "",
          "type": "string"
        }
      ],
      "stateMutability": "view",
      "type": "function"
    },
    {
      "inputs": [],
      "name": "totalSupply",
      "outputs": [
        {
          "internalType": "uint256",
          "name": "",
          "type": "uint256"
        }
      ],
      "stateMutability": "view",
      "type": "function"
    },
    {
      "inputs": [
        {
          "internalType": "address",
          "name": "from",
          "type": "address"
        },
        {
          "internalType": "address",
          "name": "to",
          "type": "address"
        },
        {
          "internalType": "uint256",
          "name": "tokenId",
          "type": "uint256"
        }
      ],
      "name": "transferFrom",
      "outputs": [],
      "stateMutability": "nonpayable",
      "type": "function"
    },
    {
      "inputs": [
        {
          "internalType": "address",
          "name": "newOwner",
          "type": "address"
        }
      ],
      "name": "transferOwnership",
      "outputs": [],
      "stateMutability": "nonpayable",
      "type": "function"
    },
    {
      "inputs": [
        {
          "internalType": "address[]",
          "name": "_contributors",
          "type": "address[]"
        },
        {
          "internalType": "string",
          "name": "_pathwayId",
          "type": "string"
        },
        {
          "internalType": "string",
          "name": "_projectId",
          "type": "string"
        },
        {
          "internalType": "bytes32[2]",
          "name": "r",
          "type": "bytes32[2]"
        },
        {
          "internalType": "bytes32[2]",
          "name": "s",
          "type": "bytes32[2]"
        },
        {
          "internalType": "uint8[2]",
          "name": "v",
          "type": "uint8[2]"
        },
        {
          "internalType": "uint256",
          "name": "votesNeeded",
          "type": "uint256"
        }
      ],
      "name": "voteForApproval",
      "outputs": [],
      "stateMutability": "nonpayable",
      "type": "function"
    },
    {
      "inputs": [
        {
          "internalType": "string",
          "name": "",
          "type": "string"
        }
      ],
      "name": "votes",
      "outputs": [
        {
          "internalType": "uint256",
          "name": "",
          "type": "uint256"
        }
      ],
      "stateMutability": "view",
      "type": "function"
    },
    {
      "inputs": [
        {
          "internalType": "address",
          "name": "_owner",
          "type": "address"
        }
      ],
      "name": "walletOfOwner",
      "outputs": [
        {
          "internalType": "uint256[]",
          "name": "",
          "type": "uint256[]"
        }
      ],
      "stateMutability": "view",
      "type": "function"
    },
    {
      "stateMutability": "payable",
      "type": "receive"
    }
  ],
  "transactionHash": "0x6888a99ec7cf884a1991ec6ca32756b90305ca10d471ce35b4bbd8893da0989b",
  "args": [
    "0xd95dD181D0e75E064b71457b23ADb8C61E1b2333",
    "0xD031A08028561EC2329d2CA22595448E31927D1A",
    "0xc29134A28105016baa92DEb0FF32f868BC5F1d52"
  ],
  "solcInputHash": "8fd304358dbe062342bf4ba0ef2216b2",
  "bytecode": "0x60806040523480156200001157600080fd5b506040516200360738038062003607833981016040819052620000349162000384565b604080518082018252600d81526c64436f6d70617373426164676560981b6020808301918252835180850190945260068452652221a7a6a82160d11b9084015281519192916200008791600091620002c1565b5080516200009d906001906020840190620002c1565b505050620000ba620000b46200026b60201b60201c565b6200026f565b600d80546001600160a01b038086166001600160a01b031992831617909255600e8054848416908316179055600f80549285169290911691909117905560408051808201909152600b81526a1393d391561254d511539560aa1b60208083019182526000805260109052905162000153917f6e0956cda88cad152e89927e53611735b61a5c762d1428573c6931b0a5efcb0191620002c1565b5060408051808201909152600781526650454e44494e4760c81b60208083019182526001600052601090529051620001ad917f8c6065603763fec3f5742441d3833f3f43b982453612d76adb39a885e3006b5f91620002c1565b5060408051808201909152600681526511115392515160d21b6020808301918252600260005260109052905162000206917f853b2fefe141400fef543280f93d98bd49996069f632d0d20236afeeed8e46a291620002c1565b506040805180820190915260088152671054141493d5915160c21b6020808301918252600360005260109052905162000261917fb3edd0d534d647cffdae9f1294f11ad21f3fcf2814bea44c92bbb8d384a57d9e91620002c1565b505050506200040b565b3390565b600b80546001600160a01b038381166001600160a01b0319831681179093556040519116919082907f8be0079c531659141344cd1fd0a4f28419497f9722a3daafe3b4186f6b6457e090600090a35050565b828054620002cf90620003ce565b90600052602060002090601f016020900481019282620002f357600085556200033e565b82601f106200030e57805160ff19168380011785556200033e565b828001600101855582156200033e579182015b828111156200033e57825182559160200191906001019062000321565b506200034c92915062000350565b5090565b5b808211156200034c576000815560010162000351565b80516001600160a01b03811681146200037f57600080fd5b919050565b6000806000606084860312156200039a57600080fd5b620003a58462000367565b9250620003b56020850162000367565b9150620003c56040850162000367565b90509250925092565b600181811c90821680620003e357607f821691505b602082108114156200040557634e487b7160e01b600052602260045260246000fd5b50919050565b6131ec806200041b6000396000f3fe6080604052600436106101bb5760003560e01c806370a08231116100ec578063b88d4fde1161008a578063e8ca64f411610064578063e8ca64f414610582578063e985e9c5146105ca578063ebcb309a14610613578063f2fde38b1461063357600080fd5b8063b88d4fde1461050a578063b99ef1fa1461052a578063c87b56dd1461056257600080fd5b80638da5cb5b116100c65780638da5cb5b1461046c57806395d89b411461048a5780639e1b567c1461049f578063a22cb465146104ea57600080fd5b806370a0823114610417578063715018a6146104375780638b11cf8a1461044c57600080fd5b806323b872dd11610159578063438b630011610133578063438b63001461037c5780634f6ccce71461039c5780635398ba74146103bc5780636352211e146103f757600080fd5b806323b872dd1461031c5780632f745c591461033c57806342842e0e1461035c57600080fd5b8063081812fc11610195578063081812fc14610276578063095ea7b3146102ae5780630d0654d9146102d057806318160ddd146102fd57600080fd5b806301ffc9a7146101ff57806304dcd3001461023457806306fdde031461026157600080fd5b366101fa57604080513381523460208201527f64c983f10188c30a885d77970aa5aae9a86e80ef9b459ad33cc620eb5999e070910160405180910390a1005b600080fd5b34801561020b57600080fd5b5061021f61021a366004612bff565b610653565b60405190151581526020015b60405180910390f35b34801561024057600080fd5b5061025461024f366004612d48565b610664565b60405161022b9190612f25565b34801561026d57600080fd5b506102546106fe565b34801561028257600080fd5b50610296610291366004612d48565b610790565b6040516001600160a01b03909116815260200161022b565b3480156102ba57600080fd5b506102ce6102c9366004612a79565b61081d565b005b3480156102dc57600080fd5b506102f06102eb366004612cb3565b610933565b60405161022b9190612eb9565b34801561030957600080fd5b506009545b60405190815260200161022b565b34801561032857600080fd5b506102ce61033736600461298a565b610ed4565b34801561034857600080fd5b5061030e610357366004612a79565b610f05565b34801561036857600080fd5b506102ce61037736600461298a565b610f9b565b34801561038857600080fd5b506102f061039736600461293c565b610fb6565b3480156103a857600080fd5b5061030e6103b7366004612d48565b611058565b3480156103c857600080fd5b5061021f6103d7366004612c39565b805160208183018101805160118252928201919093012091525460ff1681565b34801561040357600080fd5b50610296610412366004612d48565b6110eb565b34801561042357600080fd5b5061030e61043236600461293c565b611162565b34801561044357600080fd5b506102ce6111e9565b34801561045857600080fd5b50610254610467366004612c39565b61124f565b34801561047857600080fd5b50600b546001600160a01b0316610296565b34801561049657600080fd5b50610254611273565b3480156104ab57600080fd5b5061021f6104ba366004612c6e565b81516020818401810180516017825292820194820194909420919093529091526000908152604090205460ff1681565b3480156104f657600080fd5b506102ce610505366004612a42565b611282565b34801561051657600080fd5b506102ce6105253660046129c6565b611347565b34801561053657600080fd5b5061030e610545366004612c39565b805160208183018101805160168252928201919093012091525481565b34801561056e57600080fd5b5061025461057d366004612d48565b61137f565b34801561058e57600080fd5b506105bd61059d366004612c39565b805160208183018101805160158252928201919093012091525460ff1681565b60405161022b9190612efd565b3480156105d657600080fd5b5061021f6105e5366004612957565b6001600160a01b03918216600090815260056020908152604080832093909416825291909152205460ff1690565b34801561061f57600080fd5b506102ce61062e366004612aa3565b61138a565b34801561063f57600080fd5b506102ce61064e36600461293c565b6119a5565b600061065e82611a70565b92915050565b6010602052600090815260409020805461067d906130a4565b80601f01602080910402602001604051908101604052809291908181526020018280546106a9906130a4565b80156106f65780601f106106cb576101008083540402835291602001916106f6565b820191906000526020600020905b8154815290600101906020018083116106d957829003601f168201915b505050505081565b60606000805461070d906130a4565b80601f0160208091040260200160405190810160405280929190818152602001828054610739906130a4565b80156107865780601f1061075b57610100808354040283529160200191610786565b820191906000526020600020905b81548152906001019060200180831161076957829003601f168201915b5050505050905090565b600061079b82611a95565b6108015760405162461bcd60e51b815260206004820152602c60248201527f4552433732313a20617070726f76656420717565727920666f72206e6f6e657860448201526b34b9ba32b73a103a37b5b2b760a11b60648201526084015b60405180910390fd5b506000908152600460205260409020546001600160a01b031690565b6000610828826110eb565b9050806001600160a01b0316836001600160a01b031614156108965760405162461bcd60e51b815260206004820152602160248201527f4552433732313a20617070726f76616c20746f2063757272656e74206f776e656044820152603960f91b60648201526084016107f8565b336001600160a01b03821614806108b257506108b281336105e5565b6109245760405162461bcd60e51b815260206004820152603860248201527f4552433732313a20617070726f76652063616c6c6572206973206e6f74206f7760448201527f6e6572206e6f7220617070726f76656420666f7220616c6c000000000000000060648201526084016107f8565b61092e8383611ab2565b505050565b60606011876040516109459190612d8d565b9081526040519081900360200190205460ff16156109965760405162461bcd60e51b815260206004820152600e60248201526d185b1c9958591e481b5a5b9d195960921b60448201526064016107f8565b600e54855185518551604051630903288360e11b81526000946001600160a01b0316936312065106936109d59333938f938f9390929091600401612e15565b602060405180830381600087803b1580156109ef57600080fd5b505af1158015610a03573d6000803e3d6000fd5b505050506040513d601f19601f82011682018060405250810190610a279190612be2565b905080610a845760405162461bcd60e51b815260206004820152602560248201527f73656e646572206973206e6f7420617070726f7665642070726f6a656374206d60448201526434b73a32b960d91b60648201526084016107f8565b6001601589604051610a969190612d8d565b9081526040519081900360200190205460ff166003811115610aba57610aba61313a565b1415610c5457601688604051610ad09190612d8d565b908152602001604051809103902054831115610b215760405162461bcd60e51b815260206004820152601060248201526f6e6f7420656e6f75676820766f74657360801b60448201526064016107f8565b600e546000906001600160a01b031663466cc53e338b878b600160200201518b600160200201518b600160200201516040518763ffffffff1660e01b8152600401610b7196959493929190612e6d565b602060405180830381600087803b158015610b8b57600080fd5b505af1158015610b9f573d6000803e3d6000fd5b505050506040513d601f19601f82011682018060405250810190610bc39190612be2565b905080610c125760405162461bcd60e51b815260206004820152601b60248201527f696e636f727265637420766f746573206e65656465642073656e74000000000060448201526064016107f8565b600360158a604051610c249190612d8d565b908152604051908190036020019020805460ff19166001836003811115610c4d57610c4d61313a565b0217905550505b6003601589604051610c669190612d8d565b9081526040519081900360200190205460ff166003811115610c8a57610c8a61313a565b14610ced5760405162461bcd60e51b815260206004820152602d60248201527f63616e206f6e6c79206d696e7420666f7220706174687761797320696e20617060448201526c70726f7665642073746174757360981b60648201526084016107f8565b6000601289604051610cff9190612d8d565b9081526040519081900360200190205467ffffffffffffffff811115610d2757610d2761317c565b604051908082528060200260200182016040528015610d50578160200160208202803683370190505b5090506000805b60128b604051610d679190612d8d565b90815260405190819003602001902054811015610e9257610d8c600c80546001019055565b600c549150610dde60128c604051610da49190612d8d565b90815260200160405180910390208281548110610dc357610dc3613166565b6000918252602090912001546001600160a01b031683611b20565b610de8828d611c5f565b8a604051610df69190612d8d565b60405180910390208c604051610e0c9190612d8d565b604051809103902060128d604051610e249190612d8d565b90815260200160405180910390208381548110610e4357610e43613166565b60009182526020822001546040516001600160a01b03909116917f323af8e82495eba529e101c6ea8614b66233683ec49766c746a7203ba276185e91a480610e8a816130df565b915050610d57565b50600160118b604051610ea59190612d8d565b908152604051908190036020019020805491151560ff1990921691909117905550915050979650505050505050565b610ede3382611cea565b610efa5760405162461bcd60e51b81526004016107f890612f8a565b61092e838383611dd4565b6000610f1083611162565b8210610f725760405162461bcd60e51b815260206004820152602b60248201527f455243373231456e756d657261626c653a206f776e657220696e646578206f7560448201526a74206f6620626f756e647360a81b60648201526084016107f8565b506001600160a01b03919091166000908152600760209081526040808320938352929052205490565b61092e83838360405180602001604052806000815250611347565b60606000610fc383611162565b905060008167ffffffffffffffff811115610fe057610fe061317c565b604051908082528060200260200182016040528015611009578160200160208202803683370190505b50905060005b82811015611050576110218582610f05565b82828151811061103357611033613166565b602090810291909101015280611048816130df565b91505061100f565b509392505050565b600061106360095490565b82106110c65760405162461bcd60e51b815260206004820152602c60248201527f455243373231456e756d657261626c653a20676c6f62616c20696e646578206f60448201526b7574206f6620626f756e647360a01b60648201526084016107f8565b600982815481106110d9576110d9613166565b90600052602060002001549050919050565b6000818152600260205260408120546001600160a01b03168061065e5760405162461bcd60e51b815260206004820152602960248201527f4552433732313a206f776e657220717565727920666f72206e6f6e657869737460448201526832b73a103a37b5b2b760b91b60648201526084016107f8565b60006001600160a01b0382166111cd5760405162461bcd60e51b815260206004820152602a60248201527f4552433732313a2062616c616e636520717565727920666f7220746865207a65604482015269726f206164647265737360b01b60648201526084016107f8565b506001600160a01b031660009081526003602052604090205490565b600b546001600160a01b031633146112435760405162461bcd60e51b815260206004820181905260248201527f4f776e61626c653a2063616c6c6572206973206e6f7420746865206f776e657260448201526064016107f8565b61124d6000611f7f565b565b80516020818301810180516014825292820191909301209152805461067d906130a4565b60606001805461070d906130a4565b6001600160a01b0382163314156112db5760405162461bcd60e51b815260206004820152601960248201527f4552433732313a20617070726f766520746f2063616c6c65720000000000000060448201526064016107f8565b3360008181526005602090815260408083206001600160a01b03871680855290835292819020805460ff191686151590811790915590519081529192917f17307eab39ab6107e8899845ad3d59bd9653f200f220920489ca2b5937696c31910160405180910390a35050565b6113513383611cea565b61136d5760405162461bcd60e51b81526004016107f890612f8a565b61137984848484611fd1565b50505050565b606061065e82612004565b600260158760405161139c9190612d8d565b9081526040519081900360200190205460ff1660038111156113c0576113c061313a565b14158015611402575060036015876040516113db9190612d8d565b9081526040519081900360200190205460ff1660038111156113ff576113ff61313a565b14155b6114405760405162461bcd60e51b815260206004820152600f60248201526e66696e616c697a656420626164676560881b60448201526064016107f8565b6017866040516114509190612d8d565b908152602001604051809103902060006114673390565b6001600160a01b0316815260208101919091526040016000205460ff16156114d15760405162461bcd60e51b815260206004820152601c60248201527f616c726561647920766f74656420666f7220746869732062616467650000000060448201526064016107f8565b600e54845184518451604051630903288360e11b81526000946001600160a01b0316936312065106936115109333938e938e9390929091600401612e15565b602060405180830381600087803b15801561152a57600080fd5b505af115801561153e573d6000803e3d6000fd5b505050506040513d601f19601f820116820180604052508101906115629190612be2565b9050806115bd5760405162461bcd60e51b8152602060048201526024808201527f73656e646572206973206e6f7420617070726f7665642070726f6a656374207660448201526337ba32b960e11b60648201526084016107f8565b600e546020868101518682015191860151604051632336629f60e11b81526000946001600160a01b03169363466cc53e936116039333938f938b93929091600401612e6d565b602060405180830381600087803b15801561161d57600080fd5b505af1158015611631573d6000803e3d6000fd5b505050506040513d601f19601f820116820180604052508101906116559190612be2565b9050806116a45760405162461bcd60e51b815260206004820152601b60248201527f696e636f727265637420766f746573206e65656465642073656e74000000000060448201526064016107f8565b6016886040516116b49190612d8d565b90815260405190819003602001902080549060006116d1836130df565b919050555060016017896040516116e89190612d8d565b908152602001604051809103902060006116ff3390565b6001600160a01b0316815260208101919091526040016000908120805460ff19169215159290921790915560158960405161173a9190612d8d565b9081526040519081900360200190205460ff16600381111561175e5761175e61313a565b14156118f65760008951116117a35760405162461bcd60e51b815260206004820152600b60248201526a656d70747920617272617960a81b60448201526064016107f8565b886012896040516117b49190612d8d565b908152602001604051809103902090805190602001906117d59291906126f9565b50866014896040516117e79190612d8d565b9081526020016040518091039020908051906020019061180892919061275e565b506016886040516118199190612d8d565b90815260200160405180910390205483116118b15760036015896040516118409190612d8d565b908152604051908190036020019020805460ff191660018360038111156118695761186961313a565b02179055508760405161187c9190612d8d565b604051908190038120907fcf525faa39dde00362f50602e2030eb0b110857c69ffaf3c69a504b41962bf0f90600090a261199a565b60016015896040516118c39190612d8d565b908152604051908190036020019020805460ff191660018360038111156118ec576118ec61313a565b021790555061199a565b826016896040516119079190612d8d565b9081526020016040518091039020541061199a57600360158960405161192d9190612d8d565b908152604051908190036020019020805460ff191660018360038111156119565761195661313a565b0217905550876040516119699190612d8d565b604051908190038120907fcf525faa39dde00362f50602e2030eb0b110857c69ffaf3c69a504b41962bf0f90600090a25b505050505050505050565b600b546001600160a01b031633146119ff5760405162461bcd60e51b815260206004820181905260248201527f4f776e61626c653a2063616c6c6572206973206e6f7420746865206f776e657260448201526064016107f8565b6001600160a01b038116611a645760405162461bcd60e51b815260206004820152602660248201527f4f776e61626c653a206e6577206f776e657220697320746865207a65726f206160448201526564647265737360d01b60648201526084016107f8565b611a6d81611f7f565b50565b60006001600160e01b0319821663780e9d6360e01b148061065e575061065e82612173565b6000908152600260205260409020546001600160a01b0316151590565b600081815260046020526040902080546001600160a01b0319166001600160a01b0384169081179091558190611ae7826110eb565b6001600160a01b03167f8c5be1e5ebec7d5bd14f71427d1e84f3dd0314c0f7b2291e5b200ac8c7c3b92560405160405180910390a45050565b6001600160a01b038216611b765760405162461bcd60e51b815260206004820181905260248201527f4552433732313a206d696e7420746f20746865207a65726f206164647265737360448201526064016107f8565b611b7f81611a95565b15611bcc5760405162461bcd60e51b815260206004820152601c60248201527f4552433732313a20746f6b656e20616c7265616479206d696e7465640000000060448201526064016107f8565b611bd8600083836121c3565b6001600160a01b0382166000908152600360205260408120805460019290611c01908490613035565b909155505060008181526002602052604080822080546001600160a01b0319166001600160a01b03861690811790915590518392907fddf252ad1be2c89b69c2b068fc378daa952ba7f163c4a11628f55a4df523b3ef908290a45050565b611c6882611a95565b611ccb5760405162461bcd60e51b815260206004820152602e60248201527f45524337323155524953746f726167653a2055524920736574206f66206e6f6e60448201526d32bc34b9ba32b73a103a37b5b2b760911b60648201526084016107f8565b6000828152600660209081526040909120825161092e9284019061275e565b6000611cf582611a95565b611d565760405162461bcd60e51b815260206004820152602c60248201527f4552433732313a206f70657261746f7220717565727920666f72206e6f6e657860448201526b34b9ba32b73a103a37b5b2b760a11b60648201526084016107f8565b6000611d61836110eb565b9050806001600160a01b0316846001600160a01b03161480611d9c5750836001600160a01b0316611d9184610790565b6001600160a01b0316145b80611dcc57506001600160a01b0380821660009081526005602090815260408083209388168352929052205460ff165b949350505050565b826001600160a01b0316611de7826110eb565b6001600160a01b031614611e4f5760405162461bcd60e51b815260206004820152602960248201527f4552433732313a207472616e73666572206f6620746f6b656e2074686174206960448201526839903737ba1037bbb760b91b60648201526084016107f8565b6001600160a01b038216611eb15760405162461bcd60e51b8152602060048201526024808201527f4552433732313a207472616e7366657220746f20746865207a65726f206164646044820152637265737360e01b60648201526084016107f8565b611ebc8383836121c3565b611ec7600082611ab2565b6001600160a01b0383166000908152600360205260408120805460019290611ef0908490613061565b90915550506001600160a01b0382166000908152600360205260408120805460019290611f1e908490613035565b909155505060008181526002602052604080822080546001600160a01b0319166001600160a01b0386811691821790925591518493918716917fddf252ad1be2c89b69c2b068fc378daa952ba7f163c4a11628f55a4df523b3ef91a4505050565b600b80546001600160a01b038381166001600160a01b0319831681179093556040519116919082907f8be0079c531659141344cd1fd0a4f28419497f9722a3daafe3b4186f6b6457e090600090a35050565b611fdc848484611dd4565b611fe8848484846121ce565b6113795760405162461bcd60e51b81526004016107f890612f38565b606061200f82611a95565b6120755760405162461bcd60e51b815260206004820152603160248201527f45524337323155524953746f726167653a2055524920717565727920666f72206044820152703737b732bc34b9ba32b73a103a37b5b2b760791b60648201526084016107f8565b6000828152600660205260408120805461208e906130a4565b80601f01602080910402602001604051908101604052809291908181526020018280546120ba906130a4565b80156121075780601f106120dc57610100808354040283529160200191612107565b820191906000526020600020905b8154815290600101906020018083116120ea57829003601f168201915b50505050509050600061212560408051602081019091526000815290565b9050805160001415612138575092915050565b81511561216a578082604051602001612152929190612da9565b60405160208183030381529060405292505050919050565b611dcc846122db565b60006001600160e01b031982166380ac58cd60e01b14806121a457506001600160e01b03198216635b5e139f60e01b145b8061065e57506301ffc9a760e01b6001600160e01b031983161461065e565b61092e8383836123b3565b60006001600160a01b0384163b156122d057604051630a85bd0160e11b81526001600160a01b0385169063150b7a0290612212903390899088908890600401612dd8565b602060405180830381600087803b15801561222c57600080fd5b505af192505050801561225c575060408051601f3d908101601f1916820190925261225991810190612c1c565b60015b6122b6573d80801561228a576040519150601f19603f3d011682016040523d82523d6000602084013e61228f565b606091505b5080516122ae5760405162461bcd60e51b81526004016107f890612f38565b805181602001fd5b6001600160e01b031916630a85bd0160e11b149050611dcc565b506001949350505050565b60606122e682611a95565b61234a5760405162461bcd60e51b815260206004820152602f60248201527f4552433732314d657461646174613a2055524920717565727920666f72206e6f60448201526e3732bc34b9ba32b73a103a37b5b2b760891b60648201526084016107f8565b600061236160408051602081019091526000815290565b9050600081511161238157604051806020016040528060008152506123ac565b8061238b8461246b565b60405160200161239c929190612da9565b6040516020818303038152906040525b9392505050565b6001600160a01b03831661240e5761240981600980546000838152600a60205260408120829055600182018355919091527f6e1540171b6c0c960b71a7020d9f60077f6af931a8bbf590da0223dacf75c7af0155565b612431565b816001600160a01b0316836001600160a01b031614612431576124318382612569565b6001600160a01b0382166124485761092e81612606565b826001600160a01b0316826001600160a01b03161461092e5761092e82826126b5565b60608161248f5750506040805180820190915260018152600360fc1b602082015290565b8160005b81156124b957806124a3816130df565b91506124b29050600a8361304d565b9150612493565b60008167ffffffffffffffff8111156124d4576124d461317c565b6040519080825280601f01601f1916602001820160405280156124fe576020820181803683370190505b5090505b8415611dcc57612513600183613061565b9150612520600a866130fa565b61252b906030613035565b60f81b81838151811061254057612540613166565b60200101906001600160f81b031916908160001a905350612562600a8661304d565b9450612502565b6000600161257684611162565b6125809190613061565b6000838152600860205260409020549091508082146125d3576001600160a01b03841660009081526007602090815260408083208584528252808320548484528184208190558352600890915290208190555b5060009182526008602090815260408084208490556001600160a01b039094168352600781528383209183525290812055565b60095460009061261890600190613061565b6000838152600a60205260408120546009805493945090928490811061264057612640613166565b90600052602060002001549050806009838154811061266157612661613166565b6000918252602080832090910192909255828152600a9091526040808220849055858252812055600980548061269957612699613150565b6001900381819060005260206000200160009055905550505050565b60006126c083611162565b6001600160a01b039093166000908152600760209081526040808320868452825280832085905593825260089052919091209190915550565b82805482825590600052602060002090810192821561274e579160200282015b8281111561274e57825182546001600160a01b0319166001600160a01b03909116178255602090920191600190910190612719565b5061275a9291506127d2565b5090565b82805461276a906130a4565b90600052602060002090601f01602090048101928261278c576000855561274e565b82601f106127a557805160ff191683800117855561274e565b8280016001018555821561274e579182015b8281111561274e5782518255916020019190600101906127b7565b5b8082111561275a57600081556001016127d3565b600067ffffffffffffffff8311156128015761280161317c565b612814601f8401601f1916602001613004565b905082815283838301111561282857600080fd5b828260208301376000602084830101529392505050565b80356001600160a01b038116811461285657600080fd5b919050565b600082601f83011261286c57600080fd5b612874612fdb565b80838560408601111561288657600080fd5b60005b60028110156128a8578135845260209384019390910190600101612889565b509095945050505050565b600082601f8301126128c457600080fd5b6128cc612fdb565b8083856040860111156128de57600080fd5b6000805b600281101561291057823560ff811681146128fb578283fd5b855260209485019492909201916001016128e2565b50919695505050505050565b600082601f83011261292d57600080fd5b6123ac838335602085016127e7565b60006020828403121561294e57600080fd5b6123ac8261283f565b6000806040838503121561296a57600080fd5b6129738361283f565b91506129816020840161283f565b90509250929050565b60008060006060848603121561299f57600080fd5b6129a88461283f565b92506129b66020850161283f565b9150604084013590509250925092565b600080600080608085870312156129dc57600080fd5b6129e58561283f565b93506129f36020860161283f565b925060408501359150606085013567ffffffffffffffff811115612a1657600080fd5b8501601f81018713612a2757600080fd5b612a36878235602084016127e7565b91505092959194509250565b60008060408385031215612a5557600080fd5b612a5e8361283f565b91506020830135612a6e81613192565b809150509250929050565b60008060408385031215612a8c57600080fd5b612a958361283f565b946020939093013593505050565b6000806000806000806000610140888a031215612abf57600080fd5b67ffffffffffffffff8089351115612ad657600080fd5b883589018a601f820112612ae957600080fd5b803582811115612afb57612afb61317c565b8060051b612b0b60208201613004565b80838252602082019150602085018f6020858801011115612b2b57600080fd5b600095505b84861015612b5657612b418161283f565b83526001959095019460209283019201612b30565b509b5050505060208a0135905081811115612b7057600080fd5b612b7c8b828c0161291c565b975050604089013581811115612b9157600080fd5b612b9d8b828c0161291c565b96505050612bae8960608a0161285b565b9350612bbd8960a08a0161285b565b9250612bcc8960e08a016128b3565b9150610120880135905092959891949750929550565b600060208284031215612bf457600080fd5b81516123ac81613192565b600060208284031215612c1157600080fd5b81356123ac816131a0565b600060208284031215612c2e57600080fd5b81516123ac816131a0565b600060208284031215612c4b57600080fd5b813567ffffffffffffffff811115612c6257600080fd5b611dcc8482850161291c565b60008060408385031215612c8157600080fd5b823567ffffffffffffffff811115612c9857600080fd5b612ca48582860161291c565b9250506129816020840161283f565b6000806000806000806000610140888a031215612ccf57600080fd5b873567ffffffffffffffff80821115612ce757600080fd5b612cf38b838c0161291c565b985060208a0135915080821115612d0957600080fd5b612d158b838c0161291c565b975060408a0135915080821115612d2b57600080fd5b50612d388a828b0161291c565b955050612bae8960608a0161285b565b600060208284031215612d5a57600080fd5b5035919050565b60008151808452612d79816020860160208601613078565b601f01601f19169290920160200192915050565b60008251612d9f818460208701613078565b9190910192915050565b60008351612dbb818460208801613078565b835190830190612dcf818360208801613078565b01949350505050565b6001600160a01b0385811682528416602082015260408101839052608060608201819052600090612e0b90830184612d61565b9695505050505050565b6001600160a01b038716815260c060208201819052600090612e3990830188612d61565b8281036040840152612e4b8188612d61565b60608401969096525050608081019290925260ff1660a0909101529392505050565b6001600160a01b038716815260c060208201819052600090612e9190830188612d61565b905085604083015284606083015283608083015260ff831660a0830152979650505050505050565b6020808252825182820181905260009190848201906040850190845b81811015612ef157835183529284019291840191600101612ed5565b50909695505050505050565b6020810160048310612f1f57634e487b7160e01b600052602160045260246000fd5b91905290565b6020815260006123ac6020830184612d61565b60208082526032908201527f4552433732313a207472616e7366657220746f206e6f6e20455243373231526560408201527131b2b4bb32b91034b6b83632b6b2b73a32b960711b606082015260800190565b60208082526031908201527f4552433732313a207472616e736665722063616c6c6572206973206e6f74206f6040820152701ddb995c881b9bdc88185c1c1c9bdd9959607a1b606082015260800190565b6040805190810167ffffffffffffffff81118282101715612ffe57612ffe61317c565b60405290565b604051601f8201601f1916810167ffffffffffffffff8111828210171561302d5761302d61317c565b604052919050565b600082198211156130485761304861310e565b500190565b60008261305c5761305c613124565b500490565b6000828210156130735761307361310e565b500390565b60005b8381101561309357818101518382015260200161307b565b838111156113795750506000910152565b600181811c908216806130b857607f821691505b602082108114156130d957634e487b7160e01b600052602260045260246000fd5b50919050565b60006000198214156130f3576130f361310e565b5060010190565b60008261310957613109613124565b500690565b634e487b7160e01b600052601160045260246000fd5b634e487b7160e01b600052601260045260246000fd5b634e487b7160e01b600052602160045260246000fd5b634e487b7160e01b600052603160045260246000fd5b634e487b7160e01b600052603260045260246000fd5b634e487b7160e01b600052604160045260246000fd5b8015158114611a6d57600080fd5b6001600160e01b031981168114611a6d57600080fdfea2646970667358221220b6241cc81c315da3d5c55df1df67d26272ae33a347bf9a4e3727ec82b835310664736f6c63430008070033",
  "devdoc": {
    "kind": "dev",
    "methods": {
      "approve(address,uint256)": {
        "details": "See {IERC721-approve}."
      },
      "balanceOf(address)": {
        "details": "See {IERC721-balanceOf}."
      },
      "getApproved(uint256)": {
        "details": "See {IERC721-getApproved}."
      },
      "isApprovedForAll(address,address)": {
        "details": "See {IERC721-isApprovedForAll}."
      },
      "name()": {
        "details": "See {IERC721Metadata-name}."
      },
      "owner()": {
        "details": "Returns the address of the current owner."
      },
      "ownerOf(uint256)": {
        "details": "See {IERC721-ownerOf}."
      },
      "renounceOwnership()": {
        "details": "Leaves the contract without owner. It will not be possible to call `onlyOwner` functions anymore. Can only be called by the current owner. NOTE: Renouncing ownership will leave the contract without an owner, thereby removing any functionality that is only available to the owner."
      },
      "safeTransferFrom(address,address,uint256)": {
        "details": "See {IERC721-safeTransferFrom}."
      },
      "safeTransferFrom(address,address,uint256,bytes)": {
        "details": "See {IERC721-safeTransferFrom}."
      },
      "setApprovalForAll(address,bool)": {
        "details": "See {IERC721-setApprovalForAll}."
      },
      "symbol()": {
        "details": "See {IERC721Metadata-symbol}."
      },
      "tokenByIndex(uint256)": {
        "details": "See {IERC721Enumerable-tokenByIndex}."
      },
      "tokenOfOwnerByIndex(address,uint256)": {
        "details": "See {IERC721Enumerable-tokenOfOwnerByIndex}."
      },
      "totalSupply()": {
        "details": "See {IERC721Enumerable-totalSupply}."
      },
      "transferFrom(address,address,uint256)": {
        "details": "See {IERC721-transferFrom}."
      },
      "transferOwnership(address)": {
        "details": "Transfers ownership of the contract to a new account (`newOwner`). Can only be called by the current owner."
      }
    },
    "version": 1
  },
  "userdoc": {
    "kind": "user",
    "methods": {},
    "version": 1
  },
  "storageLayout": {
    "storage": [
      {
        "astId": 395,
        "contract": "contracts/PathwayNFT.sol:PathwayNFT",
        "label": "_name",
        "offset": 0,
        "slot": "0",
        "type": "t_string_storage"
      },
      {
        "astId": 397,
        "contract": "contracts/PathwayNFT.sol:PathwayNFT",
        "label": "_symbol",
        "offset": 0,
        "slot": "1",
        "type": "t_string_storage"
      },
      {
        "astId": 401,
        "contract": "contracts/PathwayNFT.sol:PathwayNFT",
        "label": "_owners",
        "offset": 0,
        "slot": "2",
        "type": "t_mapping(t_uint256,t_address)"
      },
      {
        "astId": 405,
        "contract": "contracts/PathwayNFT.sol:PathwayNFT",
        "label": "_balances",
        "offset": 0,
        "slot": "3",
        "type": "t_mapping(t_address,t_uint256)"
      },
      {
        "astId": 409,
        "contract": "contracts/PathwayNFT.sol:PathwayNFT",
        "label": "_tokenApprovals",
        "offset": 0,
        "slot": "4",
        "type": "t_mapping(t_uint256,t_address)"
      },
      {
        "astId": 415,
        "contract": "contracts/PathwayNFT.sol:PathwayNFT",
        "label": "_operatorApprovals",
        "offset": 0,
        "slot": "5",
        "type": "t_mapping(t_address,t_mapping(t_address,t_bool))"
      },
      {
        "astId": 1670,
        "contract": "contracts/PathwayNFT.sol:PathwayNFT",
        "label": "_tokenURIs",
        "offset": 0,
        "slot": "6",
        "type": "t_mapping(t_uint256,t_string_storage)"
      },
      {
        "astId": 1334,
        "contract": "contracts/PathwayNFT.sol:PathwayNFT",
        "label": "_ownedTokens",
        "offset": 0,
        "slot": "7",
        "type": "t_mapping(t_address,t_mapping(t_uint256,t_uint256))"
      },
      {
        "astId": 1338,
        "contract": "contracts/PathwayNFT.sol:PathwayNFT",
        "label": "_ownedTokensIndex",
        "offset": 0,
        "slot": "8",
        "type": "t_mapping(t_uint256,t_uint256)"
      },
      {
        "astId": 1341,
        "contract": "contracts/PathwayNFT.sol:PathwayNFT",
        "label": "_allTokens",
        "offset": 0,
        "slot": "9",
        "type": "t_array(t_uint256)dyn_storage"
      },
      {
        "astId": 1345,
        "contract": "contracts/PathwayNFT.sol:PathwayNFT",
        "label": "_allTokensIndex",
        "offset": 0,
        "slot": "10",
        "type": "t_mapping(t_uint256,t_uint256)"
      },
      {
        "astId": 273,
        "contract": "contracts/PathwayNFT.sol:PathwayNFT",
        "label": "_owner",
        "offset": 0,
        "slot": "11",
        "type": "t_address"
      },
      {
        "astId": 3330,
        "contract": "contracts/PathwayNFT.sol:PathwayNFT",
        "label": "_tokenIds",
        "offset": 0,
        "slot": "12",
        "type": "t_struct(Counter)2168_storage"
      },
      {
        "astId": 3333,
        "contract": "contracts/PathwayNFT.sol:PathwayNFT",
        "label": "vrfContract",
        "offset": 0,
        "slot": "13",
        "type": "t_contract(RandomNumberConsumer)5402"
      },
      {
        "astId": 3336,
        "contract": "contracts/PathwayNFT.sol:PathwayNFT",
        "label": "verifyContract",
        "offset": 0,
        "slot": "14",
        "type": "t_contract(Verify)5656"
      },
      {
        "astId": 3338,
        "contract": "contracts/PathwayNFT.sol:PathwayNFT",
        "label": "projectNFTAddress",
        "offset": 0,
        "slot": "15",
        "type": "t_address"
      },
      {
        "astId": 3342,
        "contract": "contracts/PathwayNFT.sol:PathwayNFT",
        "label": "statusStrings",
        "offset": 0,
        "slot": "16",
        "type": "t_mapping(t_uint256,t_string_storage)"
      },
      {
        "astId": 3346,
        "contract": "contracts/PathwayNFT.sol:PathwayNFT",
        "label": "pathwayMinted",
        "offset": 0,
        "slot": "17",
        "type": "t_mapping(t_string_memory_ptr,t_bool)"
      },
      {
        "astId": 3351,
        "contract": "contracts/PathwayNFT.sol:PathwayNFT",
        "label": "contributors",
        "offset": 0,
        "slot": "18",
        "type": "t_mapping(t_string_memory_ptr,t_array(t_address)dyn_storage)"
      },
      {
        "astId": 3354,
        "contract": "contracts/PathwayNFT.sol:PathwayNFT",
        "label": "rarityThresholds",
        "offset": 0,
        "slot": "19",
        "type": "t_array(t_uint8)dyn_storage"
      },
      {
        "astId": 3358,
        "contract": "contracts/PathwayNFT.sol:PathwayNFT",
        "label": "projectIdforPathway",
        "offset": 0,
        "slot": "20",
        "type": "t_mapping(t_string_memory_ptr,t_string_storage)"
      },
      {
        "astId": 3363,
        "contract": "contracts/PathwayNFT.sol:PathwayNFT",
        "label": "status",
        "offset": 0,
        "slot": "21",
        "type": "t_mapping(t_string_memory_ptr,t_enum(PathwayStatus)3378)"
      },
      {
        "astId": 3367,
        "contract": "contracts/PathwayNFT.sol:PathwayNFT",
        "label": "votes",
        "offset": 0,
        "slot": "22",
        "type": "t_mapping(t_string_memory_ptr,t_uint256)"
      },
      {
        "astId": 3373,
        "contract": "contracts/PathwayNFT.sol:PathwayNFT",
        "label": "reviewerVotes",
        "offset": 0,
        "slot": "23",
        "type": "t_mapping(t_string_memory_ptr,t_mapping(t_address,t_bool))"
      }
    ],
    "types": {
      "t_address": {
        "encoding": "inplace",
        "label": "address",
        "numberOfBytes": "20"
      },
      "t_array(t_address)dyn_storage": {
        "base": "t_address",
        "encoding": "dynamic_array",
        "label": "address[]",
        "numberOfBytes": "32"
      },
      "t_array(t_uint256)dyn_storage": {
        "base": "t_uint256",
        "encoding": "dynamic_array",
        "label": "uint256[]",
        "numberOfBytes": "32"
      },
      "t_array(t_uint8)dyn_storage": {
        "base": "t_uint8",
        "encoding": "dynamic_array",
        "label": "uint8[]",
        "numberOfBytes": "32"
      },
      "t_bool": {
        "encoding": "inplace",
        "label": "bool",
        "numberOfBytes": "1"
      },
      "t_contract(RandomNumberConsumer)5402": {
        "encoding": "inplace",
        "label": "contract RandomNumberConsumer",
        "numberOfBytes": "20"
      },
      "t_contract(Verify)5656": {
        "encoding": "inplace",
        "label": "contract Verify",
        "numberOfBytes": "20"
      },
      "t_enum(PathwayStatus)3378": {
        "encoding": "inplace",
        "label": "enum PathwayNFT.PathwayStatus",
        "numberOfBytes": "1"
      },
      "t_mapping(t_address,t_bool)": {
        "encoding": "mapping",
        "key": "t_address",
        "label": "mapping(address => bool)",
        "numberOfBytes": "32",
        "value": "t_bool"
      },
      "t_mapping(t_address,t_mapping(t_address,t_bool))": {
        "encoding": "mapping",
        "key": "t_address",
        "label": "mapping(address => mapping(address => bool))",
        "numberOfBytes": "32",
        "value": "t_mapping(t_address,t_bool)"
      },
      "t_mapping(t_address,t_mapping(t_uint256,t_uint256))": {
        "encoding": "mapping",
        "key": "t_address",
        "label": "mapping(address => mapping(uint256 => uint256))",
        "numberOfBytes": "32",
        "value": "t_mapping(t_uint256,t_uint256)"
      },
      "t_mapping(t_address,t_uint256)": {
        "encoding": "mapping",
        "key": "t_address",
        "label": "mapping(address => uint256)",
        "numberOfBytes": "32",
        "value": "t_uint256"
      },
      "t_mapping(t_string_memory_ptr,t_array(t_address)dyn_storage)": {
        "encoding": "mapping",
        "key": "t_string_memory_ptr",
        "label": "mapping(string => address[])",
        "numberOfBytes": "32",
        "value": "t_array(t_address)dyn_storage"
      },
      "t_mapping(t_string_memory_ptr,t_bool)": {
        "encoding": "mapping",
        "key": "t_string_memory_ptr",
        "label": "mapping(string => bool)",
        "numberOfBytes": "32",
        "value": "t_bool"
      },
      "t_mapping(t_string_memory_ptr,t_enum(PathwayStatus)3378)": {
        "encoding": "mapping",
        "key": "t_string_memory_ptr",
        "label": "mapping(string => enum PathwayNFT.PathwayStatus)",
        "numberOfBytes": "32",
        "value": "t_enum(PathwayStatus)3378"
      },
      "t_mapping(t_string_memory_ptr,t_mapping(t_address,t_bool))": {
        "encoding": "mapping",
        "key": "t_string_memory_ptr",
        "label": "mapping(string => mapping(address => bool))",
        "numberOfBytes": "32",
        "value": "t_mapping(t_address,t_bool)"
      },
      "t_mapping(t_string_memory_ptr,t_string_storage)": {
        "encoding": "mapping",
        "key": "t_string_memory_ptr",
        "label": "mapping(string => string)",
        "numberOfBytes": "32",
        "value": "t_string_storage"
      },
      "t_mapping(t_string_memory_ptr,t_uint256)": {
        "encoding": "mapping",
        "key": "t_string_memory_ptr",
        "label": "mapping(string => uint256)",
        "numberOfBytes": "32",
        "value": "t_uint256"
      },
      "t_mapping(t_uint256,t_address)": {
        "encoding": "mapping",
        "key": "t_uint256",
        "label": "mapping(uint256 => address)",
        "numberOfBytes": "32",
        "value": "t_address"
      },
      "t_mapping(t_uint256,t_string_storage)": {
        "encoding": "mapping",
        "key": "t_uint256",
        "label": "mapping(uint256 => string)",
        "numberOfBytes": "32",
        "value": "t_string_storage"
      },
      "t_mapping(t_uint256,t_uint256)": {
        "encoding": "mapping",
        "key": "t_uint256",
        "label": "mapping(uint256 => uint256)",
        "numberOfBytes": "32",
        "value": "t_uint256"
      },
      "t_string_memory_ptr": {
        "encoding": "bytes",
        "label": "string",
        "numberOfBytes": "32"
      },
      "t_string_storage": {
        "encoding": "bytes",
        "label": "string",
        "numberOfBytes": "32"
      },
      "t_struct(Counter)2168_storage": {
        "encoding": "inplace",
        "label": "struct Counters.Counter",
        "members": [
          {
            "astId": 2167,
            "contract": "contracts/PathwayNFT.sol:PathwayNFT",
            "label": "_value",
            "offset": 0,
            "slot": "0",
            "type": "t_uint256"
          }
        ],
        "numberOfBytes": "32"
      },
      "t_uint256": {
        "encoding": "inplace",
        "label": "uint256",
        "numberOfBytes": "32"
      },
      "t_uint8": {
        "encoding": "inplace",
        "label": "uint8",
        "numberOfBytes": "1"
      }
    }
  }
}