{
  "address": "0xd2F29b918410ffb493fe1809cEbAC076CA85117B",
  "abi": [
    {
      "inputs": [
        {
          "internalType": "address",
          "name": "_vrfAddress",
          "type": "address"
        },
        {
          "internalType": "address",
          "name": "_projectNFTAddress",
          "type": "address"
        },
        {
          "internalType": "address",
          "name": "_verifyAddress",
          "type": "address"
        }
      ],
      "stateMutability": "nonpayable",
      "type": "constructor"
    },
    {
      "anonymous": false,
      "inputs": [
        {
          "indexed": true,
          "internalType": "address",
          "name": "owner",
          "type": "address"
        },
        {
          "indexed": true,
          "internalType": "address",
          "name": "approved",
          "type": "address"
        },
        {
          "indexed": true,
          "internalType": "uint256",
          "name": "tokenId",
          "type": "uint256"
        }
      ],
      "name": "Approval",
      "type": "event"
    },
    {
      "anonymous": false,
      "inputs": [
        {
          "indexed": true,
          "internalType": "address",
          "name": "owner",
          "type": "address"
        },
        {
          "indexed": true,
          "internalType": "address",
          "name": "operator",
          "type": "address"
        },
        {
          "indexed": false,
          "internalType": "bool",
          "name": "approved",
          "type": "bool"
        }
      ],
      "name": "ApprovalForAll",
      "type": "event"
    },
    {
      "anonymous": false,
      "inputs": [
        {
          "indexed": true,
          "internalType": "address",
          "name": "_to",
          "type": "address"
        },
        {
          "indexed": true,
          "internalType": "string",
          "name": "_tokenURI",
          "type": "string"
        },
        {
          "indexed": true,
          "internalType": "string",
          "name": "_badgeId",
          "type": "string"
        }
      ],
      "name": "NFTPathwayMinted",
      "type": "event"
    },
    {
      "anonymous": false,
      "inputs": [
        {
          "indexed": true,
          "internalType": "address",
          "name": "previousOwner",
          "type": "address"
        },
        {
          "indexed": true,
          "internalType": "address",
          "name": "newOwner",
          "type": "address"
        }
      ],
      "name": "OwnershipTransferred",
      "type": "event"
    },
    {
      "anonymous": false,
      "inputs": [
        {
          "indexed": true,
          "internalType": "string",
          "name": "_pathwayId",
          "type": "string"
        }
      ],
      "name": "PathwayApproved",
      "type": "event"
    },
    {
      "anonymous": false,
      "inputs": [
        {
          "indexed": false,
          "internalType": "address",
          "name": "_caller",
          "type": "address"
        },
        {
          "indexed": false,
          "internalType": "uint256",
          "name": "_value",
          "type": "uint256"
        }
      ],
      "name": "ReceiveCalled",
      "type": "event"
    },
    {
      "anonymous": false,
      "inputs": [
        {
          "indexed": true,
          "internalType": "address",
          "name": "from",
          "type": "address"
        },
        {
          "indexed": true,
          "internalType": "address",
          "name": "to",
          "type": "address"
        },
        {
          "indexed": true,
          "internalType": "uint256",
          "name": "tokenId",
          "type": "uint256"
        }
      ],
      "name": "Transfer",
      "type": "event"
    },
    {
      "inputs": [
        {
          "internalType": "string",
          "name": "_pathwayId",
          "type": "string"
        },
        {
          "internalType": "address",
          "name": "_ERC20Address",
          "type": "address"
        },
        {
          "internalType": "bool",
          "name": "useNative",
          "type": "bool"
        },
        {
          "internalType": "uint256",
          "name": "amount",
          "type": "uint256"
        }
      ],
      "name": "addPathwayCreationReward",
      "outputs": [],
      "stateMutability": "payable",
      "type": "function"
    },
    {
      "inputs": [
        {
          "internalType": "string",
          "name": "",
          "type": "string"
        }
      ],
      "name": "adventurerAddress",
      "outputs": [
        {
          "internalType": "address",
          "name": "",
          "type": "address"
        }
      ],
      "stateMutability": "view",
      "type": "function"
    },
    {
      "inputs": [
        {
          "internalType": "address",
          "name": "to",
          "type": "address"
        },
        {
          "internalType": "uint256",
          "name": "tokenId",
          "type": "uint256"
        }
      ],
      "name": "approve",
      "outputs": [],
      "stateMutability": "nonpayable",
      "type": "function"
    },
    {
      "inputs": [
        {
          "internalType": "address",
          "name": "owner",
          "type": "address"
        }
      ],
      "name": "balanceOf",
      "outputs": [
        {
          "internalType": "uint256",
          "name": "",
          "type": "uint256"
        }
      ],
      "stateMutability": "view",
      "type": "function"
    },
    {
      "inputs": [
        {
          "internalType": "string",
          "name": "_pathwayId",
          "type": "string"
        },
        {
          "internalType": "bool",
          "name": "native",
          "type": "bool"
        },
        {
          "internalType": "address",
          "name": "_ERC20Address",
          "type": "address"
        },
        {
          "internalType": "bytes32",
          "name": "r",
          "type": "bytes32"
        },
        {
          "internalType": "bytes32",
          "name": "s",
          "type": "bytes32"
        },
        {
          "internalType": "uint8",
          "name": "v",
          "type": "uint8"
        },
        {
          "internalType": "bool",
          "name": "claimReward",
          "type": "bool"
        },
        {
          "internalType": "string",
          "name": "_tokenURI",
          "type": "string"
        },
        {
          "internalType": "uint256",
          "name": "version",
          "type": "uint256"
        }
      ],
      "name": "claimPathwayRewards",
      "outputs": [],
      "stateMutability": "nonpayable",
      "type": "function"
    },
    {
      "inputs": [
        {
          "internalType": "string",
          "name": "_pathwayId",
          "type": "string"
        },
        {
          "internalType": "bool",
          "name": "native",
          "type": "bool"
        },
        {
          "internalType": "address",
          "name": "_ERC20Address",
          "type": "address"
        }
      ],
      "name": "claimRejectionRefund",
      "outputs": [],
      "stateMutability": "nonpayable",
      "type": "function"
    },
    {
      "inputs": [
        {
          "internalType": "string",
          "name": "_pathwayId",
          "type": "string"
        },
        {
          "internalType": "string",
          "name": "_projectId",
          "type": "string"
        },
        {
          "internalType": "uint256",
          "name": "numUsersRewarded",
          "type": "uint256"
        },
        {
          "internalType": "bool",
          "name": "callRewards",
          "type": "bool"
        },
        {
          "internalType": "address",
          "name": "_ERC20Address",
          "type": "address"
        },
        {
          "internalType": "bool",
          "name": "useNative",
          "type": "bool"
        },
        {
          "internalType": "uint256",
          "name": "amount",
          "type": "uint256"
        },
        {
          "internalType": "address",
          "name": "sender",
          "type": "address"
        }
      ],
      "name": "createPathway",
      "outputs": [],
      "stateMutability": "payable",
      "type": "function"
    },
    {
      "inputs": [
        {
          "internalType": "address[]",
          "name": "_contributors",
          "type": "address[]"
        },
        {
          "internalType": "string",
          "name": "_pathwayId",
          "type": "string"
        },
        {
          "internalType": "string",
          "name": "_projectId",
          "type": "string"
        },
        {
          "internalType": "bytes32[2]",
          "name": "r",
          "type": "bytes32[2]"
        },
        {
          "internalType": "bytes32[2]",
          "name": "s",
          "type": "bytes32[2]"
        },
        {
          "internalType": "uint8[2]",
          "name": "v",
          "type": "uint8[2]"
        },
        {
          "internalType": "uint256",
          "name": "votesNeeded",
          "type": "uint256"
        },
        {
          "internalType": "uint256",
          "name": "numUsersRewarded",
          "type": "uint256"
        },
        {
          "internalType": "bool[2]",
          "name": "rewardsNative",
          "type": "bool[2]"
        },
        {
          "internalType": "address",
          "name": "_ERC20Address",
          "type": "address"
        },
        {
          "internalType": "uint256",
          "name": "amount",
          "type": "uint256"
        },
        {
          "internalType": "address",
          "name": "sender",
          "type": "address"
        }
      ],
      "name": "createPathwayAndVote",
      "outputs": [],
      "stateMutability": "nonpayable",
      "type": "function"
    },
    {
      "inputs": [
        {
          "internalType": "string",
          "name": "_tokenURI",
          "type": "string"
        },
        {
          "internalType": "string",
          "name": "_pathwayId",
          "type": "string"
        },
        {
          "internalType": "string",
          "name": "_projectId",
          "type": "string"
        },
        {
          "internalType": "bytes32[2]",
          "name": "r",
          "type": "bytes32[2]"
        },
        {
          "internalType": "bytes32[2]",
          "name": "s",
          "type": "bytes32[2]"
        },
        {
          "internalType": "uint8[2]",
          "name": "v",
          "type": "uint8[2]"
        },
        {
          "internalType": "uint256",
          "name": "votesNeeded",
          "type": "uint256"
        }
      ],
      "name": "createToken",
      "outputs": [
        {
          "internalType": "uint256[]",
          "name": "",
          "type": "uint256[]"
        }
      ],
      "stateMutability": "nonpayable",
      "type": "function"
    },
    {
      "inputs": [
        {
          "internalType": "string",
          "name": "",
          "type": "string"
        }
      ],
      "name": "creator",
      "outputs": [
        {
          "internalType": "address",
          "name": "",
          "type": "address"
        }
      ],
      "stateMutability": "view",
      "type": "function"
    },
    {
      "inputs": [],
      "name": "creatorFee",
      "outputs": [
        {
          "internalType": "uint256",
          "name": "",
          "type": "uint256"
        }
      ],
      "stateMutability": "view",
      "type": "function"
    },
    {
      "inputs": [
        {
          "internalType": "string",
          "name": "",
          "type": "string"
        },
        {
          "internalType": "address",
          "name": "",
          "type": "address"
        }
      ],
      "name": "currentNumUsersRewardPerPathwayERC20",
      "outputs": [
        {
          "internalType": "uint256",
          "name": "",
          "type": "uint256"
        }
      ],
      "stateMutability": "view",
      "type": "function"
    },
    {
      "inputs": [
        {
          "internalType": "string",
          "name": "",
          "type": "string"
        }
      ],
      "name": "currentNumUsersRewardPerPathwayNative",
      "outputs": [
        {
          "internalType": "uint256",
          "name": "",
          "type": "uint256"
        }
      ],
      "stateMutability": "view",
      "type": "function"
    },
    {
      "inputs": [],
      "name": "fee",
      "outputs": [
        {
          "internalType": "uint256",
          "name": "",
          "type": "uint256"
        }
      ],
      "stateMutability": "view",
      "type": "function"
    },
    {
      "inputs": [
        {
          "internalType": "string",
          "name": "_pathwayId",
          "type": "string"
        },
        {
          "internalType": "uint256",
          "name": "version",
          "type": "uint256"
        }
      ],
      "name": "getAllAddrsByPathwayIDVersion",
      "outputs": [
        {
          "internalType": "address[]",
          "name": "",
          "type": "address[]"
        }
      ],
      "stateMutability": "view",
      "type": "function"
    },
    {
      "inputs": [
        {
          "internalType": "string",
          "name": "_pathwayId",
          "type": "string"
        },
        {
          "internalType": "uint256",
          "name": "version",
          "type": "uint256"
        }
      ],
      "name": "getAllTokenIdsByPathwayIDVersion",
      "outputs": [
        {
          "internalType": "uint256[]",
          "name": "",
          "type": "uint256[]"
        }
      ],
      "stateMutability": "view",
      "type": "function"
    },
    {
      "inputs": [],
      "name": "getAppDiamond",
      "outputs": [
        {
          "internalType": "address",
          "name": "",
          "type": "address"
        }
      ],
      "stateMutability": "view",
      "type": "function"
    },
    {
      "inputs": [
        {
          "internalType": "uint256",
          "name": "tokenId",
          "type": "uint256"
        }
      ],
      "name": "getApproved",
      "outputs": [
        {
          "internalType": "address",
          "name": "",
          "type": "address"
        }
      ],
      "stateMutability": "view",
      "type": "function"
    },
    {
      "inputs": [
        {
          "internalType": "string",
          "name": "_pathwayId",
          "type": "string"
        }
      ],
      "name": "getContributors",
      "outputs": [
        {
          "internalType": "address[]",
          "name": "",
          "type": "address[]"
        }
      ],
      "stateMutability": "view",
      "type": "function"
    },
    {
      "inputs": [
        {
          "internalType": "address",
          "name": "adventurer",
          "type": "address"
        }
      ],
      "name": "getVersionsAndPathwayIDsByAdventurer",
      "outputs": [
        {
          "internalType": "uint256[]",
          "name": "versions",
          "type": "uint256[]"
        },
        {
          "internalType": "string",
          "name": "concatPathwayIds",
          "type": "string"
        }
      ],
      "stateMutability": "view",
      "type": "function"
    },
    {
      "inputs": [
        {
          "internalType": "address",
          "name": "owner",
          "type": "address"
        },
        {
          "internalType": "address",
          "name": "operator",
          "type": "address"
        }
      ],
      "name": "isApprovedForAll",
      "outputs": [
        {
          "internalType": "bool",
          "name": "",
          "type": "bool"
        }
      ],
      "stateMutability": "view",
      "type": "function"
    },
    {
      "inputs": [],
      "name": "name",
      "outputs": [
        {
          "internalType": "string",
          "name": "",
          "type": "string"
        }
      ],
      "stateMutability": "view",
      "type": "function"
    },
    {
      "inputs": [
        {
          "internalType": "string",
          "name": "",
          "type": "string"
        }
      ],
      "name": "nativeRefundClaimed",
      "outputs": [
        {
          "internalType": "bool",
          "name": "",
          "type": "bool"
        }
      ],
      "stateMutability": "view",
      "type": "function"
    },
    {
      "inputs": [
        {
          "internalType": "string",
          "name": "",
          "type": "string"
        }
      ],
      "name": "nativeRewards",
      "outputs": [
        {
          "internalType": "uint256",
          "name": "",
          "type": "uint256"
        }
      ],
      "stateMutability": "view",
      "type": "function"
    },
    {
      "inputs": [
        {
          "internalType": "string",
          "name": "",
          "type": "string"
        },
        {
          "internalType": "address",
          "name": "",
          "type": "address"
        }
      ],
      "name": "nonces",
      "outputs": [
        {
          "internalType": "uint256",
          "name": "",
          "type": "uint256"
        }
      ],
      "stateMutability": "view",
      "type": "function"
    },
    {
      "inputs": [
        {
          "internalType": "string",
          "name": "",
          "type": "string"
        }
      ],
      "name": "numUsersRewardPerPathway",
      "outputs": [
        {
          "internalType": "uint256",
          "name": "",
          "type": "uint256"
        }
      ],
      "stateMutability": "view",
      "type": "function"
    },
    {
      "inputs": [],
      "name": "owner",
      "outputs": [
        {
          "internalType": "address",
          "name": "",
          "type": "address"
        }
      ],
      "stateMutability": "view",
      "type": "function"
    },
    {
      "inputs": [
        {
          "internalType": "uint256",
          "name": "tokenId",
          "type": "uint256"
        }
      ],
      "name": "ownerOf",
      "outputs": [
        {
          "internalType": "address",
          "name": "",
          "type": "address"
        }
      ],
      "stateMutability": "view",
      "type": "function"
    },
    {
      "inputs": [
        {
          "internalType": "string",
          "name": "",
          "type": "string"
        }
      ],
      "name": "pathwayMinted",
      "outputs": [
        {
          "internalType": "bool",
          "name": "",
          "type": "bool"
        }
      ],
      "stateMutability": "view",
      "type": "function"
    },
    {
      "inputs": [
        {
          "internalType": "string",
          "name": "",
          "type": "string"
        }
      ],
      "name": "projectIdforPathway",
      "outputs": [
        {
          "internalType": "string",
          "name": "",
          "type": "string"
        }
      ],
      "stateMutability": "view",
      "type": "function"
    },
    {
      "inputs": [],
      "name": "renounceOwnership",
      "outputs": [],
      "stateMutability": "nonpayable",
      "type": "function"
    },
    {
      "inputs": [
        {
          "internalType": "string",
          "name": "",
          "type": "string"
        },
        {
          "internalType": "address",
          "name": "",
          "type": "address"
        }
      ],
      "name": "reviewerVotes",
      "outputs": [
        {
          "internalType": "bool",
          "name": "",
          "type": "bool"
        }
      ],
      "stateMutability": "view",
      "type": "function"
    },
    {
      "inputs": [
        {
          "internalType": "address",
          "name": "from",
          "type": "address"
        },
        {
          "internalType": "address",
          "name": "to",
          "type": "address"
        },
        {
          "internalType": "uint256",
          "name": "tokenId",
          "type": "uint256"
        }
      ],
      "name": "safeTransferFrom",
      "outputs": [],
      "stateMutability": "nonpayable",
      "type": "function"
    },
    {
      "inputs": [
        {
          "internalType": "address",
          "name": "from",
          "type": "address"
        },
        {
          "internalType": "address",
          "name": "to",
          "type": "address"
        },
        {
          "internalType": "uint256",
          "name": "tokenId",
          "type": "uint256"
        },
        {
          "internalType": "bytes",
          "name": "_data",
          "type": "bytes"
        }
      ],
      "name": "safeTransferFrom",
      "outputs": [],
      "stateMutability": "nonpayable",
      "type": "function"
    },
    {
      "inputs": [
        {
          "internalType": "address",
          "name": "newFactory",
          "type": "address"
        }
      ],
      "name": "setAdventureFactory",
      "outputs": [],
      "stateMutability": "nonpayable",
      "type": "function"
    },
    {
      "inputs": [
        {
          "internalType": "address",
          "name": "newAppDiamond",
          "type": "address"
        }
      ],
      "name": "setAppDiamond",
      "outputs": [],
      "stateMutability": "nonpayable",
      "type": "function"
    },
    {
      "inputs": [
        {
          "internalType": "address",
          "name": "operator",
          "type": "address"
        },
        {
          "internalType": "bool",
          "name": "approved",
          "type": "bool"
        }
      ],
      "name": "setApprovalForAll",
      "outputs": [],
      "stateMutability": "nonpayable",
      "type": "function"
    },
    {
      "inputs": [
        {
          "internalType": "string",
          "name": "_pathwayId",
          "type": "string"
        },
        {
          "internalType": "uint256",
          "name": "newNumber",
          "type": "uint256"
        },
        {
          "internalType": "bytes32",
          "name": "r",
          "type": "bytes32"
        },
        {
          "internalType": "bytes32",
          "name": "s",
          "type": "bytes32"
        },
        {
          "internalType": "uint8",
          "name": "v",
          "type": "uint8"
        }
      ],
      "name": "setNumberOfUsersRewarded",
      "outputs": [],
      "stateMutability": "nonpayable",
      "type": "function"
    },
    {
      "inputs": [
        {
          "internalType": "string",
          "name": "",
          "type": "string"
        }
      ],
      "name": "status",
      "outputs": [
        {
          "internalType": "enum PathwayNFT.PathwayStatus",
          "name": "",
          "type": "uint8"
        }
      ],
      "stateMutability": "view",
      "type": "function"
    },
    {
      "inputs": [
        {
          "internalType": "uint256",
          "name": "",
          "type": "uint256"
        }
      ],
      "name": "statusStrings",
      "outputs": [
        {
          "internalType": "string",
          "name": "",
          "type": "string"
        }
      ],
      "stateMutability": "view",
      "type": "function"
    },
    {
      "inputs": [
        {
          "internalType": "bytes4",
          "name": "interfaceId",
          "type": "bytes4"
        }
      ],
      "name": "supportsInterface",
      "outputs": [
        {
          "internalType": "bool",
          "name": "",
          "type": "bool"
        }
      ],
      "stateMutability": "view",
      "type": "function"
    },
    {
      "inputs": [],
      "name": "symbol",
      "outputs": [
        {
          "internalType": "string",
          "name": "",
          "type": "string"
        }
      ],
      "stateMutability": "view",
      "type": "function"
    },
    {
      "inputs": [
        {
          "internalType": "uint256",
          "name": "index",
          "type": "uint256"
        }
      ],
      "name": "tokenByIndex",
      "outputs": [
        {
          "internalType": "uint256",
          "name": "",
          "type": "uint256"
        }
      ],
      "stateMutability": "view",
      "type": "function"
    },
    {
      "inputs": [
        {
          "internalType": "address",
          "name": "owner",
          "type": "address"
        },
        {
          "internalType": "uint256",
          "name": "index",
          "type": "uint256"
        }
      ],
      "name": "tokenOfOwnerByIndex",
      "outputs": [
        {
          "internalType": "uint256",
          "name": "",
          "type": "uint256"
        }
      ],
      "stateMutability": "view",
      "type": "function"
    },
    {
      "inputs": [
        {
          "internalType": "uint256",
          "name": "tokenId",
          "type": "uint256"
        }
      ],
      "name": "tokenURI",
      "outputs": [
        {
          "internalType": "string",
          "name": "",
          "type": "string"
        }
      ],
      "stateMutability": "view",
      "type": "function"
    },
    {
      "inputs": [],
      "name": "totalSupply",
      "outputs": [
        {
          "internalType": "uint256",
          "name": "",
          "type": "uint256"
        }
      ],
      "stateMutability": "view",
      "type": "function"
    },
    {
      "inputs": [
        {
          "internalType": "address",
          "name": "from",
          "type": "address"
        },
        {
          "internalType": "address",
          "name": "to",
          "type": "address"
        },
        {
          "internalType": "uint256",
          "name": "tokenId",
          "type": "uint256"
        }
      ],
      "name": "transferFrom",
      "outputs": [],
      "stateMutability": "nonpayable",
      "type": "function"
    },
    {
      "inputs": [
        {
          "internalType": "address",
          "name": "newOwner",
          "type": "address"
        }
      ],
      "name": "transferOwnership",
      "outputs": [],
      "stateMutability": "nonpayable",
      "type": "function"
    },
    {
      "inputs": [
        {
          "internalType": "string",
          "name": "",
          "type": "string"
        },
        {
          "internalType": "address",
          "name": "",
          "type": "address"
        }
      ],
      "name": "userRewardedForPathwayNative",
      "outputs": [
        {
          "internalType": "bool",
          "name": "",
          "type": "bool"
        }
      ],
      "stateMutability": "view",
      "type": "function"
    },
    {
      "inputs": [
        {
          "internalType": "address[]",
          "name": "_contributors",
          "type": "address[]"
        },
        {
          "internalType": "string",
          "name": "_pathwayId",
          "type": "string"
        },
        {
          "internalType": "string",
          "name": "_projectId",
          "type": "string"
        },
        {
          "internalType": "bytes32[2]",
          "name": "r",
          "type": "bytes32[2]"
        },
        {
          "internalType": "bytes32[2]",
          "name": "s",
          "type": "bytes32[2]"
        },
        {
          "internalType": "uint8[2]",
          "name": "v",
          "type": "uint8[2]"
        },
        {
          "internalType": "uint256",
          "name": "votesNeeded",
          "type": "uint256"
        }
      ],
      "name": "voteForApproval",
      "outputs": [],
      "stateMutability": "nonpayable",
      "type": "function"
    },
    {
      "inputs": [
        {
          "internalType": "string",
          "name": "_pathwayId",
          "type": "string"
        },
        {
          "internalType": "string",
          "name": "_projectId",
          "type": "string"
        },
        {
          "internalType": "bytes32[2]",
          "name": "r",
          "type": "bytes32[2]"
        },
        {
          "internalType": "bytes32[2]",
          "name": "s",
          "type": "bytes32[2]"
        },
        {
          "internalType": "uint8[2]",
          "name": "v",
          "type": "uint8[2]"
        },
        {
          "internalType": "uint256",
          "name": "votesNeeded",
          "type": "uint256"
        }
      ],
      "name": "voteForRejection",
      "outputs": [],
      "stateMutability": "nonpayable",
      "type": "function"
    },
    {
      "inputs": [
        {
          "internalType": "string",
          "name": "",
          "type": "string"
        }
      ],
      "name": "votes",
      "outputs": [
        {
          "internalType": "uint256",
          "name": "",
          "type": "uint256"
        }
      ],
      "stateMutability": "view",
      "type": "function"
    },
    {
      "inputs": [
        {
          "internalType": "string",
          "name": "",
          "type": "string"
        }
      ],
      "name": "votesReject",
      "outputs": [
        {
          "internalType": "uint256",
          "name": "",
          "type": "uint256"
        }
      ],
      "stateMutability": "view",
      "type": "function"
    },
    {
      "inputs": [
        {
          "internalType": "address",
          "name": "_owner",
          "type": "address"
        }
      ],
      "name": "walletOfOwner",
      "outputs": [
        {
          "internalType": "uint256[]",
          "name": "",
          "type": "uint256[]"
        }
      ],
      "stateMutability": "view",
      "type": "function"
    },
    {
      "stateMutability": "payable",
      "type": "receive"
    }
  ],
  "transactionHash": "0x7d62b29c0f69b5ac0f5217bbcc85e92306848fc300603f9b0a07a1272f3e8517",
  "args": [
    "0xF33373d9507c15E7F7aC502a0EB8527e022dda79",
    "0xAB087AC3b091ea0584Cce918A5243F19069708B1",
    "0xcB2AF596fC582a3206e2D59368849Df5DAca75FD"
  ],
  "numDeployments": 3,
  "solcInputHash": "b807e5f0c0a5c464fb9268507a8359dc",
  "bytecode": "0x6080604052610514602b5560c8602c553480156200001c57600080fd5b50604051620061c6380380620061c68339810160408190526200003f9162000391565b604080518082018252600c81526b0c886dedae0c2e6e6a0c2e8d60a31b602080830191825283518085019094526009845268088869e9aa0a082a8960bb1b9084015281519192916200009491600091620002ce565b508051620000aa906001906020840190620002ce565b505050620000c7620000c16200027860201b60201c565b6200027c565b600d80546001600160a01b038086166001600160a01b031992831617909255600e8054848416908316179055600f80549285169290911691909117905560408051808201909152600b81526a1393d391561254d511539560aa1b60208083019182526000805260129052905162000160917f7e7fa33969761a458e04f477e039a608702b4f924981d6653935a8319a08ad7b91620002ce565b5060408051808201909152600781526650454e44494e4760c81b60208083019182526001600052601290529051620001ba917f71a67924699a20698523213e55fe499d539379d7769cd5567e2c45d583f815a391620002ce565b5060408051808201909152600681526511115392515160d21b6020808301918252600260005260129052905162000213917f8e1fee8c88a9e04123b21e90cae2727a7715bf522a1e46eb5934ccd05203a6b291620002ce565b506040805180820190915260088152671054141493d5915160c21b602080830191825260036000526012905290516200026e917f0f36ad39aee03e7108cc48f54934702a5f0d4066f10344cebf8198978d86976a91620002ce565b5050505062000418565b3390565b600b80546001600160a01b038381166001600160a01b0319831681179093556040519116919082907f8be0079c531659141344cd1fd0a4f28419497f9722a3daafe3b4186f6b6457e090600090a35050565b828054620002dc90620003db565b90600052602060002090601f0160209004810192826200030057600085556200034b565b82601f106200031b57805160ff19168380011785556200034b565b828001600101855582156200034b579182015b828111156200034b5782518255916020019190600101906200032e565b50620003599291506200035d565b5090565b5b808211156200035957600081556001016200035e565b80516001600160a01b03811681146200038c57600080fd5b919050565b600080600060608486031215620003a757600080fd5b620003b28462000374565b9250620003c26020850162000374565b9150620003d26040850162000374565b90509250925092565b600181811c90821680620003f057607f821691505b602082108114156200041257634e487b7160e01b600052602260045260246000fd5b50919050565b615d9e80620004286000396000f3fe6080604052600436106103395760003560e01c806368929b5c116101ab578063a22cb465116100f7578063ddca3f4311610095578063e8ca64f41161006f578063e8ca64f414610b66578063e985e9c514610bae578063ebcb309a14610bf7578063f2fde38b14610c1757600080fd5b8063ddca3f4314610b02578063e5ab63e914610b18578063e88958dc14610b5057600080fd5b8063b99ef1fa116100d1578063b99ef1fa14610a21578063bf82a6ac14610a59578063c87b56dd14610a9a578063cef9fab714610aba57600080fd5b8063a22cb465146109c1578063aaa545d0146109e1578063b88d4fde14610a0157600080fd5b80637bfec909116101645780638da5cb5b1161013e5780638da5cb5b14610902578063956f49bf1461092057806395d89b41146109615780639e1b567c1461097657600080fd5b80637bfec90914610895578063841ddaf8146108c25780638b11cf8a146108e257600080fd5b806368929b5c146107a657806368aa4dff146107de57806370a08231146107f1578063715018a614610811578063727577c41461082657806376032f0e1461085d57600080fd5b806323b872dd116102855780634e177b5211610223578063522ba1e3116101fd578063522ba1e3146106fd5780635398ba741461072b5780636352211e146107665780636810b4cf1461078657600080fd5b80634e177b521461069f5780634f6ccce7146106bf578063500b5bd6146106df57600080fd5b806341038d191161025f57806341038d191461060457806342842e0e1461063f578063438b63001461065f578063471859571461067f57600080fd5b806323b872dd146105a45780632693d518146105c45780632f745c59146105e457600080fd5b80630c54d2dd116102f257806318160ddd116102cc57806318160ddd146105115780631b32a6e3146105265780631b8f91e8146105395780631fd8b97e1461058457600080fd5b80630c54d2dd1461046e5780630d0654d9146104c45780630e3c22cb146104f157600080fd5b806301ffc9a71461037d57806304dcd300146103b257806306462b6f146103df57806306fdde0314610401578063081812fc14610416578063095ea7b31461044e57600080fd5b3661037857604080513381523460208201527f64c983f10188c30a885d77970aa5aae9a86e80ef9b459ad33cc620eb5999e070910160405180910390a1005b600080fd5b34801561038957600080fd5b5061039d6103983660046151cc565b610c37565b60405190151581526020015b60405180910390f35b3480156103be57600080fd5b506103d26103cd36600461566a565b610c48565b6040516103a991906159d5565b3480156103eb57600080fd5b506103ff6103fa366004614e3c565b610ce2565b005b34801561040d57600080fd5b506103d2610d37565b34801561042257600080fd5b5061043661043136600461566a565b610dc9565b6040516001600160a01b0390911681526020016103a9565b34801561045a57600080fd5b506103ff610469366004614f9d565b610e51565b34801561047a57600080fd5b506104b661048936600461523a565b81516020818401810180516022825292820194820194909420919093529091526000908152604090205481565b6040519081526020016103a9565b3480156104d057600080fd5b506104e46104df3660046154ba565b610f67565b6040516103a9919061596c565b3480156104fd57600080fd5b506103ff61050c366004614e3c565b611504565b34801561051d57600080fd5b506009546104b6565b6103ff6105343660046154f9565b611550565b34801561054557600080fd5b5061039d61055436600461523a565b8151602081840181018051602a825292820194820194909420919093529091526000908152604090205460ff1681565b34801561059057600080fd5b506103ff61059f366004615600565b611682565b3480156105b057600080fd5b506103ff6105bf366004614eaf565b611732565b3480156105d057600080fd5b506103ff6105df36600461534c565b611763565b3480156105f057600080fd5b506104b66105ff366004614f9d565b611bb2565b34801561061057600080fd5b5061039d61061f366004615206565b8051602081830181018051601e8252928201919093012091525460ff1681565b34801561064b57600080fd5b506103ff61065a366004614eaf565b611c48565b34801561066b57600080fd5b506104e461067a366004614e3c565b611c63565b34801561068b57600080fd5b506103ff61069a3660046152e9565b611d04565b3480156106ab57600080fd5b506104e46106ba3660046155bc565b6121f8565b3480156106cb57600080fd5b506104b66106da36600461566a565b612274565b3480156106eb57600080fd5b506010546001600160a01b0316610436565b34801561070957600080fd5b5061071d610718366004614e3c565b612307565b6040516103a992919061597f565b34801561073757600080fd5b5061039d610746366004615206565b805160208183018101805160138252928201919093012091525460ff1681565b34801561077257600080fd5b5061043661078136600461566a565b6125d3565b34801561079257600080fd5b506103ff6107a1366004615418565b61264a565b3480156107b257600080fd5b506104b66107c1366004615206565b8051602081830181018051601a8252928201919093012091525481565b6103ff6107ec366004615280565b61291a565b3480156107fd57600080fd5b506104b661080c366004614e3c565b6130bb565b34801561081d57600080fd5b506103ff613142565b34801561083257600080fd5b506104b6610841366004615206565b8051602081830181018051828252928201919093012091525481565b34801561086957600080fd5b506104b6610878366004615206565b8051602081830181018051601c8252928201919093012091525481565b3480156108a157600080fd5b506108b56108b03660046155bc565b613178565b6040516103a9919061591f565b3480156108ce57600080fd5b506103ff6108dd366004615091565b6131fd565b3480156108ee57600080fd5b506103d26108fd366004615206565b613234565b34801561090e57600080fd5b50600b546001600160a01b0316610436565b34801561092c57600080fd5b5061043661093b366004615206565b80516020818301810180516024825292820191909301209152546001600160a01b031681565b34801561096d57600080fd5b506103d2613258565b34801561098257600080fd5b5061039d61099136600461523a565b8151602081840181018051601b825292820194820194909420919093529091526000908152604090205460ff1681565b3480156109cd57600080fd5b506103ff6109dc366004614f6f565b613267565b3480156109ed57600080fd5b506108b56109fc366004615206565b613276565b348015610a0d57600080fd5b506103ff610a1c366004614ef0565b6132f0565b348015610a2d57600080fd5b506104b6610a3c366004615206565b805160208183018101805160198252928201919093012091525481565b348015610a6557600080fd5b50610436610a74366004615206565b80516020818301810180516015825292820191909301209152546001600160a01b031681565b348015610aa657600080fd5b506103d2610ab536600461566a565b613328565b348015610ac657600080fd5b506104b6610ad536600461523a565b81516020818401810180516023825292820194820194909420919093529091526000908152604090205481565b348015610b0e57600080fd5b506104b6602b5481565b348015610b2457600080fd5b506104b6610b33366004615206565b805160208183018101805160218252928201919093012091525481565b348015610b5c57600080fd5b506104b6602c5481565b348015610b7257600080fd5b50610ba1610b81366004615206565b805160208183018101805160188252928201919093012091525460ff1681565b6040516103a991906159ad565b348015610bba57600080fd5b5061039d610bc9366004614e76565b6001600160a01b03918216600090815260056020908152604080832093909416825291909152205460ff1690565b348015610c0357600080fd5b506103ff610c12366004614fc9565b613333565b348015610c2357600080fd5b506103ff610c32366004614e3c565b613775565b6000610c4282613810565b92915050565b60126020526000908152604090208054610c6190615c41565b80601f0160208091040260200160405190810160405280929190818152602001828054610c8d90615c41565b8015610cda5780601f10610caf57610100808354040283529160200191610cda565b820191906000526020600020905b815481529060010190602001808311610cbd57829003601f168201915b505050505081565b600b546001600160a01b03163314610d155760405162461bcd60e51b8152600401610d0c90615ad5565b60405180910390fd5b601180546001600160a01b0319166001600160a01b0392909216919091179055565b606060008054610d4690615c41565b80601f0160208091040260200160405190810160405280929190818152602001828054610d7290615c41565b8015610dbf5780601f10610d9457610100808354040283529160200191610dbf565b820191906000526020600020905b815481529060010190602001808311610da257829003601f168201915b5050505050905090565b6000610dd482613835565b610e355760405162461bcd60e51b815260206004820152602c60248201527f4552433732313a20617070726f76656420717565727920666f72206e6f6e657860448201526b34b9ba32b73a103a37b5b2b760a11b6064820152608401610d0c565b506000908152600460205260409020546001600160a01b031690565b6000610e5c826125d3565b9050806001600160a01b0316836001600160a01b03161415610eca5760405162461bcd60e51b815260206004820152602160248201527f4552433732313a20617070726f76616c20746f2063757272656e74206f776e656044820152603960f91b6064820152608401610d0c565b336001600160a01b0382161480610ee65750610ee68133610bc9565b610f585760405162461bcd60e51b815260206004820152603860248201527f4552433732313a20617070726f76652063616c6c6572206973206e6f74206f7760448201527f6e6572206e6f7220617070726f76656420666f7220616c6c00000000000000006064820152608401610d0c565b610f628383613852565b505050565b6060601387604051610f799190615745565b9081526040519081900360200190205460ff1615610fca5760405162461bcd60e51b815260206004820152600e60248201526d185b1c9958591e481b5a5b9d195960921b6044820152606401610d0c565b6000610fdc88888888888860016138c0565b5090506001601889604051610ff19190615745565b9081526040519081900360200190205460ff16600381111561101557611015615cd7565b14156110bd5760198860405161102b9190615745565b90815260200160405180910390205483111561107c5760405162461bcd60e51b815260206004820152601060248201526f6e6f7420656e6f75676820766f74657360801b6044820152606401610d0c565b600360188960405161108e9190615745565b908152604051908190036020019020805460ff191660018360038111156110b7576110b7615cd7565b02179055505b60036018896040516110cf9190615745565b9081526040519081900360200190205460ff1660038111156110f3576110f3615cd7565b146111565760405162461bcd60e51b815260206004820152602d60248201527f63616e206f6e6c79206d696e7420666f7220706174687761797320696e20617060448201526c70726f7665642073746174757360981b6064820152608401610d0c565b6010546040516060916001600160a01b0316907f65a35964691f73fd1604104300b719081f6abd939cb2fc62b713db949a3b240990611199908b906024016159d5565b60408051601f198184030181529181526020820180516001600160e01b03166001600160e01b03199094169390931790925290516111d79190615745565b6000604051808303816000865af19150503d8060008114611214576040519150601f19603f3d011682016040523d82523d6000602084013e611219565b606091505b5090925090508161122957600080fd5b60008180602001905181019061123f9190614e59565b90506001600160a01b0381161561131c57806001600160a01b03167f7c83c11f9ec76afed5429fa5830b7cc482416d05625066ce8f77199e2f5faaee8b60405160240161128c91906159d5565b60408051601f198184030181529181526020820180516001600160e01b03166001600160e01b03199094169390931790925290516112ca9190615745565b6000604051808303816000865af19150503d8060008114611307576040519150601f19603f3d011682016040523d82523d6000602084013e61130c565b606091505b5090935091508261131c57600080fd5b600060148b60405161132e9190615745565b908152604051908190036020019020546001600160401b0381111561135557611355615d19565b60405190808252806020026020018201604052801561137e578160200160208202803683370190505b5090506000805b60148d6040516113959190615745565b908152604051908190036020019020548110156114c0576113ba600c80546001019055565b600c54915061140c60148e6040516113d29190615745565b908152602001604051809103902082815481106113f1576113f1615d03565b6000918252602090912001546001600160a01b031683613a75565b611416828f613bb4565b8c6040516114249190615745565b60405180910390208e60405161143a9190615745565b604051809103902060148f6040516114529190615745565b9081526020016040518091039020838154811061147157611471615d03565b60009182526020822001546040516001600160a01b03909116917f323af8e82495eba529e101c6ea8614b66233683ec49766c746a7203ba276185e91a4806114b881615c7c565b915050611385565b50600160138d6040516114d39190615745565b908152604051908190036020019020805491151560ff19909216919091179055509350505050979650505050505050565b600b546001600160a01b0316331461152e5760405162461bcd60e51b8152600401610d0c90615ad5565b601080546001600160a01b0319166001600160a01b0392909216919091179055565b60006018896040516115629190615745565b9081526040519081900360200190205460ff16600381111561158657611586615cd7565b1461159057600080fd5b60016018896040516115a29190615745565b908152604051908190036020019020805460ff191660018360038111156115cb576115cb615cd7565b0217905550866017896040516115e19190615745565b90815260200160405180910390209080519060200190611602929190614b19565b50856020896040516116149190615745565b908152602001604051809103902081905550806015896040516116379190615745565b90815260405190819003602001902080546001600160a01b03929092166001600160a01b03199092169190911790558415611678576116788885858561291a565b5050505050505050565b60016020866040516116949190615745565b9081526020016040518091039020546116ad9190615bfe565b84116116fb5760405162461bcd60e51b815260206004820152601b60248201527f506174687761794e4654203a20696e76616c6964206e756d62657200000000006044820152606401610d0c565b611709338686868686613c3f565b508360208660405161171b9190615745565b908152604051908190036020019020555050505050565b61173c3382613e9f565b6117585760405162461bcd60e51b8152600401610d0c90615b0a565b610f62838383613f89565b6000831561197a57881561186357602a8a6040516117819190615745565b908152602001604051809103902060006117983390565b6001600160a01b0316815260208101919091526040016000205460ff16156117bf57600080fd5b60208a6040516117cf9190615745565b90815260200160405180910390205460218b6040516117ee9190615745565b9081526020016040518091039020541061180757600080fd5b60208a6040516118179190615745565b908152602001604051809103902054601c8b6040516118369190615745565b90815260200160405180910390205461184f9190615bcb565b90506000811161185e57600080fd5b61197a565b60298a6040516118739190615745565b90815260408051602092819003830190206001600160a01b038b16600090815290835281812033825290925290205460ff16156118af57600080fd5b60208a6040516118bf9190615745565b90815260200160405180910390205460228b6040516118de9190615745565b90815260408051602092819003830190206001600160a01b038c16600090815292529020541061190d57600080fd5b60208a60405161191d9190615745565b908152602001604051809103902054601d8b60405161193c9190615745565b90815260408051602092819003830190206001600160a01b038c166000908152925290205461196b9190615bcb565b90506000811161197a57600080fd5b611988338b848a8a8a613c3f565b508315611b9a578815611a7557604051600090339083908381818185875af1925050503d80600081146119d7576040519150601f19603f3d011682016040523d82523d6000602084013e6119dc565b606091505b50509050806119ea57600080fd5b6001602a8c6040516119fc9190615745565b90815260200160405180910390206000611a133390565b6001600160a01b0316815260208101919091526040908101600020805460ff19169215159290921790915551602190611a4d908d90615745565b9081526040519081900360200190208054906000611a6a83615c7c565b919050555050611b9a565b6001600160a01b03881663a9059cbb336040516001600160e01b031960e084901b1681526001600160a01b03909116600482015260248101849052604401602060405180830381600087803b158015611acd57600080fd5b505af1158015611ae1573d6000803e3d6000fd5b505050506040513d601f19601f82011682018060405250810190611b0591906151af565b50600160298b604051611b189190615745565b90815260408051602092819003830181206001600160a01b038d1660009081529084528281203382529093529120805460ff191692151592909217909155602290611b64908c90615745565b90815260408051602092819003830190206001600160a01b038b16600090815292528120805491611b9483615c7c565b91905055505b611ba6338b8585614130565b50505050505050505050565b6000611bbd836130bb565b8210611c1f5760405162461bcd60e51b815260206004820152602b60248201527f455243373231456e756d657261626c653a206f776e657220696e646578206f7560448201526a74206f6620626f756e647360a81b6064820152608401610d0c565b506001600160a01b03919091166000908152600760209081526040808320938352929052205490565b610f62838383604051806020016040528060008152506132f0565b60606000611c70836130bb565b90506000816001600160401b03811115611c8c57611c8c615d19565b604051908082528060200260200182016040528015611cb5578160200160208202803683370190505b50905060005b82811015611cfc57611ccd8582611bb2565b828281518110611cdf57611cdf615d03565b602090810291909101015280611cf481615c7c565b915050611cbb565b509392505050565b6002601884604051611d169190615745565b9081526040519081900360200190205460ff166003811115611d3a57611d3a615cd7565b14611d875760405162461bcd60e51b815260206004820152601860248201527f696e636f727265637420706174687761792073746174757300000000000000006044820152606401610d0c565b6000601784604051611d999190615745565b90815260200160405180910390208054611db290615c41565b80601f0160208091040260200160405190810160405280929190818152602001828054611dde90615c41565b8015611e2b5780601f10611e0057610100808354040283529160200191611e2b565b820191906000526020600020905b815481529060010190602001808311611e0e57829003601f168201915b5050600f546040519495506000948594506001600160a01b0390911692507f0d58dd088cbe688b8c61e8f36a658aa45125fbcff8c7e7af836d3925770f01bc9150611e7a9086906024016159d5565b60408051601f198184030181529181526020820180516001600160e01b03166001600160e01b0319909416939093179092529051611eb89190615745565b6000604051808303816000865af19150503d8060008114611ef5576040519150601f19603f3d011682016040523d82523d6000602084013e611efa565b606091505b509150915081611f0957600080fd5b600081806020019051810190611f1f9190614e59565b90506001600160a01b038116611f3457600080fd5b851561205a57601e87604051611f4a9190615745565b9081526040519081900360200190205460ff1615611faa5760405162461bcd60e51b815260206004820152601d60248201527f6e61746976652072657761726420616c726561647920636c61696d65640000006044820152606401610d0c565b806001600160a01b0316601c88604051611fc49190615745565b9081526040519081900360200181205490600081818185875af1925050503d806000811461200e576040519150601f19603f3d011682016040523d82523d6000602084013e612013565b606091505b5050809350508261202357600080fd5b6001601e886040516120359190615745565b908152604051908190036020019020805491151560ff199092169190911790556121ef565b601f8760405161206a9190615745565b90815260408051602092819003830190206001600160a01b0388166000908152925290205460ff16156120df5760405162461bcd60e51b815260206004820152601c60248201527f65726332302072657761726420616c726561647920636c61696d6564000000006044820152606401610d0c565b846001600160a01b031663a9059cbb82601d8a6040516120ff9190615745565b9081526040805191829003602090810183206001600160a01b038c166000908152915220546001600160e01b031960e085901b16825261215692916004016001600160a01b03929092168252602082015260400190565b602060405180830381600087803b15801561217057600080fd5b505af1158015612184573d6000803e3d6000fd5b505050506040513d601f19601f820116820180604052508101906121a891906151af565b506001601f886040516121bb9190615745565b90815260408051602092819003830190206001600160a01b038916600090815292529020805460ff19169115159190911790555b50505050505050565b606060278360405161220a9190615745565b9081526040805191829003602090810183206000868152908252829020805480830285018301909352828452919083018282801561226757602002820191906000526020600020905b815481526020019060010190808311612253575b5050505050905092915050565b600061227f60095490565b82106122e25760405162461bcd60e51b815260206004820152602c60248201527f455243373231456e756d657261626c653a20676c6f62616c20696e646578206f60448201526b7574206f6620626f756e647360a01b6064820152608401610d0c565b600982815481106122f5576122f5615d03565b90600052602060002001549050919050565b6060806000612315846130bb565b6040805160208101909152600080825291925090826001600160401b0381111561234157612341615d19565b60405190808252806020026020018201604052801561236a578160200160208202803683370190505b50905082612379578094508193505b60005b612387600185615bfe565b8110156124b45760006028600061239e8a85611bb2565b81526020019081526020016000206040518060400160405290816000820180546123c790615c41565b80601f01602080910402602001604051908101604052809291908181526020018280546123f390615c41565b80156124405780601f1061241557610100808354040283529160200191612440565b820191906000526020600020905b81548152906001019060200180831161242357829003601f168201915b505050505081526020016001820154815250509050806020015183838151811061246c5761246c615d03565b60200260200101818152505083816000015160405160200161248f929190615790565b604051602081830303815290604052935081806124ab90615c7c565b9250505061237c565b6000602860006124c48a85611bb2565b81526020019081526020016000206040518060400160405290816000820180546124ed90615c41565b80601f016020809104026020016040519081016040528092919081815260200182805461251990615c41565b80156125665780601f1061253b57610100808354040283529160200191612566565b820191906000526020600020905b81548152906001019060200180831161254957829003601f168201915b505050505081526020016001820154815250509050806020015183838151811061259257612592615d03565b6020026020010181815250508381600001516040516020016125b5929190615761565b60405160208183030381529060405295508296505050505050915091565b6000818152600260205260408120546001600160a01b031680610c425760405162461bcd60e51b815260206004820152602960248201527f4552433732313a206f776e657220717565727920666f72206e6f6e657869737460448201526832b73a103a37b5b2b760b91b6064820152608401610d0c565b600160188760405161265c9190615745565b9081526040519081900360200190205460ff16600381111561268057612680615cd7565b146126c35760405162461bcd60e51b815260206004820152601360248201527270617468776179206e6f742070656e64696e6760681b6044820152606401610d0c565b601b866040516126d39190615745565b908152602001604051809103902060006126ea3390565b6001600160a01b0316815260208101919091526040016000205460ff16156127545760405162461bcd60e51b815260206004820152601e60248201527f616c726561647920766f74656420666f722074686973207061746877617900006044820152606401610d0c565b846040516020016127659190615745565b6040516020818303038152906040528051906020012060178760405161278b9190615745565b90815260200160405180910390206040516020016127a991906157cc565b60405160208183030381529060405280519060200120146128025760405162461bcd60e51b81526020600482015260136024820152721a5b98dbdc9c9958dd081c1c9bda9958dd1259606a1b6044820152606401610d0c565b60008061281588888888888860006138c0565b91509150601a886040516128299190615745565b908152604051908190036020019020805490600061284683615c7c565b91905055506001601b8960405161285d9190615745565b908152602001604051809103902060006128743390565b6001600160a01b03166001600160a01b0316815260200190815260200160002060006101000a81548160ff02191690831515021790555082601a896040516128bc9190615745565b908152602001604051809103902054106116785760026018896040516128e29190615745565b908152604051908190036020019020805460ff1916600183600381111561290b5761290b615cd7565b02179055505050505050505050565b600160188560405161292c9190615745565b9081526040519081900360200190205460ff16600381111561295057612950615cd7565b148061298f575060036018856040516129699190615745565b9081526040519081900360200190205460ff16600381111561298d5761298d615cd7565b145b6129db5760405162461bcd60e51b815260206004820152601c60248201527f70617468776179206e6f742070656e64696e672f617070726f766564000000006044820152606401610d0c565b60006020856040516129ed9190615745565b90815260200160405180910390205411612a3b5760405162461bcd60e51b815260206004820152600f60248201526e6e6f2075736572207265776172647360881b6044820152606401610d0c565b600f5460408051600481526024810182526020810180516001600160e01b0316631c3b702f60e11b179052905160009283926001600160a01b0390911691612a839190615745565b6000604051808303816000865af19150503d8060008114612ac0576040519150601f19603f3d011682016040523d82523d6000602084013e612ac5565b606091505b509150915081612ad457600080fd5b600081806020019051810190612aea9190614e59565b90506000612710602b5486612aff9190615bdf565b612b099190615bcb565b90506000612710602c5487612b1e9190615bdf565b612b289190615bcb565b90508615612d165780612b3b8388615bb3565b612b459190615bb3565b341015612b895760405162461bcd60e51b8152602060048201526012602482015271696e73756666696369656e742066756e647360701b6044820152606401610d0c565b6040516001600160a01b038416908390600081818185875af1925050503d8060008114612bd2576040519150601f19603f3d011682016040523d82523d6000602084013e612bd7565b606091505b50508095505084612be757600080fd5b601589604051612bf79190615745565b908152604051908190036020018120546001600160a01b031690829060006040518083038185875af1925050503d8060008114612c50576040519150601f19603f3d011682016040523d82523d6000602084013e612c55565b606091505b50508095505084612c6557600080fd5b85601c8a604051612c769190615745565b90815260200160405180910390206000828254612c939190615bb3565b90915550612ca390508287615bb3565b341115612d11573382612cb68834615bfe565b612cc09190615bfe565b604051600081818185875af1925050503d8060008114612cfc576040519150601f19603f3d011682016040523d82523d6000602084013e612d01565b606091505b50508095505084612d1157600080fd5b6130b0565b6001600160a01b038816612d2957600080fd5b6010546040516001600160a01b03909116907f11f69039648f0dd87bd7c96fa7501d8c9b90ae27f5d68bb2f9adfc6ae113637a90601790612d6b908d90615745565b908152604051908190036020018120612d8a9146908d906024016159e8565b60408051601f198184030181529181526020820180516001600160e01b03166001600160e01b0319909416939093179092529051612dc89190615745565b6000604051808303816000865af19150503d8060008114612e05576040519150601f19603f3d011682016040523d82523d6000602084013e612e0a565b606091505b50909550935084612e1a57600080fd5b83806020019051810190612e2e91906151af565b945084612e725760405162461bcd60e51b8152602060048201526012602482015271115490cc8c081b9bdd08185c1c1c9bdd995960721b6044820152606401610d0c565b6001600160a01b0388166323b872dd336040516001600160e01b031960e084901b1681526001600160a01b039182166004820152908616602482015260448101859052606401602060405180830381600087803b158015612ed257600080fd5b505af1158015612ee6573d6000803e3d6000fd5b505050506040513d601f19601f82011682018060405250810190612f0a91906151af565b506001600160a01b0388166323b872dd3330612f26858b615bb3565b6040516001600160e01b031960e086901b1681526001600160a01b0393841660048201529290911660248301526044820152606401602060405180830381600087803b158015612f7557600080fd5b505af1158015612f89573d6000803e3d6000fd5b505050506040513d601f19601f82011682018060405250810190612fad91906151af565b50876001600160a01b031663a9059cbb60158b604051612fcd9190615745565b908152604051908190036020018120546001600160e01b031960e084901b1682526001600160a01b0316600482015260248101849052604401602060405180830381600087803b15801561302057600080fd5b505af1158015613034573d6000803e3d6000fd5b505050506040513d601f19601f8201168201806040525081019061305891906151af565b5085601d8a60405161306a9190615745565b908152602001604051809103902060008a6001600160a01b03166001600160a01b0316815260200190815260200160002060008282546130aa9190615bb3565b90915550505b505050505050505050565b60006001600160a01b0382166131265760405162461bcd60e51b815260206004820152602a60248201527f4552433732313a2062616c616e636520717565727920666f7220746865207a65604482015269726f206164647265737360b01b6064820152608401610d0c565b506001600160a01b031660009081526003602052604090205490565b600b546001600160a01b0316331461316c5760405162461bcd60e51b8152600401610d0c90615ad5565b61317660006142d1565b565b606060268360405161318a9190615745565b9081526040805191829003602090810183206000868152908252829020805480830285018301909352828452919083018282801561226757602002820191906000526020600020905b81546001600160a01b031681526001909101906020018083116131d3575050505050905092915050565b83516020850151613217918d918d91899188908888611550565b6132268c8c8c8c8c8c8c613333565b505050505050505050505050565b805160208183018101805160178252928201919093012091528054610c6190615c41565b606060018054610d4690615c41565b613272338383614323565b5050565b60606014826040516132889190615745565b90815260408051918290036020908101832080548083028501830190935282845291908301828280156132e457602002820191906000526020600020905b81546001600160a01b031681526001909101906020018083116132c6575b50505050509050919050565b6132fa3383613e9f565b6133165760405162461bcd60e51b8152600401610d0c90615b0a565b613322848484846143f2565b50505050565b6060610c4282614425565b60016018876040516133459190615745565b9081526040519081900360200190205460ff16600381111561336957613369615cd7565b146133ab5760405162461bcd60e51b8152602060048201526012602482015271737461747573206e6f742070656e64696e6760701b6044820152606401610d0c565b601b866040516133bb9190615745565b908152602001604051809103902060006133d23390565b6001600160a01b0316815260208101919091526040016000205460ff161561343c5760405162461bcd60e51b815260206004820152601e60248201527f616c726561647920766f74656420666f722074686973207061746877617900006044820152606401610d0c565b8460405160200161344d9190615745565b604051602081830303815290604052805190602001206017876040516134739190615745565b908152602001604051809103902060405160200161349191906157cc565b60405160208183030381529060405280519060200120146134ea5760405162461bcd60e51b81526020600482015260136024820152721a5b98dbdc9c9958dd081c1c9bda9958dd1259606a1b6044820152606401610d0c565b6000806134fd88888888888860006138c0565b915091506019886040516135119190615745565b908152604051908190036020019020805490600061352e83615c7c565b91905055506001601b896040516135459190615745565b9081526020016040518091039020600061355c3390565b6001600160a01b0316815260208101919091526040908101600020805460ff19169215159290921790915551601990613596908a90615745565b908152602001604051809103902054600114156136c75760008951116135ec5760405162461bcd60e51b815260206004820152600b60248201526a656d70747920617272617960a81b6044820152606401610d0c565b886014896040516135fd9190615745565b9081526020016040518091039020908051906020019061361e929190614b9d565b5060198860405161362f9190615745565b9081526020016040518091039020548311612d115760036018896040516136569190615745565b908152604051908190036020019020805460ff1916600183600381111561367f5761367f615cd7565b0217905550876040516136929190615745565b604051908190038120907fcf525faa39dde00362f50602e2030eb0b110857c69ffaf3c69a504b41962bf0f90600090a26130b0565b826019896040516136d89190615745565b908152602001604051809103902054106130b05760036018896040516136fe9190615745565b908152604051908190036020019020805460ff1916600183600381111561372757613727615cd7565b02179055508760405161373a9190615745565b604051908190038120907fcf525faa39dde00362f50602e2030eb0b110857c69ffaf3c69a504b41962bf0f90600090a2505050505050505050565b600b546001600160a01b0316331461379f5760405162461bcd60e51b8152600401610d0c90615ad5565b6001600160a01b0381166138045760405162461bcd60e51b815260206004820152602660248201527f4f776e61626c653a206e6577206f776e657220697320746865207a65726f206160448201526564647265737360d01b6064820152608401610d0c565b61380d816142d1565b50565b60006001600160e01b0319821663780e9d6360e01b1480610c425750610c4282614594565b6000908152600260205260409020546001600160a01b0316151590565b600081815260046020526040902080546001600160a01b0319166001600160a01b0384169081179091558190613887826125d3565b6001600160a01b03167f8c5be1e5ebec7d5bd14f71427d1e84f3dd0314c0f7b2291e5b200ac8c7c3b92560405160405180910390a45050565b600e5460009081906001600160a01b03166312065106338b8b8b600060200201518b600060200201518b600060200201516040518763ffffffff1660e01b81526004016139129695949392919061587b565b602060405180830381600087803b15801561392c57600080fd5b505af1158015613940573d6000803e3d6000fd5b505050506040513d601f19601f8201168201806040525081019061396491906151af565b91508161397057600080fd5b8280156139b15750600160188a60405161398a9190615745565b9081526040519081900360200190205460ff1660038111156139ae576139ae615cd7565b14155b156139be57506001613a69565b600e546001600160a01b031663466cc53e338b878b600160200201518b600160200201518b600160200201516040518763ffffffff1660e01b8152600401613a0b969594939291906158d3565b602060405180830381600087803b158015613a2557600080fd5b505af1158015613a39573d6000803e3d6000fd5b505050506040513d601f19601f82011682018060405250810190613a5d91906151af565b905080613a6957600080fd5b97509795505050505050565b6001600160a01b038216613acb5760405162461bcd60e51b815260206004820181905260248201527f4552433732313a206d696e7420746f20746865207a65726f20616464726573736044820152606401610d0c565b613ad481613835565b15613b215760405162461bcd60e51b815260206004820152601c60248201527f4552433732313a20746f6b656e20616c7265616479206d696e746564000000006044820152606401610d0c565b613b2d600083836145e4565b6001600160a01b0382166000908152600360205260408120805460019290613b56908490615bb3565b909155505060008181526002602052604080822080546001600160a01b0319166001600160a01b03861690811790915590518392907fddf252ad1be2c89b69c2b068fc378daa952ba7f163c4a11628f55a4df523b3ef908290a45050565b613bbd82613835565b613c205760405162461bcd60e51b815260206004820152602e60248201527f45524337323155524953746f726167653a2055524920736574206f66206e6f6e60448201526d32bc34b9ba32b73a103a37b5b2b760911b6064820152608401610d0c565b60008281526006602090815260409091208251610f6292840190614b19565b60008087304660238a604051613c559190615745565b90815260408051602092819003830181206001600160a01b038f1660009081529084529190912054613c909594939290918c918e91016156ea565b60408051601f1981840301815282825280516020918201206010546004855260248501845291840180516001600160e01b031663a5207df560e01b179052915191935060009283926001600160a01b0390921691613cee9190615745565b6000604051808303816000865af19150503d8060008114613d2b576040519150601f19603f3d011682016040523d82523d6000602084013e613d30565b606091505b509150915081613d3f57600080fd5b600081806020019051810190613d559190614e59565b6040517f19457468657265756d205369676e6564204d6573736167653a0a3332000000006020820152603c8101869052909150600190605c0160408051601f198184030181528282528051602091820120600084529083018083525260ff891690820152606081018a90526080810189905260a0016020604051602081039080840390855afa158015613dec573d6000803e3d6000fd5b505050602060405103516001600160a01b0316816001600160a01b031614613e495760405162461bcd60e51b815260206004820152601060248201526f24b731b7b93932b1ba1039b4b3b732b960811b6044820152606401610d0c565b60238a604051613e599190615745565b90815260408051602092819003830190206001600160a01b038e16600090815292528120805491613e8983615c7c565b9091555060019c9b505050505050505050505050565b6000613eaa82613835565b613f0b5760405162461bcd60e51b815260206004820152602c60248201527f4552433732313a206f70657261746f7220717565727920666f72206e6f6e657860448201526b34b9ba32b73a103a37b5b2b760a11b6064820152608401610d0c565b6000613f16836125d3565b9050806001600160a01b0316846001600160a01b03161480613f5d57506001600160a01b0380821660009081526005602090815260408083209388168352929052205460ff165b80613f815750836001600160a01b0316613f7684610dc9565b6001600160a01b0316145b949350505050565b826001600160a01b0316613f9c826125d3565b6001600160a01b0316146140005760405162461bcd60e51b815260206004820152602560248201527f4552433732313a207472616e736665722066726f6d20696e636f72726563742060448201526437bbb732b960d91b6064820152608401610d0c565b6001600160a01b0382166140625760405162461bcd60e51b8152602060048201526024808201527f4552433732313a207472616e7366657220746f20746865207a65726f206164646044820152637265737360e01b6064820152608401610d0c565b61406d8383836145e4565b614078600082613852565b6001600160a01b03831660009081526003602052604081208054600192906140a1908490615bfe565b90915550506001600160a01b03821660009081526003602052604081208054600192906140cf908490615bb3565b909155505060008181526002602052604080822080546001600160a01b0319166001600160a01b0386811691821790925591518493918716917fddf252ad1be2c89b69c2b068fc378daa952ba7f163c4a11628f55a4df523b3ef91a4505050565b6025836040516141409190615745565b908152604080516020928190038301902060008481529083528181206001600160a01b038816825290925290205460ff161561417b57613322565b600061418b600c80546001019055565b50600c546141993382613a75565b6141a38184613bb4565b60408051808201825285815260208082018590526000848152602882529290922081518051929384936141d99284920190614b19565b50602082015181600101559050506026856040516141f79190615745565b9081526040805191829003602090810183206000878152908252918220805460018101825590835291200180546001600160a01b0389166001600160a01b031990911617905560279061424b908790615745565b908152604080519182900360209081018320600087815290825291822080546001818101835591845291909220018490559060259061428b908890615745565b9081526040805160209281900383019020600096875282528086206001600160a01b0399909916865297905295909220805460ff19169515159590951790945550505050565b600b80546001600160a01b038381166001600160a01b0319831681179093556040519116919082907f8be0079c531659141344cd1fd0a4f28419497f9722a3daafe3b4186f6b6457e090600090a35050565b816001600160a01b0316836001600160a01b031614156143855760405162461bcd60e51b815260206004820152601960248201527f4552433732313a20617070726f766520746f2063616c6c6572000000000000006044820152606401610d0c565b6001600160a01b03838116600081815260056020908152604080832094871680845294825291829020805460ff191686151590811790915591519182527f17307eab39ab6107e8899845ad3d59bd9653f200f220920489ca2b5937696c31910160405180910390a3505050565b6143fd848484613f89565b614409848484846145ef565b6133225760405162461bcd60e51b8152600401610d0c90615a83565b606061443082613835565b6144965760405162461bcd60e51b815260206004820152603160248201527f45524337323155524953746f726167653a2055524920717565727920666f72206044820152703737b732bc34b9ba32b73a103a37b5b2b760791b6064820152608401610d0c565b600082815260066020526040812080546144af90615c41565b80601f01602080910402602001604051908101604052809291908181526020018280546144db90615c41565b80156145285780601f106144fd57610100808354040283529160200191614528565b820191906000526020600020905b81548152906001019060200180831161450b57829003601f168201915b50505050509050600061454660408051602081019091526000815290565b9050805160001415614559575092915050565b81511561458b578082604051602001614573929190615761565b60405160208183030381529060405292505050919050565b613f81846146fc565b60006001600160e01b031982166380ac58cd60e01b14806145c557506001600160e01b03198216635b5e139f60e01b145b80610c4257506301ffc9a760e01b6001600160e01b0319831614610c42565b610f628383836147d4565b60006001600160a01b0384163b156146f157604051630a85bd0160e11b81526001600160a01b0385169063150b7a029061463390339089908890889060040161583e565b602060405180830381600087803b15801561464d57600080fd5b505af192505050801561467d575060408051601f3d908101601f1916820190925261467a918101906151e9565b60015b6146d7573d8080156146ab576040519150601f19603f3d011682016040523d82523d6000602084013e6146b0565b606091505b5080516146cf5760405162461bcd60e51b8152600401610d0c90615a83565b805181602001fd5b6001600160e01b031916630a85bd0160e11b149050613f81565b506001949350505050565b606061470782613835565b61476b5760405162461bcd60e51b815260206004820152602f60248201527f4552433732314d657461646174613a2055524920717565727920666f72206e6f60448201526e3732bc34b9ba32b73a103a37b5b2b760891b6064820152608401610d0c565b600061478260408051602081019091526000815290565b905060008151116147a257604051806020016040528060008152506147cd565b806147ac8461488c565b6040516020016147bd929190615761565b6040516020818303038152906040525b9392505050565b6001600160a01b03831661482f5761482a81600980546000838152600a60205260408120829055600182018355919091527f6e1540171b6c0c960b71a7020d9f60077f6af931a8bbf590da0223dacf75c7af0155565b614852565b816001600160a01b0316836001600160a01b031614614852576148528382614989565b6001600160a01b03821661486957610f6281614a26565b826001600160a01b0316826001600160a01b031614610f6257610f628282614ad5565b6060816148b05750506040805180820190915260018152600360fc1b602082015290565b8160005b81156148da57806148c481615c7c565b91506148d39050600a83615bcb565b91506148b4565b6000816001600160401b038111156148f4576148f4615d19565b6040519080825280601f01601f19166020018201604052801561491e576020820181803683370190505b5090505b8415613f8157614933600183615bfe565b9150614940600a86615c97565b61494b906030615bb3565b60f81b81838151811061496057614960615d03565b60200101906001600160f81b031916908160001a905350614982600a86615bcb565b9450614922565b60006001614996846130bb565b6149a09190615bfe565b6000838152600860205260409020549091508082146149f3576001600160a01b03841660009081526007602090815260408083208584528252808320548484528184208190558352600890915290208190555b5060009182526008602090815260408084208490556001600160a01b039094168352600781528383209183525290812055565b600954600090614a3890600190615bfe565b6000838152600a602052604081205460098054939450909284908110614a6057614a60615d03565b906000526020600020015490508060098381548110614a8157614a81615d03565b6000918252602080832090910192909255828152600a90915260408082208490558582528120556009805480614ab957614ab9615ced565b6001900381819060005260206000200160009055905550505050565b6000614ae0836130bb565b6001600160a01b039093166000908152600760209081526040808320868452825280832085905593825260089052919091209190915550565b828054614b2590615c41565b90600052602060002090601f016020900481019282614b475760008555614b8d565b82601f10614b6057805160ff1916838001178555614b8d565b82800160010185558215614b8d579182015b82811115614b8d578251825591602001919060010190614b72565b50614b99929150614bf2565b5090565b828054828255906000526020600020908101928215614b8d579160200282015b82811115614b8d57825182546001600160a01b0319166001600160a01b03909116178255602090920191600190910190614bbd565b5b80821115614b995760008155600101614bf3565b60006001600160401b03831115614c2057614c20615d19565b614c33601f8401601f1916602001615b83565b9050828152838383011115614c4757600080fd5b828260208301376000602084830101529392505050565b8035614c6981615d2f565b919050565b600082601f830112614c7f57600080fd5b813560206001600160401b03821115614c9a57614c9a615d19565b8160051b614ca9828201615b83565b838152828101908684018388018501891015614cc457600080fd5b600093505b85841015614cf0578035614cdc81615d2f565b835260019390930192918401918401614cc9565b50979650505050505050565b600082601f830112614d0d57600080fd5b614d15615b5b565b808385604086011115614d2757600080fd5b60005b6002811015614d53578135614d3e81615d44565b84526020938401939190910190600101614d2a565b509095945050505050565b600082601f830112614d6f57600080fd5b614d77615b5b565b808385604086011115614d8957600080fd5b60005b6002811015614d53578135845260209384019390910190600101614d8c565b600082601f830112614dbc57600080fd5b614dc4615b5b565b808385604086011115614dd657600080fd5b60005b6002811015614d5357614deb82614e2b565b84526020938401939190910190600101614dd9565b8035614c6981615d44565b600082601f830112614e1c57600080fd5b6147cd83833560208501614c07565b803560ff81168114614c6957600080fd5b600060208284031215614e4e57600080fd5b81356147cd81615d2f565b600060208284031215614e6b57600080fd5b81516147cd81615d2f565b60008060408385031215614e8957600080fd5b8235614e9481615d2f565b91506020830135614ea481615d2f565b809150509250929050565b600080600060608486031215614ec457600080fd5b8335614ecf81615d2f565b92506020840135614edf81615d2f565b929592945050506040919091013590565b60008060008060808587031215614f0657600080fd5b8435614f1181615d2f565b93506020850135614f2181615d2f565b92506040850135915060608501356001600160401b03811115614f4357600080fd5b8501601f81018713614f5457600080fd5b614f6387823560208401614c07565b91505092959194509250565b60008060408385031215614f8257600080fd5b8235614f8d81615d2f565b91506020830135614ea481615d44565b60008060408385031215614fb057600080fd5b8235614fbb81615d2f565b946020939093013593505050565b6000806000806000806000610140888a031215614fe557600080fd5b87356001600160401b0380821115614ffc57600080fd5b6150088b838c01614c6e565b985060208a013591508082111561501e57600080fd5b61502a8b838c01614e0b565b975060408a013591508082111561504057600080fd5b5061504d8a828b01614e0b565b95505061505d8960608a01614d5e565b935061506c8960a08a01614d5e565b925061507b8960e08a01614dab565b9150610120880135905092959891949750929550565b6000806000806000806000806000806000806102008d8f0312156150b457600080fd5b6001600160401b038d3511156150c957600080fd5b6150d68e8e358f01614c6e565b9b506001600160401b0360208e013511156150f057600080fd5b6151008e60208f01358f01614e0b565b9a506001600160401b0360408e0135111561511a57600080fd5b61512a8e60408f01358f01614e0b565b99506151398e60608f01614d5e565b98506151488e60a08f01614d5e565b97506151578e60e08f01614dab565b96506101208d013595506101408d013594506151778e6101608f01614cfc565b93506151866101a08e01614c5e565b92506101c08d0135915061519d6101e08e01614c5e565b90509295989b509295989b509295989b565b6000602082840312156151c157600080fd5b81516147cd81615d44565b6000602082840312156151de57600080fd5b81356147cd81615d52565b6000602082840312156151fb57600080fd5b81516147cd81615d52565b60006020828403121561521857600080fd5b81356001600160401b0381111561522e57600080fd5b613f8184828501614e0b565b6000806040838503121561524d57600080fd5b82356001600160401b0381111561526357600080fd5b61526f85828601614e0b565b9250506020830135614ea481615d2f565b6000806000806080858703121561529657600080fd5b84356001600160401b038111156152ac57600080fd5b6152b887828801614e0b565b94505060208501356152c981615d2f565b925060408501356152d981615d44565b9396929550929360600135925050565b6000806000606084860312156152fe57600080fd5b83356001600160401b0381111561531457600080fd5b61532086828701614e0b565b935050602084013561533181615d44565b9150604084013561534181615d2f565b809150509250925092565b60008060008060008060008060006101208a8c03121561536b57600080fd5b89356001600160401b038082111561538257600080fd5b61538e8d838e01614e0b565b9a5060208c013591506153a082615d44565b90985060408b0135906153b282615d2f565b81985060608c0135975060808c013596506153cf60a08d01614e2b565b95506153dd60c08d01614e00565b945060e08c01359150808211156153f357600080fd5b506154008c828d01614e0b565b9250506101008a013590509295985092959850929598565b600080600080600080610120878903121561543257600080fd5b86356001600160401b038082111561544957600080fd5b6154558a838b01614e0b565b9750602089013591508082111561546b57600080fd5b5061547889828a01614e0b565b9550506154888860408901614d5e565b93506154978860808901614d5e565b92506154a68860c08901614dab565b915061010087013590509295509295509295565b6000806000806000806000610140888a0312156154d657600080fd5b87356001600160401b03808211156154ed57600080fd5b6150088b838c01614e0b565b600080600080600080600080610100898b03121561551657600080fd5b88356001600160401b038082111561552d57600080fd5b6155398c838d01614e0b565b995060208b013591508082111561554f57600080fd5b5061555c8b828c01614e0b565b97505060408901359550606089013561557481615d44565b9450608089013561558481615d2f565b935060a089013561559481615d44565b925060c0890135915060e08901356155ab81615d2f565b809150509295985092959890939650565b600080604083850312156155cf57600080fd5b82356001600160401b038111156155e557600080fd5b6155f185828601614e0b565b95602094909401359450505050565b600080600080600060a0868803121561561857600080fd5b85356001600160401b0381111561562e57600080fd5b61563a88828901614e0b565b95505060208601359350604086013592506060860135915061565e60808701614e2b565b90509295509295909350565b60006020828403121561567c57600080fd5b5035919050565b600081518084526020808501945080840160005b838110156156b357815187529582019590820190600101615697565b509495945050505050565b600081518084526156d6816020860160208601615c15565b601f01601f19169290920160200192915050565b60006bffffffffffffffffffffffff19808960601b168352808860601b166014840152508560288301528460488301528360688301528251615733816088850160208701615c15565b91909101608801979650505050505050565b60008251615757818460208701615c15565b9190910192915050565b60008351615773818460208801615c15565b835190830190615787818360208801615c15565b01949350505050565b600083516157a2818460208801615c15565b8351908301906157b6818360208801615c15565b615f5f60f01b9101908152600201949350505050565b60008083546157da81615c41565b600182811680156157f2576001811461580357615832565b60ff19841687528287019450615832565b8760005260208060002060005b858110156158295781548a820152908401908201615810565b50505082870194505b50929695505050505050565b6001600160a01b0385811682528416602082015260408101839052608060608201819052600090615871908301846156be565b9695505050505050565b6001600160a01b038716815260c06020820181905260009061589f908301886156be565b82810360408401526158b181886156be565b60608401969096525050608081019290925260ff1660a0909101529392505050565b6001600160a01b038716815260c0602082018190526000906158f7908301886156be565b905085604083015284606083015283608083015260ff831660a0830152979650505050505050565b6020808252825182820181905260009190848201906040850190845b818110156159605783516001600160a01b03168352928401929184019160010161593b565b50909695505050505050565b6020815260006147cd6020830184615683565b6040815260006159926040830185615683565b82810360208401526159a481856156be565b95945050505050565b60208101600483106159cf57634e487b7160e01b600052602160045260246000fd5b91905290565b6020815260006147cd60208301846156be565b6060815260008085546159fa81615c41565b8060608601526080600180841660008114615a1c5760018114615a3057615a61565b60ff1985168884015260a088019550615a61565b8a60005260208060002060005b86811015615a585781548b8201870152908401908201615a3d565b8a018501975050505b5050505050602083018590526001600160a01b03841660408401529050613f81565b60208082526032908201527f4552433732313a207472616e7366657220746f206e6f6e20455243373231526560408201527131b2b4bb32b91034b6b83632b6b2b73a32b960711b606082015260800190565b6020808252818101527f4f776e61626c653a2063616c6c6572206973206e6f7420746865206f776e6572604082015260600190565b60208082526031908201527f4552433732313a207472616e736665722063616c6c6572206973206e6f74206f6040820152701ddb995c881b9bdc88185c1c1c9bdd9959607a1b606082015260800190565b604080519081016001600160401b0381118282101715615b7d57615b7d615d19565b60405290565b604051601f8201601f191681016001600160401b0381118282101715615bab57615bab615d19565b604052919050565b60008219821115615bc657615bc6615cab565b500190565b600082615bda57615bda615cc1565b500490565b6000816000190483118215151615615bf957615bf9615cab565b500290565b600082821015615c1057615c10615cab565b500390565b60005b83811015615c30578181015183820152602001615c18565b838111156133225750506000910152565b600181811c90821680615c5557607f821691505b60208210811415615c7657634e487b7160e01b600052602260045260246000fd5b50919050565b6000600019821415615c9057615c90615cab565b5060010190565b600082615ca657615ca6615cc1565b500690565b634e487b7160e01b600052601160045260246000fd5b634e487b7160e01b600052601260045260246000fd5b634e487b7160e01b600052602160045260246000fd5b634e487b7160e01b600052603160045260246000fd5b634e487b7160e01b600052603260045260246000fd5b634e487b7160e01b600052604160045260246000fd5b6001600160a01b038116811461380d57600080fd5b801515811461380d57600080fd5b6001600160e01b03198116811461380d57600080fdfea2646970667358221220ba7237777d129dadfecfefbe4774fe8f5f96401262c2711400e184ba7c616ee264736f6c63430008070033",
  "devdoc": {
    "kind": "dev",
    "methods": {
      "approve(address,uint256)": {
        "details": "See {IERC721-approve}."
      },
      "balanceOf(address)": {
        "details": "See {IERC721-balanceOf}."
      },
      "getApproved(uint256)": {
        "details": "See {IERC721-getApproved}."
      },
      "isApprovedForAll(address,address)": {
        "details": "See {IERC721-isApprovedForAll}."
      },
      "name()": {
        "details": "See {IERC721Metadata-name}."
      },
      "owner()": {
        "details": "Returns the address of the current owner."
      },
      "ownerOf(uint256)": {
        "details": "See {IERC721-ownerOf}."
      },
      "renounceOwnership()": {
        "details": "Leaves the contract without owner. It will not be possible to call `onlyOwner` functions anymore. Can only be called by the current owner. NOTE: Renouncing ownership will leave the contract without an owner, thereby removing any functionality that is only available to the owner."
      },
      "safeTransferFrom(address,address,uint256)": {
        "details": "See {IERC721-safeTransferFrom}."
      },
      "safeTransferFrom(address,address,uint256,bytes)": {
        "details": "See {IERC721-safeTransferFrom}."
      },
      "setApprovalForAll(address,bool)": {
        "details": "See {IERC721-setApprovalForAll}."
      },
      "symbol()": {
        "details": "See {IERC721Metadata-symbol}."
      },
      "tokenByIndex(uint256)": {
        "details": "See {IERC721Enumerable-tokenByIndex}."
      },
      "tokenOfOwnerByIndex(address,uint256)": {
        "details": "See {IERC721Enumerable-tokenOfOwnerByIndex}."
      },
      "totalSupply()": {
        "details": "See {IERC721Enumerable-totalSupply}."
      },
      "transferFrom(address,address,uint256)": {
        "details": "See {IERC721-transferFrom}."
      },
      "transferOwnership(address)": {
        "details": "Transfers ownership of the contract to a new account (`newOwner`). Can only be called by the current owner."
      }
    },
    "version": 1
  },
  "userdoc": {
    "kind": "user",
    "methods": {},
    "version": 1
  },
  "storageLayout": {
    "storage": [
      {
        "astId": 2361,
        "contract": "contracts/PathwayNFT.sol:PathwayNFT",
        "label": "_name",
        "offset": 0,
        "slot": "0",
        "type": "t_string_storage"
      },
      {
        "astId": 2363,
        "contract": "contracts/PathwayNFT.sol:PathwayNFT",
        "label": "_symbol",
        "offset": 0,
        "slot": "1",
        "type": "t_string_storage"
      },
      {
        "astId": 2367,
        "contract": "contracts/PathwayNFT.sol:PathwayNFT",
        "label": "_owners",
        "offset": 0,
        "slot": "2",
        "type": "t_mapping(t_uint256,t_address)"
      },
      {
        "astId": 2371,
        "contract": "contracts/PathwayNFT.sol:PathwayNFT",
        "label": "_balances",
        "offset": 0,
        "slot": "3",
        "type": "t_mapping(t_address,t_uint256)"
      },
      {
        "astId": 2375,
        "contract": "contracts/PathwayNFT.sol:PathwayNFT",
        "label": "_tokenApprovals",
        "offset": 0,
        "slot": "4",
        "type": "t_mapping(t_uint256,t_address)"
      },
      {
        "astId": 2381,
        "contract": "contracts/PathwayNFT.sol:PathwayNFT",
        "label": "_operatorApprovals",
        "offset": 0,
        "slot": "5",
        "type": "t_mapping(t_address,t_mapping(t_address,t_bool))"
      },
      {
        "astId": 3686,
        "contract": "contracts/PathwayNFT.sol:PathwayNFT",
        "label": "_tokenURIs",
        "offset": 0,
        "slot": "6",
        "type": "t_mapping(t_uint256,t_string_storage)"
      },
      {
        "astId": 3350,
        "contract": "contracts/PathwayNFT.sol:PathwayNFT",
        "label": "_ownedTokens",
        "offset": 0,
        "slot": "7",
        "type": "t_mapping(t_address,t_mapping(t_uint256,t_uint256))"
      },
      {
        "astId": 3354,
        "contract": "contracts/PathwayNFT.sol:PathwayNFT",
        "label": "_ownedTokensIndex",
        "offset": 0,
        "slot": "8",
        "type": "t_mapping(t_uint256,t_uint256)"
      },
      {
        "astId": 3357,
        "contract": "contracts/PathwayNFT.sol:PathwayNFT",
        "label": "_allTokens",
        "offset": 0,
        "slot": "9",
        "type": "t_array(t_uint256)dyn_storage"
      },
      {
        "astId": 3361,
        "contract": "contracts/PathwayNFT.sol:PathwayNFT",
        "label": "_allTokensIndex",
        "offset": 0,
        "slot": "10",
        "type": "t_mapping(t_uint256,t_uint256)"
      },
      {
        "astId": 273,
        "contract": "contracts/PathwayNFT.sol:PathwayNFT",
        "label": "_owner",
        "offset": 0,
        "slot": "11",
        "type": "t_address"
      },
      {
        "astId": 7863,
        "contract": "contracts/PathwayNFT.sol:PathwayNFT",
        "label": "_tokenIds",
        "offset": 0,
        "slot": "12",
        "type": "t_struct(Counter)4182_storage"
      },
      {
        "astId": 7866,
        "contract": "contracts/PathwayNFT.sol:PathwayNFT",
        "label": "vrfContract",
        "offset": 0,
        "slot": "13",
        "type": "t_contract(RandomNumberConsumer)12224"
      },
      {
        "astId": 7869,
        "contract": "contracts/PathwayNFT.sol:PathwayNFT",
        "label": "verifyContract",
        "offset": 0,
        "slot": "14",
        "type": "t_contract(Verify)12885"
      },
      {
        "astId": 7871,
        "contract": "contracts/PathwayNFT.sol:PathwayNFT",
        "label": "projectNFTAddress",
        "offset": 0,
        "slot": "15",
        "type": "t_address"
      },
      {
        "astId": 7873,
        "contract": "contracts/PathwayNFT.sol:PathwayNFT",
        "label": "appDiamond",
        "offset": 0,
        "slot": "16",
        "type": "t_address"
      },
      {
        "astId": 7875,
        "contract": "contracts/PathwayNFT.sol:PathwayNFT",
        "label": "adventureFactory",
        "offset": 0,
        "slot": "17",
        "type": "t_address"
      },
      {
        "astId": 7879,
        "contract": "contracts/PathwayNFT.sol:PathwayNFT",
        "label": "statusStrings",
        "offset": 0,
        "slot": "18",
        "type": "t_mapping(t_uint256,t_string_storage)"
      },
      {
        "astId": 7883,
        "contract": "contracts/PathwayNFT.sol:PathwayNFT",
        "label": "pathwayMinted",
        "offset": 0,
        "slot": "19",
        "type": "t_mapping(t_string_memory_ptr,t_bool)"
      },
      {
        "astId": 7888,
        "contract": "contracts/PathwayNFT.sol:PathwayNFT",
        "label": "contributors",
        "offset": 0,
        "slot": "20",
        "type": "t_mapping(t_string_memory_ptr,t_array(t_address)dyn_storage)"
      },
      {
        "astId": 7892,
        "contract": "contracts/PathwayNFT.sol:PathwayNFT",
        "label": "creator",
        "offset": 0,
        "slot": "21",
        "type": "t_mapping(t_string_memory_ptr,t_address)"
      },
      {
        "astId": 7895,
        "contract": "contracts/PathwayNFT.sol:PathwayNFT",
        "label": "rarityThresholds",
        "offset": 0,
        "slot": "22",
        "type": "t_array(t_uint8)dyn_storage"
      },
      {
        "astId": 7899,
        "contract": "contracts/PathwayNFT.sol:PathwayNFT",
        "label": "projectIdforPathway",
        "offset": 0,
        "slot": "23",
        "type": "t_mapping(t_string_memory_ptr,t_string_storage)"
      },
      {
        "astId": 7904,
        "contract": "contracts/PathwayNFT.sol:PathwayNFT",
        "label": "status",
        "offset": 0,
        "slot": "24",
        "type": "t_mapping(t_string_memory_ptr,t_enum(PathwayStatus)8014)"
      },
      {
        "astId": 7908,
        "contract": "contracts/PathwayNFT.sol:PathwayNFT",
        "label": "votes",
        "offset": 0,
        "slot": "25",
        "type": "t_mapping(t_string_memory_ptr,t_uint256)"
      },
      {
        "astId": 7912,
        "contract": "contracts/PathwayNFT.sol:PathwayNFT",
        "label": "votesReject",
        "offset": 0,
        "slot": "26",
        "type": "t_mapping(t_string_memory_ptr,t_uint256)"
      },
      {
        "astId": 7918,
        "contract": "contracts/PathwayNFT.sol:PathwayNFT",
        "label": "reviewerVotes",
        "offset": 0,
        "slot": "27",
        "type": "t_mapping(t_string_memory_ptr,t_mapping(t_address,t_bool))"
      },
      {
        "astId": 7922,
        "contract": "contracts/PathwayNFT.sol:PathwayNFT",
        "label": "nativeRewards",
        "offset": 0,
        "slot": "28",
        "type": "t_mapping(t_string_memory_ptr,t_uint256)"
      },
      {
        "astId": 7928,
        "contract": "contracts/PathwayNFT.sol:PathwayNFT",
        "label": "erc20Amounts",
        "offset": 0,
        "slot": "29",
        "type": "t_mapping(t_string_memory_ptr,t_mapping(t_address,t_uint256))"
      },
      {
        "astId": 7932,
        "contract": "contracts/PathwayNFT.sol:PathwayNFT",
        "label": "nativeRefundClaimed",
        "offset": 0,
        "slot": "30",
        "type": "t_mapping(t_string_memory_ptr,t_bool)"
      },
      {
        "astId": 7938,
        "contract": "contracts/PathwayNFT.sol:PathwayNFT",
        "label": "erc20RefundClaimed",
        "offset": 0,
        "slot": "31",
        "type": "t_mapping(t_string_memory_ptr,t_mapping(t_address,t_bool))"
      },
      {
        "astId": 7942,
        "contract": "contracts/PathwayNFT.sol:PathwayNFT",
        "label": "numUsersRewardPerPathway",
        "offset": 0,
        "slot": "32",
        "type": "t_mapping(t_string_memory_ptr,t_uint256)"
      },
      {
        "astId": 7946,
        "contract": "contracts/PathwayNFT.sol:PathwayNFT",
        "label": "currentNumUsersRewardPerPathwayNative",
        "offset": 0,
        "slot": "33",
        "type": "t_mapping(t_string_memory_ptr,t_uint256)"
      },
      {
        "astId": 7952,
        "contract": "contracts/PathwayNFT.sol:PathwayNFT",
        "label": "currentNumUsersRewardPerPathwayERC20",
        "offset": 0,
        "slot": "34",
        "type": "t_mapping(t_string_memory_ptr,t_mapping(t_address,t_uint256))"
      },
      {
        "astId": 7958,
        "contract": "contracts/PathwayNFT.sol:PathwayNFT",
        "label": "nonces",
        "offset": 0,
        "slot": "35",
        "type": "t_mapping(t_string_memory_ptr,t_mapping(t_address,t_uint256))"
      },
      {
        "astId": 7962,
        "contract": "contracts/PathwayNFT.sol:PathwayNFT",
        "label": "adventurerAddress",
        "offset": 0,
        "slot": "36",
        "type": "t_mapping(t_string_memory_ptr,t_address)"
      },
      {
        "astId": 7970,
        "contract": "contracts/PathwayNFT.sol:PathwayNFT",
        "label": "mintTrackerByPathwayIdVersionMinter",
        "offset": 0,
        "slot": "37",
        "type": "t_mapping(t_string_memory_ptr,t_mapping(t_uint256,t_mapping(t_address,t_bool)))"
      },
      {
        "astId": 7977,
        "contract": "contracts/PathwayNFT.sol:PathwayNFT",
        "label": "allMintersPerPathwayAndVersion",
        "offset": 0,
        "slot": "38",
        "type": "t_mapping(t_string_memory_ptr,t_mapping(t_uint256,t_array(t_address)dyn_storage))"
      },
      {
        "astId": 7984,
        "contract": "contracts/PathwayNFT.sol:PathwayNFT",
        "label": "allTokenIdsPerPathwayAndVersion",
        "offset": 0,
        "slot": "39",
        "type": "t_mapping(t_string_memory_ptr,t_mapping(t_uint256,t_array(t_uint256)dyn_storage))"
      },
      {
        "astId": 7989,
        "contract": "contracts/PathwayNFT.sol:PathwayNFT",
        "label": "tokenInfoById",
        "offset": 0,
        "slot": "40",
        "type": "t_mapping(t_uint256,t_struct(TokenInfo)8019_storage)"
      },
      {
        "astId": 7997,
        "contract": "contracts/PathwayNFT.sol:PathwayNFT",
        "label": "userRewardedForPathwayERC20",
        "offset": 0,
        "slot": "41",
        "type": "t_mapping(t_string_memory_ptr,t_mapping(t_address,t_mapping(t_address,t_bool)))"
      },
      {
        "astId": 8003,
        "contract": "contracts/PathwayNFT.sol:PathwayNFT",
        "label": "userRewardedForPathwayNative",
        "offset": 0,
        "slot": "42",
        "type": "t_mapping(t_string_memory_ptr,t_mapping(t_address,t_bool))"
      },
      {
        "astId": 8006,
        "contract": "contracts/PathwayNFT.sol:PathwayNFT",
        "label": "fee",
        "offset": 0,
        "slot": "43",
        "type": "t_uint256"
      },
      {
        "astId": 8009,
        "contract": "contracts/PathwayNFT.sol:PathwayNFT",
        "label": "creatorFee",
        "offset": 0,
        "slot": "44",
        "type": "t_uint256"
      }
    ],
    "types": {
      "t_address": {
        "encoding": "inplace",
        "label": "address",
        "numberOfBytes": "20"
      },
      "t_array(t_address)dyn_storage": {
        "base": "t_address",
        "encoding": "dynamic_array",
        "label": "address[]",
        "numberOfBytes": "32"
      },
      "t_array(t_uint256)dyn_storage": {
        "base": "t_uint256",
        "encoding": "dynamic_array",
        "label": "uint256[]",
        "numberOfBytes": "32"
      },
      "t_array(t_uint8)dyn_storage": {
        "base": "t_uint8",
        "encoding": "dynamic_array",
        "label": "uint8[]",
        "numberOfBytes": "32"
      },
      "t_bool": {
        "encoding": "inplace",
        "label": "bool",
        "numberOfBytes": "1"
      },
      "t_contract(RandomNumberConsumer)12224": {
        "encoding": "inplace",
        "label": "contract RandomNumberConsumer",
        "numberOfBytes": "20"
      },
      "t_contract(Verify)12885": {
        "encoding": "inplace",
        "label": "contract Verify",
        "numberOfBytes": "20"
      },
      "t_enum(PathwayStatus)8014": {
        "encoding": "inplace",
        "label": "enum PathwayNFT.PathwayStatus",
        "numberOfBytes": "1"
      },
      "t_mapping(t_address,t_bool)": {
        "encoding": "mapping",
        "key": "t_address",
        "label": "mapping(address => bool)",
        "numberOfBytes": "32",
        "value": "t_bool"
      },
      "t_mapping(t_address,t_mapping(t_address,t_bool))": {
        "encoding": "mapping",
        "key": "t_address",
        "label": "mapping(address => mapping(address => bool))",
        "numberOfBytes": "32",
        "value": "t_mapping(t_address,t_bool)"
      },
      "t_mapping(t_address,t_mapping(t_uint256,t_uint256))": {
        "encoding": "mapping",
        "key": "t_address",
        "label": "mapping(address => mapping(uint256 => uint256))",
        "numberOfBytes": "32",
        "value": "t_mapping(t_uint256,t_uint256)"
      },
      "t_mapping(t_address,t_uint256)": {
        "encoding": "mapping",
        "key": "t_address",
        "label": "mapping(address => uint256)",
        "numberOfBytes": "32",
        "value": "t_uint256"
      },
      "t_mapping(t_string_memory_ptr,t_address)": {
        "encoding": "mapping",
        "key": "t_string_memory_ptr",
        "label": "mapping(string => address)",
        "numberOfBytes": "32",
        "value": "t_address"
      },
      "t_mapping(t_string_memory_ptr,t_array(t_address)dyn_storage)": {
        "encoding": "mapping",
        "key": "t_string_memory_ptr",
        "label": "mapping(string => address[])",
        "numberOfBytes": "32",
        "value": "t_array(t_address)dyn_storage"
      },
      "t_mapping(t_string_memory_ptr,t_bool)": {
        "encoding": "mapping",
        "key": "t_string_memory_ptr",
        "label": "mapping(string => bool)",
        "numberOfBytes": "32",
        "value": "t_bool"
      },
      "t_mapping(t_string_memory_ptr,t_enum(PathwayStatus)8014)": {
        "encoding": "mapping",
        "key": "t_string_memory_ptr",
        "label": "mapping(string => enum PathwayNFT.PathwayStatus)",
        "numberOfBytes": "32",
        "value": "t_enum(PathwayStatus)8014"
      },
      "t_mapping(t_string_memory_ptr,t_mapping(t_address,t_bool))": {
        "encoding": "mapping",
        "key": "t_string_memory_ptr",
        "label": "mapping(string => mapping(address => bool))",
        "numberOfBytes": "32",
        "value": "t_mapping(t_address,t_bool)"
      },
      "t_mapping(t_string_memory_ptr,t_mapping(t_address,t_mapping(t_address,t_bool)))": {
        "encoding": "mapping",
        "key": "t_string_memory_ptr",
        "label": "mapping(string => mapping(address => mapping(address => bool)))",
        "numberOfBytes": "32",
        "value": "t_mapping(t_address,t_mapping(t_address,t_bool))"
      },
      "t_mapping(t_string_memory_ptr,t_mapping(t_address,t_uint256))": {
        "encoding": "mapping",
        "key": "t_string_memory_ptr",
        "label": "mapping(string => mapping(address => uint256))",
        "numberOfBytes": "32",
        "value": "t_mapping(t_address,t_uint256)"
      },
      "t_mapping(t_string_memory_ptr,t_mapping(t_uint256,t_array(t_address)dyn_storage))": {
        "encoding": "mapping",
        "key": "t_string_memory_ptr",
        "label": "mapping(string => mapping(uint256 => address[]))",
        "numberOfBytes": "32",
        "value": "t_mapping(t_uint256,t_array(t_address)dyn_storage)"
      },
      "t_mapping(t_string_memory_ptr,t_mapping(t_uint256,t_array(t_uint256)dyn_storage))": {
        "encoding": "mapping",
        "key": "t_string_memory_ptr",
        "label": "mapping(string => mapping(uint256 => uint256[]))",
        "numberOfBytes": "32",
        "value": "t_mapping(t_uint256,t_array(t_uint256)dyn_storage)"
      },
      "t_mapping(t_string_memory_ptr,t_mapping(t_uint256,t_mapping(t_address,t_bool)))": {
        "encoding": "mapping",
        "key": "t_string_memory_ptr",
        "label": "mapping(string => mapping(uint256 => mapping(address => bool)))",
        "numberOfBytes": "32",
        "value": "t_mapping(t_uint256,t_mapping(t_address,t_bool))"
      },
      "t_mapping(t_string_memory_ptr,t_string_storage)": {
        "encoding": "mapping",
        "key": "t_string_memory_ptr",
        "label": "mapping(string => string)",
        "numberOfBytes": "32",
        "value": "t_string_storage"
      },
      "t_mapping(t_string_memory_ptr,t_uint256)": {
        "encoding": "mapping",
        "key": "t_string_memory_ptr",
        "label": "mapping(string => uint256)",
        "numberOfBytes": "32",
        "value": "t_uint256"
      },
      "t_mapping(t_uint256,t_address)": {
        "encoding": "mapping",
        "key": "t_uint256",
        "label": "mapping(uint256 => address)",
        "numberOfBytes": "32",
        "value": "t_address"
      },
      "t_mapping(t_uint256,t_array(t_address)dyn_storage)": {
        "encoding": "mapping",
        "key": "t_uint256",
        "label": "mapping(uint256 => address[])",
        "numberOfBytes": "32",
        "value": "t_array(t_address)dyn_storage"
      },
      "t_mapping(t_uint256,t_array(t_uint256)dyn_storage)": {
        "encoding": "mapping",
        "key": "t_uint256",
        "label": "mapping(uint256 => uint256[])",
        "numberOfBytes": "32",
        "value": "t_array(t_uint256)dyn_storage"
      },
      "t_mapping(t_uint256,t_mapping(t_address,t_bool))": {
        "encoding": "mapping",
        "key": "t_uint256",
        "label": "mapping(uint256 => mapping(address => bool))",
        "numberOfBytes": "32",
        "value": "t_mapping(t_address,t_bool)"
      },
      "t_mapping(t_uint256,t_string_storage)": {
        "encoding": "mapping",
        "key": "t_uint256",
        "label": "mapping(uint256 => string)",
        "numberOfBytes": "32",
        "value": "t_string_storage"
      },
      "t_mapping(t_uint256,t_struct(TokenInfo)8019_storage)": {
        "encoding": "mapping",
        "key": "t_uint256",
        "label": "mapping(uint256 => struct PathwayNFT.TokenInfo)",
        "numberOfBytes": "32",
        "value": "t_struct(TokenInfo)8019_storage"
      },
      "t_mapping(t_uint256,t_uint256)": {
        "encoding": "mapping",
        "key": "t_uint256",
        "label": "mapping(uint256 => uint256)",
        "numberOfBytes": "32",
        "value": "t_uint256"
      },
      "t_string_memory_ptr": {
        "encoding": "bytes",
        "label": "string",
        "numberOfBytes": "32"
      },
      "t_string_storage": {
        "encoding": "bytes",
        "label": "string",
        "numberOfBytes": "32"
      },
      "t_struct(Counter)4182_storage": {
        "encoding": "inplace",
        "label": "struct Counters.Counter",
        "members": [
          {
            "astId": 4181,
            "contract": "contracts/PathwayNFT.sol:PathwayNFT",
            "label": "_value",
            "offset": 0,
            "slot": "0",
            "type": "t_uint256"
          }
        ],
        "numberOfBytes": "32"
      },
      "t_struct(TokenInfo)8019_storage": {
        "encoding": "inplace",
        "label": "struct PathwayNFT.TokenInfo",
        "members": [
          {
            "astId": 8016,
            "contract": "contracts/PathwayNFT.sol:PathwayNFT",
            "label": "pathwayId",
            "offset": 0,
            "slot": "0",
            "type": "t_string_storage"
          },
          {
            "astId": 8018,
            "contract": "contracts/PathwayNFT.sol:PathwayNFT",
            "label": "version",
            "offset": 0,
            "slot": "1",
            "type": "t_uint256"
          }
        ],
        "numberOfBytes": "64"
      },
      "t_uint256": {
        "encoding": "inplace",
        "label": "uint256",
        "numberOfBytes": "32"
      },
      "t_uint8": {
        "encoding": "inplace",
        "label": "uint8",
        "numberOfBytes": "1"
      }
    }
  }
}