{
  "address": "0x20208429cf3aa75125Bd36E91A831bfD9BaA1a43",
  "abi": [
    {
      "inputs": [
        {
          "internalType": "address",
          "name": "_vrfAddress",
          "type": "address"
        },
        {
          "internalType": "address",
          "name": "_projectNFTAddress",
          "type": "address"
        },
        {
          "internalType": "address",
          "name": "_verifyAddress",
          "type": "address"
        }
      ],
      "stateMutability": "nonpayable",
      "type": "constructor"
    },
    {
      "anonymous": false,
      "inputs": [
        {
          "indexed": true,
          "internalType": "address",
          "name": "owner",
          "type": "address"
        },
        {
          "indexed": true,
          "internalType": "address",
          "name": "approved",
          "type": "address"
        },
        {
          "indexed": true,
          "internalType": "uint256",
          "name": "tokenId",
          "type": "uint256"
        }
      ],
      "name": "Approval",
      "type": "event"
    },
    {
      "anonymous": false,
      "inputs": [
        {
          "indexed": true,
          "internalType": "address",
          "name": "owner",
          "type": "address"
        },
        {
          "indexed": true,
          "internalType": "address",
          "name": "operator",
          "type": "address"
        },
        {
          "indexed": false,
          "internalType": "bool",
          "name": "approved",
          "type": "bool"
        }
      ],
      "name": "ApprovalForAll",
      "type": "event"
    },
    {
      "anonymous": false,
      "inputs": [
        {
          "indexed": true,
          "internalType": "address",
          "name": "_to",
          "type": "address"
        },
        {
          "indexed": true,
          "internalType": "string",
          "name": "_tokenURI",
          "type": "string"
        },
        {
          "indexed": true,
          "internalType": "string",
          "name": "_badgeId",
          "type": "string"
        }
      ],
      "name": "NFTPathwayMinted",
      "type": "event"
    },
    {
      "anonymous": false,
      "inputs": [
        {
          "indexed": true,
          "internalType": "address",
          "name": "previousOwner",
          "type": "address"
        },
        {
          "indexed": true,
          "internalType": "address",
          "name": "newOwner",
          "type": "address"
        }
      ],
      "name": "OwnershipTransferred",
      "type": "event"
    },
    {
      "anonymous": false,
      "inputs": [
        {
          "indexed": true,
          "internalType": "string",
          "name": "_pathwayId",
          "type": "string"
        }
      ],
      "name": "PathwayApproved",
      "type": "event"
    },
    {
      "anonymous": false,
      "inputs": [
        {
          "indexed": false,
          "internalType": "address",
          "name": "_caller",
          "type": "address"
        },
        {
          "indexed": false,
          "internalType": "uint256",
          "name": "_value",
          "type": "uint256"
        }
      ],
      "name": "ReceiveCalled",
      "type": "event"
    },
    {
      "anonymous": false,
      "inputs": [
        {
          "indexed": true,
          "internalType": "address",
          "name": "from",
          "type": "address"
        },
        {
          "indexed": true,
          "internalType": "address",
          "name": "to",
          "type": "address"
        },
        {
          "indexed": true,
          "internalType": "uint256",
          "name": "tokenId",
          "type": "uint256"
        }
      ],
      "name": "Transfer",
      "type": "event"
    },
    {
      "inputs": [
        {
          "internalType": "string",
          "name": "_pathwayId",
          "type": "string"
        },
        {
          "internalType": "address",
          "name": "_ERC20Address",
          "type": "address"
        },
        {
          "internalType": "bool",
          "name": "useNative",
          "type": "bool"
        },
        {
          "internalType": "uint256",
          "name": "amount",
          "type": "uint256"
        }
      ],
      "name": "addPathwayCreationReward",
      "outputs": [],
      "stateMutability": "payable",
      "type": "function"
    },
    {
      "inputs": [
        {
          "internalType": "string",
          "name": "",
          "type": "string"
        }
      ],
      "name": "adventurerAddress",
      "outputs": [
        {
          "internalType": "address",
          "name": "",
          "type": "address"
        }
      ],
      "stateMutability": "view",
      "type": "function"
    },
    {
      "inputs": [
        {
          "internalType": "address",
          "name": "to",
          "type": "address"
        },
        {
          "internalType": "uint256",
          "name": "tokenId",
          "type": "uint256"
        }
      ],
      "name": "approve",
      "outputs": [],
      "stateMutability": "nonpayable",
      "type": "function"
    },
    {
      "inputs": [
        {
          "internalType": "address",
          "name": "owner",
          "type": "address"
        }
      ],
      "name": "balanceOf",
      "outputs": [
        {
          "internalType": "uint256",
          "name": "",
          "type": "uint256"
        }
      ],
      "stateMutability": "view",
      "type": "function"
    },
    {
      "inputs": [
        {
          "internalType": "string",
          "name": "_pathwayId",
          "type": "string"
        },
        {
          "internalType": "bool",
          "name": "native",
          "type": "bool"
        },
        {
          "internalType": "address",
          "name": "_ERC20Address",
          "type": "address"
        },
        {
          "internalType": "bytes32",
          "name": "r",
          "type": "bytes32"
        },
        {
          "internalType": "bytes32",
          "name": "s",
          "type": "bytes32"
        },
        {
          "internalType": "uint8",
          "name": "v",
          "type": "uint8"
        },
        {
          "internalType": "bool",
          "name": "claimReward",
          "type": "bool"
        },
        {
          "internalType": "string",
          "name": "_tokenURI",
          "type": "string"
        },
        {
          "internalType": "uint256",
          "name": "version",
          "type": "uint256"
        }
      ],
      "name": "claimPathwayRewards",
      "outputs": [],
      "stateMutability": "nonpayable",
      "type": "function"
    },
    {
      "inputs": [
        {
          "internalType": "string",
          "name": "_pathwayId",
          "type": "string"
        },
        {
          "internalType": "bool",
          "name": "native",
          "type": "bool"
        },
        {
          "internalType": "address",
          "name": "_ERC20Address",
          "type": "address"
        }
      ],
      "name": "claimRejectionRefund",
      "outputs": [],
      "stateMutability": "nonpayable",
      "type": "function"
    },
    {
      "inputs": [
        {
          "internalType": "string",
          "name": "_pathwayId",
          "type": "string"
        },
        {
          "internalType": "string",
          "name": "_projectId",
          "type": "string"
        },
        {
          "internalType": "uint256",
          "name": "numUsersRewarded",
          "type": "uint256"
        },
        {
          "internalType": "bool",
          "name": "callRewards",
          "type": "bool"
        },
        {
          "internalType": "address",
          "name": "_ERC20Address",
          "type": "address"
        },
        {
          "internalType": "bool",
          "name": "useNative",
          "type": "bool"
        },
        {
          "internalType": "uint256",
          "name": "amount",
          "type": "uint256"
        }
      ],
      "name": "createPathway",
      "outputs": [],
      "stateMutability": "payable",
      "type": "function"
    },
    {
      "inputs": [
        {
          "internalType": "string",
          "name": "_tokenURI",
          "type": "string"
        },
        {
          "internalType": "string",
          "name": "_pathwayId",
          "type": "string"
        },
        {
          "internalType": "string",
          "name": "_projectId",
          "type": "string"
        },
        {
          "internalType": "bytes32[2]",
          "name": "r",
          "type": "bytes32[2]"
        },
        {
          "internalType": "bytes32[2]",
          "name": "s",
          "type": "bytes32[2]"
        },
        {
          "internalType": "uint8[2]",
          "name": "v",
          "type": "uint8[2]"
        },
        {
          "internalType": "uint256",
          "name": "votesNeeded",
          "type": "uint256"
        }
      ],
      "name": "createToken",
      "outputs": [
        {
          "internalType": "uint256[]",
          "name": "",
          "type": "uint256[]"
        }
      ],
      "stateMutability": "nonpayable",
      "type": "function"
    },
    {
      "inputs": [
        {
          "internalType": "string",
          "name": "",
          "type": "string"
        }
      ],
      "name": "creator",
      "outputs": [
        {
          "internalType": "address",
          "name": "",
          "type": "address"
        }
      ],
      "stateMutability": "view",
      "type": "function"
    },
    {
      "inputs": [],
      "name": "creatorFee",
      "outputs": [
        {
          "internalType": "uint256",
          "name": "",
          "type": "uint256"
        }
      ],
      "stateMutability": "view",
      "type": "function"
    },
    {
      "inputs": [
        {
          "internalType": "string",
          "name": "",
          "type": "string"
        },
        {
          "internalType": "address",
          "name": "",
          "type": "address"
        }
      ],
      "name": "currentNumUsersRewardPerPathwayERC20",
      "outputs": [
        {
          "internalType": "uint256",
          "name": "",
          "type": "uint256"
        }
      ],
      "stateMutability": "view",
      "type": "function"
    },
    {
      "inputs": [
        {
          "internalType": "string",
          "name": "",
          "type": "string"
        }
      ],
      "name": "currentNumUsersRewardPerPathwayNative",
      "outputs": [
        {
          "internalType": "uint256",
          "name": "",
          "type": "uint256"
        }
      ],
      "stateMutability": "view",
      "type": "function"
    },
    {
      "inputs": [],
      "name": "fee",
      "outputs": [
        {
          "internalType": "uint256",
          "name": "",
          "type": "uint256"
        }
      ],
      "stateMutability": "view",
      "type": "function"
    },
    {
      "inputs": [
        {
          "internalType": "string",
          "name": "_pathwayId",
          "type": "string"
        },
        {
          "internalType": "uint256",
          "name": "version",
          "type": "uint256"
        }
      ],
      "name": "getAllAddrsByPathwayIDVersion",
      "outputs": [
        {
          "internalType": "address[]",
          "name": "",
          "type": "address[]"
        }
      ],
      "stateMutability": "view",
      "type": "function"
    },
    {
      "inputs": [
        {
          "internalType": "string",
          "name": "_pathwayId",
          "type": "string"
        },
        {
          "internalType": "uint256",
          "name": "version",
          "type": "uint256"
        }
      ],
      "name": "getAllTokenIdsByPathwayIDVersion",
      "outputs": [
        {
          "internalType": "uint256[]",
          "name": "",
          "type": "uint256[]"
        }
      ],
      "stateMutability": "view",
      "type": "function"
    },
    {
      "inputs": [],
      "name": "getAppDiamond",
      "outputs": [
        {
          "internalType": "address",
          "name": "",
          "type": "address"
        }
      ],
      "stateMutability": "view",
      "type": "function"
    },
    {
      "inputs": [
        {
          "internalType": "uint256",
          "name": "tokenId",
          "type": "uint256"
        }
      ],
      "name": "getApproved",
      "outputs": [
        {
          "internalType": "address",
          "name": "",
          "type": "address"
        }
      ],
      "stateMutability": "view",
      "type": "function"
    },
    {
      "inputs": [
        {
          "internalType": "string",
          "name": "_pathwayId",
          "type": "string"
        }
      ],
      "name": "getContributors",
      "outputs": [
        {
          "internalType": "address[]",
          "name": "",
          "type": "address[]"
        }
      ],
      "stateMutability": "view",
      "type": "function"
    },
    {
      "inputs": [
        {
          "internalType": "address",
          "name": "adventurer",
          "type": "address"
        }
      ],
      "name": "getVersionsAndPathwayIDsByAdventurer",
      "outputs": [
        {
          "internalType": "uint256[]",
          "name": "versions",
          "type": "uint256[]"
        },
        {
          "internalType": "string",
          "name": "concatPathwayIds",
          "type": "string"
        }
      ],
      "stateMutability": "view",
      "type": "function"
    },
    {
      "inputs": [
        {
          "internalType": "address",
          "name": "owner",
          "type": "address"
        },
        {
          "internalType": "address",
          "name": "operator",
          "type": "address"
        }
      ],
      "name": "isApprovedForAll",
      "outputs": [
        {
          "internalType": "bool",
          "name": "",
          "type": "bool"
        }
      ],
      "stateMutability": "view",
      "type": "function"
    },
    {
      "inputs": [],
      "name": "name",
      "outputs": [
        {
          "internalType": "string",
          "name": "",
          "type": "string"
        }
      ],
      "stateMutability": "view",
      "type": "function"
    },
    {
      "inputs": [
        {
          "internalType": "string",
          "name": "",
          "type": "string"
        }
      ],
      "name": "nativeRefundClaimed",
      "outputs": [
        {
          "internalType": "bool",
          "name": "",
          "type": "bool"
        }
      ],
      "stateMutability": "view",
      "type": "function"
    },
    {
      "inputs": [
        {
          "internalType": "string",
          "name": "",
          "type": "string"
        }
      ],
      "name": "nativeRewards",
      "outputs": [
        {
          "internalType": "uint256",
          "name": "",
          "type": "uint256"
        }
      ],
      "stateMutability": "view",
      "type": "function"
    },
    {
      "inputs": [
        {
          "internalType": "string",
          "name": "",
          "type": "string"
        },
        {
          "internalType": "address",
          "name": "",
          "type": "address"
        }
      ],
      "name": "nonces",
      "outputs": [
        {
          "internalType": "uint256",
          "name": "",
          "type": "uint256"
        }
      ],
      "stateMutability": "view",
      "type": "function"
    },
    {
      "inputs": [
        {
          "internalType": "string",
          "name": "",
          "type": "string"
        }
      ],
      "name": "numUsersRewardPerPathway",
      "outputs": [
        {
          "internalType": "uint256",
          "name": "",
          "type": "uint256"
        }
      ],
      "stateMutability": "view",
      "type": "function"
    },
    {
      "inputs": [],
      "name": "owner",
      "outputs": [
        {
          "internalType": "address",
          "name": "",
          "type": "address"
        }
      ],
      "stateMutability": "view",
      "type": "function"
    },
    {
      "inputs": [
        {
          "internalType": "uint256",
          "name": "tokenId",
          "type": "uint256"
        }
      ],
      "name": "ownerOf",
      "outputs": [
        {
          "internalType": "address",
          "name": "",
          "type": "address"
        }
      ],
      "stateMutability": "view",
      "type": "function"
    },
    {
      "inputs": [
        {
          "internalType": "string",
          "name": "",
          "type": "string"
        }
      ],
      "name": "pathwayMinted",
      "outputs": [
        {
          "internalType": "bool",
          "name": "",
          "type": "bool"
        }
      ],
      "stateMutability": "view",
      "type": "function"
    },
    {
      "inputs": [
        {
          "internalType": "string",
          "name": "",
          "type": "string"
        }
      ],
      "name": "projectIdforPathway",
      "outputs": [
        {
          "internalType": "string",
          "name": "",
          "type": "string"
        }
      ],
      "stateMutability": "view",
      "type": "function"
    },
    {
      "inputs": [],
      "name": "renounceOwnership",
      "outputs": [],
      "stateMutability": "nonpayable",
      "type": "function"
    },
    {
      "inputs": [
        {
          "internalType": "string",
          "name": "",
          "type": "string"
        },
        {
          "internalType": "address",
          "name": "",
          "type": "address"
        }
      ],
      "name": "reviewerVotes",
      "outputs": [
        {
          "internalType": "bool",
          "name": "",
          "type": "bool"
        }
      ],
      "stateMutability": "view",
      "type": "function"
    },
    {
      "inputs": [
        {
          "internalType": "address",
          "name": "from",
          "type": "address"
        },
        {
          "internalType": "address",
          "name": "to",
          "type": "address"
        },
        {
          "internalType": "uint256",
          "name": "tokenId",
          "type": "uint256"
        }
      ],
      "name": "safeTransferFrom",
      "outputs": [],
      "stateMutability": "nonpayable",
      "type": "function"
    },
    {
      "inputs": [
        {
          "internalType": "address",
          "name": "from",
          "type": "address"
        },
        {
          "internalType": "address",
          "name": "to",
          "type": "address"
        },
        {
          "internalType": "uint256",
          "name": "tokenId",
          "type": "uint256"
        },
        {
          "internalType": "bytes",
          "name": "_data",
          "type": "bytes"
        }
      ],
      "name": "safeTransferFrom",
      "outputs": [],
      "stateMutability": "nonpayable",
      "type": "function"
    },
    {
      "inputs": [
        {
          "internalType": "address",
          "name": "newFactory",
          "type": "address"
        }
      ],
      "name": "setAdventureFactory",
      "outputs": [],
      "stateMutability": "nonpayable",
      "type": "function"
    },
    {
      "inputs": [
        {
          "internalType": "address",
          "name": "newAppDiamond",
          "type": "address"
        }
      ],
      "name": "setAppDiamond",
      "outputs": [],
      "stateMutability": "nonpayable",
      "type": "function"
    },
    {
      "inputs": [
        {
          "internalType": "address",
          "name": "operator",
          "type": "address"
        },
        {
          "internalType": "bool",
          "name": "approved",
          "type": "bool"
        }
      ],
      "name": "setApprovalForAll",
      "outputs": [],
      "stateMutability": "nonpayable",
      "type": "function"
    },
    {
      "inputs": [
        {
          "internalType": "string",
          "name": "_pathwayId",
          "type": "string"
        },
        {
          "internalType": "uint256",
          "name": "newNumber",
          "type": "uint256"
        },
        {
          "internalType": "bytes32",
          "name": "r",
          "type": "bytes32"
        },
        {
          "internalType": "bytes32",
          "name": "s",
          "type": "bytes32"
        },
        {
          "internalType": "uint8",
          "name": "v",
          "type": "uint8"
        }
      ],
      "name": "setNumberOfUsersRewarded",
      "outputs": [],
      "stateMutability": "nonpayable",
      "type": "function"
    },
    {
      "inputs": [
        {
          "internalType": "string",
          "name": "",
          "type": "string"
        }
      ],
      "name": "status",
      "outputs": [
        {
          "internalType": "enum PathwayNFT.PathwayStatus",
          "name": "",
          "type": "uint8"
        }
      ],
      "stateMutability": "view",
      "type": "function"
    },
    {
      "inputs": [
        {
          "internalType": "uint256",
          "name": "",
          "type": "uint256"
        }
      ],
      "name": "statusStrings",
      "outputs": [
        {
          "internalType": "string",
          "name": "",
          "type": "string"
        }
      ],
      "stateMutability": "view",
      "type": "function"
    },
    {
      "inputs": [
        {
          "internalType": "bytes4",
          "name": "interfaceId",
          "type": "bytes4"
        }
      ],
      "name": "supportsInterface",
      "outputs": [
        {
          "internalType": "bool",
          "name": "",
          "type": "bool"
        }
      ],
      "stateMutability": "view",
      "type": "function"
    },
    {
      "inputs": [],
      "name": "symbol",
      "outputs": [
        {
          "internalType": "string",
          "name": "",
          "type": "string"
        }
      ],
      "stateMutability": "view",
      "type": "function"
    },
    {
      "inputs": [
        {
          "internalType": "uint256",
          "name": "index",
          "type": "uint256"
        }
      ],
      "name": "tokenByIndex",
      "outputs": [
        {
          "internalType": "uint256",
          "name": "",
          "type": "uint256"
        }
      ],
      "stateMutability": "view",
      "type": "function"
    },
    {
      "inputs": [
        {
          "internalType": "address",
          "name": "owner",
          "type": "address"
        },
        {
          "internalType": "uint256",
          "name": "index",
          "type": "uint256"
        }
      ],
      "name": "tokenOfOwnerByIndex",
      "outputs": [
        {
          "internalType": "uint256",
          "name": "",
          "type": "uint256"
        }
      ],
      "stateMutability": "view",
      "type": "function"
    },
    {
      "inputs": [
        {
          "internalType": "uint256",
          "name": "tokenId",
          "type": "uint256"
        }
      ],
      "name": "tokenURI",
      "outputs": [
        {
          "internalType": "string",
          "name": "",
          "type": "string"
        }
      ],
      "stateMutability": "view",
      "type": "function"
    },
    {
      "inputs": [],
      "name": "totalSupply",
      "outputs": [
        {
          "internalType": "uint256",
          "name": "",
          "type": "uint256"
        }
      ],
      "stateMutability": "view",
      "type": "function"
    },
    {
      "inputs": [
        {
          "internalType": "address",
          "name": "from",
          "type": "address"
        },
        {
          "internalType": "address",
          "name": "to",
          "type": "address"
        },
        {
          "internalType": "uint256",
          "name": "tokenId",
          "type": "uint256"
        }
      ],
      "name": "transferFrom",
      "outputs": [],
      "stateMutability": "nonpayable",
      "type": "function"
    },
    {
      "inputs": [
        {
          "internalType": "address",
          "name": "newOwner",
          "type": "address"
        }
      ],
      "name": "transferOwnership",
      "outputs": [],
      "stateMutability": "nonpayable",
      "type": "function"
    },
    {
      "inputs": [
        {
          "internalType": "string",
          "name": "",
          "type": "string"
        },
        {
          "internalType": "address",
          "name": "",
          "type": "address"
        }
      ],
      "name": "userRewardedForPathwayNative",
      "outputs": [
        {
          "internalType": "bool",
          "name": "",
          "type": "bool"
        }
      ],
      "stateMutability": "view",
      "type": "function"
    },
    {
      "inputs": [
        {
          "internalType": "address[]",
          "name": "_contributors",
          "type": "address[]"
        },
        {
          "internalType": "string",
          "name": "_pathwayId",
          "type": "string"
        },
        {
          "internalType": "string",
          "name": "_projectId",
          "type": "string"
        },
        {
          "internalType": "bytes32[2]",
          "name": "r",
          "type": "bytes32[2]"
        },
        {
          "internalType": "bytes32[2]",
          "name": "s",
          "type": "bytes32[2]"
        },
        {
          "internalType": "uint8[2]",
          "name": "v",
          "type": "uint8[2]"
        },
        {
          "internalType": "uint256",
          "name": "votesNeeded",
          "type": "uint256"
        }
      ],
      "name": "voteForApproval",
      "outputs": [],
      "stateMutability": "nonpayable",
      "type": "function"
    },
    {
      "inputs": [
        {
          "internalType": "string",
          "name": "_pathwayId",
          "type": "string"
        },
        {
          "internalType": "string",
          "name": "_projectId",
          "type": "string"
        },
        {
          "internalType": "bytes32[2]",
          "name": "r",
          "type": "bytes32[2]"
        },
        {
          "internalType": "bytes32[2]",
          "name": "s",
          "type": "bytes32[2]"
        },
        {
          "internalType": "uint8[2]",
          "name": "v",
          "type": "uint8[2]"
        },
        {
          "internalType": "uint256",
          "name": "votesNeeded",
          "type": "uint256"
        }
      ],
      "name": "voteForRejection",
      "outputs": [],
      "stateMutability": "nonpayable",
      "type": "function"
    },
    {
      "inputs": [
        {
          "internalType": "string",
          "name": "",
          "type": "string"
        }
      ],
      "name": "votes",
      "outputs": [
        {
          "internalType": "uint256",
          "name": "",
          "type": "uint256"
        }
      ],
      "stateMutability": "view",
      "type": "function"
    },
    {
      "inputs": [
        {
          "internalType": "string",
          "name": "",
          "type": "string"
        }
      ],
      "name": "votesReject",
      "outputs": [
        {
          "internalType": "uint256",
          "name": "",
          "type": "uint256"
        }
      ],
      "stateMutability": "view",
      "type": "function"
    },
    {
      "inputs": [
        {
          "internalType": "address",
          "name": "_owner",
          "type": "address"
        }
      ],
      "name": "walletOfOwner",
      "outputs": [
        {
          "internalType": "uint256[]",
          "name": "",
          "type": "uint256[]"
        }
      ],
      "stateMutability": "view",
      "type": "function"
    },
    {
      "stateMutability": "payable",
      "type": "receive"
    }
  ],
  "transactionHash": "0xd8c9a129310b8144d833b77ca96a1cb4dc21d43a6e66033edd026649bc81828f",
  "args": [
    "0xF33373d9507c15E7F7aC502a0EB8527e022dda79",
    "0xAB087AC3b091ea0584Cce918A5243F19069708B1",
    "0xcB2AF596fC582a3206e2D59368849Df5DAca75FD"
  ],
  "numDeployments": 2,
  "solcInputHash": "e900b873528671424b2623cdf1b46bc1",
  "bytecode": "0x6080604052610514602b5560c8602c553480156200001c57600080fd5b5060405162005ffc38038062005ffc8339810160408190526200003f9162000391565b604080518082018252600c81526b0c886dedae0c2e6e6a0c2e8d60a31b602080830191825283518085019094526009845268088869e9aa0a082a8960bb1b9084015281519192916200009491600091620002ce565b508051620000aa906001906020840190620002ce565b505050620000c7620000c16200027860201b60201c565b6200027c565b600d80546001600160a01b038086166001600160a01b031992831617909255600e8054848416908316179055600f80549285169290911691909117905560408051808201909152600b81526a1393d391561254d511539560aa1b60208083019182526000805260129052905162000160917f7e7fa33969761a458e04f477e039a608702b4f924981d6653935a8319a08ad7b91620002ce565b5060408051808201909152600781526650454e44494e4760c81b60208083019182526001600052601290529051620001ba917f71a67924699a20698523213e55fe499d539379d7769cd5567e2c45d583f815a391620002ce565b5060408051808201909152600681526511115392515160d21b6020808301918252600260005260129052905162000213917f8e1fee8c88a9e04123b21e90cae2727a7715bf522a1e46eb5934ccd05203a6b291620002ce565b506040805180820190915260088152671054141493d5915160c21b602080830191825260036000526012905290516200026e917f0f36ad39aee03e7108cc48f54934702a5f0d4066f10344cebf8198978d86976a91620002ce565b5050505062000418565b3390565b600b80546001600160a01b038381166001600160a01b0319831681179093556040519116919082907f8be0079c531659141344cd1fd0a4f28419497f9722a3daafe3b4186f6b6457e090600090a35050565b828054620002dc90620003db565b90600052602060002090601f0160209004810192826200030057600085556200034b565b82601f106200031b57805160ff19168380011785556200034b565b828001600101855582156200034b579182015b828111156200034b5782518255916020019190600101906200032e565b50620003599291506200035d565b5090565b5b808211156200035957600081556001016200035e565b80516001600160a01b03811681146200038c57600080fd5b919050565b600080600060608486031215620003a757600080fd5b620003b28462000374565b9250620003c26020850162000374565b9150620003d26040850162000374565b90509250925092565b600181811c90821680620003f057607f821691505b602082108114156200041257634e487b7160e01b600052602260045260246000fd5b50919050565b615bd480620004286000396000f3fe60806040526004361061031e5760003560e01c806368929b5c116101ab578063a22cb465116100f7578063ddca3f4311610095578063e8ca64f41161006f578063e8ca64f414610b2b578063e985e9c514610b73578063ebcb309a14610bbc578063f2fde38b14610bdc57600080fd5b8063ddca3f4314610ac7578063e5ab63e914610add578063e88958dc14610b1557600080fd5b8063b99ef1fa116100d1578063b99ef1fa146109e6578063bf82a6ac14610a1e578063c87b56dd14610a5f578063cef9fab714610a7f57600080fd5b8063a22cb46514610986578063aaa545d0146109a6578063b88d4fde146109c657600080fd5b80637bfec90911610164578063946543af1161013e578063946543af146108d2578063956f49bf146108e557806395d89b41146109265780639e1b567c1461093b57600080fd5b80637bfec909146108675780638b11cf8a146108945780638da5cb5b146108b457600080fd5b806368929b5c1461077857806368aa4dff146107b057806370a08231146107c3578063715018a6146107e3578063727577c4146107f857806376032f0e1461082f57600080fd5b80632693d5181161026a5780634e177b5211610223578063522ba1e3116101fd578063522ba1e3146106cf5780635398ba74146106fd5780636352211e146107385780636810b4cf1461075857600080fd5b80634e177b52146106715780634f6ccce714610691578063500b5bd6146106b157600080fd5b80632693d518146105965780632f745c59146105b657806341038d19146105d657806342842e0e14610611578063438b630014610631578063471859571461065157600080fd5b80630c54d2dd116102d757806318160ddd116102b157806318160ddd146104f65780631b8f91e81461050b5780631fd8b97e1461055657806323b872dd1461057657600080fd5b80630c54d2dd146104535780630d0654d9146104a95780630e3c22cb146104d657600080fd5b806301ffc9a71461036257806304dcd3001461039757806306462b6f146103c457806306fdde03146103e6578063081812fc146103fb578063095ea7b31461043357600080fd5b3661035d57604080513381523460208201527f64c983f10188c30a885d77970aa5aae9a86e80ef9b459ad33cc620eb5999e070910160405180910390a1005b600080fd5b34801561036e57600080fd5b5061038261037d366004614fc0565b610bfc565b60405190151581526020015b60405180910390f35b3480156103a357600080fd5b506103b76103b23660046154a0565b610c0d565b60405161038e919061580b565b3480156103d057600080fd5b506103e46103df366004614cd5565b610ca7565b005b3480156103f257600080fd5b506103b7610cfc565b34801561040757600080fd5b5061041b6104163660046154a0565b610d8e565b6040516001600160a01b03909116815260200161038e565b34801561043f57600080fd5b506103e461044e366004614e36565b610e16565b34801561045f57600080fd5b5061049b61046e36600461502e565b81516020818401810180516022825292820194820194909420919093529091526000908152604090205481565b60405190815260200161038e565b3480156104b557600080fd5b506104c96104c43660046152ae565b610f2c565b60405161038e91906157a2565b3480156104e257600080fd5b506103e46104f1366004614cd5565b6114c9565b34801561050257600080fd5b5060095461049b565b34801561051757600080fd5b5061038261052636600461502e565b8151602081840181018051602a825292820194820194909420919093529091526000908152604090205460ff1681565b34801561056257600080fd5b506103e4610571366004615436565b611515565b34801561058257600080fd5b506103e4610591366004614d48565b6115c5565b3480156105a257600080fd5b506103e46105b1366004615140565b6115f6565b3480156105c257600080fd5b5061049b6105d1366004614e36565b611a45565b3480156105e257600080fd5b506103826105f1366004614ffa565b8051602081830181018051601e8252928201919093012091525460ff1681565b34801561061d57600080fd5b506103e461062c366004614d48565b611adb565b34801561063d57600080fd5b506104c961064c366004614cd5565b611af6565b34801561065d57600080fd5b506103e461066c3660046150dd565b611b97565b34801561067d57600080fd5b506104c961068c3660046153f2565b61208b565b34801561069d57600080fd5b5061049b6106ac3660046154a0565b612107565b3480156106bd57600080fd5b506010546001600160a01b031661041b565b3480156106db57600080fd5b506106ef6106ea366004614cd5565b61219a565b60405161038e9291906157b5565b34801561070957600080fd5b50610382610718366004614ffa565b805160208183018101805160138252928201919093012091525460ff1681565b34801561074457600080fd5b5061041b6107533660046154a0565b612466565b34801561076457600080fd5b506103e461077336600461520c565b6124dd565b34801561078457600080fd5b5061049b610793366004614ffa565b8051602081830181018051601a8252928201919093012091525481565b6103e46107be366004615074565b6127ae565b3480156107cf57600080fd5b5061049b6107de366004614cd5565b612f4f565b3480156107ef57600080fd5b506103e4612fd6565b34801561080457600080fd5b5061049b610813366004614ffa565b8051602081830181018051828252928201919093012091525481565b34801561083b57600080fd5b5061049b61084a366004614ffa565b8051602081830181018051601c8252928201919093012091525481565b34801561087357600080fd5b506108876108823660046153f2565b61300c565b60405161038e9190615755565b3480156108a057600080fd5b506103b76108af366004614ffa565b613091565b3480156108c057600080fd5b50600b546001600160a01b031661041b565b6103e46108e0366004615342565b6130b5565b3480156108f157600080fd5b5061041b610900366004614ffa565b80516020818301810180516024825292820191909301209152546001600160a01b031681565b34801561093257600080fd5b506103b76131e1565b34801561094757600080fd5b5061038261095636600461502e565b8151602081840181018051601b825292820194820194909420919093529091526000908152604090205460ff1681565b34801561099257600080fd5b506103e46109a1366004614e08565b6131f0565b3480156109b257600080fd5b506108876109c1366004614ffa565b6131ff565b3480156109d257600080fd5b506103e46109e1366004614d89565b613279565b3480156109f257600080fd5b5061049b610a01366004614ffa565b805160208183018101805160198252928201919093012091525481565b348015610a2a57600080fd5b5061041b610a39366004614ffa565b80516020818301810180516015825292820191909301209152546001600160a01b031681565b348015610a6b57600080fd5b506103b7610a7a3660046154a0565b6132b1565b348015610a8b57600080fd5b5061049b610a9a36600461502e565b81516020818401810180516023825292820194820194909420919093529091526000908152604090205481565b348015610ad357600080fd5b5061049b602b5481565b348015610ae957600080fd5b5061049b610af8366004614ffa565b805160208183018101805160218252928201919093012091525481565b348015610b2157600080fd5b5061049b602c5481565b348015610b3757600080fd5b50610b66610b46366004614ffa565b805160208183018101805160188252928201919093012091525460ff1681565b60405161038e91906157e3565b348015610b7f57600080fd5b50610382610b8e366004614d0f565b6001600160a01b03918216600090815260056020908152604080832093909416825291909152205460ff1690565b348015610bc857600080fd5b506103e4610bd7366004614e62565b6132bc565b348015610be857600080fd5b506103e4610bf7366004614cd5565b6136fe565b6000610c0782613799565b92915050565b60126020526000908152604090208054610c2690615a77565b80601f0160208091040260200160405190810160405280929190818152602001828054610c5290615a77565b8015610c9f5780601f10610c7457610100808354040283529160200191610c9f565b820191906000526020600020905b815481529060010190602001808311610c8257829003601f168201915b505050505081565b600b546001600160a01b03163314610cda5760405162461bcd60e51b8152600401610cd19061590b565b60405180910390fd5b601180546001600160a01b0319166001600160a01b0392909216919091179055565b606060008054610d0b90615a77565b80601f0160208091040260200160405190810160405280929190818152602001828054610d3790615a77565b8015610d845780601f10610d5957610100808354040283529160200191610d84565b820191906000526020600020905b815481529060010190602001808311610d6757829003601f168201915b5050505050905090565b6000610d99826137be565b610dfa5760405162461bcd60e51b815260206004820152602c60248201527f4552433732313a20617070726f76656420717565727920666f72206e6f6e657860448201526b34b9ba32b73a103a37b5b2b760a11b6064820152608401610cd1565b506000908152600460205260409020546001600160a01b031690565b6000610e2182612466565b9050806001600160a01b0316836001600160a01b03161415610e8f5760405162461bcd60e51b815260206004820152602160248201527f4552433732313a20617070726f76616c20746f2063757272656e74206f776e656044820152603960f91b6064820152608401610cd1565b336001600160a01b0382161480610eab5750610eab8133610b8e565b610f1d5760405162461bcd60e51b815260206004820152603860248201527f4552433732313a20617070726f76652063616c6c6572206973206e6f74206f7760448201527f6e6572206e6f7220617070726f76656420666f7220616c6c00000000000000006064820152608401610cd1565b610f2783836137db565b505050565b6060601387604051610f3e919061557b565b9081526040519081900360200190205460ff1615610f8f5760405162461bcd60e51b815260206004820152600e60248201526d185b1c9958591e481b5a5b9d195960921b6044820152606401610cd1565b6000610fa18888888888886001613849565b5090506001601889604051610fb6919061557b565b9081526040519081900360200190205460ff166003811115610fda57610fda615b0d565b141561108257601988604051610ff0919061557b565b9081526020016040518091039020548311156110415760405162461bcd60e51b815260206004820152601060248201526f6e6f7420656e6f75676820766f74657360801b6044820152606401610cd1565b6003601889604051611053919061557b565b908152604051908190036020019020805460ff1916600183600381111561107c5761107c615b0d565b02179055505b6003601889604051611094919061557b565b9081526040519081900360200190205460ff1660038111156110b8576110b8615b0d565b1461111b5760405162461bcd60e51b815260206004820152602d60248201527f63616e206f6e6c79206d696e7420666f7220706174687761797320696e20617060448201526c70726f7665642073746174757360981b6064820152608401610cd1565b6010546040516060916001600160a01b0316907f65a35964691f73fd1604104300b719081f6abd939cb2fc62b713db949a3b24099061115e908b9060240161580b565b60408051601f198184030181529181526020820180516001600160e01b03166001600160e01b031990941693909317909252905161119c919061557b565b6000604051808303816000865af19150503d80600081146111d9576040519150601f19603f3d011682016040523d82523d6000602084013e6111de565b606091505b509092509050816111ee57600080fd5b6000818060200190518101906112049190614cf2565b90506001600160a01b038116156112e157806001600160a01b03167f7c83c11f9ec76afed5429fa5830b7cc482416d05625066ce8f77199e2f5faaee8b604051602401611251919061580b565b60408051601f198184030181529181526020820180516001600160e01b03166001600160e01b031990941693909317909252905161128f919061557b565b6000604051808303816000865af19150503d80600081146112cc576040519150601f19603f3d011682016040523d82523d6000602084013e6112d1565b606091505b509093509150826112e157600080fd5b600060148b6040516112f3919061557b565b908152604051908190036020019020546001600160401b0381111561131a5761131a615b4f565b604051908082528060200260200182016040528015611343578160200160208202803683370190505b5090506000805b60148d60405161135a919061557b565b908152604051908190036020019020548110156114855761137f600c80546001019055565b600c5491506113d160148e604051611397919061557b565b908152602001604051809103902082815481106113b6576113b6615b39565b6000918252602090912001546001600160a01b0316836139fe565b6113db828f613b3d565b8c6040516113e9919061557b565b60405180910390208e6040516113ff919061557b565b604051809103902060148f604051611417919061557b565b9081526020016040518091039020838154811061143657611436615b39565b60009182526020822001546040516001600160a01b03909116917f323af8e82495eba529e101c6ea8614b66233683ec49766c746a7203ba276185e91a48061147d81615ab2565b91505061134a565b50600160138d604051611498919061557b565b908152604051908190036020019020805491151560ff19909216919091179055509350505050979650505050505050565b600b546001600160a01b031633146114f35760405162461bcd60e51b8152600401610cd19061590b565b601080546001600160a01b0319166001600160a01b0392909216919091179055565b6001602086604051611527919061557b565b9081526020016040518091039020546115409190615a34565b841161158e5760405162461bcd60e51b815260206004820152601b60248201527f506174687761794e4654203a20696e76616c6964206e756d62657200000000006044820152606401610cd1565b61159c338686868686613bc8565b50836020866040516115ae919061557b565b908152604051908190036020019020555050505050565b6115cf3382613e28565b6115eb5760405162461bcd60e51b8152600401610cd190615940565b610f27838383613f12565b6000831561180d5788156116f657602a8a604051611614919061557b565b9081526020016040518091039020600061162b3390565b6001600160a01b0316815260208101919091526040016000205460ff161561165257600080fd5b60208a604051611662919061557b565b90815260200160405180910390205460218b604051611681919061557b565b9081526020016040518091039020541061169a57600080fd5b60208a6040516116aa919061557b565b908152602001604051809103902054601c8b6040516116c9919061557b565b9081526020016040518091039020546116e29190615a01565b9050600081116116f157600080fd5b61180d565b60298a604051611706919061557b565b90815260408051602092819003830190206001600160a01b038b16600090815290835281812033825290925290205460ff161561174257600080fd5b60208a604051611752919061557b565b90815260200160405180910390205460228b604051611771919061557b565b90815260408051602092819003830190206001600160a01b038c1660009081529252902054106117a057600080fd5b60208a6040516117b0919061557b565b908152602001604051809103902054601d8b6040516117cf919061557b565b90815260408051602092819003830190206001600160a01b038c16600090815292529020546117fe9190615a01565b90506000811161180d57600080fd5b61181b338b848a8a8a613bc8565b508315611a2d57881561190857604051600090339083908381818185875af1925050503d806000811461186a576040519150601f19603f3d011682016040523d82523d6000602084013e61186f565b606091505b505090508061187d57600080fd5b6001602a8c60405161188f919061557b565b908152602001604051809103902060006118a63390565b6001600160a01b0316815260208101919091526040908101600020805460ff191692151592909217909155516021906118e0908d9061557b565b90815260405190819003602001902080549060006118fd83615ab2565b919050555050611a2d565b6001600160a01b03881663a9059cbb336040516001600160e01b031960e084901b1681526001600160a01b03909116600482015260248101849052604401602060405180830381600087803b15801561196057600080fd5b505af1158015611974573d6000803e3d6000fd5b505050506040513d601f19601f820116820180604052508101906119989190614fa3565b50600160298b6040516119ab919061557b565b90815260408051602092819003830181206001600160a01b038d1660009081529084528281203382529093529120805460ff1916921515929092179091556022906119f7908c9061557b565b90815260408051602092819003830190206001600160a01b038b16600090815292528120805491611a2783615ab2565b91905055505b611a39338b85856140b9565b50505050505050505050565b6000611a5083612f4f565b8210611ab25760405162461bcd60e51b815260206004820152602b60248201527f455243373231456e756d657261626c653a206f776e657220696e646578206f7560448201526a74206f6620626f756e647360a81b6064820152608401610cd1565b506001600160a01b03919091166000908152600760209081526040808320938352929052205490565b610f2783838360405180602001604052806000815250613279565b60606000611b0383612f4f565b90506000816001600160401b03811115611b1f57611b1f615b4f565b604051908082528060200260200182016040528015611b48578160200160208202803683370190505b50905060005b82811015611b8f57611b608582611a45565b828281518110611b7257611b72615b39565b602090810291909101015280611b8781615ab2565b915050611b4e565b509392505050565b6002601884604051611ba9919061557b565b9081526040519081900360200190205460ff166003811115611bcd57611bcd615b0d565b14611c1a5760405162461bcd60e51b815260206004820152601860248201527f696e636f727265637420706174687761792073746174757300000000000000006044820152606401610cd1565b6000601784604051611c2c919061557b565b90815260200160405180910390208054611c4590615a77565b80601f0160208091040260200160405190810160405280929190818152602001828054611c7190615a77565b8015611cbe5780601f10611c9357610100808354040283529160200191611cbe565b820191906000526020600020905b815481529060010190602001808311611ca157829003601f168201915b5050600f546040519495506000948594506001600160a01b0390911692507f0d58dd088cbe688b8c61e8f36a658aa45125fbcff8c7e7af836d3925770f01bc9150611d0d90869060240161580b565b60408051601f198184030181529181526020820180516001600160e01b03166001600160e01b0319909416939093179092529051611d4b919061557b565b6000604051808303816000865af19150503d8060008114611d88576040519150601f19603f3d011682016040523d82523d6000602084013e611d8d565b606091505b509150915081611d9c57600080fd5b600081806020019051810190611db29190614cf2565b90506001600160a01b038116611dc757600080fd5b8515611eed57601e87604051611ddd919061557b565b9081526040519081900360200190205460ff1615611e3d5760405162461bcd60e51b815260206004820152601d60248201527f6e61746976652072657761726420616c726561647920636c61696d65640000006044820152606401610cd1565b806001600160a01b0316601c88604051611e57919061557b565b9081526040519081900360200181205490600081818185875af1925050503d8060008114611ea1576040519150601f19603f3d011682016040523d82523d6000602084013e611ea6565b606091505b50508093505082611eb657600080fd5b6001601e88604051611ec8919061557b565b908152604051908190036020019020805491151560ff19909216919091179055612082565b601f87604051611efd919061557b565b90815260408051602092819003830190206001600160a01b0388166000908152925290205460ff1615611f725760405162461bcd60e51b815260206004820152601c60248201527f65726332302072657761726420616c726561647920636c61696d6564000000006044820152606401610cd1565b846001600160a01b031663a9059cbb82601d8a604051611f92919061557b565b9081526040805191829003602090810183206001600160a01b038c166000908152915220546001600160e01b031960e085901b168252611fe992916004016001600160a01b03929092168252602082015260400190565b602060405180830381600087803b15801561200357600080fd5b505af1158015612017573d6000803e3d6000fd5b505050506040513d601f19601f8201168201806040525081019061203b9190614fa3565b506001601f8860405161204e919061557b565b90815260408051602092819003830190206001600160a01b038916600090815292529020805460ff19169115159190911790555b50505050505050565b606060278360405161209d919061557b565b908152604080519182900360209081018320600086815290825282902080548083028501830190935282845291908301828280156120fa57602002820191906000526020600020905b8154815260200190600101908083116120e6575b5050505050905092915050565b600061211260095490565b82106121755760405162461bcd60e51b815260206004820152602c60248201527f455243373231456e756d657261626c653a20676c6f62616c20696e646578206f60448201526b7574206f6620626f756e647360a01b6064820152608401610cd1565b6009828154811061218857612188615b39565b90600052602060002001549050919050565b60608060006121a884612f4f565b6040805160208101909152600080825291925090826001600160401b038111156121d4576121d4615b4f565b6040519080825280602002602001820160405280156121fd578160200160208202803683370190505b5090508261220c578094508193505b60005b61221a600185615a34565b811015612347576000602860006122318a85611a45565b815260200190815260200160002060405180604001604052908160008201805461225a90615a77565b80601f016020809104026020016040519081016040528092919081815260200182805461228690615a77565b80156122d35780601f106122a8576101008083540402835291602001916122d3565b820191906000526020600020905b8154815290600101906020018083116122b657829003601f168201915b50505050508152602001600182015481525050905080602001518383815181106122ff576122ff615b39565b6020026020010181815250508381600001516040516020016123229291906155c6565b6040516020818303038152906040529350818061233e90615ab2565b9250505061220f565b6000602860006123578a85611a45565b815260200190815260200160002060405180604001604052908160008201805461238090615a77565b80601f01602080910402602001604051908101604052809291908181526020018280546123ac90615a77565b80156123f95780601f106123ce576101008083540402835291602001916123f9565b820191906000526020600020905b8154815290600101906020018083116123dc57829003601f168201915b505050505081526020016001820154815250509050806020015183838151811061242557612425615b39565b602002602001018181525050838160000151604051602001612448929190615597565b60405160208183030381529060405295508296505050505050915091565b6000818152600260205260408120546001600160a01b031680610c075760405162461bcd60e51b815260206004820152602960248201527f4552433732313a206f776e657220717565727920666f72206e6f6e657869737460448201526832b73a103a37b5b2b760b91b6064820152608401610cd1565b60016018876040516124ef919061557b565b9081526040519081900360200190205460ff16600381111561251357612513615b0d565b146125565760405162461bcd60e51b815260206004820152601360248201527270617468776179206e6f742070656e64696e6760681b6044820152606401610cd1565b601b86604051612566919061557b565b9081526020016040518091039020600061257d3390565b6001600160a01b0316815260208101919091526040016000205460ff16156125e75760405162461bcd60e51b815260206004820152601e60248201527f616c726561647920766f74656420666f722074686973207061746877617900006044820152606401610cd1565b846040516020016125f8919061557b565b6040516020818303038152906040528051906020012060178760405161261e919061557b565b908152602001604051809103902060405160200161263c9190615602565b60405160208183030381529060405280519060200120146126955760405162461bcd60e51b81526020600482015260136024820152721a5b98dbdc9c9958dd081c1c9bda9958dd1259606a1b6044820152606401610cd1565b6000806126a88888888888886000613849565b91509150601a886040516126bc919061557b565b90815260405190819003602001902080549060006126d983615ab2565b91905055506001601b896040516126f0919061557b565b908152602001604051809103902060006127073390565b6001600160a01b03166001600160a01b0316815260200190815260200160002060006101000a81548160ff02191690831515021790555082601a8960405161274f919061557b565b908152602001604051809103902054106127a4576002601889604051612775919061557b565b908152604051908190036020019020805460ff1916600183600381111561279e5761279e615b0d565b02179055505b5050505050505050565b60016018856040516127c0919061557b565b9081526040519081900360200190205460ff1660038111156127e4576127e4615b0d565b1480612823575060036018856040516127fd919061557b565b9081526040519081900360200190205460ff16600381111561282157612821615b0d565b145b61286f5760405162461bcd60e51b815260206004820152601c60248201527f70617468776179206e6f742070656e64696e672f617070726f766564000000006044820152606401610cd1565b6000602085604051612881919061557b565b908152602001604051809103902054116128cf5760405162461bcd60e51b815260206004820152600f60248201526e6e6f2075736572207265776172647360881b6044820152606401610cd1565b600f5460408051600481526024810182526020810180516001600160e01b0316631c3b702f60e11b179052905160009283926001600160a01b0390911691612917919061557b565b6000604051808303816000865af19150503d8060008114612954576040519150601f19603f3d011682016040523d82523d6000602084013e612959565b606091505b50915091508161296857600080fd5b60008180602001905181019061297e9190614cf2565b90506000612710602b54866129939190615a15565b61299d9190615a01565b90506000612710602c54876129b29190615a15565b6129bc9190615a01565b90508615612baa57806129cf83886159e9565b6129d991906159e9565b341015612a1d5760405162461bcd60e51b8152602060048201526012602482015271696e73756666696369656e742066756e647360701b6044820152606401610cd1565b6040516001600160a01b038416908390600081818185875af1925050503d8060008114612a66576040519150601f19603f3d011682016040523d82523d6000602084013e612a6b565b606091505b50508095505084612a7b57600080fd5b601589604051612a8b919061557b565b908152604051908190036020018120546001600160a01b031690829060006040518083038185875af1925050503d8060008114612ae4576040519150601f19603f3d011682016040523d82523d6000602084013e612ae9565b606091505b50508095505084612af957600080fd5b85601c8a604051612b0a919061557b565b90815260200160405180910390206000828254612b2791906159e9565b90915550612b37905082876159e9565b341115612ba5573382612b4a8834615a34565b612b549190615a34565b604051600081818185875af1925050503d8060008114612b90576040519150601f19603f3d011682016040523d82523d6000602084013e612b95565b606091505b50508095505084612ba557600080fd5b612f44565b6001600160a01b038816612bbd57600080fd5b6010546040516001600160a01b03909116907f11f69039648f0dd87bd7c96fa7501d8c9b90ae27f5d68bb2f9adfc6ae113637a90601790612bff908d9061557b565b908152604051908190036020018120612c1e9146908d9060240161581e565b60408051601f198184030181529181526020820180516001600160e01b03166001600160e01b0319909416939093179092529051612c5c919061557b565b6000604051808303816000865af19150503d8060008114612c99576040519150601f19603f3d011682016040523d82523d6000602084013e612c9e565b606091505b50909550935084612cae57600080fd5b83806020019051810190612cc29190614fa3565b945084612d065760405162461bcd60e51b8152602060048201526012602482015271115490cc8c081b9bdd08185c1c1c9bdd995960721b6044820152606401610cd1565b6001600160a01b0388166323b872dd336040516001600160e01b031960e084901b1681526001600160a01b039182166004820152908616602482015260448101859052606401602060405180830381600087803b158015612d6657600080fd5b505af1158015612d7a573d6000803e3d6000fd5b505050506040513d601f19601f82011682018060405250810190612d9e9190614fa3565b506001600160a01b0388166323b872dd3330612dba858b6159e9565b6040516001600160e01b031960e086901b1681526001600160a01b0393841660048201529290911660248301526044820152606401602060405180830381600087803b158015612e0957600080fd5b505af1158015612e1d573d6000803e3d6000fd5b505050506040513d601f19601f82011682018060405250810190612e419190614fa3565b50876001600160a01b031663a9059cbb60158b604051612e61919061557b565b908152604051908190036020018120546001600160e01b031960e084901b1682526001600160a01b0316600482015260248101849052604401602060405180830381600087803b158015612eb457600080fd5b505af1158015612ec8573d6000803e3d6000fd5b505050506040513d601f19601f82011682018060405250810190612eec9190614fa3565b5085601d8a604051612efe919061557b565b908152602001604051809103902060008a6001600160a01b03166001600160a01b031681526020019081526020016000206000828254612f3e91906159e9565b90915550505b505050505050505050565b60006001600160a01b038216612fba5760405162461bcd60e51b815260206004820152602a60248201527f4552433732313a2062616c616e636520717565727920666f7220746865207a65604482015269726f206164647265737360b01b6064820152608401610cd1565b506001600160a01b031660009081526003602052604090205490565b600b546001600160a01b031633146130005760405162461bcd60e51b8152600401610cd19061590b565b61300a600061425a565b565b606060268360405161301e919061557b565b908152604080519182900360209081018320600086815290825282902080548083028501830190935282845291908301828280156120fa57602002820191906000526020600020905b81546001600160a01b03168152600190910190602001808311613067575050505050905092915050565b805160208183018101805160178252928201919093012091528054610c2690615a77565b60006018886040516130c7919061557b565b9081526040519081900360200190205460ff1660038111156130eb576130eb615b0d565b146130f557600080fd5b6001601888604051613107919061557b565b908152604051908190036020019020805460ff1916600183600381111561313057613130615b0d565b021790555085601788604051613146919061557b565b90815260200160405180910390209080519060200190613167929190614aa2565b5084602088604051613179919061557b565b908152604051908190036020019020556131903390565b6015886040516131a0919061557b565b90815260405190819003602001902080546001600160a01b03929092166001600160a01b0319909216919091179055831561208257612082878484846127ae565b606060018054610d0b90615a77565b6131fb3383836142ac565b5050565b6060601482604051613211919061557b565b908152604080519182900360209081018320805480830285018301909352828452919083018282801561326d57602002820191906000526020600020905b81546001600160a01b0316815260019091019060200180831161324f575b50505050509050919050565b6132833383613e28565b61329f5760405162461bcd60e51b8152600401610cd190615940565b6132ab8484848461437b565b50505050565b6060610c07826143ae565b60016018876040516132ce919061557b565b9081526040519081900360200190205460ff1660038111156132f2576132f2615b0d565b146133345760405162461bcd60e51b8152602060048201526012602482015271737461747573206e6f742070656e64696e6760701b6044820152606401610cd1565b601b86604051613344919061557b565b9081526020016040518091039020600061335b3390565b6001600160a01b0316815260208101919091526040016000205460ff16156133c55760405162461bcd60e51b815260206004820152601e60248201527f616c726561647920766f74656420666f722074686973207061746877617900006044820152606401610cd1565b846040516020016133d6919061557b565b604051602081830303815290604052805190602001206017876040516133fc919061557b565b908152602001604051809103902060405160200161341a9190615602565b60405160208183030381529060405280519060200120146134735760405162461bcd60e51b81526020600482015260136024820152721a5b98dbdc9c9958dd081c1c9bda9958dd1259606a1b6044820152606401610cd1565b6000806134868888888888886000613849565b9150915060198860405161349a919061557b565b90815260405190819003602001902080549060006134b783615ab2565b91905055506001601b896040516134ce919061557b565b908152602001604051809103902060006134e53390565b6001600160a01b0316815260208101919091526040908101600020805460ff1916921515929092179091555160199061351f908a9061557b565b908152602001604051809103902054600114156136505760008951116135755760405162461bcd60e51b815260206004820152600b60248201526a656d70747920617272617960a81b6044820152606401610cd1565b88601489604051613586919061557b565b908152602001604051809103902090805190602001906135a7929190614b26565b506019886040516135b8919061557b565b9081526020016040518091039020548311612ba55760036018896040516135df919061557b565b908152604051908190036020019020805460ff1916600183600381111561360857613608615b0d565b02179055508760405161361b919061557b565b604051908190038120907fcf525faa39dde00362f50602e2030eb0b110857c69ffaf3c69a504b41962bf0f90600090a2612f44565b82601989604051613661919061557b565b90815260200160405180910390205410612f44576003601889604051613687919061557b565b908152604051908190036020019020805460ff191660018360038111156136b0576136b0615b0d565b0217905550876040516136c3919061557b565b604051908190038120907fcf525faa39dde00362f50602e2030eb0b110857c69ffaf3c69a504b41962bf0f90600090a2505050505050505050565b600b546001600160a01b031633146137285760405162461bcd60e51b8152600401610cd19061590b565b6001600160a01b03811661378d5760405162461bcd60e51b815260206004820152602660248201527f4f776e61626c653a206e6577206f776e657220697320746865207a65726f206160448201526564647265737360d01b6064820152608401610cd1565b6137968161425a565b50565b60006001600160e01b0319821663780e9d6360e01b1480610c075750610c078261451d565b6000908152600260205260409020546001600160a01b0316151590565b600081815260046020526040902080546001600160a01b0319166001600160a01b038416908117909155819061381082612466565b6001600160a01b03167f8c5be1e5ebec7d5bd14f71427d1e84f3dd0314c0f7b2291e5b200ac8c7c3b92560405160405180910390a45050565b600e5460009081906001600160a01b03166312065106338b8b8b600060200201518b600060200201518b600060200201516040518763ffffffff1660e01b815260040161389b969594939291906156b1565b602060405180830381600087803b1580156138b557600080fd5b505af11580156138c9573d6000803e3d6000fd5b505050506040513d601f19601f820116820180604052508101906138ed9190614fa3565b9150816138f957600080fd5b82801561393a5750600160188a604051613913919061557b565b9081526040519081900360200190205460ff16600381111561393757613937615b0d565b14155b15613947575060016139f2565b600e546001600160a01b031663466cc53e338b878b600160200201518b600160200201518b600160200201516040518763ffffffff1660e01b815260040161399496959493929190615709565b602060405180830381600087803b1580156139ae57600080fd5b505af11580156139c2573d6000803e3d6000fd5b505050506040513d601f19601f820116820180604052508101906139e69190614fa3565b9050806139f257600080fd5b97509795505050505050565b6001600160a01b038216613a545760405162461bcd60e51b815260206004820181905260248201527f4552433732313a206d696e7420746f20746865207a65726f20616464726573736044820152606401610cd1565b613a5d816137be565b15613aaa5760405162461bcd60e51b815260206004820152601c60248201527f4552433732313a20746f6b656e20616c7265616479206d696e746564000000006044820152606401610cd1565b613ab66000838361456d565b6001600160a01b0382166000908152600360205260408120805460019290613adf9084906159e9565b909155505060008181526002602052604080822080546001600160a01b0319166001600160a01b03861690811790915590518392907fddf252ad1be2c89b69c2b068fc378daa952ba7f163c4a11628f55a4df523b3ef908290a45050565b613b46826137be565b613ba95760405162461bcd60e51b815260206004820152602e60248201527f45524337323155524953746f726167653a2055524920736574206f66206e6f6e60448201526d32bc34b9ba32b73a103a37b5b2b760911b6064820152608401610cd1565b60008281526006602090815260409091208251610f2792840190614aa2565b60008087304660238a604051613bde919061557b565b90815260408051602092819003830181206001600160a01b038f1660009081529084529190912054613c199594939290918c918e9101615520565b60408051601f1981840301815282825280516020918201206010546004855260248501845291840180516001600160e01b031663a5207df560e01b179052915191935060009283926001600160a01b0390921691613c77919061557b565b6000604051808303816000865af19150503d8060008114613cb4576040519150601f19603f3d011682016040523d82523d6000602084013e613cb9565b606091505b509150915081613cc857600080fd5b600081806020019051810190613cde9190614cf2565b6040517f19457468657265756d205369676e6564204d6573736167653a0a3332000000006020820152603c8101869052909150600190605c0160408051601f198184030181528282528051602091820120600084529083018083525260ff891690820152606081018a90526080810189905260a0016020604051602081039080840390855afa158015613d75573d6000803e3d6000fd5b505050602060405103516001600160a01b0316816001600160a01b031614613dd25760405162461bcd60e51b815260206004820152601060248201526f24b731b7b93932b1ba1039b4b3b732b960811b6044820152606401610cd1565b60238a604051613de2919061557b565b90815260408051602092819003830190206001600160a01b038e16600090815292528120805491613e1283615ab2565b9091555060019c9b505050505050505050505050565b6000613e33826137be565b613e945760405162461bcd60e51b815260206004820152602c60248201527f4552433732313a206f70657261746f7220717565727920666f72206e6f6e657860448201526b34b9ba32b73a103a37b5b2b760a11b6064820152608401610cd1565b6000613e9f83612466565b9050806001600160a01b0316846001600160a01b03161480613ee657506001600160a01b0380821660009081526005602090815260408083209388168352929052205460ff165b80613f0a5750836001600160a01b0316613eff84610d8e565b6001600160a01b0316145b949350505050565b826001600160a01b0316613f2582612466565b6001600160a01b031614613f895760405162461bcd60e51b815260206004820152602560248201527f4552433732313a207472616e736665722066726f6d20696e636f72726563742060448201526437bbb732b960d91b6064820152608401610cd1565b6001600160a01b038216613feb5760405162461bcd60e51b8152602060048201526024808201527f4552433732313a207472616e7366657220746f20746865207a65726f206164646044820152637265737360e01b6064820152608401610cd1565b613ff683838361456d565b6140016000826137db565b6001600160a01b038316600090815260036020526040812080546001929061402a908490615a34565b90915550506001600160a01b03821660009081526003602052604081208054600192906140589084906159e9565b909155505060008181526002602052604080822080546001600160a01b0319166001600160a01b0386811691821790925591518493918716917fddf252ad1be2c89b69c2b068fc378daa952ba7f163c4a11628f55a4df523b3ef91a4505050565b6025836040516140c9919061557b565b908152604080516020928190038301902060008481529083528181206001600160a01b038816825290925290205460ff1615614104576132ab565b6000614114600c80546001019055565b50600c5461412233826139fe565b61412c8184613b3d565b60408051808201825285815260208082018590526000848152602882529290922081518051929384936141629284920190614aa2565b5060208201518160010155905050602685604051614180919061557b565b9081526040805191829003602090810183206000878152908252918220805460018101825590835291200180546001600160a01b0389166001600160a01b03199091161790556027906141d490879061557b565b908152604080519182900360209081018320600087815290825291822080546001818101835591845291909220018490559060259061421490889061557b565b9081526040805160209281900383019020600096875282528086206001600160a01b0399909916865297905295909220805460ff19169515159590951790945550505050565b600b80546001600160a01b038381166001600160a01b0319831681179093556040519116919082907f8be0079c531659141344cd1fd0a4f28419497f9722a3daafe3b4186f6b6457e090600090a35050565b816001600160a01b0316836001600160a01b0316141561430e5760405162461bcd60e51b815260206004820152601960248201527f4552433732313a20617070726f766520746f2063616c6c6572000000000000006044820152606401610cd1565b6001600160a01b03838116600081815260056020908152604080832094871680845294825291829020805460ff191686151590811790915591519182527f17307eab39ab6107e8899845ad3d59bd9653f200f220920489ca2b5937696c31910160405180910390a3505050565b614386848484613f12565b61439284848484614578565b6132ab5760405162461bcd60e51b8152600401610cd1906158b9565b60606143b9826137be565b61441f5760405162461bcd60e51b815260206004820152603160248201527f45524337323155524953746f726167653a2055524920717565727920666f72206044820152703737b732bc34b9ba32b73a103a37b5b2b760791b6064820152608401610cd1565b6000828152600660205260408120805461443890615a77565b80601f016020809104026020016040519081016040528092919081815260200182805461446490615a77565b80156144b15780601f10614486576101008083540402835291602001916144b1565b820191906000526020600020905b81548152906001019060200180831161449457829003601f168201915b5050505050905060006144cf60408051602081019091526000815290565b90508051600014156144e2575092915050565b8151156145145780826040516020016144fc929190615597565b60405160208183030381529060405292505050919050565b613f0a84614685565b60006001600160e01b031982166380ac58cd60e01b148061454e57506001600160e01b03198216635b5e139f60e01b145b80610c0757506301ffc9a760e01b6001600160e01b0319831614610c07565b610f2783838361475d565b60006001600160a01b0384163b1561467a57604051630a85bd0160e11b81526001600160a01b0385169063150b7a02906145bc903390899088908890600401615674565b602060405180830381600087803b1580156145d657600080fd5b505af1925050508015614606575060408051601f3d908101601f1916820190925261460391810190614fdd565b60015b614660573d808015614634576040519150601f19603f3d011682016040523d82523d6000602084013e614639565b606091505b5080516146585760405162461bcd60e51b8152600401610cd1906158b9565b805181602001fd5b6001600160e01b031916630a85bd0160e11b149050613f0a565b506001949350505050565b6060614690826137be565b6146f45760405162461bcd60e51b815260206004820152602f60248201527f4552433732314d657461646174613a2055524920717565727920666f72206e6f60448201526e3732bc34b9ba32b73a103a37b5b2b760891b6064820152608401610cd1565b600061470b60408051602081019091526000815290565b9050600081511161472b5760405180602001604052806000815250614756565b8061473584614815565b604051602001614746929190615597565b6040516020818303038152906040525b9392505050565b6001600160a01b0383166147b8576147b381600980546000838152600a60205260408120829055600182018355919091527f6e1540171b6c0c960b71a7020d9f60077f6af931a8bbf590da0223dacf75c7af0155565b6147db565b816001600160a01b0316836001600160a01b0316146147db576147db8382614912565b6001600160a01b0382166147f257610f27816149af565b826001600160a01b0316826001600160a01b031614610f2757610f278282614a5e565b6060816148395750506040805180820190915260018152600360fc1b602082015290565b8160005b8115614863578061484d81615ab2565b915061485c9050600a83615a01565b915061483d565b6000816001600160401b0381111561487d5761487d615b4f565b6040519080825280601f01601f1916602001820160405280156148a7576020820181803683370190505b5090505b8415613f0a576148bc600183615a34565b91506148c9600a86615acd565b6148d49060306159e9565b60f81b8183815181106148e9576148e9615b39565b60200101906001600160f81b031916908160001a90535061490b600a86615a01565b94506148ab565b6000600161491f84612f4f565b6149299190615a34565b60008381526008602052604090205490915080821461497c576001600160a01b03841660009081526007602090815260408083208584528252808320548484528184208190558352600890915290208190555b5060009182526008602090815260408084208490556001600160a01b039094168352600781528383209183525290812055565b6009546000906149c190600190615a34565b6000838152600a6020526040812054600980549394509092849081106149e9576149e9615b39565b906000526020600020015490508060098381548110614a0a57614a0a615b39565b6000918252602080832090910192909255828152600a90915260408082208490558582528120556009805480614a4257614a42615b23565b6001900381819060005260206000200160009055905550505050565b6000614a6983612f4f565b6001600160a01b039093166000908152600760209081526040808320868452825280832085905593825260089052919091209190915550565b828054614aae90615a77565b90600052602060002090601f016020900481019282614ad05760008555614b16565b82601f10614ae957805160ff1916838001178555614b16565b82800160010185558215614b16579182015b82811115614b16578251825591602001919060010190614afb565b50614b22929150614b7b565b5090565b828054828255906000526020600020908101928215614b16579160200282015b82811115614b1657825182546001600160a01b0319166001600160a01b03909116178255602090920191600190910190614b46565b5b80821115614b225760008155600101614b7c565b60006001600160401b03831115614ba957614ba9615b4f565b614bbc601f8401601f19166020016159b9565b9050828152838383011115614bd057600080fd5b828260208301376000602084830101529392505050565b600082601f830112614bf857600080fd5b614c00615991565b808385604086011115614c1257600080fd5b60005b6002811015614c34578135845260209384019390910190600101614c15565b509095945050505050565b600082601f830112614c5057600080fd5b614c58615991565b808385604086011115614c6a57600080fd5b60005b6002811015614c3457614c7f82614cc4565b84526020938401939190910190600101614c6d565b8035614c9f81615b7a565b919050565b600082601f830112614cb557600080fd5b61475683833560208501614b90565b803560ff81168114614c9f57600080fd5b600060208284031215614ce757600080fd5b813561475681615b65565b600060208284031215614d0457600080fd5b815161475681615b65565b60008060408385031215614d2257600080fd5b8235614d2d81615b65565b91506020830135614d3d81615b65565b809150509250929050565b600080600060608486031215614d5d57600080fd5b8335614d6881615b65565b92506020840135614d7881615b65565b929592945050506040919091013590565b60008060008060808587031215614d9f57600080fd5b8435614daa81615b65565b93506020850135614dba81615b65565b92506040850135915060608501356001600160401b03811115614ddc57600080fd5b8501601f81018713614ded57600080fd5b614dfc87823560208401614b90565b91505092959194509250565b60008060408385031215614e1b57600080fd5b8235614e2681615b65565b91506020830135614d3d81615b7a565b60008060408385031215614e4957600080fd5b8235614e5481615b65565b946020939093013593505050565b6000806000806000806000610140888a031215614e7e57600080fd5b6001600160401b038089351115614e9457600080fd5b883589018a601f820112614ea757600080fd5b803582811115614eb957614eb9615b4f565b8060051b614ec9602082016159b9565b80838252602082019150602085018f6020858801011115614ee957600080fd5b600095505b84861015614f1757614f008135615b65565b803583526001959095019460209283019201614eee565b509b5050505060208a0135905081811115614f3157600080fd5b614f3d8b828c01614ca4565b975050604089013581811115614f5257600080fd5b614f5e8b828c01614ca4565b96505050614f6f8960608a01614be7565b9350614f7e8960a08a01614be7565b9250614f8d8960e08a01614c3f565b9150610120880135905092959891949750929550565b600060208284031215614fb557600080fd5b815161475681615b7a565b600060208284031215614fd257600080fd5b813561475681615b88565b600060208284031215614fef57600080fd5b815161475681615b88565b60006020828403121561500c57600080fd5b81356001600160401b0381111561502257600080fd5b613f0a84828501614ca4565b6000806040838503121561504157600080fd5b82356001600160401b0381111561505757600080fd5b61506385828601614ca4565b9250506020830135614d3d81615b65565b6000806000806080858703121561508a57600080fd5b84356001600160401b038111156150a057600080fd5b6150ac87828801614ca4565b94505060208501356150bd81615b65565b925060408501356150cd81615b7a565b9396929550929360600135925050565b6000806000606084860312156150f257600080fd5b83356001600160401b0381111561510857600080fd5b61511486828701614ca4565b935050602084013561512581615b7a565b9150604084013561513581615b65565b809150509250925092565b60008060008060008060008060006101208a8c03121561515f57600080fd5b89356001600160401b038082111561517657600080fd5b6151828d838e01614ca4565b9a5060208c0135915061519482615b7a565b90985060408b0135906151a682615b65565b81985060608c0135975060808c013596506151c360a08d01614cc4565b95506151d160c08d01614c94565b945060e08c01359150808211156151e757600080fd5b506151f48c828d01614ca4565b9250506101008a013590509295985092959850929598565b600080600080600080610120878903121561522657600080fd5b86356001600160401b038082111561523d57600080fd5b6152498a838b01614ca4565b9750602089013591508082111561525f57600080fd5b5061526c89828a01614ca4565b95505061527c8860408901614be7565b935061528b8860808901614be7565b925061529a8860c08901614c3f565b915061010087013590509295509295509295565b6000806000806000806000610140888a0312156152ca57600080fd5b87356001600160401b03808211156152e157600080fd5b6152ed8b838c01614ca4565b985060208a013591508082111561530357600080fd5b61530f8b838c01614ca4565b975060408a013591508082111561532557600080fd5b506153328a828b01614ca4565b955050614f6f8960608a01614be7565b600080600080600080600060e0888a03121561535d57600080fd5b87356001600160401b038082111561537457600080fd5b6153808b838c01614ca4565b985060208a013591508082111561539657600080fd5b506153a38a828b01614ca4565b9650506040880135945060608801356153bb81615b7a565b935060808801356153cb81615b65565b925060a08801356153db81615b7a565b8092505060c0880135905092959891949750929550565b6000806040838503121561540557600080fd5b82356001600160401b0381111561541b57600080fd5b61542785828601614ca4565b95602094909401359450505050565b600080600080600060a0868803121561544e57600080fd5b85356001600160401b0381111561546457600080fd5b61547088828901614ca4565b95505060208601359350604086013592506060860135915061549460808701614cc4565b90509295509295909350565b6000602082840312156154b257600080fd5b5035919050565b600081518084526020808501945080840160005b838110156154e9578151875295820195908201906001016154cd565b509495945050505050565b6000815180845261550c816020860160208601615a4b565b601f01601f19169290920160200192915050565b60006bffffffffffffffffffffffff19808960601b168352808860601b166014840152508560288301528460488301528360688301528251615569816088850160208701615a4b565b91909101608801979650505050505050565b6000825161558d818460208701615a4b565b9190910192915050565b600083516155a9818460208801615a4b565b8351908301906155bd818360208801615a4b565b01949350505050565b600083516155d8818460208801615a4b565b8351908301906155ec818360208801615a4b565b615f5f60f01b9101908152600201949350505050565b600080835461561081615a77565b60018281168015615628576001811461563957615668565b60ff19841687528287019450615668565b8760005260208060002060005b8581101561565f5781548a820152908401908201615646565b50505082870194505b50929695505050505050565b6001600160a01b03858116825284166020820152604081018390526080606082018190526000906156a7908301846154f4565b9695505050505050565b6001600160a01b038716815260c0602082018190526000906156d5908301886154f4565b82810360408401526156e781886154f4565b60608401969096525050608081019290925260ff1660a0909101529392505050565b6001600160a01b038716815260c06020820181905260009061572d908301886154f4565b905085604083015284606083015283608083015260ff831660a0830152979650505050505050565b6020808252825182820181905260009190848201906040850190845b818110156157965783516001600160a01b031683529284019291840191600101615771565b50909695505050505050565b60208152600061475660208301846154b9565b6040815260006157c860408301856154b9565b82810360208401526157da81856154f4565b95945050505050565b602081016004831061580557634e487b7160e01b600052602160045260246000fd5b91905290565b60208152600061475660208301846154f4565b60608152600080855461583081615a77565b8060608601526080600180841660008114615852576001811461586657615897565b60ff1985168884015260a088019550615897565b8a60005260208060002060005b8681101561588e5781548b8201870152908401908201615873565b8a018501975050505b5050505050602083018590526001600160a01b03841660408401529050613f0a565b60208082526032908201527f4552433732313a207472616e7366657220746f206e6f6e20455243373231526560408201527131b2b4bb32b91034b6b83632b6b2b73a32b960711b606082015260800190565b6020808252818101527f4f776e61626c653a2063616c6c6572206973206e6f7420746865206f776e6572604082015260600190565b60208082526031908201527f4552433732313a207472616e736665722063616c6c6572206973206e6f74206f6040820152701ddb995c881b9bdc88185c1c1c9bdd9959607a1b606082015260800190565b604080519081016001600160401b03811182821017156159b3576159b3615b4f565b60405290565b604051601f8201601f191681016001600160401b03811182821017156159e1576159e1615b4f565b604052919050565b600082198211156159fc576159fc615ae1565b500190565b600082615a1057615a10615af7565b500490565b6000816000190483118215151615615a2f57615a2f615ae1565b500290565b600082821015615a4657615a46615ae1565b500390565b60005b83811015615a66578181015183820152602001615a4e565b838111156132ab5750506000910152565b600181811c90821680615a8b57607f821691505b60208210811415615aac57634e487b7160e01b600052602260045260246000fd5b50919050565b6000600019821415615ac657615ac6615ae1565b5060010190565b600082615adc57615adc615af7565b500690565b634e487b7160e01b600052601160045260246000fd5b634e487b7160e01b600052601260045260246000fd5b634e487b7160e01b600052602160045260246000fd5b634e487b7160e01b600052603160045260246000fd5b634e487b7160e01b600052603260045260246000fd5b634e487b7160e01b600052604160045260246000fd5b6001600160a01b038116811461379657600080fd5b801515811461379657600080fd5b6001600160e01b03198116811461379657600080fdfea2646970667358221220eb6ce2198b13b7e5601f0ac4e67cc8d36b2fe115b70011e645a3203a5112b3b364736f6c63430008070033",
  "devdoc": {
    "kind": "dev",
    "methods": {
      "approve(address,uint256)": {
        "details": "See {IERC721-approve}."
      },
      "balanceOf(address)": {
        "details": "See {IERC721-balanceOf}."
      },
      "getApproved(uint256)": {
        "details": "See {IERC721-getApproved}."
      },
      "isApprovedForAll(address,address)": {
        "details": "See {IERC721-isApprovedForAll}."
      },
      "name()": {
        "details": "See {IERC721Metadata-name}."
      },
      "owner()": {
        "details": "Returns the address of the current owner."
      },
      "ownerOf(uint256)": {
        "details": "See {IERC721-ownerOf}."
      },
      "renounceOwnership()": {
        "details": "Leaves the contract without owner. It will not be possible to call `onlyOwner` functions anymore. Can only be called by the current owner. NOTE: Renouncing ownership will leave the contract without an owner, thereby removing any functionality that is only available to the owner."
      },
      "safeTransferFrom(address,address,uint256)": {
        "details": "See {IERC721-safeTransferFrom}."
      },
      "safeTransferFrom(address,address,uint256,bytes)": {
        "details": "See {IERC721-safeTransferFrom}."
      },
      "setApprovalForAll(address,bool)": {
        "details": "See {IERC721-setApprovalForAll}."
      },
      "symbol()": {
        "details": "See {IERC721Metadata-symbol}."
      },
      "tokenByIndex(uint256)": {
        "details": "See {IERC721Enumerable-tokenByIndex}."
      },
      "tokenOfOwnerByIndex(address,uint256)": {
        "details": "See {IERC721Enumerable-tokenOfOwnerByIndex}."
      },
      "totalSupply()": {
        "details": "See {IERC721Enumerable-totalSupply}."
      },
      "transferFrom(address,address,uint256)": {
        "details": "See {IERC721-transferFrom}."
      },
      "transferOwnership(address)": {
        "details": "Transfers ownership of the contract to a new account (`newOwner`). Can only be called by the current owner."
      }
    },
    "version": 1
  },
  "userdoc": {
    "kind": "user",
    "methods": {},
    "version": 1
  },
  "storageLayout": {
    "storage": [
      {
        "astId": 2361,
        "contract": "contracts/PathwayNFT.sol:PathwayNFT",
        "label": "_name",
        "offset": 0,
        "slot": "0",
        "type": "t_string_storage"
      },
      {
        "astId": 2363,
        "contract": "contracts/PathwayNFT.sol:PathwayNFT",
        "label": "_symbol",
        "offset": 0,
        "slot": "1",
        "type": "t_string_storage"
      },
      {
        "astId": 2367,
        "contract": "contracts/PathwayNFT.sol:PathwayNFT",
        "label": "_owners",
        "offset": 0,
        "slot": "2",
        "type": "t_mapping(t_uint256,t_address)"
      },
      {
        "astId": 2371,
        "contract": "contracts/PathwayNFT.sol:PathwayNFT",
        "label": "_balances",
        "offset": 0,
        "slot": "3",
        "type": "t_mapping(t_address,t_uint256)"
      },
      {
        "astId": 2375,
        "contract": "contracts/PathwayNFT.sol:PathwayNFT",
        "label": "_tokenApprovals",
        "offset": 0,
        "slot": "4",
        "type": "t_mapping(t_uint256,t_address)"
      },
      {
        "astId": 2381,
        "contract": "contracts/PathwayNFT.sol:PathwayNFT",
        "label": "_operatorApprovals",
        "offset": 0,
        "slot": "5",
        "type": "t_mapping(t_address,t_mapping(t_address,t_bool))"
      },
      {
        "astId": 3686,
        "contract": "contracts/PathwayNFT.sol:PathwayNFT",
        "label": "_tokenURIs",
        "offset": 0,
        "slot": "6",
        "type": "t_mapping(t_uint256,t_string_storage)"
      },
      {
        "astId": 3350,
        "contract": "contracts/PathwayNFT.sol:PathwayNFT",
        "label": "_ownedTokens",
        "offset": 0,
        "slot": "7",
        "type": "t_mapping(t_address,t_mapping(t_uint256,t_uint256))"
      },
      {
        "astId": 3354,
        "contract": "contracts/PathwayNFT.sol:PathwayNFT",
        "label": "_ownedTokensIndex",
        "offset": 0,
        "slot": "8",
        "type": "t_mapping(t_uint256,t_uint256)"
      },
      {
        "astId": 3357,
        "contract": "contracts/PathwayNFT.sol:PathwayNFT",
        "label": "_allTokens",
        "offset": 0,
        "slot": "9",
        "type": "t_array(t_uint256)dyn_storage"
      },
      {
        "astId": 3361,
        "contract": "contracts/PathwayNFT.sol:PathwayNFT",
        "label": "_allTokensIndex",
        "offset": 0,
        "slot": "10",
        "type": "t_mapping(t_uint256,t_uint256)"
      },
      {
        "astId": 273,
        "contract": "contracts/PathwayNFT.sol:PathwayNFT",
        "label": "_owner",
        "offset": 0,
        "slot": "11",
        "type": "t_address"
      },
      {
        "astId": 7800,
        "contract": "contracts/PathwayNFT.sol:PathwayNFT",
        "label": "_tokenIds",
        "offset": 0,
        "slot": "12",
        "type": "t_struct(Counter)4182_storage"
      },
      {
        "astId": 7803,
        "contract": "contracts/PathwayNFT.sol:PathwayNFT",
        "label": "vrfContract",
        "offset": 0,
        "slot": "13",
        "type": "t_contract(RandomNumberConsumer)12098"
      },
      {
        "astId": 7806,
        "contract": "contracts/PathwayNFT.sol:PathwayNFT",
        "label": "verifyContract",
        "offset": 0,
        "slot": "14",
        "type": "t_contract(Verify)12759"
      },
      {
        "astId": 7808,
        "contract": "contracts/PathwayNFT.sol:PathwayNFT",
        "label": "projectNFTAddress",
        "offset": 0,
        "slot": "15",
        "type": "t_address"
      },
      {
        "astId": 7810,
        "contract": "contracts/PathwayNFT.sol:PathwayNFT",
        "label": "appDiamond",
        "offset": 0,
        "slot": "16",
        "type": "t_address"
      },
      {
        "astId": 7812,
        "contract": "contracts/PathwayNFT.sol:PathwayNFT",
        "label": "adventureFactory",
        "offset": 0,
        "slot": "17",
        "type": "t_address"
      },
      {
        "astId": 7816,
        "contract": "contracts/PathwayNFT.sol:PathwayNFT",
        "label": "statusStrings",
        "offset": 0,
        "slot": "18",
        "type": "t_mapping(t_uint256,t_string_storage)"
      },
      {
        "astId": 7820,
        "contract": "contracts/PathwayNFT.sol:PathwayNFT",
        "label": "pathwayMinted",
        "offset": 0,
        "slot": "19",
        "type": "t_mapping(t_string_memory_ptr,t_bool)"
      },
      {
        "astId": 7825,
        "contract": "contracts/PathwayNFT.sol:PathwayNFT",
        "label": "contributors",
        "offset": 0,
        "slot": "20",
        "type": "t_mapping(t_string_memory_ptr,t_array(t_address)dyn_storage)"
      },
      {
        "astId": 7829,
        "contract": "contracts/PathwayNFT.sol:PathwayNFT",
        "label": "creator",
        "offset": 0,
        "slot": "21",
        "type": "t_mapping(t_string_memory_ptr,t_address)"
      },
      {
        "astId": 7832,
        "contract": "contracts/PathwayNFT.sol:PathwayNFT",
        "label": "rarityThresholds",
        "offset": 0,
        "slot": "22",
        "type": "t_array(t_uint8)dyn_storage"
      },
      {
        "astId": 7836,
        "contract": "contracts/PathwayNFT.sol:PathwayNFT",
        "label": "projectIdforPathway",
        "offset": 0,
        "slot": "23",
        "type": "t_mapping(t_string_memory_ptr,t_string_storage)"
      },
      {
        "astId": 7841,
        "contract": "contracts/PathwayNFT.sol:PathwayNFT",
        "label": "status",
        "offset": 0,
        "slot": "24",
        "type": "t_mapping(t_string_memory_ptr,t_enum(PathwayStatus)7951)"
      },
      {
        "astId": 7845,
        "contract": "contracts/PathwayNFT.sol:PathwayNFT",
        "label": "votes",
        "offset": 0,
        "slot": "25",
        "type": "t_mapping(t_string_memory_ptr,t_uint256)"
      },
      {
        "astId": 7849,
        "contract": "contracts/PathwayNFT.sol:PathwayNFT",
        "label": "votesReject",
        "offset": 0,
        "slot": "26",
        "type": "t_mapping(t_string_memory_ptr,t_uint256)"
      },
      {
        "astId": 7855,
        "contract": "contracts/PathwayNFT.sol:PathwayNFT",
        "label": "reviewerVotes",
        "offset": 0,
        "slot": "27",
        "type": "t_mapping(t_string_memory_ptr,t_mapping(t_address,t_bool))"
      },
      {
        "astId": 7859,
        "contract": "contracts/PathwayNFT.sol:PathwayNFT",
        "label": "nativeRewards",
        "offset": 0,
        "slot": "28",
        "type": "t_mapping(t_string_memory_ptr,t_uint256)"
      },
      {
        "astId": 7865,
        "contract": "contracts/PathwayNFT.sol:PathwayNFT",
        "label": "erc20Amounts",
        "offset": 0,
        "slot": "29",
        "type": "t_mapping(t_string_memory_ptr,t_mapping(t_address,t_uint256))"
      },
      {
        "astId": 7869,
        "contract": "contracts/PathwayNFT.sol:PathwayNFT",
        "label": "nativeRefundClaimed",
        "offset": 0,
        "slot": "30",
        "type": "t_mapping(t_string_memory_ptr,t_bool)"
      },
      {
        "astId": 7875,
        "contract": "contracts/PathwayNFT.sol:PathwayNFT",
        "label": "erc20RefundClaimed",
        "offset": 0,
        "slot": "31",
        "type": "t_mapping(t_string_memory_ptr,t_mapping(t_address,t_bool))"
      },
      {
        "astId": 7879,
        "contract": "contracts/PathwayNFT.sol:PathwayNFT",
        "label": "numUsersRewardPerPathway",
        "offset": 0,
        "slot": "32",
        "type": "t_mapping(t_string_memory_ptr,t_uint256)"
      },
      {
        "astId": 7883,
        "contract": "contracts/PathwayNFT.sol:PathwayNFT",
        "label": "currentNumUsersRewardPerPathwayNative",
        "offset": 0,
        "slot": "33",
        "type": "t_mapping(t_string_memory_ptr,t_uint256)"
      },
      {
        "astId": 7889,
        "contract": "contracts/PathwayNFT.sol:PathwayNFT",
        "label": "currentNumUsersRewardPerPathwayERC20",
        "offset": 0,
        "slot": "34",
        "type": "t_mapping(t_string_memory_ptr,t_mapping(t_address,t_uint256))"
      },
      {
        "astId": 7895,
        "contract": "contracts/PathwayNFT.sol:PathwayNFT",
        "label": "nonces",
        "offset": 0,
        "slot": "35",
        "type": "t_mapping(t_string_memory_ptr,t_mapping(t_address,t_uint256))"
      },
      {
        "astId": 7899,
        "contract": "contracts/PathwayNFT.sol:PathwayNFT",
        "label": "adventurerAddress",
        "offset": 0,
        "slot": "36",
        "type": "t_mapping(t_string_memory_ptr,t_address)"
      },
      {
        "astId": 7907,
        "contract": "contracts/PathwayNFT.sol:PathwayNFT",
        "label": "mintTrackerByPathwayIdVersionMinter",
        "offset": 0,
        "slot": "37",
        "type": "t_mapping(t_string_memory_ptr,t_mapping(t_uint256,t_mapping(t_address,t_bool)))"
      },
      {
        "astId": 7914,
        "contract": "contracts/PathwayNFT.sol:PathwayNFT",
        "label": "allMintersPerPathwayAndVersion",
        "offset": 0,
        "slot": "38",
        "type": "t_mapping(t_string_memory_ptr,t_mapping(t_uint256,t_array(t_address)dyn_storage))"
      },
      {
        "astId": 7921,
        "contract": "contracts/PathwayNFT.sol:PathwayNFT",
        "label": "allTokenIdsPerPathwayAndVersion",
        "offset": 0,
        "slot": "39",
        "type": "t_mapping(t_string_memory_ptr,t_mapping(t_uint256,t_array(t_uint256)dyn_storage))"
      },
      {
        "astId": 7926,
        "contract": "contracts/PathwayNFT.sol:PathwayNFT",
        "label": "tokenInfoById",
        "offset": 0,
        "slot": "40",
        "type": "t_mapping(t_uint256,t_struct(TokenInfo)7956_storage)"
      },
      {
        "astId": 7934,
        "contract": "contracts/PathwayNFT.sol:PathwayNFT",
        "label": "userRewardedForPathwayERC20",
        "offset": 0,
        "slot": "41",
        "type": "t_mapping(t_string_memory_ptr,t_mapping(t_address,t_mapping(t_address,t_bool)))"
      },
      {
        "astId": 7940,
        "contract": "contracts/PathwayNFT.sol:PathwayNFT",
        "label": "userRewardedForPathwayNative",
        "offset": 0,
        "slot": "42",
        "type": "t_mapping(t_string_memory_ptr,t_mapping(t_address,t_bool))"
      },
      {
        "astId": 7943,
        "contract": "contracts/PathwayNFT.sol:PathwayNFT",
        "label": "fee",
        "offset": 0,
        "slot": "43",
        "type": "t_uint256"
      },
      {
        "astId": 7946,
        "contract": "contracts/PathwayNFT.sol:PathwayNFT",
        "label": "creatorFee",
        "offset": 0,
        "slot": "44",
        "type": "t_uint256"
      }
    ],
    "types": {
      "t_address": {
        "encoding": "inplace",
        "label": "address",
        "numberOfBytes": "20"
      },
      "t_array(t_address)dyn_storage": {
        "base": "t_address",
        "encoding": "dynamic_array",
        "label": "address[]",
        "numberOfBytes": "32"
      },
      "t_array(t_uint256)dyn_storage": {
        "base": "t_uint256",
        "encoding": "dynamic_array",
        "label": "uint256[]",
        "numberOfBytes": "32"
      },
      "t_array(t_uint8)dyn_storage": {
        "base": "t_uint8",
        "encoding": "dynamic_array",
        "label": "uint8[]",
        "numberOfBytes": "32"
      },
      "t_bool": {
        "encoding": "inplace",
        "label": "bool",
        "numberOfBytes": "1"
      },
      "t_contract(RandomNumberConsumer)12098": {
        "encoding": "inplace",
        "label": "contract RandomNumberConsumer",
        "numberOfBytes": "20"
      },
      "t_contract(Verify)12759": {
        "encoding": "inplace",
        "label": "contract Verify",
        "numberOfBytes": "20"
      },
      "t_enum(PathwayStatus)7951": {
        "encoding": "inplace",
        "label": "enum PathwayNFT.PathwayStatus",
        "numberOfBytes": "1"
      },
      "t_mapping(t_address,t_bool)": {
        "encoding": "mapping",
        "key": "t_address",
        "label": "mapping(address => bool)",
        "numberOfBytes": "32",
        "value": "t_bool"
      },
      "t_mapping(t_address,t_mapping(t_address,t_bool))": {
        "encoding": "mapping",
        "key": "t_address",
        "label": "mapping(address => mapping(address => bool))",
        "numberOfBytes": "32",
        "value": "t_mapping(t_address,t_bool)"
      },
      "t_mapping(t_address,t_mapping(t_uint256,t_uint256))": {
        "encoding": "mapping",
        "key": "t_address",
        "label": "mapping(address => mapping(uint256 => uint256))",
        "numberOfBytes": "32",
        "value": "t_mapping(t_uint256,t_uint256)"
      },
      "t_mapping(t_address,t_uint256)": {
        "encoding": "mapping",
        "key": "t_address",
        "label": "mapping(address => uint256)",
        "numberOfBytes": "32",
        "value": "t_uint256"
      },
      "t_mapping(t_string_memory_ptr,t_address)": {
        "encoding": "mapping",
        "key": "t_string_memory_ptr",
        "label": "mapping(string => address)",
        "numberOfBytes": "32",
        "value": "t_address"
      },
      "t_mapping(t_string_memory_ptr,t_array(t_address)dyn_storage)": {
        "encoding": "mapping",
        "key": "t_string_memory_ptr",
        "label": "mapping(string => address[])",
        "numberOfBytes": "32",
        "value": "t_array(t_address)dyn_storage"
      },
      "t_mapping(t_string_memory_ptr,t_bool)": {
        "encoding": "mapping",
        "key": "t_string_memory_ptr",
        "label": "mapping(string => bool)",
        "numberOfBytes": "32",
        "value": "t_bool"
      },
      "t_mapping(t_string_memory_ptr,t_enum(PathwayStatus)7951)": {
        "encoding": "mapping",
        "key": "t_string_memory_ptr",
        "label": "mapping(string => enum PathwayNFT.PathwayStatus)",
        "numberOfBytes": "32",
        "value": "t_enum(PathwayStatus)7951"
      },
      "t_mapping(t_string_memory_ptr,t_mapping(t_address,t_bool))": {
        "encoding": "mapping",
        "key": "t_string_memory_ptr",
        "label": "mapping(string => mapping(address => bool))",
        "numberOfBytes": "32",
        "value": "t_mapping(t_address,t_bool)"
      },
      "t_mapping(t_string_memory_ptr,t_mapping(t_address,t_mapping(t_address,t_bool)))": {
        "encoding": "mapping",
        "key": "t_string_memory_ptr",
        "label": "mapping(string => mapping(address => mapping(address => bool)))",
        "numberOfBytes": "32",
        "value": "t_mapping(t_address,t_mapping(t_address,t_bool))"
      },
      "t_mapping(t_string_memory_ptr,t_mapping(t_address,t_uint256))": {
        "encoding": "mapping",
        "key": "t_string_memory_ptr",
        "label": "mapping(string => mapping(address => uint256))",
        "numberOfBytes": "32",
        "value": "t_mapping(t_address,t_uint256)"
      },
      "t_mapping(t_string_memory_ptr,t_mapping(t_uint256,t_array(t_address)dyn_storage))": {
        "encoding": "mapping",
        "key": "t_string_memory_ptr",
        "label": "mapping(string => mapping(uint256 => address[]))",
        "numberOfBytes": "32",
        "value": "t_mapping(t_uint256,t_array(t_address)dyn_storage)"
      },
      "t_mapping(t_string_memory_ptr,t_mapping(t_uint256,t_array(t_uint256)dyn_storage))": {
        "encoding": "mapping",
        "key": "t_string_memory_ptr",
        "label": "mapping(string => mapping(uint256 => uint256[]))",
        "numberOfBytes": "32",
        "value": "t_mapping(t_uint256,t_array(t_uint256)dyn_storage)"
      },
      "t_mapping(t_string_memory_ptr,t_mapping(t_uint256,t_mapping(t_address,t_bool)))": {
        "encoding": "mapping",
        "key": "t_string_memory_ptr",
        "label": "mapping(string => mapping(uint256 => mapping(address => bool)))",
        "numberOfBytes": "32",
        "value": "t_mapping(t_uint256,t_mapping(t_address,t_bool))"
      },
      "t_mapping(t_string_memory_ptr,t_string_storage)": {
        "encoding": "mapping",
        "key": "t_string_memory_ptr",
        "label": "mapping(string => string)",
        "numberOfBytes": "32",
        "value": "t_string_storage"
      },
      "t_mapping(t_string_memory_ptr,t_uint256)": {
        "encoding": "mapping",
        "key": "t_string_memory_ptr",
        "label": "mapping(string => uint256)",
        "numberOfBytes": "32",
        "value": "t_uint256"
      },
      "t_mapping(t_uint256,t_address)": {
        "encoding": "mapping",
        "key": "t_uint256",
        "label": "mapping(uint256 => address)",
        "numberOfBytes": "32",
        "value": "t_address"
      },
      "t_mapping(t_uint256,t_array(t_address)dyn_storage)": {
        "encoding": "mapping",
        "key": "t_uint256",
        "label": "mapping(uint256 => address[])",
        "numberOfBytes": "32",
        "value": "t_array(t_address)dyn_storage"
      },
      "t_mapping(t_uint256,t_array(t_uint256)dyn_storage)": {
        "encoding": "mapping",
        "key": "t_uint256",
        "label": "mapping(uint256 => uint256[])",
        "numberOfBytes": "32",
        "value": "t_array(t_uint256)dyn_storage"
      },
      "t_mapping(t_uint256,t_mapping(t_address,t_bool))": {
        "encoding": "mapping",
        "key": "t_uint256",
        "label": "mapping(uint256 => mapping(address => bool))",
        "numberOfBytes": "32",
        "value": "t_mapping(t_address,t_bool)"
      },
      "t_mapping(t_uint256,t_string_storage)": {
        "encoding": "mapping",
        "key": "t_uint256",
        "label": "mapping(uint256 => string)",
        "numberOfBytes": "32",
        "value": "t_string_storage"
      },
      "t_mapping(t_uint256,t_struct(TokenInfo)7956_storage)": {
        "encoding": "mapping",
        "key": "t_uint256",
        "label": "mapping(uint256 => struct PathwayNFT.TokenInfo)",
        "numberOfBytes": "32",
        "value": "t_struct(TokenInfo)7956_storage"
      },
      "t_mapping(t_uint256,t_uint256)": {
        "encoding": "mapping",
        "key": "t_uint256",
        "label": "mapping(uint256 => uint256)",
        "numberOfBytes": "32",
        "value": "t_uint256"
      },
      "t_string_memory_ptr": {
        "encoding": "bytes",
        "label": "string",
        "numberOfBytes": "32"
      },
      "t_string_storage": {
        "encoding": "bytes",
        "label": "string",
        "numberOfBytes": "32"
      },
      "t_struct(Counter)4182_storage": {
        "encoding": "inplace",
        "label": "struct Counters.Counter",
        "members": [
          {
            "astId": 4181,
            "contract": "contracts/PathwayNFT.sol:PathwayNFT",
            "label": "_value",
            "offset": 0,
            "slot": "0",
            "type": "t_uint256"
          }
        ],
        "numberOfBytes": "32"
      },
      "t_struct(TokenInfo)7956_storage": {
        "encoding": "inplace",
        "label": "struct PathwayNFT.TokenInfo",
        "members": [
          {
            "astId": 7953,
            "contract": "contracts/PathwayNFT.sol:PathwayNFT",
            "label": "pathwayId",
            "offset": 0,
            "slot": "0",
            "type": "t_string_storage"
          },
          {
            "astId": 7955,
            "contract": "contracts/PathwayNFT.sol:PathwayNFT",
            "label": "version",
            "offset": 0,
            "slot": "1",
            "type": "t_uint256"
          }
        ],
        "numberOfBytes": "64"
      },
      "t_uint256": {
        "encoding": "inplace",
        "label": "uint256",
        "numberOfBytes": "32"
      },
      "t_uint8": {
        "encoding": "inplace",
        "label": "uint8",
        "numberOfBytes": "1"
      }
    }
  }
}