{
  "address": "0x957D80345b681350f0D1B3F8cC3938cb99B655Dc",
  "abi": [
    {
      "inputs": [
        {
          "internalType": "address payable",
          "name": "_walletAddress",
          "type": "address"
        },
        {
          "internalType": "address[]",
          "name": "_reviewers",
          "type": "address[]"
        },
        {
          "internalType": "uint128",
          "name": "_initialThreshold",
          "type": "uint128"
        }
      ],
      "stateMutability": "nonpayable",
      "type": "constructor"
    },
    {
      "anonymous": false,
      "inputs": [
        {
          "indexed": true,
          "internalType": "address",
          "name": "owner",
          "type": "address"
        },
        {
          "indexed": true,
          "internalType": "address",
          "name": "approved",
          "type": "address"
        },
        {
          "indexed": true,
          "internalType": "uint256",
          "name": "tokenId",
          "type": "uint256"
        }
      ],
      "name": "Approval",
      "type": "event"
    },
    {
      "anonymous": false,
      "inputs": [
        {
          "indexed": true,
          "internalType": "address",
          "name": "owner",
          "type": "address"
        },
        {
          "indexed": true,
          "internalType": "address",
          "name": "operator",
          "type": "address"
        },
        {
          "indexed": false,
          "internalType": "bool",
          "name": "approved",
          "type": "bool"
        }
      ],
      "name": "ApprovalForAll",
      "type": "event"
    },
    {
      "anonymous": false,
      "inputs": [
        {
          "indexed": true,
          "internalType": "address",
          "name": "_to",
          "type": "address"
        },
        {
          "indexed": true,
          "internalType": "string",
          "name": "_tokenURI",
          "type": "string"
        },
        {
          "indexed": true,
          "internalType": "string",
          "name": "_questId",
          "type": "string"
        }
      ],
      "name": "NFTProjectMinted",
      "type": "event"
    },
    {
      "anonymous": false,
      "inputs": [
        {
          "indexed": true,
          "internalType": "address",
          "name": "previousOwner",
          "type": "address"
        },
        {
          "indexed": true,
          "internalType": "address",
          "name": "newOwner",
          "type": "address"
        }
      ],
      "name": "OwnershipTransferred",
      "type": "event"
    },
    {
      "anonymous": false,
      "inputs": [
        {
          "indexed": true,
          "internalType": "string",
          "name": "_projectId",
          "type": "string"
        }
      ],
      "name": "ProjectApproved",
      "type": "event"
    },
    {
      "anonymous": false,
      "inputs": [
        {
          "indexed": false,
          "internalType": "address",
          "name": "_caller",
          "type": "address"
        },
        {
          "indexed": false,
          "internalType": "uint256",
          "name": "_value",
          "type": "uint256"
        }
      ],
      "name": "ReceiveCalled",
      "type": "event"
    },
    {
      "anonymous": false,
      "inputs": [
        {
          "indexed": true,
          "internalType": "address",
          "name": "from",
          "type": "address"
        },
        {
          "indexed": true,
          "internalType": "address",
          "name": "to",
          "type": "address"
        },
        {
          "indexed": true,
          "internalType": "uint256",
          "name": "tokenId",
          "type": "uint256"
        }
      ],
      "name": "Transfer",
      "type": "event"
    },
    {
      "inputs": [
        {
          "internalType": "address",
          "name": "_reviewer",
          "type": "address"
        }
      ],
      "name": "addReviewer",
      "outputs": [],
      "stateMutability": "nonpayable",
      "type": "function"
    },
    {
      "inputs": [
        {
          "internalType": "address",
          "name": "to",
          "type": "address"
        },
        {
          "internalType": "uint256",
          "name": "tokenId",
          "type": "uint256"
        }
      ],
      "name": "approve",
      "outputs": [],
      "stateMutability": "nonpayable",
      "type": "function"
    },
    {
      "inputs": [
        {
          "internalType": "address",
          "name": "owner",
          "type": "address"
        }
      ],
      "name": "balanceOf",
      "outputs": [
        {
          "internalType": "uint256",
          "name": "",
          "type": "uint256"
        }
      ],
      "stateMutability": "view",
      "type": "function"
    },
    {
      "inputs": [
        {
          "internalType": "uint32[]",
          "name": "firstURIParts",
          "type": "uint32[]"
        },
        {
          "internalType": "uint256[]",
          "name": "secondURIParts",
          "type": "uint256[]"
        },
        {
          "internalType": "string",
          "name": "_projectId",
          "type": "string"
        }
      ],
      "name": "createToken",
      "outputs": [
        {
          "internalType": "uint256[]",
          "name": "",
          "type": "uint256[]"
        }
      ],
      "stateMutability": "nonpayable",
      "type": "function"
    },
    {
      "inputs": [
        {
          "internalType": "uint256",
          "name": "tokenId",
          "type": "uint256"
        }
      ],
      "name": "getApproved",
      "outputs": [
        {
          "internalType": "address",
          "name": "",
          "type": "address"
        }
      ],
      "stateMutability": "view",
      "type": "function"
    },
    {
      "inputs": [
        {
          "internalType": "string",
          "name": "_projectId",
          "type": "string"
        }
      ],
      "name": "getContributors",
      "outputs": [
        {
          "internalType": "address[]",
          "name": "",
          "type": "address[]"
        }
      ],
      "stateMutability": "view",
      "type": "function"
    },
    {
      "inputs": [
        {
          "internalType": "address",
          "name": "owner",
          "type": "address"
        },
        {
          "internalType": "address",
          "name": "operator",
          "type": "address"
        }
      ],
      "name": "isApprovedForAll",
      "outputs": [
        {
          "internalType": "bool",
          "name": "",
          "type": "bool"
        }
      ],
      "stateMutability": "view",
      "type": "function"
    },
    {
      "inputs": [],
      "name": "multiSigThreshold",
      "outputs": [
        {
          "internalType": "uint128",
          "name": "",
          "type": "uint128"
        }
      ],
      "stateMutability": "view",
      "type": "function"
    },
    {
      "inputs": [],
      "name": "name",
      "outputs": [
        {
          "internalType": "string",
          "name": "",
          "type": "string"
        }
      ],
      "stateMutability": "view",
      "type": "function"
    },
    {
      "inputs": [],
      "name": "numReviewers",
      "outputs": [
        {
          "internalType": "uint128",
          "name": "",
          "type": "uint128"
        }
      ],
      "stateMutability": "view",
      "type": "function"
    },
    {
      "inputs": [],
      "name": "owner",
      "outputs": [
        {
          "internalType": "address",
          "name": "",
          "type": "address"
        }
      ],
      "stateMutability": "view",
      "type": "function"
    },
    {
      "inputs": [
        {
          "internalType": "uint256",
          "name": "tokenId",
          "type": "uint256"
        }
      ],
      "name": "ownerOf",
      "outputs": [
        {
          "internalType": "address",
          "name": "",
          "type": "address"
        }
      ],
      "stateMutability": "view",
      "type": "function"
    },
    {
      "inputs": [
        {
          "internalType": "string",
          "name": "",
          "type": "string"
        }
      ],
      "name": "projectMinted",
      "outputs": [
        {
          "internalType": "bool",
          "name": "",
          "type": "bool"
        }
      ],
      "stateMutability": "view",
      "type": "function"
    },
    {
      "inputs": [
        {
          "internalType": "string",
          "name": "",
          "type": "string"
        }
      ],
      "name": "projectThresholds",
      "outputs": [
        {
          "internalType": "uint256",
          "name": "",
          "type": "uint256"
        }
      ],
      "stateMutability": "view",
      "type": "function"
    },
    {
      "inputs": [],
      "name": "renounceOwnership",
      "outputs": [],
      "stateMutability": "nonpayable",
      "type": "function"
    },
    {
      "inputs": [
        {
          "internalType": "string",
          "name": "",
          "type": "string"
        },
        {
          "internalType": "address",
          "name": "",
          "type": "address"
        }
      ],
      "name": "reviewerVotes",
      "outputs": [
        {
          "internalType": "bool",
          "name": "",
          "type": "bool"
        }
      ],
      "stateMutability": "view",
      "type": "function"
    },
    {
      "inputs": [
        {
          "internalType": "address",
          "name": "",
          "type": "address"
        }
      ],
      "name": "reviewers",
      "outputs": [
        {
          "internalType": "bool",
          "name": "",
          "type": "bool"
        }
      ],
      "stateMutability": "view",
      "type": "function"
    },
    {
      "inputs": [
        {
          "internalType": "address",
          "name": "from",
          "type": "address"
        },
        {
          "internalType": "address",
          "name": "to",
          "type": "address"
        },
        {
          "internalType": "uint256",
          "name": "tokenId",
          "type": "uint256"
        }
      ],
      "name": "safeTransferFrom",
      "outputs": [],
      "stateMutability": "nonpayable",
      "type": "function"
    },
    {
      "inputs": [
        {
          "internalType": "address",
          "name": "from",
          "type": "address"
        },
        {
          "internalType": "address",
          "name": "to",
          "type": "address"
        },
        {
          "internalType": "uint256",
          "name": "tokenId",
          "type": "uint256"
        },
        {
          "internalType": "bytes",
          "name": "_data",
          "type": "bytes"
        }
      ],
      "name": "safeTransferFrom",
      "outputs": [],
      "stateMutability": "nonpayable",
      "type": "function"
    },
    {
      "inputs": [
        {
          "internalType": "address",
          "name": "operator",
          "type": "address"
        },
        {
          "internalType": "bool",
          "name": "approved",
          "type": "bool"
        }
      ],
      "name": "setApprovalForAll",
      "outputs": [],
      "stateMutability": "nonpayable",
      "type": "function"
    },
    {
      "inputs": [
        {
          "internalType": "uint128",
          "name": "_newThreshold",
          "type": "uint128"
        }
      ],
      "name": "setThreshold",
      "outputs": [],
      "stateMutability": "nonpayable",
      "type": "function"
    },
    {
      "inputs": [
        {
          "internalType": "string",
          "name": "",
          "type": "string"
        }
      ],
      "name": "status",
      "outputs": [
        {
          "internalType": "enum ProjectNFT.ProjectStatus",
          "name": "",
          "type": "uint8"
        }
      ],
      "stateMutability": "view",
      "type": "function"
    },
    {
      "inputs": [
        {
          "internalType": "bytes4",
          "name": "interfaceId",
          "type": "bytes4"
        }
      ],
      "name": "supportsInterface",
      "outputs": [
        {
          "internalType": "bool",
          "name": "",
          "type": "bool"
        }
      ],
      "stateMutability": "view",
      "type": "function"
    },
    {
      "inputs": [],
      "name": "symbol",
      "outputs": [
        {
          "internalType": "string",
          "name": "",
          "type": "string"
        }
      ],
      "stateMutability": "view",
      "type": "function"
    },
    {
      "inputs": [
        {
          "internalType": "uint256",
          "name": "tokenId",
          "type": "uint256"
        }
      ],
      "name": "tokenURI",
      "outputs": [
        {
          "internalType": "string",
          "name": "",
          "type": "string"
        }
      ],
      "stateMutability": "view",
      "type": "function"
    },
    {
      "inputs": [
        {
          "internalType": "address",
          "name": "from",
          "type": "address"
        },
        {
          "internalType": "address",
          "name": "to",
          "type": "address"
        },
        {
          "internalType": "uint256",
          "name": "tokenId",
          "type": "uint256"
        }
      ],
      "name": "transferFrom",
      "outputs": [],
      "stateMutability": "nonpayable",
      "type": "function"
    },
    {
      "inputs": [
        {
          "internalType": "address",
          "name": "newOwner",
          "type": "address"
        }
      ],
      "name": "transferOwnership",
      "outputs": [],
      "stateMutability": "nonpayable",
      "type": "function"
    },
    {
      "inputs": [
        {
          "internalType": "address[]",
          "name": "_contributors",
          "type": "address[]"
        },
        {
          "internalType": "uint256",
          "name": "_threshold",
          "type": "uint256"
        },
        {
          "internalType": "string",
          "name": "_projectId",
          "type": "string"
        }
      ],
      "name": "voteForApproval",
      "outputs": [],
      "stateMutability": "nonpayable",
      "type": "function"
    },
    {
      "inputs": [
        {
          "internalType": "string",
          "name": "",
          "type": "string"
        }
      ],
      "name": "votes",
      "outputs": [
        {
          "internalType": "uint256",
          "name": "",
          "type": "uint256"
        }
      ],
      "stateMutability": "view",
      "type": "function"
    },
    {
      "stateMutability": "payable",
      "type": "receive"
    }
  ],
  "transactionHash": "0x3ce69d6adab980d18d27cf0e72d54e1b29a17ad2a307ed50a49b21ab269d7bad",
  "args": [
    "0x7E13623dd5D070967c8568066bE81a3E5bF75226",
    [
      "0x7E13623dd5D070967c8568066bE81a3E5bF75226",
      "0xA072f8Bd3847E21C8EdaAf38D7425631a2A63631",
      "0x2c0B08C414A8EE088596832cf64eFcA283D46703",
      "0x16eBE01dCae1338f8d1802C63712C5279e768d29",
      "0x3E31155a1c17c9F85e74828447aec412090a4622",
      "0x4678854dB7421fF1B3C5ACAe6c5C11e73f4F5702",
      "0xDAFf97a69408Cdb4AeFE331eA029a55e189ef60b"
    ],
    10
  ],
  "solcInputHash": "de359c237d0d54cc6937fee2fd098a83",
  "bytecode": "0x60806040523480156200001157600080fd5b50604051620034823803806200348283398101604081905262000034916200041b565b604080518082018252600f81526e1910dbdb5c185cdcd41c9bda9958dd608a1b6020808301918252835180850190945260088452672221a7a6a82927a560c11b9084015281519192916200008b916000916200034b565b508051620000a19060019060208401906200034b565b505050620000be620000b8620002f560201b60201c565b620002f9565b6000825111620001155760405162461bcd60e51b815260206004820152601d60248201527f4d7573742068617665206174206c65617374203120726576696577657200000060448201526064015b60405180910390fd5b6000816001600160801b03161180156200013957506064816001600160801b031611155b6200017b5760405162461bcd60e51b81526020600482015260116024820152701a5b9d985b1a59081d1a1c995cda1bdb19607a1b60448201526064016200010c565b600b80546001600160801b0319166001600160801b038316179055600c80546001600160a01b0319166001600160a01b03851617905560005b8251811015620002eb5760006001600160a01b0316838281518110620001de57620001de620005ba565b60200260200101516001600160a01b0316141580156200023b5750600a6000848381518110620002125762000212620005ba565b6020908102919091018101516001600160a01b031682528101919091526040016000205460ff16155b15620002d6576001600a60008584815181106200025c576200025c620005ba565b6020908102919091018101516001600160a01b03168252810191909152604001600020805460ff1916911515919091179055600b8054600160801b90046001600160801b0316906010620002b0836200055c565b91906101000a8154816001600160801b0302191690836001600160801b03160217905550505b80620002e28162000586565b915050620001b4565b50505050620005ff565b3390565b600780546001600160a01b038381166001600160a01b0319831681179093556040519116919082907f8be0079c531659141344cd1fd0a4f28419497f9722a3daafe3b4186f6b6457e090600090a35050565b82805462000359906200051f565b90600052602060002090601f0160209004810192826200037d5760008555620003c8565b82601f106200039857805160ff1916838001178555620003c8565b82800160010185558215620003c8579182015b82811115620003c8578251825591602001919060010190620003ab565b50620003d6929150620003da565b5090565b5b80821115620003d65760008155600101620003db565b8051620003fe81620005e6565b919050565b80516001600160801b0381168114620003fe57600080fd5b6000806000606084860312156200043157600080fd5b83516200043e81620005e6565b602085810151919450906001600160401b03808211156200045e57600080fd5b818701915087601f8301126200047357600080fd5b815181811115620004885762000488620005d0565b8060051b604051601f19603f83011681018181108582111715620004b057620004b0620005d0565b604052828152858101935084860182860187018c1015620004d057600080fd5b600095505b83861015620004fe57620004e981620003f1565b855260019590950194938601938601620004d5565b50809750505050505050620005166040850162000403565b90509250925092565b600181811c908216806200053457607f821691505b602082108114156200055657634e487b7160e01b600052602260045260246000fd5b50919050565b60006001600160801b03828116808214156200057c576200057c620005a4565b6001019392505050565b60006000198214156200059d576200059d620005a4565b5060010190565b634e487b7160e01b600052601160045260246000fd5b634e487b7160e01b600052603260045260246000fd5b634e487b7160e01b600052604160045260246000fd5b6001600160a01b0381168114620005fc57600080fd5b50565b612e73806200060f6000396000f3fe6080604052600436106101c65760003560e01c80638da5cb5b116100f7578063b2f3f80c11610095578063e8ca64f411610064578063e8ca64f414610600578063e985e9c514610648578063f2fde38b14610691578063f7cbb1b2146106b157600080fd5b8063b2f3f80c14610561578063b88d4fde14610588578063b99ef1fa146105a8578063c87b56dd146105e057600080fd5b8063a22cb465116100d1578063a22cb465146104c7578063a479030b146104e7578063aaa545d014610514578063b03e4dd51461054157600080fd5b80638da5cb5b1461044957806395d89b41146104675780639e1b567c1461047c57600080fd5b806342842e0e1161016457806370a082311161013e57806370a08231146103b9578063715018a6146103d957806373a82b5f146103ee57806382171fbe1461040e57600080fd5b806342842e0e146103415780634badfeb2146103615780636352211e1461039957600080fd5b8063095ea7b3116101a0578063095ea7b3146102995780631e97aa5c146102bb57806323b872dd146102db57806338b686cb146102fb57600080fd5b806301ffc9a71461020a57806306fdde031461023f578063081812fc1461026157600080fd5b3661020557604080513381523460208201527f64c983f10188c30a885d77970aa5aae9a86e80ef9b459ad33cc620eb5999e070910160405180910390a1005b600080fd5b34801561021657600080fd5b5061022a610225366004612839565b6106e1565b60405190151581526020015b60405180910390f35b34801561024b57600080fd5b50610254610733565b6040516102369190612ad6565b34801561026d57600080fd5b5061028161027c366004612916565b6107c5565b6040516001600160a01b039091168152602001610236565b3480156102a557600080fd5b506102b96102b4366004612660565b610852565b005b3480156102c757600080fd5b506102b96102d636600461268a565b610968565b3480156102e757600080fd5b506102b96102f636600461256c565b610eaa565b34801561030757600080fd5b50610333610316366004612873565b805160208183018101805160128252928201919093012091525481565b604051908152602001610236565b34801561034d57600080fd5b506102b961035c36600461256c565b610edb565b34801561036d57600080fd5b50600b54610381906001600160801b031681565b6040516001600160801b039091168152602001610236565b3480156103a557600080fd5b506102816103b4366004612916565b610ef6565b3480156103c557600080fd5b506103336103d436600461251e565b610f6d565b3480156103e557600080fd5b506102b9610ff4565b3480156103fa57600080fd5b506102b961040936600461251e565b61105a565b34801561041a57600080fd5b5061022a610429366004612873565b805160208183018101805160118252928201919093012091525460ff1681565b34801561045557600080fd5b506007546001600160a01b0316610281565b34801561047357600080fd5b50610254611151565b34801561048857600080fd5b5061022a6104973660046128a8565b81516020818401810180516010825292820194820194909420919093529091526000908152604090205460ff1681565b3480156104d357600080fd5b506102b96104e2366004612624565b611160565b3480156104f357600080fd5b5061050761050236600461275a565b611225565b6040516102369190612a76565b34801561052057600080fd5b5061053461052f366004612873565b6115ec565b6040516102369190612a29565b34801561054d57600080fd5b506102b961055c3660046128ed565b611666565b34801561056d57600080fd5b50600b5461038190600160801b90046001600160801b031681565b34801561059457600080fd5b506102b96105a33660046125a8565b611723565b3480156105b457600080fd5b506103336105c3366004612873565b8051602081830181018051600f8252928201919093012091525481565b3480156105ec57600080fd5b506102546105fb366004612916565b611755565b34801561060c57600080fd5b5061063b61061b366004612873565b8051602081830181018051600e8252928201919093012091525460ff1681565b6040516102369190612aae565b34801561065457600080fd5b5061022a610663366004612539565b6001600160a01b03918216600090815260056020908152604080832093909416825291909152205460ff1690565b34801561069d57600080fd5b506102b96106ac36600461251e565b6118cc565b3480156106bd57600080fd5b5061022a6106cc36600461251e565b600a6020526000908152604090205460ff1681565b60006001600160e01b031982166380ac58cd60e01b148061071257506001600160e01b03198216635b5e139f60e01b145b8061072d57506301ffc9a760e01b6001600160e01b03198316145b92915050565b60606000805461074290612d28565b80601f016020809104026020016040519081016040528092919081815260200182805461076e90612d28565b80156107bb5780601f10610790576101008083540402835291602001916107bb565b820191906000526020600020905b81548152906001019060200180831161079e57829003601f168201915b5050505050905090565b60006107d082611997565b6108365760405162461bcd60e51b815260206004820152602c60248201527f4552433732313a20617070726f76656420717565727920666f72206e6f6e657860448201526b34b9ba32b73a103a37b5b2b760a11b60648201526084015b60405180910390fd5b506000908152600460205260409020546001600160a01b031690565b600061085d82610ef6565b9050806001600160a01b0316836001600160a01b031614156108cb5760405162461bcd60e51b815260206004820152602160248201527f4552433732313a20617070726f76616c20746f2063757272656e74206f776e656044820152603960f91b606482015260840161082d565b336001600160a01b03821614806108e757506108e78133610663565b6109595760405162461bcd60e51b815260206004820152603860248201527f4552433732313a20617070726f76652063616c6c6572206973206e6f74206f7760448201527f6e6572206e6f7220617070726f76656420666f7220616c6c0000000000000000606482015260840161082d565b61096383836119b4565b505050565b336000908152600a602052604090205460ff166109975760405162461bcd60e51b815260040161082d90612ae9565b6002600e826040516109a9919061295b565b9081526040519081900360200190205460ff1660038111156109cd576109cd612de5565b14158015610a0f57506003600e826040516109e8919061295b565b9081526040519081900360200190205460ff166003811115610a0c57610a0c612de5565b14155b610a4f5760405162461bcd60e51b8152602060048201526011602482015270199a5b985b1a5e9959081c1c9bda9958dd607a1b604482015260640161082d565b601081604051610a5f919061295b565b90815260200160405180910390206000610a763390565b6001600160a01b0316815260208101919091526040016000205460ff1615610ae05760405162461bcd60e51b815260206004820152601e60248201527f616c726561647920766f74656420666f7220746869732070726f6a6563740000604482015260640161082d565b600f81604051610af0919061295b565b9081526040519081900360200190208054906000610b0d83612d8a565b91905055506001601082604051610b24919061295b565b90815260200160405180910390206000610b3b3390565b6001600160a01b0316815260208101919091526040016000908120805460ff191692151592909217909155600e82604051610b76919061295b565b9081526040519081900360200190205460ff166003811115610b9a57610b9a612de5565b1415610d85576000835111610bdf5760405162461bcd60e51b815260206004820152600b60248201526a656d70747920617272617960a81b604482015260640161082d565b600082118015610bf0575060648211155b610c305760405162461bcd60e51b81526020600482015260116024820152701a5b9d985b1a59081d1a1c995cda1bdb19607a1b604482015260640161082d565b82600d82604051610c41919061295b565b90815260200160405180910390209080519060200190610c6292919061232a565b5081601282604051610c74919061295b565b90815260405190819003602001902055600b54606490610ca6906001600160801b03600160801b820481169116612c80565b610cb09190612c46565b6001600160801b0316610d40576003600e82604051610ccf919061295b565b908152604051908190036020019020805460ff19166001836003811115610cf857610cf8612de5565b021790555080604051610d0b919061295b565b604051908190038120907fae4295c58d61bc95278d93c0ce50389c66907d23767828ed2cf0c1b0cb80483e90600090a2505050565b6001600e82604051610d52919061295b565b908152604051908190036020019020805460ff19166001836003811115610d7b57610d7b612de5565b0217905550505050565b600b54600090606490610daa906001600160801b03600160801b820481169116612c80565b610db49190612c46565b600b546001600160801b039182169250610dd891600160801b820481169116612c80565b6001600160801b0316610dec826064612caf565b1015610e005780610dfc81612d8a565b9150505b80600f83604051610e11919061295b565b90815260200160405180910390205410610ea4576003600e83604051610e37919061295b565b908152604051908190036020019020805460ff19166001836003811115610e6057610e60612de5565b021790555081604051610e73919061295b565b604051908190038120907fae4295c58d61bc95278d93c0ce50389c66907d23767828ed2cf0c1b0cb80483e90600090a25b50505050565b610eb43382611a22565b610ed05760405162461bcd60e51b815260040161082d90612b63565b610963838383611b08565b61096383838360405180602001604052806000815250611723565b6000818152600260205260408120546001600160a01b03168061072d5760405162461bcd60e51b815260206004820152602960248201527f4552433732313a206f776e657220717565727920666f72206e6f6e657869737460448201526832b73a103a37b5b2b760b91b606482015260840161082d565b60006001600160a01b038216610fd85760405162461bcd60e51b815260206004820152602a60248201527f4552433732313a2062616c616e636520717565727920666f7220746865207a65604482015269726f206164647265737360b01b606482015260840161082d565b506001600160a01b031660009081526003602052604090205490565b6007546001600160a01b0316331461104e5760405162461bcd60e51b815260206004820181905260248201527f4f776e61626c653a2063616c6c6572206973206e6f7420746865206f776e6572604482015260640161082d565b6110586000611ca8565b565b336000908152600a602052604090205460ff166110895760405162461bcd60e51b815260040161082d90612ae9565b6001600160a01b0381166000908152600a602052604090205460ff16156110e55760405162461bcd60e51b815260206004820152601060248201526f30b63932b0b23c903932bb34b2bbb2b960811b604482015260640161082d565b6001600160a01b0381166000908152600a60205260409020805460ff19166001179055600b80546001600160801b03600160801b9091041690601061112983612d63565b91906101000a8154816001600160801b0302191690836001600160801b031602179055505050565b60606001805461074290612d28565b6001600160a01b0382163314156111b95760405162461bcd60e51b815260206004820152601960248201527f4552433732313a20617070726f766520746f2063616c6c657200000000000000604482015260640161082d565b3360008181526005602090815260408083206001600160a01b03871680855290835292819020805460ff191686151590811790915590519081529192917f17307eab39ab6107e8899845ad3d59bd9653f200f220920489ca2b5937696c31910160405180910390a35050565b336000908152600a602052604090205460609060ff166112575760405162461bcd60e51b815260040161082d90612ae9565b6003600e83604051611269919061295b565b9081526040519081900360200190205460ff16600381111561128d5761128d612de5565b146112d15760405162461bcd60e51b81526020600482015260146024820152731a9bd8881b9bdd08185c1c1c9bdd9959081e595d60621b604482015260640161082d565b6011826040516112e1919061295b565b9081526040519081900360200190205460ff16156113325760405162461bcd60e51b815260206004820152600e60248201526d185b1c9958591e481b5a5b9d195960921b604482015260640161082d565b825184511480156113625750600d8260405161134e919061295b565b908152604051908190036020019020548451145b61139f5760405162461bcd60e51b815260206004820152600e60248201526d696e636f7272656374206172727360901b604482015260640161082d565b6000600d836040516113b1919061295b565b9081526040519081900360200190205467ffffffffffffffff8111156113d9576113d9612e11565b604051908082528060200260200182016040528015611402578160200160208202803683370190505b5090506000606060005b600d8660405161141c919061295b565b908152604051908190036020019020548110156115ad57611441600880546001019055565b600854925061146888828151811061145b5761145b612dfb565b6020026020010151611cfa565b61148a88838151811061147d5761147d612dfb565b6020026020010151611d9d565b60405160200161149b9291906129a6565b60405160208183030381529060405291506114f9600d876040516114bf919061295b565b908152602001604051809103902082815481106114de576114de612dfb565b6000918252602090912001546001600160a01b031684611e2e565b6115038383611f61565b85604051611511919061295b565b604051809103902082604051611527919061295b565b6040518091039020600d8860405161153f919061295b565b9081526020016040518091039020838154811061155e5761155e612dfb565b60009182526020822001546040516001600160a01b03909116917f7ae1edbeb69892774d94c2010b6183269d48e647bbfddb34d22d5aaf08dd4ad491a4806115a581612d8a565b91505061140c565b5060016011866040516115c0919061295b565b908152604051908190036020019020805491151560ff1990921691909117905550909150509392505050565b6060600d826040516115fe919061295b565b908152604080519182900360209081018320805480830285018301909352828452919083018282801561165a57602002820191906000526020600020905b81546001600160a01b0316815260019091019060200180831161163c575b50505050509050919050565b336000908152600a602052604090205460ff166116955760405162461bcd60e51b815260040161082d90612ae9565b6000816001600160801b03161180156116b857506064816001600160801b031611155b6116f85760405162461bcd60e51b81526020600482015260116024820152701a5b9d985b1a59081d1a1c995cda1bdb19607a1b604482015260640161082d565b600b80546fffffffffffffffffffffffffffffffff19166001600160801b0392909216919091179055565b61172d3383611a22565b6117495760405162461bcd60e51b815260040161082d90612b63565b610ea484848484611fec565b606061176082611997565b6117c65760405162461bcd60e51b815260206004820152603160248201527f45524337323155524953746f726167653a2055524920717565727920666f72206044820152703737b732bc34b9ba32b73a103a37b5b2b760791b606482015260840161082d565b600082815260066020526040812080546117df90612d28565b80601f016020809104026020016040519081016040528092919081815260200182805461180b90612d28565b80156118585780601f1061182d57610100808354040283529160200191611858565b820191906000526020600020905b81548152906001019060200180831161183b57829003601f168201915b50505050509050600061187660408051602081019091526000815290565b9050805160001415611889575092915050565b8151156118bb5780826040516020016118a3929190612977565b60405160208183030381529060405292505050919050565b6118c48461201f565b949350505050565b6007546001600160a01b031633146119265760405162461bcd60e51b815260206004820181905260248201527f4f776e61626c653a2063616c6c6572206973206e6f7420746865206f776e6572604482015260640161082d565b6001600160a01b03811661198b5760405162461bcd60e51b815260206004820152602660248201527f4f776e61626c653a206e6577206f776e657220697320746865207a65726f206160448201526564647265737360d01b606482015260840161082d565b61199481611ca8565b50565b6000908152600260205260409020546001600160a01b0316151590565b600081815260046020526040902080546001600160a01b0319166001600160a01b03841690811790915581906119e982610ef6565b6001600160a01b03167f8c5be1e5ebec7d5bd14f71427d1e84f3dd0314c0f7b2291e5b200ac8c7c3b92560405160405180910390a45050565b6000611a2d82611997565b611a8e5760405162461bcd60e51b815260206004820152602c60248201527f4552433732313a206f70657261746f7220717565727920666f72206e6f6e657860448201526b34b9ba32b73a103a37b5b2b760a11b606482015260840161082d565b6000611a9983610ef6565b9050806001600160a01b0316846001600160a01b03161480611ad45750836001600160a01b0316611ac9846107c5565b6001600160a01b0316145b806118c457506001600160a01b0380821660009081526005602090815260408083209388168352929052205460ff166118c4565b826001600160a01b0316611b1b82610ef6565b6001600160a01b031614611b835760405162461bcd60e51b815260206004820152602960248201527f4552433732313a207472616e73666572206f6620746f6b656e2074686174206960448201526839903737ba1037bbb760b91b606482015260840161082d565b6001600160a01b038216611be55760405162461bcd60e51b8152602060048201526024808201527f4552433732313a207472616e7366657220746f20746865207a65726f206164646044820152637265737360e01b606482015260840161082d565b611bf06000826119b4565b6001600160a01b0383166000908152600360205260408120805460019290611c19908490612cce565b90915550506001600160a01b0382166000908152600360205260408120805460019290611c47908490612c09565b909155505060008181526002602052604080822080546001600160a01b0319166001600160a01b0386811691821790925591518493918716917fddf252ad1be2c89b69c2b068fc378daa952ba7f163c4a11628f55a4df523b3ef91a4505050565b600780546001600160a01b038381166001600160a01b0319831681179093556040519116919082907f8be0079c531659141344cd1fd0a4f28419497f9722a3daafe3b4186f6b6457e090600090a35050565b60408051600880825281830190925260609160009190602082018180368337019050509050600f60085b8015611d9457611d358286166120f7565b60f81b83611d44600184612cce565b81518110611d5457611d54612dfb565b60200101906001600160f81b031916908160001a9053506001811115611d825760048563ffffffff16901c94505b80611d8c81612d11565b915050611d24565b50909392505050565b60408051818152606081810183529160009190602082018180368337019050509050600f60405b8015611d9457611dd58286166120f7565b60f81b83611de4600184612cce565b81518110611df457611df4612dfb565b60200101906001600160f81b031916908160001a9053506001811115611e1c57600485901c94505b80611e2681612d11565b915050611dc4565b6001600160a01b038216611e845760405162461bcd60e51b815260206004820181905260248201527f4552433732313a206d696e7420746f20746865207a65726f2061646472657373604482015260640161082d565b611e8d81611997565b15611eda5760405162461bcd60e51b815260206004820152601c60248201527f4552433732313a20746f6b656e20616c7265616479206d696e74656400000000604482015260640161082d565b6001600160a01b0382166000908152600360205260408120805460019290611f03908490612c09565b909155505060008181526002602052604080822080546001600160a01b0319166001600160a01b03861690811790915590518392907fddf252ad1be2c89b69c2b068fc378daa952ba7f163c4a11628f55a4df523b3ef908290a45050565b611f6a82611997565b611fcd5760405162461bcd60e51b815260206004820152602e60248201527f45524337323155524953746f726167653a2055524920736574206f66206e6f6e60448201526d32bc34b9ba32b73a103a37b5b2b760911b606482015260840161082d565b600082815260066020908152604090912082516109639284019061238f565b611ff7848484611b08565b6120038484848461211f565b610ea45760405162461bcd60e51b815260040161082d90612b11565b606061202a82611997565b61208e5760405162461bcd60e51b815260206004820152602f60248201527f4552433732314d657461646174613a2055524920717565727920666f72206e6f60448201526e3732bc34b9ba32b73a103a37b5b2b760891b606482015260840161082d565b60006120a560408051602081019091526000815290565b905060008151116120c557604051806020016040528060008152506120f0565b806120cf8461222c565b6040516020016120e0929190612977565b6040516020818303038152906040525b9392505050565b600060098260ff16116121145761210f826030612c21565b61072d565b61072d826057612c21565b60006001600160a01b0384163b1561222157604051630a85bd0160e11b81526001600160a01b0385169063150b7a02906121639033908990889088906004016129ec565b602060405180830381600087803b15801561217d57600080fd5b505af19250505080156121ad575060408051601f3d908101601f191682019092526121aa91810190612856565b60015b612207573d8080156121db576040519150601f19603f3d011682016040523d82523d6000602084013e6121e0565b606091505b5080516121ff5760405162461bcd60e51b815260040161082d90612b11565b805181602001fd5b6001600160e01b031916630a85bd0160e11b1490506118c4565b506001949350505050565b6060816122505750506040805180820190915260018152600360fc1b602082015290565b8160005b811561227a578061226481612d8a565b91506122739050600a83612c6c565b9150612254565b60008167ffffffffffffffff81111561229557612295612e11565b6040519080825280601f01601f1916602001820160405280156122bf576020820181803683370190505b5090505b84156118c4576122d4600183612cce565b91506122e1600a86612da5565b6122ec906030612c09565b60f81b81838151811061230157612301612dfb565b60200101906001600160f81b031916908160001a905350612323600a86612c6c565b94506122c3565b82805482825590600052602060002090810192821561237f579160200282015b8281111561237f57825182546001600160a01b0319166001600160a01b0390911617825560209092019160019091019061234a565b5061238b929150612403565b5090565b82805461239b90612d28565b90600052602060002090601f0160209004810192826123bd576000855561237f565b82601f106123d657805160ff191683800117855561237f565b8280016001018555821561237f579182015b8281111561237f5782518255916020019190600101906123e8565b5b8082111561238b5760008155600101612404565b600067ffffffffffffffff83111561243257612432612e11565b612445601f8401601f1916602001612bb4565b905082815283838301111561245957600080fd5b828260208301376000602084830101529392505050565b80356001600160a01b038116811461248757600080fd5b919050565b600082601f83011261249d57600080fd5b813560206124b26124ad83612be5565b612bb4565b80838252828201915082860187848660051b89010111156124d257600080fd5b60005b858110156124f1578135845292840192908401906001016124d5565b5090979650505050505050565b600082601f83011261250f57600080fd5b6120f083833560208501612418565b60006020828403121561253057600080fd5b6120f082612470565b6000806040838503121561254c57600080fd5b61255583612470565b915061256360208401612470565b90509250929050565b60008060006060848603121561258157600080fd5b61258a84612470565b925061259860208501612470565b9150604084013590509250925092565b600080600080608085870312156125be57600080fd5b6125c785612470565b93506125d560208601612470565b925060408501359150606085013567ffffffffffffffff8111156125f857600080fd5b8501601f8101871361260957600080fd5b61261887823560208401612418565b91505092959194509250565b6000806040838503121561263757600080fd5b61264083612470565b91506020830135801515811461265557600080fd5b809150509250929050565b6000806040838503121561267357600080fd5b61267c83612470565b946020939093013593505050565b60008060006060848603121561269f57600080fd5b833567ffffffffffffffff808211156126b757600080fd5b818601915086601f8301126126cb57600080fd5b813560206126db6124ad83612be5565b8083825282820191508286018b848660051b89010111156126fb57600080fd5b600096505b848710156127255761271181612470565b835260019690960195918301918301612700565b50975050870135945050604086013591508082111561274357600080fd5b50612750868287016124fe565b9150509250925092565b60008060006060848603121561276f57600080fd5b833567ffffffffffffffff8082111561278757600080fd5b818601915086601f83011261279b57600080fd5b813560206127ab6124ad83612be5565b8083825282820191508286018b848660051b89010111156127cb57600080fd5b600096505b8487101561280057803563ffffffff811681146127ec57600080fd5b8352600196909601959183019183016127d0565b509750508701359250508082111561281757600080fd5b6128238783880161248c565b9350604086013591508082111561274357600080fd5b60006020828403121561284b57600080fd5b81356120f081612e27565b60006020828403121561286857600080fd5b81516120f081612e27565b60006020828403121561288557600080fd5b813567ffffffffffffffff81111561289c57600080fd5b6118c4848285016124fe565b600080604083850312156128bb57600080fd5b823567ffffffffffffffff8111156128d257600080fd5b6128de858286016124fe565b92505061256360208401612470565b6000602082840312156128ff57600080fd5b81356001600160801b03811681146120f057600080fd5b60006020828403121561292857600080fd5b5035919050565b60008151808452612947816020860160208601612ce5565b601f01601f19169290920160200192915050565b6000825161296d818460208701612ce5565b9190910192915050565b60008351612989818460208801612ce5565b83519083019061299d818360208801612ce5565b01949350505050565b6734b833399d1797b360c11b8152600083516129c9816008850160208801612ce5565b8351908301906129e0816008840160208801612ce5565b01600801949350505050565b6001600160a01b0385811682528416602082015260408101839052608060608201819052600090612a1f9083018461292f565b9695505050505050565b6020808252825182820181905260009190848201906040850190845b81811015612a6a5783516001600160a01b031683529284019291840191600101612a45565b50909695505050505050565b6020808252825182820181905260009190848201906040850190845b81811015612a6a57835183529284019291840191600101612a92565b6020810160048310612ad057634e487b7160e01b600052602160045260246000fd5b91905290565b6020815260006120f0602083018461292f565b6020808252600e908201526d3737ba1030903932bb34b2bbb2b960911b604082015260600190565b60208082526032908201527f4552433732313a207472616e7366657220746f206e6f6e20455243373231526560408201527131b2b4bb32b91034b6b83632b6b2b73a32b960711b606082015260800190565b60208082526031908201527f4552433732313a207472616e736665722063616c6c6572206973206e6f74206f6040820152701ddb995c881b9bdc88185c1c1c9bdd9959607a1b606082015260800190565b604051601f8201601f1916810167ffffffffffffffff81118282101715612bdd57612bdd612e11565b604052919050565b600067ffffffffffffffff821115612bff57612bff612e11565b5060051b60200190565b60008219821115612c1c57612c1c612db9565b500190565b600060ff821660ff84168060ff03821115612c3e57612c3e612db9565b019392505050565b60006001600160801b0380841680612c6057612c60612dcf565b92169190910492915050565b600082612c7b57612c7b612dcf565b500490565b60006001600160801b0380831681851681830481118215151615612ca657612ca6612db9565b02949350505050565b6000816000190483118215151615612cc957612cc9612db9565b500290565b600082821015612ce057612ce0612db9565b500390565b60005b83811015612d00578181015183820152602001612ce8565b83811115610ea45750506000910152565b600081612d2057612d20612db9565b506000190190565b600181811c90821680612d3c57607f821691505b60208210811415612d5d57634e487b7160e01b600052602260045260246000fd5b50919050565b60006001600160801b0380831681811415612d8057612d80612db9565b6001019392505050565b6000600019821415612d9e57612d9e612db9565b5060010190565b600082612db457612db4612dcf565b500690565b634e487b7160e01b600052601160045260246000fd5b634e487b7160e01b600052601260045260246000fd5b634e487b7160e01b600052602160045260246000fd5b634e487b7160e01b600052603260045260246000fd5b634e487b7160e01b600052604160045260246000fd5b6001600160e01b03198116811461199457600080fdfea26469706673582212201eb194caf3bee8b9a969f4b4e1cfa76a1d234973a5c9d2372f65b10c69f42b9664736f6c63430008070033",
  "devdoc": {
    "kind": "dev",
    "methods": {
      "approve(address,uint256)": {
        "details": "See {IERC721-approve}."
      },
      "balanceOf(address)": {
        "details": "See {IERC721-balanceOf}."
      },
      "getApproved(uint256)": {
        "details": "See {IERC721-getApproved}."
      },
      "isApprovedForAll(address,address)": {
        "details": "See {IERC721-isApprovedForAll}."
      },
      "name()": {
        "details": "See {IERC721Metadata-name}."
      },
      "owner()": {
        "details": "Returns the address of the current owner."
      },
      "ownerOf(uint256)": {
        "details": "See {IERC721-ownerOf}."
      },
      "renounceOwnership()": {
        "details": "Leaves the contract without owner. It will not be possible to call `onlyOwner` functions anymore. Can only be called by the current owner. NOTE: Renouncing ownership will leave the contract without an owner, thereby removing any functionality that is only available to the owner."
      },
      "safeTransferFrom(address,address,uint256)": {
        "details": "See {IERC721-safeTransferFrom}."
      },
      "safeTransferFrom(address,address,uint256,bytes)": {
        "details": "See {IERC721-safeTransferFrom}."
      },
      "setApprovalForAll(address,bool)": {
        "details": "See {IERC721-setApprovalForAll}."
      },
      "supportsInterface(bytes4)": {
        "details": "See {IERC165-supportsInterface}."
      },
      "symbol()": {
        "details": "See {IERC721Metadata-symbol}."
      },
      "tokenURI(uint256)": {
        "details": "See {IERC721Metadata-tokenURI}."
      },
      "transferFrom(address,address,uint256)": {
        "details": "See {IERC721-transferFrom}."
      },
      "transferOwnership(address)": {
        "details": "Transfers ownership of the contract to a new account (`newOwner`). Can only be called by the current owner."
      }
    },
    "version": 1
  },
  "userdoc": {
    "kind": "user",
    "methods": {},
    "version": 1
  },
  "storageLayout": {
    "storage": [
      {
        "astId": 395,
        "contract": "contracts/ProjectNFT.sol:ProjectNFT",
        "label": "_name",
        "offset": 0,
        "slot": "0",
        "type": "t_string_storage"
      },
      {
        "astId": 397,
        "contract": "contracts/ProjectNFT.sol:ProjectNFT",
        "label": "_symbol",
        "offset": 0,
        "slot": "1",
        "type": "t_string_storage"
      },
      {
        "astId": 401,
        "contract": "contracts/ProjectNFT.sol:ProjectNFT",
        "label": "_owners",
        "offset": 0,
        "slot": "2",
        "type": "t_mapping(t_uint256,t_address)"
      },
      {
        "astId": 405,
        "contract": "contracts/ProjectNFT.sol:ProjectNFT",
        "label": "_balances",
        "offset": 0,
        "slot": "3",
        "type": "t_mapping(t_address,t_uint256)"
      },
      {
        "astId": 409,
        "contract": "contracts/ProjectNFT.sol:ProjectNFT",
        "label": "_tokenApprovals",
        "offset": 0,
        "slot": "4",
        "type": "t_mapping(t_uint256,t_address)"
      },
      {
        "astId": 415,
        "contract": "contracts/ProjectNFT.sol:ProjectNFT",
        "label": "_operatorApprovals",
        "offset": 0,
        "slot": "5",
        "type": "t_mapping(t_address,t_mapping(t_address,t_bool))"
      },
      {
        "astId": 1332,
        "contract": "contracts/ProjectNFT.sol:ProjectNFT",
        "label": "_tokenURIs",
        "offset": 0,
        "slot": "6",
        "type": "t_mapping(t_uint256,t_string_storage)"
      },
      {
        "astId": 273,
        "contract": "contracts/ProjectNFT.sol:ProjectNFT",
        "label": "_owner",
        "offset": 0,
        "slot": "7",
        "type": "t_address"
      },
      {
        "astId": 2906,
        "contract": "contracts/ProjectNFT.sol:ProjectNFT",
        "label": "_tokenIds",
        "offset": 0,
        "slot": "8",
        "type": "t_struct(Counter)1799_storage"
      },
      {
        "astId": 2909,
        "contract": "contracts/ProjectNFT.sol:ProjectNFT",
        "label": "_multiSigRequest",
        "offset": 0,
        "slot": "9",
        "type": "t_struct(Counter)1799_storage"
      },
      {
        "astId": 2913,
        "contract": "contracts/ProjectNFT.sol:ProjectNFT",
        "label": "reviewers",
        "offset": 0,
        "slot": "10",
        "type": "t_mapping(t_address,t_bool)"
      },
      {
        "astId": 2915,
        "contract": "contracts/ProjectNFT.sol:ProjectNFT",
        "label": "multiSigThreshold",
        "offset": 0,
        "slot": "11",
        "type": "t_uint128"
      },
      {
        "astId": 2917,
        "contract": "contracts/ProjectNFT.sol:ProjectNFT",
        "label": "numReviewers",
        "offset": 16,
        "slot": "11",
        "type": "t_uint128"
      },
      {
        "astId": 2919,
        "contract": "contracts/ProjectNFT.sol:ProjectNFT",
        "label": "_projectWallet",
        "offset": 0,
        "slot": "12",
        "type": "t_address_payable"
      },
      {
        "astId": 2929,
        "contract": "contracts/ProjectNFT.sol:ProjectNFT",
        "label": "contributors",
        "offset": 0,
        "slot": "13",
        "type": "t_mapping(t_string_memory_ptr,t_array(t_address)dyn_storage)"
      },
      {
        "astId": 2934,
        "contract": "contracts/ProjectNFT.sol:ProjectNFT",
        "label": "status",
        "offset": 0,
        "slot": "14",
        "type": "t_mapping(t_string_memory_ptr,t_enum(ProjectStatus)2924)"
      },
      {
        "astId": 2938,
        "contract": "contracts/ProjectNFT.sol:ProjectNFT",
        "label": "votes",
        "offset": 0,
        "slot": "15",
        "type": "t_mapping(t_string_memory_ptr,t_uint256)"
      },
      {
        "astId": 2944,
        "contract": "contracts/ProjectNFT.sol:ProjectNFT",
        "label": "reviewerVotes",
        "offset": 0,
        "slot": "16",
        "type": "t_mapping(t_string_memory_ptr,t_mapping(t_address,t_bool))"
      },
      {
        "astId": 2948,
        "contract": "contracts/ProjectNFT.sol:ProjectNFT",
        "label": "projectMinted",
        "offset": 0,
        "slot": "17",
        "type": "t_mapping(t_string_memory_ptr,t_bool)"
      },
      {
        "astId": 2952,
        "contract": "contracts/ProjectNFT.sol:ProjectNFT",
        "label": "projectThresholds",
        "offset": 0,
        "slot": "18",
        "type": "t_mapping(t_string_memory_ptr,t_uint256)"
      }
    ],
    "types": {
      "t_address": {
        "encoding": "inplace",
        "label": "address",
        "numberOfBytes": "20"
      },
      "t_address_payable": {
        "encoding": "inplace",
        "label": "address payable",
        "numberOfBytes": "20"
      },
      "t_array(t_address)dyn_storage": {
        "base": "t_address",
        "encoding": "dynamic_array",
        "label": "address[]",
        "numberOfBytes": "32"
      },
      "t_bool": {
        "encoding": "inplace",
        "label": "bool",
        "numberOfBytes": "1"
      },
      "t_enum(ProjectStatus)2924": {
        "encoding": "inplace",
        "label": "enum ProjectNFT.ProjectStatus",
        "numberOfBytes": "1"
      },
      "t_mapping(t_address,t_bool)": {
        "encoding": "mapping",
        "key": "t_address",
        "label": "mapping(address => bool)",
        "numberOfBytes": "32",
        "value": "t_bool"
      },
      "t_mapping(t_address,t_mapping(t_address,t_bool))": {
        "encoding": "mapping",
        "key": "t_address",
        "label": "mapping(address => mapping(address => bool))",
        "numberOfBytes": "32",
        "value": "t_mapping(t_address,t_bool)"
      },
      "t_mapping(t_address,t_uint256)": {
        "encoding": "mapping",
        "key": "t_address",
        "label": "mapping(address => uint256)",
        "numberOfBytes": "32",
        "value": "t_uint256"
      },
      "t_mapping(t_string_memory_ptr,t_array(t_address)dyn_storage)": {
        "encoding": "mapping",
        "key": "t_string_memory_ptr",
        "label": "mapping(string => address[])",
        "numberOfBytes": "32",
        "value": "t_array(t_address)dyn_storage"
      },
      "t_mapping(t_string_memory_ptr,t_bool)": {
        "encoding": "mapping",
        "key": "t_string_memory_ptr",
        "label": "mapping(string => bool)",
        "numberOfBytes": "32",
        "value": "t_bool"
      },
      "t_mapping(t_string_memory_ptr,t_enum(ProjectStatus)2924)": {
        "encoding": "mapping",
        "key": "t_string_memory_ptr",
        "label": "mapping(string => enum ProjectNFT.ProjectStatus)",
        "numberOfBytes": "32",
        "value": "t_enum(ProjectStatus)2924"
      },
      "t_mapping(t_string_memory_ptr,t_mapping(t_address,t_bool))": {
        "encoding": "mapping",
        "key": "t_string_memory_ptr",
        "label": "mapping(string => mapping(address => bool))",
        "numberOfBytes": "32",
        "value": "t_mapping(t_address,t_bool)"
      },
      "t_mapping(t_string_memory_ptr,t_uint256)": {
        "encoding": "mapping",
        "key": "t_string_memory_ptr",
        "label": "mapping(string => uint256)",
        "numberOfBytes": "32",
        "value": "t_uint256"
      },
      "t_mapping(t_uint256,t_address)": {
        "encoding": "mapping",
        "key": "t_uint256",
        "label": "mapping(uint256 => address)",
        "numberOfBytes": "32",
        "value": "t_address"
      },
      "t_mapping(t_uint256,t_string_storage)": {
        "encoding": "mapping",
        "key": "t_uint256",
        "label": "mapping(uint256 => string)",
        "numberOfBytes": "32",
        "value": "t_string_storage"
      },
      "t_string_memory_ptr": {
        "encoding": "bytes",
        "label": "string",
        "numberOfBytes": "32"
      },
      "t_string_storage": {
        "encoding": "bytes",
        "label": "string",
        "numberOfBytes": "32"
      },
      "t_struct(Counter)1799_storage": {
        "encoding": "inplace",
        "label": "struct Counters.Counter",
        "members": [
          {
            "astId": 1798,
            "contract": "contracts/ProjectNFT.sol:ProjectNFT",
            "label": "_value",
            "offset": 0,
            "slot": "0",
            "type": "t_uint256"
          }
        ],
        "numberOfBytes": "32"
      },
      "t_uint128": {
        "encoding": "inplace",
        "label": "uint128",
        "numberOfBytes": "16"
      },
      "t_uint256": {
        "encoding": "inplace",
        "label": "uint256",
        "numberOfBytes": "32"
      }
    }
  }
}